S017000042696E732F4D323034362E50524F442E73726563D6
S224000000DC7F0010E5000000C9000000CD000000D1000000D5000000D90000000000000076
S22400002000000000000000000000000049050000DD0000000000000019050000C14003006E
S224000040E1000000E1000000E1000000E1000000D56003009D510300855003006D4F030057
S224000060554E0300E10000005D680300B1660300E1000000E1000000B95F0300E100000054
S224000080E1000000293E0300E1000000E1000000E1000000656B0300E1000000E1000000D8
S2240000A0E1000000795D0300E1000000E1000000E1000000E1000000E1000000E10000003B
S2240000C0E100000000000000FEE700BFFEE700BFFEE700BFFEE700BFFEE700BFFEE700BF62
S2240000E0FEE700BF234A24498A420AD22348002350F803C042F803C0043302EB030C8C453B
S224000100F6D3264826494FF000028842B8BF40F8042BFADB4EF2FF124FF08043C0F2F5522A
S2240001205A6003221A706FF055021A72AB321A721C4880F30988124B124A19681160124A37
S2240001409A4205D91149096843F8041B9342FBD30F4B0BB100E000BF0E4B13B100E000BFA7
S224000160FEE70D4B13B100E000BFF9E700F036FBF6E700BF00000010FC0100106CBD0300F4
S224000180847A0010D8410010DC7F001000000010000000000000000000000000FC0100109B
S2240001A090510010847C001000000000000000000000000000000000000000000000000039
S2240001C000000000000000000000000000000000000000000000000000000000000000001A
S2240001E00000000000000000000000000000000000000000000000000000000000000000FA
S2240002000000000000000000000000000000000000000000000000000000000000000000D9
S2240002200000000000000000000000000000000000000000000000000000000000000000B9
S224000240000000000000000000000000000000000000000000000000000000000000000099
S224000260000000000000000000000000000000000000000000000000000000000000000079
S224000280000000000000000000000000000000000000000000000000000000000000000059
S2240002A0000000000000000000000000000000000000000000000000000000000000000039
S2240002C0000000000000000000000000000000000000000000000000000000000000000019
S2240002E000000000000000000000000000000000000000000000000000000000FFFFFFFFFD
S22400030000B58AB00AA8362340F8143D41F6F173C1F6FF736946984701980AB000BD00BF34
S2240003204CF20003C4F20F034FF40042C3F8C42040F24012C5F20042C3F8A82140F2004216
S224000340C0F20502C3F8AC214CF20002C4F2020200219162D3F8882012F0007F08D001225A
S224000360C3F88020AA22C3F88C205522C3F88C204CF20003C4F20F030022C3F88020AA22BA
S224000380C3F88C205522C3F88C20D3F8A021194642F02002C3F8A021D1F8A0214CF200038D
S2240003A012F0400FC4F20F03F6D041F60032C0F2B70201219042C3F80C1129D8D3F8A0212C
S2240003C042F02002C3F8A021D3F8A0114CF2000211F0400FC4F20F02F6D00123C2F80C3194
S2240003E00023C2F804313A23136041F60033494AC0F2B703136041F6FF33C0F2B7034FF026
S2240004008042536040F20103C8F200031361704742F20042C0F2F402904258D040F23102C7
S224000420C0F20202C3F884204FF0AA0C5522C3F88CC0C3F88C20C3F88010C3F88CC048F23C
S224000440004CC1F2D77CBCFBF0F00328C3F88C2035DD9CFBF0FC4CF66B230CF1FF32C6F6CD
S2240004605F33A3FB0213DB0D1B03013843F03A03284A4CF20001C4F20F01C2F800C0C1F8D9
S22400048004010B60D1F888204CF2000312F0806FC4F20F03F6D00322C3F88020AA22C3F8AF
S2240004A08C205522C3F88C20D3F8882012F0007FFAD04FEA1C131B0143F0FF039FE74EF270
S2240004C0001C44F23A030320C0F2F55CD0E7D3F8A02142F02002C3F8A021D3F8A0114CF295
S2240004E0000211F0400FC4F20F02F6D00123C2F80C310023C2F804313A23136042F20043A4
S224000500044AC0F2F403136042F2FF43C0F2F40375E700BF9051001072B6EFF3088020E9A6
S224000520F00F2A4981F308884FF000014DF804ED62B62FF067F972B65DF804EBB0E8F00F30
S22400054080F3088862B6704772B6EFF3088020E9F00F1E4981F308884DF804ED62B62FF052
S224000560CDF972B65DF804EBB0E8F00F80F3088862B67047DFF820C0084A944509D90023F4
S22400058052F803E041F803E0043302EB030EF445F6D88047FEE700BFE89E0300A89C030096
S2240005A030F0EEFB72B60A480A490B4AA2EB0101A0EB01000246A2F1080282F308880146BF
S2240005C040F00100FFF7D6FFFEE70000847C0010DC7F0010A89C0300E89E0300324BB3F9C1
S2240005E00030012B39DD4CF20003C4F20F03D3F8C42042F00072C3F8C4204CF20002C4F293
S2240006000202516841F470115160D3F8AC2122F44022C3F8AC21D3F8AC2142F48022C3F8EE
S224000620AC214CF20003C4F20903204A12681209B2FBF0F06FF07C021A73C0F307210022F2
S2240006405A60C0B219710321187019730721197283F8282005225A6070474CF20003C4F2A2
S2240006600F03D3F8C42042F00802C3F8C4204CF20002C4F20202116821F0F001116011687A
S22400068041F050011160D3F8A82122F0C002C3F8A821D3F8A82142F04002C3F8A8214CF2AC
S2240006A00003C4F20003C0E70000082090510010084B4CF20002B3F900104CF20003C4F273
S2240006C00002C4F209030129D8BF1346986800F004007047000008202DE9F0410C4D04B20E
S2240006E04FF080466FF055085527002064212EF01DF90A2C02BF3B4686F808803372F4D0F8
S224000700002CF2DB35F81430013325F81430ECE74C2C001000B544F20003C4F202035B6C0A
S22400072081B013F4007F15D00F4B5A7C92B1B3F900104CF200024CF20003C4F20002C4F2FA
S22400074009030129C8BF1A46936813F0040FFBD0107806E001200DF103012EF0F3F99DF86B
S224000760030001B000BD00BF0000082000B544F2000381B00090C4F202035B6C13F4007F65
S22400078017D0144B5A7CA2B1B3F900104CF200024CF20003C4F20902C4F200030129D8BF6D
S2240007A01A46137D13F0200FFBD09DF80030137008E0094B1B881BB2012B06DD082069466D
S2240007C02EF0DCF9009801B000BD022069462EF0D5F9F7E700000820862A0010DFF840255C
S2240007E0DFF84035DFF8407501251A603D7033F08FFBDFF8383500241C801888DFF8301562
S22400080080B208804FF002011980DFF82835DFF828651D70DFF824354EF200101D70DFF835
S224000820203535701C70DFF81C35C0F2F5501C70DFF814351C70FFF773FD204633F0AAFB42
S2240008402EF026F836F0E8F936F0AAF835F082FC35F0C4FA052030F0F1FA20464FF41651C2
S224000860224634F067F928464FF4E131224634F061F902204FF41651224634F05BF903200F
S2240008804FF41651224634F055F930F075FADFF8BC54A84615F804A0BAF1000F0BD050468F
S2240008A02EF076F808EB0A131B7D0A2B00F026810134062CEED1012002212EF0DDF80023B3
S2240008C0DFF88C243B700133137013785BB14CF20003C4F20F034FF47060C3F8C00030BF0D
S2240008E011780029F9D10024347036F023FA4CF220031022C2F20903DA614CF24003C2F2A9
S2240009000903DA611A6842F010021A6034F0E8FD35F00EFB35F0AAFC44F20003C4F2020355
S2240009205B6C13F4007F00F0E580DFF828540E2033F06EFCB5F90030012B40F3CA814CF23C
S2240009400003C4F209035C604EF20013CEF200034FF48072C3F8802036F08CF833F09AFA0A
S2240009604CF20003C4F20F03D3F8A82012F4007F08D00122C3F8A020A932C3F8AC20552202
S224000980C3F8AC204CF20003C4F20F030022C3F8A020AA215532C3F8AC10C3F8AC20D3F80A
S2240009A0800020F00200C3F88000C3F88C10C3F88C20D3F888104CF2000211F0007FC4F2CE
S2240009C00F02F6D1D2F8803023F00103C2F88030AA23C2F88C305523C2F88C30D2F88810AC
S2240009E04CF2000311F08071C4F20F03F6D1C3F80C11C3F80411C3F8A01130F015FA0A28BB
S224000A0000F09E8044F20004C4F20204636C13F4007178D0012341F600306B74C0F2B7006B
S224000A20FFF77EFC002033F0B5FA636C13F4003F03D0032323702D3323744CF22003C2F2A2
S224000A4009034FF40072DA611A684CF2000842F400721A604CF24003C2F209031A684CF2AA
S224000A60000722F006021A604CF20003C4F202031A6D44F2000642F028021A651A6D012490
S224000A8022F014021A65A868FFF7A8FD642033F0DFF9C4F20008C4F20907C4F2020642F20A
S224000AA010794FF0804A4FF0550B642033F0D0F9B5F90020012AD4BF43463B469B6813F0F4
S224000AC0040F4FD1B36C6FF07F4123F07F438B424FD10134642033F0BBF994FBF9F309FBCF
S224000AE01343002BE1D16FF055028AF808208AF808B0DAE733F034FD964D2DE7504602215F
S224000B002DF000FFD4E64CF20003C4F20F034FF40072C3F8C4204EF60052CEF200021069CC
S224000B2040F0040010610922C3F8C02030BF4FF080436FF055021A72197230F021F9FEE768
S224000B404CF24003C2F209035B6913F008027FF459AF4FF080436FF0550119721A7230F015
S224000B600FF9FEE744F20003C4F202034FF48051196544F20003C4F202031B6D13F4805F9B
S224000B8000F0948048F28003C4F2020300211963196B012A5963596BC8BF4FF080621961E6
S224000BA0C8BF5A6140F3B9806C88FFF7B3FD23B2EB1883F88C00013444F200074CF2000950
S224000BC04CF2000A48F21F5B2A7C6C80C4F20207C4F20909C4F2000AC5F2EB1BBB6C6FEAFE
S224000BE013636FEA0363BB64B5F90030012BCCBF49465146896811F0040108BF3965002A5B
S224000C0045D03A6D12F4805208BF144611D07FE040F20002C2F20802137C013403EB8303B0
S224000C205B009C4233DA3B6D13F4805F61D1B5F90030012BD4BF53464B469B6813F0040FC9
S224000C4054D18BFB0432E317C3EB6213642101FB13433BB94FF080436FF055024FF0550179
S224000C601A721972642033F0F3F86E880FFA86F8B8F5806FCCDB40F20003C2F208031C7C7A
S224000C8004EB84046400234601349C42CBDB44F20003C4F202030022DA6402F580521A65B6
S224000CA09A6C02F07F4242F001029A6433F058FC4CF22003C2F209034FF400729A614FF0BC
S224000CC080436FF055021A7256321A7230F058F8FEE74CF20003C4F200035C604EF2001398
S224000CE0CEF200032022C3F8802035E66E880FFA86F8FFF70FFDA84488F88C002A7C0A232A
S224000D0003FB02F30136A3426E803FF767AFBEE76E8800240FFA86F8EBE708225A6143E75E
S224000D2094510010802A0010C52B0010862A0010902B0010C42B0010C02B0010842A0010BC
S224000D40C82B00106C2A0010892A0010E89E0300882A00100000082042F68023C1F200031E
S224000D60196800228A801968CA8019688A601968CA6019680A611B685A617047054B1B880C
S224000D8033B9054B1878002818BF022000B270470120FBE704020010B135001001F1030CE8
S224000DA01CEA210C38BF8C464FEAAC0CBCF1000F30B415DD0B4B04681B689C4210D1002388
S224000DC004E050F823209D00A24207D101336345F7DB98004042401830BC70476842FAE7F8
S224000DE00020F8E7000000102DE9F04FB54D85B0C0B20123009085F85A30002840F09B80B3
S224000E002B68D220DFF8BCA26B6031F007F9002800F0A180002401268AF856608AF8404069
S224000E200390B246019402940DF10C080DF113070DF108090DF1040B26460122404639461D
S224000E4031F044FC01281EBF2C228DF813204FF0000A67D0029B1BB3002049465A4630F0C6
S224000E6071FF33B2062B15D8DFE813F0C600BD00CF000700D800A10081004FF00003029801
S224000E8085F840302FF0AAFF04B2142C40F3D8804FF0000A029830F0E7FA002301930293E7
S224000EA00136B6B233B2072B08DD012385F8563000232B616B6105B0BDE8F08FBAF1000F5D
S224000EC0BBD1072BF1D1009A02237E4C85F85630002A40F0E68095F858307A4A632B00F2E8
S224000EE0BE80012111FA03F351690B43536195F85930744A632B00F2BF80012111FA03F31A
S224000F0051690B43536195F85B306E4A632B00F2C080012111FA03F351690B4353612B680E
S224000F206B60C8E79DF813002C2893D049465A4630F008FFB6E70023D22085F85C302B7621
S224000F402B6085F85530DFF87CA16B6031F066F800287FF45FAF009B8AF856008AF85A00C9
S224000F60002BA8D0CAF81000CAF81400A3E7029B002118790A22181832F04AFFC0B2A0F17E
S224000F801003DBB2532B85F85B0081D943F26412C1F2000292F8583083423FF479AF92F8E0
S224000FA0593083427FF476AF4FF0000A72E7029B002118790A22181832F02AFFC0B2A0F1AB
S224000FC01003DBB2532B85F859007FF661AF43F26412C1F2000292F8583083427FF45AAFE0
S224000FE04FF0000A56E7029B002118790A22181832F00EFFA8604DE7029B002118790A22D5
S224001000181832F005FF286044E7029B002118790A22181832F0FCFEE8603BE7029B0021D3
S22400102018790A22181832F0F3FEC0B285F858001038C0B253283FF62DAF4FF0000A29E7C5
S22400104022464846204931F041FB43F26412C1F2000214194FF0000384F840301AE70121F1
S224001060643B11FA03F311690B43136195F85930144A632B7FF641AF0121643B11FA03F366
S22400108011690B43136195F85B300E4A632B7FF640AF0121643B11FA03F311690B431361AF
S2240010A03DE732F025FFE368984207D2A36898427FF611AF032384F856300CE7012384F8EE
S2240010C0563008E764310010A431001070B5052384B08DF8003003206FF075038DF8013026
S2240010E02DF0BEFE02226946D62035F0A5FA0224002001212DF01AFC012622466946D620B6
S2240011008DF800408DF8016035F096FA002031462DF00CFC1F2322466946D6208DF80130A9
S2240011208DF8006035F088FA002031462DF0FEFB072322468DF8003069464B23D6208DF892
S224001140013035F079FA002031462DF0EFFB00238DF80030D6203723694622468DF801302E
S22400116035F06AFA03206D462DF0E6FE04B070BD10B5C4B284B003202DF072FE012C0CBF12
S2240011806B244B24072369460222D6208DF800308DF8014035F050FA002001212DF0C6FB4F
S2240011A003202DF0C9FE04B010BD00BF30B58FB00BACC5B203202DF053FE22460B234FF427
S2240011C08071D62035F0EEF903202DF0B5FE9DF82F304AF2080200939DF82E30C0F20302AD
S2240011E001939DF82D30F92002939DF82C30272103939DF8333004939DF8323005939DF834
S224001200313006939DF8303007939DF8353008939DF8343009939DF836300A932B4625F0F8
S224001220EBF8012100202DF081FB05238DF82C3003206FF045038DF82D302DF011FE0222E6
S2240012402146D62035F0F8F9002001212DF06EFB01250B2302222146D6208DF82D308DF812
S2240012602C5035F0E9F9002029462DF05FFB0023214602228DF82C30D6206FF048038DF82C
S2240012802D3035F0D9F903202DF056FE1020062125F0F4FA0FB030BD2DE9F0475FFA80FA3B
S2240012A0BAF1020F83B000F0D08002238DF808301E238DF80930002301AF022101930093FC
S2240012C03A466B4602A831F099FA32F011FE624B624C1B78E846013BDBB2022B98BF6FF081
S2240012E00903606098BFA3600CD95D4B1B6859781A7842EA01229978DB7842EA014242EA02
S2240013000363A3600323554D23736FF07C033A4663730B216B460AF00109281D514E84F88C
S2240013200E9031F06BFA05202DF09AFD3368DA88002A5CD09988B1FBF2F22A74D3F808C076
S22400134048F68902C8F68802A2FB0C1C21694FEA5C1C6CF317212161D9680025A2FB01C298
S224001360C2F34F12E274120A227519696269BAF1020F61F3172262611A7D3848E275A26977
S224001380596902F07F4242EA1122A2612577E5762FD0354B027FD3F8C41042EA0122C26169
S2240013A093F8C720132180F82020B3F8C0303A4680F821301A2380F8223010306B4631F0CD
S2240013C01DFAB9F1000F0BD033689D803368DD8033689D603368DD6033681D6133685D61CB
S2240013E005202DF0A9FD019803B0BDE8F0872A74A4E793F83F300577C3761B4B027FD3F80E
S224001400C41042EA0122C26193F8C720132180F82020B3F8C0303A4680F821301A2380F88A
S22400142022306B46103031F0E9F905202DF084FD04213A466B460D4831F0E0F951463A46E2
S2240014406B460B4831F0DAF9CDE704238DF8083024238DF809302EE77A2C00100402001011
S224001460F42B0010802A0010B8330010E04000103C4100102DE9F04FDFF8FC808AB0D8F814
S2240014800030B3F5806F34BF9A464FF4806ABAF1000F68D0394F0DF1200B0DF10C090023A7
S2240014A0BAF1F00F34BF5646F02607930893B6B26FF001038DF82430731D8DF82530022172
S2240014C05A4607AB09A831F099F94FF00D03594607AA0D208DF8253030F034FC27480421C7
S2240014E05A4607AB31F08AF9FEB1386834B2102CA8BF1024A4B225B249462A46A4B22FF044
S2240015004FFE07AB484621465A4631F077F9D8F800303868361B5B1B2818B6B2C5EB0A0ACE
S224001520C8F800303860002EE0D142F61E43C1F200031C7842F6FC33C1F200031868089D1A
S22400154031F006F94FF08073019302900021204601224FF0FF33009524F00CF8BAF1000F8C
S2240015609DD1D8F8003023B9054B186808B12FF07BFF0AB0BDE8F08FEC2B0010142C0010A5
S224001580FC2B00102DE9F04F354C88B02378C0B20491039033B1002001212DF0C7F923782E
S2240015A0002BF8D14FF00008CDF81480CDF818802C4EDFF8B4A047460DF11C0B06AD05AC7A
S2240015C00BE00137BFB20FFA87F90436B9F1400F08F101080AF1080A2CD06FF001038DF8C3
S2240015E01C304FF00E038DF81D3002212A462346584631F003F94FF0110329462246112066
S2240016008DF81D3030F09EFB29462246404630F099FB04212A462346304631F0EFF8234644
S224001620504608212A4631F0E9F833685FFA87F9002BC6D10498069C31F08AF809F1010260
S2240016404FF0807301930290D2B2039800214FF0FF33009423F08EFF08B0BDE8F08F00BFAD
S2240016603C5100101C500010904800102DE9F0410C4683B0C5B210210220164623F06CFFF4
S224001680074660B306230371042343710223C37113234FF00008837100F1080380F80080AF
S2240016A080F8018080F8028080F8038080F8088083F80180304631F04BF82B0943EA0515E6
S2240016C0EDB2029001224FF0FF33284641460097019423F04FFF034B012283F8232003B0DC
S2240016E0BDE8F081040200102DE9F04FDFF89C8193B0B8F800304FF6FF7B1AB2002ABFBF1A
S22400170003F500639BB21AB2A8F80030B2F5006FC1BF03F578439BB21AB2A8F80030013A13
S224001720D417640D12195205520D141B002504F50844A40110951195DFF854A111AF10AE94
S224001740C0F2230BE94632E04022204669462FF027FD9DF8183002211B338DF849303A46DD
S224001760334612A831F04AF802213A463346474831F044F89DF849103A460239334689B269
S224001780684631F03BF8B8F8003001339BB21AB2B2F5006FA8F8003006DD42F6784203F562
S2240017A07843C1F2000213800F2D6BD040344FF002038DF84930DAF800305C4588BF4FF4C7
S2240017C0081401356FF002029C428DF84820EDB2BAD102213A46334612A831F00FF83A46DC
S2240017E033462A48022131F009F82A4BB8F8002001241A80284B294A1B7803EB43039B0068
S2240018001370274B186808B130F0A2FF06460E21022023F0A1FE002836D00623109003711A
S224001820109B05225A719DF84420109BDFF874801A709DF845205A709DF846209A709DF8AF
S2240018404720DA7098F80020109B02F00F0211939F1D9A7100237B7011982FF0BFFA80B248
S224001860B870000AF8703D7198F80000119900F00F0041F08071324623F02CFE20B213B076
S224001880BDE8F08F0024B5E70124F7E7782C0010302C0010602C0010D42B0010D02B001086
S2240018A0802C00100A2C001010B504B2022C2DD044F20003C4F202035B6C13F4806F1CD1DD
S2240018C0022C15D0022030F049FD032430F092FC204601342DF0C4F8072CF7D102200021E1
S2240018E024F0D8F930F086FC00202DF0B9F8FEE70A2030F033FD0134E8E70C20012124F0A9
S224001900C9F90C20002124F0C5F9D9E700216FF0030023F041FF0021692023F03DFF002131
S2240019206D2023F039FF00216FF0050024F0B2F900216A2023F030FF6820012123F02CFFB1
S224001940B6E700BF2DE9F04100B287B028B1C54B1C8814F4806400F0C2802FF0ABFB002462
S22400196002200C2123F0F8FD002800F08380062305900371059B02215971059B00221A70E5
S2240019805A709A70DA70059B0322981D9A7124B1BDF90C300BB1417001E000234370059B14
S2240019A0002500934FF0807301936620294601224FF0FF33029523F0DDFD61200DF11A01FD
S2240019C030F03AFB0646002858D0ADF81A5007AD002345F8083D2946162030F02FFF17207F
S2240019E0294630F02BFF03ADA91C4C2030F024FB18B14FF00003ADF80E306420294630F008
S224001A001BFB18B14FF00003ADF80C30BDF80E3013F0020F05D0BDF80C3013F4805300F028
S224001A20EB8002200D2123F097FD18B3062305900371059B02225A71059B00221A705A709D
S224001A409A70DA70059B0322991D9A711CB1BDF91030002B41D100234B70059B0021009375
S224001A604FF080730193222001224FF0FF33029123F080FD20B207B0BDE8F081BDF81A3004
S224001A8013F4805FA3D002200D2123F065FD0028F0D0062305900371059B02225A71059BDA
S224001AA003221E705E709E70DE70059B991D9A711CB1BDF90E30002B69D100234B70059B3F
S224001AC0002100934FF080730193BB2001224FF0FF33029123F04EFD85E74A70BDE703ADAD
S224001AE00B20294630F0A8FA08B1ADF80C400DF11A060C20314630F09FFA002840F0A680E3
S224001B00BDF81A30BDF90C201BB29A4280F298800124A91C172030F08FFA18B14FF00003D7
S224001B20ADF80E301620314630F086FA002840F08180BDF81A30BDF90E201BB29A42A6BF26
S224001B404FF0FF33ADF80E3001242F1D6420394630F072FA8046E0B9BDF8103013F4805FF2
S224001B6017D02120394630F067FA08B1ADF810802020314630F060FA00286DD1BDF81A30B4
S224001B80BDF910201BB29A4203DA012405E04A7095E74FF0FF33ADF8103002214FF0FF30AD
S224001BA015F004F980B2002818BF002403214FF0FF3015F0FBF880B200287FF4CEAE002CCA
S224001BC03FF4CBAE28462FF009FB84B2002C3FF4C7AE28462FF0FAFFBDF80C1029BBBDF8C9
S224001BE00E10E9B9BDF8101000293FF4B9AE09B2202030F0B5FEB3E607AD45F8083D29467C
S224001C001F2030F01BFE2946202030F017FE2946212030F013FE2220294630F00FFE29E794
S224001C2009B2162030F09CFEDCE709B20C2030F097FED4E74FF00003ADF81A3000237AE725
S224001C404FF0FF33ADF80C30002462E74FF00003ADF81A30002355E74FF00003ADF81A30FF
S224001C6000238DE7222C001070B5CE4D4FF6FF732C8883B09C420BD0260BADF8086032F073
S224001C8037F945F68023C5F2C323984201904BD80C2401250DF10A062046314630F0CCF9E0
S224001CA00134002808BF00250F2CF5D11F242046314630F0C1F90134002808BF0025232C43
S224001CC0F5D13146162030F0B7F93146002808BF0025172030F0B0F93146002808BF0025A6
S224001CE00A2030F0A9F998B9BDF80A30D3F1010338BF00232B4212D132F0FAF846F23F7383
S224001D00C4F6A33398426DD8002000B203B070BD01234FF000062B42ADF80A60ECD000209C
S224001D2029F07AFD0020F0E74AF28053CAF63C5344F20752C318CCF22E220193A2FB0313FA
S224001D40994A24051268240D50781178341941EA00219078D27841EA004141EA026144F657
S224001D602512C2F29242A2FB01C0C0EB010C00EB5C0080084FEAC00CC0EB0C00091A89B2A0
S224001D8001EB1343A2FB03129B1A02EB53039B08A34201937FF67CAFBDF8082029881AB13D
S224001DA0013A92B2ADF80820D31801F470417F4C0B432B807E4B25684FF003021A80002D1C
S224001DC07FF466AFDF2030F029F901460090002800F0D180284622F019FC2060754B0822F6
S224001DE01A7055E74BF2C533C9F2A213A3FB00C3DA0A4AF6AB23CAF6AA23A3FB02131B09BC
S224001E0003EB4303DB0044F20754D21ACCF22E2495B20190A4FB002402A9432030F00CF953
S224001E20BDF80830240C03F0FF02172A05DD03F47F4303339BB2ADF80830B3F5006F84BFF6
S224001E400323ADF80830BDF80A30A34268D0002029F0E2FCBDF8083013F47F4F1BD1BDF8F4
S224001E600A2094423FF450AF013294427AD000230320009329F0D0FC0120FFF763FD83B26E
S224001E80002B6AD021B20A2030F06AFD002029F0C3FC012039E7BDF80A2094423FF434AF50
S224001EA0190A0331C9B2062901D90739C9B2D01F8442DCDBD01D8442D9DCDDF804C044F2E4
S224001EC00750CCF22E20A0FB0C6044F6251C000CC2F2924CACFB006CCCEB00060CEB560C51
S224001EE04FEA9C0C4FEACC06CCEB060CCCEB0000C0B2884239D042F29343601A521AC9F281
S224001F00492383FB005C83FB026384449B18C017D217C0EBAC00C2EBA3039842A7D1F3E683
S224001F209DF808304FF4616000FB03F0019944F20753CCF22E23A3FB016345F280121B0CB2
S224001F40C0F2010202FB1313984280D200F5167083422CBF002001207AE70A20694630F0B2
S224001F606DFC93E79D4282D2CEE603F0FF039D42BFF67DAFC8E64DF2503303A8CFF68D234D
S224001F800431224640F8083D6B4630F037FC03A841F2EC3320F8043D022122466B4630F06C
S224001FA02DFC1BE7082C0010F42B0010802C0010182C00100A2C00102DE9F04FFB4C8BB051
S224001FC02378FF2B00F05B8100200AA909AA22F095FD2378054643B100230A9A2370F44BCE
S224001FE001325A62099A01329A62F24B1B78022B6AD0E52008A930F0EBFB07A90446E62028
S22400200030F0E6FB012802D0012C40F04181DFF8A8A341F6FF73BAF800209A4200F067814F
S2240020200A990998002D40F0AB81E14B5A6A8A4218BF0A4600F0B5815A629862BAF800302D
S224002040002B40F06681DD4D4FF6FF7801274FF4C016DA4CC0F2180801E00137BFB211225D
S2240020603046D6492FF09CF82B789A1DD2B2042A25D821792268090641EA12210A9AA068CD
S224002080891A227B0029B8BF4942120642EA1022914211D2217A6268090641EA1221099A2F
S2240020A0E068891A227C0029B8BF4942120642EA10229142C0F0678111364645CDD14FF0D7
S2240020C00003AAF80030DCE0002D40F01E81B84B0A9A596A8A4218BF099900F01081DFF867
S2240020E0E092B84C5A6299624FF4C010494611224D462FF055F80FCDAC4625460FC5DCF8F9
S22400210000204FF6FF732A70AC4D0022C0F21803019293464FF4C0172E460593AA4659E0A6
S224002120357933682D060A9845EA1325A84240F38E8094F804C023684FEA0C6C4CEA132CE9
S224002140604535DC401BCDF800C036F07DFB029003919AF80830DAF804201B0643EA1223DD
S2240021600493207A6368049A000640EA1320801A36F06AFB02AB0CCB36F0CEFBDDF800C030
S22400218002900391C5EB0C0036F05EFB0B46024602A903C936F0EAFC36F056FE049B07900D
S2240021A0C018099B984203DA019D6B1C9BB20193019AB8F1040F02F00102019258D8554637
S2240021C00FCDAC4625460FC5DCF800202A70059A97424DD011373846784911222EF0E0FF13
S2240021E09AF800800BF1010B08F106085FFA88F8B8F1040F94BF00230123BBF1310F88BF57
S22400220043F00103002B8BD04FF00005357099F80450D9F800302D0645EA132533784FF0A9
S224002220060843EA052333602B0E337199F80830D9F804201B0643EA1223327942EA032289
S2240022401B0E726033720A98A8423FF772AF94F804C023684FEA0C6C4CEA132C60453FF71A
S22400226071AF019AB8F1040F02F001020192A6D9019B4BB1504B41F6FF751D8001E001235B
S22400228023700BB0BDE8F08F4B4B019A1A80F8E7E72006A930F09CFA069B13B942F210738D
S2240022A006930A9908980A46401A0028B8BF40429842A8BF09980BDA0998DDF81CC0C0EBAE
S2240022C00C0CBCF1000FB8BFCCF1000C9C45D1DBDFF8E4A041F6FF73BAF800C09C4504BF3E
S2240022E00023AAF800307FF49DAE314BA4E64FF00005AAF800500A9A09982D4B9CE6099909
S224002300986A81427FF4EBAEBBE70A9A0999284BE5E6DB04DB0C013B284D03EB031303F54E
S224002320C010112229462EF03BFF2B780633DBB2042B3FF689AE2B792A681B0643EA122212
S2240023400A9BA968D21A2B7B002AB8BF52421B0643EA11239A42BFF477AE2B7A6A681B062D
S22400236043EA1222099BE968D21A2B7C002AB8BF52421B0643EA11239A42BFF465AE80E7AF
S2240023800A460B4B58E6FF04FF0CFE2BAAF800703FF477AFC3F1FE0347EA4337064B1F8062
S2240023A06FE7996A81427FF447AE6AE7542C001004020010D23200105C2C0010382C00107D
S2240023C0642C0010D82B0010DFF8AC2C00231380538042F6D63142F6EA32C1F20001C1F213
S2240023E000020B80138042F62C4042F6EC3142F6144242F6FC3CC1F20001C1F20002C1F2A5
S224002400000CC1F20000DFF874BCA9B003700B601360CCF800304FF03C00ABF82C0031F0E8
S22400242067FD0EA930F082FE0E9BB3F5FA6FC4F2DA826120DFF8481C2FF0FEFD03B233B1A1
S22400244042F6BE314FF00000C1F2000108802EF0B7FE42F6BE3442F6F432C1F20002C1F212
S224002460000410602088C0F3431022F025F80546208822F041F829460246002032F05AFB7A
S224002480642021462FF0D8FD002844F09F822088C0F3431022F010F842F6BE31C1F2000138
S2240024A00446088822F028F821460246022032F041FB42F6F432C1F20002136842F67A4C50
S2240024C059781A78DFF8B84B42EA01229978DB7842EA014242EA0363B3F1FF3F0CBF042332
S2240024E00023C1F2000C8CF80030472021462FF0A3FDB0B142F6F43EC1F2000EDEF8003022
S22400250059781A7842EA01229978DB7842EA014242EA0363B3F1FF3F0BBFFF200021208013
S224002520218042F62D420024C1F2000214700820DFF8501B2FF080FD20B142F6CC33C1F230
S22400254000031C80DFF8401BDFF8400B22F04CFA0420DFF83C1B2FF06FFD30B142F60841EC
S2240025604FF00000C1F20001088042F6184242F6764342F60B4C4FF00004C1F20002C1F21E
S2240025800003C1F2000C14801C808CF800400720DFF8001B2FF050FD58B142F6344E42F600
S2240025A00B40C1F2000E0223C1F20000AEF8004003700620DFF8E01A2FF03EFD58B142F647
S2240025C05E4242F634434FF00001C1F20002C1F200031180198042F65E42C1F20002B2F99A
S2240025E0003042F66041B3F5006F4FF0FF30C8BFDFF8A43AC1F200010880C8BF002042F6F1
S2240026007841C8BF1880C1F2000100230B80DFF88CAA42F6854C42F6804E42F60A4042F6A5
S224002620D031C1F2000CC1F2000EC1F20000C1F2000103700B708CF80030CEF80030DAF843
S22400264000004FF47E712FF01FF8DAF800301868002844F075819A695AB948F2F452C2F2EF
S22400266006021A63DAF8002049F64133C0F26B5353637F2026A92FF0DFFC002802F00D81F5
S224002680DFF81C2A0A92002023F0F4FC44F20003C4F202039B6C42F68C2E23F07F43C1F2E4
S2240026A0000ECEF80030032022F0A6F845200DF19E012FF0C1FC002842F0E8809DF89E303B
S2240026C042F61A41C1F200010B709DF89E106FF00400ADF89E1023F0DDFA4FF080436FF0EF
S2240026E055021A72AB321A72002024F0DFF842F60C4280B2C1F20002108000B2002801DDC9
S224002700FFF7D2F84CF22003C2F209034FF48032DA6144F20003C4F202035B6C13F400736E
S22400272018D11C464FF080456FF055074FF0550801342F720020642185F80880A4B22CF0FC
S224002740F5F8052C4FF08046F2D16FF055033372AB3333724CF22003C2F209034FF4803299
S2240027609A6144F20003C4F20203A2F580325A64DAF8002092F84030FF2B04F0178101209B
S22400278023F078FC42F6224CC1F2000CBCF8003013F0400F43F0EE87DFF8080901230890C6
S2240027A00370DFF804195C202FF046FC42F62241C1F200010B8842F67E421B0AC1F200021C
S2240027C013700BB1013B1370DFF8DC48412021462FF032FC002842F04680238813F0200FE9
S2240027E002F04480DFF8C4C8CDF824C08CF8000042F6C6300024C1F2000004802146692015
S224002800ABF800408BF82E408BF82F408BF8234022F0C2FFDFF8983821461C606B2022F00D
S224002820BBFF49200DF19A012FF006FC03B21BB14FF00301ADF89A105A20DFF878182FF0A3
S224002840FBFB002802F05180BDF89A0000F00700DFF86048002123F063F9462021462FF051
S224002860EBFB002841F00A872388C3F3C1235B00591C6FF00500ADF89A3023F00BFA4FF044
S224002880FF3034F02FF942F60C4C8310C1F2000CACF80030DFF8209842F6BC3142F668238B
S2240028A0DFF8184842F6542C4FF0FF324FF00000C1F20003C1F2000CC1F200011A80ACF80E
S2240028C0002008802080A9F800200023DFF8F057DFF8F087DFF8F077CC4615E03C2E00F0BC
S2240028E0DC80142E18BF127800F0908042F6BC31C1F200010B88013203EB82030B8042F6FF
S224002900BC32C1F200021388DAF8001001EB030E9EF84C20002A00F01F8140F2AB30834207
S22400292000F21A814C31CA185078FA2863D09678322ED3D142F65420C1F20000B0F900303F
S224002940B3F1FF3FDBD142F66821C1F20001B1F90030B3F1FF3F01F0BB87111DC8F8001082
S22400296010220EA8CDF814C037F0F8F8B7F90030DAF8002003F114004C32D1181018D25C23
S2240029800132920037F0F6F83A8842F65423C1F200031A8002F114033B80DAF800102B685D
S2240029A04C3112B214332B601E208B1898704FF00400D87001208854181D0EA9C8F80000E2
S2240029C0102237F0CBF842F65421C1F200010B88DDF814C0DAF800201BB24C32D1184FF0D4
S2240029E0320088704FF00400C8700431D054C8F80010D25C7AE7CB5C13F0030F40F0A980E0
S224002A009B086FF006001370507090E742F66821C1F20001B1F90030B3F1FF3F7FF46FAF2D
S224002A2042F6BC3EC1F2000EBEF800102388082943F001039BB208BF42F67C40238002BF59
S224002A40C1F2000043F00203038039802A60137842F6BC313E2B08BF2388C1F2000102BFC0
S224002A6043F00403238013780A88013302EB8303B3F56B7F9EBF42F6BC3EC1F2000EAEF828
S224002A8000307FF63CAF42F66823C1F200034FF0FF321A8000232B6031E7B9F90030B3F1D2
S224002AA0FF3F7FF42CAF42F6682EC1F2000EBEF90030B3F1FF3F01F01F8742F66420131DAA
S224002AC0C1F2000003605368DAF800200E93B7F900304C3203F10800D1181018D25CCDF82F
S224002AE014C00132920037F045F83A88DDF814C002F108033B80DAF800102B68ACF8002077
S224002B00083312B24C312B6001208B189E70D87088540E9A5A60BCF80030DAF800201BB2AE
S224002B204C32D1183C20887042F6642E0120C870C1F2000E0431D054CEF80010D25C12186A
S224002B4042F6BC30C1F20000038803EB82030380D5E600238EF84C3042F65421C1F20001D7
S224002B60B1F90030B3F1FF3F03F04E86B9F90030B3F1FF3F03F01986DFF850250023138075
S224002B8042F62241DFF84825C1F200011380CBF82830CBF82430B1F9003042F6544002220E
S224002BA0C1F20000002BDFF82C35027042F6CC3CA8BF01221A70C1F2000C4FF00403ABF88C
S224002BC03230ABF83430BCF800304FF02102ABF83020002B42F0B583ADF89830BDF89820DF
S224002BE0002342F64C414FF00000C1F2000121F8130029A800EB43034FF0000123F8441C0C
S224002C00531C9BB2032B1A46EBD942F6104C42F6F03E4FF0FF33C1F2000CC1F2000E4FF077
S224002C2007028CF800308EF80030442027A9ADF898202FF001FA002801F067864FF4616364
S224002C4042F68440ADF89C30C1F20000002303700120FEF7C9F843F26411C1F2000191F8FB
S224002C605620002A35D091F85800002831D00B4691F8591069B3632893BFDAF80030DAF890
S224002C800030A0F1640CD3F828C08BBF586A2CFA00F020FA0CF000F0010088BF00F00100EA
S224002CA0632902F278839B6ACB4003F001035B00DBB2034301339A420BD0012A02F0628372
S224002CC0032A06D143F2641E0923C1F2000E8EF8573042F66820C1F20000008842F66A217C
S224002CE0C1F200010880062103202BF0C5FE042033F0F8FE09201D2100222BF013FF142143
S224002D000A461723F4482BF08DFE052348200DF19A018BF854302FF08FF9002801F00086CC
S224002D2040F28E3345200DF19E01ADF89A302FF083F9002841F0F0859DF89E3019466FF0A0
S224002D400400ADF89E3022F0A5FF42F628410023C1F200010B6042F6204242F6564C42F6B2
S224002D60F83E42F6584042F61C41C1F20002C1F2000CC1F2000EC1F20000C1F20001138084
S224002D80ACF80030AEF8003003800B800DF17C0920AC21ADD1482BF01BFF172800F0A081BB
S224002DA01D28F7D1092022A92BF0CEFD229E002E01F0D28516F0007708BFB84640F04684B5
S224002DC03046414622F060FB83B203F00F02012A00F2DA83DDF888C003F001030C930522F7
S224002DE02CF04F4348461AA9CDF818C01F932FF06DFC052840F0B6839DF86930002B40F0D9
S224002E00B1838DF8A23098469DF86C300C995A1E0D918DF86C20002B7CD00222484625A950
S224002E202FF054FC0228844640F09C839DF89430122B00F0A68500F281800C2B00F27C830F
S224002E400B2BC0F0AB8300203221CDF814C02BF06DFD9DF89520002148462FF037FCDDF8A8
S224002E6014C00921604622F077FBDDF814C0219000288FD00023037043708370C370219B19
S224002E8006221A71219B04225A71219E0B2325A96246B01D8DF894308DF895C036F05EFEF8
S224002EA006F1080360201CA904932FF0C5F8049B002800F0A487032210461146ADF870107A
S224002EC002218DF8A21030725A709DF868301A0942EA0313D8B28DF8A100002F01F07A81CA
S224002EE038462FF035FC06469DF8A100219B9DF8A2200093069B002101934FF0FF33029678
S224002F0022F038FBB0469DF86C305A1E8DF86C20002B82D1BBF800304BB142F6C63CC1F26D
S224002F20000CBCF8003043F00403ACF800301F98002800F02E832EF097FA2AE31A2B00F21B
S224002F401883192BC0F086809DF89560012E41F26E81012B04BF0020ADF892000AD00222B8
S224002F6048460DF192012FF0B1FB022840F0FA829DF89560022E00F0BB879DF89430012B1B
S224002F8003D0023E8DF89560F6B2BDF892301AB2111E18BF01217F2ACCBF002101F0010144
S224002FA01846002900F0CC86022E0BD00021484632462FF08BFB9DF89530984240F0D282B4
S224002FC0BDF89230D8B224A92FF036F8022206461CA948462FF07AFB022840F0C382BDF925
S224002FE092307E2B33DCBDF8903007939DF89430192B03F013801A2B03F0AB80022B04BFCD
S224003000BDF87020ADF89020BDF89230B6B26F2B0B9603F00C800B9A002A42F0FB87BDF840
S22400302090100798884205D0D8B209B22FF098FCBDF892301BB2452B03F0CB80462B03F05F
S224003040AC80472B03F09E80682B03F08D804646B04658E7142B00F07C84C0F05B84182B67
S22400306000F0F7839DF895204846002146462FF02DFBB04647E700BFB42B0010040200102D
S224003080BE2B0010CC2B00106C9F0300302C0010082C0010342C00105E2C0010802A0010A9
S2240030A0F0010010242C0010222C0010112C0010B82B00100E2C0010602A00107C2C001070
S2240030C05C2A0010582A0010682A0010002C00105C2C0010D23200103C0200107C9F0300CD
S2240030E042F6E84E0023C1F2000E8BF82330BEF90030B3F5967F00F3808242F6EC30C1F203
S22400310000000368002B40F07B8208990B78FF2B16D00120052113F013FBDFF8083C0646F4
S2240031201B7883420AD049F66C73C0F2030303EBC00251690120926930F0FAFE08990E70C5
S2240031409BF85430013BDBB28BF85430002B7FF421AEDFF8D43B052283F8542042F6284278
S224003160C1F20002136801331360BDF89820002A50D04FF080436FF05501197242F6462CD0
S224003180AB311972C1F2000C9CF80030012B1DD942F6CC3EC1F2000EBEF80010B1B142F6BB
S2240031A02D46C1F20006317809290FD8013BDFF87C2BFA20192123F01FF9337801220133E1
S2240031C03370DFF86C3B1A70BDF89820013A96B2ADF89860F6B94FF00700ADF898006527F4
S2240031E0B04642F64C41C1F200010DF1600C8B5B3CF806209A4200F0AF8708F101080DF1AF
S224003200600C1FFA88F82CF8063001370236B8F1040FE6D1BBF800301BB1DFF80C2B013B6E
S224003220138042F61846C1F20006B6F90030012B00F3E981002BC0F2B98742F6854CC1F266
S224003240000C9CF8003043B342F60A4EC1F2000E9EF80030082B01F0A08242F6D030C1F25B
S22400326000000678013EF6B20670B6B942F6D431C1F200010B8801339BB20B801BB2052B72
S22400328003F31282012B06DD42F67842C1F2000213880F3B1380FEF727FA002021F058FBD7
S2240032A00646032021F0A8FAB6F5FA7F0746C0F01D8503202BF0D4FD01230821D6200DF1D4
S2240032C0A30233F06FF903202BF036FEDAF8003093F94030002BC0F2E78343F2D42CC1F21A
S2240032E0000CBCF90030002BC0F2BA8342F6F833C1F200034FF000021A800C2022F00AFF83
S22400330083B2002B00F00E819DF8A33013F0040F08D142F6204CC1F2000CBCF800300133F7
S224003320ACF800300C2022F0F5FE83B2002B00F0598340F252339F4240F27A849DF8A380D7
S22400334018F0040840F0748442F6564EC1F2000EBEF80020531C12B29BB2B2F5617FAEF80C
S224003360003083F2F7810A2B03F0D88140F21808C1F2000898F8003013F0400F15D142F66D
S224003380284CC1F2000CDCF800300A2B0DD930F0AFFD46F24073C4F6A3339842C2BF98F8A4
S2240033A0003043F0400388F8003040F252339F4240F22E8305202BF053FDDAF80030052080
S2240033C09A6801329A602BF0B7FDBDF89C3093B9BDF89A30BB429CBF0420ABF832000AD96A
S2240033E0BBF832303BB1013BDFF83C299BB25386002B03F09F816C2022F08CFE83B2002B63
S22400340000F0088205202BF02BFDDAF8003093F8402022F07F0283F84020DAF8003093F8DD
S224003420402042F07E0283F84020DAF800309E8705202BF081FD672022F06CFE83B2002B52
S22400344040F0CB8242F6CC3CC1F2000CBCF8002022B1BBF82C203C2A02F06E8142F6224E56
S224003460C1F2000EBEF8003013F4807F0AD0DAF8003093F94030002BA4BF0020ABF82C0045
S224003480C0F2BF860B20032123F0F8F9DDF824C09CF80030002B40F00084BBF8303003F07B
S2240034A00302032A00F0CD8303F01F021F2A3ED0B3B1013B9BB2ABF8303023B9DFF86838E7
S2240034C04FF43470188643F26416C1F2000696F85630012B04D996F85730002B00F0BC866B
S2240034E005202BF0BDFC42F61A4E43F2D420C1F2000EC1F2000003889EF8002042F67E4159
S224003500C1F200015A400B7852FA03F313F0010F04D0DAF80030DA6A0132DA6205202BF0B7
S2240035200BFD37E40C20012122F0B4FBECE6FEF79BFBBBF83030BBE70E2B00F00383C0F0E3
S22400354055810F2B7FF48EAD9DF895200E2A00F08D85002148462FF0B9F89DF89530984271
S2240035603FF475AD1F982DF07FFF38462DF07CFF10E4C92B00F0ED8176D8202B7FF472AD18
S22400358001238BF82F306DE5229820F04F402DF06BFF38462DF068FFFFF7FCBB022B3FF4DF
S2240035A0D3AC032B00F07281012B7FF45BAD0D9A002A3FF457AD9DF89560002E7FF4C6AC2A
S2240035C0002F01F0A28338462FF0C2F8064600209DF86880FDF760FE069B4FEA181808F10C
S2240035E01008009001934046042101224FF0FF330296B04621F0BEFF85E404F00DF87CE52C
S224003600FDF738FF81E5002023F0EEFE10F4004F7FF413AE0220FDF73FFE42F6804EC1F262
S224003620000E0746DEF800002FF092F84FF08073019302900421182001224FF0FF330097CB
S22400364021F098FF4FF001003080F6E526F04F48404622A920F0B6FF229B06F04F461E4386
S22400366047462296FFF7ACBBFD2B00F08180FE2B7FF4F8AC9DF89560002E00F04B83484646
S2240036800DF1A20101222FF021F89DF89530013B8DF895309DF868309DF8A2601A0942EA36
S2240036A00313D8B2112E8DF8A10002F0CF8600F2AF83062E02F0B38100F2F285022E02F0B0
S2240036C0278100F26386002E40F041866FF0010107238DF894108DF89530043123462A4631
S2240036E025A8209621962FF089F82946224630468DF8A2602EF026FB42F61042C1F2000299
S2240037001078294622462EF01DFB02212A462346DFF820062FF072F842F6F033C1F200037C
S2240037201878294622462EF00DFB8DF8A26044F6D84CC1F2000C1CF80600294622462EF044
S22400374001FB9DF8A2600136F6B2012E8DF8A260EDD9002F02F0CD8138462EF0F9FF064627
S224003760219B06999DF8A1000093019100F032BC9DF89530032B7FF46AAC01220DF1A101DC
S2240037804846CDF814C02EF0A1FFDDF814C0484662460DF192012EF099FF9DF89530033B81
S2240037A08DF89530BDF892301AB2002ABFBF03F500639BB21AB2ADF89230B2F5006FC4BF5B
S2240037C0A3F50063ADF892309DF8A130042B3FF63EAC01A252F823F0216300001B630000CC
S2240037E05F6200004F300000076200009DF89560002E00F0F983042E00F0EB8600214846B5
S22400380032462EF063FF9DF8953098427FF4AAAE46461DE405202BF023FBDAF80020DFF8F8
S2240038201835968740F20402C1F200029189B14280F0D1821A6892F8401021F07F0182F8F5
S22400384040101B6893F8402042F0650283F84020EEE59DF89520484600212EF037FF0D986C
S22400386000283FF4F4AB002F00F00F8638462EF06FFF06469DF8688023F0F4FE06994FEAE5
S224003880181808F1100800900191ACE60C99002940F050859DF89520012A40F27387032A8D
S2240038A000F05F87022248460DF192012EF00EFF02287FF457AEBDF99230FF2B01F0CA823E
S2240038C07F2B3FF4C4AB682B06D144F6F46E0023C1F2000E8EF8003000269DF89200214643
S2240038E020962EF0ABFFBDF99230D22B7FF4AFAB43F26410C1F2000090F85630002B3FF43B
S224003900A6AB80F856600223464680F85730B046FFF7F9BA9DF895304FF00000042BADF867
S224003920920005D99BF82E3013F0010F01F031829BF8233013B19DF895200AE6069B3A4665
S2240039409DF8680003F04F41FDF790FE9DF89520FFE59DF895204FF00000022AADF8920046
S22400396001F0B1829BF82330002BE4D1069A9DF8680002F04F413A46FDF778FE9DF8952005
S224003980E7E59DF895204FF00003012AADF89230CED19BF82E6016F00106C9D148460DF145
S2240039A0A101ADF892208DF8A1302EF08FFE9DF8A130012818BFADF89260BA2B1CBF002229
S2240039C0ADF89220B4D1BDF89230012B02F0C185002BADD04646FFF73BBB4FF03C02ABF8EB
S2240039E02C2053E542F65642C1F20002138801339BB2282B13807FF4B9AC0C20012122F07F
S224003A0049F9FA202721C94A012322F0F5FCADE405202BF025FADAF800300520DA68013237
S224003A20DA602BF089FABDF89C30002B3FF4E3AC9E4224BF0421ABF83410BFF4DCACBBF87E
S224003A403430002B3FF4D7AC013BB74A9BB29386002B7FF4D0AC0A20062122F00FFFCAE440
S224003A6042F61C4EC1F2000EBEF8003001339BB2AEF800301BB2B3F5616F15DD05202BF02A
S224003A80EFF9AD4B05201A6892F840306FEA43636FEA536382F840302BF04EFAFA202721E3
S224003AA0A24A052322F0A8FC43F2D420C1F20000038840F64572DB0B96428CBF002303F0C4
S224003AC00103002B3FF412ACB6F57A7F7FF60EAC9DF8A33013F0300F7FF408AC42F6F831BC
S224003AE0C1F200010B8823B942F65842C1F200021680013342F6F83C9BB2C1F2000CACF831
S224003B0000301BB2B3F5E16FC0F2C98442F6584EC1F2000EBEF9002006F132019142C0F287
S224003B20B7845A2B7FF4F0AB0C20012122F0B2F80B23FA2027217D4A22F05EFC9DF8A3307D
S224003B40FFF7E4BB4F2024A92EF076FA18B14FF03C00ADF890009DF89520082A7FF4F9ACF4
S224003B60BDF8906016F480667FF4F3AC042248461EA92EF0ABFD04287FF4F4AC059030F064
S224003B80B7F91E9B059AC31AB3F5967F82F0D88548461EA92EF09AFD04287FF4E3AC1E98C1
S224003BA030F0ACF940F21801C1F200010B78022043F040030B700B2121F0CEFC21900028C6
S224003BC03FF4E8A8067046708670C670219B06221A71219B02225A71219B0D219A1D997100
S224003BE056709DF8683031461A0942EA0313D8B2219B012200934FF0807301934FF0FF33BE
S224003C008DF8A100029621F0B5FC1E9A43F6802302F57C3202F59062C0F20903B2FBF3F3AC
S224003C2019B2092046462EF09BFEB046FFF76BB942F656414FF00000C1F200010880FFF7F8
S224003C4095BB42F65442C1F200021378022B01D0FEF7B2F94FF0FF3032F044FF42F60C4309
S224003C60C1F200031A88C0F38F0C0FFA8CF011B2C1EB000E0EF1030EBEF1060F9CBFA3F8CD
S224003C8000C0BBF830307FF60FAC884240F3028304321A80BBF8303006E403F0F9FB10F4E2
S224003CA0805F00F0198142F21003C0F2000300EA0303002B00F0378300F00C03042B14BFD4
S224003CC005230623099802789A423FF4E6AB1B4A49F66C71C0F20301137001EBC302516DAA
S224003CE00020926D30F024F9FFF7D7BB05202BF0B7F8DAF80030012283F8402005202BF0AC
S224003D001BF942F61C424FF00001C1F200021180FFF7CFBA0021484632468DF8A2102EF073
S224003D20D5FCB7E4242C0010040200101CA00300462A0010E6340010802A0010112C00102C
S224003D40DF2A40F3A284042E08D0484632462EF0BDFC9DF8953098427FF404AC042248460A
S224003D601DA92EF0B3FC04287FF4FCABBDF89230FF2B0CD142F67A4EC1F2000E9EF8002070
S224003D80032A04D99DF89420022A02F0F285D8B21EA92EF01DFD9DF894301E9A192B02F066
S224003DA050831A2B02BF1D9B22EA03031E9304D0022B04BF1D991E9100D01E9980B210B9FF
S224003DC08A423FF444A99DF8920046462EF0A6FDB046FFF798B8D189B14280F0FE811A6884
S224003DE092F8401021F07F0182F840101B6893F8402042F0510283F84020FFF719BBBDF83C
S224003E00702002F00701C8B2C2F30222FFF756B81E2E01F0468101F2A180162E02F0F083FB
S224003E2000F2C984142E02F01F84152E7FF40FA919236FF001014FF0000C8DF894108DF863
S224003E409530043123462A4625A8CDF880C0CDF884C0CDF814C02EF0D1FC294622463046DE
S224003E608DF895602DF06EFF44F2080004212A462346C4F204002EF0C1FC44F20C00042101
S224003E802A462346C4F204002EF0B8FC44F21C0004212A462346C4F204002EF0AFFC48F2AB
S224003EA0080004212A462346C4F204002EF0A6FC48F20C0004212A462346C4F204002EF061
S224003EC09DFC48F21C0004212A462346C4F204002EF094FC01F01AB942F6104EC1F2000E6D
S224003EE09EF8003013F0020F00F0AF810723E9E6BDF89230A3F1800292B25F2A40F2578364
S224003F0030460A2121F028FB219000283EF442AF00232090037043708370C370219A0621CA
S224003F201171219A5371BDF892301AB27F2A42F30F85DF2A02F3D4830022079221980023DA
S224003F40209300283FF483A82CF048FF9DF868308DF8A2001A09022042EA031301468DF819
S224003F60A13021F0F9FA209000283EF413AF9DF88430062203709DF88530022143709DF802
S224003F80863083709DF88730C370209B21931A71219B04225A71219A9171931D9DF8A22089
S224003FA052185A70079818B14FF0FF01ADF89210981C0DF19201022235F0D0FD002F53D02D
S224003FC038462EF0C5FB0646219B069A9DF8A10000930192002101224FF0FF330296B04639
S224003FE021F0C8FAFEF78FBF31460920CDF814C02EF0B6FC219620962FF07AFF04212A4603
S22400400023461D901DA82EF0F9FB21982CF0E6FEDDF814C08DF8A2000923604604218DF8A9
S224004020A13021F099FADDF814C0209000283EF4B1AE9DF88430062203709DF88530437013
S2240040409DF8863083709DF88730C370209B21931A71219B073283F805C0219B9A719DF813
S224004060A220DA71002FABD14646ADE7072121F073FA219000283EF48DAE00260670467025
S2240040808670C670219B4FF006021A71219B0E225A712199484606312EF018FB0E287FF451
S2240040A061AA304601212EF095F92090002801F04680219BC0F3072218705A70C0F3074237
S2240040C0000E9A70D87021982CF088FE9DF868308DF8A2001A0942EA0313022008218DF897
S2240040E0A13021F039FA209000283EF453AE9DF88430022203709DF8853043709DF8863073
S22400410083709DF88730C370209B4FF0060021931871219B5A71219B0E329A719DF8A22006
S224004120DA7101228DF8A220002F00F0C98638462EF00EFB9DF8A2200646219B0699009321
S22400414001919DF8A10000214FF0FF330296B04621F010FAFEF7D7BE4FF00000ADF8980051
S2240041603946DFF8D8072FF0E5FC322100202AF0DDFB42F6CC31C1F200010B8833B1FA2026
S2240041800321DFF8BC273B4622F036F90FFA88F1012900F0D7870120092122F06FFB42F681
S2240041A04C42C1F20002935BFFF727B842F67641C1F200010B8801339BB20B801BB2962B24
S2240041C07FF73BA84FF000023280662024F092FFFFF733B84646FEF789BE118AB14280F0BC
S2240041E015871A6892F8401021F07F0182F840101B6893F8402042F03D0283F84020FFF7B7
S22400420017B9BBF82C30013B9BB2ABF82C30002B3FF438A9382B7FF439A943F2EA21C1F248
S22400422000010B8843F020030B80FFF72FB90021324648462EF04AFA9DF89560B0427FF4AE
S22400424091A99DF89430FEF784BE00F00C03042B14BF0123022335E52FF04AFEF36898428F
S22400426080F09D81B368984240F2F88096F85630022B00F2F380092386F85730032386F891
S224004280563042F6844C0023C1F2000C8CF80030FFF726B9043A1A80BBF83030FFF704B982
S2240042A00A2E01F0518200F22181082E01F05282092E7EF4CCAE6FF001004FF0000C8DF81B
S2240042C09400DFF88006CDF880C0CDF884C0CDF814C035F0A5FC431C8DF895300221234646
S2240042E02A4625A82EF08AFA2946224630468DF895602DF027FDDFF84C0635F091FC411C9A
S224004300DFF8400689B22A4623462EF077FA9DF8A1303846219E04932EF01AFA0699009637
S224004320019100F0FDBE00F00C03042B0CBF04230323C7E49DF89520002148462EF0C6F974
S22400434046460020FDF7FEFAB046FEF7DCBD012E7EF47DAE9DF89530002B3EF478AE484605
S2240043600DF1A20132462EF0B1F9002F01F0CD8238462EF0EDF906469DF8A1009DF8A2109D
S224004380324627F031FBB046FEF7BDBD042E01F0B48041F2828044F2E81CC1F2000CDCF89F
S2240043A014304FF00000ADF870003BB1BDF870201B680132ADF87020002BF7D149F6607240
S2240043C0C0F20302127820932193033303FB02F36FF001010A338DF8941007928DF895305D
S2240043E0043123462A4625A82EF008FA0520294622468DF895002DF0A5FC4FF00103ADF801
S2240044009230012307991BB28B4201F32A8549F6647CC0F2030C1CF80300294622462DF0E9
S22400442091FCBDF9923049F6F060C0F2030000EB0312966850683146FCF7B0FC301AADF873
S2240044409000234624A802212A462EF0D7F9BDF8923001339BB2ADF89230D3E742F68441FB
S224004460C1F200010B78002B3FF40BAF43F26412C1F2000292F85630022B3FF602AFDFF88E
S224004480C834082283F85720FBE64646FFF7F2B90C20FCF78BFEDFF8B434B3F900303C2B47
S2240044A07FF43FAB03202AF0DBFC08210DF1A3020123D62032F076F803202AF03DFD9DF804
S2240044C0A33003F03002D2F1010138BF0021302A14BF0A4641F00102002A41F0038242F639
S2240044E0F831C1F200010A80FEF710BF0D2E01F04D850E2E01F00A850B2E7EF4A8AD6FF073
S22400450001024FF006034FF0000C8DF894208DF89530022123462A4625A8CDF880C0CDF8EA
S22400452084C0CDF814C02EF069F92246294630468DF895602DF006FC0121022012F000F9F4
S224004540224629468DF895002DF0FCFB0521012012F0F6F8224629468DF895002DF0F2FB1F
S2240045600621022012F0ECF8224629468DF895002DF0E8FB0321012012F0E2F8224629461E
S2240045808DF895002DF0DEFB0421012012F0D8F8294622468DF895002DF0D4FBB7E60A2347
S2240045A086F85730012386F85630FEF799BFD8B22DF034FD219000287FF4BEAC20903146C7
S2240045C00DF192002A4623462EF018F901210791B4E448461EA932462EF078F804287EF4F3
S2240045E0C1AF0023219320932FF082FC04211D902A4623461EA82EF001F904212A46234698
S2240046001DA82EF0FBF821982CF0E8FB9DF868308DF8A2001A0942EA0313022006218DF880
S224004620A13020F099FF209000283EF4B3AB9DF88430062203709DF8853043709DF8863068
S22400464083709DF88730C370209B21931A71219B02225A71219B0C329A719DF8A220DA7197
S224004660002F00F01B8538462EF072F80646219B9DF8A1000093069B0193ABE44FF0000399
S224004680238001210023FEF7F4B8219120918DF8A21086B922E02A469DF8A10021462DF087
S2240046A051FB9DF8A2309DF895200133DBB29A428DF8A2300FD9012248460DF1A1012EF0AD
S2240046C005F80128E7D020982CF0CEFE1F982CF0CBFEFEF75EBF209EBDF892000346002834
S2240046E001F0B487E6B10026C0B221962DF096FC0146219028B120982DF000FF002842F0F5
S2240047000780209B23B19DF8920021462EF096F8219818B12CF0A8FE00232193BDF89230B2
S2240047201BB2D22B7EF493AC0020FCF75DFB43F26411C1F2000191F85630012B02F00F8074
S22400474043F2641E0723C1F2000E42F684408EF85730C1F20000012346460370B046FEF7E8
S224004760D2BB4FF00002ADF8922048460DF1920101222DF0ABFF9DF89530013B8DF8953026
S224004780FFF799B8002148462DF0A0FF9DF8952090423FF484A8FEF7E5BE002022F036FEE9
S2240047A000287EF45AAD013022F030FE00283EF474ADFEF752BD1B2EFEF449AC1C2E04D80D
S2240047C014BF00200120FCF7D3FC03202AF048FB4FF480710EAA0B23D62031F0E3FE032049
S2240047E02AF0AAFB6FF001020D2300268DF894208DF89530022123462A4625A82096219684
S2240048002DF0FCFF9DF8A200294622468DF895002DF098FA0B212A4623460EA82DF0EEFFDF
S224004820DAF80030294693F8400022468DF895002DF088FA219B9DF8A12038460493059258
S2240048402DF086FF049B0093069B0193059A0290314610464FF0FF330122464620F08AFE94
S224004860B046FEF750BB4FF00E032380DFF8E0E001238EF8003000204FF0FF314FF4FA729B
S224004880CDF824E02FF054FBFDF7B2BF4FF00000ADF89E000023FDF713BF2E4BBDF8980046
S2240048A00A9334F01FFC33F0E1FF22A30CCB34F05DF940F20002C3F6F072002333F078FEF3
S2240048C034F00AFBDDF828C0CCF80000FDF7DBBE42F6BC32C1F20002138842F6542EC1F2B9
S2240048E0000EAEF80030FEF775B84FF00302ADF89A200320FDF7ACBF42F6BC31C1F20001AF
S2240049000B88ACF80030FEF708B99DF89C20642303FB02F3FEF794B900210B46FEF70FBA38
S224004920BDF89A300A22DB05DB0D02FB03F3FEF7F9B900BF006AF840000000004CA0030015
S2240049401CA003009C2D001064310010F82B0010112C0010F00100109BF82F30002B40F047
S2240049604984099A1378002B40F05F8500214FF4FA7201202FF0DCFA0023032022931FF008
S2240049803BFF44F2000343F2D42CC4F20203C1F2000C9A6CBCF8001002F07F4201F007017A
S2240049A041EA0202DFF8F47804469A640A264FF080456FF055084FF0550900200A2129F047
S2240049C0B5FF229BB3FBF6F206FB12321AB985F8088085F808900133B3F5167F229300F281
S2240049E012853B78002BE8D0012002F0B7FC2CF01BFA002105466FF0060021F04BF9012146
S224004A006FF0010020F0C8FEA5F10A03DFF89098DBB24FF00000012BA9F8000040F2D78493
S224004A20DFF88058462029462DF006FB0146002800F06E814FF0000129806820012120F0DE
S224004A40ABFE42F60E42C1F2000211786FF0030020F0A2FE4FF080436FF055021A7242F654
S224004A600E4CAB321A72C1F2000CBCF8003013F4005500F0E284C3F3C123590001316FF095
S224004A80050021F007F96A20012120F085FE2CF0CBF90F280646054688BF47B20DD847B2F0
S224004AA0012111FA07F248F2A013C0F2000302EA030313B16B2020F06FFEDFF8E4874A20BF
S224004AC041462DF0B9FA002800F02B814FF00000A8F800006D20002120F05EFE4FF08043BB
S224004AE06FF055021A72AB3200201A728DF8A3001FF02EFF0F2E804640F23E81B8F5616F11
S224004B0006D840F252339C4202D901238DF8A33000210D2020F040FE40F20401C1F200013F
S224004B200B7843B19DF8A370002F00F091840D20012121F0AFF84FF080436FF055021A72D2
S224004B40AB321A7242F68C2203F14043C1F20002102D136040F2C08042F60E46C1F200066E
S224004B60378817F4005F40F01F8444F20003C4F202036FF00300D3F8488021F0CBFA42F63D
S224004B800E4EC1F2000EBEF8003007EA080700EA03067E4040F0908303201FF02DFE40F28A
S224004BA05236B44294BF00240124B04294BF00260126A6421FBF42F68C20C1F2000003687C
S224004BC043F0010318BF0360B9F8003013F0030F40F0308303201FF00FFE40F252339842B6
S224004BE094BF00230123A3420AD04BB142F68C2CC1F2000CDCF8003043F00103CCF800307D
S224004C00002001464FF4FA722FF092F90220002121F040F844F20003C4F202035A6C12F087
S224004C20010017D143F2D42EC1F2000E9A6CBEF8001002F07F4201F0070141EA02029A64E9
S224004C40962129F073FE012021F030FE0446002800F0D6820020014631F066FB44F20003D2
S224004C60C4F202035B6C13F0010F02D10B2D00F0D182DFF83436DFF834461B8842F6F430BB
S224004C80C1F2000023800368612059781A7842EA01229978DB7842EA014242EA03634FF077
S224004CA00001A1806180E3600DF19E012DF0C4F968B14FF00002ADF89E2000201FF0FCFB4F
S224004CC0A0602DF097FA002029F0CAFEFEE7BDF89E00C0F34310F1E76BB201229A4042F2BC
S224004CE01203C0F2010302EA03032BB344F20003C4F202035A6C42F001025A6440F25233B0
S224004D009C4294BF0024012464E74646FEF75FBCB5F90030002BBFF690AE682020F03CFD60
S224004D208FE6B8F8003013F0030F3FF4D3AE6D20012120F031FDD1E612F4006F17D06720C9
S224004D4021F0E8F983B25BB10D200E2121F096FD44F20003C4F202035A6C42F001025A646E
S224004D6040F252339C4294BF0024012432E712F4806F3FF4F1AEF3E7012313FA07F74BF2D7
S224004D801233C0F2000307EA0303002B7FF4B9AEB4E6042248461EA92DF098FC042801F035
S224004DA0F984BDF99230012B7EF4C2ADDBF858301E98002683428BF82F6075D19DF8A23031
S224004DC083B93FE09DF8A1200B79D3180B719DF8A2209DF8A130D31ADBB28DF8A230002B79
S224004DE029D01E981F994A79934238BF1A468DF8A1200B79C9182CF07BF89DF8A1201E9B0F
S224004E009B181E931F9B59798A1A5A711F994B79002BD7D14A780B78012043EA02238A7825
S224004E2043EA0243CA7843EA0263209329F0BCFD209B1F93CBE7DBF858201E9B9A4238BFAC
S224004E40CBF858304FF0F0024646ABF80020B046FEF759B89DF89520022A08D00021484689
S224004E602DF034FC9DF8953098427EF47BAB022248460DF192012DF029FC02287EF472ABD6
S224004E80BDF9922045F2AA539A427EF4E0A844F6F46C0023C1F2000C8CF8003046462DF0C2
S224004EA089F9B046FEF72FB89DF8A220484631462DF00CFCFE4B8DF8A2609A6D1E9BBDE7E4
S224004EC04646FFF73AB924A948462DF0FFFB022804BF0121ADF8921004D0BDF99230012B18
S224004EE07EF440AD0020142129F020FD2BF0B8FF030A43EA00239AB29DF89430ADF88E209C
S224004F00C92B01F0348342F6C63CC1F2000CBCF8003043F00403ACF80030BDF890301BB9BC
S224004F20531C9BB2ADF890309A427EF490A80020782129F0FBFC9BF82F303BB9DC4B0122CC
S224004F4083F82E200420022121F098FC4FF000004646ABF80000B046FDF7D5BFC82E01F0C4
S224004F60818467D8642E01F09B847F2E7EF46FA89DF89520022A08D0002148462DF0A6FB55
S224004F809DF8953098427EF4EDAA022248460DF192012DF09BFB02287EF4E4AABDF9920067
S224004FA034F0A4F833F062FCBAA30CCB33F0DEFD40F20002C3F6F072002333F0F9FA33F0CE
S224004FC08BFF0A990860BDF89210002901F0B0849DF8A20009B22DF0C3FC0023209321933A
S224004FE06FF0010203338DF894208DF8953002212A46234625A82DF001FC9DF8A200294608
S22400500022462CF09FFE0DF192006DE2528AB24281F07E841A6892F8401021F07F0182F8E1
S22400502040101B6893F8402042F0290283F84020FEF7FEB9FA2E05D0FE2E00F09180CD2EA4
S2240050407EF405A842F67A40C1F20000037823B9FA2E0CBF05260026067000236FF00101F2
S224005060209321938DF894102A460431234625A88DF895102DF0C2FB294622469DF8A200AE
S2240050802CF060FE42F67A42C1F200021078294622462CF057FE002F7FF4E5AA4646FFF765
S2240050A0E6BA9DF89530022B7EF45CAA1A4624A9484604932DF00AFB049B6FF001000522B2
S2240050C04FF0000C19468DF8940023468DF8952025A82A46CDF880C0CDF884C0CDF814C081
S2240050E02DF08CFB2946224630468DF895602CF029FEBDF8900044F2A801C1F2000101EB39
S22400510080002A46042123462DF078FB9DF8A1303846219E04932DF01BFB069A0096019246
S224005120049BDDF814C002906146184601224FF0FF33464620F01EFAB046FDF7E4BE2198FE
S224005140FFF7C2BA6420059120F0E4FF83B20599002B3FF420A8052020F09CFDFFF71BB83B
S22400516042F6854CC1F2000C9CF800608EB942F60A4E42F68041C1F2000EC1F200018EF8A3
S224005180006008682CF070F942F68042C1F20002166042F6184CC1F2000CBCF9003053B944
S2240051A042F618434FF00002C1F2000346461A80B046FDF7A8BE42F6084EC1F2000EBEF9E4
S2240051C0001004202DF0CCFB012022F00DF983B2002BE5D0374BB3F90030002BE0DA66209B
S2240051E023F088FF42F676414FF00000C1F200010880D5E70420022121F040FBFFF7B1BBF5
S2240052000D200E2121F03AFB2CF0F4FF204629F027FCFEE7DAF8003093F94030002BFFF633
S22400522028AD0C20012120F035FD1120032121F025FB1EE50DF1A201012029F085FB0728F1
S2240052401FBF42F68C21C1F200010B6843F0020318BF0B6001200DF1A20129F075FB07286B
S224005260F8D105200DF1A20129F06EFB07281FBF42F68C22C1F20002136843F0020318BFE6
S224005280136005200DF1A20129F05EFB0728F8D1A0E400BF006AF84000000000000200106F
S2240052A0D22B00100E2C0010862A00100000082004020010182C001045200DF19E012CF022
S2240052C0BBFE00283AD1BDF89E20120A134642F60E41C1F20001ADF89E200A8844F200018E
S2240052E0C4F20201896C06F0070010401140014019421EBF42F68C2CC1F2000CDCF8001051
S22400530000EA02021CBF41F00401CCF8001044F20001C4F20201896C21F07F410B4332EA95
S22400532003031FBF42F68C2EC1F2000EDEF8003043F0040318BFCEF800302DE400231A4630
S224005340C5E7832342F6F43E0093C1F2000EDEF8003000245A781978FA2041EA02219A7831
S224005360DB7841EA024242EA036301930121DFF8E42B03230294039421F03EF8ADF8984021
S224005380FDF72CBC43F2641C0A23C1F2000C8CF85730FDF79EBC5B6A6439CB4003F00103CE
S2240053A05B00DBB2FDF785BC6FF0070020F0B2FE83B24BB142F68C2CC1F2000CDCF80030C1
S2240053C043F00403CCF800303788FFF7CEBB00216FF0030020F0E0F90021692020F0DCF961
S2240053E000216D2020F0D8F900216FF0050020F051FC00216A2020F0CFF96820012120F0FA
S224005400CBF9FFF798BB42F6CC3EC1F2000EBEF80030002B3FF4E8AAFA200321DFF8382B29
S224005420C82320F0E9FFFFF7DFBA00204FF0553164222EF07DFDFFF799BA29466FF00500D6
S22400544020F028FC6A20294620F0A6F9FFF71FBB0D20394620F01EFC331F18BF0123012E49
S2240054600CBF002303F00103002B3FF464ABB6F10D0318BF0123102E0CBF002603F00106FA
S224005480002E3FF458ABB8F5616F7FF654AB0C20394620F0FFFBFFF74EBB00232093219374
S2240054A02BF0B4FC6FF001020523ADF88E008DF894208DF89530022123462A4625A82DF0F6
S2240054C09DF9294622469DF8A2002CF03BFC02212A4623460DF18E002DF090F92BF0C0FCCB
S2240054E0ADF88E000DF18E0002212A4623462DF085F9002F7FF4B7A8D0E56FF001004FF0FC
S224005500000C4FF001018DF89400DFF8500ACDF880C0CDF884C0CDF814C08DF8951034F0FA
S2240055207FFB831CDBB2DFF8380A8DF89530049334F076FB049B421C9B18DBB2DFF8240AEF
S2240055408DF89530049334F06BFB049B421C9B18DBB2DFF8140A8DF89530049334F060FB49
S224005560049B421C9B18DBB2DFF8000A8DF89530049334F055FB049B00F125029B188DF8C4
S2240055809530022123462A4625A82DF037F92946224630468DF895602CF0D4FBDFF8BC09DD
S2240055A034F03EFB234681B22A46DFF8B0092DF025F929462246A7202CF0C4FBDFF8A009B9
S2240055C034F02EFB234681B22A46DFF894092DF015F929462246A7202CF0B4FBDFF8840901
S2240055E034F01EFB234681B22A46DFF878092DF005F929462246A7202CF0A4FBDFF8680949
S22400560034F00EFB234681B22A46DFF85C092DF0F5F829462246A7202CF094FBDFF84C0991
S22400562034F0FEFA234681B22A46DFF840092DF0E5F829462246A7202CF084FB43F2B833CA
S224005640C1F20003B3F9CA20B3F9CC30DFF8201900930EA8A7232DF0EBFF0EA834F0E0FA73
S2240056602A4681B223460EA82DF0C8F843F2B830C1F20000B0F9C030A722DFF8F8180EA8B7
S2240056802DF0D6FF0EA834F0CBFA2A4681B223460EA82DF0B3F843F2B831C1F20001B1F96E
S2240056A0D030A722DFF8D0180EA82DF0C1FF0EA834F0B6FA2A46234681B20EA82DF09EF8CB
S2240056C015A8032121F0CCFEA722159BDFF8AC180EA82DF0ADFF0EA834F0A2FA2A4681B25D
S2240056E023460EA82DF08AF8A722169BDFF88C180EA82DF09DFF0EA834F092FA2A4681B27A
S22400570023460EA82DF07AF8A722179BDFF86C180EA82DF08DFF0EA834F082FA2A4681B2A8
S22400572023460EA82DF06AF8DDF814C02946604622462CF007FBE9E4FA202121DFF8182842
S22400574020F05AFEFDF78ABE464622F019F9B046FDF7D9BB12236FF001024FF0000C02216D
S2240057608DF894208DF895302A46234625A8CDF880C0CDF884C0CDF814C02DF03FF8294691
S224005780224630468DF8A2602CF0DCFA04224FF4D0101EA92BF004FD1E9BDDF814C0B3F17B
S2240057A0FF3F08BFCDF878C0234604212A461EA82DF024F840F204000422C0F21A001EA9F6
S2240057C02BF0EEFC1E9BB3F1FF3F00F08880A3F5D013803B1E93042123462A461EA82DF064
S2240057E00DF840F210000422C0F21A001DA92BF0D7FC1D9BB3F1FF3F6ED0A3F5D0131E9AAC
S224005800823B9B1A1D93042123462A461DA82CF0F5FF40F20800C0F21A0004221EA92BF080
S224005820BFFC1E9BD8B203F47F03B3F5981F8DF8A2003AD2142838D004212A461EA8234652
S2240058402CF0DCFF0020294622468DF8A2002CF079FA1FB138462CF07BFF8046219B9DF8A4
S224005860A1000093069B0021019301224FF0FF33CDF808801FF07EFE292024A92CF0DCFB24
S224005880064600287DF4E3AB4FF6FF714FF4D010C0F221012BF03AFC2096292021464646A1
S2240058A02CF0CCFFB046FDF72EBB294622468DF8A2002CF047FAE2201EA92CF089FFC3B2EC
S2240058C08DF8A2300BB100231E931EA804212A4623462CF093FFBCE701331D9393E7013335
S2240058E01E9378E70C20002120F0D4F9FA200A232721DFF8642620F07FFD42F6F830C1F2DA
S2240059000000B0F90030FEF70CB94646FEF734BD0023209321939DF89530002B3DF497ABFB
S224005920012248461CA92CF0D1FE04238DF895309DF870306FF001028DF894206B2B00F238
S2240059408782DFE813F0760267025F02560247023D0235022C021B02850212020A02020220
S2240059608502F7018502EC01E0012F01D101C701BE01B501AD01A501A001990194018A0160
S2240059806D01660185024C0185028502850285028502450185028502850285028502850246
S2240059A0850285028502850285028502850285028502850285028502850285028502850272
S2240059C085028502850285028502850285028502850285023A01850285028502850285029E
S2240059E0850285028502850285028502850285028502850285028502850236018502850282
S224005A00850285028502850285021F011A011201850285020A01F400E900E100B1004FF0C9
S224005A20FF338DF8A2309DF895302BB148460DF1A20101222CF04AFE9DF8A20000261CA9CA
S224005A40224601280CBF022030461C9620961FF021FA6FF001031C988DF894302BF0BEF989
S224005A60431C8DF89530022123462A4625A8219620962CF0C3FE2246062029468DF895004E
S224005A802CF060F91C9921982BF08CF9219B9DF8A1203846049305922CF05AFE049B06990E
S224005AA000930191FEF7D2BE42F65423C1F200031B88ADF89030234602212A4625A82CF0E5
S224005AC09DFE294622469DF8A2002CF03BF99DF87000294622462CF035F99DF89530062B17
S224005AE00AD024A802212A4623462CF087FEFDF730BE4646FDF734BE1EA804212A46234646
S224005B002CF07CFEFDF725BE42F66A22C1F200021288ADF89020CEE743F61C03C1F20003E8
S224005B205A781B7843EA0223ADF89030C3E742F66821C1F20001B1F90030DAF80020B3F1B5
S224005B40FF3F04BF0022ADF89020B4D0D31893F84C309B00ADF89030ADE742F66820C1F24B
S224005B6000000088ADF89000A5E742F6BC31C1F200010988ADF890109DE74FF46B70ADF8E1
S224005B80900098E742F6C83342F6892CC1F20003C1F2000C1A789CF8003043EA0223ADF80F
S224005BA0903088E700201EF0D3FE40F61C43984281D90420FBF7FAFA7DE745F23C110123D3
S224005BC0C1F200014FF047020B70ADF8902072E743F2CC400423C1F2000003706BE7062352
S224005BE08DF8953043F2E62C43F2C823C1F20003C1F2000C1A7842F6F84EBCF80030C1F2D3
S224005C00000E43EA8232BEF8003043EA02431E9351E70120052110F093FDADF890004AE712
S224005C20052029F01DF9DAF80020052092F840306FEA43636FEA536382F84030DAF8003000
S224005C4093F84030ADF8903029F076F9FA202721C14A052320F0D0FB2DE74AF2CC00CFF606
S224005C60FF7001212BF0C0F9ADF8900023E725F0C3FDADF890001EE7DAF8003093F83F3070
S224005C80ADF8903017E71EF0AFFCADF8900012E743F2B851C1F200010988ADF890100AE7FC
S224005CA043F6AC20C1F200004379ADF8903002E743F6742EC1F2000E9EF80030ADF8903056
S224005CC0F9E643F6552CC1F2000C9CF80030ADF89030F0E6072000211FF0DCFF072020F0FF
S224005CE019FAADF89000E6E642F62040C1F20000008842F620424FF00001C1F20002ADF884
S224005D0090001180D7E642F62C4EC1F2000E9EF80030ADF8903000238EF80030CBE642F640
S224005D20C44C0623C1F2000C8DF89530DCF800301E93C0E642F63042C1F200021368A3F54F
S224005D4008139B09ADF89030B5E642F64A21C1F200010988ADF89010ADE642F64C20C1F268
S224005D6000000088ADF89000A5E642F6462EC1F2000E9EF80030ADF890309CE643F2641310
S224005D8043F2CC4CC1F20003C1F2000C93F85A209CF8003043EA0223ADF890308BE64FF00C
S224005DA0FF334FF000028DF87030ADF8902082E642F61C21C1F200010B78ADF890307AE618
S224005DC042F628400623C1F200008DF8953003681E9370E645F2901EC1F2000EDEF80020EA
S224005DE044F24023C0F20F03B2FBF3F3ADF8903061E642F66D2CC1F2000C9CF80030ADF809
S224005E00903058E643F2FE22C1F200021378ADF8903050E642F6D633C1F200031B8842F67D
S224005E20D6314FF00000C1F20001ADF89030088041E642F6EA30C1F20000008842F6EA326E
S224005E404FF00001C1F20002ADF89000118032E64FF0FF334FF000008DF87030ADF8900060
S224005E6029E629462246C8202BF06CFF444B47F6DC72C1F20002D61A31461846FAF78EFFB7
S224005E80301A2346ADF8900002212A4624A82CF0B5FC22462946C9202BF054FF47F68440BA
S224005EA047F68421C1F20000C1F20001461A31463448FAF773FF301A2346ADF890000221D3
S224005EC02A4624A82CF09AFC29462246CA202BF039FF02212A4623461CA82CF08FFC219B98
S224005EE038469DF8A16004932CF032FC049B069A0093019202900021304601224FF0FF3386
S224005F0046461FF037FBB046FCF7FDBF03236FF001014FF0000C8DF894108DF89530043190
S224005F2023462A4625A8CDF880C0CDF884C0CDF814C02CF063FC2946224630468DF89560CD
S224005F402BF000FF02212A4623460F482CF056FCFFF7DCB818A003001CA00300F833001022
S224005F60B8330010D8330010583400101834001020A003002CA0030024A0030034A00300DE
S224005F80887C0010847A0010405100109DF89530072B7DF65CA8DFF8601A042248462CF015
S224005FA095FB4846DFF8541A04222CF08FFB3FB138462CF0CDFB42F6FC32C1F200021060D0
S224005FC042F61442C1F200021368B3F1FF3F00F04482B3F5001F08D342F6EC3CC1F2000CA5
S224005FE0DCF800100A2900F0A58242F6144E23F00F03C1F2000ECEF8003042F61E409DF8CD
S224006000A130C1F2000003704646FBF733FAB046FCF779BFBDF89010FDF706B8BDF870305C
S224006020079840EA0303ADF89030FCF7EDBF0023219320930EB907994B1C06200121ADF843
S22400604090301FF027FE062300264FF00A088DF89530022123462A4625A8219620968DF8A2
S22400606094802CF0CBFB29462246AA202BF06AFE2946224655202BF065FE304629462246EA
S2240060802BF060FE3046294622462BF05BFE3046294622462BF056FE3046294622462BF09D
S2240060A051FE0C238DF8943002212A46234625A88DF895602CF0A2FB219B0D2000934FF05D
S2240060C080730193414602224FF0FF3302961FF051FA219620968DF8946002210D362A466A
S2240060E0234625A88DF895602CF088FBDFF8100931462A4623462CF081FB9FB338462CF088
S22400610027FB80469DF86830002023F00F0343F002033C218DF8A13028F008FC219B01223A
S22400612000934FF080739DF8A100019300214FF0FF33CDF808801FF01DFA01214D202CF01B
S2240061400FFC0D20012120F099FBBDF89230FCF762BFBDF87030079921EA0303ADF8903046
S224006160FCF752BFB846CDE79DF8903044F6F46C03F00203C1F2000C46468CF80030B04688
S224006180FCF7C1BEBDF8902042F6BE33C1F2000346461A80B046FCF7B6BEBDF890300798AD
S2240061A080EA030212F4C05F3CF451AF42F60E41C1F200010B80C3F3C1235900ADF8901018
S2240061C06FF00500013146461FF064FDB046FCF79ABE42F67E41C1F200010B7801229A40BC
S2240061E09DF890309DF8901002EA030342F61A42C1F2000213706FF0040046461FF04AFD0D
S224006200B046FCF780BE062028F02AFE4FF6FF714FF40810C0F223012AF078FF42F6304CC1
S224006220C1F2000C4FF4081342F65E4E42F68540CCF80030C1F2000EA3F50813C1F2000040
S2240062400370AEF8003021460620209346462CF0F5FA062028F070FEB046FCF754BEBDF8BD
S2240062609210002900F0DE8042F65E40C1F200000180062009B22CF073FB42F6604CC1F2F4
S224006280000CBCF90020BDF992309A4224D042F6784CC1F2000CBCF900209A427CF4D7AE6F
S2240062A042F6854E42F60A4042F680410026C1F2000EC1F20000C1F2000106708EF80060A9
S2240062C008682BF0D1F842F68042C1F2000216604646B046FCF717BE2DF00AFE45F2801307
S2240062E0C0F2010390FBF3F342F60B40C1F2000099B2037842F6344EC1F2000E022BAEF828
S224006300001003D009B207202CF02AFB42F660424FF0FF31C1F200021180BDF99230B6E7CE
S224006320BDF89230002B55D042F6784CC1F2000CACF8003042F6804EC1F2000EDEF8000065
S2240063402BF092F842F6784142F6304CC1F20001C1F2000CB1F90020DCF8001042F68040D5
S224006360A1F508110023C1F20000B2EB911F036026D02FB138462CF0EBF9DFF88836186082
S2240063809DF8683042F60A4E1B09C1F2000E42F6D03042F6D43242F6854C8EF80030C1F26E
S2240063A0000001234FF00001C1F20002C1F2000C464603701180B0468CF80030FCF7A3BD73
S2240063C042F6854EC1F2000E46468EF80030B046FCF799BD42F65E4EC1F2000EBEF80020F0
S2240063E012F4004F02BF42F67840C1F200000280A0D042F63041C1F200010A6842F6784C22
S224006400A2F50812520A0132D20092B2C1F2000CACF8002012B2B2F5006FC4BFDFF8E8255D
S224006420138087E742F63042C1F20002116842F65E43A1F50811C1F38F11C1F20003198053
S22400644017E71D9B13431E93FDF7B7BC39464646FBF798F8B046FCF756BD002616600520C9
S2240064602096219628F0FCFCADF890600D366FF001036FF0240002218DF894308DF8950056
S22400648023462A4625A82CF0B9F90D20294622468DF895602BF056FC04212A462346DFF8C3
S2240064A058052CF0ABF942F61441C1F200010B68DAF800204C33D018D6212A4623462CF0C1
S2240064C09DF942F61442C1F200021368D6331360BDF8903001339BB2012BADF89030C6D9C1
S2240064E0052028F029FD219B42F6FC3C00934FF080730193C1F2000CDCF800309DF8A100B6
S224006500029302224FF0FF3300211FF033F842F6EC3EDFF8E42442F6FC300023C1F2000E68
S224006520C1F200004646CEF8003013600360B046FCF7E9BCA3F58010106000F10A012AF00F
S224006540E5FDDFF8B834002246461A60B046FCF7DABC00268BF82F602AF0F6FCBDF892302F
S224006560CBF85860002B7DF435AAFDF7E1B9BDF8903093427CF46BAD002602200F21209692
S22400658021961EF0E9FF219000283CF403AC067046708670C670219A06231371219A4FF0D7
S2240065A0040C53716FF036038DF89430219B25A9981D02228DF895C00493CDF814C033F091
S2240065C0CDFA049BDDF814C003F10800DFF83C14624633F0C3FAABF80060002F7ED03846FE
S2240065E02CF0B6F80646219B9DF86800009320F00F004FF0807340F002000193FDF7EABC83
S2240066006FF001038DF8943013334FF0000C8DF89530022123462A4625A8CDF880C0CDF85B
S22400662084C0CDF814C02CF0E9F82946224630468DF895602BF086FB0821F5482A462346D9
S2240066402CF0DCF8F3480821FDF75DBE21462A46219020901EF01EFC20983146012225F00B
S22400666055F9B046FCF74FBC42F6CC3CC1F2000CBCF80030002B3CF4EAAC42F6304EC1F296
S224006680000EDEF8001042F65E40A1F50811C1F38F11C1F200000180464609B206202CF06B
S2240066A05FF9B046FCF72FBC42F6854342F60A4C42F6804EC1F20003C1F2000CC1F2000EDF
S2240066C0DEF800001E708CF800602AF0CDFE42F68040C1F200000660FCF7DFBD464682E7F3
S2240066E0D8B21EA92CF074F880B2079038B91EA804212A4623462CF081F8FDF71FBC0DF1DC
S224006700920031462A4623462CF078F8FDF716BC20982AF0A9FE2096FDF7FABF0C204146B1
S2240067201FF0B8FAFA202721BB4A43461FF064FEFCF71CBE0220052120F0A0F8FCF75BBE69
S22400674048461EA92BF0C2FF04287CF40BAF4646FCF77EBC0220FAF729FDFCF707BE4B6850
S224006760002B40F028810333464681F85730B046FCF7C9BBDFF8A4E24FF0FF338EF800305D
S224006780012000214FF4FA72CDF820E02DF0D0FBFCF707B89DF895304FF00101043BADF825
S2240067A092108DF8A230FEF701BB42F6BC3CC1F2000CBCF80020B2F5697FBCF4DDA9DAF8D0
