S017000042696E732F4D323034362E50524F442E73726563D6
S224000000DC7F0010E5000000C9000000CD000000D1000000D5000000D90000000000000076
S22400002000000000000000000000000049050000DD0000000000000019050000712F0300CF
S224000040E1000000E1000000E1000000E10000007D4E030029400300113F0300F93D030051
S224000060E13C0300E100000065550300ED530300E1000000E1000000614D0300E100000026
S224000080E1000000D92C0300E1000000E1000000E10000006D580300E1000000E100000045
S2240000A0E100000051480300E1000000E1000000E1000000E1000000E1000000E100000078
S2240000C0E100000000000000FEE700BFFEE700BFFEE700BFFEE700BFFEE700BFFEE700BF62
S2240000E0FEE700BF234A24498A420AD22348002350F803C042F803C0043302EB030C8C453B
S224000100F6D3264826494FF000028842B8BF40F8042BFADB4EF2FF124FF08043C0F2F5522A
S2240001205A6003221A706FF055021A72AB321A721C4880F30988124B124A19681160124A37
S2240001409A4205D91149096843F8041B9342FBD30F4B0BB100E000BF0E4B13B100E000BFA7
S224000160FEE70D4B13B100E000BFF9E700F036FBF6E700BF00000010FC010010E4A9030090
S224000180247A001088410010DC7F001000000010000000000000000000000000FC0100104B
S2240001A030510010247C0010000000000000000000000000000000000000000000000000F9
S2240001C000000000000000000000000000000000000000000000000000000000000000001A
S2240001E00000000000000000000000000000000000000000000000000000000000000000FA
S2240002000000000000000000000000000000000000000000000000000000000000000000D9
S2240002200000000000000000000000000000000000000000000000000000000000000000B9
S224000240000000000000000000000000000000000000000000000000000000000000000099
S224000260000000000000000000000000000000000000000000000000000000000000000079
S224000280000000000000000000000000000000000000000000000000000000000000000059
S2240002A0000000000000000000000000000000000000000000000000000000000000000039
S2240002C0000000000000000000000000000000000000000000000000000000000000000019
S2240002E000000000000000000000000000000000000000000000000000000000FFFFFFFFFD
S22400030000B58AB00AA8362340F8143D41F6F173C1F6FF736946984701980AB000BD00BF34
S2240003204CF20003C4F20F034FF40042C3F8C42040F24012C5F20042C3F8A82140F2004216
S224000340C0F20502C3F8AC214CF20002C4F2020200219162D3F8882012F0007F08D001225A
S224000360C3F88020AA22C3F88C205522C3F88C204CF20003C4F20F030022C3F88020AA22BA
S224000380C3F88C205522C3F88C20D3F8A021194642F02002C3F8A021D1F8A0214CF200038D
S2240003A012F0400FC4F20F03F6D041F60032C0F2B70201219042C3F80C1129D8D3F8A0212C
S2240003C042F02002C3F8A021D3F8A0114CF2000211F0400FC4F20F02F6D00123C2F80C3194
S2240003E00023C2F804313A23136041F60033494AC0F2B703136041F6FF33C0F2B7034FF026
S2240004008042536040F20103C8F200031361704742F20042C0F2F402904258D040F23102C7
S224000420C0F20202C3F884204FF0AA0C5522C3F88CC0C3F88C20C3F88010C3F88CC048F23C
S224000440004CC1F2D77CBCFBF0F00328C3F88C2035DD9CFBF0FC4CF66B230CF1FF32C6F6CD
S2240004605F33A3FB0213DB0D1B03013843F03A03284A4CF20001C4F20F01C2F800C0C1F8D9
S22400048004010B60D1F888204CF2000312F0806FC4F20F03F6D00322C3F88020AA22C3F8AF
S2240004A08C205522C3F88C20D3F8882012F0007FFAD04FEA1C131B0143F0FF039FE74EF270
S2240004C0001C44F23A030320C0F2F55CD0E7D3F8A02142F02002C3F8A021D3F8A0114CF295
S2240004E0000211F0400FC4F20F02F6D00123C2F80C310023C2F804313A23136042F20043A4
S224000500044AC0F2F403136042F2FF43C0F2F40375E700BF3051001072B6EFF3088020E906
S224000520F00F2A4981F308884FF000014DF804ED62B62EF0C1F872B65DF804EBB0E8F00FD8
S22400054080F3088862B6704772B6EFF3088020E9F00F1E4981F308884DF804ED62B62EF053
S22400056027F972B65DF804EBB0E8F00F80F3088862B67047DFF820C0084A944509D900239A
S22400058052F803E041F803E0043302EB030EF445F6D88047FEE700BFF48B0300B4890300A4
S2240005A02FF048FB72B60A480A490B4AA2EB0101A0EB01000246A2F1080282F30888014666
S2240005C040F00100FFF7D6FFFEE70000247C0010DC7F0010B4890300F48B0300324BB3F92F
S2240005E00030012B39DD4CF20003C4F20F03D3F8C42042F00072C3F8C4204CF20002C4F293
S2240006000202516841F470115160D3F8AC2122F44022C3F8AC21D3F8AC2142F48022C3F8EE
S224000620AC214CF20003C4F20903204A12681209B2FBF0F06FF07C021A73C0F307210022F2
S2240006405A60C0B219710321187019730721197283F8282005225A6070474CF20003C4F2A2
S2240006600F03D3F8C42042F00802C3F8C4204CF20002C4F20202116821F0F001116011687A
S22400068041F050011160D3F8A82122F0C002C3F8A821D3F8A82142F04002C3F8A8214CF2AC
S2240006A00003C4F20003C0E70000082030510010084B4CF20002B3F900104CF20003C4F2D3
S2240006C00002C4F209030129D8BF1346986800F004007047000008202DE9F0410C4D04B20E
S2240006E04FF080466FF055085527002064212DF077F80A2C02BF3B4686F808803372F4D0A0
S224000700002CF2DB35F81430013325F81430ECE74C2C001000B544F20003C4F202035B6C0A
S22400072081B013F4007F15D00F4B5A7C92B1B3F900104CF200024CF20003C4F20002C4F2FA
S22400074009030129C8BF1A46936813F0040FFBD0107806E001200DF103012DF04DF99DF812
S224000760030001B000BD00BF0000082000B544F2000381B00090C4F202035B6C13F4007F65
S22400078017D0144B5A7CA2B1B3F900104CF200024CF20003C4F20902C4F200030129D8BF6D
S2240007A01A46137D13F0200FFBD09DF80030137008E0094BB3F90030012B06DD0820694601
S2240007C02DF036F9009801B000BD022069462DF02FF9F7E700000820862A0010DFF84C358E
S2240007E0DFF84C25DFF84C5501261A602E7032F0E7FADFF8442500271780DFF840254FF079
S22400080002011180DFF83825DFF838451670DFF838254EF200101670DFF83025C0F2F55004
S2240008201770DFF82C2526701770DFF828251770FFF776FD384632F005FB2CF083FF35F070
S2240008406FF834F031FF34F047FB34F09BF923782BB1384634F0EAF8304634F0E7F8052021
S2240008602FF046FA002002464FF4165133F0BCF801204FF4E131002233F0B6F802204FF45D
S2240008801651002233F0B0F803204FF41651002233F0AAF82FF0CAF9DFF8BC740026B8463E
S2240008A017F806A0BAF1000F0BD050462CF0CAFF08EB0A131B7D0A2B00F026810136062E8F
S2240008C0EED1012002212DF031F80023DFF88C242B700133137013785BB14CF20003C4F240
S2240008E00F034FF47060C3F8C00030BF11780029F9D10026267035F0A3F84CF220031022D9
S224000900C2F20903DA614CF24003C2F20903DA611A6842F010021A6033F022FD34F0DCF9E0
S22400092034F05EFB44F20003C4F202035B6C13F4007F00F0E580DFF828540E2032F0C2FB3F
S224000940B5F90030012B40F3CA814CF20003C4F209035E604EF20013CEF200034FF48072FE
S224000960C3F8802034F00AFF32F0ECF94CF20003C4F20F03D3F8A82012F4007F08D00122C7
S224000980C3F8A020A932C3F8AC205522C3F8AC204CF20003C4F20F030022C3F8A020AA2106
S2240009A05532C3F8AC10C3F8AC20D3F8800020F00200C3F88000C3F88C10C3F88C20D3F88C
S2240009C088104CF2000211F0007FC4F20F02F6D1D2F8803023F00103C2F88030AA23C2F8AA
S2240009E08C305523C2F88C30D2F888104CF2000311F08071C4F20F03F6D1C3F80C11C3F891
S224000A000411C3F8A0112FF069F90A2800F09E8044F20004C4F20204636C13F4007178D00A
S224000A20012341F600306B74C0F2B700FFF778FC002032F007FA636C13F4003F03D0032323
S224000A4023702D3323744CF22003C2F209034FF40072DA611A684CF2000842F400721A600C
S224000A604CF24003C2F209031A684CF2000722F006021A604CF20003C4F202031A6D44F21C
S224000A80000642F028021A651A6D012422F014021A65A868FFF7A2FD642032F031F9C4F2F2
S224000AA00008C4F20907C4F2020642F210794FF0804A4FF0550B642032F022F9B5F90020B1
S224000AC0012AD4BF43463B469B6813F0040F4FD1B36C6FF07F4123F07F438B424FD10134DB
S224000AE0642032F00DF994FBF9F309FB1343002BE1D16FF055028AF808208AF808B0DAE738
S224000B0032F088FC964D2DE7504602212CF054FED4E64CF20003C4F20F034FF40072C3F8D9
S224000B20C4204EF60052CEF20002106940F0040010610922C3F8C02030BF4FF080436FF040
S224000B4055021A7219722FF075F8FEE74CF24003C2F209035B6913F008027FF459AF4FF0E5
S224000B6080436FF0550119721A722FF063F8FEE744F20003C4F202034FF48051196544F2C6
S224000B800003C4F202031B6D13F4805F00F0948048F28003C4F2020300211963196B012A5C
S224000BA05963596BC8BF4FF080621961C8BF5A6140F3B9806C88FFF7ADFD23B2EB1883F8F9
S224000BC08C00013444F200074CF200094CF2000A48F21F5B2A7C6C80C4F20207C4F20909B6
S224000BE0C4F2000AC5F2EB1BBB6C6FEA13636FEA0363BB64B5F90030012BCCBF49465146E4
S224000C00896811F0040108BF3965002A45D03A6D12F4805208BF144611D07FE040F2000220
S224000C20C2F20802137C013403EB83035B009C4233DA3B6D13F4805F61D1B5F90030012BA9
S224000C40D4BF53464B469B6813F0040F54D18BFB0432E317C3EB6213642101FB13433BB9F0
S224000C604FF080436FF055024FF055011A721972642032F045F86E880FFA86F8B8F5806F0F
S224000C80CCDB40F20003C2F208031C7C04EB84046400234601349C42CBDB44F20003C4F230
S224000CA002030022DA6402F580521A659A6C02F07F4242F001029A6432F0ACFB4CF220036C
S224000CC0C2F209034FF400729A614FF080436FF055021A7256321A722EF0ACFFFEE74CF25B
S224000CE00003C4F200035E604EF20013CEF200032022C3F8802035E66E880FFA86F8FFF734
S224000D0009FDA84488F88C002A7C0A2303FB02F30136A3426E803FF767AFBEE76E880024F5
S224000D200FFA86F8EBE708225A6143E7802A001034510010C52B0010902B0010862A00106C
S224000D40C42B0010C02B0010842A0010C82B00106C2A0010892A0010F48B0300882A001026
S224000D600000082042F68023C1F20003196800228A801968CA8019688A601968CA601968A6
S224000D800A611B685A617047054B1B8833B9054B1878002818BF022000B270470120FBE7A2
S224000DA0040200106135001001F1030C1CEA210C38BF8C464FEAAC0CBCF1000F30B415DDF2
S224000DC00B4B04681B689C4210D1002304E050F823209D00A24207D101336345F7DB9800D9
S224000DE04042401830BC70476842FAE70020F8E7000000102DE9F04FB54D85B0C0B20123B5
S224000E00009085F85A30002840F09B802B68D220DFF8BCA26B6030F059F8002800F0A18094
S224000E20002401268AF856608AF840400390B246019402940DF10C080DF113070DF1080939
S224000E400DF1040B264601224046394630F096FB01281EBF2C228DF813204FF0000A67D0AF
S224000E60029B1BB3002049465A462FF0C3FE33B2062B15D8DFE813F0C600BD00CF000700AD
S224000E80D800A10081004FF00003029885F840302EF0FEFE04B2142C40F3D8804FF0000AA6
S224000EA002982FF039FA0023019302930136B6B233B2072B08DD012385F8563000232B6184
S224000EC06B6105B0BDE8F08FBAF1000FBBD1072BF1D1009A02237E4C85F85630002A40F048
S224000EE0E68095F858307A4A632B00F2BE80012111FA03F351690B43536195F85930744A3D
S224000F00632B00F2BF80012111FA03F351690B43536195F85B306E4A632B00F2C08001217C
S224000F2011FA03F351690B4353612B686B60C8E79DF813002C2893D049465A462FF05AFEDD
S224000F40B6E70023D22085F85C302B762B6085F85530DFF87CA16B602FF0B8FF00287FF473
S224000F605FAF009B8AF856008AF85A00002BA8D0CAF81000CAF81400A3E7029B00211879EB
S224000F800A22181831F09CFEC0B2A0F11003DBB2532B85F85B0081D943F26412C1F2000282
S224000FA092F8583083423FF479AF92F8593083427FF476AF4FF0000A72E7029B0021187999
S224000FC00A22181831F07CFEC0B2A0F11003DBB2532B85F859007FF661AF43F26412C1F23B
S224000FE0000292F8583083427FF45AAF4FF0000A56E7029B002118790A22181831F060FEE7
S224001000A8604DE7029B002118790A22181831F057FE286044E7029B002118790A22181810
S22400102031F04EFEE8603BE7029B002118790A22181831F045FEC0B285F858001038C0B2C4
S22400104053283FF62DAF4FF0000A29E722464846204930F093FA43F26412C1F2000214190D
S2240010604FF0000384F840301AE70121643B11FA03F311690B43136195F85930144A632B3C
S2240010807FF641AF0121643B11FA03F311690B43136195F85B300E4A632B7FF640AF012164
S2240010A0643B11FA03F311690B4313613DE731F077FEE368984207D2A36898427FF611AF7D
S2240010C0032384F856300CE7012384F8563008E764310010A431001070B5052384B08DF84B
S2240010E0003003206FF075038DF801302CF012FE02226946D62034F03DF902240020012154
S2240011002CF06EFB012622466946D6208DF800408DF8016034F02EF9002031462CF060FB0D
S2240011201F2322466946D6208DF801308DF8006034F020F9002031462CF052FB07232246F1
S2240011408DF8003069464B23D6208DF8013034F011F9002031462CF043FB00238DF8003015
S224001160D6203723694622468DF8013034F002F903206D462CF03AFE04B070BD10B5C4B2E8
S22400118084B003202CF0C6FD012C0CBF6B244B24072369460222D6208DF800308DF80140B0
S2240011A034F0E8F8002001212CF01AFB03202CF01DFE04B010BD00BF30B58FB00BACC5B2C7
S2240011C003202CF0A7FD22460B234FF48071D62034F086F803202CF009FE9DF82F3048F64D
S2240011E0145200939DF82E30C0F2030201939DF82D30F92002939DF82C30272103939DF8AF
S224001200333004939DF8323005939DF8313006939DF8303007939DF8353008939DF8343094
S22400122009939DF836300A932B4623F0FDFF012100202CF0D5FA05238DF82C3003206FF03D
S22400124045038DF82D302CF065FD02222146D62034F090F8002001212CF0C2FA01250B2346
S22400126002222146D6208DF82D308DF82C5034F081F8002029462CF0B3FA00232146022262
S2240012808DF82C30D6206FF048038DF82D3034F071F803202CF0AAFD1020062124F006FA08
S2240012A00FB030BD2DE9F0475FFA80FABAF1020F83B000F0CF8002238DF808301E238DF887
S2240012C00930002301AF0221019300933A466B4602A830F0EBF931F063FD624B624C1B7865
S2240012E0E846013BDBB2022B98BF6FF00903606098BFA3600CD95D4B1B6859781A7842EA4A
S22400130001229978DB7842EA014242EA0363A3600323554D237378233A4663730B216B4611
S2240013200AF00109281D524E84F80E9030F0BEF905202CF0EFFC3368DA88002A5CD099882E
S224001340B1FBF2F22A74D3F808C048F68902C8F68802A2FB0C1C21694FEA5C1C6CF317211F
S2240013602161D9680025A2FB01C2C2F34F12E274120A227519696269BAF1020F61F317226B
S22400138062611A7D3848E275A269596902F07F4242EA1122A2612577E5762FD0354B027F3E
S2240013A0D3F8C41042EA0122C26193F8C720132180F82020B3F8C0303A4680F821301A2398
S2240013C080F8223010306B4630F070F9B9F1000F0BD033689D803368DD8033689D6033684D
S2240013E0DD6033681D6133685D6105202CF0FEFC019803B0BDE8F0872A74A4E793F83F3073
S2240014000577C3761B4B027FD3F8C41042EA0122C26193F8C720132180F82020B3F8C03021
S2240014203A4680F821301A2380F822306B46103030F03CF905202CF0D9FC04213A466B46A5
S2240014400D4830F033F951463A466B460B4830F02DF9CDE704238DF8083024238DF80930E8
S2240014602FE700BF7A2C001004020010F42B0010802A0010B833001090400010EC400010C6
S2240014802DE9F04FDFF8FC808AB0D8F80030B3F5806F34BF9A464FF4806ABAF1000F68D0DC
S2240014A0394F0DF1200B0DF10C090023BAF1F00F34BF5646F02607930893B6B26FF00103F1
S2240014C08DF82430731D8DF8253002215A4607AB09A830F0EBF84FF00D03594607AA0D20CF
S2240014E08DF825302FF086FB274804215A4607AB30F0DCF8FEB1386834B2102CA8BF102487
S224001500A4B225B249462A46A4B22EF0A1FD07AB484621465A4630F0C9F8D8F800303868C0
S224001520361B5B1B2818B6B2C5EB0A0AC8F800303860002EE0D142F61E43C1F200031C7829
S22400154042F6FC33C1F200031868089D30F058F84FF08073019302900021204601224FF093
S224001560FF33009523F036F9BAF1000F9DD1D8F8003023B9054B186808B12EF0CDFE0AB02D
S224001580BDE8F08FEC2B0010142C0010FC2B00102DE9F04FC0B288B04FF000080491039006
S2240015A0CDF81480CDF818802B4EDFF8B0A047460DF11C0B06AD05AC0BE00137BFB20FFA1D
S2240015C087F90436B9F1400F08F101080AF1080A2CD06FF001038DF81C304FF00E038DF83F
S2240015E01D3002212A462346584630F05FF84FF011032946224611208DF81D302FF0FAFA48
S2240016002946224640462FF0F5FA04212A462346304630F04BF82346504608212A4630F0CB
S22400162045F833685FFA87F9002BC6D10498069C2FF0E6FF09F101024FF08073019302909B
S224001640D2B2039800214FF0FF33009423F0C2F808B0BDE8F08F00BFC84F00103C4800101D
S2240016602DE9F0410C4683B0C5B210210220164623F0A2F8074660B30623037104234371EE
S2240016800223C37113234FF00008837100F1080380F8008080F8018080F8028080F8038099
S2240016A080F8088083F8018030462FF0A9FF2B0943EA0515EDB2029001224FF0FF3328463E
S2240016C041460097019423F085F8034B012283F8232003B0BDE8F081040200102DE9F04F5F
S2240016E0DFF89C8193B0B8F800304FF6FF7B1AB2002ABFBF03F500639BB21AB2A8F8003057
S224001700B2F5006FC1BF03F578439BB21AB2A8F80030013AD417640D12195205520D141BEB
S224001720002504F50844A40110951195DFF854A111AF10AEC0F2230BE94632E04022204617
S22400174069462EF085FC9DF8183002211B338DF849303A46334612A82FF0A8FF02213A46CE
S224001760334647482FF0A2FF9DF849103A460239334689B268462FF099FFB8F800300133C6
S2240017809BB21AB2B2F5006FA8F8003006DD42F6784203F57843C1F2000213800F2D6BD0FE
S2240017A040344FF002038DF84930DAF800305C4588BF4FF4081401356FF002029C428DF829
S2240017C04820EDB2BAD102213A46334612A82FF06DFF3A4633462A4802212FF067FF2A4B89
S2240017E0B8F8002001241A80284B294A1B7803EB43039B001370274B186808B12FF000FFC1
S22400180006460E21022022F0D7FF002836D0062310900371109B05225A719DF84420109B92
S224001820DFF874801A709DF845205A709DF846209A709DF84720DA7098F80020109B02F0F2
S2240018400F0211939F1D9A7100237B7011982EF01FFA80B2B870000AF8703D7198F800000F
S224001860119900F00F0041F08071324622F062FF20B213B0BDE8F08F0024B5E70124F7E731
S224001880782C0010302C0010602C0010D42B0010D02B0010802C00100A2C001010B504B2F0
S2240018A0022C2DD044F20003C4F202035B6C13F4806F1CD1022C15D002202FF0A7FC03243C
S2240018C02FF0F0FB204601342CF024F8072CF7D10220002123F080F92FF0E4FB00202CF022
S2240018E019F8FEE70A202FF091FC0134E8E70C20012123F071F90C20002123F06DF9D9E7C2
S22400190000216FF0030023F077F80021692023F073F800216D2023F06FF800216FF00500E8
S22400192023F05AF900216A2023F066F86820012123F062F8B6E700BF2DE9F04100B287B07D
S22400194028B1C54B1C8814F4806400F0C2802EF009FB002402200C2122F02EFF002800F0EB
S2240019608380062305900371059B02215971059B00221A705A709A70DA70059B0322981DBC
S2240019809A7124B1BDF90C300BB1417001E000234370059B002500934FF0807301936620A8
S2240019A0294601224FF0FF33029522F013FF61200DF11A012FF098FA0646002858D0ADF8D8
S2240019C01A5007AD002345F8083D294616202FF08DFE172029462FF089FE03ADA91C4C20C3
S2240019E02FF082FA18B14FF00003ADF80E30642029462FF079FA18B14FF00003ADF80C30E8
S224001A00BDF80E3013F0020F05D0BDF80C3013F4805300F0EB8002200D2122F0CDFE18B3C7
S224001A20062305900371059B02225A71059B00221A705A709A70DA70059B0322991D9A71F0
S224001A401CB1BDF91030002B41D100234B70059B002100934FF080730193222001224FF0E5
S224001A60FF33029122F0B6FE20B207B0BDE8F081BDF81A3013F4805FA3D002200D2122F07D
S224001A809BFE0028F0D0062305900371059B02225A71059B03221E705E709E70DE70059BE2
S224001AA0991D9A711CB1BDF90E30002B69D100234B70059B002100934FF080730193BB2067
S224001AC001224FF0FF33029122F084FE85E74A70BDE703AD0B2029462FF006FA08B1ADF8B5
S224001AE00C400DF11A060C2031462FF0FDF9002840F0A680BDF81A30BDF90C201BB29A42B7
S224001B0080F298800124A91C17202FF0EDF918B14FF00003ADF80E30162031462FF0E4F979
S224001B20002840F08180BDF81A30BDF90E201BB29A42A6BF4FF0FF33ADF80E3001242F1D91
S224001B40642039462FF0D0F98046E0B9BDF8103013F4805F17D0212039462FF0C5F908B11E
S224001B60ADF81080202031462FF0BEF900286DD1BDF81A30BDF910201BB29A4203DA0124A8
S224001B8005E04A7095E74FF0FF33ADF8103002214FF0FF3014F0B2FE80B2002818BF002435
S224001BA003214FF0FF3014F0A9FE80B200287FF4CEAE002C3FF4CBAE28462EF067FA84B29F
S224001BC0002C3FF4C7AE28462EF058FFBDF80C1029BBBDF80E10E9B9BDF8101000293FF4EE
S224001BE0B9AE09B220202FF013FEB3E607AD45F8083D29461F202FF079FD294620202FF06E
S224001C0075FD294621202FF071FD222029462FF06DFD29E709B216202FF0FAFDDCE709B241
S224001C200C202FF0F5FDD4E74FF00003ADF81A3000237AE74FF0FF33ADF80C30002462E733
S224001C404FF00003ADF81A30002355E74FF00003ADF81A3000238DE7222C001070B5CE4D89
S224001C604FF6FF732C8883B09C420BD0260BADF8086031F095F845F68023C5F2C3239842C7
S224001C8001904BD80C2401250DF10A06204631462FF02AF90134002808BF00250F2CF5D1BE
S224001CA01F24204631462FF01FF90134002808BF0025232CF5D1314616202FF015F9314619
S224001CC0002808BF002517202FF00EF93146002808BF00250A202FF007F998B9BDF80A307A
S224001CE0D3F1010338BF00232B4212D131F058F846F23F73C4F6A33398426DD8002000B2D1
S224001D0003B070BD01234FF000062B42ADF80A60ECD0002028F0DCFC0020F0E74AF2805327
S224001D20CAF63C5344F20752C318CCF22E220193A2FB0313994A24051268240D5078117888
S224001D40341941EA00219078D27841EA004141EA026144F62512C2F29242A2FB01C0C0EB97
S224001D60010C00EB5C0080084FEAC00CC0EB0C00091A89B201EB1343A2FB03129B1A02EBD2
S224001D8053039B08A34201937FF67CAFBDF8082029881AB1013A92B2ADF80820D31801F4A7
S224001DA070417F4C0B432B807E4B25684FF003021A80002D7FF466AFDF202FF087F80146DC
S224001DC00090002800F0D180284621F04FFD2060754B08221A7055E74BF2C533C9F2A21365
S224001DE0A3FB00C3DA0A4AF6AB23CAF6AA23A3FB02131B0903EB4303DB0044F20754D21A9B
S224001E00CCF22E2495B20190A4FB002402A943202FF06AF8BDF80830240C03F0FF02172A31
S224001E2005DD03F47F4303339BB2ADF80830B3F5006F84BF0323ADF80830BDF80A30A34271
S224001E4068D0002028F044FCBDF8083013F47F4F1BD1BDF80A2094423FF450AF013294422F
S224001E607AD000230320009328F032FC0120FFF763FD83B2002B6AD021B20A202FF0C8FC03
S224001E80002028F025FC012039E7BDF80A2094423FF434AF190A0331C9B2062901D90739BD
S224001EA0C9B2D01F8442DCDBD01D8442D9DCDDF804C044F20750CCF22E20A0FB0C6044F65B
S224001EC0251C000CC2F2924CACFB006CCCEB00060CEB560C4FEA9C0C4FEACC06CCEB060C40
S224001EE0CCEB0000C0B2884239D042F29343601A521AC9F2492383FB005C83FB0263844445
S224001F009B18C017D217C0EBAC00C2EBA3039842A7D1F3E69DF808304FF4616000FB03F0B5
S224001F20019944F20753CCF22E23A3FB016345F280121B0CC0F2010202FB1313984280D26D
S224001F4000F5167083422CBF002001207AE70A2069462FF0CBFB93E79D4282D2CEE603F09D
S224001F60FF039D42BFF67DAFC8E64DF2503303A8CFF68D230431224640F8083D6B462FF020
S224001F8095FB03A841F2EC3320F8043D022122466B462FF08BFB1BE7082C0010F42B001000
S224001FA0802C0010182C00100A2C00102DE9F04FFB4C8BB02378FF2B00F05B8100200AA98B
S224001FC009AA21F0CBFE2378054643B100230A9A2370F44B01325A62099A01329A62F24BFE
S224001FE01B78022B6AD0E52008A92FF049FB07A90446E6202FF044FB012802D0012C40F013
S2240020004181DFF8A8A341F6FF73BAF800209A4200F067810A990998002D40F0AB81E14BAF
S2240020205A6A8A4218BF0A4600F0B5815A629862BAF80030002B40F06681DD4D4FF6FF78FE
S22400204001274FF4C016DA4CC0F2180801E00137BFB211223046D6492DF0FAFF2B789A1D80
S224002060D2B2042A25D821792268090641EA12210A9AA068891A227B0029B8BF49421206EC
S22400208042EA1022914211D2217A6268090641EA1221099AE068891A227C0029B8BF4942FE
S2240020A0120642EA10229142C0F0678111364645CDD14FF00003AAF80030DCE0002D40F09D
S2240020C01E81B84B0A9A596A8A4218BF099900F01081DFF8E092B84C5A6299624FF4C01015
S2240020E0494611224D462DF0B3FF0FCDAC4625460FC5DCF800204FF6FF732A70AC4D00224A
S224002100C0F21803019293464FF4C0172E460593AA4659E0357933682D060A9845EA1325AD
S224002120A84240F38E8094F804C023684FEA0C6C4CEA132C604535DC401BCDF800C035F0B3
S22400214009FA029003919AF80830DAF804201B0643EA12230493207A6368049A000640EA44
S2240021601320801A35F0F6F902AB0CCB35F05AFADDF800C002900391C5EB0C0035F0EAF9FD
S2240021800B46024602A903C935F076FB35F0E2FC049B0790C018099B984203DA019D6B1C03
S2240021A09BB20193019AB8F1040F02F00102019258D855460FCDAC4625460FC5DCF800208E
S2240021C02A70059A97424DD011373846784911222DF03EFF9AF800800BF1010B08F1060896
S2240021E05FFA88F8B8F1040F94BF00230123BBF1310F88BF43F00103002B8BD04FF0000577
S224002200357099F80450D9F800302D0645EA132533784FF0060843EA052333602B0E3371D7
S22400222099F80830D9F804201B0643EA1223327942EA03221B0E726033720A98A8423FF7FA
S22400224072AF94F804C023684FEA0C6C4CEA132C60453FF771AF019AB8F1040F02F0010210
S2240022600192A6D9019B4BB1504B41F6FF751D8001E0012323700BB0BDE8F08F4B4B019A24
S2240022801A80F8E7E72006A92FF0FAF9069B13B942F2107306930A9908980A46401A002826
S2240022A0B8BF40429842A8BF09980BDA0998DDF81CC0C0EB0C0CBCF1000FB8BFCCF1000C48
S2240022C09C45D1DBDFF8E4A041F6FF73BAF800C09C4504BF0023AAF800307FF49DAE314B23
S2240022E0A4E64FF00005AAF800500A9A09982D4B9CE60999986A81427FF4EBAEBBE70A9A21
S2240023000999284BE5E6DB04DB0C013B284D03EB031303F5C010112229462DF099FE2B789C
S2240023200633DBB2042B3FF689AE2B792A681B0643EA12220A9BA968D21A2B7B002AB8BF96
S22400234052421B0643EA11239A42BFF477AE2B7A6A681B0643EA1222099BE968D21A2B7C2D
S224002360002AB8BF52421B0643EA11239A42BFF465AE80E70A460B4B58E6FF04FF0CFE2B7D
S224002380AAF800703FF477AFC3F1FE0347EA4337064B1F806FE7996A81427FF447AE6AE7A8
S2240023A0542C001004020010D23200105C2C0010382C0010642C0010D82B0010DFF8A82CF4
S2240023C000231380538042F6D63142F6EA32C1F20001C1F200020B80138042F62C4042F679
S2240023E0EC3142F6144242F6FC3CC1F20001C1F20002C1F2000CC1F20000DFF870BCA9B086
S22400240003700B601360CCF800304FF03C00ABF82C0030F0C5FC0EA92FF0E0FD0E9BB3F543
S224002420FA6FC4F2C7826120DFF8441C2EF05CFD03B233B142F6BE314FF00000C1F200014D
S22400244008802DF015FE42F6BE3442F6F432C1F20002C1F2000410602088C0F3431021F09C
S2240024605BF90546208821F077F929460246002031F0BAFA642021462EF036FD002844F04B
S2240024808C822088C0F3431021F046F942F6BE31C1F200010446088821F05EF9214602465F
S2240024A0022031F0A1FA42F6F432C1F20002136842F67A4C59781A78DFF8B44B42EA012225
S2240024C09978DB7842EA014242EA0363B3F1FF3F0CBF04230023C1F2000C8CF800304720C1
S2240024E021462EF001FDB0B142F6F43EC1F2000EDEF8003059781A7842EA01229978DB78AC
S22400250042EA014242EA0363B3F1FF3F0BBFFF2000212080218042F62D420024C1F2000208
S22400252014700820DFF84C1B2EF0DEFC20B142F6CC33C1F200031C80DFF83C1BDFF83C0B0E
S22400254021F082FB0420DFF8381B2EF0CDFC30B142F608414FF00000C1F20001088042F69E
S224002560184242F6764342F60B4C4FF00004C1F20002C1F20003C1F2000C14801C808CF85B
S22400258000400720DFF8FC1A2EF0AEFC58B142F6344E42F60B40C1F2000E0223C1F200003B
S2240025A0AEF8004003700620DFF8DC1A2EF09CFC58B142F65E4242F634434FF00001C1F291
S2240025C00002C1F200031180198042F65E42C1F20002B2F9003042F66041B3F5006F4FF07D
S2240025E0FF30C8BFDFF8A03AC1F200010880C8BF002042F67841C8BF1880C1F200010023A5
S2240026000B80DFF888AA42F6854C42F6804E42F60A4042F6D031C1F2000CC1F2000EC1F224
S2240026200000C1F2000103700B708CF80030CEF80030DAF800004FF47E712DF07DFFDAF8DA
S22400264000301868002844F062819A695AB948F2F452C2F206021A63DAF8002049F6413312
S224002660C0F26B5353637F2026A92EF03DFC002802F01981DFF8182A0A92002022F018FCBB
S22400268044F20003C4F202039B6C42F68C2E23F07F43C1F2000ECEF80030032021F0DCF9B3
S2240026A045200DF19E012EF01FFC002842F0F4809DF89E3042F61A41C1F200010B709DF852
S2240026C09E106FF00400ADF89E1022F085FA4FF080436FF055021A72AB321A72002022F021
S2240026E0FDFF42F60C4280B2C1F20002108000B2002801DDFFF7D2F84CF22003C2F2090343
S2240027004FF48032DA6144F20003C4F202035B6C13F4007318D11C464FF080456FF0550745
S2240027204FF0550801342F720020642185F80880A4B22BF055F8052C4FF08046F2D16FF062
S22400274055033372AB3333724CF22003C2F209034FF480329A6144F20003C4F20203A2F558
S22400276080325A64DAF8003093F84020FF2A04F0048112F0010F0CD102F07E0283F8402019
S224002780DFF808391A6892F8403043F0010382F84030012022F08CFB42F6224CC1F2000C60
S2240027A0BCF8003013F0400F43F0CB87DFF8E408012309900370DFF8E0185C202EF094FB6E
S2240027C042F62241C1F200010B8842F67E421B0AC1F2000213700BB1013B1370DFF8B8486B
S2240027E0412021462EF080FB002842F04280238813F0200F02F04080DFF8A0C8CDF820C0E4
S2240028008CF8000042F6C6300024C1F20000048021466920ABF800408BF82E408BF82F40F0
S2240028208BF8234022F0E8F8DFF8743821461C606B2022F0E1F849200DF19A012EF054FB70
S22400284003B21BB14FF00301ADF89A105A20DFF854182EF049FB002802F04D80BDF89A000B
S22400286000F00700DFF83C48002123F003FA462021462EF039FB002841F006872388C3F36A
S224002880C1235B00591C6FF00500ADF89A3022F0A3F94FF0FF3032F0A9FF42F60C4C8310A3
S2240028A0C1F2000CACF80030DFF8FC9742F6BC3142F66823DFF8F44742F6542C4FF0FF32F4
S2240028C04FF00000C1F20003C1F2000CC1F200011A80ACF8002008802080A9F80020002321
S2240028E0DFF8CC57DFF8CC87DFF8CC77CC4615E03C2E00F0DC80142E18BF127800F0908035
S22400290042F6BC31C1F200010B88013203EB82030B8042F6BC32C1F200021388DAF80010BD
S22400292001EB030E9EF84C20002A00F01F8140F2AB30834200F21A814C31CA185078FA2831
S22400294063D09678322ED3D142F65420C1F20000B0F90030B3F1FF3FDBD142F66821C1F2F3
S2240029600001B1F90030B3F1FF3F01F0B787111DC8F8001010220EA8CDF814C035F074FF4F
S224002980B7F90030DAF8002003F114004C32D1181018D25C0132920035F072FF3A8842F646
S2240029A05423C1F200031A8002F114033B80DAF800102B684C3112B214332B601E208B181D
S2240029C098704FF00400D87001208854181D0EA9C8F80000102235F047FF42F65421C1F2B9
S2240029E000010B88DDF814C0DAF800201BB24C32D1184FF0320088704FF00400C870043156
S224002A00D054C8F80010D25C7AE7CB5C13F0030F40F0A9809B086FF006001370507090E7D7
S224002A2042F66821C1F20001B1F90030B3F1FF3F7FF46FAF42F6BC3EC1F2000EBEF8001016
S224002A402388082943F001039BB208BF42F67C40238002BFC1F2000043F0020303803980CB
S224002A602A60137842F6BC313E2B08BF2388C1F2000102BF43F00403238013780A88013399
S224002A8002EB8303B3F56B7F9EBF42F6BC3EC1F2000EAEF800307FF63CAF42F66823C1F230
S224002AA000034FF0FF321A8000232B6031E7B9F90030B3F1FF3F7FF42CAF42F6682EC1F2AB
S224002AC0000EBEF90030B3F1FF3F01F01B8742F66420131DC1F2000003605368DAF80020D8
S224002AE00E93B7F900304C3203F10800D1181018D25CCDF814C00132920035F0C1FE3A8893
S224002B00DDF814C002F108033B80DAF800102B68ACF80020083312B24C312B6001208B184A
S224002B209E70D87088540E9A5A60BCF80030DAF800201BB24C32D1183C20887042F6642ED4
S224002B400120C870C1F2000E0431D054CEF80010D25C121842F6BC30C1F20000038803EB7F
S224002B6082030380D5E600238EF84C3042F65421C1F20001B1F90030B3F1FF3F03F02B86A7
S224002B80B9F90030B3F1FF3F03F0F685DFF82C250023138042F62241DFF82425C1F20001B1
S224002BA01380CBF82830CBF82430B1F9003042F654400222C1F20000002BDFF8083502701D
S224002BC042F6CC3CA8BF01221A70C1F2000C4FF00403ABF83230ABF83430BCF800304FF068
S224002BE02102ABF83020002B42F0B183ADF89830BDF89820002342F64C414FF00000C1F275
S224002C00000121F8130029A800EB43034FF0000123F8441C531C9BB2032B1A46EBD942F67F
S224002C20104C42F6F03E4FF0FF33C1F2000CC1F2000E4FF007028CF800308EF800304420C6
S224002C4027A9ADF898202EF04FF9002801F063864FF4616342F68440ADF89C30C1F20000B3
S224002C60002303700120FEF7C5F843F26411C1F2000191F85620002A35D091F85800002851
S224002C8031D00B4691F8591069B3632893BFDAF80030DAF80030A0F1640CD3F828C08BBFF0
S224002CA0586A2CFA00F020FA0CF000F0010088BF00F00100632902F274839B6ACB4003F07E
S224002CC001035B00DBB2034301339A420BD0012A02F05E83032A06D143F2641E0923C1F23A
S224002CE0000E8EF8573042F66820C1F20000008842F66A21C1F200010880062103202AF056
S224002D0015FE042032F072FD09201D2100222AF063FE14210A461723EB482AF0DDFD0523D4
S224002D2048200DF19A018BF854302EF0DDF8002801F0FC8540F28E3345200DF19E01ADF85F
S224002D409A302EF0D1F8002841F0EC859DF89E3019466FF00400ADF89E3021F03DFF42F6D6
S224002D6028410023C1F200010B6042F6204242F6564C42F6F83E42F6584042F61C41C1F2A9
S224002D800002C1F2000CC1F2000EC1F20000C1F200011380ACF80030AEF8003003800B80FA
S224002DA00DF17C0920AC21ADC8482AF06BFE172800F09F811D28F7D1092022A92AF01EFDD9
S224002DC0229E002E01F0CE8516F0007708BFB84640F044843046414621F086FC83B203F0CA
S224002DE00F02012A00F2D883DDF888C003F001030C9305222CF04F4348461AA9CDF818C0CF
S224002E001F932EF0BBFB052840F0B4839DF86930002B40F0AF838DF8A23098469DF86C3072
S224002E200C995A1E0D918DF86C20002B7CD00222484625A92EF0A2FB0228844640F09A83CE
S224002E409DF89430122B00F0A48500F281800C2B00F27A830B2BC0F0A98300203221CDF85B
S224002E6014C02AF0BDFC9DF89520002148462EF085FBDDF814C00921604621F09DFCDDF817
S224002E8014C0219000288FD00023037043708370C370219B06221A71219B04225A71219ED7
S224002EA00B2325A96246B01D8DF894308DF895C035F0DAFC06F1080360201CA904932EF082
S224002EC013F8049B002800F0A087032210461146ADF8701002218DF8A21030725A709DF8B2
S224002EE068301A0942EA0313D8B28DF8A100002F01F0768138462EF083FB06469DF8A1006D
S224002F00219B9DF8A2200093069B002101934FF0FF33029621F05EFCB0469DF86C305A1E9D
S224002F208DF86C20002B82D1BBF800304BB142F6C63CC1F2000CBCF8003043F00403ACF863
S224002F4000301F98002800F02C832DF0E5F928E31A2B00F21683192BC0F0BA809DF8956030
S224002F60012E41F26A81012B04BF0020ADF892000AD0022248460DF192012EF0FFFA02285B
S224002F8040F0F8829DF89560022E00F0B7879DF89430012B03D0023E8DF89560F6B2BDF82B
S224002FA092301AB2111E18BF01217F2ACCBF002101F001011846002900F0C886022E0BD03E
S224002FC00021484632462EF0D9FA9DF89530984240F0D082BDF89230D8B224A92DF084FFB0
S224002FE0022206461CA948462EF0C8FA022840F0C182BDF992307E2B33DCBDF8903007934D
S2240030009DF89430192B02F0F5871A2B03F08D80022B04BFBDF87020ADF89020BDF892305A
S224003020B6B26F2B0B9602F0EE870B9A002A42F0DD87BDF890100798884205D0D8B209B244
S2240030402EF0E6FBBDF892301BB2452B03F0AD80462B03F08E80472B03F08080682B03F03B
S2240030606F804646B04658E7B42B001004020010BE2B0010CC2B0010788C0300302C001023
S224003080082C0010342C00105E2C0010802A0010F0010010242C0010222C0010112C001017
S2240030A0B82B00100E2C0010602A00107C2C00105C2A0010582A0010682A0010002C001076
S2240030C05C2C0010D23200103C020010888C0300142B00F04684C0F02584182B00F0C18311
S2240030E09DF895204846002146462EF047FAB04613E742F6E84E0023C1F2000E8BF82330CF
S224003100BEF90030B3F5967F00F37F8242F6EC30C1F200000368002B40F07A8209990B7824
S224003120FF2B16D00120052113F0B2F8DFF8003C06461B7883420AD048F67843C0F2030344
S22400314003EBC0025169012092692FF049FE09990E709BF85430013BDBB28BF85430002B4C
S2240031607FF422AEDFF8CC3B052283F8542042F62842C1F20002136801331360BDF898202D
S224003180002A50D04FF080436FF05501197242F6462CAB311972C1F2000C9CF80030012BDE
S2240031A01DD942F6CC3EC1F2000EBEF80010B1B142F62D46C1F20006317809290FD8013B87
S2240031C0DFF8742BFA20192122F02EF83378012201333370DFF8643B1A70BDF89820013A9B
S2240031E096B2ADF89860F6B94FF00700ADF898006527B04642F64C41C1F200010DF1600C4E
S2240032008B5B3CF806209A4200F0AC8708F101080DF1600C1FFA88F82CF80630013702369B
S224003220B8F1040FE6D1BBF800301BB1DFF8042B013B138042F61846C1F20006B6F9003064
S224003240012B00F3E881002BC0F2B68742F6854CC1F2000C9CF8003043B342F60A4EC1F202
S224003260000E9EF80030082B01F09D8242F6D030C1F200000678013EF6B20670B6B942F6C5
S224003280D431C1F200010B8801339BB20B801BB2052B03F3F081012B06DD42F67842C1F2B9
S2240032A0000213880F3B1380FEF718FA002020F07FFC0646032020F0CFFB0746002E00F029
S2240032C01D8503202AF026FD01230821D6200DF1A30232F005F803202AF088FDDAF800301E
S2240032E093F94030002BC0F2E78343F2D422C1F20002B2F90030002BC0F2BA8342F6F8324F
S2240033004FF00001C1F2000211800C2021F038FE83B2002B00F00E819DF8A33013F0040F52
S22400332008D142F6204CC1F2000CBCF800300133ACF800300C2021F023FE83B2002B00F0B2
S224003340598340F252339F4240F27A849DF8A38018F0040840F0748442F6564EC1F2000E33
S224003360BEF80020531C12B29BB2B2F5617FAEF8003083F2D6810A2B03F0B78140F2180817
S224003380C1F2000898F8003013F0400F15D142F6284CC1F2000CDCF800300A2B0DD92FF0CC
S2240033A0FFFC46F24073C4F6A3339842C2BF98F8003043F0400388F8003040F252339F42B9
S2240033C040F22E8305202AF0A5FCDAF8003005209A6801329A602AF009FDBDF89C3093B9E2
S2240033E0BDF89A30BB429CBF0420ABF832000AD9BBF832303BB1013BDFF838299BB253867A
S224003400002B03F07E816C2021F0BAFD83B2002B00F0088205202AF07DFCDAF8003093F817
S224003420402022F07F0283F84020DAF8003093F8402042F07E0283F84020DAF800309E8718
S22400344005202AF0D3FC672021F09AFD83B2002B40F0CB8242F6CC3CC1F2000CBCF800207A
S22400346022B1BBF82C203C2A02F06C8142F6224EC1F2000EBEF8003013F4807F0AD0DAF82F
S224003480003093F94030002BA4BF0020ABF82C00C0F2BD860B20032122F008F9DDF820C072
S2240034A09CF80030002B40F00084BBF8303003F00302032A00F0CD8303F01F021F2A3ED081
S2240034C0B3B1013B9BB2ABF8303023B9DFF864384FF43470188643F26416C1F2000696F82D
S2240034E05630012B04D996F85730002B00F0BA8605202AF00FFC42F61A4E43F2D420C1F202
S224003500000EC1F2000003889EF8002042F67E41C1F200015A400B7852FA03F313F0010F87
S22400352004D0DAF80030DA6A0132DA6205202AF05DFC39E40C20012121F04EFBECE6FEF7D9
S2240035408DFBBBF83030BBE70E2B00F00383C0F055810F2B7FF4C4AD9DF895200E2A00F064
S2240035608B85002148462EF009F89DF8953098423FF477AD1F982CF0CFFE38462CF0CCFED9
S22400358012E4C92B00F0ED8176D8202B7FF4A8AD01238BF82F30A3E5229820F04F402CF07A
S2240035A0BBFE38462CF0B8FEFFF7FEBB022B3FF4D5AC032B00F07281012B7FF491AD0D9AD8
S2240035C0002A3FF48DAD9DF89560002E7FF4C8AC002F01F0A08338462EF012F8064600205B
S2240035E09DF86880FDF75EFE069B4FEA181808F11008009001934046042101224FF0FF337B
S2240036000296B04621F0E6F887E403F0BDFF7DE5FDF736FF82E5002022F06AFE10F4004F2F
S2240036207FF414AE0220FDF73DFE42F6804EC1F2000E0746DEF800002DF0E2FF4FF08073E5
S224003640019302900421182001224FF0FF33009721F0C0F84FF001003080F7E526F04F4875
S224003660404622A920F0DEF8229B06F04F461E4347462296FFF7AEBBFD2B00F08180FE2B7F
S2240036807FF42EAD9DF89560002E00F0498348460DF1A20101222DF071FF9DF89530013BEE
S2240036A08DF895309DF868309DF8A2601A0942EA0313D8B2112E8DF8A10002F0B38600F286
S2240036C0AD83062E02F0B18100F2F085022E02F0258100F26186002E40F03F866FF00101D1
S2240036E007238DF894108DF89530043123462A4625A8209621962DF0D9FF2946224630469E
S2240037008DF8A2602DF076FA42F61042C1F200021078294622462DF06DFA02212A46234672
S224003720DFF81C062DF0C2FF42F6F033C1F200031878294622462DF05DFA8DF8A26044F600
S224003740844CC1F2000C1CF80600294622462DF051FA9DF8A2600136F6B2012E8DF8A26050
S224003760EDD9002F02F0E68138462DF049FF0646219B06999DF8A1000093019100F030BC35
S2240037809DF89530032B7FF46CAC01220DF1A1014846CDF814C02DF0F1FEDDF814C04846E4
S2240037A062460DF192012DF0E9FE9DF89530033B8DF89530BDF892301AB2002ABFBF03F502
S2240037C000639BB21AB2ADF89230B2F5006FC4BFA3F50063ADF892309DF8A130042B3FF63C
S2240037E040AC01A252F823F0F9620000F36200003762000063300000DF6100009DF8956032
S224003800002E00F0F783042E00F0E9860021484632462DF0B3FE9DF8953098427FF4AAAE86
S22400382046461FE405202AF075FADAF80020DFF81435968740F20402C1F200029189B1421D
S22400384080F0CF821A6892F8401021F07F0182F840101B6893F8402042F0650283F8402009
S224003860EEE59DF89520484600212DF087FE0D9800283FF4F6AB002F00F00D8638462DF0E7
S224003880BFFE06469DF8688022F070FE06994FEA181808F1100800900191ACE60C99002982
S2240038A040F04E859DF89520012A40F27187032A00F05D87022248460DF192012DF05EFEA4
S2240038C002287FF457AEBDF99230FF2B01F0C8827F2B3FF4C6AB682B06D144F6A06E002341
S2240038E0C1F2000E8EF8003000269DF89200214620962DF0FBFEBDF99230D22B7FF4B1AB88
S22400390043F26410C1F2000090F85630002B3FF4A8AB80F856600223464680F85730B046B3
S224003920FFF7FBBA9DF895304FF00000042BADF8920005D99BF82E3013F0010F01F02F8254
S2240039409BF8233013B19DF895200AE6069B3A469DF8680003F04F41FDF782FE9DF895201F
S224003960FFE59DF895204FF00000022AADF8920001F0AF829BF82330002BE4D1069A9DF855
S224003980680002F04F413A46FDF76AFE9DF89520E7E59DF895204FF00003012AADF8923028
S2240039A0CED19BF82E6016F00106C9D148460DF1A101ADF892208DF8A1302DF0DFFD9DF832
S2240039C0A130012818BFADF89260BA2B1CBF0022ADF89220B4D1BDF89230012B02F0C185E1
S2240039E0002BADD04646FFF73DBB4FF03C02ABF82C2053E542F65642C1F2000213880133A8
S224003A009BB2282B13807FF4B9AC0C20012121F0E3F8FA202721C84A012321F005FCADE421
S224003A2005202AF077F9DAF800300520DA680132DA602AF0DBF9BDF89C30002B3FF4E3ACA0
S224003A409E4224BF0421ABF83410BFF4DCACBBF83430002B3FF4D7AC013BB64A9BB29386BD
S224003A60002B7FF4D0AC0A20062121F01FFECAE442F61C4CC1F2000CBCF8003001339BB236
S224003A80ACF800301BB2B3F5616F15DD05202AF041F9AC4B05201A6892F840306FEA436306
S224003AA06FEA536382F840302AF0A0F9FA202721A14A052321F0B8FB43F2D42EC1F2000E24
S224003AC0BEF8003040F64572DB0B96428CBF002303F00103002B3FF411ACB6F57A7F7FF6B7
S224003AE00DAC9DF8A33013F0300F7FF407AC42F6F830C1F20000038823B942F65841C1F23A
S224003B0000010E80013342F6F8329BB2C1F2000213801BB2B3F5E16FC0F2C78442F6584C48
S224003B20C1F2000CBCF9002006F132019142C0F2B5845A2B7FF4F0AB0C20012121F04CF8CE
S224003B400B23FA2027217C4A21F06EFB9DF8A330FFF7E4BB4F2024A92DF0C6F918B14FF073
S224003B603C00ADF890009DF89520082A7FF4F9ACBDF8906016F480667FF4F3AC04224846E0
S224003B801EA92DF0FBFC04287FF4F4AC05902FF007F91E9B059AC31AB3F5967F82F0B785B2
S224003BA048461EA92DF0EAFC04287FF4E3AC1E982FF0FCF840F21801C1F200010B7802200D
S224003BC043F040030B700B2120F0F6FD219000283FF4EAA8067046708670C670219B0622E6
S224003BE01A71219B02225A71219B0D219A1D997156709DF8683031461A0942EA0313D8B286
S224003C00219B012200934FF0807301934FF0FF338DF8A100029620F0DDFD1E9A43F68023BA
S224003C2002F57C3202F59062C0F20903B2FBF3F319B2092046462DF0EBFDB046FFF76DB909
S224003C4042F656414FF00000C1F200010880FFF795BB42F65442C1F200021378022B01D0C3
S224003C60FEF7A4F94FF0FF3031F0C0FD42F60C43C1F200031A88C0F38F0C0FFA8CF011B2EC
S224003C80C1EB000E0EF1030EBEF1060F9CBFA3F800C0BBF830307FF60FAC884240F3008318
S224003CA004321A80BBF8303006E403F0A9FB10F4805F00F0178142F21003C0F2000300EA4A
S224003CC00303002B00F0358300F00C03042B14BF05230623089802789A423FF4E6AB1A4A96
S224003CE048F67841C0F20301137001EBC302516D0020926D2FF074F8FFF7D7BB05202AF0AF
S224003D0009F8DAF80030012283F8402005202AF06DF842F61C41C1F200010E80FFF7D1BAA1
S224003D200021484632468DF8A2102DF027FCB9E4242C001004020010288D0300462A001095
S224003D40E6340010802A0010112C0010DF2A40F3A284042E08D0484632462DF00FFC9DF8FE
S224003D60953098427FF406AC042248461DA92DF005FC04287FF4FEABBDF89230FF2B0CD11C
S224003D8042F67A4EC1F2000E9EF80020032A04D99DF89420022A02F0D385D8B21EA92DF070
S224003DA06FFC9DF894301E9A192B02F036831A2B02BF1D9B22EA03031E9304D0022B04BF4E
S224003DC01D991E9100D01E9980B210B98A423FF448A99DF8920046462DF0F8FCB046FFF757
S224003DE09CB8D189B14280F0FE811A6892F8401021F07F0182F840101B6893F8402042F0D7
S224003E00510283F84020FFF71BBBBDF8702002F00701C8B2C2F30222FFF75AB81E2E01F0CC
S224003E20468101F2A180162E02F0F18300F2C984142E02F0FA82152E7FF413A919236FF0FC
S224003E4001014FF0000C8DF894108DF89530043123462A4625A8CDF880C0CDF884C0CDF8EF
S224003E6014C02DF023FC2946224630468DF895602CF0C0FE44F2080004212A462346C4F29A
S224003E8004002DF013FC44F20C0004212A462346C4F204002DF00AFC44F21C0004212A46E9
S224003EA02346C4F204002DF001FC48F2080004212A462346C4F204002DF0F8FB48F20C0070
S224003EC004212A462346C4F204002DF0EFFB48F21C0004212A462346C4F204002DF0E6FB12
S224003EE001F01AB942F6104EC1F2000E9EF8003013F0020F00F0AF810723EBE6BDF8923036
S224003F00A3F1800292B25F2A40F2578330460A2120F052FC219000283EF446AF00232090DB
S224003F20037043708370C370219A06211171219A5371BDF892301AB27F2A42F3F084DF2AAF
S224003F4002F3B5830022079221980023209300283FF487A82BF09CFE9DF868308DF8A20052
S224003F601A09022042EA031301468DF8A13020F023FC209000283EF417AF9DF884300622A8
S224003F8003709DF88530022143709DF8863083709DF88730C370209B21931A71219B0422F0
S224003FA05A71219A9171931D9DF8A22052185A70079818B14FF0FF01ADF89210981C0DF199
S224003FC09201022234F050FC002F53D038462DF017FB0646219B069A9DF8A10000930192B2
S224003FE0002101224FF0FF330296B04620F0F2FBFEF793BF31460920CDF814C02DF008FCDB
S224004000219620962EF0CCFE04212A4623461D901DA82DF04BFB21982BF03AFEDDF814C0BE
S2240040208DF8A2000923604604218DF8A13020F0C3FBDDF814C0209000283EF4B5AE9DF88E
S2240040408430062203709DF8853043709DF8863083709DF88730C370209B21931A71219B9C
S224004060073283F805C0219B9A719DF8A220DA71002FABD14646ADE7072120F09DFB21900D
S22400408000283EF491AE0026067046708670C670219B4FF006021A71219B0E225A71219905
S2240040A0484606312DF06AFA0E287FF463AA304601212DF0E7F82090002801F04680219B20
S2240040C0C0F3072218705A70C0F30742000E9A70D87021982BF0DCFD9DF868308DF8A20050
S2240040E01A0942EA0313022008218DF8A13020F063FB209000283EF457AE9DF884300222CB
S22400410003709DF8853043709DF8863083709DF88730C370209B4FF0060021931871219B74
S2240041205A71219B0E329A719DF8A220DA7101228DF8A220002F00F0C98638462DF060FA39
S2240041409DF8A2200646219B0699009301919DF8A10000214FF0FF330296B04620F03AFB9C
S224004160FEF7DBBE4FF00000ADF898003946DFF8D8072EF037FC3221002029F031FB42F6BA
S224004180CC31C1F200010B8833B1FA200321DFF8BC273B4621F048F80FFA88F1012900F08C
S2240041A0D7870120092121F081FA42F64C42C1F20002935BFFF72AB842F67641C1F20001E1
S2240041C00B8801339BB20B801BB2962B7FF73EA84FF000023280662023F0ECFEFFF736B8F7
S2240041E04646FEF78DBE118AB14280F015871A6892F8401021F07F0182F840101B6893F88F
S224004200402042F03D0283F84020FFF719B9BBF82C30013B9BB2ABF82C30002B3FF43AA94D
S224004220382B7FF43BA943F2EA21C1F200010B8843F020030B80FFF731B900213246484650
S2240042402DF09CF99DF89560B0427FF493A99DF89430FEF788BE00F00C03042B14BF0123C3
S224004260022337E52EF09CFDF368984280F09D81B368984240F2F88096F85630022B00F2AC
S224004280F380092386F85730032386F8563042F6844C0023C1F2000C8CF80030FFF728B9D6
S2240042A0043A1A80BBF83030FFF706B90A2E01F0518200F22181082E01F05282092E7EF425
S2240042C0D0AE6FF001004FF0000C8DF89400DFF88006CDF880C0CDF884C0CDF814C034F06F
S2240042E025FB431C8DF89530022123462A4625A82DF0DCF92946224630468DF895602CF052
S22400430079FCDFF84C0634F011FB411CDFF8400689B22A4623462DF0C9F99DF8A130384679
S224004320219E04932DF06CF906990096019100F0FDBE00F00C03042B0CBF04230323C9E43B
S2240043409DF89520002148462DF018F946460020FDF7F2FAB046FEF7E0BD012E7EF481AE4D
S2240043609DF89530002B3EF47CAE48460DF1A20132462DF003F9002F01F0CD8238462DF08D
S2240043803FF906469DF8A1009DF8A210324626F087FAB046FEF7C1BD042E01F0B48041F215
S2240043A0828044F2981CC1F2000CDCF814304FF00000ADF870003BB1BDF870201B680132FA
S2240043C0ADF87020002BF7D148F66C42C0F20302127820932193033303FB02F36FF0010192
S2240043E00A338DF8941007928DF89530043123462A4625A82DF05AF90520294622468DF8A3
S22400440095002CF0F7FB4FF00103ADF89230012307991BB28B4201F30F8548F6704CC0F2B8
S224004420030C1CF80300294622462CF0E3FBBDF9923048F6FC30C0F2030000EB03129668EB
S22400444050683146FCF7B0FC301AADF89000234624A802212A462DF029F9BDF89230013358
S2240044609BB2ADF89230D3E742F68441C1F200010B78002B3FF40BAF43F26412C1F200021D
S22400448092F85630022B3FF602AFDFF8C834082283F85720FBE64646FFF7F4B90C20FCF7D6
S2240044A08BFEDFF8B434B3F900303C2B7FF441AB032029F02FFC08210DF1A3020123D620C0
S2240044C030F00EFF032029F091FC9DF8A33003F03002D2F1010138BF0021302A14BF0A46FA
S2240044E041F00102002A41F0038242F6F830C1F200000280FEF712BF0D2E01F033850E2E28
S22400450001F0EF840B2E7EF4ACAD6FF001024FF006034FF0000C8DF894208DF89530022193
S22400452023462A4625A8CDF880C0CDF884C0CDF814C02DF0BBF82246294630468DF8956092
S2240045402CF058FB0121022011F0A2FE224629468DF895002CF04EFB0521012011F098FECE
S224004560224629468DF895002CF044FB0621022011F08EFE224629468DF895002CF03AFBD2
S2240045800321012011F084FE224629468DF895002CF030FB0421012011F07AFE2946224680
S2240045A08DF895002CF026FBB7E60A2386F85730012386F85630FEF79BBFD8B22CF086FC31
S2240045C0219000287FF4BEAC209031460DF192002A4623462DF06AF801210791B4E4484631
S2240045E01EA932462CF0CAFF04287EF4C3AF0023219320932EF0D4FB04211D902A46234660
S2240046001EA82DF053F804212A4623461DA82DF04DF821982BF03CFB9DF868308DF8A200E3
S2240046201A0942EA0313022006218DF8A13020F0C3F8209000283EF4B7AB9DF884300622C9
S22400464003709DF8853043709DF8863083709DF88730C370209B21931A71219B02225A7183
S224004660219B0C329A719DF8A220DA71002F00F01B8538462CF0C4FF0646219B9DF8A10034
S2240046800093069B0193ABE44FF00003238001210023FEF7F8B8219120918DF8A21086B916
S2240046A022E02A469DF8A10021462CF0A3FA9DF8A2309DF895200133DBB29A428DF8A23088
S2240046C00FD9012248460DF1A1012CF057FF0128E7D020982BF020FE1F982BF01DFEFEF777
S2240046E060BF209EBDF892000346002801F0B587E6B10026C0B221962CF0E8FB0146219016
S22400470028B120982CF052FE002841F0E887209B23B19DF8920021462CF0E8FF219818B12D
S2240047202BF0FAFD00232193BDF892301BB2D22B7EF497AC0020FCF75DFB43F26411C1F2CD
S224004740000191F85630012B01F0F08743F2641E0723C1F2000E42F684408EF85730C1F252
S2240047600000012346460370B046FEF7D6BB4FF00002ADF8922048460DF1920101222CF09F
S224004780FDFE9DF89530013B8DF89530FFF79BB8002148462CF0F2FE9DF8952090423FF4E6
S2240047A086A8FEF7E7BE002021F0B4FD00287EF45DAD013021F0AEFD00283EF477ADFEF746
S2240047C055BD1B2EFEF44DAC1C2E04D814BF00200120FCF7D3FC032029F09CFA4FF480718C
S2240047E00EAA0B23D62030F07BFD032029F0FEFA6FF001020D2300268DF894208DF89530D1
S224004800022123462A4625A8209621962CF04EFF9DF8A200294622468DF895002CF0EAF9CD
S2240048200B212A4623460EA82CF040FFDAF80030294693F8400022468DF895002CF0DAF9B0
S224004840219B9DF8A1203846049305922CF0D8FE049B0093069B0193059A0290314610463E
S2240048604FF0FF33012246461FF0B4FFB046FEF754BB4FF00E032380DFF8E0E001238EF823
S224004880003000204FF0FF314FF4FA72CDF820E02EF0A6FAFDF7B6BF4FF00000ADF89E0037
S2240048A00023FDF707BF2E4BBDF898000A9333F09FFA32F061FE22A30CCB32F0DDFF40F2AA
S2240048C00002C3F6F072002332F0F8FC33F08AF9DDF828C0CCF80000FDF7CFBE42F6BC32AF
S2240048E0C1F20002138842F6542EC1F2000EAEF80030FEF779B84FF00302ADF89A20032026
S224004900FDF7B0BF42F6BC31C1F200010B88ACF80030FEF70CB99DF89C20642303FB02F36A
S224004920FEF798B900210B46FEF713BABDF89A300A22DB05DB0D02FB03F3FEF7FDB900BF28
S224004940006AF84000000000588D0300288D03009C2D001064310010F82B0010112C001012
S224004960F00100109BF82F30002B40F04984089A1378002B40F05F8500214FF4FA720120BA
S2240049802EF02EFA0023032022931FF065F844F2000343F2D42CC4F20203C1F2000C9A6C77
S2240049A0BCF8001002F07F4201F0070141EA0202DFF8F47804469A640A264FF080456FF035
S2240049C055084FF0550900200A2128F009FF229BB3FBF6F206FB12321AB985F8088085F880
S2240049E008900133B3F5167F229300F212853B78002BE8D0012002F069FC2BF06FF90021B9
S224004A0005466FF0060020F0E7F801216FF001001FF0F2FFA5F10A03DFF89098DBB24FF002
S224004A200000012BA9F8000040F2D784DFF88058462029462CF058FA0146002800F06E81D7
S224004A404FF000012980682001211FF0D5FF42F60E42C1F2000211786FF003001FF0CCFFD9
S224004A604FF080436FF055021A7242F60E4CAB321A72C1F2000CBCF8003013F4005500F003
S224004A80E284C3F3C123590001316FF0050020F0A3F86A2001211FF0AFFF2BF01FF90F28A4
S224004AA00646054688BF47B20DD847B2012111FA07F248F2A013C0F2000302EA030313B1BE
S224004AC06B201FF099FFDFF8E4874A2041462CF00BFA002800F02B814FF00000A8F80000A8
S224004AE06D2000211FF088FF4FF080436FF055021A72AB3200201A728DF8A3001FF058F819
S224004B000F2E804640F23E81B8F5616F06D840F252339C4202D901238DF8A33000210D2007
S224004B201FF06AFF40F20401C1F200010B7843B19DF8A370002F00F091840D20012120F05B
S224004B404BF84FF080436FF055021A72AB321A7242F68C2203F14043C1F20002102D13609E
S224004B6040F2C08042F60E46C1F20006378817F4005F40F01F8444F20003C4F202036FF02A
S224004B800300D3F8488020F0FBF942F60E4EC1F2000EBEF8003007EA080700EA03067E408A
S224004BA040F0908303201EF057FF40F25236B44294BF00240124B04294BF00260126A64260
S224004BC01FBF42F68C20C1F20000036843F0010318BF0360B9F8003013F0030F40F03083A6
S224004BE003201EF039FF40F25233984294BF00230123A3420AD04BB142F68C2CC1F2000CB2
S224004C00DCF8003043F00103CCF80030002001464FF4FA722EF0E4F8022000211FF0DCFF23
S224004C2044F20003C4F202035A6C12F0010017D143F2D42EC1F2000E9A6CBEF8001002F014
S224004C407F4201F0070141EA02029A64962128F0C7FD012020F042FD0446002800F0D682AB
S224004C600020014630F01AFA44F20003C4F202035B6C13F0010F02D10B2D00F0D182DFF8A1
S224004C803436DFF834461B8842F6F430C1F2000023800368612059781A7842EA0122997850
S224004CA0DB7842EA014242EA03634FF00001A1806180E3600DF19E012CF016F968B14FF0F6
S224004CC00002ADF89E2000201EF026FDA0602CF0E9F9002028F01EFEFEE7BDF89E00C0F3DC
S224004CE04310F1E76BB201229A4042F21203C0F2010302EA03032BB344F20003C4F20203A7
S224004D005A6C42F001025A6440F252339C4294BF0024012464E74646FEF761BCB5F90030DD
S224004D20002BBFF690AE68201FF066FE8FE6B8F8003013F0030F3FF4D3AE6D2001211FF079
S224004D405BFED1E612F4006F17D0672020F018F983B25BB10D200E2120F0A8FC44F20003B0
S224004D60C4F202035A6C42F001025A6440F252339C4294BF0024012432E712F4806F3FF448
S224004D80F1AEF3E7012313FA07F74BF21233C0F2000307EA0303002B7FF4B9AEB4E6042273
S224004DA048461EA92CF0EAFB042801F0DA84BDF99230012B7EF4C4ADDBF858301E9800265F
S224004DC083428BF82F6075D19DF8A23083B93FE09DF8A1200B79D3180B719DF8A2209DF8C2
S224004DE0A130D31ADBB28DF8A230002B29D01E981F994A79934238BF1A468DF8A1200B79C1
S224004E00C9182AF0CDFF9DF8A1201E9B9B181E931F9B59798A1A5A711F994B79002BD7D109
S224004E204A780B78012043EA02238A7843EA0243CA7843EA0263209328F010FD209B1F9328
S224004E40CBE7DBF858201E9B9A4238BFCBF858304FF0F0024646ABF80020B046FEF75DB8F9
S224004E609DF89520022A08D0002148462CF086FB9DF8953098427EF47DAB022248460DF115
S224004E8092012CF07BFB02287EF474ABBDF9922045F2AA539A427EF4E4A844F6A06C00234E
S224004EA0C1F2000C8CF8003046462CF0DBF8B046FEF733B89DF8A220484631462CF05EFB58
S224004EC0FE4B8DF8A2609A6D1E9BBDE74646FFF73AB924A948462CF051FB022804BF012152
S224004EE0ADF8921004D0BDF99230012B7EF442AD0020142128F074FC2AF00CFF030A43EA51
S224004F0000239AB29DF89430ADF88E20C92B01F0368342F6C63CC1F2000CBCF8003043F0C3
S224004F200403ACF80030BDF890301BB9531C9BB2ADF890309A427EF494A80020782128F0CC
S224004F404FFC9BF82F303BB9DC4B012283F82E200420022120F0AAFB4FF000004646ABF89E
S224004F600000B046FDF7D9BFC82E01F0628467D8642E01F07C847F2E7EF473A89DF8952097
S224004F80022A08D0002148462CF0F8FA9DF8953098427EF4EFAA022248460DF192012CF0AD
S224004FA0EDFA02287EF4E6AABDF9920032F024FF32F0E2FABAA30CCB32F05EFC40F200026A
S224004FC0C3F6F072002332F079F932F00BFE0A990860BDF89210002901F091849DF8A20007
S224004FE009B22CF015FC0023209321936FF0010203338DF894208DF8953002212A46234623
S22400500025A82CF053FB9DF8A200294622462BF0F1FD0DF192006DE2528AB24281F05F843A
S2240050201A6892F8401021F07F0182F840101B6893F8402042F0290283F84020FEF700BA5F
S224005040FA2E05D0FE2E00F09180CD2E7EF409A842F67A40C1F20000037823B9FA2E0CBF14
S22400506005260026067000236FF00101209321938DF894102A460431234625A88DF895104B
S2240050802CF014FB294622469DF8A2002BF0B2FD42F67A42C1F200021078294622462BF0E5
S2240050A0A9FD002F7FF4E5AA4646FFF7E6BA9DF89530022B7EF45EAA1A4624A9484604939F
S2240050C02CF05CFA049B6FF0010005224FF0000C19468DF8940023468DF8952025A82A4690
S2240050E0CDF880C0CDF884C0CDF814C02CF0DEFA2946224630468DF895602BF07BFDBDF801
S224005100900044F25801C1F2000101EB80002A46042123462CF0CAFA9DF8A1303846219ECA
S22400512004932CF06DFA069A00960192049BDDF814C002906146184601224FF0FF33464688
S2240051401FF048FBB046FDF7E8BE2198FFF7C2BA642005911FF014FF83B20599002B3FF4D0
S22400516020A805201FF038FDFFF71BB842F6854CC1F2000C9CF800608EB942F60A4E42F665
S2240051808041C1F2000EC1F200018EF8006008682BF0C2F842F68042C1F20002166042F64C
S2240051A0184CC1F2000CBCF9003053B942F618434FF00002C1F2000346461A80B046FDF73C
S2240051C0ACBE42F6084EC1F2000EBEF9001004202CF01EFB012021F08BF883B2002BE5D027
S2240051E0374BB3F90030002BE0DA662022F0E2FE42F676414FF00000C1F200010880D5E7C9
S2240052000420022120F052FAFFF7B1BB0D200E2120F04CFA2BF046FF204628F07BFBFEE799
S224005220DAF8003093F94030002BFFF628AD0C2001211FF0D1FC1120032120F037FA1EE5B3
S2240052400DF1A201012028F0D9FA07281FBF42F68C21C1F200010B6843F0020318BF0B6009
S22400526001200DF1A20128F0C9FA0728F8D105200DF1A20128F0C2FA07281FBF42F68C2207
S224005280C1F20002136843F0020318BF136005200DF1A20128F0B2FA0728F8D1A0E400BF92
S2240052A0006AF8400000000000020010D22B00100E2C0010862A00100000082004020010E0
S2240052C0182C001045200DF19E012BF00DFE00283AD1BDF89E20120A134642F60E41C1F2F8
S2240052E00001ADF89E200A8844F20001C4F20201896C06F0070010401140014019421EBFB7
S22400530042F68C2CC1F2000CDCF8001000EA02021CBF41F00401CCF8001044F20001C4F235
S2240053200201896C21F07F410B4332EA03031FBF42F68C2EC1F2000EDEF8003043F004035E
S22400534018BFCEF800302DE400231A46C5E7782342F6F43E0093C1F2000EDEF800300024B8
S2240053605A781978FA2041EA02219A78DB7841EA024242EA036301930121DFF8B02B032369
S224005380029403941FF050FFADF89840FDF730BC43F2641C0A23C1F2000C8CF85730FDF780
S2240053A0A2BC5B6A6439CB4003F001035B00DBB2FDF789BC6FF007001FF0E2FD83B24BB180
S2240053C042F68C2CC1F2000CDCF8003043F00403CCF800303788FFF7CEBB00216FF0030026
S2240053E01FF00AFB002169201FF006FB00216D201FF002FB00216FF005001FF0EDFB002183
S2240054006A201FF0F9FA682001211FF0F5FAFFF798BB42F6CC3EC1F2000EBEF80030002BF6
S2240054203FF4E8AAFA200321DFF8042BC8231FF0FBFEFFF7DFBA00204FF0553164222DF054
S224005440CFFCFFF799BA29466FF005001FF0C4FB6A2029461FF0D0FAFFF71FBB0D20394644
S2240054601FF0BAFB331F18BF0123012E0CBF002303F00103002B3FF464ABB6F10D0318BF07
S2240054800123102E0CBF002603F00106002E3FF458ABB8F5616F7FF654AB0C2039461FF0AB
S2240054A09BFBFFF74EBB0023209321932AF008FC6FF001020523ADF88E008DF894208DF82F
S2240054C09530022123462A4625A82CF0EFF8294622469DF8A2002BF08DFB02212A46234689
S2240054E00DF18E002CF0E2F82AF014FCADF88E000DF18E0002212A4623462CF0D7F8002F26
S2240055007FF4B7A8D0E56FF001004FF0000C4FF001018DF89400DFF81C0ACDF880C0CDF833
S22400552084C0CDF814C08DF8951033F0FFF9831CDBB2DFF8040A8DF89530049333F0F6F940
S224005540049B421C9B18DBB2DFF8F0098DF89530049333F0EBF9049B421C9B18DBB2DFF83D
S224005560E0098DF89530049333F0E0F9049B421C9B18DBB2DFF8CC098DF89530049333F073
S224005580D5F9049B00F125029B188DF89530022123462A4625A82CF089F8294622463046D1
S2240055A08DF895602BF026FBDFF8880933F0BEF9234681B22A46DFF87C092CF077F829468C
S2240055C02246A7202BF016FBDFF86C0933F0AEF9234681B22A46DFF860092CF067F829461F
S2240055E02246A7202BF006FBDFF8500933F09EF9234681B22A46DFF844092CF057F8294667
S2240056002246A7202BF0F6FADFF8340933F08EF9234681B22A46DFF828092CF047F82946AF
S2240056202246A7202BF0E6FADFF8180933F07EF9234681B22A46DFF80C092CF037F82946F7
S2240056402246A7202BF0D6FA43F2B833C1F20003B3F9CA20B3F9CC30DFF8EC1800930EA8F3
S224005660A7232CF03DFF0EA833F060F92A4681B223460EA82CF01AF843F2B830C1F2000011
S224005680B0F9C030A722DFF8C4180EA82CF028FF0EA833F04BF92A4681B223460EA82CF0FC
S2240056A005F843F2B831C1F20001B1F9D030A722DFF89C180EA82CF013FF0EA833F036F92C
S2240056C02A46234681B20EA82BF0F0FF15A8032120F04AFEA722159BDFF878180EA82CF00E
S2240056E0FFFE0EA833F022F92A4681B223460EA82BF0DCFFA722169BDFF858180EA82CF069
S224005700EFFE0EA833F012F92A4681B223460EA82BF0CCFFA722179BDFF838180EA82CF097
S224005720DFFE0EA833F002F92A4681B223460EA82BF0BCFFDDF814C02946604622462BF0DA
S22400574059FAE9E4FA202121DFF8E4271FF06CFDFDF78CBE464621F097F8B046FDF7DDBB82
S22400576012236FF001024FF0000C02218DF894208DF895302A46234625A8CDF880C0CDF82C
S22400578084C0CDF814C02BF091FF2946224630468DF8A2602BF02EFA04224FF4D0101EA955
S2240057A02AF056FC1E9BDDF814C0B3F1FF3F08BFCDF878C0234604212A461EA82BF076FF1C
S2240057C040F204000422C0F21A001EA92AF040FC1E9BB3F1FF3F00F08880A3F5D013803BB6
S2240057E01E93042123462A461EA82BF05FFF40F210000422C0F21A001DA92AF029FC1D9BC5
S224005800B3F1FF3F6ED0A3F5D0131E9A823B9B1A1D93042123462A461DA82BF047FF40F2B8
S2240058200800C0F21A0004221EA92AF011FC1E9BD8B203F47F03B3F5981F8DF8A2003AD22D
S224005840142838D004212A461EA823462BF02EFF0020294622468DF8A2002BF0CBF91FB126
S22400586038462BF0CDFE8046219B9DF8A1000093069B0021019301224FF0FF33CDF808803D
S2240058801EF0A8FF292024A92BF02EFB064600287DF4E7AB4FF6FF714FF4D010C0F22101D1
S2240058A02AF08CFB20962920214646462BF01EFFB046FDF732BB294622468DF8A2002BF028
S2240058C099F9E2201EA92BF0DBFEC3B28DF8A2300BB100231E931EA804212A4623462BF039
S2240058E0E5FEBCE701331D9393E701331E9378E70C2000211FF070F90A23FA202721DFF850
S22400590030261FF091FC42F6F83EC1F2000EBEF90030FEF70EB94646FEF734BD0023209376
S22400592021939DF89530002B3DF49BAB012248461CA92BF023FE04238DF895309DF870305A
S2240059406FF001028DF894206B2B00F26C82DFE813F05B024C0244023B022C0222021A02CB
S224005960110200026A02F701EF01E7016A02DC016A02D101C5012F01B6016A02AD01A401DE
S2240059809C0194018F0188018301790162015B016A0241016A026A026A026A026A023A01F5
S2240059A06A026A026A026A026A026A026A026A026A026A026A026A026A026A026A026A0222
S2240059C06A026A026A026A026A026A026A026A026A026A026A026A026A026A026A026A0202
S2240059E06A026A026A026A026A026A026A026A026A026A026A026A026A026A026A026A02E2
S224005A006A026A026A0236016A026A026A026A026A026A026A021F011A0112016A026A02EC
S224005A200A01F400D600B100E9004FF0FF338DF8A2309DF895302BB148460DF1A2010122A2
S224005A402BF09CFD9DF8A20000261CA9224601280CBF022030461C9620961EF04BFB6FF05C
S224005A6001031C988DF894302AF012F9431C8DF89530022123462A4625A8219620962BF001
S224005A8015FE2246062029468DF895002BF0B2F81C9921982AF0E0F8219B9DF8A120384622
S224005AA0049305922BF0ACFD049B069900930191FEF7D2BE42F66A22C1F200021288ADF84F
S224005AC09020234602212A4625A82BF0EFFD294622469DF8A2002BF08DF89DF8700029461F
S224005AE022462BF087F89DF89530062B12D024A802212A4623462BF0D9FDFDF732BE43F260
S224005B00D073C1F200035A781B7843EA0223ADF89030D6E71EA804212A4623462BF0C6FD0C
S224005B20FDF71FBE42F65423C1F200031B88ADF89030C6E74646FDF71BBE42F66821C1F2A8
S224005B400001B1F90030DAF80020B3F1FF3F04BF0022ADF89020B4D0D31893F84C309B0046
S224005B60ADF89030ADE742F66820C1F200000088ADF89000A5E742F6BC31C1F20001098801
S224005B80ADF890109DE74FF46B70ADF8900098E742F6C83142F6892CC1F20001C1F2000CD4
S224005BA09CF800300A7843EA0223ADF8903088E700201DF0FDFF40F61C43984281D904205E
S224005BC0FBF7FAFA7DE743F2CC400423C1F20000037076E706238DF8953043F2E62C43F29C
S224005BE0C823C1F20003C1F2000C1A7842F6F84EBCF80030C1F2000E43EA8232BEF80030C4
S224005C0043EA02431E935CE70120052110F040FBADF8900055E7052028F07CF8DAF8002083
S224005C20052092F840306FEA43636FEA536382F8403028F0DBF8FA202721BD4A05231FF0BD
S224005C40F3FA3EE74AF2CC00CFF6FF7001212AF023F9ADF8900034E724F02AFDADF89000D9
S224005C602FE7DAF8003093F83F30ADF8903028E71DF0EAFDADF8900023E743F26851C1F2C5
S224005C8000010988ADF890101BE743F66020C1F200004379ADF8903013E743F6282EC1F25D
S224005CA0000E9EF80030ADF890300AE743F6092CC1F2000C9CF80030ADF8903001E742F63F
S224005CC02040C1F20000008842F620424FF00001C1F20002ADF890001180F2E642F62C4E45
S224005CE0C1F2000E9EF80030ADF8903000238EF80030E6E642F6C44C0623C1F2000C8DF859
S224005D009530DCF800301E93DBE642F63042C1F200021368A3F508139B09ADF89030D0E6F7
S224005D2042F64A21C1F200010988ADF89010C8E642F64C20C1F200000088ADF89000C0E6C9
S224005D4042F6462EC1F2000E9EF80030ADF89030B7E643F2641343F2CC4CC1F20003C1F2A7
S224005D60000C93F85A209CF8003043EA0223ADF89030A6E64FF0FF334FF000028DF870302F
S224005D80ADF890209DE642F61C21C1F200010B78ADF8903095E642F628400623C1F200001E
S224005DA08DF8953003681E938BE645F2301EC1F2000EDEF8002044F24023C0F20F03B2FBC1
S224005DC0F3F3ADF890307CE642F66D2CC1F2000C9CF80030ADF8903073E643F2FE22C1F2F7
S224005DE000021378ADF890306BE642F6D633C1F200031B8842F6D6314FF00000C1F200018F
S224005E00ADF8903008805CE642F6EA30C1F20000008842F6EA324FF00001C1F20002ADF8D3
S224005E20900011804DE64FF0FF334FF000008DF87030ADF8900044E629462246C8202AF0FC
S224005E40D9FE454B47F6DC72C1F20002D61A31461846FAF7A9FF301A2346ADF8900002212D
S224005E602A4624A82BF022FC22462946C9202AF0C1FE47F6244047F62421C1F20000C1F286
S224005E800001461A31463548FAF78EFF301A2346ADF8900002212A4624A82BF007FC294656
S224005EA02246CA202AF0A6FE02212A4623461CA82BF0FCFB219B38469DF8A16004932BF079
S224005EC09FFB049B069A0093019202900021304601224FF0FF3346461EF07CFCB046FDF705
S224005EE01CB803236FF001014FF0000C8DF894108DF89530043123462A4625A8CDF880C0A4
S224005F00CDF884C0CDF814C02BF0D0FB2946224630468DF895602AF06DFE02212A462346AC
S224005F200F482BF0C3FBFFF7F7B800BF248D0300288D0300F8330010B8330010D83300100B
S224005F4058340010183400102C8D0300388D0300308D0300408D0300287C0010247A0010CE
S224005F60E85000109DF89530072B7DF67AA8DFF8541A042248462BF001FB4846DFF8481ADC
S224005F8004222BF0FBFA3FB138462BF039FB42F6FC32C1F20002106042F61442C1F200023B
S224005FA01368B3F1FF3F00F06082B3F5001F08D342F6EC3CC1F2000CDCF800100A2900F0E5
S224005FC0C18242F6144E23F00F03C1F2000ECEF8003042F61E409DF8A130C1F200000370E1
S224005FE04646FBF74DFAB046FCF797BFBDF89010FDF724B8BDF87030079840EA0303ADF8AA
S2240060009030FDF70BB80023219320930EB907994B1C06200121ADF890301EF0DDFD0623EE
S22400602000264FF00A088DF89530022123462A4625A8219620968DF894802BF037FB29460F
S2240060402246AA202AF0D6FD2946224655202AF0D1FD3046294622462AF0CCFD30462946D3
S22400606022462AF0C7FD3046294622462AF0C2FD3046294622462AF0BDFD0C238DF8943016
S22400608002212A46234625A88DF895602BF00EFB219B0D2000934FF08073019341460222A7
S2240060A04FF0FF3302961EF095FB219620968DF8946002210D362A46234625A88DF89560C8
S2240060C02BF0F4FADFF8040931462A4623462BF0EDFA9FB338462BF093FA80469DF8683011
S2240060E0002023F00F0343F002033C218DF8A13027F076FB219B012200934FF080739DF8AA
S224006100A100019300214FF0FF33CDF808801EF061FB01214D202BF07BFB0D2001211FF07E
S224006120C5FABDF89230FCF780BFBDF87030079921EA0303ADF89030FCF770BFB846CDE7B3
S2240061409DF8903044F6A06C03F00203C1F2000C46468CF80030B046FCF7DFBEBDF89020BD
S22400616042F6BE33C1F2000346461A80B046FCF7D4BEBDF89030079880EA030212F4C05FF2
S2240061803CF46FAF42F60E41C1F200010B80C3F3C1235900ADF890106FF00500013146468C
S2240061A01EF01AFDB046FCF7B8BE42F67E41C1F200010B7801229A409DF890309DF89010A1
S2240061C002EA030342F61A42C1F2000213706FF0040046461EF000FDB046FCF79EBE062097
S2240061E027F098FD4FF6FF714FF40810C0F2230129F0E4FE42F6304CC1F2000C4FF408133C
S22400620042F65E4E42F68540CCF80030C1F2000EA3F50813C1F200000370AEF800302146CD
S2240062200620209346462BF061FA062027F0DEFDB046FCF772BEBDF89210002900F0DE807F
S22400624042F65E40C1F200000180062009B22BF0DFFA42F6604CC1F2000CBCF90020BDF92C
S22400626092309A4224D042F6784CC1F2000CBCF900209A427CF4F5AE42F6854E42F60A407B
S22400628042F680410026C1F2000EC1F20000C1F2000106708EF8006008682AF03DF842F65F
S2240062A08042C1F2000216604646B046FCF735BE2CF076FD45F28013C0F2010390FBF3F304
S2240062C042F60B40C1F2000099B2037842F6344EC1F2000E022BAEF8001003D009B20720AA
S2240062E02BF096FA42F660424FF0FF31C1F200021180BDF99230B6E7BDF89230002B55D083
S22400630042F6784CC1F2000CACF8003042F6804EC1F2000EDEF8000029F0FEFF42F6784145
S22400632042F6304CC1F20001C1F2000CB1F90020DCF8001042F68040A1F508110023C1F206
S2240063400000B2EB911F036026D02FB138462BF057F9DFF87C3618609DF8683042F60A4E0B
S2240063601B09C1F2000E42F6D03042F6D43242F6854C8EF80030C1F2000001234FF00001E7
S224006380C1F20002C1F2000C464603701180B0468CF80030FCF7C1BD42F6854EC1F2000E0D
S2240063A046468EF80030B046FCF7B7BD42F65E4EC1F2000EBEF8002012F4004F02BF42F670
S2240063C07840C1F200000280A0D042F63041C1F200010A6842F6784CA2F50812520A013250
S2240063E0D20092B2C1F2000CACF8002012B2B2F5006FC4BFDFF8DC25138087E742F630421F
S224006400C1F20002116842F65E43A1F50811C1F38F11C1F20003198017E71D9B13431E9361
S224006420FDF7D1BC3946FBF7B3F842F6CC3CC1F2000CBCF80030002B3CF413AE42F6304E05
S224006440C1F2000EDEF8001042F65E40A1F50811C1F38F11C1F200000180464609B2062016
S2240064602BF0D6F9B046FCF758BD0026166005202096219627F04EFCADF890600D366FF069
S22400648001036FF0240002218DF894308DF8950023462A4625A82BF009F90D202946224623
S2240064A08DF895602AF0A6FB04212A462346DFF814052BF0FBF842F61441C1F200010B68F2
S2240064C0DAF800204C33D018D6212A4623462BF0EDF842F61442C1F200021368D633136054
S2240064E0BDF8903001339BB2012BADF89030C6D9052027F07BFC219B42F6FC3C00934FF0C0
S22400650080730193C1F2000CDCF800309DF8A100029302224FF0FF3300211EF05BF942F611
S224006520EC3EDFF8A02442F6FC300023C1F2000EC1F200004646CEF8003013600360B04648
S224006540FCF7EBBCA3F58010106000F10A0129F035FDDFF87434002246461A60B046FCF72D
S224006560DCBC00268BF82F6029F046FCBDF89230CBF85860002B7DF435AAFDF7E1B9BDF83B
S224006580903093427CF46DAD002602200F21209621961EF011F9219000283CF405AC0670AA
S2240065A046708670C670219A06231371219A4FF0040C53716FF036038DF89430219B25A953
S2240065C0981D02228DF895C00493CDF814C032F04BF9049BDDF814C003F10800FE4962463A
S2240065E032F042F9ABF80060002F5ED038462BF007F80646219B9DF86800009320F00F008A
S2240066004FF0807340F002000193FDF7E9BC6FF001038DF8943013334FF0000C8DF895305D
S224006620022123462A4625A8CDF880C0CDF884C0CDF814C02BF03AF82946224630468DF8C6
S22400664095602AF0D7FA0821E4482A4623462BF02DF8E3480821FDF75CBE21462A462190FD
S22400666020901DF047FD20983146012224F0AAF8B046FCF752BC42F6854342F60A4C42F64F
S224006680804EC1F20003C1F2000CC1F2000EDEF800001E708CF8006029F03EFE42F680405C
S2240066A0C1F200000660FCF701BE4646A2E7D8B21EA92AF0E5FF80B2079038B91EA8042101
S2240066C02A4623462AF0F2FFFDF73EBC0DF1920031462A4623462AF0E9FFFDF735BC209864
S2240066E029F01AFE2096FEF719B80C2041461EF073FAFA202721BB4A43461EF095FDFCF737
S2240067003DBE022005211EF0D1FFFCF77CBE48461EA92AF033FF04287CF42CAF4646FCF78F
S224006720A1BC0220FAF748FDFCF728BE4B68002B40F028810333464681F85730B046FCF764
S224006740ECBBDFF8A4E24FF0FF338EF80030012000214FF4FA72CDF824E02CF041FBFCF704
S2240067602AB89DF895304FF00101043BADF892108DF8A230FEF720BB42F6BC3CC1F2000CFB
S224006780BCF80020B2F5697FBCF400AADAF80010964B4C311A8001208B186FF0060E88544A
S2240067A083F801E00EF1430E83F802E042F6642ED870C1F2000E181DCEF800008A5C0132E4
