S017000042696E732F4D323034362E434255472E73726563EA
S224000000DC7F0010E5000000C9000000CD000000D1000000D5000000D90000000000000076
S22400002000000000000000000000000049050000DD0000000000000019050000090C040059
S224000040E1000000E1000000E1000000E1000000D12B0400E11C0400C91B0400B11A04005F
S22400006099190400E1000000A53304002D320400E1000000E1000000B52A0400E10000001F
S224000080E1000000DD080400E1000000E1000000E1000000BD360400E1000000E100000035
S2240000A0E100000069250400E1000000E1000000E1000000E1000000E1000000E100000082
S2240000C0E1000000D50A0000FEE700BF00BE7047FEE700BFFEE700BFFEE700BFFEE700BFB2
S2240000E0FEE700BF234A24498A420AD22348002350F803C042F803C0043302EB030C8C453B
S224000100F6D3264826494FF000028842B8BF40F8042BFADB4EF2FF124FF08043C0F2F5522A
S2240001205A6003221A706FF055021A72AB321A721C4880F30988124B124A19681160124A37
S2240001409A4205D91149096843F8041B9342FBD30F4B0BB100E000BF0E4B13B100E000BFA7
S224000160FEE70D4B13B100E000BFF9E700F018FBF6E700BF00000010FC01001020F3040027
S224000180F07A00108C410010DC7F001000000010000000000000000000000000FC0100107B
S2240001A0FC510010F07C001000000000000000000000000000000000000000000000000061
S2240001C000000000000000000000000000000000000000000000000000000000000000001A
S2240001E00000000000000000000000000000000000000000000000000000000000000000FA
S2240002000000000000000000000000000000000000000000000000000000000000000000D9
S2240002200000000000000000000000000000000000000000000000000000000000000000B9
S224000240000000000000000000000000000000000000000000000000000000000000000099
S224000260000000000000000000000000000000000000000000000000000000000000000079
S224000280000000000000000000000000000000000000000000000000000000000000000059
S2240002A0000000000000000000000000000000000000000000000000000000000000000039
S2240002C0000000000000000000000000000000000000000000000000000000000000000019
S2240002E000000000000000000000000000000000000000000000000000000000F1F1F1F135
S22400030000B58AB00AA8362340F8143D41F6F173C1F6FF736946984701980AB000BD00BF34
S2240003204CF20003C4F20F034FF40042C3F8C42040F24012C5F20042C3F8A82140F2004216
S224000340C0F20502C3F8AC214CF20002C4F2020200219162D3F8882012F0007F08D001225A
S224000360C3F88020AA22C3F88C205522C3F88C204CF20003C4F20F030022C3F88020AA22BA
S224000380C3F88C205522C3F88C20D3F8A021194642F02002C3F8A021D1F8A0214CF200038D
S2240003A012F0400FC4F20F03F6D041F60032C0F2B70201219042C3F80C1129D8D3F8A0212C
S2240003C042F02002C3F8A021D3F8A0114CF2000211F0400FC4F20F02F6D00123C2F80C3194
S2240003E00023C2F804313A23136041F60033494AC0F2B703136041F6FF33C0F2B7034FF026
S2240004008042536040F20103C8F200031361704742F20042C0F2F402904258D040F23102C7
S224000420C0F20202C3F884204FF0AA0C5522C3F88CC0C3F88C20C3F88010C3F88CC048F23C
S224000440004CC1F2D77CBCFBF0F00328C3F88C2035DD9CFBF0FC4CF66B230CF1FF32C6F6CD
S2240004605F33A3FB0213DB0D1B03013843F03A03284A4CF20001C4F20F01C2F800C0C1F8D9
S22400048004010B60D1F888204CF2000312F0806FC4F20F03F6D00322C3F88020AA22C3F8AF
S2240004A08C205522C3F88C20D3F8882012F0007FFAD04FEA1C131B0143F0FF039FE74EF270
S2240004C0001C44F23A030320C0F2F55CD0E7D3F8A02142F02002C3F8A021D3F8A0114CF295
S2240004E0000211F0400FC4F20F02F6D00123C2F80C310023C2F804313A23136042F20043A4
S224000500044AC0F2F403136042F2FF43C0F2F40375E700BFFC51001072B6EFF3088020E93A
S224000520F00F2A4981F308884FF000014DF804ED62B639F019FB72B65DF804EBB0E8F00F72
S22400054080F3088862B6704772B6EFF3088020E9F00F1E4981F308884DF804ED62B639F048
S2240005608DFB72B65DF804EBB0E8F00F80F3088862B67047DFF820C0084A944509D9002332
S22400058052F803E041F803E0043302EB030EF445F6D88047FEE700BF446A04000468040044
S2240005A03AF0CCFD72B60A480A490B4AA2EB0101A0EB01000246A2F1080282F308880146D5
S2240005C040F00100FFF7D6FFFEE70000F07C0010DC7F001004680400446A0400324BB3F903
S2240005E00030012B39DD4CF20003C4F20F03D3F8C42042F00072C3F8C4204CF20002C4F293
S2240006000202516841F470115160D3F8AC2122F44022C3F8AC21D3F8AC2142F48022C3F8EE
S224000620AC214CF20003C4F20903204A12681209B2FBF0F06FF07C021A73C0F307210022F2
S2240006405A60C0B219710321187019730721197283F8282005225A6070474CF20003C4F2A2
S2240006600F03D3F8C42042F00802C3F8C4204CF20002C4F20202116821F0F001116011687A
S22400068041F050011160D3F8A82122F0C002C3F8A821D3F8A82142F04002C3F8A8214CF2AC
S2240006A00003C4F20003C0E700000820FC510010084B4CF20002B3F900104CF20003C4F207
S2240006C00002C4F209030129D8BF1346986800F0040070470000082000B544F20003C4F2C0
S2240006E002035B6C81B013F4007F15D00F4B5A7C92B1B3F900104CF200024CF20003C4F227
S2240007000002C4F209030129C8BF1A46936813F0040FFBD0107806E001200DF1030138F06A
S22400072087FB9DF8030001B000BD00BF0000082000B544F2000381B00090C4F202035B6C14
S22400074013F4007F17D0144B5A7CA2B1B3F900104CF200024CF20003C4F20902C4F20003E8
S2240007600129D8BF1A46137D13F0200FFBD09DF80030137008E0094BB3F90030012B06DD57
S2240007800820694638F070FB009801B000BD0220694638F069FBF7E700000820522A0010F5
S2240007A0DFF87435DFF87425DFF8745501261A6099B02E7040F050F9DFF868250027178081
S2240007C0DFF864254FF002011180DFF86025DFF860451670DFF85C254EF200101670DFF87E
S2240007E05825C0F2F5501770DFF8502526701770DFF84C251770FFF793FD384640F06EF926
S22400080038F0BCF942F0B4FF42F06EFE42F00EFA42F062F823782BB1384641F0B1FF304661
S22400082041F0AEFF05203AF0E3FC002002464FF4165140F035FF01204FF4E131002240F069
S2240008402FFF02204FF41651002240F029FF03204FF41651002240F023FF3AF06BFCDFF876
S224000860E4740026B84617F806A0BAF1000F0BD0504638F003FA08EB0A131B7D0A2B00F025
S22400088032810136072EEED10120032138F06AFA0023DFF8B4242B700133137013785BB1E9
S2240008A04CF20003C4F20F034FF47060C3F8C00030BF11780029F9D10025257042F0E8FF5E
S2240008C04CF220031022C2F20903DA614CF24003C2F20903DA611A6842F010021A6041F098
S2240008E093FA42F0A3F842F025FA44F20003C4F202035B6C13F4007F00F0FA80DFF84C4436
S2240009000E2040F039FAB4F90030012B40F3DC814CF20003C4F209035D604EF20013CEF2D5
S22400092000034FF48072C3F8802042F047FE40F055F84CF20003C4F20F03D3F8A82012F489
S224000940007F08D00122C3F8A020A932C3F8AC205522C3F8AC204CF20003C4F20F03002212
S224000960C3F8A020AA215532C3F8AC10C3F8AC20D3F8800020F00200C3F88000C3F88C10B8
S224000980C3F88C20D3F888104CF2000211F0007FC4F20F02F6D1D2F8803023F00103C2F8EF
S2240009A08030AA23C2F88C305523C2F88C30D2F888104CF2000311F08071C4F20F03F6D12D
S2240009C0C3F80C11C3F80411C3F8A0113AF00AFC0A2800F0678144F20005C4F202056B6CF5
S2240009E013F4007100F04181012341F600306374C0F2B700FFF794FC002040F06FF86B6CE9
S224000A0013F4003F03D003232B702D332B744CF22005C2F209054FF40073EB612B684CF200
S224000A20000843F400732B604CF24003C2F209031A684CF2000722F006021A604CF2000397
S224000A40C4F202031A6D44F2000642F028021A651A6DC4F2000822F014021A65A068FFF74E
S224000A60BDFD6A69BA4968463FF02CFB68463FF0D3FD4FF461703FF045FF64203FF042FFB5
S224000A800125C4F20907C4F2020642F210794FF0804A4FF0550B64203FF034FFB4F900208F
S224000AA0012AD4BF43463B469B6813F0040F23D1B36C6FF07F4123F07F438B4223D1013552
S224000AC064203FF01FFF95FBF9F309FB1353002BE1D16FF055028AF8082031208AF808B092
S224000AE0FFF726FED7E75046022138F081F8C8E640F0EAFA954C18E744F20003C4F2020329
S224000B004FF48051196544F20003C4F202031B6D13F4805F00F0968048F28003C4F202035E
S224000B2000211963196B012A5963596BC8BF4FF080621961C8BF5A6140F3EA806588FFF700
S224000B40CBFD2BB2E31883F88C00013544F200074CF200094CF2000A48F21F5B227C6580B0
S224000B60C4F20207C4F20909C4F2000AC5F2EB1BBB6C6FEA13636FEA0363BB64B4F90030BB
S224000B80012BCCBF49465146896811F0040108BF3965002A47D03A6D12F4805208BF154635
S224000BA012D0B0E040F20002C2F20802137C013503EB83035B009D4235DA3B6D13F4805FBC
S224000BC040F09280B4F90030012BD4BF53464B469B6813F0040F40F084808BFB0532EB17FC
S224000BE0C3EB6213642101FB13533BB94FF080436FF055024FF055011A72197264203FF0DB
S224000C0081FE66880FFA86F8B8F5806FCADB40F20003C2F208031D7C05EB85056D002B46B5
S224000C2001359D42C9DB44F20003C4F202030022DA6402F580521A659A6C02F07F4242F06F
S224000C4001029A6440F040FA4CF22003C2F209034FF400729A614FF080436FF055021A720F
S224000C6056321A723AF06AFAFEE74CF20003C4F20F034FF40072C3F8C4204EF60052CEF235
S224000C800002106940F0040010610922C3F8C02030BF4FF080436FF055021A7219723AF081
S224000CA04DFAFEE74CF24003C2F209035B6913F008027FF490AE4FF080436FF055011972FE
S224000CC01A723AF03BFAFEE74CF20003C4F200035D604EF20013CEF200032022C3F88020D5
S224000CE023E666880FFA86F8FFF7F6FCA04488F88C00227C0A2303FB02F30136AB426680D1
S224000D003FF736AF8FE7668800250FFA86F8EBE708225A6112E700BF4C2A0010005200104C
S224000D20B52B0010802B0010522A0010B42B0010B02B0010502A0010B82B0010382A0010AE
S224000D40552A0010446A0400542A001000000820206B040042F64C23C1F200031968002208
S224000D608A801968CA8019688A601968CA6019680A611B685A617047054B1B8833B9054B73
S224000D801878002818BF022000B270470120FBE7040200105535001001F1030C1CEA210C4D
S224000DA038BF8C464FEAAC0CBCF1000F30B415DD0B4B04681B689C4210D1002304E050F88F
S224000DC023209D00A24207D101336345F7DB98004042401830BC70476842FAE70020F8E725
S224000DE0000000102DE9F04FC74C8FB0C0B201230A9084F85A30002840F0BE802368D220EE
S224000E00DFF804A363603AF07BFF002800F0C48000255346012603F8405F8AF856600D9038
S224000E20B2460B950C9509930DF134080DF13B070DF130090DF12C0B2E4601224046394656
S224000E403CF012F801281EBF2C208DF83B004FF0000A00F087800C9B1BB3002049465A4641
S224000E603AF0C2FD33B2062B15D8DFE813F0E700DE00F0000700F900C200A1004FF000035D
S224000E800C9884F840303AF087F905B2142D40F3F9804FF0000A0C983AF014FB00230B9388
S224000EA00C930136B6B232B2072A21DD0021012384F85630216161618C46206808910090CE
S224000EC0A06892490190E068CDF81CC002900998039094F85800049094F85900059094F86C
S224000EE05B00069080203AF0D1FB0FB0BDE8F08FBAF1000FA1D1072AD8D10A980223824DE7
S224000F0084F85630002840F0EE8094F858307E4A632B00F2C680012111FA03F351690B4337
S224000F20536194F85930784A632B00F2C780012111FA03F351690B43536194F85B30724AA8
S224000F40632B00F2C880012111FA03F351690B4353612368D4F814C06360216994F856305B
S224000F600722AAE79DF83B002C283FF474AF49465A463AF039FD96E70023D22084F85C300F
S224000F802376236084F85530DFF87CA163603AF0B7FE00287FF43CAF0A9A8AF856008AF815
S224000FA05A00002AA1D0CAF81000CAF814009CE70C9B002118790A2218183FF083FCC0B237
S224000FC0A0F11003DBB2532B84F85B007FF661AF43F25412C1F2000292F8583083423FF4A7
S224000FE058AF92F8593083427FF455AF4FF0000A51E70C9B002118790A2218183FF062FCD3
S224001000C0B2A0F11003DBB2532B84F859007FF640AF43F25412C1F2000292F8583083424A
S2240010207FF439AF4FF0000A35E70C9B002118790A2218183FF046FCA0602CE70C9B0021EA
S22400104018790A2218183FF03DFC206023E70C9B002118790A2218183FF034FCE0601AE757
S2240010600C9B002118790A2218183FF02BFCC0B284F858001038C0B253283FF60CAF4FF0B6
S224001080000A08E72A46484621493BF0EDFE43F25410C1F2000045194FF0000285F840200C
S2240010A0F9E60121643B11FA03F311690B43136194F85930144A632B7FF639AF0121643B2F
S2240010C011FA03F311690B43136194F85B300E4A632B7FF638AF0121643B11FA03F3116939
S2240010E00B43136135E73FF0A7FCEB68984207D2AB6898427FF609AF032385F8563004E707
S224001100012385F8563000E754310010D46B04009431001070B58EB00AAC22460B23D6206A
S2240011204FF4807141F0DAFF9DF829C09DF83000CDF800C09DF82AC000F00402CDF804C0A6
S2240011409DF82BC00790CDF808C09DF82CC09DF83100CDF80CC09DF82DC00890CDF810C05F
S2240011609DF82EC09DF83200CDF814C046F608419DF82FC0C0F204019DF828300990012020
S224001180CDF818C03AF082FA05238DF8283003206FF075038DF8293037F0ECFF022221468D
S2240011A0D62041F0F3FF02250020012137F034FD01262A462146D6208DF828508DF8296051
S2240011C041F0E4FF0020314637F026FD1F232A462146D6208DF829308DF8286041F0D6FF15
S2240011E00020314637F018FD07232A468DF8283021464B23D6208DF8293041F0C7FF314689
S224001200002037F009FD00238DF82830214637232A46D6208DF8293041F0B8FF032038F044
S22400122029F80EB070BD00BF10B5C4B284B0032037F0A0FF012C0CBF6B244B240723022242
S2240012406946D6208DF800308DF8014041F09EFF0121002037F0E0FC032038F00BF80120E7
S22400126002493AF013FA04B010BD00BF446C0400F0B58FB00BACC5B2032037F07BFF2246B5
S2240012800B234FF48071D62041F028FF032037F0F1FF9DF82F3046F6544200939DF82E3013
S2240012A0F92001939DF82D30272102939DF82C30C0F2040203939DF833300B2604939DF819
S2240012C03230002705939DF8313006939DF8303007939DF8353008939DF8343009939DF80B
S2240012E036300A932B462BF0A1FE9DF82DC09DF83400CDF800C09DF82EC000F00402CDF8AD
S22400130004C09DF82FC00790CDF808C09DF830C09DF83500CDF80CC09DF831C00890CDF899
S22400132010C09DF832C09DF83600CDF814C046F664419DF833C09DF82C300990C0F2040143
S2240013400120CDF818C03AF0A1F90121002037F063FC05238DF82C3003206FF045038DF8E6
S2240013602D3037F007FF02222146D62041F00EFF0020012137F050FC012521460222D620C3
S2240013808DF82C508DF82D6041F000FF0020294637F042FC6FF048032146D62002228DF861
S2240013A02D308DF82C7041F0F1FE3846294637F033FC224633464FF48071D62041F08EFE7F
S2240013C0032037F057FF9DF82DC09DF83400CDF800C09DF82EC000F00402CDF804C09DF801
S2240013E02FC00790CDF808C09DF830C09DF83500CDF80CC09DF831C00890CDF810C09DF8AD
S22400140032C09DF83600CDF814C046F6A4419DF833C00990C0F2040128469DF82C30CDF854
S22400142018C03AF033F9102006212CF05FF80FB0F0BD00BF2DE9F0475FFA80FABAF1020FA8
S22400144083B000F0CF8002238DF808301E238DF80930002301AF0221019300933A466B46E6
S22400146002A83AF005FB3FF0E7FA624B624C1B78E846013BDBB2022B98BF6FF009036060EF
S22400148098BFA3600CD95D4B1B6859781A7842EA01229978DB7842EA014242EA0363A360C3
S2240014A00323554D237377233A4663730B216B460AF00109281D524E84F80E903AF0D8FAFD
S2240014C0052037F057FE3368DA88002A5CD09988B1FBF2F22A74D3F808C048F68902C8F6AA
S2240014E08802A2FB0C1C21694FEA5C1C6CF317212161D9680025A2FB01C2C2F34F12E27412
S224001500120A227519696269BAF1020F61F3172262611A7D3848E275A269596902F07F42CC
S22400152042EA1122A2612577E5762FD0354B027FD3F8C41042EA0122C26193F8C720132196
S22400154080F82020B3F8C0303A4680F821301A2380F8223010306B463AF08AFAB9F1000F8B
S2240015600BD033689D803368DD8033689D603368DD6033681D6133685D61052037F07AFE35
S224001580019803B0BDE8F0872A74A4E793F83F300577C3761B4B027FD3F8C41042EA012231
S2240015A0C26193F8C720132180F82020B3F8C0303A4680F821301A2380F822306B461030C9
S2240015C03AF056FA052037F055FE04213A466B460D483AF04DFA51463A466B460B483AF08C
S2240015E047FACDE704238DF8083024238DF809302FE700BF6A2C001004020010E42B001058
S2240016004C2A0010A833001090400010EC4000102DE9F04FDFF80C81434FD8F800308AB0B3
S2240016203A68012041493AF031F8D8F80030B3F5806F34BF9A464FF4806ABAF1000F67D07D
S2240016400DF1200B0DF10C090023BAF1F00F34BF5646F02607930893B6B26FF001038DF852
S2240016602430731D8DF8253002215A4607AB09A83AF0FEF94FF00D03594607AA0D208DF80F
S22400168025303AF0B1F9284804215A4607AB3AF0EFF9FEB1386834B2102CA8BF1024A4B2C1
S2240016A025B249462A46A4B239F0EEFE07AB484621465A463AF0DCF9D8F800303868361BAD
S2240016C05B1B2818B6B2C5EB0A0AC8F800303860002EE0D142F60E43C1F200031C7842F6B1
S2240016E0EC33C1F200031868089D3BF0FFFB4FF08073019302900021204601224FF0FF3353
S22400170000952CF04FF8BAF1000F9DD1D8F8003023B9074B186808B139F0D4FE0AB0BDE8E3
S224001720F08F00BFDC2B0010042C0010E86C0400EC2B00102DE9F04FC0B288B000270491D5
S224001740039005970697344EDFF8D080BA460DF11C0B06AD05AC0CE00AF1010A1FFA8AFAF7
S2240017600FFA8AF901370436B9F1400F08F1080850D06FF001014FF00E028DF81C108DF85E
S2240017801D2002212A46234658463AF071F94FF011032946224611208DF81D303AF024F965
S2240017A02946224638463AF01FF904212A46234630463AF05DF908212A46234640463AF0E7
S2240017C057F998E8060033688DE80600802014493A4639F05BFF33685FFA8AF9002BBBD1EA
S2240017E07A1C80200F4939F051FF0498069C3BF07DFB09F101024FF0807301930290D2B223
S224001800039800214FF0FF3300942BF0CBFF08B0BDE8F08F4F46E3E794500010084900108D
S224001820086D0400246D04002DE9F0410D4683B0C4B21021032016462BF0A6FF074688B35A
S22400184006230371042343710223C37113234FF00008837100F1080380F8008080F8018054
S22400186080F8028080F8038080F8088083F801803046230943EA04143BF038FBE4B24FF058
S224001880FF330290414620460122009701952BF089FF22460120054939F0F8FE044B012237
S2240018A083F8232003B0BDE8F08100BF386D0400040200102DE9F04F984F94B03B88DFF804
S2240018C060921AB2002ABFBF03F500639BB21AB23B80B2F5006FC1BF03F578439BB21AB20C
S2240018E03B80013AD117490D521853055B0D5C1A4FF6FF71002504F50844C0F22301A40175
S22400190011951295AA4612AE0DF1440800916FF00203009A8DF84C30D9F80030944288BFCD
S2240019204FF4081401354FF002019C428DF84D10EDB272D0204601A9402239F0A5FD9DF858
S2240019401C3002211B338DF84D303246434613A83AF08EF802213246434670483AF088F8D1
S2240019609DF84D103246023989B201A843463AF07FF842F6AE32C1F20002108800284AD008
S2240019809DF81CC00CF119033F2B18DC14A9CB1813F84C2CFF2A40F0B18001AB0CF11A0CDE
S2240019A003EB0C01002305E011F8012B0133FF2A40F0A4800CEB030212B23F2AF4DD4FF000
S2240019C0000BBAF1000F14BF002000F0010038B1B7F900209DF84D300120524939F056FE55
S2240019E0BBF1000F33D13B880AF1010A01339BB21AB2B2F5006FC8BF42F668413B80C2BF53
S224001A00C1F2000103F578430B800F2D1FFA8AFA1FD040347BE78346E5E702213246434678
S224001A2013A83AF025F80221324643463B483AF01FF83A8842F65041C1F200010A8042F6B6
S224001A40AE31C1F200010B8813F0010F47D14FF0010B354B354A1B7803EB43039B00137001
S224001A60334B186808B13BF041FA04460E2103202BF08AFE00284DD0062311900371119BD6
S224001A8005225A719DF84820119B2A4F1A709DF849205A709DF84A209A709DF84B20DA7088
S224001AA03A78119B02F00F0212939E1D9A7100237370129839F070FB80B2B070000AF07055
S224001AC035713878129900F00F0041F0807122462BF0BAFD0FFA8BF014B0BDE8F08F12B275
S224001AE001209DF84D30144939F0D0FD42F6AE32C1F2000210884FF0010B62E701200F49E9
S224001B0039F0C4FD42F6AE32C1F2000210884FF0000B56E74FF0010BDCE700BF682C001079
S224001B20202C00107C6D0400C42B0010C02B0010702C0010FA2B00106C6D04004C6D0400E2
S224001B4010B504B2022C31D044F20003C4F202035B6C13F4806F20D1022C19D0022039F0D2
S224001B60C5FC04243AF0B0FA204637F0EFF801340020142137F050F8082CF3D102200021FB
S224001B802CF0A6F83AF0A0FA002037F0DFF8FEE70A2039F0ABFC0234E4E70C2001212CF05A
S224001BA097F80C2000212CF093F8D5E700216FF003002BF063FF002169202BF05FFF00219D
S224001BC06D202BF05BFF00216FF005002CF080F800216A202BF052FF682001212BF04EFFBC
S224001BE0B2E700BFF0B504B287B034B1F14B1C8814F4806400F02B810024EF4D2B8813F093
S224001C00010F40F0168100200A2137F005F8002C00F0AE8001200246E84939F037FD03A88D
S224001C203AF0E6FE0A210446002036F0F5FF2B8813F0010F40F0A780002C40F0AC8003201A
S224001C400C212BF0A1FD0246002800F08E802B88059013F0010F40F0F28006231371059BE1
S224001C6002215971059B00221A705A709A70DA70059B0322981D9A7124B1BDF90C300BB100
S224001C80417001E000234370059B002600934FF0807301936620314601224FF0FF3302968F
S224001CA02BF080FD61200DF11A013AF037F8002800F08880ADF81A6007AE002346F8083DFA
S224001CC0314616203BF068F9172031463BF064F903AEB11C4C203AF021F818B14FF0000358
S224001CE0ADF80E30642031463AF018F818B14FF00003ADF80C30BDF80E3013F0020F05D0FF
S224001D00BDF80C3013F4805300F0188103200D212BF03AFD024640B32B88059013F0010F31
S224001D2040F0068106231371059B02225A71059B00221A705A709A70DA70059B0322991DC6
S224001D409A711CB1BDF91030002B7ED100234B70059B002100934FF08073019322200122D9
S224001D604FF0FF3302912BF01DFD204607B0F0BD39F014FB00200A2136F04EFF2B8813F0AF
S224001D80010F3FF459AF01208D49224639F07EFC002C3FF454AF03A83AF030FDBDF80C10BC
S224001DA0002940F0EA80BDF80E10002940F0E080BDF8101000293FF442AF09B220203BF087
S224001DC09BF93CE7BDF81A3013F4805F3FF474AF03200D212BF0D8FC02460028C5D02B8814
S224001DE0059013F0010F40F0BD8006231371059B02225A71059B00221A705A709A70DA7023
S224001E00059B0322991D9A711CB1BDF90E30002B74D100234B70059B002100934FF08073A2
S224001E200193BB2001224FF0FF3302912BF0BAFC4EE701206349224639F028FCE3E6012095
S224001E40614939F023FC059A07E74A7080E703AE0B20314639F062FF08B1ADF80C400DF158
S224001E601A050C20294639F059FF002840F08A80BDF81A30BDF90C201BB29A4280F28880BC
S224001E800124B11C172039F049FF18B14FF00003ADF80E301620294639F040FF00287DD132
S224001EA0BDF81A30BDF90E201BB29A42A6BF4FF0FF33ADF80E30012404366420314639F055
S224001EC02DFF0746E0B9BDF8103013F4805F17D02120314639F022FF08B1ADF81070202009
S224001EE0294639F01BFF00285ED1BDF81A30BDF910201BB29A4203DA012405E04A708AE734
S224001F004FF0FF33ADF8103002214FF0FF301AF04BF880B2002818BF002403214FF0FF30A1
S224001F201AF042F880B200283FF467AE002464E60120264939F0AAFB059AF3E607AD45F881
S224001F40083D29461F203BF027F8294620203BF023F8294621203BF01FF8222029463BF07C
S224001F601BF802E701201A4939F090FB059A3CE709B216203BF0C0F81AE709B20C203BF07F
S224001F80BBF810E74FF00003ADF81A30002371E74FF0FF33ADF80C30002472E74FF00003D5
S224001FA0ADF81A3000237DE74FF00003ADF81A3000239CE7122C0010AE2B0010A46D040083
S224001FC0C06D0400946D0400D06D0400E06D0400D86D0400F0B5FC4C4FF6FF73268885B064
S224001FE09E420CD0350BADF810503EF025FD45F68023C5F2C3239842039000F2C2800C243F
S22400200001250DF112062046314639F087FE0134002808BF00250F2CF5D11F24204631468A
S22400202039F07CFE0134002808BF0025232CF5D13146162039F072FE3146002808BF0025C9
S224002040172039F06BFE3146002808BF00250A2039F064FE002840F08780BDF81230D3F158
S224002060010338BF00232B4240F086803EF0E4FC46F23F73C4F6A333984240F2EB80D34C7C
S22400208003902388002B40F058814BF2C533C9F2A213A3FB00C3DA0A4AF6AB23CAF6AA2344
S2240020A0A3FB02131B0903EB4303DB0044F20755D21ACCF22E2597B2A5FB002504A9432088
S2240020C039F02CFE23882D0C13F0010F40F03F81BDF8103003F0FF02172A05DD03F47F43FC
S2240020E003339BB2ADF81030B3F5006F84BF0323ADF81030BDF81230AB4200F0F4800020A6
S22400210032F0EAFCBDF8102012F47F4F40F0A680238813F0010F40F02681BDF812309D4238
S22400212000F0988001339D4200F08F8000230293238813F0010F40F01181032032F0CCFC3B
S2240021400120FFF74FFD80B2002800F0F18029B20A203AF0D1FF002032F0BEFC01209C495B
S22400216039F094FA012076E04FF00003ADF8123001232B423FF47AAF002032F0ADFC00200B
S22400218069E04AF28053CAF63C5344F20752C318CCF22E220393A2FB03038E4A3605126855
S2240021A0360D50781178AD1941EA00219078D27841EA004141EA026144F62512C2F292422F
S2240021C0A2FB01C0C0EB010C00EB5C0080084FEAC00CC0EB0C00091A89B201EB1343A2FB1C
S2240021E003029B1A02EB5302784B92081B88039213F0080F40F095809542BFF400AFBDF8FC
S224002200103021881BB1013B9BB2ADF8103001F470419B180B4323806F4C704B25684FF00A
S22400222003011980002D7FF4EAAEDF2039F068FD01460290002800F0AF80284629F036FE5C
S2240022402060674B08221A70D9E6BDF81030BB427FF66CAF002000B205B0F0BDBDF8123027
S2240022609D42F7D0120AD61CF6B2062E01D9073EF6B2228812F0010F7FD1DA1FAA423FF7DB
S22400228055AFDA1DAA42FFF651AF039944F20752CCF22E22A2FB010244F62511120CC2F242
S2240022A09241A1FB02C1501A01EB50018908C800411A521AD2B2B24268D042F29342A91BA3
S2240022C0C9F2492282FB01C09B1B4018C917C1EBA00182FB0302D218DB17C3EBA2039942CE
S2240022E07FF424AFB6E79DF810304FF4616000FB03F0039944F20753CCF22E23A3FB01C392
S22400230045F280121B0CC0F2010202FB13139842BFF4F5AE00F5167083422CBF0020012054
S224002320EEE601202F492B4639F0B0F9039A63E70A2002A93AF030FE0DE72B4B01201A78B7
S2240023402A4902F0400239F0A1F903989DE6BDF810200120264939F099F9B9E60120254992
S22400236039F094F9E9E60192BDF81230012022492A46009739F08AF9CFE601201F492A465C
S224002380009639F083F9BDF8123076E79DF810309F42BFF6CBAE5DE74DF2503305A802AD63
S2240023A0CFF68D230431224640F8083D2B4639F05FFB05A841F2EC3220F8042D02212246C3
S2240023C02B4639F055FB3CE7F82B0010AE2B00106C6E0400E42B0010702C0010082C0010E2
S2240023E0FA2B0010E86D040018000010FC6D04000C6E0400706E0400486E0400246E040005
S2240024002DE9F04FDFF874458DB02378FF2B00F00A8100200CA90BAA29F0C0FF237806460C
S2240024200546002B40F07A81DFF854753B78022B40F0FE80002E00F083810C9A0B9BDFF883
S2240024404445DFF844050188039011F0020F40F02D82DFF838A5DFF838556262A3624FF49D
S224002460C0105146112254462E4639F00DF80FCC0FC6DFF8207522684FF6FF704FF0000BDD
S224002480C0F218003270D9464FF4C0183C46079082E04FF0000121709AF80460DAF800304D
S2240024A0360646EA1326CBB243EA06232360330E23719AF80830DAF804201B0643EA122304
S2240024C0227942EA032262601A0E22720398028812F0020F40F09E810C98B04240F383803A
S2240024E095F804C02B684FEA0C6C4CEA132C604540DC801BCDF808C042F054FF0490059135
S2240025003B7A7A681B0643EA12230693287A6B68069A000640EA1320801A42F043FF04ABCE
S2240025200CCB42F0A7FFDDF808C004900591C6EB0C0042F037FF02460B4604A903C943F0B6
S224002540C3F843F02FFA039E02463388099013F0020F40F08C8106980B9B82189A4209DA34
S22400256003990B8813F0020F40F08D810BF1010B1FFA8BFB3B780BF0010B0633DBB2042B7F
S22400258042D826460FCEB4462E460FC60798DCF800208045327037D008F111084046FD49B1
S2240025A0112238F071FF3B7809F101090633DBB2042B94BF00230123B9F1310F88BF43F0A1
S2240025C00103002B7FF465AF03990B8813F0020F40F032812679236836060C9846EA1326A7
S2240025E0B0423FF77DAF95F804C02B684FEA0C6C4CEA132C60453FF77CAF3B780BF0010BB8
S2240026000633DBB2042BBCD903990B8813F0020F40F03F81BBF1000F00F04481DE4B41F628
S224002620FF721A8001E0012323700DB0BDE8F08FE5200AA93AF09AFC09A90446E6203AF06D
S22400264095FC012802D0012C40F09080DFF848A341F6FF73BAF800209A420DBF00200C9AD1
S2240026600B9BAAF8000002BF0C9A0B9B0125C6490391098811F0080F40F09880C14C002D0C
S2240026806CD0A362BAF800306262002B40F01581C04F4FF6FF7801264FF4C015BD4CC0F298
S2240026A0180801E00136B6B211222846B94938F0EBFE3B789A1DD2B2042A25D82179226884
S2240026C0090641EA12210C9AA068891A227B0029B8BF4942120642EA1022914211D2217AA8
S2240026E06268090641EA12210B9AE068891A227C0029B8BF4942120642EA10229142C0F04C
S2240027001F8111354545CDD10398038813F0080F63D14FF00002AAF8002086E79E4B984FF2
S2240027201A8801203B789D4938F0B0FF002323700C9B944C013363620B9B0133A36275E6F1
S224002740904C0C9A636A9A4218BF0B9B7FF479AE0B9BA16A8B427FF474AE66E7616A914234
S2240027608FD18849896A99428BD15EE708A9E7203AF0FCFB089911B942F2107108910C9A7C
S2240027800A9B9B1A002BB8BF5B428B42A8BF0B9B31DA0B9B0998C01A0028B8BF40428842AA
S2240027A029DA7D4B41F6FF741C803EE708207C4938F06CFF039A138813F0080F00F0DA80C2
S2240027C0704C0820626AA36A754938F05FFF0C9A0B9B002D7FF455AFC0E74FF2F103A5F58D
S2240027E0C015CFF2F003A3FB051308201A096D4938F04CFF8DE7DFF8A0A141F6FF71BAF83C
S224002800000088427FF433AF4FF00006AAF8006001252CE72A792968120642EA11220092D7
S2240028202A7A6968120642EA1122019201205E49324638F02BFFCDE622792368120642EA65
S2240028401322237A61681B0643EA112329792868090641EA10210091297A6868090641EA7B
S224002860102101910120514938F010FFB2E601204F4938F00BFF237A62681B0643EA122331
S2240028800693099A67E601204A495A4638F0FEFE6CE6012048495A4638F0F8FEBBF1000FB5
S2240028A07FF4BCAE3C4BA3F800B0BEE60120434938F0ECFE0C9A0B9BCBE5DB04DB0C013B03
S2240028C0344F03EB031303F5C0101122394638F0DBFD3B780633DBB2042B3FF6DAAE3B79D9
S2240028E03A681B0643EA12220C9BB968D21A3B7B002AB8BF52421B0643EA11239A42BFF4FF
S224002900C8AE3B7A7A681B0643EA12220B9BF968D21A3B7C002AB8BF52421B0643EA1123C2
S2240029209A42BFF4B6AE039C238813F0080F3FF47CAE194B08201A88214938F0A7FE74E61F
S224002940F604F60CFE2B18BFC3F1FE03AAF800601EBF46EA4336104B1E80039E338813F0E1
S224002960080F3FF462AEBAF800200820154938F08DFE5AE60C9A0B9B024C80E6442C00102D
S224002980C232001004020010AE2B0010542C0010C82B0010282C00104C2C0010786E0400C6
S2240029A01C6F0400486F0400B06E0400D06E0400F06E0400006F0400106F0400946E040006
S2240029C0286F0400386F04000020AAB002464FF416513EF065FE0020642136F01DF9DFF8F7
S2240029E0E02C00231380538042F6C63142F6DA32C1F20001C1F2000242F61C400B801380AF
S224002A00C1F20000DFF8BCBC42F6DC3142F6044242F6EC3C0370C1F20002C1F2000CC1F2F2
S224002A2000014FF03C000B601360CCF80030ABF82C003EF001F80FA904463AF0BDFF202025
S224002A40FDF776FE0A20FDF773FE48F20003C4F208031B6945F2FC1E0093C1F2000E012032
S224002A60DEF80030DFF8601C224638F00FFE0F9BB3F5FA6FC3F2D385DFF850AC61205146A8
S224002A8039F04CF903B21BB14FF00000AAF8000038F00AFD42F6E431C1F20001DFF82C4CE2
S224002AA008600246DFF8281C012038F0EFFD6420214639F033F9002843F0A485BAF800009B
S224002AC0DFF8084C002843F0898529F045F90446BAF8000029F060F92146024602203EF099
S224002AE0DFFD42F6E43CC1F2000CDCF8003042F66A4E59781A78DFF8D44B42EA0122997831
S224002B00DB7842EA014242EA0363B3F1FF3F0CBF04230023C1F2000E8EF800304720214620
S224002B2039F0FCF8002843F05080238842F6E43CC1F2000CDCF8001048780A7842EA002212
S224002B408878C97842EA004242EA01620120DFF8841B38F09BFDBAF80030002B43F0B58561
S224002B6042F61D40C1F2000000240470DFF8681B082039F0D3F820B142F6BC31C1F2000150
S224002B800C80DFF8581BDFF8580B29F07DFB0420DFF8501B39F0C2F830B142F6F8334FF0C3
S224002BA00002C1F200031A8042F6084C42F6664E42F6FB304FF00004C1F20000C1F2000C2E
S224002BC0C1F2000E0470ACF80040AEF800400720DFF8141B39F0A2F850B142F6244142F62B
S224002BE0FB32C1F200010223C1F200020C8013700620DFF8F81A39F091F868B142F64E4C5A
S224002C0042F6244E4FF00003C1F2000CC1F2000EACF80030AEF8003042F64E42C1F200021C
S224002C20B2F9003042F65041B3F5006F4FF0FF30C1F20001C8BFDFF8B43A0880C8BF002037
S224002C4042F66841C8BF1880C1F2000100230B8042F6754C42F6704E42F6FA3042F6C03193
S224002C60C1F2000CC1F2000EC1F20000C1F200018CF80030CEF8003003700B70BAF80030EE
S224002C80002B43F00585DFF8689A4FF47E71D9F8000038F083FDD9F800301868002843F0E7
S224002CA0CE84BAF8002012F0010F43F0C0849A695AB948F2F452C2F206021A63D9F80020A2
S224002CC049F64133C0F26B5353637F2027A939F025F8002802F06087DFF8180A0B900020AC
S224002CE02BF046FA44F20003C4F202039B6C42F6582C23F07F43C1F2000CCCF80030032012
S224002D0029F0CAF9BAF800300246002B43F05F8445200DF1A20139F001F8002842F0358729
S224002D209DF8A23042F60A41C1F200010B709DF8A2106FF00400ADF8A2102AF0C9FF4FF053
S224002D4080436FF055021A72AB321A7200202BF09DFA42F6FC3382B2C1F200031A8012B27F
S224002D60002A0CDD0120DFF8901938F08FFC42F6FC3CC1F2000CBCF90000FEF7E1FE4CF2F1
S224002D802003C2F209034FF48032DA6144F20003C4F202035A6C12F4007442F0EB86DFF86D
S224002DA05CE95A6C0120BEF90230DFF85419CDF824E038F06BFC4FF080456FF055074FF05F
S224002DC0550801342F720020642185F80880A4B235F022FF052C4FF08046F2D16FF05503C5
S224002DE03372AB3333724CF22003C2F209034FF480329A6144F20003C4F20203A2F5803258
S224002E005A64D9F8003093F84020FF2A03F0718712F0010F0CD102F07E0283F84020DFF8DC
S224002E20D0381A6892F8403043F0010382F8403001202BF09DF942F61241C1F200010B8844
S224002E4013F0400F43F04587DFF8B8C80122CDF820C08CF8002042F6124EC1F2000E40219F
S224002E60BEF8003008200091DFF89C1838F00EFCDFF898185C2038F051FF42F61240C1F239
S224002E800000038842F66E411B0AC1F200010B700BB1013B0B70DFF874484120214638F071
S224002EA03DFF002842F05386238813F0200F02F05186DFF85C380A93187042F6B63E002418
S224002EC0C1F2000EAEF800402146ABF800408BF82E408BF82F408BF8234069202AF0CEFDC5
S224002EE0DFF8303821461C606B202AF0C7FD49200DF19E0138F012FF03B21BB14FF0030040
S224002F00ADF89E005A20DFF8101838F007FF002802F00A86BDF89E0000F00700DFF8F847B8
S224002F2000212BF01BFE4620214638F0F7FE002842F0F3852388C3F3C1235B00591C6FF007
S224002F400500ADF89E302AF0C3FE4FF0FF3040F06DFB42F6FC33C1F20003C0F38F021A8018
S224002F60BAF8003013F0010F43F0AB8642F634234FF0FF32C1F2000342F6AC31DFF89C674F
S224002F8042F6202C42F62C2E1A804FF00000D9F80030C1F20001C1F2000CC1F2000E088080
S224002FA03080ACF80020AEF8002093F84E2093F84C3001200093DFF86817002338F066FB1C
S224002FC042F6AC30C1F200000388DFF85857DFF85887DFF85877D9F8002002EB030C9CF837
S224002FE04C10002900F00C8140F2AB30834200F207814C32D4186078FA2818D1D35C13F0FF
S224003000030F40F0EE809B086FF0060242F6AC3C42F64C2E23706270C1F2000CC1F2000E3A
S224003020BCF80030DEF80020D21892F84C10A27801200091DFF8F81638F028FBA378322B6D
S2240030400FD03C2B5BD0142B1BD042F6AC302278C1F200000388013203EB82039BB203806E
S224003060B9E742F62020C1F20000B0F90030B3F1FF3F02F0F58442F6AC31C1F200010B88FE
S224003080A9E742F63420C1F20000B0F90030B3F1FF3FF0D142F6AC3CC1F2000C3388BCF892
S2240030A0002043F00103082A9BB208BF42F66C4E338002BFC1F2000E43F00203AEF8003039
S2240030C03A802C60227842F6AC303E2A08BF3388C1F2000002BF43F0040333802278038887
S2240030E0013203EB8203B3F56B7F03F2C68342F6AC3E9BB2C1F2000EAEF800306BE742F6C5
S2240031002C2CC1F2000CBCF90020B2F1FF3F1EBF42F6AC3EC1F2000EBEF800307FF45BAFBA
S22400312042F63420C1F20000B0F90020B2F1FF3F02F0898442F63021221DC1F200010A60BC
S2240031406268D9F800C00F92B7F900200CF14C0C0CEB020102F108001CF802206044013247
S2240031609200049343F0B4FA398842F62C22C1F20002118001F108023A802A68D9F800009A
S22400318008322A60049B4C3009B2421893700123D37043540F9B42F62C2C5360C1F2000C89
S2240031A0BCF80030D9F800201BB24C32D1183C20887042F6302C0120C870C1F2000C0431CC
S2240031C0D05442F6AC3ECCF80010D25CC1F2000EBEF80030121803EB82039BB2AEF800303B
S2240031E0F9E600238CF84C30A378DFF848152278012038F04BFA42F6AC31C1F200010B88F5
S22400320001201A46DFF830154FF46B7338F03EFABAF8003013F0010F43F0038142F6202E59
S224003220C1F2000EDFF814150120BEF90030322238F02CFA42F62020C1F20000B0F900301A
S224003240B3F1FF3F1EBF42F6AC31C1F200010B8803F0E18242F62C2CC1F2000CBCF90020D4
S224003260B2F1FF3F03F0A48242F6302CC1F2000CDCF80010012009680091DFF8C41438F01E
S22400328005FADFF8C0240023138042F61240DFF8B824C1F200001380CBF82830CBF8243004
S2240032A0B0F9003042F6444E0222C1F2000E002B42F61241DFF894348EF80020C1F20001D2
S2240032C0A8BF01221A700B884FF4004100910120DFF87C1438F0DAF942F6BC3C4FF0040334
S2240032E0C1F2000CABF83230ABF83430BCF800304FF02102ABF83020002B43F02882BAF80B
S2240033000040002C43F003822046642135F084FCADF89C40BDF89C20002342F63C414FF0EB
S2240033200000C1F2000121F813002AA800EB43034FF0000123F8441C531C9BB2032B1A46A0
S224003340EBD942F6004C42F6E03E4FF0FF33C1F2000CC1F2000E4FF007028CF800308EF857
S2240033600030442028A9ADF89C2038F0D7FC002802F062834FF4616342F67440ADF8A03020
S224003380C1F20000002303700120FDF72BFD43F25411C1F2000191F85620002A35D091F89D
S2240033A05800002831D00B4691F8591069B3632893BFD9F80030D9F80030A0F1640CD3F87D
S2240033C028C08BBF586A2CFA00F020FA0CF000F0010088BF00F00100632903F2E0819B6AB8
S2240033E0CB4003F001035B00DBB2034301339A420BD0012A03F0CA81032A06D143F2541E99
S2240034000923C1F2000E8EF8573042F63420C1F20000008842F63621C1F2000108800721F3
S224003420042035F09FFC042040F000F9C9490246012038F02BF909201D21002235F0E8FCFD
S22400344014210A461723C44835F062FC05238BF8543048200DF19E0138F060FC002802F047
S224003460E28240F28E3345200DF1A201ADF89E3038F054FC002842F0D2829DF8A23019468B
S2240034806FF00400ADF8A2302AF022FCBAF8003013F0010F44F0808142F618410023C1F284
S2240034A000010B6042F6104242F6464C42F6E83E42F6484042F60C41C1F20002C1F2000C30
S2240034C0C1F2000EC1F20000C1F200011380ACF80030AEF8003003800B80FDF71BFE21AC9A
S2240034E022AD9E4835F0E8FC172800F0ED811D28F7D1092023A935F09DFBBAF8003013F0C8
S224003500010F40F0C684239E002E01F0918616F0007708BFB84640F0EC84304641462AF02C
S2240035206DF8BAF8003086B213F0010F08BFB6B20DD0239B8A4A13F0007F8A4BB6B218BFC0
S2240035401346894906F0FF02012038F09FF806F00F03012B00F22884DDF88CE005222EF00C
S2240035604F4306F0010620A81BA9CDF818E00D96209339F079FC052840F003849DF86D3064
S224003580002B40F0FE838DF8A63098469DF870300D995A1E0E918DF87020002B7BD0022270
S2240035A020A826A939F060FC0228844640F0E9839DF89830122B00F0808700F2D7800C2B49
S2240035C000F2C9830B2BC0F0268400203221CDF814C035F021FB9DF89920002120A839F06B
S2240035E043FC032009212AF0CFF8DDF814C0229000283FF476AF0023037043708370C3700F
S224003600229B06221A71229B04225A71229E0B2326A96246B01D8DF898308DF899C043F0F7
S2240036204BF806F1080360201DA9049338F076FB049B002801F0E580032210461146ADF836
S224003640741002218DF8A61030725A709DF86C301A0942EA0313D8B28DF8A500002F01F0AD
S224003660CA81384639F042FC06469DF8A500229B9DF8A6200093069B002101934FF0FF331D
S22400368002962AF08FF8B0469DF870305A1E8DF87020002B83D1BBF800304BB142F6B63CAC
S2240036A0C1F2000CBCF8003043F00403ACF800302098002800F07D8337F004FF79E300BF3F
S2240036C0A42B001004020010586F0400AE2B0010706F040030B60400BC2B0010386B0400D1
S2240036E0202C0010F82B0010242C00104E2C00104C2A0010F0010010207004000000082009
S22400370030700400142C001068700400122C0010012C0010A82B0010FE2B00106C2C001085
S22400372084700400282A0010242A0010342A0010BC70040094700400E07004000471040059
S22400374030710400F02B00104C2C0010C232001044710400747104003C020010486B040061
S2240037603874040034740400407404001A2B00F21083192BC0F097809DF89960012E41F26B
S2240037800D84012B04BF0022ADF896200AD0022220A80DF1960139F067FB022840F0F18274
S2240037A09DF89960022E01F035809DF89830012B03D0023E8DF89960F6B2BDF896301AB297
S2240037C0111E18BF01217F2ACCBF002101F001011846002901F09D80022E0BD0002120A8EB
S2240037E0324639F041FB9DF89930984240F0C982BDF89630D8B225A938F090FA022206463F
S2240038001DA920A839F030FB022840F0BA82BDF996307E2B44DCBDF8943007939DF8983076
S224003820192B03F064801A2B03F05880022B04BFBDF87420ADF89420BDF89620B6B26F2A5A
S2240038400C9602F007860C9B002B42F0DA810798BDF89410884208BF034607D0D0B209B2FD
S22400386039F04AFCBDF89430BDF89620012012B2DFF8C41C37F00AFFBDF99630452B03F045
S2240038802884462B03F00984472B02BFBDF894204646AAF800203FF4F6AE682B03F0338488
S2240038A04646B046F0E6142B00F08882C0F00F85182B00F0C9849DF8992020A800214646EB
S2240038C039F0D2FAB046DFE642F6D84E0023C1F2000E8BF82330BEF90030B3F5967F00F384
S2240038E0D58242F6DC30C1F200000368002B40F0CA8208990B78FF2B2DD055201DA938F0B5
S2240039000DFA002840F0FD85BDF87400089A1378834217D046F63833C0F2040303EBC001B0
S2240039200B469A69012049693DF0A6F8DFF80C3C08201A78DFF8081CBDF8743037F0A6FE98
S224003940BDF87400089BC2B21A70BAF8003013F4807F40F0DE859BF85430013BDBB28BF8BA
S2240039605430002B7FF4BDADDFF8D83B052283F85420BAF8003013F0080F40F0BC8542F611
S224003980184CC1F2000CDCF800300133CCF80030BDF89C30002B50D04FF080436FF055024F
S2240039A01A7242F6122EAB321A72C1F2000E9EF80030012B1AD942F6BC30C1F2000002888E
S2240039C0A2B142F61D46C1F200063278092A0DD8013BDFF8742BFA20192129F027FB33788D
S2240039E0012201333370DFF8643B1A70BAF8003013F0080F41F0AA81BDF89C60013EB6B218
S224003A00ADF89C60CEB94FF00701ADF89C104FF06508374642F63C4C19AAC1F2000C935B88
S224003A203CF80620934201F04E8119AB01379A530236042F08F10108ECD1BBF800301BB1D0
S224003A40DFF8002B013B138042F60846C1F20006B6F90030012B00F32482002BC1F27680D9
S224003A6042F6754CC1F2000C9CF8003073B342F6FA3EC1F2000E9EF80030082B02F01A83E6
S224003A8042F6C030C1F200000378013BDBB20370E3B942F6C431C1F200010B8801339BB2FE
S224003AA00B801BB2052B02F3E682012B06DD42F66842C1F2000213880F3B1380BAF800301C
S224003AC013F0010F43F02981FDF7F4FE002028F08FFB0646032028F0DFFABAF800300746BA
S224003AE013F0080F40F01781002E00F01D81032035F040FB01230821D6200DF1A7023FF087
S224003B00EDFA032035F0B6FBD9F8003093F94030002BC0F2718243F2C42EC1F2000EBEF954
S224003B200030002BC0F2378242F6E8314FF00000C1F2000108800C2029F0F2F883B2002B5F
S224003B4000F004819DF8A72012F0040F08D142F6104CC1F2000CBCF800300133ACF8003062
S224003B60BAF8003013F0080F40F0D9840C2029F0D7F883B2002B00F08E8240F252339F42AB
S224003B8040F2B0849DF8A78018F0040840F0AA8442F64640C1F200000288531C12B29BB211
S224003BA0B2F5617F038081F22E860A2B03F07D8140F21808C1F2000898F8003013F0400F8A
S224003BC000F0768540F252339F4240F2C383052035F0D0FAD9F8003005209A6801329A607C
S224003BE035F048FBBDF8A03093B9BDF89E30BB429CBF0421ABF832100AD9BBF832203AB1CF
S224003C00013ADFF8401992B24A86002A02F0B5846C2029F085F883B2002B00F07D83052034
S224003C2035F0A8FAD9F8003093F8402022F07F0283F84020D9F8003093F8402042F07E02C0
S224003C4083F84020D9F800309E87052035F012FB672029F065F886B2002E00F0A1844FF050
S224003C603C02ABF82C20DDF828C09CF80030002B40F0F484BBF8303003F00302032A00F096
S224003C80BA8403F01F021F2A3AD0B3B1013B9BB2ABF8303023B9DFF8AC384FF4347018866E
S224003CA043F25416C1F2000696F85630012B04D996F85730002B00F05D87052035F05AFAD8
S224003CC042F60A4E43F2C420C1F2000EC1F2000003889EF8002042F66E41C1F200015A404C
S224003CE00B7852FA03F313F0010F04D0D9F80030DA6A0132DA62052035F0BCFAFFF7F1BBBD
S224003D00BAF8003013F0080F42F05482FEF762F9BBF83030B9E70820DFF834183A4637F0A5
S224003D20B5FC002E7FF4E3AE052035F023FAD9F80030012283F84020052035F09BFA42F61E
S224003D400C4CC1F2000CACF80060D0E60C20012129F0BEFFF6E60E2B00F02983C0F0A282E4
S224003D600F2B7FF4A8AD9DF899200E2A00F03487002120A839F078F89DF8993098423FF41E
S224003D808FAD209837F09EFB384637F09BFBFFF7A8BBC92B19D000F2A081202B7FF48BADF0
S224003DA001238BF82F3086E5239820F04F4037F089FB384637F086FBFFF793BB9DF89920D0
S224003DC00120DFF8901737F061FC01209DF89920DFF8841737F05AFC9DF899204FF00000D0
S224003DE0022AADF8960000F0C3870120DFF86C1737F04CFC9BF8233013B19DF89920B7E79D
S224003E00069A9DF86C0002F04F413A46FDF70CFD9DF89920ACE7022B3FF4AEAC032B76D0EE
S224003E20012B7FF448AD0E9800283FF444AD9DF89960002E7FF4A2ACBAF80030D3B907B352
S224003E40384639F053F8064600209DF86C80FDF7F1FA4FEA1818069908F110080090019164
S224003E604046042101224FF0FF330296B04629F099FC09E40120DFF8E81637F007FC002F86
S224003E80DED14646E0E7FDF7C3FB32E504F03EFF27E50120DFF8CC16239A37F0F7FBFFF76F
S224003EA032BB00202BF02EFA10F4004F7FF4D8ADDFF8B416012037F0E9FB0220FDF7BAFACB
S224003EC042F6704CC1F2000C0746DCF8000039F00DF84FF080730193029004211820012203
S224003EE04FF0FF33009729F05DFC4FF001003080B6E526F04F48404623A927F0B3FF239B32
S224003F0006F04F461E4347462396FFF706BB0D99002942F042819DF89920012A42F2D880EA
S224003F20032A00F09F85022220A80DF1960138F09BFF02287FF425AFBDF99630FF2B00F0F1
S224003F405D857F2B3FF4ACAC682B06D144F66C7E0023C1F2000E8EF8003000269DF89600CC
S224003F602146219639F018F8BDF99630D22B7FF497AC43F25410C1F2000090F85630002B31
S224003F803FF48EAC80F856600223464680F85730B046FFF779BB42F60C40C1F200000288F0
S224003FA0BAF80030013292B213F0010F028008D012B20120DFF8B41537F068FBDFF8B0356B
S224003FC01A8812B2B2F5616F16DD052035F0D2F8D9F80020052092F840306FEA43636FEA90
S224003FE0536382F8403035F045F9FA202721DFF85825052329F01AF843F2C421C1F20001E2
S2240040000B8840F64572DB0B96428CBF002303F00103002B3FF488ADB6F57A7F7FF684AD1B
S2240040209DF8A72012F0300F7FF47EAD42F6E832C1F2000213882BB942F6484CC1F2000C2F
S224004040ACF80060013342F6E83E9BB2C1F2000EAEF800301BB2B3F5E16FC0F21B8542F692
S2240040604840C1F20000B0F9002006F132019142C0F209855A2B7FF465AD0C20012129F089
S22400408027FEDFF8C424FA2027210B2328F0CEFF9DF8A72058E542F6464CC1F2000CBCF8EC
S2240040A0003001339BB2282BACF800307FF480AD0C20012129F00CFE9DF8A720012002F0A3
S2240040C00402DFF8B01437F0E1FAFA202721DFF87824012328F0AAFF6AE5FD2B76D0FE2B98
S2240040E07FF4E9AB9DF89960002E00F0828320A80DF1A601012238F0B7FE9DF89930013BFC
S2240041008DF899309DF86C301A0942EA03138DF8A530BAF80030002B40F01F869DF8A660DF
S224004120112E01F0758300F20083062E03F0808000F2FD87022E02F0F48700F23D87002EBF
S22400414041F04E846FF0010107238DF898108DF89930043123462A4626A82196229637F0DF
S22400416087FC2946224630468DF8A66037F03CFC42F60042C1F2000210782946224637F0CB
S22400418033FC02212A462346FB4837F071FC42F6E033C1F2000318782946224637F024FC69
S2240041A08DF8A66044F6505CC1F2000C1CF806002946224637F018FC9DF8A6600136F6B224
S2240041C0012E8DF8A660EDD901F0FBBB9DF89930032B7FF465AB01220DF1A50120A8CDF850
S2240041E014C038F041FEDDF814C020A862460DF1960138F039FE9DF89930033B8DF8993088
S224004200BDF896301AB2002ABFBF03F500639BB21AB2ADF89630B2F5006FC4BFA3F5006337
S224004220ADF896309DF8A530042B3FF639AB01A252F823F06D6B0000676B0000656A0000E3
S224004240A1380000A16900009DF8992020A8002138F00AFE0E9A002A3FF422AB1FB13846EF
S22400426038F044FE80469DF86C602BF0DFF93609069B10360090019330464FF0FF3304215F
S2240042800122CDF8088029F08DFABAF80030002B3FF406AB0120B949464637F0F7F9B0465C
S2240042A0FFF7F2B99DF89960002E00F00886042E01F01486002120A8324638F0D5FD9DF871
S2240042C0993098427FF45DAD4646FFF7EABA9DF899204FF00000042AADF8960098BF9BF8B3
S2240042E02E3005D99BF82E3013F0010F01F08D840120A34937F0CAF99BF82330002B7FF4FC
S2240043007CAD069B3A469DF86C0003F04F41FDF78BFA9DF899202BE5052034F02BFFD9F8AF
S2240043200020984B968740F20402C1F200029189B14280F0E6811A6892F8401021F07F019A
S22400434082F840101B6893F8402042F0650283F840207AE4052034F00DFFD9F800300520D3
S224004360DA680132DA6034F085FFBDF8A030002B3FF44EAC9E4224BF0422ABF83420BFF471
S22400438047ACBBF83420002A3FF442AC013A6D4992B28A86002A7FF43BAC01207A493246AE
S2240043A037F074F90A20062129F0A0F830E44F2025A937F0B3FC18B14FF03C00ADF89400BE
S2240043C09DF89920082A7FF4D3ACBDF8943013F4806F7FF4CDACBAF8003013F0010F43F0E3
S2240043E0FB81042220A81FA938F03EFD042806467FF4C7AC3CF020FB1F9BC31AB3F5967F2A
S22400440081F00B8520A81FA9324638F02DFD04287FF4B7AC1F983CF015FB40F21801C1F249
S22400442000010B78032043F040030B700B2129F0ABF9229000283FF454A8002101704170AA
S2240044408170C170229B06221A71229B02225A71229B0D209A1D987151709DF86C300291EA
S2240044601A0942EA0313D8B2229B012200934FF0807301934FF0FF338DF8A50029F092F9D0
S2240044801F9A43F6802302F57C3202F59062C0F20903B2FBF3F319B2092038F02DFEBAF8AA
S2240044A0003013F0010F3FF4FBA901203749464637F0ECF8B046FFF7E7B89DF899204FF08D
S2240044C00003012AADF8963000F00C830120304937F0DCF89BF82330002B3FF412AF9DF890
S2240044E0992045E442F646424FF00001C1F200021180FFF75DBB0820264937F0C7F8FFF70E
S2240045003EBA0120052117F053FAADF87400FFF7FDB90820204937F0B9F8FFF71CBA42F6D1
S224004520104EC1F2000EBEF9003001201B4937F0ADF8FFF71BBB00BF08760400142C0010C2
S2240045408077040004020010488C0400122A001014700400E0760400F47604006C770400EA
S224004560E875040098710400D0770400147804000C2C00104C780400D6340010D07504007A
S224004580C87604004C2A0010B878040068760400947604009C770400907704002878040064
S2240045A00120DFF8381C37F071F842F6BC3CC1F2000CBCF8003023B1BBF82C303C2B01F00C
S2240045C0E88742F6124EC1F2000EBEF8003013F4807F0AD0D9F8003093F94030002BA4BFBD
S2240045E00020ABF82C00C1F2C8830B20032128F07DFFFFF738BB42F64442C1F200021378FF
S224004600022B01D0FDF7FCFEBAF8003013F0080F41F0BA844FF0FF303FF008F842F6FC333A
S224004620C1F200031A88C0F38F0C0FFA8CF011B2C1EB000E0EF1030EBEF1060F9CBFA3F803
S22400464000C0BBF830307FF61CAB884241F3BF8304321A80BBF83030FFF713BB04F050FA21
S22400466010F4805F00F06C8442F21003C0F2000300EA0303002B00F06F8400F00C03042B4A
S22400468014BF052306230A9802789A423FF4F2AADFF84C2B46F63831C0F20401137001EB11
S2240046A0C302516D0020926D3CF0E6F9FFF7E2BA42F6184EC1F2000E0820DFF8281BDEF83F
S2240046C0002036F0E3FF42F61840C1F2000003680A2B7FF677AA3CF0AFF946F24073C4F6BB
S2240046E0A33398427FF76EAA98F80030082043F0400388F80030DFF8F01A36F0C7FFFFF7A6
S22400470061BAD189B14280F053821A6892F8401021F07F0182F840101B6893F8402042F090
S224004720510283F84020FFF790BA1E2E02F0988701F2EA80162E03F0038001F28D80142E50
S22400474001F06B80152E7FF4ABA819236FF001004FF0000C8DF898008DF899300221234691
S2240047602A4626A8CDF884C0CDF888C0CDF814C037F07EF92946224630468DF8996037F0B7
S22400478033F944F2080004212A462346C4F2040037F06EF944F20C0004212A462346C4F26E
S2240047A0040037F065F944F21C0004212A462346C4F2040037F05CF948F2080004212A460E
S2240047C02346C4F2040037F053F948F20C0004212A462346C4F2040037F04AF948F21C0080
S2240047E004212A462346C4F2040037F041F900F0DBBC002120A832468DF8A61038F034FB21
S22400480080E4BDF8742002F00701C8B2C2F30222FEF715BFBDF89630A3F1800292B25F2A72
S22400482040F2AA8303200A2128F0AEFF229000283EF457AE00232190037043708370C370D0
S224004840229A06211171229A5371BDF896301AB27F2A43F36881DF2A03F356814FF0000C3E
S224004860CDF81CC022980023219300283FF418A836F092FC9DF86C308DF8A6001A0942EA87
S2240048800313032002218DF8A53028F07DFF219000283EF426AE9DF88830062203709DF86D
S2240048A08930022143709DF88A3083709DF88B30C370219B22931A71229B04225A71229A39
S2240048C09171931D9DF8A62052185A70079818B14FF0FF01ADF89610981C0DF19601022233
S2240048E041F0EAFE002F00F0E882384638F0FEFA0646229B069A9DF8A50000930192002149
S22400490001224FF0FF330296B04628F04BFFFEF7BBBEDF2A47DD042E08D020A8324638F001
S224004920A3FA9DF8993098427FF42BAA042220A81EA938F099FA04287FF423AABDF89630FE
S224004940FF2B0CD142F66A4EC1F2000E9EF80020032A04D99DF89820022A02F0C282D8B2A1
S2240049601FA938F003FB9DF898301F9A192B02F0B2821A2B02BF1E9B22EA03031F9304D06D
S224004980022B04BF1E991F9100D01F9980B210B98A423EF485AF9DF89600464638F08AFBA2
S2240049A0B046FEF771BE229121918DF8A61096B901F0FEBA2A469DF8A500214637F014F8FC
S2240049C09DF8A6309DF899200133DBB29A428DF8A63041F2EA82012220A80DF1A50138F0CB
S2240049E043FA0128E6D0219836F06CFD209836F069FDFFF7DEB94646FEF739BE9DF89920B7
S224004A00022A08D0002120A838F02EFA9DF8993098427FF4B6A9022220A80DF1960138F0A1
S224004A2023FA02287FF4ADA9BDF9962045F2AA539A427EF435AFBAF8003013F0010F04D0C6
S224004A400120DFF8A81736F021FE44F66C7C0023C1F2000C8CF80030464637F0DFF9B0461C
S224004A60FEF712BE4FF00002ADF8962020A80DF19601012238F0F8F99DF89930013B8DF818
S224004A809930FFF759BA0C20FCF7F2FBDFF86037B3F900303C2B7FF4EDAA032034F06AFBCC
S224004AA008210DF1A7020123D6203EF017FB032034F0E0FB9DF8A72002F03003D3F101015E
S224004AC038BF0021302B14BF0B4641F00103002B41F0688542F6E83CC1F2000CACF80030CD
S224004AE0FFF732B89BF82E6016F001067FF4EEAC20A80DF1A501ADF896208DF8A53038F04D
S224004B00B3F99DF8A520012818BFADF89660BA2A1CBF0022ADF896207FF4D8ACBDF8963041
S224004B2018B2012802F04686002B3FF4CFACBAF8003013F0010F3EF4B3AE0120DFF8B4169C
S224004B40464636F0A3FDB046FEF79EBD42F66641C1F200010B8801339BB20B801BB2962BF8
S224004B607EF77EAF4FF00002328066202CF056FFFEF776BF3BF060FFF368984281F0458184
S224004B80B368984241F2298196F85630022B01F22481092386F85730032386F8563042F6D2
S224004BA0744C0023C1F2000C8CF80030FFF785B8118AB14281F0F7801A6892F8401021F084
S224004BC07F0182F840101B6893F8402042F03D0283F84020FFF739B80320072128F0D4FDB1
S224004BE0229000283EF47DAC0026067046708670C670229B4FF006021A71229B0E225A71B6
S224004C00229920A8063138F02FF90E287FF4B9A83046012136F0A6FC2190002802F0988137
S224004C20229BC0F3072218705A70C0F30742000E9A70D870229836F0AFFA9DF86C308DF8E9
S224004C40A6001A0942EA0313032008218DF8A53028F09AFD219000283EF443AC9DF88830A8
S224004C60022203709DF8893043709DF88A3083709DF88B30C370219B4FF006002293187193
S224004C80229B5A71229B0E329A719DF8A620DA7101228DF8A620002F01F0CA80384638F05B
S224004CA025F99DF8A6200646229B0699009301919DF8A50000214FF0FF330296B04628F037
S224004CC071FDFEF7E1BC4FF000004146ADF89C00DFF8240504933BF077FC012033F0FEFF52
S224004CE00020322133F098FF42F63C4CC1F2000C3CF80610049BBDF89C2000910193012063
S224004D003B46DFF8F81436F0C1FC0020322133F083FF42F6BC3EC1F2000EBEF8003033B172
S224004D20FA200321DFF8D824434628F07FF939B2012901F0E5850921012028F0D7FB42F667
S224004D403C41C1F200018A5BFEF76FBE0820DFF8B41436F09BFCFEF74FBE9DF8A6209DF8A0
S224004D6099300120DFF8A01436F090FCFFF7D6B925A920A838F078F8022806BF0121ADF89E
S224004D809610BDF99630BDF8942008BF0123DFF87C14012036F07AFCBDF99660012E18BFC2
S224004DA09DF899207FF421A81421002033F034FF36F030FADBF85810030A43EA00239BB284
S224004DC00091BDF894203046DFF84414ADF8923036F05CFC9DF89830C92B01F02C8042F624
S224004DE0B63CC1F2000CBCF8003043F00403ACF80030BDF894302BB9BDF8923001339BB2B6
S224004E00ADF89430BDF892209A427EF449AD0020782133F001FF9BF82F200120FD4936F02E
S224004E2035FC9BF82F3053B9FB4B012083F82E00FA4936F02BFC0420022128F057FB4FF0AE
S224004E4000004646ABF80000B046FEF71DBCFA2E05D0FE2E02F08586CD2E7EF421AD42F6C1
S224004E606A4CC1F2000C9CF800302BB9FA2E0CBF052600268CF8006000236FF00100022142
S224004E80219322938DF898002A46234626A88DF8991036F0EDFD294622469DF8A60036F06A
S224004EA0A3FD42F66A41C1F2000108782246294636F09AFD002F7FF418AD464619E531463A
S224004EC00920CDF814C038F017F9229621963BF0B3FD04212A4623461E901EA836F0C8FD2C
S224004EE0229836F059F909238DF8A600042103208DF8A53028F048FCDDF814C021900028A4
S224004F003EF4EFAA9DF88830062203709DF8893043709DF88A3083709DF88B30C370219B57
S224004F2022931A71229B073283F805C0229B9A719DF8A620DA71002F7FF4D7AC4646D8E41B
S224004F4042F6004EC1F2000E9EF8003013F0020F0AD00723FFF797BB00F00C03042B0CBFE6
S224004F6004230323FFF78FBB00F00C03042B14BF01230223FFF787BBD8B236F0C1FE2290FC
S224004F8000287FF46BAC219023460DF1960031462A4636F06DFD0123079363E40021324697
S224004FA020A837F061FF9DF89960B0427EF4E9AE9DF89830FEF7E5BB042E02F0718441F2D6
S224004FC0BD8444F29C12C1F20002136A4FF00000ADF874003BB1BDF874201B680132ADF88D
S224004FE07420002BF7D146F6CC22C0F20402127821932293033303FB02F36FF001010A3389
S2240050008DF8981007928DF89930043123462A4626A836F02DFD0520294622468DF8990031
S22400502036F0E2FC4FF00103ADF89630012325E046F6D02CC0F2040C1CF8030029462246A8
S22400504036F0D2FCBDF9963046F64C20C0F2040000EB0312966850683146FBF79DFE301A79
S224005060ADF89400234625A802212A4636F000FDBDF8963001339BB2ADF8963007991BB232
S2240050808B42D5DD29462246C82036F0ADFC644B47F6DC72C1F20002D61A31461846FBF758
S2240050A07BFE301A2346ADF8940002212A4625A836F0DEFC22462946C92036F095FC47F672
S2240050C0F04047F6F021C1F20000C1F20001461A31465448FBF760FE301A2346ADF8940037
S2240050E002212A4625A836F0C3FC29462246CA2036F07AFC2A46022123461DA836F0B8FC6E
S224005100229B384604939DF8A56037F0EFFE049B069A0093019202900021304601224FF01A
S224005120FF33464628F03EFBB046FEF7ADBA0A2E01F0E48500F2D787082E01F04F80092EFA
S2240051407EF4AEAB384841F019FB384902464FF4806036F09BFA6FF001004FF0000C8DF8E3
S22400516098003148CDF884C0CDF888C0CDF814C041F004FB431C8DF89930022123462A4691
S22400518026A836F075FC2946224630468DF8996036F02AFC244841F0F1FA411C89B2224804
S2240051A02A46234636F064FC9DF8A5303846229E049337F09BFE069900960191049BDDF851
S2240051C014C002906146184601224FF0FF33464628F0E8FAB046FEF757BA00BFC878040046
S2240051E0012C00105C7804008078040048760400E82B0010A8760400AC770400B47704003C
S224005200488C0400A47704009874040008770400207704003C770400040200104C770400D0
S224005220F47C0010F07A00108C2D0010247504009BF82F30002B42F08E840A9A1378002B4E
S22400524042F02683012000214FF4FA723BF014FCBAF80030002B42F0148300230320239370
S22400526026F01AFFBAF80030074613F0080F42F0008344F2000343F2C42CC4F20203C1F230
S224005280000C9A6CBCF8001002F07F4201F0070141EA0202DFF8C8699A640A254FF0804420
S2240052A06FF055084FF0550B00200A2133F0B4FC239BB3FBF5F205FB12321AB984F8088002
S2240052C084F808B00133B3F5167F239302F2B5823378002BE8D0012003F062FB35F082FF9E
S2240052E044F200030690C4F202035A6CDFF874190646012036F0CAF900216FF0060028F001
S224005300E7FCBAF8008018F0010842F08A82012501216FF0010028F0B1FBA6F10A0342F6DC
S224005320C231DBB24FF00000C1F20001012B088042F25982DFF830494620214636F0EEFC05
S2240053400146002800F027864FF0000222806820012128F093FB42F6FE33C1F20003197859
S2240053606FF0030028F08AFB4FF080436FF055021A72AB321A72BAF8003013F0010F41F056
S224005380D0852B46DFF8E4B84546984642F6FE3CC1F2000CBCF8003013F4005402F0688517
S2240053A0C3F3C123590001316FF0050028F090FC6A20012128F062FBBAF8003013F0010FA5
S2240053C002BF4346A8461D4642F0428535F00AFF0F280446069084BF40B2079017D861B221
S2240053E0012616FA01F248F2A013C0F2000302EA030307915BB16B20314628F03FFBBAF840
S224005400003023B13046DFF8681836F03FF9DFF864684A20314636F081FC002800F00B8688
S2240054204FF0000232800022BAF80030002B41F06B8426466D20002128F020FB4FF08043D6
S2240054406FF055021A72AB3200201A728DF8A70026F0CEFE0F2C089040F2FE8540F252332F
S22400546000930120DFF81018089A3B4636F00EF90899B1F5616F12D840F252339F4298BF34
S2240054809DF8A73002D901238DF8A73000930120DFF8E8173A4640F2523336F0F7F80D203D
S2240054A0002128F0EBFA40F20402C1F20002137843B19DF8A730002B02F09A840D20012167
S2240054C028F006FC4FF080436FF055021A72AB321A7201203346DFF8A817424636F0D6F854
S2240054E0BAF8003013F0010F42F04E8444F20003C4F202035A6C0120DFF8681736F0C6F899
S224005500069A42F658210023C1F20001102A0B6040F22581BAF8003013F0010F05D00120F6
S224005520DFF86017324636F0B1F842F6FE3CC1F2000CBCF8003013F4005F42F0F084BAF8FE
S224005540003083B144F20003C4F202036FF003009C6C27F0E5FB24F07F4203B2DFF82817ED
S224005560012036F093F844F2000342F6FE30C4F20203C1F200009C6C03886FF003001C40F6
S22400558027F0CEFB42F6FE31C1F200010B8800EA03035C4042F09483032026F07DFDBAF83E
S2240055A0003040F25238474594BF00240124404594BF0027012733B10120DFF8D016224681
S2240055C03B4636F063F8BC421EBF42F65821C1F200010B6842F6C23218BF43F00103C1F224
S2240055E0000218BF0B60138813F0030F42F02683032026F051FD40F25233984294BF002745
S2240056000127BAF80030002B42F01083A74208D03FB142F65820C1F20000036843F00103D5
S2240056200360002001464FF4FA7244F200043BF023FAC4F202040220002128F049FB636C40
S22400564013F0010040F0848043F2C421C1F200010A88A36C02F0070203F07F4342EA0303BC
S224005660A364962133F0D8FA012028F00FFE002802F02E84BAF8003013F0010F07D0A26C86
S224005680012022F07F42DFF8081635F0FFFF00200A2133F0C1FABAF8003013F0010F42F0A9
S2240056A0FE83002001463DF0A3FBBAF8003013F0010F42F0788044F20003C4F202035B6C58
S2240056C013F0010F03D1069A0B2A02F0F083DFF8C435DDF824C01B8842F6E43EC1F2000E5D
S2240056E0ACF80030DEF800304FF0000059781A7842EA01229978DB7842EA014242EA036375
S224005700ACF80400ACF80200CCF80C3061200DF1A20136F003FBB0B14FF00001ADF8A210F8
S224005720002026F019FB099A03469060DFF868150120B2F9002035F0A9FF36F0C5FC00202A
S22400574033F004FBFEE7BDF8A200C0F34310E8E7626C0120DFF8441535F098FF9BE752B2B0
S224005760012010FA02F242F21203C0F2010302EA0303C3B1BAF8003013F0010F04D0DFF800
S2240057802015324635F082FF44F20003C4F202035A6C40F2523442F001025A64A74294BF10
S2240057A00024012424E712F4006F17D0BAF8003013F0010F04D0DFF8EC14324635F066FF92
S2240057C0672027F0ADFA83B2002B42F0F38240F25234A74294BF0024012409E712F4806F56
S2240057E03FF498AEBAF8003013F0010FEFD0DFF8B814324640F2523435F048FFA74294BFFC
S22400580000240124F4E60220FBF732FDFEF7D0B99DF8A5003946FBF78DFF42F6BC32C1F28F
S22400582000021388002B3EF43BA842F62043C1F20003196842F64E4CA1F50811C1F38F11DF
S224005840C1F2000CACF80010062009B2464637F053FCB046FDF718BF1B2EFEF421A81C2EDE
S22400586004D814BF00200120FBF7DEFC032033F081FC4FF480710FAA0B23D6203DF02EFC3C
S224005880032033F0F7FC6FF001020D2300268DF898208DF89930022123462A4626A8219606
S2240058A0229636F0E5F89DF8A600294622468DF8990036F099F80B212A4623460FA836F05F
S2240058C0D7F8D9F80030294693F8400022468DF8990036F089F8229B9DF8A5203846049360
S2240058E0059237F003FB049B0093069B0193059A0290314610464FF0FF330122464627F04B
S22400590051FFB046FDF7C0BEC82E01F020823FF69EAA642E00F041857F2E7DF4C1AF9DF859
S2240059209920022A08D0002120A837F09DFA9DF8993098427EF425AA022220A80DF1960104
S22400594037F092FA02287EF41CAABDF9960040F07BF93FF039FDC0A30CCB3FF0B5FE40F28A
S2240059600002C3F6F07200233FF0D0FB40F062F80B9ABDF896101060002900F003859DF8B8
S224005980A60009B237F0B8FB0023219322936FF001038DF8983005338DF899300221234679
S2240059A02A4626A836F064F8294622469DF8A60036F01AF80DF1960002212A46234636F022
S2240059C057F8002F00F0E684384637F08FFA0646229B06999DF8A50000930191FEF78FBF72
S2240059E0012E7DF45DAF9DF89930002B3DF458AF20A80DF1A601324637F036FA002F02F0D8
S224005A008682384637F072FA06469DF8A5009DF8A61032462FF0AAF9B046FDF735BE00215F
S224005A200B46FDF72DBDBDF89E300A22DB05DB0D02FB03F3FDF717BD9DF8A020642303FB26
S224005A4002F3FDF799BC42F6AC3EC1F2000EBEF8003042F62C20C1F200000380FDF7A2BB2F
S224005A6042F63422C1F20002B2F90030B3F1FF3F61D0211DC8F8001010220FA840F01CFEAF
S224005A80B7F90030D9F8002003F114004C32D1181018D25C0132920040F01AFE3A8842F664
S224005AA02023C1F200031A8002F114033B80D9F800102B684C3112B214332B601E208B1821
S224005AC098700420D87001208854181DC8F800000FA9102240F0F0FD42F6202CC1F2000C11
S224005AE0BCF80030D9F800201BB24C32D1184FF0320088700420C8700918D054C8F80010BE
S224005B0042F6AC31D25CC1F200010B88013203EB82039BB20B80FDF75EBA4FF00002228089
S224005B2001210023FDF70BBA4FF00301ADF89E100320FDF7F3B942F6AC3EC1F2000EBEF870
S224005B40003042F62020C1F200000380CAE74FF00E022280DFF854C101238CF800300020DC
S224005B604FF0FF314FF4FA72CDF828C03AF084FFFDF7A3B94E485A6C4E490990B0F90230F1
S224005B80012035F083FDFDF72EB94FF00000ADF8A2000023FDF7C6B84749BDF89C000B91C7
S224005BA040F04EF83FF010FC2BA30CCB3FF08CFD40F20002C3F6F07200233FF0A7FA3FF061
S224005BC039FF0B9A1060FDF78AB842F6E430C1F20000036859781A7842EA01229978DB78BD
S224005BE042EA014242EA0363B3F1FF3F09BFFF210022218003F580731CBF22800023FCF794
S224005C0095BFBDF89410FDF729BE042220A81FA937F02AF9042800F04B86BDF99630012B62
S224005C2040F01284DDF87CC000231CF4F87F8BF82F3005D1BAF8003013F0010F40F0438638
S224005C40DBF85830634540F08A809DF8A630002B7DD0604642E000BF006AF84000000000F6
S224005C6000020010C8710400FE2B0010FC01001034720400C22B00106C720400807204000B
S224005C80947204001C7304003873040080730400A8730400522A00101C740400E473040022
S224005CA0D0720400E472040008730400012C0010000008204C700400F00100109DF8A52040
S224005CC00B79D3180B719DF8A6209DF8A530D31ADBB28DF8A630002B32D01F9820994A79DA
S224005CE0934238BF1A468DF8A5200B79C91835F0D9FA9DF8A5201F9B9B181F93209B5979C6
S224005D008A1A5A7120994B79002BD7D14A780B78012043EA02238A7843EA0243CA7843EA24
S224005D200263219332F0B6FF219B9DF8A62020939DF8A530D31ADBB28DF8A630002BCCD19D
S224005D40DBF858201F9B9A4238BFCBF858304FF0F0024646ABF80020B046FDF795BC9DF8CB
S224005D60A62020A8002137F07FF800238DF8A630DFF8843C9A6D1F9BE5E7BBF82C30013BE4
S224005D809BB2ABF82C30002B3EF42FAC382B7DF46AAF43F2DA21C1F200010B8843F02003C0
S224005DA00B80FDF760BF528AB24280F0B7851A6892F8401021F07F0182F840101B6893F8FF
S224005DC0402042F0290283F84020FDF73EBF043A1A80BBF83030FDF754BF42F67441C1F2A3
S224005DE000010B78002B3EF4DAAE43F25412C1F2000292F85630022B3EF6D1AEDFF8FC3BE7
S224005E00082283F85720FEF7CABE0A2386F85730012386F85630FDF750BF20A81FA932467F
S224005E2037F022F804287DF4ACAF4646FDF739BD4646FEF739BFBDF89420BDF892309A4279
S224005E407DF42EAD002603200F212196229627F09BFC229000283DF444AB0670467086703F
S224005E60C670229A06231371229A4FF0040C53716FF036038DF89830229B26A9981D022265
S224005E808DF899C00493CDF814C040F015FC049BDDF814C040F20422C1F2000203F108005D
S224005EA002F15801624640F007FC40F20423C1F200031E80002F01F0E280384637F016F8D4
S224005EC00646229B9DF86C00009320F00F004FF0807340F002000193FEF711BD20A81FA9B6
S224005EE0324636F0C1FF04287DF44BAF0023229321933AF0A1FD04211E902A4623461FA8E1
S224005F0035F0B6FD04212A4623461EA835F0B0FD229835F041F99DF86C308DF8A6001A0976
S224005F2042EA0313032006218DF8A53027F02CFC219000283DF4D5AA9DF8883006220370C6
S224005F409DF8893043709DF88A3083709DF88B30C370219B22931A71229B02225A71229B11
S224005F600C329A719DF8A620DA71002F00F01585384636F0BBFF0646229B9DF8A500009340
S224005F80069B0193FEF7BBBC0820DFF8741A35F07DFBFEF73FBBB4F90030002BBFF6D7A905
S224005FA0682027F06BFDFFF7D6B9219EBDF896000346002801F02586E6B10026C0B2229652
S224005FC035F09EFE0146229028B1219836F064FE002841F05887219B23B19DF8960021468E
S224005FE036F0DAFF229818B135F06CFA00232293BDF896301BB2D22B7DF452AC0020FAF7F2
S224006000F1FE43F25411C1F2000191F85630012B01F02C8043F2541E0723C1F2000E42F69C
S22400602074408EF85730C1F20000012346460370B046FDF729BB328812F0030F3FF4F4A958
S224006040BAF80030002B41F0FB8626466D20012127F014FDFFF7F2B90798012313FA00F2D6
S2240060604BF21233C0F2000302EA0303002B7FF403AAFFF7F3B9BAF8003013F0010F40F0E0
S224006080A78042F6754042F6FA3142F670420026C1F20000C1F20001C1F2000206700E7064
S2240060A0106835F00FFA42F67043C1F200031E60FDF70CBD002029F037F900287DF4E0ACCB
S2240060C0013029F031F900283DF400ADFDF7D8BC002120A836F0C8FE9DF8992090423DF493
S2240060E01FAFFDF74EBE0D2E00F07D860E2E00F04A860B2E7DF4D4AB6FF001024FF00603D0
S2240061004FF0000C8DF898208DF89930022123462A4626A8CDF884C0CDF888C0CDF814C02B
S22400612035F0A6FC2246294630468DF8996035F05BFC0121022015F03BFC224629468DF870
S224006140990035F051FC0521012015F031FC224629468DF8990035F047FC0621022015F00B
S22400616027FC224629468DF8990035F03DFC0321012015F01DFC224629468DF8990035F027
S22400618033FC0421012015F013FC294622468DF8990035F029FCFFF707B89DF8992000210E
S2240061A020A836F061FE46460020FBF71BFDB046FDF76ABA40F21803C1F200031A78012013
S2240061C002F04002DFF83C1835F060FAFDF79EBD0120DFF8341835F059FA52E712236FF004
S2240061E001024FF0000C02218DF898208DF899302A46234626A8CDF884C0CDF888C0CDF81C
S22400620014C035F035FC2946224630468DF8A66035F0EAFB04224FF4D0101FA935F034F90A
S2240062201F9BDDF814C0B3F1FF3F08BFCDF87CC0234604212A461FA835F01AFC40F2040016
S2240062400422C0F21A001FA935F01EF91F9BB3F1FF3F00F09480A3F5D013803B1F93042196
S22400626023462A461FA835F003FC40F210000422C0F21A001EA935F007F91E9BB3F1FF3F9A
S2240062807AD0A3F5D0131F9A823B9B1A1E93042123462A461EA835F0EBFB40F20800C0F29D
S2240062A01A0004221FA935F0EFF81F9BD8B203F47F03B3F5981F8DF8A60046D2142844D016
S2240062C004212A461FA8234635F0D2FB0020294622468DF8A60035F087FB1FB1384636F0C5
S2240062E005FE8046229B9DF8A5000093069B0021019301224FF0FF33CDF8088027F052FAAC
S2240063000121002016F01AFF292025A935F006FD00287DF4C5AA4FF6FF7100F5D010C0F294
S224006320210135F067F8BAF8003023B14020DFF8DC1635F0ABF900232920214646462193F7
S224006340B04636F029FEFDF79FB9294622468DF8A60035F049FBE2201FA936F007FEC3B2D4
S2240063608DF8A6300BB100231F931FA804212A46234635F07DFBB0E701331E9387E70133AC
S2240063801F936CE721919DF8A600214636F004FEFFF7FABA4646FFF71BBB9DF89920022AFB
S2240063A07DF4EFAC42F66A4CC1F2000C9CF80030002B3DF475AA25A920A836F055FD0520AD
S2240063C032F0D8FEBDF8943042F6AC3EC1F2000EAEF80030ADF8963000220AE0D9F8001036
S2240063E0CB1883F84C20BDF8963001339BB2ADF896301BB240F2AB308342EFDD052032F0B5
S22400640039FF42F6AC31C1F200010A880120DFF800164FF46B73464635F038F9B046FDF7E9
S22400642033B942F6342142F6AC3CC1F20001C1F2000CB1F90020BCF800300120DFF8D415BC
S22400644035F024F9FCF7EABE9DF899209BF82E30FDF74EBF0023229321930EB907994B1CC0
S22400646006200121ADF8943027F032FC062300264FF00A088DF89930022123462A4626A869
S224006480229621968DF8988035F0F2FA29462246AA2035F0A9FA29462246552035F0A4FA62
S2240064A030462946224635F09FFA30462946224635F09AFA30462946224635F095FA30464F
S2240064C02946224635F090FA0C238DF8983002212A46234626A88DF8996035F0C9FA229BC8
S2240064E00D2000934FF080730193414602224FF0FF33029627F056F9229621968DF898600B
S22400650002210D362A46234626A88DF8996035F0AFFADFF8040531462A46234635F0A8FA26
S224006520002F52D0384636F0E1FC80469DF86C30002023F00F0343F002033C218DF8A53059
S22400654032F06AFB229B012200934FF080739DF8A500019300214FF0FF33CDF8088027F046
S22400656021F901214D2036F0C7FD0D20012126F0BDFFBDF89620FDF766B90120DFF89C143C
S2240065803A4635F083F80220052126F0AFFFFDF73FBBFA202121DFF88824334626F046FD2B
S2240065A0FEF70FB80C20002127F092FB27210A23FA20DFF86C2426F039FD42F6E831C1F2E3
S2240065C00001B1F90030FDF755BDB846AEE70120DFF8501435F05AF8FCF79ABBC0F3431021
S2240065E025F0BAFB0546208825F0D6FBDFF8381403462A46012035F049F82088C0F34310E2
S224006600FCF763BA6120214635F088FB00283CF455AA4FF0000222800020FCF756BA48F23E
S224006620F060C3F66E003AF00DFAFCF725BA0120FE4935F02BF8D9F80030FCF738BB35F01F
S2240066401FF8BAF80030044613F0010F05D00279F7498218012035F019F8204634F032FFA3
S224006660D9F80030986935F00BF8BAF80030044613F0010F05D00279EE498218012035F045
S22400668005F8204634F01EFFD9F80030FCF70FBB42F6BC3342F6204CC1F20003C1F2000C53
S2240066A01A88DCF8003042F64E4EA3F50813C1F2000E4FEA931CBEF9003001200093DE493D
S2240066C0634634F0E3FFFCF7DEBA0A20FAF730F80A20FAF72DF8F9F713FE45F2FC1EC1F2F3
S2240066E0000EDEF800104CF20004C4F20F04D4F880310091D1490246098801200191D049C9
S22400670034F0C4FF0023C4F88031FCF729BA42F6E430C1F20000036801205A78197841EA0E
S22400672002219A78DB7841EA024242EA03630093C449C54AC54B34F0A9FF6421002032F079
S2240067406BFA4FF00001ADF89C10FCF7E3BD772342F6E43E0093C1F2000EDEF80030FA2043
S2240067605A78197841EA02219A78DB7841EA024242EA036301930023029364330393012162
S224006780B34A032326F052FCFCF7B9BD43F2541C0A23C1F2000C8CF85730FCF736BE5B6ABC
S2240067A06439CB4003F001035B00DBB2FCF71DBEB3F5697FBCF458ADACF8003042F6AC334F
