S017000042696E732F4D323034362E50524F442E73726563D6
S224000000DC7F0010E5000000C9000000CD000000D1000000D5000000D90000000000000076
S22400002000000000000000000000000049050000DD0000000000000019050000A5180300B2
S224000040E1000000E1000000E1000000E10000005937030061290300492803003127030028
S22400006019260300E1000000413E0300C93C0300E1000000E10000003D360300E1000000B5
S224000080E100000051160300E1000000E1000000E100000049410300E1000000E10000001E
S2240000A0E100000041310300E1000000E1000000E1000000E1000000E1000000E10000009F
S2240000C0E100000000000000FEE700BFFEE700BFFEE700BFFEE700BFFEE700BFFEE700BF62
S2240000E0FEE700BF234A24498A420AD22348002350F803C042F803C0043302EB030C8C453B
S224000100F6D3264826494FF000028842B8BF40F8042BFADB4EF2FF124FF08043C0F2F5522A
S2240001205A6003221A706FF055021A72AB321A721C4880F30988124B124A19681160124A37
S2240001409A4205D91149096843F8041B9342FBD30F4B0BB100E000BF0E4B13B100E000BFA7
S224000160FEE70D4B13B100E000BFF9E700F058FAF6E700BF00000010FC0100104C9203001E
S224000180B879001020410010DC7F001000000010000000000000000000000000FC01001020
S2240001A0C4500010B87B0010000000000000000000000000000000000000000000000000D3
S2240001C000000000000000000000000000000000000000000000000000000000000000001A
S2240001E00000000000000000000000000000000000000000000000000000000000000000FA
S2240002000000000000000000000000000000000000000000000000000000000000000000D9
S2240002200000000000000000000000000000000000000000000000000000000000000000B9
S224000240000000000000000000000000000000000000000000000000000000000000000099
S224000260000000000000000000000000000000000000000000000000000000000000000079
S224000280000000000000000000000000000000000000000000000000000000000000000059
S2240002A0000000000000000000000000000000000000000000000000000000000000000039
S2240002C0000000000000000000000000000000000000000000000000000000000000000019
S2240002E000000000000000000000000000000000000000000000000000000000FFFFFFFFFD
S22400030000B58AB00AA8362340F8143D41F6F173C1F6FF736946984701980AB000BD00BF34
S2240003204CF20003C4F20F034FF40042C3F8C42040F24012C5F20042C3F8A82140F2004216
S224000340C0F20502C3F8AC214CF20002C4F2020200219162D3F8882012F0007F08D001225A
S224000360C3F88020AA22C3F88C205522C3F88C204CF20003C4F20F030022C3F88020AA22BA
S224000380C3F88C205522C3F88C20D3F8A021194642F02002C3F8A021D1F8A0214CF200038D
S2240003A012F0400FC4F20F03F6D041F60032C0F2B70201219042C3F80C1129D8D3F8A0212C
S2240003C042F02002C3F8A021D3F8A0114CF2000211F0400FC4F20F02F6D00123C2F80C3194
S2240003E00023C2F804313A23136041F60033494AC0F2B703136041F6FF33C0F2B7034FF026
S2240004008042536040F20103C8F200031361704742F20042C0F2F402904258D040F23102C7
S224000420C0F20202C3F884204FF0AA0C5522C3F88CC0C3F88C20C3F88010C3F88CC048F23C
S224000440004CC1F2D77CBCFBF0F00328C3F88C2035DD9CFBF0FC4CF66B230CF1FF32C6F6CD
S2240004605F33A3FB0213DB0D1B03013843F03A03284A4CF20001C4F20F01C2F800C0C1F8D9
S22400048004010B60D1F888204CF2000312F0806FC4F20F03F6D00322C3F88020AA22C3F8AF
S2240004A08C205522C3F88C20D3F8882012F0007FFAD04FEA1C131B0143F0FF039FE74EF270
S2240004C0001C44F23A030320C0F2F55CD0E7D3F8A02142F02002C3F8A021D3F8A0114CF295
S2240004E0000211F0400FC4F20F02F6D00123C2F80C310023C2F804313A23136042F20043A4
S224000500044AC0F2F403136042F2FF43C0F2F40375E700BFC450001072B6EFF3088020E973
S224000520F00F2A4981F308884FF000014DF804ED62B62CF07BFD72B65DF804EBB0E8F00F1B
S22400054080F3088862B6704772B6EFF3088020E9F00F1E4981F308884DF804ED62B62CF055
S224000560E1FD72B65DF804EBB0E8F00F80F3088862B67047DFF820C0084A944509D90023DC
S22400058052F803E041F803E0043302EB030EF445F6D88047FEE700BF947403005472030092
S2240005A02EF002F872B60A480A490B4AA2EB0101A0EB01000246A2F1080282F308880146B0
S2240005C040F00100FFF7D6FFFEE70000B87B0010DC7F0010547203009474030000B581B0CD
S2240005E001200DF103012BF0C1FE9DF8030001B000BD00BF00B5094B81B0B3F9003000908E
S224000600022B06D0022069462BF0CCFE009801B000BD082069462BF0C5FEF7E77E2A0010CB
S224000620A14BA24AA24D1A6081B001262E7031F061F8A04A002717809F4A4FF002011180A0
S2240006409E4A9F4C16709F4A4EF2001016709E4AC0F2F55017709D4A267017709C4A1770A6
S224000660FFF75EFE384631F087F82BF025FD33F0B5FD33F087FC33F09DF832F0F1FE2378E9
S224000680002B40F00A8105202DF0ECFF4CF22003C2F209034FF48032DA6130F035FA40F270
S2240006A0CF76071D0023B34206DD30F02DFAB84204DC0023B342F8DC0133F4E74CF2200354
S2240006C0C2F2090300204FF480329A614FF41651024631F029FE01204FF4E131002231F052
S2240006E023FE02204FF41651002231F01DFE03204FF41651002231F017FE2DF051FF754F54
S2240007000026B846BB5D6BB1184600932BF054FD009B08EB0312127D0A2A00F0B080013662
S224000720062EEFD1012002212BF0BAFD00236A4A2B700133137013785BB14CF20003C4F2F3
S2240007400F034FF47061C3F8C01030BF10780028F9D10023237033F0D1FD4CF22003102240
S224000760C2F20903DA614CF24003C2F20903DA611A6842F010021A6032F09AFA32F01AFFCC
S22400078033F09CF831F0E6FA33F066FC30F090FF4CF20003C4F20F03D3F8A82012F4007F47
S2240007A008D00122C3F8A020A932C3F8AC205522C3F8AC204CF20003C4F20F030022C3F878
S2240007C0A020AA215532C3F8AC10C3F8AC20D3F8800020F00200C3F88000C3F88C10C3F85A
S2240007E08C20D3F888104CF2000211F0007FC4F20F02F6D1D2F8803023F00103C2F880309C
S224000800AA23C2F88C305523C2F88C30D2F888104CF2000311F08071C4F20F03F6D1C3F8C3
S2240008200C11C3F80411C3F8A0112DF011FF0A2807D14CF24003C2F209035B6913F0080211
S22400084022D04CF20003C4F20F034FF40072C3F8C4204EF60052CEF20002116941F004013C
S22400086011610922C3F8C02030BF4FF080436FF055021A7256321A722DF096FEFEE7184600
S22400088002212BF053FC4AE74FF080436FF0550119721A722DF088FEFEE7384632F038FD6A
S2240008A0304632F035FDEEE6782A0010C8500010BD2B0010882B00107E2A0010BC2B001051
S2240008C0B82B00107C2A0010C02B0010642A0010812A001094740300802A001042F678237E
S2240008E0C1F20003196800228A801968CA8019688A601968CA6019680A611B685A617047CE
S224000900054B1B8833B9054B1878002818BF022000B270470120FBE7040200100D3500101E
S22400092001F1030C1CEA210C38BF8C464FEAAC0CBCF1000F30B415DD0B4B04681B689C420F
S22400094010D1002304E050F823209D00A24207D101336345F7DB98004042401830BC704703
S2240009606842FAE70020F8E7000000102DE9F04FB54D85B0C0B20123009085F85B300028F6
S22400098040F09B802B68D220DFF8BCA26B602EF059FF002800F0A180002401268AF8566050
S2240009A08AF840400390B246019402940DF10C080DF113070DF108090DF1040B26460122A5
S2240009C0404639462FF096FA01281EBF2C228DF813204FF0000A67D0029B1BB300204946B8
S2240009E05A462EF0C3FD33B2062B15D8DFE813F0C600BD00CF000700D800A10081004FF015
S224000A000003029885F840302DF0FCFD04B2142C40F3D8804FF0000A02982EF039F900235A
S224000A20019302930136B6B233B2072B08DD012385F8563000232B616B6105B0BDE8F08F72
S224000A40BAF1000FBBD1072BF1D1009A02237E4C85F85630002A40F0E68095F858307A4A32
S224000A60632B00F2BE80012111FA03F351690B43536195F85930744A632B00F2BF8001211F
S224000A8011FA03F351690B43536195F85A306E4A632B00F2C080012111FA03F351690B43DA
S224000AA053612B686B60C8E79DF813002C2893D049465A462EF05AFDB6E70023D22085F83E
S224000AC05C302B762B6085F85530DFF87CA16B602EF0B8FE00287FF45FAF009B8AF85600A8
S224000AE08AF85B00002BA8D0CAF81000CAF81400A3E7029B002118790A22181830F09CFDDB
S224000B00C0B2A0F11003DBB2532B85F85A0081D943F22012C1F2000292F8583083423FF458
S224000B2079AF92F8593083427FF476AF4FF0000A72E7029B002118790A22181830F07CFD32
S224000B40C0B2A0F11003DBB2532B85F859007FF661AF43F22012C1F2000292F85830834221
S224000B607FF45AAF4FF0000A56E7029B002118790A22181830F060FDA8604DE7029B00214C
S224000B8018790A22181830F057FD286044E7029B002118790A22181830F04EFDE8603BE7BC
S224000BA0029B002118790A22181830F045FDC0B285F858001038C0B253283FF62DAF4FF057
S224000BC0000A29E72246484620492FF093F943F22012C1F2000214194FF0000384F8403075
S224000BE01AE70121643B11FA03F311690B43136195F85930144A632B7FF641AF0121643BC9
S224000C0011FA03F311690B43136195F85A300E4A632B7FF640AF0121643B11FA03F31169F5
S224000C200B4313613DE730F055FDE368984207D2A36898427FF611AF032384F856300CE724
S224000C40012384F8563008E7203100106031001070B5052384B08DF8003003206FF0750348
S224000C608DF801302BF010FD02226946D62032F0EFFF0224002001212BF06CFA0126224640
S224000C806946D6208DF800408DF8016032F0E0FF002031462BF05EFA1F2322466946D620A5
S224000CA08DF801308DF8006032F0D2FF002031462BF050FA00238DF80030D62037236946CE
S224000CC022468DF8013032F0C3FF03206D462BF047FD04B070BD00BF30B58FB00BACC5B2E6
S224000CE003202BF0D1FC22460B234FF48071D62032F064FF03202BF033FD9DF82F3047F204
S224000D00B45200939DF82E30C0F2030201939DF82D30F92002939DF82C30272103939DF8F3
S224000D20333004939DF8323005939DF8313006939DF8303007939DF8353008939DF8343079
S224000D4009939DF836300A932B4622F0C9FF012100202BF0FFF905238DF82C3003206FF02F
S224000D6045038DF82D302BF08FFC02222146D62032F06EFF002001212BF0ECF901250B23F8
S224000D8002222146D6208DF82D308DF82C5032F05FFF002029462BF0DDF90023214602223C
S224000DA08DF82C30D6206FF048038DF82D3032F04FFF03202BF0D4FC1020062123F0D2F918
S224000DC00FB030BD2DE9F0475FFA80FABAF1020F83B000F0C98002238DF808301E238DF872
S224000DE00930002301AF0221019300933A466B4602A82FF017F930F06DFC5F4B5F4C1B781D
S224000E00E846013BDBB2022B98BF6FF00903606098BFA3600CD95A4B1B6859781A7842EA31
S224000E2001229978DB7842EA014242EA0363A3600323524D237374233A4663730B216B46FD
S224000E400AF00109281D4F4E84F80E902FF0EAF805202BF019FC3368DA88002A5CD09988C3
S224000E60B1FBF2F22A74D3F808C048F68902C8F68802A2FB0C1C21694FEA5C1C6CF3172104
S224000E802161D9680025A2FB01C2C2F34F12E274120A227519696269BAF1020F61F3172250
S224000EA062611A7D3548E275A269596902F07F4242EA1122A2612577E5762FD0324B027F29
S224000EC0D3F8C41042EA0122C26193F8C720132180F82020B3F8C0303A4680F821301A237D
S224000EE080F8223010306B462FF09CF8B9F1000F0BD033689D803368DD8033689D60336808
S224000F00DD6033681D6133685D6105202BF028FC019803B0BDE8F0872A74A4E793F83F302E
S224000F200577C376184B027FD3F8C41042EA0122C26193F8C720132180F82020B3F8C03009
S224000F403A4680F821301A2380F822306B4610302FF068F805202BF003FC04213A466B4637
S224000F600A482FF05FF8D3E704238DF8083020238DF8093035E700BF4E2C0010040200108A
S224000F80DC2B0010782A0010683300102C4000102DE9F04FDFF8FC808AB0D8F80030B3F5D2
S224000FA0806F34BF9A464FF4806ABAF1000F68D0394F0DF1200B0DF10C090023BAF1F00FBA
S224000FC034BF5646F02607930893B6B26FF001038DF82430731D8DF8253002215A4607ABAF
S224000FE009A82FF01FF84FF00D03594607AA0D208DF825302EF0BAFA274804215A4607ABA7
S2240010002FF010F8FEB1386834B2102CA8BF1024A4B225B249462A46A4B22DF0D5FC07AB76
S224001020484621465A462EF0FDFFD8F800303868361B5B1B2818B6B2C5EB0A0AC8F8003039
S2240010403860002EE0D142F60643C1F200031C7842F6E433C1F200031868089D2EF08CFF76
S2240010604FF08073019302900021204601224FF0FF33009522F038F9BAF1000F9DD1D8F828
S224001080003023B9054B186808B12DF001FE0AB0BDE8F08FD42B0010FC2B0010E42B001057
S2240010A02DE9F04FC0B288B04FF0000804910390CDF81480CDF818802B4EDFF8B0A04746DA
S2240010C00DF11C0B06AD05AC0BE00137BFB20FFA87F90436B9F1400F08F101080AF1080A23
S2240010E02CD06FF001038DF81C304FF00E038DF81D3002212A46234658462EF093FF4FF010
S22400110011032946224611208DF81D302EF02EFA2946224640462EF029FA04212A462346FA
S22400112030462EF07FFF2346504608212A462EF079FF33685FFA87F9002BC6D10498069CF6
S2240011402EF01AFF09F101024FF0807301930290D2B2039800214FF0FF33009422F0C4F8EB
S22400116008B0BDE8F08F00BF5C4F0010D04700102DE9F0410C4683B0C5B2102102201646FB
S22400118022F0A4F8074660B306230371042343710223C37113234FF00008837100F10803FE
S2240011A080F8008080F8018080F8028080F8038080F8088083F8018030462EF0DDFE2B09A5
S2240011C043EA0515EDB2029001224FF0FF33284641460097019422F087F8034B012283F860
S2240011E0232003B0BDE8F081040200102DE9F04FDFF89C8193B0B8F800304FF6FF7B1AB2D1
S224001200002ABFBF03F500639BB21AB2A8F80030B2F5006FC1BF03F578439BB21AB2A8F8DB
S2240012200030013AD417640D12195205520D141B002504F50844A40110951195DFF854A1AC
S22400124011AF10AEC0F2230BE94632E04022204669462DF0B9FB9DF8183002211B338DF8CF
S22400126049303A46334612A82EF0DCFE02213A46334647482EF0D6FE9DF849103A460239FF
S224001280334689B268462EF0CDFEB8F8003001339BB21AB2B2F5006FA8F8003006DD42F6D0
S2240012A04C4203F57843C1F2000213800F2D6BD040344FF002038DF84930DAF800305C45D0
S2240012C088BF4FF4081401356FF002029C428DF84820EDB2BAD102213A46334612A82EF0E1
S2240012E0A1FE3A4633462A4802212EF09BFE2A4BB8F8002001241A80284B294A1B7803EB9A
S22400130043039B001370274B186808B12EF034FE06460E21022021F0D9FF002836D006238C
S22400132010900371109B05225A719DF84420109BDFF874801A709DF845205A709DF846203F
S2240013409A709DF84720DA7098F80020109B02F00F0211939F1D9A7100237B7011982DF09B
S22400136051F980B2B870000AF8703D7198F80000119900F00F0041F08071324621F064FF5D
S22400138020B213B0BDE8F08F0024B5E70124F7E74C2C0010182C0010482C0010CC2B001065
S2240013A0C82B0010542C0010F22B001003B2022B10B515D002202EF0E5FB03242EF02EFB4E
S2240013C0204601342AF060FF072CF7D10220002122F072F92EF022FB00202AF055FFFEE78B
S2240013E000216FF0030022F091F80021692022F08DF800216D2022F089F86FF005000021C3
S22400140022F05AF900216A2022F080F80121682022F07CF80A202EF0B5FB0324CEE700BF6A
S2240014202DE9F04100B287B028B1C54B1C8814F4806400F0C2802DF051FA002402200C21F1
S22400144021F044FF002800F08380062305900371059B02215971059B00221A705A709A7039
S224001460DA70059B0322981D9A7124B1BDF90C300BB1417001E000234370059B0025009355
S2240014804FF0807301936620294601224FF0FF33029521F029FF61200DF11A012EF0E0F997
S2240014A00646002858D0ADF81A5007AD002345F8083D294616202EF0D5FD172029462EF0CA
S2240014C0D1FD03ADA91C4C202EF0CAF918B14FF00003ADF80E30642029462EF0C1F918B1F5
S2240014E04FF00003ADF80C30BDF80E3013F0020F05D0BDF80C3013F4805300F0EB800220A0
S2240015000D2121F0E3FE18B3062305900371059B02225A71059B00221A705A709A70DA70B0
S224001520059B0322991D9A711CB1BDF91030002B41D100234B70059B002100934FF08073BC
S2240015400193222001224FF0FF33029121F0CCFE20B207B0BDE8F081BDF81A3013F4805F2A
S224001560A3D002200D2121F0B1FE0028F0D0062305900371059B02225A71059B03221E70E7
S2240015805E709E70DE70059B991D9A711CB1BDF90E30002B69D100234B70059B0021009363
S2240015A04FF080730193BB2001224FF0FF33029121F09AFE85E74A70BDE703AD0B202946A1
S2240015C02EF04EF908B1ADF80C400DF11A060C2031462EF045F9002840F0A680BDF81A305D
S2240015E0BDF90C201BB29A4280F298800124A91C17202EF035F918B14FF00003ADF80E3076
S224001600162031462EF02CF9002840F08180BDF81A30BDF90E201BB29A42A6BF4FF0FF331A
S224001620ADF80E3001242F1D642039462EF018F98046E0B9BDF8103013F4805F17D02120BD
S22400164039462EF00DF908B1ADF81080202031462EF006F900286DD1BDF81A30BDF91020D5
S2240016601BB29A4203DA012405E04A7095E74FF0FF33ADF8103002214FF0FF3014F02AF892
S22400168080B2002818BF002403214FF0FF3014F021F880B200287FF4CEAE002C3FF4CBAE20
S2240016A028462DF0AFF984B2002C3FF4C7AE28462DF0A0FEBDF80C1029BBBDF80E10E9B995
S2240016C0BDF8101000293FF4B9AE09B220202EF05BFDB3E607AD45F8083D29461F202EF061
S2240016E0C1FC294620202EF0BDFC294621202EF0B9FC222029462EF0B5FC29E709B216209E
S2240017002EF042FDDCE709B20C202EF03DFDD4E74FF00003ADF81A3000237AE74FF0FF3384
S224001720ADF80C30002462E74FF00003ADF81A30002355E74FF00003ADF81A3000238DE7FE
S2240017400A2C001070B5CE4D4FF6FF732C8883B09C420BD0260BADF808602FF0BBFF45F655
S2240017608023C5F2C323984201904BD80C2401250DF10A06204631462EF072F80134002870
S22400178008BF00250F2CF5D11F24204631462EF067F80134002808BF0025232CF5D13146E5
S2240017A016202EF05DF83146002808BF002517202EF056F83146002808BF00250A202EF07A
S2240017C04FF898B9BDF80A30D3F1010338BF00232B4212D12FF07EFF46F23F73C4F6A33335
S2240017E098426DD8002000B203B070BD01234FF000062B42ADF80A60ECD0002027F022FC1D
S2240018000020F0E74AF28053CAF63C5344F20752C318CCF22E220193A2FB0313994A2405A3
S2240018201268240D50781178341941EA00219078D27841EA004141EA026144F62512C2F29D
S2240018409242A2FB01C0C0EB010C00EB5C0080084FEAC00CC0EB0C00091A89B201EB13436E
S224001860A2FB03129B1A02EB53039B08A34201937FF67CAFBDF8082029881AB1013A92B225
S224001880ADF80820D31801F470417F4C0B432B807E4B25684FF003021A80002D7FF466AF38
S2240018A0DF202DF0CFFF01460090002800F0D180284620F08FFD2060754B08221A7055E7BF
S2240018C04BF2C533C9F2A213A3FB00C3DA0A4AF6AB23CAF6AA23A3FB02131B0903EB430373
S2240018E0DB0044F20754D21ACCF22E2495B20190A4FB002402A943202DF0B2FFBDF8083017
S224001900240C03F0FF02172A05DD03F47F4303339BB2ADF80830B3F5006F84BF0323ADF83D
S2240019200830BDF80A30A34268D0002027F08AFBBDF8083013F47F4F1BD1BDF80A2094423F
S2240019403FF450AF013294427AD000230320009327F078FB0120FFF763FD83B2002B6AD089
S22400196021B20A202EF010FC002027F06BFB012039E7BDF80A2094423FF434AF190A03313B
S224001980C9B2062901D90739C9B2D01F8442DCDBD01D8442D9DCDDF804C044F20750CCF24B
S2240019A02E20A0FB0C6044F6251C000CC2F2924CACFB006CCCEB00060CEB560C4FEA9C0CAA
S2240019C04FEACC06CCEB060CCCEB0000C0B2884239D042F29343601A521AC9F2492383FB9D
S2240019E0005C83FB026384449B18C017D217C0EBAC00C2EBA3039842A7D1F3E69DF80830C6
S224001A004FF4616000FB03F0019944F20753CCF22E23A3FB016345F280121B0CC0F20102EF
S224001A2002FB1313984280D200F5167083422CBF002001207AE70A2069462EF013FB93E706
S224001A409D4282D2CEE603F0FF039D42BFF67DAFC8E64DF2503303A8CFF68D2304312246B8
S224001A6040F8083D6B462EF0DDFA03A841F2EC3320F8043D022122466B462EF0D3FA1BE7BF
S224001A80F02B0010DC2B0010542C0010002C0010F22B00102DE9F045854C85B02378FF2BF0
S224001AA077D0002004A903AA20F00CFF2378054643B10023049A23707E4B01325A62039AC2
S224001AC001329A62E52002A92EF096FA01A90446E6202EF091FA012802D0012C40F0A08059
S224001AE0DFF8D4A141F6FF73BAF800209A4253D0049A0399002D57D16E4B586A824200F05D
S224001B00CC805A629962BAF80030002B53D16B4F4FF6FF7801264FF4C015684CC0F2180851
S224001B2001E00136B6B21122284664492CF04CFF3B789A1DD2B2042A24D821792268090620
S224001B4041EA1221049AA068891A227B0029B8BF4942120642EA1022914210D2217A626881
S224001B60090641EA1221039AE068891A227C0029B8BF4942120642EA102291427DD31135C3
S224001B804545CED14FF00002AAF8002005B0BDE8F08501232370F9E74FF00003AAF800309A
S224001BA00398049B1A460146424B5A629962BAF80030002BABD0DB04DB0C013B3F4F03EBF5
S224001BC0031303F5C010112239462CF0FDFE3B780633DBB2042B9BD83B793A681B0643EA9A
S224001BE01222049BB968D21A3B7B002AB8BF52421B0643EA11239A428AD23B7A7A681B06A3
S224001C0043EA1222039BF968D21A3B7C002AB8BF52421B0643EA11239A42BFF479AFB5E7B2
S224001C20E72069462EF0E8F9009C14B942F210740094049B02991A46C91A0029B8BF49428D
S224001C40A14227DA0398DDF804C00146C0EB0C0CBCF1000FB8BFCCF1000CA44522DBDFF8A4
S224001C6058A041F6FF7CBAF80040644504BF0022AAF800207FF43EAF94E7F604F60CFE2B73
S224001C80AAF8006082D0C3F1FE0346EA43360A4B1E807BE703980146E1E7986A81427FF456
S224001CA030AF73E7044B41F6FF721A806EE700BF3C2C001004020010442C0010202C0010D7
S224001CC0A9B0042032F000FADFF8602B00231380538042F6CE3142F6D032C1F20001C1F2A3
S224001CE000020B80138042F6144042F6D43142F6FC3242F6E43CC1F20001C1F20002C1F21C
S224001D00000CC1F20000DFF8289B03700B601360CCF800304FF03C00A9F82C002FF0DAFCE3
S224001D200EA92EF017FE0E9BB3F5FA6FC2F21A876120DFF8001B2DF093FD03B233B142F6B4
S224001D40B6314FF00000C1F2000108802CF04CFE42F6B63442F6DC32C1F20002C1F20004E2
S224001D6010602088C0F3431020F08AFA0546208820F0A6FA29460246002030F0D5FA6420BF
S224001D8021462DF06DFD002842F0DF862088C0F3431020F075FA42F6B631C1F20001044647
S224001DA0088820F08DFA21460246022030F0BCFA42F6DC32C1F20002136842F64E4C597837
S224001DC01A78DFF8704A42EA01229978DB7842EA014242EA0363B3F1FF3F0CBF0423002330
S224001DE0C1F2000C8CF80030472021462DF038FDA8B142F6DC30C1F20000036859781A782D
S224001E0042EA01229978DB7842EA014242EA0363B3F1FF3F0BBFFF2100222180228042F6A0
S224001E2015430024C1F200031C700820DFF8081A2DF016FD28B142F6C43CC1F2000CACF81A
S224001E400040DFF8F819DFF8F80920F0B1FC0420DFF8F0192DF004FD30B142F6F0314FF025
S224001E600000C1F20001088042F6004242F64A4342F6F33C4FF00004C1F20002C1F20003CD
S224001E80C1F2000C14801C808CF800400720DFF8B8192DF0E5FC50B142F61C4042F6F331CC
S224001EA0C1F200000223C1F2000104800B700620DFF898192DF0D4FC60B142F6464342F6ED
S224001EC01C4C4FF00002C1F20003C1F2000C1A80ACF8002042F64642C1F20002B2F9003031
S224001EE042F64841B3F5006F4FF0FF30C8BFDFF85C39C1F200010880C8BF002042F64C41FC
S224001F00C8BF1880C1F2000100230B8042F6594C42F6544042F6F231C1F2000CC1F20000C5
S224001F20C1F200011A4603600B708CF80030DFF820B942F6C833C1F200031A70DBF8000000
S224001F404FF47E712CF0B4FFDBF800301868002842F0F3859A695AB948F2F452C2F20602D4
S224001F601A63DBF8002049F64133C0F26B5353637F2026A92DF074FC002802F00582DFF8A0
S224001F80D4C8CDF828C0002021F0EEFC44F20003C4F202039B6C42F6842223F07F43C1F277
S224001FA000021360032020F00BFB45200DF19E012DF056FC002842F000829DF89E3042F686
S224001FC0024C9DF89E10C1F2000C8CF800306FF00400ADF89E1021F06FFB4FF080436FF066
S224001FE055021A72AB3200201A7222F0D3F842F6F43180B2C1F20001088000B2002801DD10
S224002000FFF7D4F9DBF8003093F84020FF2A02F0388712F0010F0CD102F07E0283F84020F4
S224002020DFF82C381A6892F8403043F0010382F84030012021F098FC42F60A42C1F20002C4
S224002040138813F0400F42F00B87DFF80C08012309900370DFF804185C202DF001FC42F6EE
S2240020600A41C1F200010B8842F652421B0AC1F2000213700BB1013B1370DFF8E0474120C6
S22400208021462DF0EDFB002842F0EE80238813F0200F02F0EC80DFF8C8C7CDF820C08CF83D
S2240020A0000042F6BE310024C1F200010C8069202146A9F8004089F82E4089F82F4089F85F
S2240020C0234021F023FADFF89C3721461C606B2021F01CFA49200DF19A012DF0C1FB03B29B
S2240020E01BB14FF00302ADF89A205A20DFF878172DF0B6FB002802F02B81BDF89A0000F0B9
S2240021000700DFF86447002122F002FB462021462DF0A6FB002840F00C812388C3F3C1234C
S2240021205B00591C6FF00500ADF89A3021F0C4FA4FF0FF3031F0C8FF42F6F4318310C1F22F
S22400214000010B80DFF8244742F6B4334FF00002C1F200031A8042F66021228042F65422F3
S2240021604FF0FF30C1F20001C1F20002088010800023DFF8FC56DFF8FC76DFF8FC66DFF8C6
S224002180FC864FF0040A12E0322B6CD042F6B43C1278C1F2000CBCF80030013203EB8203E5
S2240021A0ACF8003042F6B430C1F200000388DBF8001001EB030C9CF84C20002A00F0C280B2
S2240021C040F2AB32934200F2BD804C31CA185078FA2800F0A4809378142BD5D142F6602CD6
S2240021E0C1F2000CBCF90030B3F1FF3FDAD142F6B430C1F2000001882388082943F001033E
S2240022009BB2318008BF42F65041238002BFC1F2000143F002030B802A60137842F6B43C13
S2240022203E2B08BF2388C1F2000C02BF43F0040323801378BCF80020013302EB8303B3F5B3
S2240022406B7F9EBF42F6B43CC1F2000CACF80030A8D942F660214FF0FF30C1F200010022F9
S22400226008802A609EE742F65420C1F20000B0F90030B3F1FF3F95D142F66021C1F20001D5
S224002280B1F90030B3F1FF3F01F06887111D3960102222A834F038FFB6F90030DBF80020AD
S2240022A003F114004C32D1181018D25C0132920034F036FF3288DBF8001002F114033380DC
S2240022C02B68A8F800204C3112B214332B601E208B189870012083F803A08854181D3860C2
S2240022E022A9102234F010FFB8F80030DBF800201BB24C32D1184FF03200887081F803A01D
S224002300043102F803A0396042F6B431D25CC1F200010B88013203EB82030B8042E7CB5C3A
S22400232013F0030F0BD19B0813706FF00603537051E74FF00000208001210023F2E60023FF
S2240023408CF84C3042F6542CC1F2000CBCF90030B3F1FF3F02F0E884DFF8243500241C80EC
S224002360DFF8203542F63C4042F6C43C1C80C1F200000223C1F2000C0370BCF800304FF077
S22400238004024FF02101C9F82840C9F82440A9F83010A9F83220A9F83420002B42F0A58434
S2240023A0ADF89830BDF898300022013342F6344C4FF000019BB2C1F2000C29A82CF81210BD
S2240023C0032B00EB420222F8441C1A46EDD942F6F83242F6D83C4FF007014FF0FF33C1F2E2
S2240023E00002C1F2000CADF8981013708CF80030442027A92DF034FA002801F0E4864FF44E
S224002400616342F65840ADF89C30C1F20000002303700120FEF7AAFA43F22011C1F2000195
S22400242091F85620002A35D091F85800002831D00B4691F8591069B3632893BFDBF8003020
S224002440DBF80030A0F1640CD3F828C08BBF586A2CFA00F020FA0CF000F0010088BF00F060
S2240024600100632902F238849B6ACB4003F001035B00DBB2034301339A420BD0012A02F0DD
S2240024802284032A06D143F220100923C1F2000080F8573042F66021C1F20001098842F614
S2240024A06222C1F2000211800320062129F0F8FE09201D21002229F049FF14210A4617234B
S2240024C0F14829F0C3FE052348200DF19A0189F854302DF0C5F9002801F06C8640F28E33DD
S2240024E045200DF19E01ADF89A302DF0B9F9002841F070869DF89E3019466FF00400ADF87E
S2240025009E3021F0D9F842F6104242F6084C0023C1F20002C1F2000C1360ACF8003042F6DA
S2240025203E4042F6E03142F6404242F6044CC1F20000C1F20001C1F20002C1F2000C03802F
S2240025400B801380ACF80030FEF782FB0DF17C0A20AC21ADCD4829F04FFF172800F0988130
S2240025601D28F7D1092023A929F002FE239E002E01F0838216F0007708BFB84640F014844C
S2240025803046414620F03AFE83B203F00F02012A00F2CD83239803F0010306900C9305223D
S2240025A020F04F431AA950461F932DF0A3FC052840F0AA839DF86930002B40F0A5838DF8ED
S2240025C0A23098469DF86C300C995A1E0D918DF86C20002B7BD00222504622A92DF08AFCAB
S2240025E00228844640F090839DF88830122B00F0DA857ED80C2B00F271830B2BC0F0A0834A
S22400260000203221CDF814C029F0A4FD9DF88920002150462DF06EFCDDF814C009216046FA
S22400262020F054FEDDF814C02190002892D00023037043708370C370219B06221A71219BB5
S22400264004225A71219E0B2322A96246B01D8DF888308DF889C034F057FD06F10803602052
S2240026601CA904932DF0FCF8049B002800F0CE87032210461146ADF8701002218DF8A2108B
S22400268030725A709DF868301A0942EA0313D8B28DF8A100002F01F0CB8138462DF06CFC18
S2240026A006469DF8A100219B0699009301919DF8A22000214FF0FF33029620F015FEB04679
S2240026C09DF86C305A1E8DF86C20002B83D1B9F800303BB142F6BE32C1F20002138843F044
S2240026E0040313801F98002800F026832CF0D0FA22E31A2B00F20F83192BC0F086809DF880
S2240027008960012E41F25A83012B04BF0022ADF896200AD0022250460DF196012DF0EAFBF5
S224002720022840F0F1829DF88960022E01F0F5809DF88830012B03D0023E8DF88960F6B211
S224002740BDF896301AB2111E18BF01217F2ACCBF002101F001011846002900F0F986022E97
S2240027600BD00021504632462DF0C4FB9DF88930984240F0C982BDF89630D8B225A92DF0DB
S2240027806FF8022206461CA950462DF0B3FB022840F0BA82BDF996307E2B33DCBDF89430F4
S2240027A007939DF88830192B02F08F851A2B02F08385022B04BFBDF87020ADF89420BDF861
S2240027C09630B6B26F2B0B9602F0E4840B9A002A42F0DC84BDF894100798884205D0D8B2AF
S2240027E009B22DF0D1FCBDF896301BB2452B03F08783462B03F06883472B03F09B83682B15
S22400280002F090864646B0465AE7142B00F00586C0F08385182B00F0E3859DF88920504607
S224002820002146462DF066FBB04649E7AC2B001004020010B62B0010C42B001018750300C5
S224002840182C0010F02B00101C2C0010462C0010782A0010F00100100C2C00100A2C0010D9
S224002860F92B0010B02B0010F62B0010502C00105C2A0010582A0010602A0010542A001027
S224002880E82B0010442C00103C0200102875030042F6B84C0023C1F2000C89F82330BCF9FB
S2240028A00030B3F5967F00F37C8242F6D430C1F200000368002B40F0718209990B78FF2B3E
S2240028C016D00120052112F0D1FBDFF8683C06461B7883420AD047F21853C0F2030303EBB5
S2240028E0C0025169012092692EF014FF09990E7099F85430013BDBB289F85430002B7FF469
S22400290029AEDFF8343C052283F8542042F61042C1F20002136801331360BDF89820002A86
S2240029204FD04FF080436FF05501197242F6462CAB311972C1F2000C9CF80030012B1CD97C
S22400294042F6C430C1F200000188B1B142F61546C1F20006317809290FD8013BDFF8DC2B80
S224002960FA20192121F0BCF93378012201333370DFF8CC3B1A70BDF89820013A96B2ADF896
S2240029809860F6B94FF00701ADF898106527B04642F63442C1F200020DF1600C935B3CF886
S2240029A006209A4200F08F8708F101080DF1600C1FFA88F82CF8063001370236B8F1040F7F
S2240029C0E6D1B9F800301BB1DFF86C2B013B138042F60046C1F20006B6F90030012B00F31C
S2240029E0F181002BC0F2668642F65941C1F200010B784BB342F6F232C1F200021378082BC1
S224002A0001F04F8442F6C833C1F200031E78013EF6B21E70C6B942F6CC3CC1F2000CBCF8C7
S224002A20003001339BB2ACF800301BB2052B02F3A981012B06DD42F64C40C1F200000388DF
S224002A400F3B0380FEF7D2FB00201FF065FE064603201FF0B5FD0746002E00F0008503200D
S224002A6029F012FE01230821D6200DF1A30231F0A5F8032029F074FEDBF8003093F94030D7
S224002A80002BC0F20A8343F28C21C1F20001B1F90030002BC0F2DD8242F6E033C1F200031A
S224002AA04FF000021A800C2020F0C6FF83B2002B00F00A819DF8A33013F0040F08D142F6CB
S224002AC0084CC1F2000CBCF800300133ACF800300C2020F0B1FF83B2002B00F0A18240F261
S224002AE052339F4240F2B2849DF8A38018F0040840F0AC8442F63E40C1F200000288531C75
S224002B0012B29BB2B2F5617F038082F2B0820A2B02F09B8240F21808C1F2000898F80030DE
S224002B2013F0400F14D142F61040C1F2000003680A2B0DD92EF0CEFD46F24073C4F6A33334
S224002B409842C2BF98F8003043F0400388F8003040F252339F4240F24083052029F094FDD3
S224002B60DBF8003005209A6801329A6029F0F8FDBDF89C3093B9BDF89A30BB429CBF042122
S224002B80A9F832100AD9B9F832303BB1013BDFF8A8299BB25386002B02F063826C2020F0C3
S224002BA04BFF83B2002B00F0E082052029F06CFDDBF8003093F8402022F07F0283F8402011
S224002BC0DBF8003093F8402042F07E0283F84020DBF800309E87052029F0C2FD672020F0B9
S224002BE02BFF83B2002B40F0BB8242F6C43CC1F2000CBCF8002022B1B9F82C203C2A02F0E6
S224002C007A8742F60A40C1F20000038813F4807F0AD0DBF8003093F94030002BA4BF002160
S224002C20A9F82C10C0F283850B20032121F09AFADDF820C09CF80030002B40F02284B9F8D9
S224002C40303003F00302032A00F0468403F01F021F2A3ED0B3B1013B9BB2A9F8303023B9FB
S224002C60DFF8D4384FF434721A8643F22016C1F2000696F85630012B04D996F85730002B62
S224002C8001F07582052029F0FFFC42F6024343F28C2CC1F20003C1F2000C1A7842F65240D3
S224002CA0BCF80030C1F200005A40037852FA03F313F0010F04D0DBF80030DA6A0132DA6284
S224002CC0052029F04DFD45E40C20012120F0F4FCF0E6FEF737FDB9F83030BBE70E2B00F015
S224002CE0A482C0F028820F2B7FF497AD9DF889200E2A00F04185002150462DF0FBF89DF8D6
S224002D00893098423FF47EAD1F982BF0C1FF38462BF0BEFF1EE4C92B00F07F8300F2B680C5
S224002D20202B7FF47AAD012389F82F3075E5239820F04F402BF0ACFF38462BF0A9FF09E4FD
S224002D40022B3FF4DCAC032B5ED0012B7FF465AD0D9800283FF461AD9DF88960002E7FF44C
S224002D60D0AC002F01F0278038462DF005F9064600209DF86880FEF725F806994FEA18186F
S224002D8008F11008009001914046042101224FF0FF330296B04620F0A7FA91E4FEF7F8F823
S224002DA08BE503F08FFE80E526F04F48404623A91FF0ECFA239B06F04F461E4347462396D5
S224002DC0FFF7DEBB002021F0F1FF10F4004F7FF40BAE0220FDF7F6FF42F65441C1F2000133
S224002DE0074608682DF0C8F84FF08073019302900122182004214FF0FF33009720F074FAD6
S224002E004FF001023280EFE50C9B002B40F0C6879DF88920012A41F25B85032A01F0478530
S224002E20022250460DF196012DF064F802287FF46BAFBDF99630FF2B00F0CE877F2B3FF446
S224002E40E1AC682B05D144F634620023C1F20002137000269DF89600214620962DF002F9C6
S224002E60BDF99630D22B7FF4CDAC43F2201CC1F2000C9CF85630002B3FF4C4AC8CF8566096
S224002E80022346468CF85730B04619E4FD2B00F08880FE2B7FF4C1AC9DF88960002E00F0B9
S224002EA0BE8350460DF1A20101222DF023F89DF88930013B8DF889309DF868309DF8A260AE
S224002EC01A0942EA0313D8B20D2E8DF8A10001F0DD8700F2C784052E02F0158601F22B84A9
S224002EE0022E02F03B8301F26F82002E41F017816FF0010007238DF888008DF8893002211A
S224002F0023462A4622A8209621962DF08BF82946224630468DF8A2602CF028FB42F6F83188
S224002F20C1F200010878224629462CF01FFB02212A462346DFF80C062DF074F842F6D8329B
S224002F40C1F200021078294622462CF00FFB8DF8A26044F61843C1F20003985D2946224694
S224002F602CF004FB9DF8A2600136F6B2012E8DF8A260EED9002F00F09B8338462CF0FCFF6C
S224002F800646219B06999DF8A10000930191002101224FF0FF330296B04620F0A5F9FFF743
S224002FA08FBB9DF88930032B7FF42CAC01220DF1A1015046CDF814C02CF09CFFDDF814C0A9
S224002FC0504662460DF196012CF094FF9DF88930033B8DF88930BDF896301AB2002ABFBFB1
S224002FE003F500639BB21AB2ADF89630B2F5006FC4BFA3F50063ADF896309DF8A130042B59
S2240030003FF600AC01A252F823F000BFC14B0000BB4B0000194A000005280000C34900005D
S22400302042F63E4CC1F2000CBCF8003001339BB2282BACF800307FF46DAD0C20012120F093
S2240030403BFBFA202721DFF8F424012320F048FE60E542F60442C1F20002138801339BB2D6
S22400306013801BB2B3F5616F17DD052029F00CFBDFF8D43405201A6892F840306FEA4363BB
S2240030806FEA536382F8403029F06AFBFA202721DFF8A824052320F023FE43F28C2CC1F2B6
S2240030A0000CBCF8003040F64572DB0B96428CBF002303F00103002B3FF4EEACB6F57A7F6F
S2240030C07FF6EAAC9DF8A33013F0300F7FF4E4AC42F6E030C1F20000038823B942F6404118
S2240030E0C1F200010E80013342F6E0329BB2C1F2000213801BB2B3F5E16FC0F2E98742F657
S224003100404CC1F2000CBCF9002006F132019142C0F2D8875A2B7FF4CDAC0C20012120F0AD
S224003120CBFA0B23FA202721DFF8102420F0D8FD9DF8A330C0E49DF88960002E00F07782A4
S224003140042E00F072860021504632462CF0D2FE9DF8893098427FF4D7AD4646FFF753BB86
S2240031604FF03C03A9F82C3062E5052029F08CFADBF80020F44B968740F20402C1F2000288
S2240031809189B14280F02E821A6892F8401021F07F0182F840101B6893F8402042F065023F
S2240031A083F8402017E59DF889204FF00003012AADF8963000F0948299F8233013B19DF8DA
S2240031C0892098E5069A9DF8680002F04F413A46FDF7CEFF9DF889208DE5052029F054FA28
S2240031E0DBF800300520DA680132DA6029F0B8FABDF89C30002B3FF4D1AC9E4224BF0422E3
S224003200A9F83420BFF4CAACB9F83430002B3FF4C5AC013BC84A9BB29386002B7FF4BEACEB
S2240032200A20062120F09EFFB8E44F2025A92CF017FB18B14FF03C03ADF894309DF8892096
S224003240082A7FF458ADBDF8946016F480667FF452AD042250461EA92CF04CFE04287FF42C
S22400326053AD05902EF036FA1E9B059AC31AB3F5967F82F0368450461EA92CF03BFE04286A
S2240032807FF442AD1E982EF02BFA40F2180CC1F2000C9CF80030022043F040038CF80030A9
S2240032A00B2120F013F8219000283FF453A9067046708670C670219B06221A71219B022213
S2240032C05A71219B0D219A1D997156709DF8683031461A0942EA0313D8B2219B01220093A8
S2240032E04FF0807301934FF0FF338DF8A10002961FF0FAFF1E9A43F6802302F57C3202F59C
S2240033009062C0F20903B2FBF3F319B2092046462CF03AFFB046FFF7D3B94FF00003ADF831
S22400332096309DF88930042B7FF646AF99F82E3013F0010F7FF440AF042250461EA92CF0D8
S224003340D9FD042801F0A683BDF99630012B7FF433AFD9F858301E980026834289F82F6045
S22400336040F092879DF8A2308BB9FDE19DF8A1200B79D3180B719DF8A2209DF8A130D31A8B
S224003380DBB28DF8A230002B00F0E7811E981F994A79934238BF1A468DF8A1200B79C918B9
S2240033A02BF0BAF99DF8A1201E9B9B181E931F9B59798A1A5A711F994B79002BD6D14A78BC
S2240033C00B78012043EA02238A7843EA0243CA7843EA0263209328F0FBFE209B1F93CAE7C8
S2240033E09DF88920504600212CF084FD0D9A002A3FF408AA002F01F07B8138462CF0BCFD11
S22400340006469DF8688021F00FFE069B4FEA181808F1100800900193B6E49DF889204FF06A
S2240034200003022AADF8963000F0498799F82330002B7FF4C4AE069B3A469DF8680003F028
S2240034404F41FDF795FE9DF8892054E442F63E424FF00001C1F200021180FFF75BBB05206B
S22400346029F012F9DBF80030012283F84020052029F076F942F60440C1F200000680FFF7CA
S224003480EEBA03F05BFA10F4805F00F0D48242F21003C0F2000300EA0303002B00F066851C
S2240034A000F00C03042B14BF05230623DDF820C09CF800209A423FF4C2AB244A47F21850C1
S2240034C0C0F20300137000EBC302516D0020926D2EF020F9FFF7B3BB42F63C41C1F200011E
S2240034E00B78022B01D0FEF7D5FA4FF0FF3030F0EBFD42F6F433C1F200031A88C0F38F0C07
S2240035000FFA8CF011B2C1EB000E0EF1030EBEF1060F9CBFA3F800C0B9F830307FF696AB53
S224003520884240F3418604321A80B9F83030FFF78DBB00BF0C2C001004020010C875030046
S224003540462A001096340010782A0010F92B0010DF2A41F34980042E08D0504632462CF0EC
S224003560C9FC9DF8893098427FF4CEAB042250461DA92CF0BFFC04287FF4C6ABBDF8963089
S224003580FF2B0BD142F64E40C1F200000278032A04D99DF88820022A02F07183D8B21EA983
S2240035A02CF02AFD9DF888301E9A192B01F0B6861A2B02BF1D9B22EA03031E9304D0022BCB
S2240035C004BF1D991E9100D01E9980B210B98A423FF418A99DF8960046462CF0B3FDB04603
S2240035E0FFF76EB8D189B14280F00E821A6892F8401021F07F0182F840101B6893F8402038
S22400360042F0510283F84020FFF7E5BABDF8702002F00701C8B2C2F30222FFF72CB8002123
S224003620504632468DF8A2102CF064FC44E431460920CDF814C02CF0A7FD219620962EF018
S22400364049F804212A4623461D901DA82CF0EAFC21982AF0D7FFDDF814C08DF8A20009230D
S224003660604604218DF8A1301FF030FEDDF814C0209000283EF46EAF9DF884300622037033
S2240036809DF8853043709DF8863083709DF88730C370209B21931A71219B073283F805C03C
S2240036A0219B9A719DF8A220DA71002F7FF465AC464666E442F64A4CC1F2000CBCF80030A2
S2240036C001339BB2ACF800301BB2962B7FF78CA94FF000003080662023F074F9FFF784B92F
S2240036E099F82E6016F001067FF466AD50460DF1A1018DF8A130ADF896202CF0FBFB9DF885
S224003700A130012818BFADF89660BA2B1CBF0020ADF896007FF450ADBDF89630012B01F015
S2240037200F87002B3FF448AD4646FFF76CB8B9F82C30013B9BB2A9F82C30002B3FF474AAE6
S224003740382B7FF475AA43F2A022C1F20002138843F020031380FFF76BBAD9F858201E9B22
S2240037609A4238BFC9F858304FF0F0014646A9F80010B046FEF7A4BF07211FF0A7FD2190E1
S22400378000283EF4E7AE0026067046708670C670219B4FF006001871219B0E225A712199BC
S2240037A0504606312CF0A6FB0E287FF4ADAA304601212CF023FA2090002801F00B83219B96
S2240037C0C0F3072218705A70C0F30742000E9A70D87021982AF016FF9DF868308DF8A2001E
S2240037E01A0942EA0313022008218DF8A1301FF06DFD209000283EF4ADAE9DF884304FF058
S224003800060103709DF88530022243709DF8863083709DF88730C370209B21931971219B96
S2240038205A71219B0E329A719DF8A220DA7101228DF8A220002F01F0378038462CF09CFB9D
S2240038409DF8A2200646219B9DF8A1000093069B002101934FF0FF330296B0461FF044FD96
S224003860FEF72EBF1E2E02F08F8200F2C883142E0AD000F283830E2E02F0BD82112E7EF4A3
S224003880C1AF3946FDF70CFC42F6C432C1F200021388002B3EF4B6AF42F61843C1F20003AF
S2240038A0196842F6464CA1F50811C1F38F11C1F2000CACF80010062009B246462CF064FC59
S2240038C0B046FEF7FDBE4FF00000ADF898003946DFF8940A2DF042FD3221002028F03AFCB0
S2240038E042F6C431C1F200010B8833B1FA200321DFF8782A3B4620F0F3F90FFA88F101298B
S22400390002F0D4820120092120F02CFC42F63442C1F20002935BFFF747B8BDF89630A3F182
S224003920800292B25F2A40F2908030460A211FF0CDFC219000283EF40DAE0023209003706C
S22400394043708370C370219A06211171219A5371BDF896301AB27F2A42F39882DF2A02F369
S2240039607A824FF0000CCDF81CC021980023209300283EF447AF2AF045FE9DF868308DF86C
S224003980A2001A09022042EA031301468DF8A1301FF09CFC209000283EF4DCAD9DF88430D9
S2240039A0062203709DF88530022143709DF8863083709DF88730C370209B21931A71219BD4
S2240039C004225A71219A9171931D9DF8A22052185A70079818B14FF0FF01ADF89610981C53
S2240039E00DF19601022233F08FFB002F00F0678238462CF0C1FA0646219B069A9DF8A10021
S224003A0000930192FFF7C3BA118AB14280F0E6831A6892F8401021F07F0182F840101B6867
S224003A2093F8402042F03D0283F84020FFF7D3B84646FEF738BE42F6F831C1F200010B78BA
S224003A4013F0020F12D0072330E5D8B22BF0FAFE2190002885D1209023460DF1960031463C
S224003A602A462CF0DFFA012307937EE700F00C03042B14BF0123022318E599F82F30002B57
S224003A8041F0468408980378002B41F0398400214FF4FA7201202DF03DFE002303202393AD
S224003AA01EF08EFD44F2000343F28C2CC4F20203C1F2000C9A6CBCF8001002F07F4201F05A
S224003AC0070141EA0202DFF8A88804469A640A264FF080456FF055074FF0550A00200A2183
S224003AE028F038FB239BB3FBF6F206FB123212B92F7285F808A00133B3F5167F239301F232
S224003B00EF8398F80030002BE8D0012002F07CFE2AF09EFD002105466FF006001FF0CCFDA0
S224003B2001216FF001001FF0F1FCA5F10A03DFF84488DBB24FF00002012BA8F8002041F2CF
S224003B40B084DFF83458462029462BF089FE0146002800F0C1814FF000032B80682001211A
S224003B601FF0D4FC42F6F63CC1F2000C9CF800106FF003001FF0CAFC4FF080436FF05502A5
S224003B801A7242F6F630AB321A72C1F20000038813F4005501F0EF82C3F3C12359000131AC
S224003BA06FF005001FF088FD6A2001211FF0AEFC2AF04EFD0F280646054688BF47B20DD84B
S224003BC047B2012111FA07F248F2A013C0F2000302EA030313B16B201FF098FCDFF894A729
S224003BE04A2051462BF03CFE002800F06A814FF00001AAF800106D2000211FF087FC4FF0F6
S224003C0080436FF055021A72AB3200201A728DF8A3001EF081FD0F2E824640F27F81BAF577
S224003C20616F06D840F252339C4202D901238DF8A3300D2000211FF069FC40F20402C1F238
S224003C400002137843B19DF8A370002F01F045840D2001211FF030FD4FF080436FF055020A
S224003C601A7242F6842CAB321A72C1F2000C03F14043102DCCF8003040F2378142F6F636AD
S224003C80C1F20006378817F4005F41F0F98344F20003C4F202036FF00300D3F848A01FF078
S224003CA0CBFE42F6F631C1F200010B8807EA0A0700EA03067E4041F0838303201EF080FCF9
S224003CC040F25236B44294BF00240124B04294BF00260126A6421FBF42F68421C1F20001AA
S224003CE00B6843F0010318BF0B60B8F8003013F0030F41F0188303201EF062FC40F25233CC
S224003D00984294BF00230123A34208D03BB142F68420C1F20000036843F0010303600020CD
S224003D2001464FF4FA722DF0F5FC022000211FF0C3FC44F20003C4F202035A6C12F00100AC
S224003D4017D143F28C2CC1F2000C9A6CBCF8001002F07F4201F0070141EA02029A64962170
S224003D6028F0F8F9012020F015FA0446002801F06C83002001462FF0FFFD44F20003C4F232
S224003D8002035B6C13F0010F02D10B2D01F067832BF044FE002028F077FAFEE79DF8892030
S224003DA0002150462CF0A6F846460020FDF738FBB046FEF785BC4646FEF7DABF00213246DB
S224003DC050462CF097F89DF88960B0427EF49CAF9DF88830FEF798BC9DF88920022A08D098
S224003DE0002150462CF086F89DF8893098427EF48BAF022250460DF196012CF07BF8022891
S224003E007EF482AFBDF9962045F2AA539A427EF4F9AC44F634610023C1F200010B704646BA
S224003E202BF0DCFDB046FEF74BBC50461EA932462CF060F804287EF467AF00232193209310
S224003E402DF048FC04211D902A4623461EA82CF0E9F804212A4623461DA82CF0E3F821981B
S224003E602AF0D0FB9DF868308DF8A2001A0942EA0313022006218DF8A1301FF027FA209020
S224003E8000283EF467AB9DF88430062203709DF8853043709DF8863083709DF88730C37013
S224003EA0209B21931A71219B02225A71219B0C329A719DF8A220DA71002F7FF499AD46463D
S224003EC09AE5BAF8003013F0030F3FF494AE6D2001211FF01BFB92E6B5F90030002BBFF6E8
S224003EE03DAE68201FF012FB3CE66BB201229A4042F21203C0F2010302EA0303B3B144F267
S224003F000003C4F202035A6C42F001025A6440F252339C4294BF00240124ECE6012313FAF1
S224003F2007F717F4134F7FF47DAE78E612F4006F17D067201FF080FD83B25BB10D200E2109
S224003F4020F010F944F20003C4F202035A6C42F001025A6440F252339C4294BF0024012465
S224003F60C9E612F4806F3FF489AEF3E700F00C03042B0CBF04230323FFF798BA152E01F092
S224003F80AF861D2E7EF43EAC032028F07DFB0EAA0B234FF48071D6202FF010FE032028F015
S224003FA0DFFB0D236FF001024FF0000C8DF888208DF88930022123462A4622A8CDF880C00F
S224003FC0CDF884C0CDF814C02CF02CF82946224630468DF889602BF0C9FA0B212A4623465C
S224003FE00EA82CF01FF8DBF80030294693F8400022468DF889002BF0B9FA00F0C9BCCD2EE2
S22400400001F0798000F2FE80642E01F035807F2E7EF4F8AB9DF88920022A08D0002150464E
S2240040202BF068FF9DF8893098427EF46DAE022250460DF196012BF05DFF02287EF464AED0
S224004040BDF9960032F028FB31F0E6FEC4A30CCB32F062F840F20002C3F6F072002331F078
S2240040607DFD32F00FFA0A9ABDF896101060002901F039809DF8A20009B22CF085F80023A6
S224004080209321936FF001038DF8883005338DF8893002212A46234622A82BF0C3FF9DF866
S2240040A0A200294622462BF061FA0DF1960002212A4623462BF0B6FF002F7EF45EAF464672
S2240040C0FEF75FBF0C20FCF707FEAC4BB3F900303C2B7FF41FA8032028F0D6FA08210DF1FE
S2240040E0A3020123D6202FF069FD032028F038FB9DF8A33003F03002D2F1010138BF00219F
S224004100302A14BF0A4641F00102002A41F01D8742F6E031C1F200010A80FEF7CDBC012EB6
S2240041207EF470AB9DF88930002B3EF46BAB50460DF1A20132462BF0DDFE002F01F09A8647
S22400414038462BF019FF06469DF8A1009DF8A210324625F05FF8B046FEF7B2BA42F6B43287
S224004160C1F200021388A8F80030FEF7BFB82DF0B1FAF368984280F0D682B368984240F2C2
S224004180BA8296F85630022B00F2B582092386F85730032386F8563042F658410023C1F272
S2240041A000010B70FEF76EBD043A1A80B9F83030FEF74CBDBDF89A300A22DB05DB0D02FB07
S2240041C003F3FEF78DB99DF89C20642303FB02F3FEF717B900210B46FEF78FB9528AB2429A
S2240041E080F0B9871A6892F8401021F07F0182F840101B6893F8402042F0290283F84020AD
S224004200FEF7E9BCFA2E00F07687FE2E7EF4FAAA42F65942C1F2000216788EB942F6F233EE
S22400422042F6544CC1F20003C1F2000CDCF800001E702AF02DFD42F65440C1F200000660A1
S22400424042F60041C1F20001B1F90030002B40F05F8642F600414FF00000C1F2000146461A
S2240042600880B046FEF72CBA4FF00E03238044480123089003704FF0FF3100204FF4FA72F4
S2240042802DF048FAFDF70DBF9DF8A220504631462BF030FE3B4B8DF8A2609A6D1E9BFFF78A
S2240042A05FBA002020F094FD00287EF4ABAB013020F08EFD00283EF4C7ABFEF7A3BB5046AE
S2240042C025A92BF017FE022804BF0120ADF8960004D0BDF99630012B7FF4A8A800201421FE
S2240042E027F038FF2AF0D0F9030A43EA00239AB29DF88830ADF89220C92B00F0D68342F6C6
S224004300BE31C1F200010B8843F004030B80BDF894301BB9531C9BB2ADF894309A427EF4DD
S22400432071AA0020782127F015FF99F82F303BB9144B012283F82E20042002211FF012FFE3
S2240043404FF000024646A9F80020B046FEF7B8B94FF00303ADF89A300320FDF7D2BE00BF54
S224004360006AF84000000000F8750300C875030000020010CA2B0010F62B0010E02B001083
S224004380F92B001004020010AC480A90BDF8980032F07EF931F040FDA6A30CCB31F0BCFE01
S2240043A040F20002C3F6F072002331F0D7FB32F069F80A990860FDF7E6BD4FF00003ADF887
S2240043C09E300023FDF7FBBD032E01F04E81042E7EF418AA4FF0000C6FF001024FF00103F4
S2240043E09748CDF880C0CDF884C0CDF814C08DF888208DF8893032F0E9FE831CDBB29148B9
S2240044008DF88930049332F0E1FE049B421C9B18DBB28D488DF88930049332F0D7FE049B44
S224004420421C9B18DBB289488DF88930049332F0CDFE049B421C9B18DBB285488DF88930FE
S224004440049332F0C3FE049B00F125029B188DF88930022123462A4622A82BF0E3FD294605
S224004460224630468DF889602BF080F8744832F0ADFE234681B22A4671482BF0D3FD2946B0
S2240044802246A7202BF072F86E4832F09FFE234681B22A466B482BF0C5FD29462246A720B4
S2240044A02BF064F8684832F091FE234681B22A4665482BF0B7FD29462246A7202BF056F890
S2240044C0624832F083FE234681B22A465F482BF0A9FD29462246A7202BF048F85C4832F057
S2240044E075FE234681B22A4659482BF09BFD29462246A7202BF03AF843F26830C1F2000079
S224004500B0F9CC30B0F9CA20524900930EA8A7232CF0A2FC0EA832F059FE2A4681B22346BB
S2240045200EA82BF07FFD43F26831C1F20001B1F9C030A72248490EA82CF08EFC0EA832F07F
S22400454045FE2A4681B223460EA82BF06BFD43F26832C1F20002B2F9D0304049A7220EA897
S2240045602CF07AFC0EA832F031FE2A46234681B20EA82BF057FD15A8032120F053FCA72263
S224004580159B37490EA82CF067FC0EA832F01EFE2A4681B223460EA82BF044FDA722169B25
S2240045A02F490EA82CF058FC0EA832F00FFE2A4681B223460EA82BF035FDA722179B284978
S2240045C00EA82CF049FC0EA832F000FE2A4681B223460EA82BF026FDDDF814C0294660462B
S2240045E022462AF0C3FFD3E1219120918DF8A21086B93AE02A469DF8A10021462AF0B6FFEF
S2240046009DF8A2309DF889200133DBB29A428DF8A23027D9012250460DF1A1012BF06AFC22
S2240046200128E7D020982AF033FB1F982AF030FBFEF782BB006AF84000000000F0010010C4
S224004640A8330010683300108833001008340010C8330010CC750300D8750300D0750300C1
S224004660E0750300209EBDF896000346002801F02A82E6B10026C0B221962BF0E3F80146A3
S224004680219028B120982BF04DFB002841F0F182209B23B19DF8960021462BF0E3FC2198D0
S2240046A018B12AF0F5FA00232193BDF896301BB2D22B7EF4A7A80020FCF758F943F220127B
S2240046C0C1F2000292F85630012B01F0F58243F220110723C1F2000142F6584281F8573066
S2240046E0C1F20002012346461370B046FDF7E8BF4646FEF786BE42F6584CC1F2000C9CF848
S2240047000030002B3FF448AD43F22010C1F2000090F85630022B3FF63FADDFF8703C0822F0
S22400472083F8572038E50A2386F85730012386F85630FEF7A7BA092E00F04E8300F2D38078
S224004740062E00F0BF87082E7EF45CA812236FF001024FF0000C02218DF888208DF88930CE
S2240047602A46234622A8CDF880C0CDF884C0CDF814C02BF057FC2946224630468DF8A260A8
S2240047802AF0F4FE04224FF4D0101EA92AF01CF91E9BDDF814C0B3F1FF3F08BFCDF878C0C1
S2240047A0234604212A461EA82BF03CFC40F204000422C0F21A001EA92AF006F91E9BB3F178
S2240047C0FF3F00F07B87A3F5D013803B1E93042123462A461EA82BF025FC40F21000042255
S2240047E0C0F21A001DA92AF0EFF81D9BB3F1FF3F00F0B887A3F5D0131E9A823B9B1A1D9303
S224004800042123462A461DA82BF00CFC40F20800C0F21A0004221EA92AF0D6F81E9BD8B28F
S22400482003F47F03B3F5981F8DF8A20080F00183142800F0FE8204212A461EA823462BF0F5
S224004840F1FB0020294622468DF8A2002AF08EFE1FB138462BF090FB8046219B9DF8A100F7
S2240048600093069B0021019301224FF0FF33CDF808801EF039FD292025A92AF0F1FF0646B8
S22400488000287DF4BFAF4FF6FF714FF4D010C0F221012AF04FF820962920214646462BF0F2
S2240048A0E1FBB046FDF70CBF4646FEF7CCBF4FF00000ADF896000DF19601504601222BF073
S2240048C019FB9DF88930013B8DF88930FEF7B1BA002150462BF00EFB9DF8892090423EF47A
S2240048E09CAAFEF711BA0A2E00F0E7810B2E7DF489AF6FF001024FF006034FF0000C8DF8C1
S22400490088208DF88930022123462A4622A8CDF880C0CDF884C0CDF814C02BF083FB22463E
S224004920294630468DF889602AF020FE0121022010F09CFB224629468DF889002AF016FEF9
S2240049400521012010F092FB224629468DF889002AF00CFE0621022010F088FB22462946D2
S2240049608DF889002AF002FE0321012010F07EFB224629468DF889002AF0F8FD0421012012
S22400498010F074FB294622468DF889002AF0EEFD9DF8A1303846219E04932BF0EDFA0699DE
S2240049A0049BDDF814C00096019102906146184601224FF0FF3346461EF096FCB046FDF741
S2240049C07FBE062027F060FE4FF6FF714FF40810C0F2230129F0AEFF42F618404FF4081360
S2240049E0C1F2000042F6464142F6594C0360C1F2000CA3F50813C1F200010B808CF800309B
S224004A0021460620209346462BF02CFB062027F0A7FEB046FDF754BEBDF89610002900F031
S224004A20CA8142F64640C1F200000180062009B22BF0AAFB42F6484CC1F2000CBCF9002033
S224004A40BDF996309A4200F0978042F64C40C1F20000B0F900209A427DF4D4AE42F6594111
S224004A6042F6F23242F654430026C1F20001C1F20002C1F200030E70167018682AF008F922
S224004A8042F6544CC1F2000CCCF800604646B046FDF716BE9DF889304FF00100043BADF89A
S224004AA096008DF8A230FEF754BCBDF8943093427DF4A8AE002602200F21209621961EF0F7
S224004AC005FC219000283DF445AD067046708670C670219A06231371219A4FF0040C537146
S224004AE06FF036038DF88830219B22A9981D02228DF889C00493CDF814C032F005FB049BBD
S224004B00DDF814C003F10800DFF88418624632F0FBFAA9F800606FB338462BF02DFA06468A
S224004B20219B9DF86800009320F00F004FF0807340F002000193FEF72ABA2BF0EDF82AF01A
S224004B40A7F8DBF80030FDF705BA612021462AF087FE00283DF41AA94FF000002080002059
S224004B60FDF717B948F2F060C3F66E002CF0B8FDFDF7DEB84646D3E72CF0ACFD45F280138B
S224004B80C0F2010342F6F33290FBF3F3C1F2000299B2137842F61C40C1F20000022B01800C
S224004BA003D009B207202BF0EFFA42F6484C4FF0FF33C1F2000CACF80030BDF9963044E7C0
S224004BC0BDF89630002B51D042F64C4CC1F2000CACF8003042F65441C1F2000108682AF09B
S224004BE057F842F6184042F6544242F64C4CC1F200000023C1F20002C1F2000C016813600D
S224004C00BCF90020A1F50811B2EB911F24D02FB138462BF0B1F9DFF87C3718609DF8683078
S224004C2042F6F2311B09C1F2000142F6C8320B70C1F200020123137042F6CC3142F659422B
S224004C404FF00000C1F20001C1F2000246460880B0461370FDF734BD42F6594CC1F2000C99
S224004C6046468CF80030B046FDF72ABD42F64640C1F20000028812F4004F02BF42F64C4148
S224004C80C1F200010A80A5D042F6184CC1F2000CDCF8002042F64C40A2F50812520A013209
S224004CA0D20092B2C1F20000028012B2B2F5006FC4BFDFF8E42613808CE7464620F042FB87
S224004CC0B046FDF7FDBC43F2201C0A23C1F2000C8CF85730FDF7DEBB5B6A6439CB4003F0D7
S224004CE001035B00DBB2FDF7C5BB742342F6DC300093C1F200000368FA205A78197841EA1B
S224004D0002219A78DB7841EA024242EA036301930121DFF888260323029403941EF0E0FF8A
S224004D20ADF89840FDF73EBB42F6B430C1F200000388B3F5667FBDF40FABDBF80010DFF8F8
S224004D4060264C3113804FF0040CCA186FF0070E01F803C082F801E00EF13A0E82F802E059
S224004D6082F803C062443A60CB5C01339B00D9B20388CB18038000211046102232F0EEF98D
S224004D80FDF7EABA42F6594142F6F23242F65443C1F20001C1F20002C1F200030E70167056
S224004DA0186829F075FF42F6544CC1F2000CCCF80060FDF749BE42F61842C1F2000211686B
S224004DC042F64643A1F50811C1F38F11C1F2000319802BE6219826E46FF001004FF0000C3C
S224004DE08DF88800DFF8BC05CDF880C0CDF884C0CDF814C032F0EAF9431C8DF8893002219D
S224004E0023462A4622A82BF00DF92946224630468DF889602AF0AAFBDFF8880532F0D6F9FA
S224004E20411C89B22A462346DFF878052BF0FAF8AEE5294622468DF8A2002AF097FBE2205C
S224004E401EA92BF0D9F8C3B28DF8A2300BB100231E931EA804212A4623462BF0E3F8F7E4A9
S224004E60DFF84435DFF840C509934FF0FF338CF80030012000214FF4FA722CF04BFCFDF7F8
S224004E80E9B87E2283F84020FDF7D3B89DF88930072B7DF6B7ACDFF81415042250462BF045
S224004EA029F85046DFF8081504222BF023F83FB138462BF061F842F6E432C1F20002106091
S224004EC042F6FC32C1F200021368B3F1FF3F43D0B3F5001F08D342F6D43CC1F2000CDCF8C5
S224004EE000100A2900F0A38042F6FC3023F00F03C1F20000036042F606419DF8A130C1F220
S224004F0000010B704646FCF743F8B046FDF7D8BB42F6F032C1F20002B2F9001004202BF0D0
S224004F2033F901201FF042FF83B2002B3FF491A9DFF88034B3F90030002BBFF68AA9662002
S224004F4021F040FD42F64A4C4FF00003C1F2000CACF80030FFF77DB90026166005202096B8
S224004F60219627F091FBADF894600D366FF001036FF0240002218DF888308DF88900234639
S224004F802A4622A82BF04EF80D20294622468DF889602AF0EBFA04212A462346DFF80C041B
S224004FA02BF040F842F6FC31C1F200010B68DBF800204C33D018D6212A4623462BF032F89E
S224004FC042F6FC32C1F200021368D6331360BDF8943001339BB2012BADF89430C6D9052067
S224004FE027F0BEFB219B42F6E43C00934FF080730193C1F2000CDCF800309DF8A1000293E1
S224005000002102224FF0FF331EF06EF942F6D430E64A42F6E4310023C1F20000C1F200011D
S2240050204646036013600B60B046FDF749BBA3F58010106000F10A0129F07CFCDC4B002242
S22400504046461A60B046FDF73BBB0C2041461EF033FBFA202721D84A43461EF041FEFDF728
S22400506059BD022005211FF07DF8FDF797BD0220FBF732FEFDF74EBD9DF88920022A7DF4E3
S22400508043AE42F64E4CC1F2000C9CF80030002B3DF4B8AB25A950462AF02CFF052027F021
S2240050A0F3FABDF8943042F6B430C1F200000380ADF8963000220AE0DBF80010CB1883F87B
S2240050C04C20BDF8963001339BB2ADF896301BB240F2AB318B42EFDD0520464627F040FB81
S2240050E0B046FDF7EDBA20919DF8A20021462AF0B9FFFEF7C4BF42F64E42C1F20002137879
S22400510023B9FA2E0CBF0526002616700023209321936FF0010302218DF888302A462346BE
S22400512022A88DF889102AF07DFF294622469DF8A2002AF01BFA42F64E4CC1F2000C9CF88A
S2240051400000294622462AF011FA002F7DF415AF4646FDF716BF1A6892F8401021F07F01A8
S22400516082F840101B6893F8402042F0010283F84020FDF730BD29466FF005001EF09CFA8A
S2240051806A2029461EF0C2F9FEF712BDBDF89410FDF725BB0023219320930EB907994B1CFF
S2240051A006200121ADF894301EF086FA062300264FF00A088DF88930022123462A4622A807
S2240051C0219620968DF888802AF02CFF29462246AA202AF0CBF92946224655202AF0C6F9E7
S2240051E03046294622462AF0C1F93046294622462AF0BCF93046294622462AF0B7F93046E0
S224005200294622462AF0B2F90C238DF8883002212A46234622A88DF889602AF003FF219B75
S2240052200D2000934FF080730193414602224FF0FF3302961EF058F8219620968DF88860F7
S22400524002210D362A46234622A88DF889602AF0E9FE5A4831462A4623462AF0E3FE002FB5
S2240052603CD038462AF088FE80469DF86830002023F00F0343F002033C218DF8A13026F0C6
S22400528069FF219B012200934FF080739DF8A100019300214FF0FF33CDF808801EF024F82A
S2240052A001214D202AF070FF0D2001211EF05AFFBDF89630FDF78ABABDF87030079921EA68
S2240052C00303ADF89430FDF77ABABDF87030079840EA0303ADF89430FDF771BAB846C4E7DD
S2240052E042F6C431C1F200010B88002B3EF40DACFA200321304AC8231EF0F2FCFEF705BCCA
S22400530000204FF0553164222CF004FAFEF7BFBB042002211EF026FFFEF7B4BB1D9B1343A8
S2240053201E93FEF751B901200DF1A20126F020FF07281FBF42F68422C1F20002136843F073
S224005340020318BF136001200DF1A20126F010FF0728F8D105200DF1A20126F009FF072807
S2240053601FBF42F6842CC1F2000CDCF8003043F0020318BFCCF8003005200DF1A20126F0C0
S224005380F7FE0728F8D1FEF7B6BC00BF203100105C020010542C00104C2C0010C4750300D2
S2240053A0542A00106C2D00100C2C0010FC2B0010D42B0010002C0010C8750300E875030047
S2240053C045200DF19E012AF04BFA00283AD1BDF89E20120A134642F6F63C44F20001C1F2F8
S2240053E0000CADF89E20C4F20201BCF80020896C06F0070010401140014019421EBF42F668
S224005400842CC1F2000CDCF8001000EA02021CBF41F00401CCF8001044F20001C4F2020171
S224005420896C21F07F410B4332EA03031FBF42F68420C1F20000036843F0040318BF0360E5
S224005440FEF73BBC00231A46C5E70D200E211EF089FE2AF0E3FA204626F016FFFEE7DBF8FB
S224005460003093F94030002BFEF692AC0C2001211EF022F9112003211EF074FEFEF788BC19
S2240054806FF007001EF0D8FA83B23BB142F68420C1F20000036843F0040303603788FEF755
S2240054A0F6BB00216FF003001EF030F8002169201EF02CF800216D201EF028F800216FF045
S2240054C005001EF0F9F800216A201EF01FF8682001211EF01BF8FEF7BFBB0D2039461EF0FF
S2240054E0EBF8331F18BF0123012E0CBF002303F00103002B3EF4B0ABB6F10D0318BF0123F9
S224005500102E0CBF002603F00106002E3EF4A4ABBAF5616F7EF6A0AB0C2039461EF0CCF8F3
S224005520FEF79ABB9DF8943044F6346C03F00203C1F2000C46468CF80030B046FDF7C0B890
S224005540002689F82F6029F013F9BDF89630C9F85860002B7EF4E8A8FDF72EBE0023209314
S22400556021939DF88930002B3DF44CA9012250461CA92AF0BFFC04238DF889309DF87030E6
S2240055806FF001028DF888206B2B00F29382DFE813F0820273026B02620254024A02420260
S2240055A0390229029102210219021102910205029102FB01F1017301E1019102D901D101EC
S2240055C0C901C101BC01B501B001A6018E01870191029102910291029102910291027F01D3
S2240055E0910291029102910291029102910291029102910291029102910291029102910276
S224005600910291029102910291029102910291029102910291029102910291029102910255
S224005620910291029102910291029102910291029102910291029102910291029102910235
S2240056409102910291027B01910291029102910291029102910264015F01570191029102C8
S2240056604F0139012E011D01ED0000232093219328F0E0FF0523ADF892006FF001008DF89C
S22400568088008DF88930022123462A4622A82AF0C9FC294622469DF8A20029F067FF0221EA
S2240056A02A4623460DF192002AF0BCFC28F0ECFFADF892000DF19200FEF7F9BC01331E9351
S2240056C0FFF785B84FF0FF338DF8A2309DF889302BB150460DF1A20101222AF00BFC9DF890
S2240056E0A200002601280CBF022030461CA922461C9620961DF0B2FA6FF001031C988DF867
S224005700883028F07FFF431C8DF88930022123462A4622A8219620962AF084FC224606203E
S22400572029468DF8890029F021FF1C99219828F04DFF9DF8A120219B3846059204932AF004
S2240057401BFC049B0699059A009301910290314610464FF0FF33012246461DF0C5FDB046E7
S224005760FCF7AEBF01331D93FFF74AB842F65421C1F200010988ADF89410234602212A46B1
S22400578022A82AF04FFC294622469DF8A20029F0EDFE9DF870002946224629F0E7FE9DF854
S2240057A08930062B1CD025A802212A4623462AF039FC9FB138462AF0DFFB0646219B9DF897
S2240057C0A1000093069B0193FDF7E1BB42F66220C1F200000088ADF89400CEE74646EDE788
S2240057E01EA804212A4623462AF01CFCE1E743F26C71C1F200010B784A7843EA0223ADF8E4
S2240058009430BAE742F6602CC1F2000CBCF90030DBF80020B3F1FF3F04BF0020ADF89400C5
S224005820ABD0D31893F84C309B00ADF89430A4E742F66022C1F200021288ADF894209CE782
S22400584042F6B433C1F200031B88ADF8943094E74FF46B72ADF894208FE742F6C03042F698
S2240058608121C1F20000C1F200010B78027843EA0223ADF8943080E700201CF04DFF40F64D
S2240058801C4398427FF679AF0420FBF725FA74E743F27C4C0423C1F2000C8CF800306CE7B3
S2240058A0012005210FF0E2FBADF8940065E7052026F0EAFEDBF80020052092F840306FEAAD
S2240058C043636FEA536382F8403026F049FFFA202721DFF89C2605231EF002FA4DE74AF229
S2240058E0CC00CFF6FF70012128F092FFADF8940043E723F097FBADF894003EE7DBF800306F
S22400590093F83F30ADF8943037E71CF051FDADF8940032E743F21453C1F200031B88ADF8BB
S22400592094302AE743F6FC12C1F200025379ADF8943022E743F6C411C1F200010B78ADF869
S22400594094301AE743F6A510C1F200000378ADF8943012E742F60842C1F20002128842F6F6
S224005960084C4FF00003C1F2000CADF89420ACF8003002E742F61441C1F200010B78ADF84E
S224005980943000230B70F8E642F694400623C1F200008DF8893003681E93EEE642F6184C10
S2240059A0C1F2000CDCF80030A3F508139B09ADF89430E2E642F64A23C1F200031B88ADF8F4
S2240059C09430DAE642F64C22C1F200021288ADF89420D2E642F64621C1F200010B78ADF8BD
S2240059E09430CAE643F2201C43F27C40C1F2000CC1F200009CF85B20037843EA0223ADF8D9
S224005A009430BAE64FF0FF338DF870304FF00003ADF89430B1E642F61C22C1F2000213788F
S224005A20ADF89430A9E642F610410623C1F200018DF889300B681E939FE645F2C400C1F26E
S224005A400000026844F24023C0F20F03B2FBF3F3ADF8943091E642F6652CC1F2000C9CF8EB
S224005A600030ADF8943088E643F2AE22C1F200021378ADF8943080E642F6CE33C1F2000317
S224005A801B8842F6CE314FF00000C1F20001ADF89430088071E642F6D030C1F20000008879
S224005AA042F6D0324FF00001C1F20002ADF89400118062E64FF0FF334FF000028DF87030C9
S224005AC0ADF8942059E621462A46219020901DF0C5F820983146012223F02EFBB046FCF7B0
S224005AE0EFBD50461EA92AF005FA04287DF40CA94646FCF788BEFA202121DFF874241EF08F
S224005B00EFF8FDF77EB844F23012C1F2000253694FF00000ADF870003BB1BDF870201B687E
S224005B200132ADF87020002BF7D147F20C52C0F20302127820932193033303FB02F36FF03E
S224005B4001010A338DF8881007928DF88930043123462A4622A82AF065FA052029462246C0
S224005B608DF8890029F002FD4FF00103ADF89630012325E047F2105CC0F2030C1CF80300A6
S224005B802946224629F0F2FCBDF9963047F29C40C0F2030000EB0312966850683146FAF7BE
S224005BA0BFFE301AADF89400234625A802212A462AF038FABDF8963001339BB2ADF8963024
S224005BC007991BB28B42D5DD29462246C82029F0CDFCE84B47F6DC72C1F20002D61A314659
S224005BE01846FAF79DFE301A2346ADF8940002212A4625A82AF016FA22462946C92029F067
S224005C00B5FC47F6B83047F6B811C1F20000C1F20001461A3146D848FAF782FE301A234621
S224005C20ADF8940002212A4625A82AF0FBF929462246CA2029F09AFC2A46022123461CA888
S224005C402AF0F0F9219B38469DF8A16004932AF093F9049B069A02900093019230460021A1
S224005C6001224FF0FF3346461DF03EFBB046FCF727BD209829F00CF82096FEF710BD1D9BE7
S224005C8015A8159329F03AFE42F6DC31C1F200010B689DF8742046461A709DF87520B0467E
S224005CA05A709DF876209A709DF87720DA70B34B00221A70FCF704BD536833B903334646A3
S224005CC082F85730B046FCF7FBBC43F220100423C1F20000464680F85730B046FCF7F0BCBF
S224005CE019236FF001004FF0000C8DF888008DF88930022123462A4622A8CDF880C0CDF8DD
S224005D0084C0CDF814C02AF08DF92946224630468DF8896029F02AFC44F2080004212A4634
S224005D202346C4F204002AF07DF944F20C0004212A462346C4F204002AF074F944F21C00D8
S224005D4004212A462346C4F204002AF06BF948F2080004212A462346C4F204002AF062F999
S224005D6048F20C0004212A462346C4F204002AF059F948F21C0004212A462346C4F20400A6
S224005D802AF050F9FEF704BE9DF88930022B7CF4BBAF25A91A46504604932AF0ABF8049BD8
S224005DA06FF001028DF8882007324FF0000C8DF8892019462A46234622A8CDF880C0CDF8D1
S224005DC084C0CDF814C02AF02DF92946224630468DF8896029F0CAFBBDF8940043F6F4731F
S224005DE0C1F2000303EB800004212A4623462AF019F9FEF7CDBD4FF0020C00226FF00103FF
S224005E006146209221928DF888302A46234622A88DF889C0CDF814C02AF004F9304629462E
S224005E2022468DF8896029F0A1FBDDF814C02A466146234652482AF0F5F89DF8A130384624
S224005E40219E04932AF098F80699049B029000960191184603E7D8B21EA92AF0CDF880B29B
S224005E60079050B91EA804212A4623462AF0DAF8FDF77BBD4646FEF767B90DF196003146F5
S224005E802A4623462AF0CEF8FDF76FBDD8B225A929F0E6FC80B207900028EED125A83146DD
S224005EA02A4623462AF0BEF8FDF75FBD642005911DF0C2FD83B20599002B3DF423AD05201A
S224005EC01DF0FAFBFDF71EBDBDF89430079880EA030212F4C05F3CF495AC42F6F631C1F2BD
S224005EE000010B80C3F3C1235900ADF894106FF00500013146461DF0DFFBB046FCF7E0BB48
S224005F0042F65241C1F200010B7801229A409DF894309DF8941002EA030342F60242C1F2CA
S224005F20000213706FF0040046461DF0C5FBB046FCF7C6BBBDF8942042F6B633C1F2000371
S224005F4046461A80B046FCF7BBBB0C2000211DF0B3FBFA200A232721054A1DF0C1FE42F6CD
S224005F60E030C1F20000B0F90030FDF7D3B800BFC8750300BC7B0010B87900104E2C0010F0
S224005F807C50001042F6644242F67823C1F20003C1F200024FF0FF30D08219689068086360
S224005FA0D0681968486350881968088710881968488743F28421C1F20001096818680968B8
S224005FC0816119684869013048611B68128AA3F84220704770B484B0EC468CE80F003A4B69
S224005FE00D461B68164693F8351093F8342093F8310042EA012193F83620BDF800C041EA30
S224006000024193F83720BDF8024041EA0261039A114093F8302042EA002293F8320042EAD1
S224006020004293F8330042EA0062914204D0002000B204B070BC7047DA7C187D197A42EA13
S2240060400020DA790CEA000C42EA01229445EED15A7D987D997A42EA00205A7A044042EA50
S22400606001229442E3D1197EDA7D42EA0122597E42EA0142997E42EA01621540197BDA7A08
S22400608042EA0122597B42EA0142997B42EA01629542CCD1197FDA7E987F42EA0122597F24
S2240060A042EA014242EA0060197CDA7B304042EA0122597C9B7C42EA014242EA0363984270
S2240060C014BF00200120B3E77832001040F26023C1F2000300221A601A719A60704700BF51
S2240060E030B4434B93F85610002970D18C460C4693F8580063285ED80125844015FA00F01D
S2240061003C4AD58925EA00000443D48193F85900632842D801240CFA00FC14FA00F0D489E0
S22400612024EA00004CEA000CA2F80EC093F857002F4CB0F1070C18BF4FF0010C02280CBF79
S22400614000200CF0010018BB844693F85A00632810D801240CFA00FC14FA00F0D48924EA98
S22400616000044CEA040CA2F80EC009B91961596130BC7047643801240CFA00FC14FA00F00E
S224006180546924EA00004CEA000CC2F814C0ECE7206928B34FF0010CD7E7643801240CFA57
S2240061A000FC14FA00F0546924EA00004CEA000CC2F814C0BAE764380125844015FA00F01F
S2240061C00C4A556925EA0000044354619EE701F1FF3C5FFA8CFC0CF00104CCF3400C87E78E
S2240061E0D4F814C0BCF1000C18BF4FF0010CACE720310010600200102DE9F0410C461546C4
S22400620007460846114642A30CCB30F071F80028A2BF00262046294621DA3F4B18682FF09A
S224006220E9FD0022002304460D4630F065F820B93A4B53F82700BDE8F08140F20002C4F244
S22400624010020023204629462FF03CFE40F20002C3F6907200234FF000062FF033FE00220D
S224006260002330F045F80028B8BF0126F6B2002EDED0294B1C6820462FF0BCFD00220023D4
S22400628005460E4630F038F8002835D140F20005C4F208050026214B53F827002FF0AAFD18
S2240062A040F200020023C4F240022FF00BFE40F20002002307468846C3F6E0722846314600
S2240062C02FF000FE0B460246414638462FF024FF30F090F8124B1B689C4208D045F256539E
S2240062E08000C5F2555383FB0023A3EBE07000F5FE40FF3080119EE740F2000228463146AA
S224006300C4F2100200232FF0DDFD05460E46C2E79999F1BF9A999999F03F0010B4320010D0
S224006320E03F00102DE9F0411D469B781446092B87B28EB201D9BDE8F08195F800802BF04D
S224006340C9F908EB480844F828002B78B7F57A7F03EB430304EB83039F802B783A4603EBAE
S224006360430304EB8303DE802B7835BF0F4A0F4A127F527F03EB430304EB83031A722B787C
S2240063801EB10B4A126892F82F6003EB430304EB830466722B780133DBB2092B2B7001D9B2
S2240063A000232B70AB780133AB70C4E760020010783200102DE9F04F9146F04A42F60C61C6
S2240063C0127889B0C1F20001C4B205920A789B462B23002C8DF81C3014BF2823222322B150
S2240063E0E74A127803EB8203DBB2059A402A01D00F33DBB28DF81D3007A802214A465B465F
S22400640029F010FE002C40F09F810DF12203029344F2010202215B46ADF8222002984A460E
S22400642029F000FE03201CF0CBF809AB23F8040D0493184602214A465B4629F0F3FD44F2E6
S224006440020402214A465B460298ADF8224029F0E9FD00201CF060F90221ADF820004A4640
S2240064605B46049829F0DEFD4FF00301ADF822104A4602215B46029829F0D4FDC14B0121C6
S224006480B3F8C0304A46ADF8203004985B4629F0C9FD46F204025B46ADF8222002214A4642
S2240064A0029829F0BFFD00201CF05AF840F20002C4F2240200232FF005FD2FF09BFF4A464D
S2240064C05B460221ADF82000049829F0ABFD6FF006001DF0B1FA00B22FF08CFC40F2000227
S2240064E00023C3F6E0722FF0EDFC4FF00003ADF81E3005460E460023A34CDDF80880049F7B
S22400650015E0BDF81E0029463246FFF775FEADF8200002215B4638464A4629F083FDBDF879
S2240065201E3001339BB2022BADF81E3017D8053343F4C043ADF8223002215B4640464A4635
S22400654029F070FD636813F0C04FDAD1BDF81E00294632461EF05AF9ADF82000D9E74FF049
S2240065600B04ADF82240894C02214A465B46029829F058FD637D0121ADF820304A465B46A7
S224006580049829F04FFD46F20C01ADF822104A4602215B46029829F045FD248A4A46ADF8AD
S2240065A0204042F60C645B4604980221C1F2000429F038FD23784FF00002ADF82020002B7D
S2240065C03DD10599402937D04FF08002ADF8222002214A465B46029829F024FD059B04988E
S2240065E003F0380203F080031B1143EA4202684B01211B78674D03F0070342EA0303ADF866
S22400660020304A465B4629F00DFD029E812444F4C0430221ADF822304A465B46013430465B
S22400662029F000FDA4B2284602214A465B4629F0F9FC0235842CEAD109B0BDE8F08F43F265
S2240066408411C1F200010B78002BBAD00023DFF848A1CDF80C90994649F4C04303F5807366
S224006660ADF82230039A5B460298022129F0DAFC43F2C212C1F2000242F60C641688C1F27D
S22400668000042778C6F303264FF00003ADF82060ADF82230002F52D0002200234FEAC90872
S2240066A000258DE80C00C9EB080810E043445AF823002FF08FFB0B4602469DE803002FF096
S2240066C04DFA0135ABB2BB428DE803000BD2741EA4B223B2B3F1FF3F18BFA6B2E6D10624DA
S2240066E023462646E2E7ADF82270ADF820407B007F01F81A2FF07EFB02460B469DE80300F5
S2240067002FF00AFD1BA30CCB2FF0DCFB2FF09AFE43F28414ADF81E0002215B460DF11E009C
S224006720039AC1F2000429F07DFC09F1010923781FFA89F94B458FD8DDF80C9041E7002183
S22400674000228DE80600D2E72AF0C4FF09AC48F2000124F8021D069002214A465B46204686
S224006760029429F05FFC06A804214A465B4629F059FC4DE6D147FF3F471F7DF4C434001030
S22400678084310010683300108C320010642C00105035001048350010D031001070B5C0B24C
S2240067A0012888B00D46144615D010D2144B6E465A68144968462AF04FFB684630F006FDEA
