S017000042696E732F4D323034362E434255472E73726563EA
S224000000DC7F0010E5000000C9000000CD000000D1000000D5000000D90000000000000076
S22400002000000000000000000000000049050000DD0000000000000019050000B5F10300C9
S224000040E1000000E1000000E1000000E10000002111040091020400790104006100040067
S22400006049FF0300E1000000F51804007D170400E1000000E100000005100400E1000000EA
S224000080E1000000CDEE0300E1000000E1000000E10000000D1C0400E1000000E10000002A
S2240000A0E1000000CD0A0400E1000000E1000000E1000000E1000000E1000000E100000039
S2240000C0E1000000D50A0000FEE700BF00BE7047FEE700BFFEE700BFFEE700BFFEE700BFB2
S2240000E0FEE700BF234A24498A420AD22348002350F803C042F803C0043302EB030C8C453B
S224000100F6D3264826494FF000028842B8BF40F8042BFADB4EF2FF124FF08043C0F2F5522A
S2240001205A6003221A706FF055021A72AB321A721C4880F30988124B124A19681160124A37
S2240001409A4205D91149096843F8041B9342FBD30F4B0BB100E000BF0E4B13B100E000BFA7
S224000160FEE70D4B13B100E000BFF9E700F058FAF6E700BF00000010FC010010B8D504006E
S224000180847A001024410010DC7F001000000010000000000000000000000000FC0100104F
S2240001A090510010847C001000000000000000000000000000000000000000000000000039
S2240001C000000000000000000000000000000000000000000000000000000000000000001A
S2240001E00000000000000000000000000000000000000000000000000000000000000000FA
S2240002000000000000000000000000000000000000000000000000000000000000000000D9
S2240002200000000000000000000000000000000000000000000000000000000000000000B9
S224000240000000000000000000000000000000000000000000000000000000000000000099
S224000260000000000000000000000000000000000000000000000000000000000000000079
S224000280000000000000000000000000000000000000000000000000000000000000000059
S2240002A0000000000000000000000000000000000000000000000000000000000000000039
S2240002C0000000000000000000000000000000000000000000000000000000000000000019
S2240002E000000000000000000000000000000000000000000000000000000000F1F1F1F135
S22400030000B58AB00AA8362340F8143D41F6F173C1F6FF736946984701980AB000BD00BF34
S2240003204CF20003C4F20F034FF40042C3F8C42040F24012C5F20042C3F8A82140F2004216
S224000340C0F20502C3F8AC214CF20002C4F2020200219162D3F8882012F0007F08D001225A
S224000360C3F88020AA22C3F88C205522C3F88C204CF20003C4F20F030022C3F88020AA22BA
S224000380C3F88C205522C3F88C20D3F8A021194642F02002C3F8A021D1F8A0214CF200038D
S2240003A012F0400FC4F20F03F6D041F60032C0F2B70201219042C3F80C1129D8D3F8A0212C
S2240003C042F02002C3F8A021D3F8A0114CF2000211F0400FC4F20F02F6D00123C2F80C3194
S2240003E00023C2F804313A23136041F60033494AC0F2B703136041F6FF33C0F2B7034FF026
S2240004008042536040F20103C8F200031361704742F20042C0F2F402904258D040F23102C7
S224000420C0F20202C3F884204FF0AA0C5522C3F88CC0C3F88C20C3F88010C3F88CC048F23C
S224000440004CC1F2D77CBCFBF0F00328C3F88C2035DD9CFBF0FC4CF66B230CF1FF32C6F6CD
S2240004605F33A3FB0213DB0D1B03013843F03A03284A4CF20001C4F20F01C2F800C0C1F8D9
S22400048004010B60D1F888204CF2000312F0806FC4F20F03F6D00322C3F88020AA22C3F8AF
S2240004A08C205522C3F88C20D3F8882012F0007FFAD04FEA1C131B0143F0FF039FE74EF270
S2240004C0001C44F23A030320C0F2F55CD0E7D3F8A02142F02002C3F8A021D3F8A0114CF295
S2240004E0000211F0400FC4F20F02F6D00123C2F80C310023C2F804313A23136042F20043A4
S224000500044AC0F2F403136042F2FF43C0F2F40375E700BF9051001072B6EFF3088020E9A6
S224000520F00F2A4981F308884FF000014DF804ED62B637F033FE72B65DF804EBB0E8F00F57
S22400054080F3088862B6704772B6EFF3088020E9F00F1E4981F308884DF804ED62B637F04A
S224000560A7FE72B65DF804EBB0E8F00F80F3088862B67047DFF820C0084A944509D9002315
S22400058052F803E041F803E0043302EB030EF445F6D88047FEE700BF584F0400184D040052
S2240005A039F0E6F872B60A480A490B4AA2EB0101A0EB01000246A2F1080282F308880146C1
S2240005C040F00100FFF7D6FFFEE70000847C0010DC7F0010184D0400584F040000B581B0C0
S2240005E001200DF1030136F03DFF9DF8030001B000BD00BF00B5094B81B0B3F90030009006
S224000600022B06D00220694636F048FF009801B000BD0820694636F041FFF7E74A2A0010EF
S224000620A14BA24AA24D1A6081B001262E703EF0E9FCA04A002717809F4A4FF00201118007
S2240006409E4A9F4C16709F4A4EF2001016709E4AC0F2F55017709D4A267017709C4A1770A6
S224000660FFF75EFE38463EF00FFD36F0A1FD41F017FB41F0E1F940F081FD40F0D5FB237810
S224000680002B40F00181052039F0CCF84CF22003C2F209034FF48032DA613BF081FD40F23A
S2240006A0CF76071D0023B34206DD3BF079FDB84204DC0023B342F8DC0133F4E74CF22003FA
S2240006C0C2F2090300204FF480329A614FF4165102463FF0C1FA01204FF4E13100223FF0A2
S2240006E0BBFA7C4F02204FF4165100223FF0B4FA03204FF4165100223FF0AEFA002639F095
S22400070033F8B84602E00136072E10D0BB5D73B11846009336F0CCFD009B08EB0312127D2F
S2240007200A2AF0D11846022136F07CFDEBE70120032136F031FE0023674A2B70013313700D
S22400074013785BB14CF20003C4F20F034FF47061C3F8C01030BF10780028F9D10023237036
S22400076041F02EFB4CF220031022C2F20903DA614CF24003C2F20903DA611A6842F010024A
S2240007801A603FF019FE40F0F9FB40F07BFD3EF077FF41F0BBF93EF013FC4CF20003C4F20B
S2240007A00F03D3F8A82012F4007F08D00122C3F8A020A932C3F8AC205522C3F8AC204CF2F6
S2240007C00003C4F20F030022C3F8A020AA215532C3F8AC10C3F8AC20D3F8800020F00200FF
S2240007E0C3F88000C3F88C10C3F88C20D3F888104CF2000211F0007FC4F20F02F6D1D2F880
S224000800803023F00103C2F88030AA23C2F88C305523C2F88C30D2F888104CF2000311F0CD
S2240008208071C4F20F03F6D1C3F80C11C3F80411C3F8A01138F0F0FF0A2807D14CF240037D
S224000840C2F209035B6913F0080224D04CF20003C4F20F034FF40072C3F8C4204EF600521B
S224000860CEF20002116941F0040111610922C3F8C02030BF4FF080436FF055021A7256320E
S2240008801A7238F075FFFEE7384640F025FA304640F022FAF7E64FF080436FF05501197298
S2240008A01A7238F065FFFEE7442A001094510010AD2B0010782B00104A2A0010AC2B0010BD
S2240008C0A82B0010482A0010B02B0010302A00104D2A0010584F04004C2A001042F6442302
S2240008E0C1F20003196800228A801968CA8019688A601968CA6019680A611B685A617047CE
S224000900054B1B8833B9054B1878002818BF022000B270470120FBE704020010013500102A
S22400092001F1030C1CEA210C38BF8C464FEAAC0CBCF1000F30B415DD0B4B04681B689C420F
S22400094010D1002304E050F823209D00A24207D101336345F7DB98004042401830BC704703
S2240009606842FAE70020F8E7000000102DE9F04FC74C8FB0C0B201230A9084F85B300028D2
S22400098040F0BE802368D220DFF804A3636039F0D1FC002800F0C48000255346012603F8F4
S2240009A0405F8AF856600D90B2460B950C9509930DF134080DF13B070DF130090DF12C0B03
S2240009C02E460122404639463AF068FD01281EBF2C208DF83B004FF0000A00F087800C9BEE
S2240009E01BB3002049465A4639F018FB33B2062B15D8DFE813F0E700DE00F0000700F90017
S224000A00C200A1004FF000030C9884F8403038F0DDFE05B2142D40F3F9804FF0000A0C9808
S224000A2039F06AF800230B930C930136B6B232B2072A21DD0021012384F856302161616189
S224000A408C46206808910090A06892490190E068CDF81CC002900998039094F85800049073
S224000A6094F85900059094F85A000690802039F027F90FB0BDE8F08FBAF1000FA1D1072A52
S224000A80D8D10A980223824D84F85630002840F0EE8094F858307E4A632B00F2C680012186
S224000AA011FA03F351690B43536194F85930784A632B00F2C780012111FA03F351690B43AB
S224000AC0536194F85A30724A632B00F2C880012111FA03F351690B4353612368D4F814C0B9
S224000AE06360216994F856300722AAE79DF83B002C283FF474AF49465A4639F08FFA96E700
S224000B000023D22084F85C302376236084F85530DFF87CA1636039F00DFC00287FF43CAF27
S224000B200A9A8AF856008AF85B00002AA1D0CAF81000CAF814009CE70C9B002118790A220C
S224000B4018183EF0B7F9C0B2A0F11003DBB2532B84F85A007FF661AF43F21012C1F20002FA
S224000B6092F8583083423FF458AF92F8593083427FF455AF4FF0000A51E70C9B0021187936
S224000B800A2218183EF096F9C0B2A0F11003DBB2532B84F859007FF640AF43F21012C1F2D3
S224000BA0000292F8583083427FF439AF4FF0000A35E70C9B002118790A2218183EF07AF941
S224000BC0A0602CE70C9B002118790A2218183EF071F9206023E70C9B002118790A22181871
S224000BE03EF068F9E0601AE70C9B002118790A2218183EF05FF9C0B284F858001038C0B2E5
S224000C0053283FF60CAF4FF0000A08E72A46484621493AF043FC43F21010C1F200004519F5
S224000C204FF0000285F84020F9E60121643B11FA03F311690B43136194F85930144A632BB3
S224000C407FF639AF0121643B11FA03F311690B43136194F85A300E4A632B7FF638AF0121BA
S224000C60643B11FA03F311690B43136135E73EF0B9F9EB68984207D2AB6898427FF609AF77
S224000C80032385F8563004E7012385F8563000E710310010D05004005031001070B58EB0C4
S224000CA00AAC22460B23D6204FF4807140F0BEFC9DF829C09DF83000CDF800C09DF82AC088
S224000CC000F00402CDF804C09DF82BC00790CDF808C09DF82CC09DF83100CDF80CC09DF87F
S224000CE02DC00890CDF810C09DF82EC09DF83200CDF814C045F204119DF82FC0C0F204016B
S224000D009DF8283009900120CDF818C038F0D8FF05238DF8283003206FF075038DF82930AE
S224000D2036F042FD02222146D62040F0D7FC02250020012136F08AFA01262A462146D620BE
S224000D408DF828508DF8296040F0C8FC0020314636F07CFA1F232A462146D6208DF829306F
S224000D608DF8286040F0BAFC0020314636F06EFA00238DF82830D620372321462A468DF8AA
S224000D80293040F0ABFC032036F08EFD0EB070BDF0B58FB00BACC5B2032036F005FD22469A
S224000DA00B234FF48071D62040F040FC032036F07BFD9DF82F3045F2401200939DF82E30A6
S224000DC0F92001939DF82D30272102939DF82C30C0F2040203939DF833300B2604939DF8FE
S224000DE03230002705939DF8313006939DF8303007939DF8353008939DF8343009939DF8F0
S224000E0036300A932B462AF027FD9DF82DC09DF83400CDF800C09DF82EC000F00402CDF80D
S224000E2004C09DF82FC00790CDF808C09DF830C09DF83500CDF80CC09DF831C00890CDF87E
S224000E4010C09DF832C09DF83600CDF814C045F250119DF833C09DF82C300990C0F2040171
S224000E600120CDF818C038F02BFF0121002036F0EDF905238DF82C3003206FF045038DF8B7
S224000E802D3036F091FC02222146D62040F026FC0020012136F0DAF9012521460222D62088
S224000EA08DF82C508DF82D6040F018FC0020294636F0CCF96FF048032146D62002228DF8AC
S224000EC02D308DF82C7040F009FC3846294636F0BDF9224633464FF48071D62040F0A6FBB5
S224000EE0032036F0E1FC9DF82DC09DF83400CDF800C09DF82EC000F00402CDF804C09DF860
S224000F002FC00790CDF808C09DF830C09DF83500CDF80CC09DF831C00890CDF810C09DF891
S224000F2032C09DF83600CDF814C045F290119DF833C00990C0F2040128469DF82C30CDF882
S224000F4018C038F0BDFE102006212AF0E5FE0FB0F0BD00BF2DE9F0475FFA80FABAF1020F76
S224000F6083B000F0C98002238DF808301E238DF80930002301AF0221019300933A466B46D1
S224000F8002A839F08FF83EF02DF85F4B5F4C1B78E846013BDBB2022B98BF6FF00903606011
S224000FA098BFA3600CD95A4B1B6859781A7842EA01229978DB7842EA014242EA0363A360AB
S224000FC00323524D237374233A4663730B216B460AF00109281D4F4E84F80E9039F062F864
S224000FE0052036F0E1FB3368DA88002A5CD09988B1FBF2F22A74D3F808C048F68902C8F609
S2240010008802A2FB0C1C21694FEA5C1C6CF317212161D9680025A2FB01C2C2F34F12E274F6
S224001020120A227519696269BAF1020F61F3172262611A7D3548E275A269596902F07F42B4
S22400104042EA1122A2612577E5762FD0324B027FD3F8C41042EA0122C26193F8C72013217E
S22400106080F82020B3F8C0303A4680F821301A2380F8223010306B4639F014F8B9F1000FE9
S2240010800BD033689D803368DD8033689D603368DD6033681D6133685D61052036F004FC93
S2240010A0019803B0BDE8F0872A74A4E793F83F300577C376184B027FD3F8C41042EA012219
S2240010C0C26193F8C720132180F82020B3F8C0303A4680F821301A2380F822306B461030AE
S2240010E038F0E0FF052036F0DFFB04213A466B460A4838F0D7FFD3E704238DF80830202338
S2240011008DF8093035E700BF3E2C001004020010CC2B0010442A0010583300102C40001005
S2240011202DE9F04FDFF80C81434FD8F800308AB03A680120414938F0C3FDD8F80030B3F548
S224001140806F34BF9A464FF4806ABAF1000F67D00DF1200B0DF10C090023BAF1F00F34BFAE
S2240011605646F02607930893B6B26FF001038DF82430731D8DF8253002215A4607AB09A84F
S22400118038F090FF4FF00D03594607AA0D208DF8253038F043FF284804215A4607AB38F074
S2240011A081FFFEB1386834B2102CA8BF1024A4B225B249462A46A4B238F080FC07AB484638
S2240011C021465A4638F06EFFD8F800303868361B5B1B2818B6B2C5EB0A0AC8F80030386013
S2240011E0002EE0D142F6F633C1F200031C7842F6D433C1F200031868089D3AF091F94FF053
S2240012008073019302900021204601224FF0FF3300952AF0C9FEBAF1000F9DD1D8F80030F7
S22400122023B9074B186808B138F066FC0AB0BDE8F08F00BFC42B0010EC2B0010D4510400CC
S224001240D42B00102DE9F04FC0B288B000270491039005970697344EDFF8D080BA460DF14C
S2240012601C0B06AD05AC0CE00AF1010A1FFA8AFA0FFA8AF901370436B9F1400F08F108084F
S22400128050D06FF001014FF00E028DF81C108DF81D2002212A462346584638F003FF4FF003
S2240012A011032946224611208DF81D3038F0B6FE29462246384638F0B1FE04212A46234635
S2240012C0304638F0EFFE08212A462346404638F0E9FE98E8060033688DE80600802014494E
S2240012E03A4638F0EDFC33685FFA8AF9002BBBD17A1C80200F4938F0E3FC0498069C3AF02D
S2240013000FF909F101024FF0807301930290D2B2039800214FF0FF3300942AF045FE08B011
S224001320BDE8F08F4F46E3E7285000109C480010F4510400105204002DE9F0410D4683B02D
S224001340C4B21021032016462AF020FE074688B306230371042343710223C37113234FF05C
S2240013600008837100F1080380F8008080F8018080F8028080F8038080F8088083F801808E
S2240013803046230943EA04143AF0CAF8E4B24FF0FF330290414620460122009701952AF085
S2240013A003FE22460120054938F08AFC044B012283F8232003B0BDE8F08100BF2452040070
S2240013C0040200102DE9F04F994F94B03B884FF0000A1AB2002ABFBF03F500639BB21AB27D
S2240013E03B80B2F5006FC1BF03F578439BB21AB23B80013AD117490D521853055B0D5C1AF7
S2240014004FF6FF7104F50844C0F22301DFF82492A401CDF844A0CDF848A0554612AE0DF116
S224001420440800916FF00203009A8DF84C30D9F80030944288BF4FF4081401354FF00201D6
S2240014409C428DF84D10EDB272D0204601A9402238F034FB9DF81C3002211B338DF84D30C9
S2240014603246434613A838F01DFE0221324643466F4838F017FE9DF84D103246023989B270
S22400148001A8434638F00EFE42F6A632C1F20002108800284AD09DF81CC00CF119033F2B4E
S2240014A018DC14A9CB1813F84C2CFF2A40F0B18001AB0CF11A0C03EB0C01002305E011F8AB
S2240014C0012B0133FF2A40F0A4800CEB030212B23F2AF4DD4FF0000BBAF1000F14BF002039
S2240014E000F0010038B1B7F900209DF84D300120514938F0E5FBBBF1000F33D13B880AF1EB
S224001500010A01339BB21AB2B2F5006FC8BF42F63C413B80C2BFC1F2000103F578430B80EE
S2240015200F2D1FFA8AFA1FD040347BE78346E5E702213246434613A838F0B4FD0221324620
S22400154043463B4838F0AEFD3A8842F63841C1F200010A8042F6A631C1F200010B8813F09D
S224001560010F47D14FF0010B344B354A1B7803EB43039B001370334B186808B139F0D0FF61
S22400158004460E2103202AF001FD00284DD0062311900371119B05225A719DF84820119BC8
S2240015A0294F1A709DF849205A709DF84A209A709DF84B20DA703A78119B02F00F02129303
S2240015C09E1D9A7100237370129838F0FFF880B2B070000AF07035713878129900F00F00B5
S2240015E041F0807122462AF031FC0FFA8BF014B0BDE8F08F12B201209DF84D30134938F02E
S2240016005FFB42F6A632C1F2000210884FF0010B62E701200E4938F053FB42F6A632C1F2C9
S224001620000210884FF0000B56E74FF0010BDCE73C2C0010082C001068520400BC2B001005
S224001640B82B0010442C0010E22B0010585204003852040003B2022B10B519D0022038F0DF
S2240016605FFA042439F04AF8204635F089FE01340020142135F0EAFD082CF3D10220002196
S2240016802AF00CFF39F03AF8002035F079FEFEE700216FF003002AF0F1FD002169202AF0D5
S2240016A0EDFD00216D202AF0E9FD6FF0050000212AF0F4FE00216A202AF0E0FD01216820B0
S2240016C02AF0DCFD0A2038F02BFA0424CAE700BFF0B504B287B034B1F14B1C8814F48064C0
S2240016E000F02B810024EF4D2B8813F0010F40F0168100200A2135F0A9FD002C00F0AE80FC
S22400170001200246E84938F0DBFA03A839F08AFC0A210446002035F099FD2B8813F0010FBD
S22400172040F0A780002C40F0AC8003200C212AF02DFC0246002800F08E802B88059013F079
S224001740010F40F0F28006231371059B02215971059B00221A705A709A70DA70059B032269
S224001760981D9A7124B1BDF90C300BB1417001E000234370059B002600934FF0807301939A
S2240017806620314601224FF0FF3302962AF00CFC61200DF11A0138F0DBFD002800F088803F
S2240017A0ADF81A6007AE002346F8083D3146162039F00CFF1720314639F008FF03AEB11C6D
S2240017C04C2038F0C5FD18B14FF00003ADF80E306420314638F0BCFD18B14FF00003ADF834
S2240017E00C30BDF80E3013F0020F05D0BDF80C3013F4805300F0188103200D212AF0C6FB4C
S224001800024640B32B88059013F0010F40F0068106231371059B02225A71059B00221A70EE
S2240018205A709A70DA70059B0322991D9A711CB1BDF91030002B7ED100234B70059B002123
S22400184000934FF080730193222001224FF0FF3302912AF0A9FB204607B0F0BD38F0B8F861
S22400186000200A2135F0F2FC2B8813F0010F3FF459AF01208D49224638F022FA002C3FF402
S22400188054AF03A839F0D4FABDF80C10002940F0EA80BDF80E10002940F0E080BDF81010A9
S2240018A000293FF442AF09B2202039F03FFF3CE7BDF81A3013F4805F3FF474AF03200D21C5
S2240018C02AF064FB02460028C5D02B88059013F0010F40F0BD8006231371059B02225A7181
S2240018E0059B00221A705A709A70DA70059B0322991D9A711CB1BDF90E30002B74D100239F
S2240019004B70059B002100934FF080730193BB2001224FF0FF3302912AF046FB4EE701203A
S2240019206349224638F0CCF9E3E60120614938F0C7F9059A07E74A7080E703AE0B20314624
S22400194038F006FD08B1ADF80C400DF11A050C20294638F0FDFC002840F08A80BDF81A3073
S224001960BDF90C201BB29A4280F288800124B11C172038F0EDFC18B14FF00003ADF80E3035
S2240019801620294638F0E4FC00287DD1BDF81A30BDF90E201BB29A42A6BF4FF0FF33ADF818
S2240019A00E30012404366420314638F0D1FC0746E0B9BDF8103013F4805F17D02120314635
S2240019C038F0C6FC08B1ADF810702020294638F0BFFC00285ED1BDF81A30BDF910201BB29F
S2240019E09A4203DA012405E04A708AE74FF0FF33ADF8103002214FF0FF3019F0DBF880B2FF
S224001A00002818BF002403214FF0FF3019F0D2F880B200283FF467AE002464E60120264999
S224001A2038F04EF9059AF3E607AD45F8083D29461F2039F0CBFD2946202039F0C7FD2946DA
S224001A40212039F0C3FD2220294639F0BFFD02E701201A4938F034F9059A3CE709B216204C
S224001A6039F064FE1AE709B20C2039F05FFE10E74FF00003ADF81A30002371E74FF0FF3354
S224001A80ADF80C30002472E74FF00003ADF81A3000237DE74FF00003ADF81A3000239CE754
S224001AA0FA2B0010A62B001090520400AC52040080520400BC520400CC520400C4520400FF
S224001AC0F0B5FC4C4FF6FF73268885B09E420CD0350BADF810503DF085FA45F68023C5F238
S224001AE0C3239842039000F2C2800C2401250DF112062046314638F02BFC0134002808BF9E
S224001B0000250F2CF5D11F242046314638F020FC0134002808BF0025232CF5D1314616202B
S224001B2038F016FC3146002808BF0025172038F00FFC3146002808BF00250A2038F008FC90
S224001B40002840F08780BDF81230D3F1010338BF00232B4240F086803DF044FA46F23F7350
S224001B60C4F6A333984240F2EB80D34C03902388002B40F058814BF2C533C9F2A213A3FB85
S224001B8000C3DA0A4AF6AB23CAF6AA23A3FB02131B0903EB4303DB0044F20755D21ACCF2DC
S224001BA02E2597B2A5FB002504A9432038F0D0FB23882D0C13F0010F40F03F81BDF81030E0
S224001BC003F0FF02172A05DD03F47F4303339BB2ADF81030B3F5006F84BF0323ADF8103063
S224001BE0BDF81230AB4200F0F480002031F08EFABDF8102012F47F4F40F0A680238813F012
S224001C00010F40F02681BDF812309D4200F0988001339D4200F08F8000230293238813F082
S224001C20010F40F01181032031F070FA0120FFF74FFD80B2002800F0F18029B20A2039F0D3
S224001C4075FD002031F062FA01209C4938F038F8012076E04FF00003ADF8123001232B42E1
S224001C603FF47AAF002031F051FA002069E04AF28053CAF63C5344F20752C318CCF22E2238
S224001C800393A2FB03038E4A36051268360D50781178AD1941EA00219078D27841EA004115
S224001CA041EA026144F62512C2F29242A2FB01C0C0EB010C00EB5C0080084FEAC00CC0EB03
S224001CC00C00091A89B201EB1343A2FB03029B1A02EB5302784B92081B88039213F0080F0B
S224001CE040F095809542BFF400AFBDF8103021881BB1013B9BB2ADF8103001F470419B1830
S224001D000B4323806F4C704B25684FF003011980002D7FF4EAAEDF2038F00CFB01460290AF
S224001D20002800F0AF80284628F0EAFC2060674B08221A70D9E6BDF81030BB427FF66CAFC4
S224001D40002000B205B0F0BDBDF812309D42F7D0120AD61CF6B2062E01D9073EF6B2228852
S224001D6012F0010F7FD1DA1FAA423FF755AFDA1DAA42FFF651AF039944F20752CCF22E22CC
S224001D80A2FB010244F62511120CC2F29241A1FB02C1501A01EB50018908C800411A521A63
S224001DA0D2B2B24268D042F29342A91BC9F2492282FB01C09B1B4018C917C1EBA00182FB85
S224001DC00302D218DB17C3EBA20399427FF424AFB6E79DF810304FF4616000FB03F00399A9
S224001DE044F20753CCF22E23A3FB01C345F280121B0CC0F2010202FB13139842BFF4F5AEE5
S224001E0000F5167083422CBF00200120EEE601202F492B4637F054FF039A63E70A2002A93D
S224001E2039F0D4FB0DE72B4B01201A782A4902F0400237F045FF03989DE6BDF81020012052
S224001E40264937F03DFFB9E60120254937F038FFE9E60192BDF81230012022492A46009733
S224001E6037F02EFFCFE601201F492A46009637F027FFBDF8123076E79DF810309F42BFF6B9
S224001E80CBAE5DE74DF2503305A802ADCFF68D230431224640F8083D2B4638F003F905A891
S224001EA041F2EC3220F8042D022122462B4638F0F9F83CE7E02B0010A62B001058530400A0
S224001EC0CC2B0010442C0010F02B0010E22B0010D452040018000010E8520400F852040050
S224001EE05C53040034530400105304002DE9F047A84C85B02378FF2B00F08A80002004A936
S224001F0003AA28F075FE2378064643B100232370049BA14D01336B62039B0133AB62E52081
S224001F2002A939F03DFB01A90446E62039F038FB012802D0012C40F08280984C41F6FF7353
S224001F4022889A4207BF00222280049A039B02BF049A039B0126DFF84892B9F8001011F099
S224001F60080F58D18C4D1EB9696A914200F00281AB6223886A62002B40F08980DFF82482EE
S224001F804FF6FF7A01274FF4C016864DC0F2180A01E00137BFB211223046824937F08EFDE6
S224001FA098F800309A1DD2B2042A25D829792A68090641EA1221049AA868891A2A7B002936
S224001FC0B8BF4942120642EA1022914211D2297A6A68090641EA1221039AE868891A2A7CB6
S224001FE00029B8BF4942120642EA10229142C0F0A98011365645CCD1B9F8003013F0080F15
S22400200040F092804FF00003238005B0BDE8F08701232370F9E70820634937F051FEB9F831
S224002020003013F0080F00F0B0805B4D08206A6AAB6A5D4937F044FE049A039B93E7694604
S224002040E72039F0ADFA009911B942F210710091049A029B9B1A002BB8BF5B428B42A8BF98
S224002060039B08DA039B0198C01A0028B8BF40428842C0F28580494C41F6FF71208888427A
S2240020807FF469AF4FF000012180012663E7DB04DB0C013BDFF80C8103EB031303F5C0102C
S2240020A01122414637F00AFD98F800300633DBB2042B3FF665AF98F80430D8F800201B0660
S2240020C043EA1222049BD8F80810D21A98F80C30002AB8BF52421B0643EA11239A42BFF415
S2240020E04FAF98F80830D8F804201B0643EA1222039BD8F80C10D21A98F81030002AB8BFB8
S22400210052421B0643EA11239A42BFF439AFB9F8003013F0080F3FF478AF204B08201A88A3
S224002120224937F0CDFD70E74FF2F103A6F5C016CFF2F003A3FB062308201A091C4937F0EF
S224002140BFFD5FE7FF04FF0CFE2B18BFC3F1FE0327801EBF47EA4337104B1F80B9F80030AB
S22400216013F0080F3FF451AF22880820114937F0A7FD4AE70849896A99427FF4F9AE44E781
S224002180064B41F6FF7119803FE7049A039B024DE9E600BF2C2C001004020010342C00107C
S2240021A0A62B0010102C001064530400705304009053040080530400A9B004203FF0DEFC27
S2240021C0DFF8E41B0246012037F07AFDDFF8DC2B00231380538042F6BE3142F6C032C1F2B2
S2240021E00001C1F2000242F604400B801380C1F20000DFF8BC9B42F6C43142F6EC3242F6EE
S224002200D43C0370C1F20002C1F2000CC1F200014FF03C000B601360CCF80030A9F82C00F4
S2240022203CF0E0FE0EA9044639F0E0FE2020FEF7E1F90A20FEF7DEF948F20003C4F2080384
S2240022401B6945F2901E0093C1F2000E0120DEF80030DFF8601B224637F032FD0E9BB3F534
S224002260FA6FC3F29D86DFF850AB6120514638F06FF803B21BB14FF00000AAF8000037F016
S2240022802DFC42F6CC31C1F20001DFF82C4B08600246DFF8281B012037F012FD64202146CD
S2240022A038F056F8002843F06E86BAF80000DFF8084B002843F0538628F078F90446BAF8BF
S2240022C0000028F093F92146024602203DF0C4FC42F6CC3CC1F2000CDCF8003042F63E4ED0
S2240022E059781A78DFF8D04A42EA01229978DB7842EA014242EA0363B3F1FF3F0CBF0423FD
S2240023000023C1F2000E8EF800304720214638F01FF8002842F01485238842F6CC3CC1F280
S224002320000CDCF8001048780A7842EA00228878C97842EA004242EA01620120DFF8801A48
S22400234037F0BEFCBAF80030002B43F08E8642F60540C1F2000000240470DFF8681A0820FA
S22400236037F0F6FF20B142F6B431C1F200010C80DFF8541ADFF8540A28F0B0FB0420DFF8D6
S224002380501A37F0E5FF30B142F6E0334FF00002C1F200031A8042F6F03C42F63A4E42F6AA
S2240023A0E3304FF00004C1F20000C1F2000CC1F2000E0470ACF80040AEF800400720DFF853
S2240023C0141A37F0C5FF50B142F60C4142F6E332C1F200010223C1F200020C801370062049
S2240023E0DFF8F41937F0B4FF68B142F6364C42F60C4E4FF00003C1F2000CC1F2000EACF84F
S2240024000030AEF8003042F63642C1F20002B2F9003042F63841B3F5006F4FF0FF30C1F288
S2240024200001C8BFDFF8B0390880C8BF002042F63C41C8BF1880C1F2000100230B8042F6B2
S224002440494C42F6444E42F6E23042F6B831C1F2000CC1F2000EC1F20000C1F200018CF842
S2240024600030CEF8003003700B70BAF80030002B43F0DD8542F64421C1F2000108684FF49D
S2240024807E7137F0A5FC42F64422C1F2000213681868002843F09885BAF8002012F0010FD6
S2240024A043F086859A6972B948F2F452C2F2060242F644211A63C1F200010A6849F641337C
S2240024C0C0F26B5353637F2026A937F041FF002802F05984DFF804290A9200202AF01AFA17
S2240024E044F20003C4F202039B6C42F6502E23F07F43C1F2000ECEF80030032028F0F6F970
S224002500BAF800300246002B44F0FB8645200DF19E0137F01DFF002842F02E849DF89E30F8
S22400252042F6F231C1F200010B709DF89E106FF00400ADF89E1029F0B1FF4FF080436FF0E9
S22400254055021A72AB321A7200202AF071FA42F6E43382B2C1F200031A8012B2002A0CDDDB
S2240025600120DFF87C1837F0ABFB42F6E43CC1F2000CBCF90000FFF76DF842F6442EC1F279
S224002580000EDEF8003093F84020FF2A04F0B48612F0010F0CD102F07E0283F84020DFF8CD
S2240025A044381A6892F8403043F0010382F8403001202AF0AFF942F6FA30C1F2000003887A
S2240025C013F0400F44F0A386DFF81CC80122CDF820C08CF8002042F6FA3EC1F2000E40218E
S2240025E0BEF8003008200091DFF8001837F068FBDFF8FC175C2037F0ABFE42F6FA30C1F273
S2240026000000038842F642411B0AC1F200010B700BB1013B0B70DFF8D8474120214637F0C3
S22400262097FE002842F0CA83238813F0200F02F0C883DFF8C0370993187042F6AE3E002405
S224002640C1F2000EAEF800402146A9F8004089F82E4089F82F4089F82340692029F00EFE15
S224002660DFF8943721461C606B2029F007FE49200DF19A0137F06CFE03B21BB14FF00300D1
S224002680ADF89A005A20DFF8741737F061FE002802F04683BDF89A0000F00700DFF85C47F1
S2240026A000212AF02BFE4620214637F051FE002842F02F832388C3F3C1235B00591C6FF0EE
S2240026C00500ADF89A3029F0E9FE4FF0FF303FF055FA42F6E433C1F20003C0F38F021A80B2
S2240026E0BAF8003013F0010F43F0318442F62C2342F6442E4FF0FF32C1F20003C1F2000EE0
S22400270042F6A431DFF8F85642F6202C1A804FF00000DEF80030C1F20001C1F2000C088024
S2240027202880ACF8002093F84E2093F84C3001200093DFF8D016002337F0C2FA42F6A430A5
S224002740C1F200000388DFF8C076DFF8C066DFF8C086DFF8C0B642F6442EC1F2000EDEF881
S224002760002002EB030C9CF84C10002900F0008140F2AB30834200F2FB804C32D41860782D
S224002780FA2818D1D35C13F0030F40F0E2809B086FF0060242F6A43C42F6442E2370627022
S2240027A0C1F2000CC1F2000EBCF80030DEF80020D21892F84C10A27801200091DFF85816D9
S2240027C037F07EFAA378142B0FD0322B51D042F6A43C2278C1F2000CBCF80030013203EB28
S2240027E082039BB2ACF80030B5E742F62C20C1F20000B0F90030B3F1FF3F1EBF42F6A431B6
S224002800C1F200010B88A6D142F6A43CC1F2000C2B88BCF8002043F00103082A9BB208BF1A
S22400282042F6404E2B8002BFC1F2000E43F00203AEF80030A8F800203C60227842F6A43090
S2240028403E2A08BF2B88C1F2000002BF43F004032B8022780388013203EB8203B3F56B7FDB
S22400286003F2E28442F6A4309BB2C1F20000038071E742F62021C1F20001B1F90030B3F166
S224002880FF3F1EBF42F6A432C1F2000213887FF462AF42F62C2CC1F2000CBCF90030B3F15E
S2240028A0FF3F02F04482211D3160102222A842F08DF942F6442EC1F2000EB8F90030DEF878
S2240028C0002003F114004C32D1181018D25C0132920042F087F9B8F8003042F6442003F127
S2240028E01402A8F80020C1F200003A68016814323A604C311AB2ABF800301E208B1898705A
S2240029000420D87001208854181D306022A9102242F05CF9BBF8003042F6442CC1F2000CB6
S224002920DCF800201BB24C32D1184FF0320088700420C8700918D054316042F6A431D25C94
S224002940C1F200010B88013203EB82039BB20B8001E700238CF84C30A378DFF8C014227842
S224002960012037F0ADF942F6A431C1F200010B8801201A46DFF8A8144FF46B7337F0A0F91B
S224002980BAF8003013F0010F43F03B8442F6202EC1F2000E0120BEF900303222DFF8841439
S2240029A037F08EF942F62020C1F20000B0F90030B3F1FF3F03F0F183DFF86C2400231380FA
S2240029C0DFF8682442F62C4CC1F2000C138002228CF8002042F6B43CC1F2000CBCF800200A
S2240029E04FF004014FF02100C9F82830C9F82430A9F83000A9F83210A9F83410002A43F00A
S224002A00AD83BAF80040002C43F03B842046642134F01CFCADF89840BDF89830002242F6F6
S224002A2024414FF00000C1F20001013321F812009BB229A800EB42024FF00001032B22F805
S224002A40441C1A46EBD942F6E83C42F6C83E4FF0FF33C1F2000CC1F2000E4FF007028CF896
S224002A6000308EF80030442027A9ADF8982037F06FFC002802F046814FF4616342F64840A0
S224002A80ADF89C30C1F20000002303700120FDF76DFF43F21011C1F2000191F856206AB3D0
S224002AA091F8580050B391F8591039B3632803F2D98342F6442CC1F2000CDCF80030D3F83D
S224002AC028C02CFA00F000F00100632903F205849B6ACB4003F001035B00DBB2034301338F
S224002AE09A420BD0012A03F0EF83032A06D143F210110923C1F2000181F8573042F62C22CA
S224002B00C1F20002128842F62E23C1F200031A800420072134F040FC09201D21002234F02F
S224002B2091FC14210A461723C14834F00BFC052389F8543048200DF19A0137F009FC00288E
S224002B4002F0D78040F28E3345200DF19E01ADF89A3037F0FDFB002842F0C7809DF89E30A0
S224002B6019466FF00400ADF89E3029F097FCBAF8003013F0010F43F0308442F6004C0023EC
S224002B80C1F2000CCCF8003042F6F83E42F62E4042F6D03142F6304242F6F43CC1F2000E5D
S224002BA0C1F20000C1F20001C1F20002C1F2000CAEF8003003800B801380ACF80030FEF7F5
S224002BC06DF80DF17C0B20AC21AD9A4834F08EFC172800F0E5811D28F7D1092023A934F021
S224002BE043FBBAF8003013F0010F40F0CA84239E002E02F0248216F0007708BFB84640F026
S224002C00CB843046414629F0FBF8BAF8003086B213F0010F08BFB6B20DD0239B864A13F08D
S224002C20007F864BB6B218BF1346854906F0FF02012037F045F806F00F03012B00F22E8485
S224002C40DDF88CE005222EF04F4306F0010658461AA9CDF818E00C961F9338F01FFC052878
S224002C6040F014849DF86930002B40F00F848DF8A23098469DF86C300C995A1E0D918DF8C5
S224002C806C20002B7BD00222584622A938F006FC0228844640F0FA839DF88830122B00F05B
S224002CA04B8700F2CF800C2B00F2DA830B2BC0F02C8400203221CDF814C034F0C7FA9DF85A
S224002CC089200021584638F0E9FB0320092129F05DF9DDF814C0219000283FF476AF0023C2
S224002CE0037043708370C370219B06221A71219B04225A71219E0B2322A96246B01D8DF8B5
S224002D0088308DF889C041F061FF06F1080360201CA9049337F01CFB049B002801F08580BE
S224002D20032210461146ADF8701002218DF8A21030725A709DF868301A0942EA0313D8B2B5
S224002D408DF8A100002F01F0E881384638F0E8FB06469DF8A100219B9DF8A2200093069B6D
S224002D60002101934FF0FF33029629F01DF9B0469DF86C305A1E8DF86C20002B83D1B9F881
S224002D8000304BB142F6AE3CC1F2000CBCF8003043F00403ACF800301F98002800F083835A
S224002DA036F0AAFE7FE300BFA05304009C2B001004020010B8530400A62B0010D053040024
S224002DC028990400B42B001034500400082C0010E02B00100C2C0010362C0010F001001098
S224002DE080540400442A0010FC2B001090540400FA2B0010E92B0010A02B0010E62B001004
S224002E00402C0010AC540400282A0010242A00102C2A0010202A0010E4540400BC5404005D
S224002E20085504002C550400D82B0010342C00103C02001044500400EC570400E8570400B4
S224002E40F45704001A2B00F20083192BC0F097809DF88960012E42F2D584012B04BF00220E
S224002E60ADF896200AD0022258460DF1960138F015FB022840F00A839DF88960022E01F003
S224002E804F819DF88830012B03D0023E8DF88960F6B2BDF896301AB2111E18BF01217F2AA3
S224002EA0CCBF002101F001011846002901F00280022E0BD000215846324638F0EFFA9DF88C
S224002EC08930984240F0E282BDF89630D8B225A937F03EFA022206461CA9584638F0DEFAC1
S224002EE0022840F0D382BDF996307E2B44DCBDF8943007939DF88830192B02F090871A2BE7
S224002F0002F09A86022B04BFBDF87020ADF89420BDF89620B6B26F2A0B9602F0E3860B9BFE
S224002F20002B42F088800798BDF89410884208BF034607D0D0B209B238F0F8FBBDF89430AD
S224002F40BDF89620012012B2DFF8B01C36F0B8FEBDF99630452B03F0DF82462B03F0C082B7
S224002F60472B02BFBDF894204646AAF800203FF4FEAE682B03F058824646B046F8E6142B84
S224002F8000F09682C0F0F683182B00F019849DF8892058460021464638F080FAB046E7E63D
S224002FA042F6A84E0023C1F2000E89F82330BEF90030B3F5967F00F3E18242F6C430C1F24D
S224002FC000000368002B40F0E48208990B78FF2B2DD055201CA937F0BBF9002840F01D8764
S224002FE0BDF87000089A1378834217D045F23403C0F2040303EBC0010B469A6901204969D1
S2240030003CF010F8DFF8F83B08201A78DFF8F41BBDF8703036F054FEBDF87000089BC2B2C4
S2240030201A70BAF8003013F4807F40F0E88699F85430013BDBB289F85430002B7FF4C5AD88
S224003040DFF8C43B052283F85420BAF8003013F0080F40F0DB8642F6004CC1F2000CDCF8DB
S22400306000300133CCF80030BDF89830002B50D04FF080436FF055021A7242F6122EAB3292
S2240030801A72C1F2000E9EF80030012B1AD942F6B430C1F200000288A2B142F60546C1F217
S2240030A000063278092A0DD8013BDFF8602BFA20192128F0D1FB3378012201333370DFF8F1
S2240030C0503B1A70BAF8003013F0080F40F0A787BDF89860013EB6B2ADF89860CEB94FF0C5
S2240030E00701ADF898104FF06508374642F6244C18AAC1F2000C935B3CF80620934200F017
S2240031004B8718AB01379A530236042F08F10108ECD1B9F800301BB1DFF8EC2A013B13805D
S22400312042F6F036C1F20006B6F90030012B00F34182002BC0F2DD8742F6494CC1F2000CE5
S2240031409CF8003073B342F6E23EC1F2000E9EF80030082B02F03E8242F6B830C1F20000E9
S2240031600378013BDBB20370E3B942F6BC31C1F200010B8801339BB20B801BB2052B01F38E
S2240031808483012B06DD42F63C42C1F2000213880F3B1380BAF8003013F0010F43F0A483E2
S2240031A0FEF710F9002027F04DFC0646032027F09DFBBAF80030074613F0080F40F0218153
S2240031C0002E00F02781032034F0EEFA01230821D6200DF1A3023EF029FA032034F064FB18
S2240031E042F64420C1F20000036893F94030002BC0F2338443F27C21C1F20001B1F9003020
S224003200002BC0F2F88342F6D0324FF00001C1F2000211800C2028F099F983B2002B00F06B
S2240032200F819DF8A32012F0040F08D142F6F83CC1F2000CBCF800300133ACF80030BAF8EA
S224003240003013F0080F40F0CD850C2028F07EF983B2002B00F04F8440F252339F4240F2F5
S224003260C4849DF8A38018F0040840F0BE8442F62E40C1F200000288531C12B29BB2B2F5B9
S224003280617F038082F2CC820A2B02F0CE8240F21808C1F2000898F8003013F0400F00F07E
S2240032A0078540F252339F4240F27483052034F07BFA42F64421C1F200010B6805209A6813
S2240032C001329A6034F0F0FABDF89C3093B9BDF89A30BB429CBF0422A9F832200AD9B9F85D
S2240032E032203AB1013ADFF8201992B24A86002A03F0B7876C2028F029F983B2002B00F0BC
S2240033002983052034F050FA42F64421C1F200010B6893F8402022F07F0283F840200B68D9
S22400332093F8402042F07E0283F840200B689E87052034F0B9FA672028F008F986B2002E76
S22400334000F088844FF03C02A9F82C20DDF824C09CF80030002B40F01B85B9F8303003F086
S2240033600302032A00F0E18403F01F021F2A3DD0B3B1013B9BB2A9F8303023B9DFF88838F6
S2240033804FF43470188643F21016C1F2000696F85630012B04D996F85730002B01F0A98018
S2240033A0052034F001FA42F6F23E43F27C20C1F2000EC1F2000003889EF8002042F642411B
S2240033C0C1F200015A400B7852FA03F313F0010F07D042F64422C1F200021368DA6A0132A6
S2240033E0DA62052034F060FAFFF7EFBBBAF8003013F0080F42F0FC80FEF762FBB9F830303C
S224003400B6E70820DFF80C183A4636F059FC002E7FF4D9AE052034F0C7F942F6442CC1F260
S224003420000CDCF80030012283F84020052034F03BFA42F6F43EC1F2000EAEF80060C2E622
S2240034400C20012129F02AF8EBE6C92B37D000F2D980202B7FF49BAD012389F82F3096E542
S2240034600E2B00F0F181C0F0DA810F2B7FF48FAD9DF889200E2A00F085870021584638F05F
S2240034800DF89DF8893098423FF476AD1F9836F033FB384636F030FBFFF797BB239820F0B7
S2240034A04F4036F029FB384636F026FBFFF78DBB9DF889200120DFF8601736F001FC01203A
S2240034C09DF88920DFF8541736F0FAFB9DF889204FF00000022AADF8960000F08E86012043
S2240034E0DFF83C1736F0ECFB99F8233013B19DF88920C2E7069A9DF8680002F04F413A4662
S224003500FDF71AFF9DF88920B7E7022B3FF4A0AC032B00F02683012B7FF439AD0D980028F8
S2240035203FF435AD9DF88960002E7FF493ACBAF80030D3B907B3384637F0F2FF06460020E9
S2240035409DF86880FDF706FD4FEA1818069908F11008009001914046042101224FF0FF3378
S2240035600296B04628F020FD02E40120DFF8B41636F0A6FB002FDED14646E0E704F06EFD84
S2240035801BE50120DFF8A016239A36F099FBFFF72EBBFDF7C5FD18E526F04F48404623A970
S2240035A027F08AF8239B06F04F461E4347462396FFF727BB00202AF087FA10F4004F7FF424
S2240035C0BBADDFF86816012036F07AFB0220FDF7C1FC42F6444CC1F2000C0746DCF80000F2
S2240035E037F09EFF4FF08073019302900421182001224FF0FF33009728F0D6FC4FF00100F8
S224003600308099E5FD2B77D0FE2B7FF4C0AC9DF88960002E00F0458458460DF1A201012239
S22400362037F03CFF9DF88930013B8DF889309DF868301A0942EA03138DF8A130BAF8003091
S224003640002B40F060869DF8A2600D2E02F0958200F2F483052E02F0A48101F22784022EC8
S22400366003F0698100F2D787002E40F0B5876FF0010107238DF888108DF8893004312346FA
S2240036802A4622A82096219636F00CFD2946224630468DF8A26036F0C1FC42F6E832C1F293
S2240036A0000210782946224636F0B8FC02212A462346DFF87C0536F0F5FC42F6C833C1F279
S2240036C0000318782946224636F0A8FC8DF8A26044F6E44CC1F2000C1CF806002946224610
S2240036E036F09CFC9DF8A2600136F6B2012E8DF8A260EDD902F06BBE9DF88930032B7FF40B
S2240037003BAC01220DF1A1015846CDF814C037F0C5FEDDF814C0584662460DF1960137F02E
S224003720BDFE9DF88930033B8DF88930BDF896301AB2002ABFBF03F500639BB21AB2ADF8F7
S2240037409630B2F5006FC4BFA3F50063ADF896309DF8A130042B3FF60FAC01A252F823F01A
S224003760AD660000A7660000A5650000792F00004D6500009DF889204FF00000042AADF870
S224003780960098BF99F82E3005D999F82E3013F0010F01F077810120DFF8981436F090FA2B
S2240037A099F82330002B7FF4A2AE069B3A469DF8680003F04F41FDF7BFFD9DF889205CE661
S2240037C09DF889205846002137F068FE0D9A002A3FF4D2AB1FB1384637F0A2FE80469DF869
S2240037E068602AF005FB3609069B10360090019330464FF0FF3304210122CDF8088028F004
S224003800D3FBBAF80030002B3FF4B6AB0120DFF82814464636F054FAB046FFF7A9BA9DF81C
S2240038208960002E00F01284042E01F0DA8200215846324637F032FE9DF8893098427FF43E
S22400384025AE4646FFF799BB4F2025A936F080FD18B14FF03C00ADF894009DF88920082AED
S2240038607FF40BAEBDF8943013F4806F7FF405AEBAF8003013F0010F42F04C8104225846CA
S2240038801EA937F00BFE042806467FF4FFAD3BF0A9FB1E9BC31AB3F5967F81F0B786584627
S2240038A01EA9324637F0FAFD04287FF4EFAD1E983BF09EFB40F21801C1F200010B7803204C
S2240038C043F040030B700B2128F060FB219000283FF47BA90021017041708170C170219B02
S2240038E006221A71219B02225A71219B0D209A1D987151709DF8683002911A0942EA0313D6
S224003900D8B2219B012200934FF0807301934FF0FF338DF8A10028F047FB1E9A43F680235B
S22400392002F57C3202F59062C0F20903B2FBF3F319B2092037F0FAFEBAF8003013F0010F9B
S2240039403FF41AAB0120BD49464636F0B9F9B046FFF70EBA052033F027FF42F64423C1F26B
S22400396000031A68968740F20402C1F200029189B14280F0C6811A6892F8401021F07F0102
S22400398082F840101B6893F8402042F0650283F84020CDE4052033F007FF42F6442CC1F21C
S2240039A0000CDCF800300520DA680132DA6033F07BFFBDF89C30002B3FF49CAC9E4224BF97
S2240039C00420A9F83400BFF495ACB9F83420002A3FF490AC013A8C4992B28A86002A7FF456
S2240039E089AC01209649324636F06AF90A20062128F092F97EE442F6F433C1F200031A887F
S224003A00013292B21A80BAF8003013F0010F06D012B201208B4936F053F98B4B1A8812B25E
S224003A20B2F5616F19DD052033F0BEFE42F6442CC1F2000CDCF80020052092F840306FEA3D
S224003A4043636FEA536382F8403033F02DFFFA2027216E4A052327F0FFFE43F27C2EC1F28B
S224003A60000EBEF8003040F64572DB0B96428CBF002303F00103002B3FF4C5ABB6F57A7FCB
S224003A807FF6C1AB9DF8A32012F0300F7FF4BBAB42F6D030C1F20000038823B942F63041D3
S224003AA0C1F200010E80013342F6D0329BB2C1F2000213801BB2B3F5E16FC0F23E8542F64A
S224003AC0304CC1F2000CBCF9002006F132019142C0F22D855A2B7FF4A4AB0C20012128F0C3
S224003AE0DDFC4A4AFA2027210B2327F0B5FE9DF8A320FFF798BB42F62E4CC1F2000CBCF834
S224003B00003001339BB2282BACF800307FF4BFAB0C20012128F0C2FC9DF8A320012002F05C
S224003B2004024A4936F0CCF8FA202721374A012327F092FEFFF7ABBB9DF889204FF0000373
S224003B40012AADF8963000F0E9830120404936F0B7F899F82330002B3FF427AE9DF889209A
S224003B608BE40C99002940F083869DF88920012A40F27386032A00F05982022258460DF17E
S224003B80960137F08BFC02287FF480ACBDF99630FF2B00F06E847F2B3FF4EEA9682B06D1AC
S224003BA044F6007E0023C1F2000E8EF8003000269DF896002146209637F008FDBDF9963098
S224003BC0D22B7FF4D9A943F21010C1F2000090F85630002B3FF4D0A980F856600223464622
S224003BE080F85730B046FFF7C3B842F62E424FF00001C1F200021180FFF749BBA459040031
S224003C00FC2B00101C5B040004020010606F0400122A0010745404007C5A0400905A040024
S224003C20085B040084590400785504006C5B040086340010645A04006C590400045A0400E4
S224003C40545C0400B05B0400F42B0010E85B0400305A04000120DFF8701C36F031F842F68D
S224003C60B432C1F20002138823B1B9F82C303C2B01F0568742F6FA3CC1F2000CBCF80030E2
S224003C8013F4807F0ED042F6442EC1F2000EDEF8003093F94030002BA4BF0020A9F82C0053
S224003CA0C0F284840B20032128F036F8FFF74EBB42F6004EC1F2000E0820DFF8101CDEF869
S224003CC0002035F0FDFF42F60040C1F2000003680A2B7FF6E6AA3BF085F946F24073C4F680
S224003CE0A33398427FF7DDAA98F80030082043F0400388F80030DFF8D81B35F0E1FFFFF73F
S224003D00D0BAD189B14280F0EA821A6892F8401021F07F0182F840101B6893F8402042F094
S224003D20510283F84020FFF703BB42F62C42C1F200021378022B01D0FEF7D8F8BAF8003011
S224003D4013F0080F40F0CB874FF0FF303DF016FF42F6E433C1F200031A88C0F38F0C0FFA14
S224003D608CF011B2C1EB000E0EF1030EBEF1060F9CBFA3F800C0B9F830307FF6F5AA8842CC
S224003D8040F3708704321A80B9F83030FFF7ECBA04F05EF810F4805F00F09F8342F21003F1
S224003DA0C0F2000300EA0303002B01F03A8400F00C03042B14BF05230623099802789A4236
S224003DC03FF4CBAADFF80C2B45F23401C0F20401137001EBC302516D0020926D3BF022F9AE
S224003DE0FFF7BBBA42F6F83EC1F2000EBEF900300120DFF8E41A35F063FFFFF726BA0820C2
S224003E00DFF8D81A35F05CFFFFF711B90820DFF8D01A35F055FFFFF71EB90120052116F018
S224003E20CDFBADF87000FFF7DDB8BDF8702002F00701C8B2C2F30222FEF775BF1E2E03F01B
S224003E40038000F2A286142E0CD000F279850E2E02F04081112E7FF48FA89DF8A100394625
S224003E60FDF7F0F942F6B432C1F200021388002B3FF482A842F60843C1F20003196842F678
S224003E80364CA1F50811C1F38F11C1F2000CACF80010062009B2464637F048FCB046FEF762
S224003EA067BF0021584632468DF8A21037F0F6FAFFF7BDBBDF2A47DD042E08D05846324697
S224003EC037F0ECFA9DF8893098427FF4DFAA042258461DA937F0E2FA04287FF4D7AABDF84A
S224003EE09630FF2B0CD142F63E4EC1F2000E9EF80020032A04D99DF88820022A02F0D082FE
S224003F00D8B21EA937F04CFB9DF888301E9A192B02F0C1821A2B02BF1D9B22EA03031E93DE
S224003F2004D0022B04BF1D991E9100D01E9980B210B98A423FF420A89DF89600464637F02C
S224003F40D3FBB046FEF714BF219120918DF8A21096B900F054BD2A469DF8A100214636F0B3
S224003F605DF89DF8A2309DF889200133DBB29A428DF8A23040F24085012258460DF1A101F6
S224003F8037F08CFA0128E6D0209835F0B5FD1F9835F0B2FDFFF787BA4FF000004146ADF8D4
S224003FA09800DFF8400904933AF006FE012033F0AFF90020322133F049F942F6244CC1F260
S224003FC0000C3CF80610049BBDF898200091019301203B46DFF8101935F072FE00203221AB
S224003FE033F034F942F6B43EC1F2000EBEF8003033B1FA200321DFF8F428434627F02CFCBE
S22400400039B2012902F089840921012027F084FE42F62441C1F200018A5BFFF772B8082025
S224004020DFF8CC1835F04CFEFFF752B84FF00002ADF8962058460DF19601012237F02EFA10
S2240040409DF88930013B8DF889309FE531460920CDF814C037F06AFB219620963AF0C2FFF2
S22400406004212A4623461D901DA836F01BF8219835F0ACFB09238DF8A200042103208DF8ED
S224004080A13027F083FFDDF814C0209000283EF49CAD9DF88430062203709DF885304370D4
S2240040A09DF8863083709DF88730C370209B21931A71219B073283F805C0219B9A719DF8B3
S2240040C0A220DA71002F00F09680384637F028FA0646219B069A9DF8A100009301920021AD
S2240040E001224FF0FF330296B04627F05DFFFEF73FBE42F63A41C1F200010B8801339BB2B9
S2240041000B801BB2962B7FF717A84FF00002328066202BF0BDFFFFF70FB84646FEF71BBEE5
S224004120BDF89630A3F1800292B25F2A40F22C8203200A2127F02AFF219000283EF445ADB1
S22400414000232090037043708370C370219A06211171219A5371BDF896301AB27F2A41F334
S224004160A887DF2A01F3F8844FF0000CCDF81CC021980023209300283EF4FEAE35F026FBCB
S2240041809DF868308DF8A2001A0942EA0313032002218DF8A13027F0F9FE209000283EF4AD
S2240041A014AD9DF88430062203709DF88530022143709DF8863083709DF88730C370209BBD
S2240041C021931A71219B04225A71219A9171931D9DF8A22052185A70079818B14FF0FF014F
S2240041E0ADF89610981C0DF19601022240F0EEFC002F7FF46AAF46466BE725A9584637F0BC
S2240042004DF9022806BF0121ADF89610BDF99630BDF8942008BF0123DFF8D816012035F01C
S2240042204FFDBDF99660012E18BF9DF889207FF456A91421002033F009F835F005FBD9F85C
S2240042405810030A43EA00239BB20091BDF894203046DFF8A416ADF8923035F031FD9DF8F7
S2240042608830C92B01F0248242F6AE3CC1F2000CBCF8003043F00403ACF80030BDF89430AA
S2240042802BB9BDF8923001339BB2ADF89430BDF892209A427EF470AE0020782132F0D6FF51
S2240042A099F82F200120DFF8541635F009FD99F82F3063B9DFF84836012083F82E00DFF88A
S2240042C0441635F0FDFC0420022127F025FD4FF000004646A9F80000B046FEF749BD118AE9
S2240042E0B14281F0A6811A6892F8401021F07F0182F840101B6893F8402042F03D0283F81D
S2240043004020FFF715B89DF8A2209DF889300120DFF8F41535F0D4FCFFF795B999F82E6077
S22400432016F001067FF411AC58460DF1A101ADF896208DF8A13037F0B1F89DF8A1200128FD
S22400434018BFADF89660BA2A1CBF0022ADF896207FF4FBABBDF8963018B2012802F04C8065
S224004360002B3FF4F2ABBAF8003013F0010F3EF403AE0120DFF89415464635F0A1FCB04680
S224004380FEF7F6BC0320072127F000FE219000283EF41BAC0026067046708670C670219B05
S2240043A04FF006021A71219B0E225A7121995846063137F073F80E287FF468A830460121FD
S2240043C035F0EAFB2090002802F05C87219BC0F3072218705A70C0F30742000E9A70D870DB
S2240043E0219835F0F3F99DF868308DF8A2001A0942EA0313032008218DF8A13027F0C6FDB9
S224004400209000283EF4E1AB9DF88430022203709DF8853043709DF8863083709DF887309A
S224004420C370209B4FF0060021931871219B5A71219B0E329A719DF8A220DA7101228DF82F
S224004440A220002F01F01181384637F069F89DF8A2200646219B0699009301919DF8A10084
S22400446000214FF0FF330296B04627F09DFDFEF77FBC9DF88920022A08D00021584637F00E
S2240044800DF89DF8893098427FF400A8022258460DF1960137F002F802287EF4F7AFBDF95F
S2240044A0962045F2AA539A427EF466ADBAF8003013F0010F04D00120DFF8541435F000FC62
S2240044C044F6007C0023C1F2000C8CF80030464635F0BEFFB046FEF74BBC42F6E83EC1F21A
S2240044E0000E9EF8003013F0020F01F0B680072363E43AF077FDF368984281F0D180B36887
S224004500984241F2B58096F85630022B01F2B080092386F85730032386F8563042F6484CC9
S2240045200023C1F2000C8CF80030FEF739BF0C20FCF72EFCF74BB3F900303C2B7FF4CAAA3E
S224004540032033F031F908210DF1A3020123D6203DF06CF8032033F0A7F99DF8A32002F03F
S2240045603003D3F1010138BF0021302B14BF0B4641F00103002B41F0DE8542F6D030C1F2C7
S22400458000000380FEF74FBED8B235F0D3FE219000287FF4E9AD209023460DF1960031460B
S2240045A02A4635F07FFD01230793E1E5B9F82C30013B9BB2A9F82C30002B3FF473AB382BEF
S2240045C07EF4C4AE43F29021C1F200010B8843F020030B80FEF7BABE012E7EF4CDAC9DF8C8
S2240045E08930002B3EF4C8AC58460DF1A201324636F054FF002F02F08C82384636F090FF9A
S22400460006469DF8A1009DF8A21032462EF0C8FEB046FEF7ADBB032E01F01487042E7EF4BC
S224004620ABAC00236FF0010220932193BA4801338DF888208DF8893040F02AFB831CDBB210
S224004640B6488DF88930049340F022FB049B421C9B18DBB2B2488DF88930049340F018FBE6
S224004660049B421C9B18DBB2AE488DF88930049340F00EFB049B421C9B18DBB2AA488DF840
S2240046808930049340F004FB049B00F125029B1802218DF889302A46234622A835F002FD04
S2240046A02946224630468DF8896035F0B7FC9A4840F0EEFA234681B22A46974835F0F2FC6A
S2240046C029462246A72035F0A9FC944840F0E0FA234681B22A46914835F0E4FC29462246C6
S2240046E0A72035F09BFC8E4840F0D2FA234681B22A468B4835F0D6FC29462246A72035F0C7
S2240047008DFC884840F0C4FA234681B22A46854835F0C8FCA7202946224635F07FFCBAF89B
S224004720003013F0040F08D07F4840F0B1FA7F4903467D4A082035F0C3FA7B4840F0A8FA3D
S224004740234681B22A46784835F0ACFC29462246A72035F063FC43F25833C1F20003B3F977
S224004760CA20B3F9CC30724900930EA8A72339F0A1FF0EA840F08CFA2A4681B223460EA8DD
S22400478035F090FC43F2583EC1F2000EBEF9C0306849A7220EA839F08DFF0EA840F078FAF3
S2240047A02A4681B223460EA835F07CFC43F25830C1F20000B0F9D0305F49A7220EA839F02C
S2240047C079FF0EA840F064FA2A4681B223460EA835F068FC15A8032129F0B2F95749A722BF
S2240047E0159B0EA839F066FF0EA840F051FA2A4681B223460EA835F055FC5049A722169B44
S2240048000EA839F057FF0EA840F042FA2A4681B223460EA835F046FC4849A722179B0EA851
S22400482039F048FF0EA840F033FA234681B22A460EA835F037FC29462246002035F0EEFBD1
S224004840219B384604939DF8A16036F069FE049B06990093019101F04EB90021584636F01F
S2240048601DFE9DF8892090423FF484A9FEF70EBE9DF889200021584636F010FE464600200A
S224004880FCF726FFB046FEF773BABAF8003013F0010F42F0108342F6494042F6E23142F6E5
S2240048A044420026C1F20000C1F20001C1F2000206700E70106835F01FF942F64443C1F210
S2240048C000031E60FEF76EBC645C0400F85B04001C5C0400E92B0010C45B04002C5B0400CA
S2240048E0385B0400485B0400505B0400606F0400405B0400A45A0400BC5A0400D85A040002
S22400490004020010E85A04004C580400445A0400E4590400D02B001098330010583300102A
S22400492078330010F8330010B833001090580400A0580400AC580400A4580400B458040081
S224004940152E01F05C871D2E7EF416AB032032F02BFF4FF480710EAA0B23D6203CF066FEAE
S224004960032032F0A1FF6FF001020D234FF0000C8DF888208DF88930022123462A4622A83F
S224004980CDF880C0CDF884C0CDF814C035F08AFB2946224630468DF8896035F03FFB0B217B
S2240049A02A4623460EA835F07DFB42F6442EC1F2000EDEF80030294693F8400022468DF82E
S2240049C0890035F02BFB9DF8A1303846219E049336F0A6FD0699049BDDF814C000960191EC
S2240049E002906146184601224FF0FF33464627F0DBFAB046FEF7BCB9209EBDF8960003465D
S224004A00002801F05087E6B10026C0B2219635F091FC0146219028B1209836F057FC0028DF
S224004A2041F05687209B23B19DF89600214636F0CDFD219818B135F05FF800232193BDF8C8
S224004A4096301BB2D22B7EF497AA0020FBF78EFF43F21011C1F2000191F85630012B02F038
S224004A60488243F2101E0723C1F2000E42F648408EF85730C1F20000012346460370B04680
S224004A80FEF776B9042258461EA936F007FD042802F01882BDF99630012B41F0BF84DDF88F
S224004AA078C000231CF4F87F89F82F3005D1BAF8003013F0010F42F01082D9F8583063459F
S224004AC056D19DF8A230002B4AD060460FE09DF8A1200B79D3180B719DF8A2209DF8A1306B
S224004AE0D31ADBB28DF8A230002B32D01E981F994A79934238BF1A468DF8A1200B79C918AB
S224004B0034F0EAFE9DF8A1201E9B9B181E931F9B59798A1A5A711F994B79002BD7D14A7805
S224004B200B78012043EA02238A7843EA0243CA7843EA0263209332F0C7FB209B9DF8A22089
S224004B401F939DF8A130D31ADBB28DF8A230002BCCD1D9F858201E9B9A4238BFC9F8583081
S224004B604FF0F0024646A9F80020B046FEF700B99DF8A2205846002136F090FC00238DF89E
S224004B80A230C54B9A6D1E9BE6E7CD2E01F0F5836ED8642E01F0AA837F2E7EF4EDA99DF8FD
S224004BA08920022A08D00021584636F077FC9DF8893098427EF46AAC022258460DF19601E4
S224004BC036F06CFC02287EF461ACBDF996003FF0C5FA3EF083FEAEA30CCB3EF0FFFF40F22A
S224004BE00002C3F6F07200233EF01AFD3FF0ACF9DDF828C0BDF89610CCF80000002901F061
S224004C00F3839DF8A20009B236F090FD0023209321936FF0010003338DF888008DF8893009
S224004C2002212A46234622A835F03CFA9DF8A2002946224635F0F2F90DF1960002212A4609
S224004C40234635F02FFA002F01F0C483384636F067FC0646219B06999DF8A1000093019128
S224004C60FFF73DBA043A1A80B9F83030FEF77CBBFA2E01F08283FE2E7EF47EA90120874959
S224004C8035F01EF842F64942C1F20002167896B942F6E23342F6444CC1F20003C1F2000CF5
S224004CA01E70DCF8000034F027FF42F6444EC1F2000ECEF8006042F6F030C1F20000B0F9DE
S224004CC00030002B42F01E8142F6F0314FF00000C1F2000146460880B046FEF749B808202F
S224004CE06F4934F0EDFFFFF72FB800210B46FDF738BFBDF89A300A22DB05DB0D02FB03F347
S224004D00FDF722BF9DF89C20642303FB02F3FDF7B5BE4FF00002228001210023FDF7CFBCE0
S224004D204FF00301ADF89A100320FDF7B7BC42F6A431C1F200010B88ABF80030FDF7ECBD8E
S224004D4042F6CC30C1F20000036859781A7842EA01229978DB7842EA014242EA0363B3F141
S224004D60FF3F09BFFF210022218003F580731CBF22800023FDF7D1BA4FF00000ADF89E00B9
S224004D800023FDF7CDBB474BBDF898000A933FF0E1F93EF0A3FD3EA30CCB3EF01FFF40F2E6
S224004DA00002C3F6F07200233EF03AFC3FF0CCF8DDF828C0CCF80000FDF78FBB4FF00E0249
S224004DC02280DFF8E4C001238CF8003000204FF0FF314FF4FA72CDF824C03AF023F9FDF7B8
S224004DE02CBC58461EA9324636F058FB04287EF44DAB0023219320933AF0F4F804211D9068
S224004E002A4623461EA835F04DF904212A4623461DA835F047F9219834F0D8FC9DF868307D
S224004E208DF8A2001A0942EA0313032006218DF8A13027F0ABF8209000283DF4C6AE9DF875
S224004E408430062203709DF8853043709DF8863083709DF88730C370209B21931A71219B8E
S224004E6002225A71219B0C329A719DF8A220DA71002F00F04C86384636F052FB0646219BAD
S224004E809DF8A1000093069B0193FFF728B900BF006AF8400000000004020010585904000C
S224004EA0705C0400F0010010E92B0010092E02F0EC8100F25084062E02F03C82082E7EF410
S224004EC05BA812236FF001024FF0000C02218DF888208DF889302A46234622A8CDF880C0B2
S224004EE0CDF884C0CDF814C035F0DCF82946224630468DF8A26035F091F804224FF4D01047
S224004F001EA934F0DBFD1E9BDDF814C0B3F1FF3F08BFCDF878C0234604212A461EA835F0D8
S224004F20C1F840F204000422C0F21A001EA934F0C5FD1E9BB3F1FF3F02F0F881A3F5D0135D
S224004F40803B1E93042123462A461EA835F0AAF840F210000422C0F21A001DA934F0AEFD8C
S224004F601D9BB3F1FF3F02F03582A3F5D0131E9A823B9B1A1D93042123462A461DA835F0AC
S224004F8091F840F20800C0F21A0004221EA934F095FD1E9BD8B203F47F03B3F5981F8DF83A
S224004FA0A20082F04681142802F0438104212A461EA8234635F076F80020294622468DF84C
S224004FC0A20035F02BF81FB1384636F0A9FA8046219B9DF8A1000093069B00210193012207
S224004FE04FF0FF33CDF8088026F0DEFF0121002016F0A2FE292025A935F0AAF900287DF49B
S224005000BBAF4FF6FF7100F5D010C0F2210134F00BFDBAF8003023B14020DFF8301C34F03A
S2240050204FFE00232920214646462093B04636F0CDFAFDF79DBEBDF89410FDF77BBF99F8C2
S2240050402F30002B40F08285DDF824E09EF80030002B40F07385012000214FF4FA7239F07E
S224005060E1FFBAF80030002B40F0628500230320239325F03BFCBAF80030074613F0080F96
S22400508041F0B38744F2000343F27C20C4F20203C1F200009A6C018802F07F4201F00701ED
S2240050A041EA0202DFF8A86B9A640A254FF080446FF055084FF0550900200A2132F0C6F81E
S2240050C0239BB3FBF5F205FB12321AB984F8088084F808900133B3F5167F239301F26B873D
S2240050E03378002BE8D0012002F002FE34F094FB44F20003C4F2020306905A6CDFF8541BC1
S2240051000646012034F0DCFD00216FF0060027F0C5F9BAF8003013F0010341F040870125BE
S224005120984601216FF0010027F0A8F842F6BA33C1F200034FF000021A80A6F10A03DBB26C
S224005140012B41F20E87DFF8104B4620214635F0FFF80146002800F02C824FF0000020804F
S2240051606820012127F08AF842F6E632C1F2000211786FF0030027F081F84FF080436FF006
S22400518055021A72AB321A72BAF8003013F0010F41F04E872B46DFF8C49A4546984642F67C
S2240051A0E63CC1F2000CBCF8003013F4005401F03487C3F3C123590001316FF0050027F07E
S2240051C06DF96A20012127F059F8BAF8003013F0010F02BF4346A8461D4641F00E8734F0D6
S2240051E01BFB0F280446069088BF4FFA80FB17D84FFA80FB012606FA0BF248F2A013C0F2FC
S224005200000302EA03035BB16B20314627F036F8BAF8003023B13046DFF8441A34F050FD6F
S224005220DFF8406A4A20314635F092F8002800F0B0814FF0000030800022BAF80030002BF1
S22400524041F0B98726466D20002127F017F84FF080436FF055021A72AB3200201A728DF846
S224005260A30025F0EFFB0F2C089040F2AB810899B1F5616F12D840F252339F4298BF9DF8D1
S224005280A33002D901238DF8A33000930120DFF8D8193A4640F2523334F012FD0D200021AB
S2240052A026F0ECFF40F20402C1F2000213784BB19DF8A3B0BBF1000F01F085870D20012185
S2240052C027F0ECF84FF080436FF055021A72AB321A7201203346DFF89419424634F0F0FC6B
S2240052E0BAF8003013F0010F40F0298344F20003C4F2020301205A6CDFF8581934F0E0FCB5
S224005300069842F6502C0023C1F2000C1028CCF8003040F2EA80BAF8003013F0010F05D0C2
S2240053200120DFF84C19324634F0CAFC42F6E631C1F200010B8813F4005F41F01587BAF82E
S224005340003083B144F20003C4F202036FF003009C6C26F0FBF824F07F4203B2DFF81419EF
S224005360012034F0ADFC44F2000342F6E63CC4F20203C1F2000C9C6CBCF800306FF00300DF
S2240053801C4026F0E3F842F6E63EC1F2000EBEF8003000EA03035C4041F08386032025F0BA
S2240053A0A5FABAF8003040F25238474594BF00240124404594BF0027012733B10120DFF880
S2240053C0B81822463B4634F07BFCBC421EBF42F65021C1F200010B6842F6BA3218BF43F09B
S2240053E00103C1F2000218BF0B60138813F0030F40F06082032025F079FA40F252339842AF
S22400540094BF00270127BAF80030002B40F04B82A74208D03FB142F65020C1F20000036864
S22400542043F001030360002001464FF4FA7244F2000439F0F7FDC4F202040220002127F04A
S2240054402DF8636C13F0010048D143F27C21C1F200010A88A36C02F0070203F07F4342EA33
S2240054600303A364962131F0F1FE012027F0E0FA002800F0F681BAF8003013F0010F07D0E6
S224005480A26C012022F07F42DFF8F01734F018FC00200A2131F0DAFEBAF8003013F0010FB6
S2240054A041F0E285002001463BF04AFFBAF8003013F0010F40F0CF8144F20003C4F202030B
S2240054C05B6C13F0010F03D1069A0B2A01F0D48535F014F9002031F053FFFEE7626C012061
S2240054E0DFF89C1734F0ECFBD6E742B2012010FA02F242F21203C0F2010302EA0303C3B1DD
S224005500BAF8003013F0010F04D0DFF87817324634F0D6FB44F20003C4F202035A6C40F2FE
S224005520523442F001025A64A74294BF0024012460E712F4006F17D0BAF8003013F0010FD0
S22400554004D0DFF84417324634F0BAFB672025F0FDFF83B2002B40F0078240F25234A7429D
S22400556094BF0024012445E712F4806F3FF4D3AEBAF8003013F0010FEFD0DFF8101732468B
S22400558040F2523434F09CFBA74294BF0024012430E7328812F0030F3FF44FAEBAF8003017
S2240055A0002B41F0598526466D20012126F066FE4DE6B4F90030002BBFF6D2AD682026F00A
S2240055C05DFED1E5012303FA0BF313F4134F7FF452AE4CE6002028F089FA00287DF4BCADCB
S2240055E0013028F083FA00283DF4DCADFDF7B4BD40F21803C1F200031A78012002F04002AF
S224005600DFF88C1634F05CFBFDF7F6BE58461EA9324635F043FF04287DF438AF4646FDF7A1
S224005620ACBC00F00C03042B0CBF04230323FEF7C4BB528AB24281F0EC851A6892F8401035
S22400564021F07F0182F840101B6893F8402042F0290283F84020FDF76BBE00F00C03042BF9
S22400566014BF01230223FEF7A8BB4646FEF7F2BE42F64841C1F200010B78002B3EF44EAF2E
S22400568043F21012C1F2000292F85630022B3EF645AFDFF80036082283F85720FEF73EBF79
S2240056A00A2386F85730012386F85630FDF778BEBDF89420BDF892309A427DF45DAC002605
S2240056C003200F212096219626F060FC219000283DF47BAA067046708670C670219A062328
S2240056E01371219A4FF0040C53716FF036038DF88830219B22A9981D02228DF889C00493B9
S224005700CDF814C03FF062FA049BDDF814C040F20422C1F2000203F1080002F1580162461B
S2240057203FF054FA40F20423C1F200031E80002F01F0DF85384635F0F3FE0646219B9DF885
S2240057406800009320F00F004FF0807340F002000193FEF7C4BC0A2E01F08E850B2E7DF4D7
S2240057600BAC6FF001024FF006034FF0000C8DF888208DF88930022123462A4622A8CDF882
S22400578080C0CDF884C0CDF814C034F08BFC2246294630468DF8896034F040FC0121022018
S2240057A014F00CFF224629468DF8890034F036FC0521012014F002FF224629468DF8890069
S2240057C034F02CFC0621022014F0F8FE224629468DF8890034F022FC0321012014F0EEFED9
S2240057E0224629468DF8890034F018FC0421012014F0E4FE294622468DF8890034F00EFC48
S224005800FFF7E1B800213246584635F047FE9DF88960B0427DF43AAE9DF88830FDF71DBB71
S2240058200220FBF7B5FAFDF732BD0C20414626F035FE9DF8A320012002F00402DFF858140D
S22400584034F03EFAFA202721DFF85024434626F003F8FDF71CBD0120DFF8441434F030FA35
S2240058602AE6BAF8003013F0010F09D10D200E2126F052FA34F042FF002031F081FDFEE77D
S2240058800120DFF8201434F01BFADFF81C341B8813F0010FEAD00120DFF810142A46334602
S2240058A034F00EFAE2E70120F34922463B4634F007FAADE501200DF1A20131F0D5FC07280E
S2240058C01FBF42F6502CC1F2000CDCF8003043F0020318BFCCF8003002E0BAF800304BBBA1
S2240058E001200DF1A20131F0BFFC0728F5D105200DF1A20131F0B8FC07281FBF42F6502EB2
S224005900C1F2000EDEF8003043F0020318BFCEF8003005200DF1A20131F0A6FC07283FF4CB
S22400592069ADBAF80030002BF3D00120E04934F0C7F9EEE70120DF4934F0C2F9D0E72A462A
S22400594033460120DC4934F0BBF9B9F800200120DA4934F0B5F96C1CB9F802200120D84927
S22400596034F0AEF92546C1E40D200E2126F0D4F944F20003C4F202035A6C42F001025A645B
S224005980BAF8003013F0010F3FF4E7AD0120CD4940F2523434F094F9A74294BF0024012421
S2240059A028E544F23412C1F20002136A4FF00000ADF870003BB1BDF870201B680132ADF847
S2240059C07020002BF7D144F6E072C0F20402127820932193033303FB02F36FF001010A3343
S2240059E08DF8881007928DF88930043123462A4622A834F057FB0520294622468DF8890056
S224005A0034F00CFB4FF00103ADF89630012325E044F6E47CC0F2040C1CF803002946224635
S224005A2034F0FCFABDF9963044F66070C0F2040000EB0312966850683146FAF771FF301A33
S224005A40ADF89400234625A802212A4634F02AFBBDF8963001339BB2ADF8963007991BB222
S224005A608B42D5DD29462246C82034F0D7FA964B47F6DC72C1F20002D61A31461846FAF717
S224005A804FFF301A2346ADF8940002212A4625A834F008FB22462946C92034F0BFFA47F666
S224005AA0844047F68421C1F20000C1F20001461A31468648FAF734FF301A2346ADF894001F
S224005AC002212A4625A834F0EDFA29462246CA2034F0A4FA2A46022123461CA834F0E2FA13
S224005AE0219B384604939DF8A16035F019FD049B069A0093019202903046002101224FF00F
S224005B00FF33464626F050FAB046FDF731B94646FFF7B5B901206E4934F0D2F8FDF7AEBE78
S224005B20FA2021215D4A334625F096FEFEF7A2B80120684934F0C4F8FFF798BA00204FF093
S224005B405531642239F06EFAFFF785BA0420022126F0E2F8FFF778BAD8B21EA935F020FD7C
S224005B6080B20790002840F04F811EA804212A46234634F097FAFEF7FBBA9DF88930072B8C
S224005B807DF6FAA954490422584635F087FC53490422584635F082FC42F6C43C42F6EC334F
S224005BA0C1F2000CDCF80010C1F200031A6800910A2914BF002101210191B2F5001F34BFE0
S224005BC0002301230120464934F07AF847B1384635F0A6FC42F6D43EC1F2000ECEF8000025
S224005BE042F6EC36C1F200063268B2F1FF3F00F01F814FF6FF73C0F21F039A4208D942F602
S224005C00C43EC1F2000EDEF800100A2900F084819DF8A13042F6EC3042F6F63122F00F0272
S224005C20C1F20000C1F2000102600B704646FBF777FAB046FDF79CB8BDF87030079921EAEE
S224005C400303ADF89430FDF763B900BFBC58040000020010A8550400E62B0010FC010010A8
S224005C6014560400BA2B00104C56040060560400E8560400045704004C5704007457040045
S224005C80B05704009C560400B0560400D4560400805C040010310010D85B0400606F04008B
S224005CA0D857040080570400A62B00109C570400685704005857040074560400E855040074
S224005CC088560400C4560400887C0010847A0010F459040084550400EC2B0010C42B001049
S224005CE0EC5804000023219320930EB907994B1C06200121ADF8943026F0D0FB062300261E
S224005D004FF00A088DF88930022123462A4622A8219620968DF8888034F0C4F92946224677
S224005D20AA2034F07BF929462246552034F076F930462946224634F071F9304629462246F5
S224005D4034F06CF930462946224634F067F930462946224634F062F90C238DF88830022189
S224005D602A46234622A88DF8896034F09BF9219B0D2000934FF080730193414602224FF029
S224005D80FF33029626F010F9219620968DF8886002210D362A46234622A88DF8896034F0A0
S224005DA081F9DFF8A00C31462A46234634F07AF99FB3384635F0B4FB80469DF86830002043
S224005DC023F00F0343F002033C218DF8A13031F03DFA219B012200934FF080739DF8A1007C
S224005DE0019300214FF0FF33CDF8088026F0DCF801214D2035F09AFC0D20012125F08CFF08
S224005E00BDF89620FDF78BB80DF1960031462A46234634F047F9FEF7ABB9B846CDE7BDF8D3
S224005E207030079840EA0303ADF89430FDF770B800233360052020932193049331F0B4FCBF
S224005E40049B0D26ADF894306FF001006FF0240123468DF888008DF889102A46273122A8F8
S224005E6034F020F90D20294622468DF8896034F0D5F804212A462346DFF8CC0B34F012F9A2
S224005E8042F6EC32C1F2000242F6442C1368C1F2000CDCF800204C33D018D62123462A46E5
S224005EA034F000F942F6EC3EC1F2000EDEF80030D633CEF80030BDF8943001339BB2012B72
S224005EC0ADF89430C0D9052031F0EEFC219B42F6D43100934FF080730193C1F200010B6812
S224005EE0022202939DF8A1004FF0FF33002126F05BF842F6C4320023C1F20002136042F602
S224005F00D43CDFF8442BC1F2000C46461360CCF80030B046FCF72CBFA2F5801232609A4209
S224005F2094BF0023012301200091DFF8201B019033F0C6FE3068464600F10A0133F074FDD2
S224005F40DFF80C3B00221A60B046FCF711BF12B20120DFF8001B33F0B3FEFCF7C7BBC0F3F6
S224005F60431024F023FB0546208824F03FFBDFF8E81A03462A46012033F0A2FE2088C0F385
S224005F804310FCF799B96120214634F0E1F900283CF48BA94FF0000222800020FCF78CB9B7
S224005FA048F2F060C3F66E0039F022F8FCF75BB90120DFF8A81A33F083FE42F64420C1F234
S224005FC000000368FCF76EBA33F074FEBAF80030044613F0010F06D00279DFF8841A821802
S224005FE0012033F06DFE204633F086FD42F6442CC1F2000CDCF80030986933F05BFEBAF847
S2240060000030044613F0010F06D00279DFF8541A8218012033F054FE204633F06DFD42F6FD
S224006020442EC1F2000EDEF80030FCF73BBA42F6B43342F6084CC1F20003C1F2000C1A8878
S224006040DCF8003042F6364EA3F50813C1F2000E4FEA931CBEF9003001200093DFF8081A8B
S224006060634633F02DFEFCF705BA0A20FAF7C2FA0A20FAF7BFFAFAF743F945F2901EC1F202
S224006080000EDEF800104CF20004C4F20F04D4F880310091DFF8D41902460988012001919E
S2240060A0DFF8CC1933F00CFE0023C4F88031FCF74EB9D8B225A934F04BF980B207900028B7
S2240060C07FF4A2AE25A831462A46234633F0EAFFFEF74EB84FF0020C00226FF0010361465B
S2240060E0209221928DF888302A46234622A88DF889C0CDF814C033F0D5FF304629462246AB
S2240061008DF8896033F08AFFDDF814C02A4661462346DFF8600933F0C5FF9DF8A13038462C
S224006120219E049335F0FCF90699049B0290009601911846E1E40C20002126F0AFF90A2397
S224006140FA202721DFF8302925F086FB42F6D03EC1F2000EBEF90030FDF7BCBC742242F6EA
S224006160CC3E0092C1F2000EDEF800205178107840EA01209178D27840EA014141EA0262DD
S2240061800293643301920393FA200121DFF8EC28032325F061FBFCF734BC42F6A435C1F240
S2240061A000052B88B3F5667FBCF406ACDFF8D02842F64421C1F2000113800A686FF00700A8
S2240061C04C32D4180421D15460703A30A0706018E1703060D35C002101339B00DAB22B8805
S2240061E0D3182B8010223EF01BFDA2782B880094316801200191DFF88C1833F061FDFCF7F0
S224006200DBBB42F62C2142F6A43CC1F20001C1F2000CB1F90020BCF800300120DFF86818AD
S22400622033F04EFDFCF7B2BB42F62C21C1F20001B1F900200120DFF8541833F041FD42F68B
S2240062402C2342F6A43EC1F200034FF0FF324FF0000CC1F2000E1A80C7F800C0BEF800309F
S224006260FCF779BA42F6442EC1F2000EDEF80030A0F1640C586A20FA0CF000F00100FCF7C5
S22400628024BC42F6CC30C1F20000036801205A78197841EA02219A78DB7841EA024242EAF5
S2240062A003630093DFF8E817DFF8E827DFF8E83733F006FD6421002030F0C8FF4FF000013C
S2240062C0ADF89810FCF7A8BB43F210100A23C1F2000080F85730FCF711BC5B6A6439CB40B5
S2240062E003F001035B00DBB2FCF7F8BB9DF88920022A7DF4CBA842F63E4CC1F2000C9CF8B1
S2240063000030002B3CF438AE25A9584635F0C6F8052031F049FABDF8943042F6A43EC1F2E9
S224006320000EAEF80030ADF8963000220DE042F64420C1F200000168CB1883F84C20BDF8C3
S224006340963001339BB2ADF896301BB240F2AB318B42ECDD052031F0A7FA42F6A433C1F26C
S22400636000031A880120DFF834174FF46B73464633F0A6FCB046FCF7FBBC42F63E42C1F2B3
S2240063800002137823B9FA2E0CBF0526002616700023209321936FF0010302218DF8883078
S2240063A02A46234622A88DF8891033F07BFE294622469DF8A20033F031FE42F63E4CC1F2A6
S2240063C0000C9CF800002946224633F027FE002F7EF43CAC4646FEF73DBC0120DFF8C01628
S2240063E033F06EFCFCF7C9BB20919DF8A200214635F0ECF8FEF70ABC00260346DFF8A41681
S2240064000090019633F05CFC89F82F6033F090FAC9F85860BDF89630FDF7A2BF9DF8892091
S22400642099F82E30FDF7B7B99DF8943044F6007C03F00203C1F2000C46468CF80030B04608
S224006440FCF796BC00232093219333F0D7F90523ADF892006FF001008DF888008DF889306B
S224006460022123462A4622A833F01CFE294622469DF8A20033F0D2FD02212A4623460DF11A
S224006480920033F00FFE33F0DFF9ADF892000DF19200FEF7D3BB1D9B13431E93FDF746BD3A
S2240064A01D9B15A8159333F063FF42F6CC30C1F2000003689DF8742001201A709DF87520E5
S2240064C0DFF8E4155A709DF8762046469A709DF87720B046DA701D9A33F0F2FBFCF748BC32
S2240064E0BDF89430079880EA030212F4C05F3CF443AD42F6E631C1F200010B80C3F3C123A3
S2240065005900ADF894106FF005000131464625F0C5FFB046FCF72CBC42F64241C1F2000199
S2240065200B7801229A409DF894309DF8941002EA030342F6F232C1F2000213706FF004005B
S224006540464625F0ABFFB046FCF712BC062031F02BF94FF6FF714FF40810C0F2230133F0C0
S22400656063FA42F6084CC1F2000C4FF4081342F6364E42F64940CCF80030C1F2000EA3F546
S2240065800813C1F200000370AEF80030214606202093464635F01AF8062031F085F9B04621
S2240065A0FCF7E6BBBAF8003013F0010F0CD042F6364EC1F2000EBEF90020BDF99630012080
S2240065C0DFF8E81433F07CFBBDF89610002900F0078142F63640C1F200000180062009B28A
S2240065E035F0A4F842F6384CC1F2000CBCF90020BDF996309A4235D0BAF8002012F0010F44
S2240066000CD042F63C4CC1F2000CBCF900200120DFF89C1433F054FBBDF9963042F63C4EED
S224006620C1F2000EBEF900209A427CF4A5AC42F6494042F6E23142F644420026C1F200007D
S224006640C1F20001C1F2000206700E70106833F053FA42F64443C1F200031E604646B0467B
S224006660FCF786BB38F0BEFC45F28013C0F2010390FBF3F342F6E330C1F2000099B203784A
S22400668042F60C4EC1F2000E022BAEF8001003D009B2072035F04AF842F638424FF0FF3182
S2240066A0C1F200021180BDF99630A5E7BDF89630002B6ED042F63C4CC1F2000CACF8003050
S2240066C042F6444EC1F2000EDEF8000033F014FA42F644400023C1F200000360BAF800304C
S2240066E013F0010F12D042F6084CC1F2000CDCF8003042F63C41C1F20001A3F50813B1F98B
S22400670000209B090120EB4933F0DAFA42F6084042F63C4EC1F20000C1F2000E0268BEF98D
S2240067200030A2F50812B3EB921F27D03FB1384634F0F6FE42F64441C1F2000108609DF839
S224006740683042F6E2321B09C1F20002137042F6B83C42F6BC3142F649420123C1F2000CFD
S2240067604FF00000C1F20001C1F2000246468CF8003008801370B046FCF7FABA42F6494CB7
S2240067800023C1F2000C46468CF80030B046FCF7EFBA42F6364EC1F2000EBEF8002012F4E7
S2240067A0004F02BF42F63C40C1F20000028087D042F60841C1F200010A6842F63C4CA2F586
