S01100006D61696E2E434255472E737265631F
S1230000150000EA940000EA680000EAFEFFFFEA8A0000EAFEFFFFEA3B0000EA0090A0E197
S1230020040198E5D3F021E30E502DE90FE0A0E110FF2FE10E50BDE8D1F021E30900A0E11E
S123004004F05EE200802000E87F20000C0000000C00000080020000D50AD50A20D01FE5F5
S12300600D00A0E1D1F021E348829FE5D2F021E300D0A0E10C0040E2D3F021E300D0A0E17E
S12300800C0040E238101FE5010040E0DFF021E300D0A0E1770100EB0000A0E318129FE509
S12300A00FE0A0E111FF2FE17847C0460C129FE50C229FE50C329FE5030052E104009134D2
S12300C004008234FBFFFF3A0000A0E3F8119FE5F8219FE5020051E104008134FCFFFF3A61
S12300E090001FE5E8119FE5AC201FE5020051E104008134FCFFFF3A9FF021E3D4E19FE52E
S1230100D4019FE510FF2FE1FEFFFFEA01002DE900204DE904D04DE20100BDE804E04EE253
S1230120004020E900E0A0E10100BDE8FF7F4EE93CE04EE200004FE101002EE90E00A0E193
S123014070E19FE500119EE59FF021E38C219FE50030D2E5000053E318D11F0544D04D12D1
S1230160013083E20030C2E51FF021E30FE0A0E111FF2FE17847C04692F021E35C219FE51F
S12301800030D2E5013043E20030C2E524E19FE530E18EE500E0A0E10100BEE800F069E1F8
S12301A0FF7FDEE80000A0E13CE09EE50EF0B0E101002DE900204DE904D04DE20100BDE832
S12301C0004020E900E0A0E10100BDE8FF7F4EE93CE04EE200004FE101002EE90E00A0E1F3
S12301E09FF021E3A4D11FE5F0109FE50120A0E30020C1E51FF021E3E4109FE50FE0A0E106
S123020011FF2FE17847C04693F021E3CC109FE50020A0E30020C1E500E0A0E10100BEE89D
S123022000F069E1FF7FDEE80000A0E13CE09EE50EF0B0E1FEFFFFEAFEFFFFEAFEFFFFEADB
S1230240A0D09FE5FF7FCDE808004EE20010A0E3DFF021E374D09FE52E0100EA84D09FE51C
S1230260FF7FCDE804004EE20110A0E3DFF021E358D09FE5270100EA7847C046DFF021E356
S123028044D21FE560109FE5011041E238209FE558309FE5013043E2030051E104009134DC
S12302A004008234FBFFFF3A6CD21FE518E09FE501E08EE21EFF2FE100F0FFFFF50200002C
S12302C0F0BD0000000020000800200008002000F02A20009C312000080100002D08000098
S12302E0F424200019260000782120001D0500007506000030B5041E00D06BE07B4C8023A1
S12303001B029C420AD97A4A136AD90706D4794B111C136201228B6E1342FCD0734B9C42C1
S123032000D878E0744B9C4200D9ADE004257349281C604308F076FE714A431E1B041340C0
S1230340704A6B491343CB6204228B6E1342FCD0674908228B6E1342FCD0644B9C4200D80F
S12303606BE063490A6B03231A40022D00D1B3E0082313430B635E4908228B6E1342FCD020
S1230380022D00D1A6E00B22594B1A63191C08228B6E1342FCD0594B58435B4C291C08F0E9
S12303A07FFE2060246860000019584908F03AFEFF2301301B0400041840554B9C4265D8DD
S12303C0544B9C4200D883E0C0225200524B02431A6630BD464B1A6B1C210A401A63191C8F
S12303E008228B6E1342FCD000230B63404908228B6E1342FCD060000019444908F012FE49
S1230400FF2301301B0400041840A0239B001843414B186673E780200002844232D8211C3E
S123042008F000FE051C032801D0042800DD04252E4B01209C4200D993E780231B029C420A
S123044027D92B490B6B1C221340012213430B6308228B6E1342FCD0012D41D0022D43D071
S12304600921234A136B8B4205D01163111C08228B6E1342FCD0FC231D4A234C1B489B01E8
S1230480D3628BE7181CCAE7022550E7A02292009CE7174B1A6B1C210A401A63191C08224D
S12304A08B6E1342FCD0012D18D0022D1AD008220F4B1A63191C08228B6E1342FCD0FC2356
S12304C09B018020104CCB62000200230B6265E780227BE7072257E704234AE70022E7E7C2
S12304E00121BEE70422E3E70521BAE70024F40000FCFFFF01060000FF59620200127A0019
S12305000000FF07023C0000F02A200080841E00FF8693037FC3C90100FFFFFFF0B55F46C9
S123052056464D464446F0B4444A454B5366C2B00121936E0B42FCD04249802253008B4684
S1230540414998463D4A80238A46404F1901002640AD684691468C4662467A635B4619786B
S123056034020022012958D0022907D103232B7023146B702312AB70EC700422344B1D6029
S123058004331A600C3318604146043319601C3B1D6004331A600C331860043319602D4B54
S12305A052462D49136040220B691342FCD02B4B51460B60284902220B691342FCD00022FB
S12305C0002102E00131FF2903D8435CFF2BF9D0012263463B63002A17D0002180235B03B0
S12305E0CA18435804311360FF29F7D91C4BB4222340D20549461A434A661A4A1A434A6656
S12306000E4901228B6E1342FCD0174B01369E42A2D9164A164B1A60FEE72E235B422B70A5
S1230620E3136B7004235B42E2111A4023120B401A43AA700822EC70A0E7000000FFFFFFD3
S12306400800005AE02020002001FEFF00F4FFFF0801FEFF010100000000FEFF02020000FB
S123066000FF03000100005AFF0300000D0000A500FDFFFF7047C0462A23A0E30E32E0E3DA
S1230680C22AA0E10D3A43E2043082E50EF0A0E10020D0E522C3A0E3000052E3CCC6A0E1DE
S12306A00EF0A00114309CE5020013E3FF1002E2FBFFFF0A1C108CE50120F0E5000052E31C
S12306C0F7FFFF1A0EF0A0E12213A0E304E02DE5C116A0E100E0A0E31CC0A0E3303CA0E1D3
S12306E00F2003E2090052E33730828230208292FF200382143091E5020013E3FCFFFF0A7B
S123070001E08EE207005EE31C2081E504C04CE2F1FFFFDA04F09DE40DC0A0E12233A0E344
S123072070D82DE9C336A0E10060A0E30140A0E104B04CE20C6183E50050A0E1C0009FE56C
S1230740D2FFFFEB0400A0E1DEFFFFEBB4009FE5CEFFFFEB0500A0E1FF40E0E3D9FFFFEB55
S1230760A4009FE5C9FFFFEB040094E5D5FFFFEB98009FE5C5FFFFEB080094E5D1FFFFEB5B
S12307808C009FE5C1FFFFEB88409FE588009FE5BEFFFFEB0600A0E1CAFFFFEB7C009FE562
S12307A0BAFFFFEB060194E7C6FFFFEB016086E25C009FE5B5FFFFEB0E0056E3F2FFFFDA09
S12307C05C309FE50030D3E5010053E30160A0E30A0000BA4C409FE50350A0E1043094E5AD
S12307E0000093E5B7FFFFEB016086E220009FE5A6FFFFEB060055E1104084E2F6FFFFAA51
S1230800FEFFFFEAF09E0000009F0000089F0000149F0000209F000078212000289F000028
S1230820049F0000B09F0000709F000070B506F0F1FB2648FFF75EFD002006F00DFC00F0DE
S12308401FFF08F07BF908F05BFA07F091FD07F037FC002007F006FA012007F003FA0120C1
S123086004F058F8962100208901194A06F012FF96218C220120C901120106F00BFF96214B
S12308800220C901124A06F005FF02F063FE114E0025114B585D00280AD0041C00F08EFF8B
S12308A023019B191B7B0A2B0BD00135032DF0DD0120042101F02EF8084A0123536053604A
S12308C0FCE7201C022100F02FFFEEE7006CDC02C2080000609F0000B19F000000FCFFFF82
S12308E000B581B0009069460A2001F0F3F8009801B000BD10B581B06C4603340920211C7E
S123090001F0CEF8207801B010BDC046F0B50D4B00241D68442607E0303A0F2A10DC013940
S12309200ED323019C1801300278535D334207D05F07F1D49F0700D5203A373A0F2AEEDDDE
S1230940201CF0BD04002000F0B5474680B403788AB0041C532B03D00AB008BC9846F0BDF1
S12309604378302B24D0392BF6D0312BF4D102210230FFF7CBFF0421C61E201DFFF7C6FF08
S1230980731E8046262BE7D80025002E16DD6F460834201C0221FFF7B9FF7855013502346F
S12309A0B542F6DB4046391C321C03F0F9F9D3E703F0E6F9024806F061FACDE76F46F1E7F5
S12309C0B89F0000F0B583B001AF6A463B1C0D1C041C07F0C5FA211C061C2A1C0B4806F040
S12309E02FFA002E0DDB0A48009906F029FA0024002E06DD395D0748013406F021FAB4425A
S1230A00F8DB0A20FFF76CFF03B0F0BDC49F0000CC9F0000D49F0000F0B55F4656464D465A
S1230A204446F0B40378413B86B0061C372B77D8BA4A9B009B589F461C1C2306002B01D0B0
S1230A400135745DB64823061A0E03689B5C990700D5203A4F2A01D100F01FFC502A01D169
S1230A6000F035FC80273F0123061B0E002B06D02C2B04D00135745D231C002BF8D1230689
S1230A80002B01D00135745D23061B0E362B01D100F007FC372B01D100F01CFCC0231F4356
S1230AA023061B0E002B06D02C2B04D00135745D231C002BF8D12306002B01D00135745D4E
S1230AC023061B0E322B04D100F0F4FB0135745D231C002B01D02C2BF8D12306002B01D028
S1230AE00135745D23061C0E03681B5D0221181C221C084000D0203A522A00D1E3E3231C5C
S1230B00002800D0203B482B00D1DAE373781D1C303D032D04D8281C41463A1C06F0BAFD12
S1230B2006B078BC9846A146AA46B346F0BD43780125202B01D03D2B02D10135735DF8E74F
S1230B407419201C00210A2208F060FA2378071C002B00D194E32C2B00D1E4E30135745D02
S1230B60002C01D02C2CF9D12306002B00D0013574196321201CFFF7C9FE694B227819681F
S1230B80525C442382461A4200D17BE344220135745D635C1342FAD123061B0E202B02D02E
S1230BA02C2B00D0F7E20135735DF7E702F0F2FC4378027884781B02134324041C43C37807
S1230BC058481B0601211322234306F039F9A7E701210130FFF79AFE0122131C0340012145
S1230BE0B01C9846FFF792FEF37883460325202B01D03D2B02D10135735DF8E77419632118
S1230C00201CFFF783FE464B22781968525C442382461A4200D139E344220135745D635C1F
S1230C201342FAD123061B0E202B02D02C2B00D0DFE10135735DF7E743780125202B01D059
S1230C403D2B02D10135735DF8E774196321201CFFF75CFEFF210A1C314B02401968924676
S1230C602278525C44231A4200D111E344220135745D635C1342FAD123061B0E202B02D0E5
S1230C802C2B00D0A9E10135735DF7E783780225202B32D03D2B30D084782306002B00D1C3
S1230CA03EE770194378002B00D139E7172169448A46041C0BE0302B00D114E32378002B02
S1230CC000D12DE76378201C002B00D128E70221FFF71CFE5246107073780234312B00D170
S1230CE0CCE2312BE7DD322B00D1FEE2332BE5D10820514600F0EEFEE0E70135745D202C4B
S1230D00FBD03D2CF9D0C8E783780225202B01D03D2B09D10135735DF8E70000A4A6000074
S1230D2004002000DC9F00007419201C00210A2208F06CF923788046002B00D1AAE22C2B5D
S1230D4000D179E60135745D002C00D175E62C2CF8D172E6C24806F091F8C24806F08EF878
S1230D60C14806F08BF8C14806F088F8C04806F085F8C04806F082F8BF4806F07FF8BF4800
S1230D8006F07CF8BE4806F079F8BE4806F076F8BD4806F073F8BD4806F070F8BC4806F04B
S1230DA06DF8BC4806F06AF8BB4806F067F8BB4806F064F8BA4806F061F8BA4806F05EF822
S1230DC0B94806F05BF8B94806F058F8A8E601210130FFF79BFD0122131C03400121B01C8C
S1230DE09846FFF793FDF37883460325202B2CD03D2B2AD0F47823060027002B1CD070192A
S1230E004378002B18D017246C44A246051C01AC0221FFF77BFD5146087038550F230235C9
S1230E2001371F402B78002B03D06B78281C002BEED1002F00D060E2444623015B440122B4
S1230E409B499B0052425A506AE60135745D202CFBD03D2CF9D0CEE7002007F09FFF061CA5
S1230E60012007F09BFF051C022007F097FF041C032007F093FF2A1C0090311C8D48231CE9
S1230E8005F0DEFF00250BE0281C07F011FF291C021C0135884805F0D3FF122D00DDB2E142
S1230EA0002DF1D0854805F0CBFFEDE784780225002C00D134E623061B0E492B00D111E11D
S1230EC0492B00DD8DE1412B00D10BE10135745DEEE7FFF739FD23E601210130FFF716FDB9
S1230EE00122131C03407648191C764B5A5C05F0A7FF15E6002007F051FF061C012007F0B8
S1230F004DFF051C022007F049FF041C032007F045FF2A1C0090311C6B48231C05F090FFE8
S1230F2000250AE0281C07F0C3FE0135011C674805F086FF122D00DD79E1002DF2D02C2075
S1230F40FFF7CEFCEEE783780225202B01D03D2B02D10135735DF8E7701900210A2208F0CC
S1230F6055F873781D1C303D8046022D00D9D7E5802149000A1C012007F05CFF281C4146B7
S1230F80002206F0B1FECBE502F004FB4378027884781B02134324041C43C3784C481B06CA
S1230FA010E643780125202B01D03D2B02D10135735DF8E7701900210A2208F027F8454B9D
S1230FC01860454B1860ABE501210130FFF79EFC0124211C0140414887E7701900210A22AA
S1230FE008F014F88146514601204A4606F016F996E574196321201CFFF788FC814638484C
S1231000237801685A5C44231A4200D13CE144220135745D635C1342FAD123061B0E02E0E1
S12310200135745D231C202BFAD02C2BF8D023061A0E03689B5C990700D5203A452A00D170
S12310403DE100272306002B01D00135745D23061B0E202B01D02C2B77D10135735DF8E729
S1231060F89F000014A0000058A000009CA0000004A1000058A1000098A10000D8A100009D
S123108014A2000068A20000C4A2000014A3000080A30000C4A3000018A400006CA4000019
S12310A0B0A40000F8A4000030A5000094A5000068232000D0A5000008A6000010A60000AA
S12310C014A60000BC2A20001CA6000038A600003CA60000EC242000E82420004CA600007C
S12310E00400200023061B0E412B00D1B1E001200821002207F09EFE0124A0460135735D98
S1231100562B00D1ADE080210020C9050022013507F090FE002170190A2207F077FF4146B6
S1231120071C002901D009231F1A0135FA0765D58021090400200A1C07F07CFE082F00D943
S1231140C4E67A4ABB009B589F46701900210A2207F05CFF4246150159466B18744A9B0049
S12311609A185346041C013300D19DE000231360002801D101231F4359464A46534640461A
S1231180009706F09DFE59466A4A6B189B009C50694A9C50C4E470196321FFF7B7FB814603
S12311A05146381C4A4607F045FEB9E463490120002207F03FFE0135745D79E6802201208D
S12311C05E49920007F036FEF5E701205B49022207F030FEEFE7594901200A1C07F02AFEDF
S12311E0E9E7502B42D0562B00D06FE60135735D302B7CD0012020210022DAE78021002035
S12312000904002298E70A20FFF76AFB002007F0A3FE0404012007F09FFE494B0204240C58
S12312201B684848211C120C05F00AFE78E43B20FFF756FB002007F08FFE0404012007F07D
S12312408BFE3F4B0204240C1B683F48211C120CEAE701200821082207F0ECFD00239846B6
S12312604CE78021C90500200A1C50E70135735D302B32D00120042100229AE7042038E5BE
S1231280745D71E4745D87E4745DC6E6745DC9E4745DF1E4745DFFF7D0FB8027BF00FFF759
S12312A0E3FB4023FFF7FBFB04231F4301235B42136061E780239B011F43FFF707FC022735
S12312C0C0E60F4322E401231F43FFF718FC0027FFF7CAFB8023FFF7E2FB012004210422B8
S12312E007F0A8FD67E7022003E5062001E501202021202207F09EFD5DE701AC5946221CE6
S12313003B1C404606F088FE424610015844084B8200D7500D4BC000C018211C3A1C08F0C4
S1231320C1FDFFF7FDFB1C1C1EE4000084A700006823200068242000E82320000202000012
S1231340F024200060A600007CA6000068222000F0B55F4656464D464446F0B482B000208A
S1231360142100F0F9F90020B249FA2205F056FF02208021802207F05DFD01202421002293
S123138007F058FD802101208901002207F052FD02208021802207F04DFD0B202021002215
S12313A000F06EFB002209201A2100F069FB07226A4490460120414600F0DCF90028F9D0EB
S12313C001201621002200F05BFB0320414600F0D1F90028F9D003201721002200F050FB3C
S12313E00520414600F0C6F90028F9D005201821002200F045FB0720414600F0BBF9002873
S1231400F9D007201921002200F03AFB0A221B2389480A2100F056FA884B00221A60934669
S12314209146874800F0B4FB0006000E10381028F7D8844A83009B589F460B2000A900F013
S123144099F9009B002BECD10020322100F084F902F0AAFD002000F051FAE2E77A4B7B4A4C
S12314601360764B1A68002A06D079490B68643B002B00DCD8E00B60764A002592460027D0
S1231480AC01EE0105E013600137083604340F2F1CDC5346E1580029F6D06F4BE218136880
S12314A0643B002BEFDC6D4BE3581160002B00D19EE0002BE8DD6A4A391CB218281C013776
S12314C006F0AAFD083604340F2FE2DD0135012DD5DDA6E7634805F0B3FC04E043466248EF
S12314E0197805F0ADFC0320414600F043F90028F4D00A20FFF7F4F993E75C4805F0A0FC3B
S123150004E043465848197805F09AFC0720414600F030F90028F4D00A20FFF7E1F980E78A
S1231520534805F08DFC04E042464F48117805F087FC0520414600F01DF90028F4D00A20C2
S1231540FFF7CEF96DE70920414600F013F94246137848484A4683547E2A01D80122914447
S12315601B061B0E0D2B48D00A2B46D05A46502A4DD043461B789B4653E7012006F06EFD92
S12315800025041C012603E001350F2D00DD48E7331CAB402342F7D00120291CFFF712FAAC
S12315A0F2E7002006F05AFD0025041C012603E001350F2D00DD34E7331CAB402342F7D0C2
S12315C00020291CFFF7FEF9F2E72B4805F038FC04E042462448117805F032FC0120414614
S12315E000F0C8F80028F4D00A20FFF779F918E7281C391CFFF7E6F946E74A460023835495
S1231600FFF70AFA00235A469946502AB1D142461378382BADD1012000F03AF9002342464B
S123162013709B460022FBE60A601448FFF7F4F922E700000F0F0F0F88002000EC24200079
S1231640A8A70000B4A70000010000A540FDFFFFE824200068242000E8232000682320004D
S12316606822200088A600008CA6000094A6000098A60000080020009CA60000A0A6000034
S123168000B500F017FD00F0F3FC00F033FC00F0A3FC00F0CDFC00F089FC00BD82B00006DD
S12316A009066B46000E090E1D22009218715971684600DF02B0704700487047F8A7000089
S12316C083B000230093684600DF03B07047000010B50D4B0006C00C88B0C41801F044FFEF
S12316E023680393039B002B09D0039B1B68236063695A1CA36962619A4200DDA26101F0C1
S123170029FF039808B010BD1C25200083B0000609066B46000E090E1B22009218725972DA
S1231720684600DF03B0704700B50006000E002807D1074B1868036A002B00D1C161016225
S123174000BD2423021C5A43024BD018F3E7000014252000B42120008BB014230006079357
S1231760000E07AA6B46107109910A93101C00DF0BB0704787B00D23000600936A46000E02
S1231780002350720391137407230193684600DF019807B07047000087B00C2300060093F4
S12317A06A46000E002350720391137406230193684600DF019807B07047000083B00006DD
S12317C0000E6B46152200921872684600DF03B07047000088B00006000E6A460723009343
S12317E010720391684600DF08B0704730B50006050E194B6A01D41887B001F0B5FE2268B5
S1231800002A12D0154B1B689A421AD001F0A2FE0E2300936A4600231572537200230193E4
S1231820684600DF019807B030BDA3690133A3610A4B1B6823600123636001F08BFE0020BA
S1231840F1E7A3690133A36163680133636001F081FE0A20E7E70000DC27200014252000C2
S123186085B00006000E6B46032200921872684600DF05B07047000083B00006000E6B4638
S12318801A2200921872684600DF03B07047000085B0022300060093000E6A46002310729F
S12318A00193684600DF019805B0704786B013230093002305900193684600DF019806B0D7
S12318C07047000030B586B01B061B0E6D46122400940590039104922B72684600DF0598E5
S12318E006B030BD83B00006000E6B46192200921872684600DF03B07047000083B00006C2
S1231900000E6B46182200921872684600DF03B07047000082B0000609066B46000E090E9A
S12319201E22009218715971684600DF02B0704730B50006174B050E6A0187B0D41801F0A9
S123194013FE154B22681B689A4218D16368012B19DCA368002B0CD001F0FCFD0F22009295
S12319606B46002201921D72684600DF019807B030BD6360236001F0EDFD0020F7E701F094
S1231980E9FD0920F3E7013B636001F0E3FD0A20EDE70000DC2720001425200084B02F238A
S12319A0009302900191684600DF039804B0704785B0012300060093000E00236A46107284
S12319C003930193684600DF019805B07047000083B01C2300930D230193684600DF019858
S12319E003B07047F0B50006134B070E7A0188B0D41801F0B9FD23680393039D6E46002D73
S1231A000FD0039B1B68236063695A1CA36962619A4204DC01F09EFD039808B0F0BDA261E3
S1231A20F8E701F097FD062300930123377233750695684600DFEFE71C25200087B026232E
S1231A40000600936A46000E002310721375684600DF6B46187D0006000E07B070470000A9
S1231A6087B0272300060093000E6A460023107206910193684600DF019807B07047000026
S1231A8010B589B0000609066C46000E090E21230093207221770892684600DF09B010BDAA
S1231AA087B00D23000600936A46000E002350720391059301231374684600DF07B07047AD
S1231AC083B0232300930190684600DF029803B07047000087B00C23000600936A46000E17
S1231AE0002350720391059301231374684600DF07B07047024B0006C00CC01840687047D5
S1231B001C25200030B50006050E194B6A01D41887B001F029FD2268002A13D0154B1B68DF
S1231B209A421BD001F016FD0E2300936A46012315725372002301930393684600DF01987F
S1231B4007B030BDA3690133A3610A4B1B6823600123636001F0FEFC0020F1E7A369013334
S1231B60A36163680133636001F0F4FC0A20E7E7DC2720001425200087B00006000E6B464A
S1231B80202200925872684600DF07B07047000084B0222300930390684600DF6B46187A39
S1231BA00006000E04B0704786B02A2300930590684600DF039806B070470000F0B5574620
S1231BC04646C0B400061A4B060E924672018FB0D418884601F0C8FC23680A930A9D07AF04
S1231BE0002D15D00A9B1B68236063695A1CA36962619A420ADC01F0ADFC00235246136089
S1231C000A980FB018BC9846A246F0BDA261F2E701F0A0FC0623079301233E723B754346DF
S1231C200D936B4608950E93381C00DF089BE5E71C25200030B589B00006000E6D462E24D7
S1231C40009428720491059203930C9B069300230193684600DF019809B030BD10B58EB0CA
S1231C600D230006079307AC000E012360720A910C922374052308936B460D93201C00DFDA
S1231C8008980EB010BD000010B58EB00C230006079307AC000E012360720A910C922374BC
S1231CA0052308936B460D93201C00DF08980EB010BD000000B50006000E002803D1044BB2
S1231CC01B68587B00BD24234343024A9B18F8E714252000B42120000006000E282343430F
S1231CE0014A9B18186970475C252000024B0006000E185670470000DC282000014B1B6890
S1231D00187B70471425200070B50006050E1B4B6A01D4188EB00E1C01F026FC2268002AF2
S1231D2015D0174B1B689A421DD001F013FC0E23079307AA01231572537200230A960893C2
S1231D406B460B93101C00DF08980EB070BDA3690133A3610A4B1B6823600123636001F023
S1231D60F9FB0020F1E7A3690133A36163680133636001F0EFFB0A20E7E70000DC27200077
S1231D801425200084B02C2300930390684600DF04B0704786B02D230093002305900391E0
S1231DA004920193684600DF019806B07047000084B02B2300930390684600DF04B07047C2
S1231DC08CB0012300060793000E07AA002310720A9108936B460B93101C00DF08980CB0AF
S1231DE07047000000B50006000E002802D1044B1B68187B24234343024A9B18186A00BDF4
S1231E0014252000B421200010B500060C4A040E1357013310D01357002B00D110BD01F09B
S1231E20A3FB084A13681C7001331360064B00221A7001F08FFBF1E700231355EEE7000050
S1231E40DC2820000425200008252000F0B5124D29680123041C437400291AD00F4F8A68D1
S1231E603B688068D21A3E1C904208DB0D1C0968002904D08A683368D21A9042F6DA3B6883
S1231E80C3182160A36065602C60002900D04C60F0BD024F8068F2E700252000F0242000B1
S1231EA010B50B4B19680A684C7B1A6053600268002A06D0537BA34203D8101C1268002A54
S1231EC0F8D1016048600A60002A00D0516010BD1425200010B50023041C437401F044FB02
S1231EE0626823681360002B01D023685A6001F031FB10BDF0B557464646C0B4204B214AD3
S1231F001B6812685B429B1A1F4A12689B1A1F4A9A581F4B1A601F4B01221A701E4A1F4BAE
S1231F201A6053607F2353731D4B1B78141C01252434012B20D31B4A1B4F80269446B846F3
S1231F409A4676002A016244137B51686661257363730B68A36193689B080022002B05DD96
S1231F6047463868013201C19A42FBDB6B1C1B061D0E2434AA45E5D218BC9846A246F0BD71
S1231F804C0000005000000054000000008020000C25200008252000B421200014252000C1
S1231FA0B09F0000609F00005800000010B5084B1B7801220749012B08D30024181C531C8B
S1231FC01B061A0E4C6120319042F8D210BD0000B7AA0000FC27200070B5124B1B7801256E
S1231FE01148124C012B1BD31E1C036823601A1E0BD083680121012B07D943689B181360E7
S12320001A1C836801318B42F7D8436863608368A3606B1C1B061D0E0C302034AE42E4D268
S123202070BD000020A9000014A900003C25200010B50C4B1B7801200B490C4A012B0FD3E0
S12320401C1C0B6813604B6853608B689360013BD360431C1B06180E0C3128328442F0D2DE
S123206010BD000074AA0000C0A900008425200010B50B4B1B7801220A49012B09D30124EE
S12320806442181C531C1B061A0E0C7001319042F8D2054B054A1360054A136010BD0000BF
S12320A00CAC0000DD282000BC282000F8242000042520007047000070B50D4B0006C00CB0
S12320C0C41801F05BFA061C01F04EFA2568002D08D02B68236063695A1CA36962619A42EA
S12320E000DDA261301C01F04FFA281C70BD00001C25200030B5040601F040FA051C01F078
S123210033FA064A1368240E1C7001331360044B0022281C1A7001F037FA30BD04252000C7
S12321200825200000B515490B68154801330B600268136A002B04D0D369013BD361002B0F
S123214015D0104B1B68002B0BD00A689B689A4207D40D4B01221A700C4B00221A7001205D
S123216000BD0B4B1B68002BF3D10020F8E70368074A13601A6ADA61E3E70000F0242000EB
S12321801425200000252000FC242000082520001025200010B501684368447B4B604368CD
S12321A019600A68002A06D0537BA34203D8111C1268002AF8D1086041600260002A00D0A3
S12321C0506010BD30B544680368457B2360002B01D003685C6062685168002907D0537BCB
S12321E0AB4204D9141C0A1C51680029F7D1606004604260106030BD00B542685368002BA9
S123220007D10368002B03D0427B5B7B9A4213D800BD0368002B06D1527B437B9A42F7D9BE
S1232220FFF7D0FFF4E7517B427B914202D85B7B9A42EDD98A42F3D3FFF7ACFFE8E700004A
S123224030B50906090E4173194D2C68037B227B9A4216D04569002D04D04269AA231A4261
S123226023D130BD4468637B8B4219D90268546043681A600F4A136803600F4B10601D705F
S1232280EFE703685B7B9942EBD923682B605D60084B1A6802601860074B00221A70E0E73D
S12322A00268537B9942DCD9E1E7FFF7A5FFD8E7142520001825200008252000F0B55746EC
S12322C04E464546E0B401F04FF9AC4A01231370AB4A1378002B00D09FE0AA49AA4A9246B8
S12322E00A68894605E000230B7001F03DF94B461A6851460B689A4251D001F02BF9A24AD4
S12323001368A248197801331360884609180A78531C1B061B0E012BE5D901235B4212062F
S12323200B70120E24235A43994BD51829694B790A791B0213438A7912041A43CB79AF682C
S12323401E061643002F02D07B69012B5BD03368222B0BD06B69402293436B616B69002B26
S1232360C3D18C4A13682B601560BEE742463272F26813781B06002BECD001248348644220
S12323801B0E19180B7801331B061B0E012B00D90C70013213781B06002BF1D1DAE77E4B07
S12323A05246494613600B6001F0D4F8794E3568321C002D18D0794F2B6813603968687B3E
S12323C04B7B3C1C0A1C984205D3141C1268537B9842FAD2111C296023686C6025605D6096
S12323E03568321C002DE7D101F0BEF8634A1378002B00D16AE7694B1B68186938BC984653
S1232400A146AA46F0BD3B7E4345A0D100247460381CFFF75FFDAC6099E700231370604B07
S12324201E6801F097F85F4C2268002A2ED093689E422BD4171C01F097F823681A68226019
S1232440002A00D0546001F085F8796900237B740629E8D8544A8B009B589F4601F084F80B
S123246048493A7E0B681A7001330B60434B00221A7001F06FF8FB68002BD4D0BB60381C40
S1232480FFF7E4FC474C2268002AD0D147480168002909D04B69002B04D10C684A7B637BB5
S12324A09A4239D00023036001F05EF815E73A7C24235A43364BD51804293CD00023AB60FB
S12324C06A682B681360002B01D02B685A606B69AA220DE0397E2D4B012252425A543A7C00
S12324E024235A432A4BD5180023AB606B69402293436B616B69002B95D1264A13682B60B1
S1232500156090E73A7C24235A43214BD5180023AB606B690422EBE74B68636003685A683B
S12325201B681C4913600B680268136003680B6000230360B8E729694B790A791B021343A5
S12325408A7912041A43CB791B06134305225A601B7A174A5B019818027C002AAED0836852
S1232560AB42ABD12968002902D0497B8A4200D2111C0068FFF764FEA0E70000082520003F
S1232580FC24200004252000F8242000DC282000B421200018252000BC282000142520009F
S12325A0F02420000025200018A8000010252000DC27200070B5061C124C134809060D0E3C
S12325C003782178994200D9017000F0CDFF002D07D00E4A13681D70013313600C4B00227E
S12325E01A702378012B01D0301C70BD084B1B78002BF9D1074B1B681E6100F0ABFFFFF77D
S12326005DFEF2E7F424200009252000042520000825200014252000F0B55F4656464D4694
S12326204446F0B4437902791B021343827912041A43C94FC3791D063B68186115432968D4
S12326402F295AD8C54A8B009B589F466A7A28235A43C34BD21893689A46136990469A45AA
S123266001D100F09BFD00236B60516817698B46002F01D000F016FD5669002E01D100F052
S123268011FD33685361002B03D0326843461433536073698022934373617369002B05D1B9
S12326A0B04B1A6832601E60AF4B1F70B368002B03D0181CFFF70EFCB76031694B790A79BB
S12326C01B0213438A7912041A43CB791906114358464F60002801D000F05EFE41460B6AC8
S12326E0487F01330B62002801D000F051FE4246D07F002801D09D4B1F5400F035FF9A4B02
S12327001B78002B08D0944B1B68186978BC9846A146AA46B346F0BD00F01CFFFFF7CEFDE1
S1232720F4E7AB68686806F071FDE860E5E72A7A28235A438A4BD218EB6813602B69536007
S123274090466A6943469A60AB699146002B00DA56E3994500DA53E3002B01D000F041FD08
S1232760141C4046013C0027C4600761C5E76B699A46002B09D0122900D169E33B685046BA
S1232780027C1B7B9A4200D162E304236B60B4E7EC6823781B06002BAFD07449894601213A
S12327A049421A0E48468356002B00D18154013423781B06002BF4D19FE7EC6823781B06B3
S12327C0002B9AD0694D6A4E674F05E0013423781B06002B00D190E71B0EEB56002BF5D099
S12327E000F0C2FE336822781A700133336000233B7000F0AFFEE9E769694B7C8A46012BCF
S123280001D100F001FD0026EE6076E72B7A594A5B019C182368002B00D04BE3AB6963613F
S12328206BE72A7A28235A434D4BD2182B6A9046012B01D100F08DFC012B01D200F067FC00
S1232840022B01D100F090FC032B00D055E72B7F10699377002801D000F009FE1B06434AF4
S12328601B0ED05449E76A7A28235A433C4BD2189168907F0C1C013C0027D460904614697F
S123288089461761002801D000F04EFC4C4500D033E74346D87F002801D000F084FD40466F
S12328A0406841464E698346002E00D125E7336842465361002B03D0326843461433536068
S12328C073698022934373617169002905D1254B1A6832601E60244B1970B368002B04D0DF
S12328E0181CFFF7F7FA0023B36031694B790A791B0213438A7912041A43CB791906114302
S123290000234B60404603695F1CC3685C1C07614C4500D1E7E24246D4605B46002B00D0EA
S1232920D5E24046036A01330362436A9F4200DD4762012F00D159E242465669B4E700F02E
S123294013FE0D4B1C6800F005FE6A681368E31AAB601460D1E600001425200034A80000DE
S12329605C2520001825200008252000DC28200004252000DC272000F0242000EC68227856
S123298013060021002B10D0C14989461B0E484619180023CB56013307D13B681B7B0B7029
S12329A0013422781306002BF0D11306002B00D184E20023CB56002B00D07FE2EB682A7235
S12329C0A34200D999E6B2490122894652421B784846C254EB685E1CEE60331CA642F6D9DD
S12329E08BE62B7AAB4A5B019B58002B00D184E61B7B2B7581E66979002901D13B68197B62
S1232A002C79002C01D13B681C7B2423221C5A43A14BD6188C4200D96FE6A04DA04F1020D1
S1232A2006E0631C1B061C0E24368C4200D964E67369002BF5D07369834373617269002A50
S1232A40EFD12B6833602E603A70EAE76979002901D13B68197B2C79002C01D13B681C7B92
S1232A602423221C5A438C4BD6188C4200D944E610203B681B7BA3420AD07369002B04D196
S1232A80336872685A6072681360736903437361631C1B061C0E24368C42EAD92DE63A6856
S1232AA01368597B537B994200D026E6002169603E68336AF3613B681B68784A3B605F607B
S1232AC013683360764B1660197016E6697A4B1E1B061B0E7D2B01D97E2169722C7A002CC4
S1232AE000D073E23E680906301C090EFFF7A8FB03E62B7A674A5B019C18A36920680133E5
S1232B00A361002800D001E23B682360012363606860F2E52C7A002C00D0F1E13E68347B5D
S1232B20B3689A46002B05D05B7C012B00D1BDE10023B3607369002B03D07269AA231A4210
S1232B4006D0726833681360002B01D033685A607369AA2293437361802372695B001A43DA
S1232B60504B1B787261A34200D2C6E54E4A23019B181B7B7373C0E5287A4C4B4201D418F6
S1232B80FFF79AFA071E00D13DE1EF60B5E52C7A3F4A1357002B00D0AFE5013B1355ACE54D
S1232BA02C7A3B4B1B57002B00D0C4E20E236B60A3E537482C7A03578146013300D1E2E23F
S1232BC00357002B00D09EE2013B035595E52A7A24235A43304BD6187369002B00D18CE5D4
S1232BE073690122934373617169002900D084E52A4B1A6832601E60294B19707DE52C7AE0
S1232C00002C00D03DE23E68736901221343736132687368536073681A606EE52C79002C25
S1232C2000D163E13B681B7BA34200D15EE12423221C5A43184BD618736904273B4200D086
S1232C408EE333691C3B9A4673695246B260002B04D1336872685A60726813607369042228
S1232C6013437361AB68504683600023C360436104760474FFF7EAF83FE52B7A054A5B0172
S1232C809C182268002A00D0B6E16A6035E50000DC282000DC272000B421200018252000E4
S1232CA008252000B09F0000609F00001C2520006A7A28235A43C84BD21814699046002CCC
S1232CC000D052E12B7C002B00D116E53E688023101C73611430FFF7E3F86B69002B00D121
S1232CE00BE5AB69B3609A466B6950468360C460032343616B7A0376337B0374FFF7A6F887
S1232D00FBE42C7A2423221C5A43B44BD6187369002B04D1336872685A6072681360B04BC8
S1232D202101C9188A684B689B1809681C1C443C1A1F3461080A1170DA1E10709A1E080C66
S1232D401070090E5A1E11703F2222701A1C00250C3A6570A570E570190A137001321170B2
S1232D60190C013211701A0E093B1A70F56135623B681B7B002B00D092E1102333E72B7AFA
S1232D80984A5B019C18E369E6680133EF68E361002E00D1F0E231694B790A791B021343AF
S1232DA08A7912041A43CB7919061143CF603368E360002B03D03268231C0C335360736930
S1232DC00222934373617069002805D1864B1A6832601E60854B1870B068002800D18CE40E
S1232DE000244C60FFF776F8B46086E44146487F002800D1A0E5FFF707F84246566953E5DD
S1232E0008236B6079E42B7D002B00D1BDE6784B1E680221201C71610C308846FFF740F862
S1232E20AB69002B00D1B0E6EB69B3609A46AB69524693604346D76053612B7A1376337BB2
S1232E4050461374FFF702F805236B60EF6054E45246537C002B00D076E2132900D1E0E25E
S1232E60122900D1C3E251460B7E2B72EE68524696602B69D360062353615D4B1B681B7B97
S1232E8013742A7A53461A765A492B7ACB56002B07D12B69002B04D1130601221B0E5242E1
S1232EA0CA545046FEF7D2FFFFF727FC5046FFF711F83DE609236B60FFF71FFC3A684023B6
S1232EC053613B681B683B605F60FFF716FC5B46634342461068C968C0185A4606F0E2FFEB
S1232EE043461F691DE50024C46016E5AB68002B01D1FFF702FC3E68E868347B8246A3E67E
S1232F002423221C5A43354BD61809E63B68984200D1AFE0E3690133E3616B7A002BC9D0E4
S1232F206369012B00D185E23E680823201C73610830FEF7B5FFEB68002B01D1FFF7DDFB7D
S1232F402B69B3609A46EB6851468B600023CB6004234B612B7A0B76337B50460B74FEF712
S1232F6075FF05236B60FFF7C8FB00266E6013695F1ED3681761DC1B00D5EEE142465268B0
S1232F809346002A00D034E1002F00D020E14246517F002903D00122164B52425A544346A2
S1232FA0987F002800D040E24246176940468368013B9F4200D133E14146C87F002801D199
S1232FC0FFF79BFBFEF720FFFFF797FB2423221C5A43024BD61886E55C252000B421200067
S1232FE0609F00001C252000182520000825200014252000DC2820003B689A4200D059E7B7
S12330006368581E6060002837D16369012B00D155E2A668002E00D167E23368A360002B5C
S123302003D03268231C0833536073690822934373617169002905D1DD4B1A6832601E60AF
S1233040DC4B1970012326606360B2689246002A01D1FFF752FB31694B790A791B021343CA
S12330608A7912041A43CB791B061343002450465C60B7E66368013363600A236B60FFF758
S12330803CFB2423221C5A43CB4BD6187369002B00D1B9E57369012213437361FFF72DFB12
S12330A07561A1E5434601371F61DB685C1C544500D131E14146CC605A46002A00D020E1EA
S12330C04046036A01330362436A9F4200DD4762574500D124E14246D17F002904D0B74B03
S12330E000225A5443461F69012F01D0FFF705FB4246917F002903D00122B04B52425A5400
S12331004346587F5AE701236B60FFF7F6FA2A7F43465A771B69002B69D013061B0E0021E7
S1233120A64AD154FFF7E9FAFEF76EFE424692689146FFF7ABFB00F017FAA14A13681C7054
S1233140013313609B4B00221A7000F003FAFFF7D4FA297F101CD177836812699A420AD049
S12331600B061B0E0021DBE7297F40461177836812699A42F4D00B060121904A1B0E4942B1
S1233180D154FFF7BAFAEB683E68002B00D01BE1337B4A4613554023736192E62B7C002B45
S12331A001D1FFF7AAFA3E688023101C73611430FEF776FE6B69002B01D1FFF79EFAAB6936
S12331C0B3609A466B69504683600023C3608FE541464A7F002A00D1E8E6784B9E540F69AB
S12331E0E4E641465C1E0B61CC60FFF786FA1306C2E75B46634340460168E868C91806F0D3
S123320051FE41460F69BFE600F0AEF9524693686C4A12689E1AEE6000F09CF9FFF76DFA75
S12332204669002E00D13FE133684361002B03D0326843461433536073698022934373613A
S12332407169002905D15A4B1A6832601E60594B1970B168002904D0081CFEF73BFE0023A2
S1233260B360424613695F1CD3685C1C936817619C4200D115E14346DC6031694B790A7947
S12332801B0213438A7912041A43CB7919061143002558464D60002800D0EAE04046036A65
S12332A001330362076983689F4200D1EBE04346DA7F002A03D0414B9D5440460769012F17
S12332C001D0FFF71AFA4246517F002901D1FFF714FA3A4B99465B56013300D12AE10B0682
S12332E01B0E4946CB56002B01D1FFF706FA00F03BF9334940460B68427F1A7001330B607B
S123330020E75B46634341460868E968C01806F0C9FD42461769D3E600244046C460CBE63F
S12333204246D17F002903D00122244B52425A544346187F002802D140460769D4E6FEF721
S123334063FD40460769CFE65046FEF7C3FD2968132900D084E5FFF7D0F99368E4180DE664
S1233360B168081C8A46FEF7B5FDAB68002B00D06AE47369BB4336E400F0F6F823683B6041
S1233380276000F0E7F86369013B6361FFF7B5F9FEF73AFDFFF7ABF9C8685A46E96806F086
S12333A081FDFFF79BF9FEF72FFDFFF778FA00001825200008252000B4212000DC282000B5
S12333C004252000F02420002B69B3609A46EB6851468B600023CB6001234B610C76337BC2
S12333E050460B74FEF732FD05236B60D0E6EE68002E00D03BE52B69002B7FD02B69002BA6
S123340000D134E5EB602C7A00F0AEF84C4A13681C70013313604B4B00221A7000F09AF82F
S123342024E503236B60FFF768F9FEF7EDFC40460769BBE53968061C4B7B407B984200D8CD
S123344072E5237C002B01D1207439684B7B71697373002965D132687368536073681A60DE
S1233460394A13683360374B166019705CE51B0682E65B46634342461068C968C0185A467C
S123348006F010FD0AE7C17F002903D001222F4B52425A544146087F00282AD141460F69E9
S12334A00DE70024D460E8E64246117F002903D00122264B52425A544346D87F7EE5227C23
S12334C0002A00D1A5E53B685A733E683168237C4A7B9A4207D21C4B39604F601A683260D8
S12334E01E60184B1870207493E526606E60FFF704F9FEF789FC42461769E0E6144B1B68E2
S12335001B7B504603742C7A00F02EF80C4A13681C70013313600B4B1E7000F01BF8FFF767
S1233520ECF87269AA231A4200D1FDE4301CFEF763FEF9E4002348464354FFF7DEF800005A
S1233540042520000825200018252000DC282000142520007847C04600000FE18000C0E31F
S123356000F021E11EFF2FE17847C04600000FE1800080E300F021E11EFF2FE17847C046AC
S123358000000FE11EFF2FE17847C04600F021E11EFF2FE110B50220FEF7B4FA054C0649FC
S12335A0201C042201F02EFC0220FEF7C1F9201C10BD0000BE20200000FE09008020800289
S12335C070470000F0B5C0239B03081C994217D90C4B1B78591C012501290FDD0A4B0B4FD1
S12335E01C6801222426131C7343DB19A34205D06B1C1B041A141D0C8A42F4DB044B184004
S1233600F0BD0000B09F000014252000B4212000FFFFFF3010B50024011E10D00520FFF72C
S1233620D1FF4379E418437802781B021343827812041A43C3781B06191C1143EED1201C09
S123364010BD000010B5011E13D00120FFF7BAFF437802781B0213438278C47812041A43B1
S12336602406011C14430120FEF7B4F8211C002CEBD110BD30B50D1C041E1ED0211C022077
S1233680FFF7A0FF291C041C0320FFF79BFF051C00E06446637822781B021343A2781204B6
S12336A01A43E3781B0613439C46F2D12B0A63702B0CA3702B0E2570E37030BDF0B54746A0
S12336C080B4051C0026291C0420B046FFF77AFF051E36D0FF272AE0287920716B7963715A
S12336E0002323706370A370E37000062979000E001949196A7906F0D5FB002E0AD0231CB6
S12337003B403370230A3B407370230C3B40B370230EF3706B782A781B021343AA7812046B
S12337201A43EB781B061D1C261C154309D00120FDF7CEFF041E08D04346002BCCD1A046E5
S1233740CAE7404608BC9846F0BD4046FFF77AFF0020F7E7F0B557464E464546E0B4804631
S123376043460F1C161C0620002219689246FFF729FF4246051C1060002D1FD0002E1DD050
S12337806A79A946141CB24200D9341C002F07D02979381C221C491906F084FB6A793F19BA
S12337A02B79E3182B71131B6B711B06A244361B002B09D043461D68002DDFD1504638BCEF
S12337C09846A146AA46F0BD6B782A781B021343AA7812041A43EB781B0613434246136021
S12337E001204946FDF7F6FF43461D68E4E70000F0B5474680B400230F1C161C9846051E6C
S123380018D0002E16D06B791C1CB34200D9341C002F07D02979381C4919221C06F042FB9F
S12338206B793F191B061B0EA044361BA34205D0002DE6D1404608BC9846F0BD6B782A78D1
S12338401B021343AA7812041A43EB781D061543EEE70000F0B5474680B4051C8846171E1F
S123386002D120E0002F1ED0002D20D06E79341CBE4200D93C1C297940464919221C06F011
S123388001FB002813D1A0443F1BA642EAD16B782A781B021343AA7812041A43EB781D0628
S12338A01543002FE0D1012008BC9846F0BD0020FAE70000F0B55F4656464D464446F0B4B4
S12338C081B00D1C061CFFF7A5FE8046281CFFF7A1FE404507D0002001B078BC9846A1460A
S12338E0AA46B346F0BD0021424689468A46002A1DD10120F0E7FB1A59469A460B064946A2
S12339001A0E63189A423BD969460978D31A994642460B06121B1B0E9046A3423BD05A46BF
S123392013061B0EA34245D04346002BE1D0002ED1D0002DCFD071796B4619706B7977794F
S1233940524649469B46BC1A5B1A9C4200D91C1C307929798019491950444944221C06F086
S123396091FA0028B7D15246A3189F42C3D8002359469A460B0649461A0E63189A42C3D8DD
S1233980694609780023424699460B06121B1B0E9046A342C3D1737832781B021343B27881
S12339A012041A43F3781E0616435A4613061B0EA342B9D16B782A781B021343AA78120427
S12339C01A43EB781D061543AEE7000070B50D1C161C041C0220FEF795F8281C321C211C00
S12339E001F010FA0220FDF7A3FF70BD70B5041C0220161C0D1CFEF785F80120FEF782F81F
S1233A00291C331C054A201C01F064FA0120FDF78FFF0220FDF78CFF70BD00000229200078
S1233A2030B50D1C041C0220FEF76CF8291C201C01F036F90220FDF77BFF30BD00B50220E4
S1233A40FEF760F88020C002044901F029F9044B00221A600220FDF76BFF00BDFFFF070026
S1233A60B4202000F0B557464646C0B482B0040402200D04FEF746F8254B240C1E682D0C0D
S1233A80244B254924042D0400271E40E8468A4624142D140FE0214B80213340FB1A490122
S1233AA05F181C4B1B4A33409E18564501D8FE26F602574518D808224046311C01F0A2F9F1
S1233AC043461A88931C1B041B0C012BE3D913041B14A34211D0019B9A19DB191F1C161C1E
S1233AE0083708365745E6D90220FDF721FF002002B018BC9846A246F0BD414602228B5E07
S1233B00AB42E8D10220FDF713FF0120F0E70000B420200000F0FFFFFFFF0300FF0F0000EA
S1233B208020C0027047000070B582B00220FDF7E9FF80240026E4026D4606E0019B1B19FA
S1233B401C1C0F4B08349C4214D80822281C211C01F058F90022AB5E0133EFD1094B8022C7
S1233B602340F31A52019E18074B23409C18044B9C42EAD90220FDF7DBFE301C02B070BD55
S1233B80F6FF0700FF0F000000F0FFFF00B580220549002052031388584003040232180C7D
S1233BA08A42F8D900BD0000FFFF1300F0B5474680B409060C0E84B0071C012C3FD0022C46
S1233BC065D013263B4B1B689E423DD80120FDF77FFD051E38D000232B706B70AB70EB70AA
S1233BE006236E712B71AE1D002F2FD00420FDF789FF314880464146381C00F0DBFE012C74
S1233C0032D0022C45D02C4C2168A2686368301C00912A4903F0FEF80A362023337021699C
S1233C20A269636900912649701C03F0F3F80420FDF77EFE281C04B008BC9846F0BD1D4BFC
S1233C401B680E269E42C1D90020F4E703F010FB071C0420FDF756FF174880464146381CA6
S1233C6000F0A8FE012CCCD141460A684B688968301C0091134903F0CDF8404601694346D9
S1233C809A69281C5B6900910F490E30CDE7172698E741468A684B680968009140468169E0
S1233CA00191416902910169301C0391074903F0B1F8BCE7B8202000C420200010AC0000A0
S1233CC020AC000030AC000040AC000050AC000000B50021FFF76AFF00BD000000B5002089
S1233CE00121FFF763FF00BD00B50221FFF75EFF00BD000030B5051C0420FDF703FF03F08E
S1233D00B7FA074C211C00F055FE281C0549A269636903F07FF80420FDF70AFE30BD00003B
S1233D20C420200044AC0000014B187870470000BD20200070B5104A1378000681B0000EAC
S1233D40042B00D01070002300930C4A13780024002B0ED96E46151C201C0B300006000EA3
S1233D60311CFDF7B7FE631C1B061C0E2B78A342F2D801B070BD0000BD202000BC20200056
S1233D8000B50220FDF7BEFE0020044900F088FF0220FDF7CDFD002000BD0000FFFF0300F6
S1233DA0F0B5474680B48023151CDB028218061C0F1C9A4203D9012008BC9846F0BD002DAC
S1233DC01ED080235B0098462C1C454501D9802464000220FDF796FE0120FDF793FE391CBC
S1233DE0301C084A231C01F075F80120FDF7A0FD2D1B0220FDF79CFD36193F19002DE3D153
S1233E000020D9E70229200070B50B4B141C8218051C0E1C9A4201D9012070BD0220FDF7C9
S1233E2071FE301C291C221C00F0ECFF0220FDF77FFD0020F1E70000FFFF0300F0B5574698
S1233E404646C0B480235B009846184B8026F602002700259A46341C464501D98024640098
S1233E600220FDF74FFE0120FDF74CFE221C5046391C00F0C7FF0022002C07DD5146535A27
S1233E805D402B0402321D0CA242F8DB0120361BFDF74EFD02203F19FDF74AFD002EDAD1FF
S1233EA0281C18BC9846A246F0BD0000022920000EB4F0B5374B1B785A1C0124012A09DD00
S1233EC0354B1968354B24338B4203D001342433A242F9DC0020FFF7FBFE051C0620FDF7D7
S1233EE011FE0120FDF70EFEE7002D493B195A181378261C002B08D0141C20780134FCF7AB
S1233F00EFFC2378002BF8D12549B819401805F0D5FF09231C1A02E02020FCF7E1FC231C30
S1233F20013C002BF8DC6B790024002B08DD2B791B19585DFCF7D4FC6B790134A342F6DC09
S1233F402020FCF7CDFC281CFFF77CFB154D802106AB281C4900059A02F020FC2B780024FB
S1233F60002B02D108E0FF2C06D8285D0134FCF7B7FC2B5D002BF6D10A20FCF7B1FC012089
S1233F80FDF7D6FC0620FDF7D3FCF0BC08BC03B018470000B09F000014252000B42120004F
S1233FA0309F00000229200030B51C4C22781C4D013A227012062B7801201A49120EFFF771
S1233FC077FF2378002B00D030BD04F053FE00204621FDF7C1FB2B780F2BF5D8124A9B00C7
S1233FE09B589F46114A124B1A60FFF7BDFAFEE7FFF7BAFA00F098FD0E4D0024FA208000D9
S1234000013403F069F8AC42F8DD0B4A0B4B1A60FFF7AAFAFEE7FCF72FF9D5E7BC202000D9
S1234020BD20200074AC00003CAD0000010000A510FDFFFFCF0700000D0000A500FDFFFF42
S1234040F0B55F4656464D464446F0B409041204090C120C83B08B469146071E3BD0022032
S1234060FDF750FD664C381C2568FFF7D3FA08302368644900902A1C0120FFF719FF2368A5
S1234080002B30D101AA90465A4613044A461E14130480251B14ED029A4603E0029B5B1948
S12340A01D1C0835584B9D420FD8082244464046291C00F0A7FE0022A35E5A1C14D0B34297
S12340C0ECD10222A35E5345E8D10220FDF730FC381CFFF7B7FA012003B078BC9846A1469F
S12340E0AA46B346F0BD01AC381CFFF793FA474A2B18183313402A409046061C434522D054
S123410002235B42238001236380414B414A2B40D21A01200292FDF7F5FC281C0823211C7B
S12341203D4A00F0D7FE80250120FDF701FC6D013A4B45449D4201D98025ED02344B281CEC
S1234140E91800F0ADFD5A464B462280638001200296FDF7D7FC281C2F4A211C082300F075
S1234160B9FE0120FDF7E4FB029E0835321C002E06D132E0029B9B1B1A1C0293002B2CD009
S12341807E79964200D9161C0120FDF7BBFC3979281C331CC919204A00F09CFE0120FDF745
S12341A0C7FB7B799B1B7B711B06AD19002BE1D17B783A781B021343BA78FC7812041A43AE
S12341C0391C240601201443FDF704FB029B9B1B271C1A1C0293002BD2D1094C321C0832E5
S12341E02368012000920E492A1CFFF761FE25600220FDF79DFB002F00D069E700206BE797
S1234200B420200088AC0000F6FF070000F0FFFFFF0F0000F80F000002292000FEFF070024
S12342208CAC000000B5021C06490120FFF740FE00203221FDF790FA0120FDF729FBFFF7AB
S123424093F9FEE7A8AC0000F0B557464E464546E0B4000409049046090C85B0070C02203A
S12342608A46FDF74FFC40460026002500280AD0514605680B043A040120674912141B14E1
S12342800095FFF715FE654BEA18654B9A4201D98025ED02504603041B1403AC3F049A4632
S12342A013E03B14013300D182E00021625E3B149A4200D186E0049B5A199B191E1C584B6B
S12342C0151C083608359E4217D8564B9D4268D8291C201C082200F095FD0021635E01335C
S12342E0DFD1514B80222B40F31A52019E184F4B2B409D184A4B9E42E7D9494B9E4200D90F
S12343007EE04046002800D177E00560291C0023E25E0220235E0093049B029101934449CF
S12343202B1C0120FFF7C4FD049E0021083589460027002E4CD0FF229246B84627E0002FED
S12343400BD05346234050463B70230A03407B70230C0340BB70230EFB7041460623237169
S123436021706170A170E170324B1B689A1F271CB24200D9321C62711206291CA01D120E51
S123438000F040FD6379F61AED18002E20D00120FDF79EF9041E25D04B46002BCFD1A146D7
S12343A0CDE7802501202449ED02FFF781FD8FE70220235E5345A0DC0021625E3B149A4276
S12343C000D078E70222A35E534500D073E794E70220FDF7ADFA484605B038BC9846A1468F
S12343E0AA46F0BD4846FFF72DF90520FFF71AFF0220FDF79DFA0020EEE74246116886E72E
S12344000E490120FFF754FD0220FDF791FA0021434600201960DFE7B4AC00000000FCFFD4
S1234420FFFF0300FEFF0700FF0F000000F0FFFFD8AC0000B820200010AD000030AD000061
S1234440F0B5474680B400061468000E0F1C161C8046002C13D0204B207961791B68421875
S12344609A420CD04B1C020663710B061B0E120ED21843461355002008BC9846F0BD012078
S1234480FDF726F9051C306000281AD03B68002B14D0002C07D02B0A63702B0CA3702B0E02
S12344A02570E3703568002306202C1C00212B706B70AB70EB7028716B71D3E73860356871
S12344C0E7E73868FFF7BEF83D6004203560FFF7A9FE0120D0E70000B8202000F0B5090647
S12344E00C0E051C171C1E1C002C0AD105F0E6FC0006040E05E02878391C321C0135FFF7C6
S12345009FFF631E1B061C0EFF2CF4D10020F0BDF0B557464E464546E0B40F680006040EEC
S123452081B0381CFFF776F8FA2800D878E0FA2188468022120365020220AE18FDF7E2FA7D
S123454003236B44994601E09B195E1C311C4846012200F057FC49460B78FF2BF4D14246CA
S12345603449B31802336A1893424FD20120FDF7AFF80028824658D0424649460A70301C91
S12345800123524600F0A6FC43460136002B05D12AE04146491B8846002925D07D794545A7
S12345A000DD45463979301C2B1CC919524600F091FC7B795B1B7B711B067619002BE8D169
S12345C07B783A781B021343BA78FC781204391C1A43240601201443FDF7FCF84146491BDC
S12345E0271C88460029D9D151460120FDF7F2F8381CFFF727F80220FDF79AF94A46107813
S123460001B038BC9846A146AA46F0BD80221203094BAC18201CE91800F042FB261CA5E788
S1234620381CFEF7F7FF804683E70320FFF7FAFDA2E7000000020800FF01080010B5000691
S123464082B0040E01200191FDF742F80090002802D1012002B010BD0023037043708370CA
S1234660C370009B06221A71009B04225A71009801A90422063005F015FC201C6946FFF7A4
S123468047FFE7E730B5000681B00904050E01200C0CFDF71DF80090002802D1012001B027
S12346A030BD0023037043708370C370009B06221A71009B02225A71009A1379281C9C526A
S12346C06946FFF725FFEAE7F0B55F4656464D464446F0B400068023C00B1B03002281B0B0
S12346E0C418022092469346FDF70CFA6D4600270026033503E01E1C1B19671C5C1C281C45
S1234700211C012200F07EFB2B78FF2BF3D1002F3DD0002E3BD000229046994618E052465F
S1234720002A0ED04B46234013704A46230A1340524653704A46230C134052469370230EAD
S1234740D370731B1B061E0EA2467F19002E1ED0164B1B68063BB34200D9331C1B06012017
S12347601D0EFCF7B5FF041E1CD04246062322706270A270E27023716571A01D391C2A1C1A
S123478000F040FB5B46002BC9D1A346C7E70220FDF7CEF8584601B078BC9846A146AA46D9
S12347A0B346F0BD0120FFF73DFDDEE7B820200030B50006000E0D1CFFF786FF041E0AD0A8
S12347C0217904220919281C05F06CFB201CFEF739FF002030BD01202C60FBE710B5000683
S12347E0000E0C1CFFF770FF002806D003791B5A2380FEF727FF002010BD20800120FBE7DD
S1234800F0B557464646C0B481B012040904140C6D46089A090C1B06023580468A4612066E
S1234820180E291C160EFFF7D9FF00282DD000232B8027041B043C141B0C9C421CDB301C42
S1234840291CFFF7CBFF002821D12B881B041B0C9C4211D09C4207DB53461D044046291440
S12348603A14FFF7EDFB0BE053461D042814211CFFF7F8F80028F1D04046FEF7E3FE01209E
S123488001B018BC9846A246F0BD2B88D1E700232B80DBE730B5051C0120FCF719FF041ECD
S12348A018D00220FDF72EF90C480D4900F0F8F90C4B1B68042B00D90423291C221C074869
S12348C000F008FB0220FDF733F80120211CFCF781FF30BD0020FFF7A5FCE2E700FE09005B
S12348E003FE0900B820200000B5FEF753FE0220FDF708F980200549000300F0D1F90220D3
S1234900FDF716F80248FFF7C5FF00BDFFFD0900BE20200010B504060120FDF7EBF8034BB8
S12349201860034B240E1C7010BD0000B8202000BC20200030B50468194B1A49051C221CB7
S12349405A43631829D49B106868D1181E23021C5A4391234343002B1DDB1B12D318AA6857
S1234960CB189918104BCA18022806DD013BCA1803231C4201D00D4BCA180D4918235218AD
S12349805343AA693C219B184B436A699B184B432869181830BDFF33DFE703316318D2E7AA
S12349A06D01000093F8FFFF7969F5FF7769F5FF8D9DFFFFF0B52F4C0F1C211C051C04F08D
S12349C06FFB031C6343E124ED1A2401211C061C281C04F065FB031C6343ED1AB8613C213A
S12349E0281C04F05DFB3C234343EB1A3B61224BF618FA239B0078612049301C584304F04D
S1234A004FFB1F4BC4181F4B051C281C58433C60642104F045FB321A151C1E35592D03DD0D
S1234A2003231C4221D00235174C6423281C5843211C04F035FB64217860604304F030FB7D
S1234A40281AB8600721301C04F02AFBC3001B1AF01A031C002800D10723981C072802DD65
S1234A60053BFB60F0BDF860FCE75A2DDCD0151C1F35D9E78051010073620000C392050036
S1234A806D070000AD8E0000F10B000070B5061C1D481E4D046880232C401B029C4203D007
S1234AA01B490B68002B1BD11A4B59681A48294004F0B8FA041C194BE218194B9A4201D9D5
S1234AC080242402FEF750FD104A80232240DB0213430D4A13600E4B1E60FEF73BFD70BD39
S1234AE00B68104AF31A9342E5D983680968201C5843711A04F096FA084BC218084B041C63
S1234B009A42DAD9D0E7000020FDFFFFFFFF000050FDFFFF20FCFFFF0040420FE0B1FFFFAD
S1234B20C05D0000B80B000010B5FEF71DFD044B1C68303B9B68E418FEF70CFD201C10BD79
S1234B4050FDFFFF074B1B68074AC01A5060D36881B00093054980234A685B021A4301B049
S1234B604A60704750FDFFFF20FDFFFF10FDFFFF014B98687047000010FDFFFFF0B584B078
S1234B80214F012503AC02AE15E0022B35D00023311C201C02220093019303F013FB737812
S1234BA01B06190EFF2919D03A78012A21D0022A26D0002D1BD03B78012BE6D129235B4211
S1234BC023700023311C201C02220093019303F0F9FA73781B06190EFF29E5D101200B49DB
S1234BE0FF22FFF765F903F06BFA002DE3D104B0F0BD002BDDDA0025DBE705232370E0E757
S1234C00CB07D6D40025D4E7E02020007CAD000010B587B0612303AC05A85B420370211CC2
S1234C20002305220093019303F0CCFAA178637822780091E1780191217901200291144991
S1234C40FFF736F963781F2B04D06378202B0FD007B010BDA378262BF7D1E378002BF4D12A
S1234C600C4B01221A7001200B49FFF721F9ECE7A378402B01D0802BEAD1E378152BE7D1C4
S1234C80044B02221A7001200449FFF711F9DFE7A4AD0000E0202000DCAD0000FCAD00003C
S1234CA0F0B5474680B4504E337884B0041C0D1C002B66D04D4B013D1C40A54245D31D40D5
S1234CC04B4BED184B4B1B78002B47D1AC4238D802AA03AE904600270DE0022B57D0301CE4
S1234CE04146042200230097019703F06BFAFFF745FFAC4225D83C4B1B78012BEDD1E0232D
S1234D001B01211C19402FD1802292002B1B9B18394A934228D950233370E30B7370E30984
S1234D20B37080235B01F170E418301C4146042200230097019703F045FAFFF71FFFAC4271
S1234D40D9D904B008BC9846F0BD294AA5181D40274BED18274B1B78002BB7D0211C2A1C5C
S1234D60264802F06DF8B1E77F235B4233708022E30B73709200E309B370A4180023F3709A
S1234D80ADE7FFF745FF3378002BDAD092E706233370301C0023414601220097019703F041
S1234DA011FAFF231B021C4212D1802292002B1B9B18134A93420BD928235B423370230C67
S1234DC07370230AB37080235B02F470E418ACE725235B42802233705200230C7370F470B7
S1234DE0230AA418B3707AE7E020200000FEFFFFFF010000022A2000FF0F000018AE000006
S1234E00FFFF0000F0B557464E464546E0B4141C2D4A137886B0071C0D1C00269046002BC0
S1234E204BD0002C34D004AB03229A469846914606E0022932D0A41BBF19AD19002C27D027
S1234E40214B19780129F4D12E2342465B421370EB0B53704B46EA099A432B0A0B401A4372
S1234E6043469A70194ADD7080232A409B009E1AA64200D9261C00970196404602A90822FF
S1234E80134BA41B03F09EF9BF19AD19002CD7D106B038BC9846A146AA46F0BD52464B46C0
S1234EA013702B0C53702B0A9370D570261C504602A9042200970194E2E7FFF7A9FE424631
S1234EC01378002BE4D0ACE7E0202000FF01000000002000F0B55F4656464D464446F0B4EA
S1234EE04E4C1D1C237887B0071C8A4604920026002B00D18CE0002D5ED006AA9046934638
S1234F0008E0022C5FD0AD1BB244BF19FFF736FE002D51D0414B1C78012CF2D1424653232C
S1234F201370FB0B03935370FB09029393700023D37040460023042205A999460093019306
S1234F4003F040F9364A80233A409B009E1AAE4200D92E1CFFF712FE7C2342465B421370D1
S1234F604B4653703B0A23409370D770049A4046009205A904225346019603F023F9782383
S1234F8042465B4213706B461B7B53706A46137A424693704B46D3704A4600920192404684
S1234FA005A90422002303F00DF9AD1BB244BF19FFF7E4FD002DADD107B078BC9846A14635
S1234FC0AA46B346F0BD06235A46137058460023012205A90093019303F0F4F85B465A4612
S1234FE01C703B0C53703B0A9370D7708023FF223A405B009E1AAE4200D92E1C049B5846E7
S1235000009305A904225346019603F0DBF8CCE7FFF7FEFD2378002BCED06CE7E0202000B4
S1235020FF010000F0B55F4656464D464446F0B484B0414801F022FF404801F01FFF404BD4
S12350401B780125012B70DB3E4A039328272823934699469A46B8462826281C01F08EFBC2
S1235060394C3419A16823690091616A0191216A021C02913548291C01F0E2FE646907E054
S1235080207B01F05FFB011C314801F0D9FE2468002CF5D12C4C42461319987F002809D006
S12350A05A461356002B05DD01F056FB011C294801F0C6FE3B19187F00280AD05A4613565B
S12350C0002B06DD01F048FB011C234801F0B8FE1D4C52461319587F00280AD05A4613564C
S12350E0002B06DD01F038FB011C1C4801F0A8FE154C4A461319D87F002809D05A461356E4
S1235100002B05DD01F028FB011C154801F098FE0A20FBF7E5FB039A282301352836984415
S123512028379A449944AA4297DA04B078BC9846A146AA46B346F0BD34AE00004CAE0000D5
S123514074AA0000DC2820005C2520007CAE0000BCB4000098AE0000A0AE0000A8AE0000E4
S1235160B4AE000070B500240A4E09E09B10A3420DDD02683368A5009A4209D101340430FC
S12351800B1C0029F2DACB1C9B10A342F1DCA500481B70BD58000000F0B557464E464546BD
S12351A0E0B485B0694801F069FE694801F066FE684B1B780124012B3CDB674A9A4624238D
S12351C0914698460AE0654B211C03932B1C01F037FE013424229044A2452BDB604A230132
S12351E09B189F685D68391C281CFFF7BBFF5D4B43449A695C4B1B68061C00219A4200D197
S12352009DE02006000E049101F09CFA0499BB1B021C00974846019602930029D3D1534B70
S1235220211C03932B1C01F00BFE013424229044A245D3DA4E4B1C684E4B4F491B686442FC
S1235240621A9946D21A4D4B1B684D4DD21A57198846081C391C9A46FFF784FF3B1A061CDB
S12352603A1C414600934748331C01F0E9FD4B46E41A5746E41B64195146201CFFF772FF23
S1235280414B1A68384B1B68A046061C00219A4259D0BB1B0093002953D0304B4146524679
S12352A001933A48331C01F0CBFD324B1F68304B1C68334D6342DB1B5B19181C391C9846D3
S12352C0FFF750FF061C3B1A3A1C2D1B00934146331C2F4801F0B4FD211C281CFFF742FF36
S12352E0231A061C221C0093291C331C294801F0A7FD294B2948197801F0A2FD284A002444
S123530001E0013401321378002BFAD1211C254801F096FD244B25481988254B00881A887A
S1235320244B1B880090244800880190234801F087FD05B038BC9846A146AA46F0BD012135
S12353405FE70A4BAAE70121A3E70000C0AE0000D8AE0000B09F000008AF000028AF0000A0
S1235360609F0000B4212000580000002CAF00004C000000500000009C3120005400000025
S12353800080200030AF00000C25200054AF00007CAF0000A0AF000009252000C4AF0000FB
S12353A0BC282000E8AF0000282A2000B02A2000B62A2000AE2A2000DC2A20000CB0000008
S12353C070B583B000281CD00378202B03D101300378202BFBD000210A2203F017FE0006A6
S12353E0040E02AD201C291CFFF7F8F9002801D003B070BD2B88211C1A1C2D4801F020FDFE
S1235400F6E72C4801F03AFD002402AD04E0631C1B061C0E002B0CDB201C291CFFF7DEF92E
S12354200028F4D12B88211C1A1C214801F008FDEDE76D46802401AE0B3504E0631C1B0658
S12354401C0EDF2C18D8201CFFF73EF901900028F4D0211C184801F0F3FC02E02878FBF74C
S12354603FFA301C291C0122FEF774F90128F5D00A20FBF735FAE1E7E0246D4604E0631CBE
S12354801B061C0EFF2C0CD0201C291CFFF790F90028F4D1009B211C1A1C084801F0D0FCAE
S12354A0EDE7FEF78BF8011C054801F0C9FC9FE728B0000038B0000044B000004CB0000046
S12354C060B00000F0B50C1C2278000682B0060E202A03D101342278202AFBD01306002BBF
S12354E001D102B0F0BD0A22201C002103F08EFD22780006050E131C202A06D0002B04D06F
S123550001342278131C202AF8D113061B0E202B04D101342278131C202BFAD013061B0EBF
S1235520002B0DD02B06002B10DB201C0021002203F06CFD01040914281CFFF7A3F8D0E78F
S1235540281C01A90193FEF7E3FFCAE7DF2D2FD8002000900190002E15D11006002831D096
S123556001AF6E46000E391C321CFEF769FF0028B7D10134237818060028F3D1281C391C92
S1235580FEF7C6FFADE7281CFFF79EF8019000E060460090437802781B021343827812048A
S12355A01A43C3781B0613439C46F1D12278D4E7201C0021002203F029FD011C281CFFF7F0
S12355C03DF88EE701AF281C391CD9E7F0B55F4656464D464446F0B4A4B00120FCF7E8F924
S12355E0D04A01231370D04B01201978FCF756F803210320FCF78EF9FCF75EF801F03EFCA3
S1235600FFF710FDFFF7C8FDC84801F019FCC84C3A21201C01F01CF823781F2BF4D9433BD2
S1235620372B3FD8C34A9B009B589F46C24802780024662A01D100F0D8FF13061B0E722BBD
S123564001D100F08DFF2B2B01D100F086FF632B01D100F0E5FF202B03D101300378202B11
S1235660FBD000210A2203F0D1FC041E04D0FFF75BFA0019FFF766FA0320FEF75BFB211CF3
S1235680AE4801F0DDFBFFF773FAAD4C011CAD4801F0D6FB6168AC4801F0D2FBA168AB48A0
S12356A001F0CEFBAA4801F0E9FB9F4B01201978FCF730F99B4B00221A708EE7A54B002294
S12356C01A80A54B1A80A54B1A80A54B1A80A54B1A80A54B1B780122012B09DB191CA34B2B
S12356E00020203301329861D86120339142F9DA9F4B1B780122012B09DB191C9D4B0020E8
S1235700283301325862186228339142F9DA9A4B1B780122012B09DB191C984B002020338C
S12357200132D861986120339142F9DA944B00221A700A20FBF7D4F866E77F4CFFF7F4F999
S123574001F09CFD2378732B01D100F0C8FD632B01D100F0AEFD662B01D100F064FF772BA8
S123576000D191E3722B01D100F00CFF6C2B01D100F0FCFD762B01D100F013FE0020FEF79B
S1235780A7FA0490002800D13EE704E077226A441078FBF7A5F8772104A869440122FDF768
S12357A0D9FF0128F2D0664C0A20FBF799F8754DA168226874482A4001F042FB6168734896
S12357C001F03EFB724B196804331A68714801F037FB714B59685A68C903C90F2A406F48C4
S12357E001F02EFB10E76E4801F048FB6D4801F045FB4D4B1B780127012B00DA04E7242339
S12358003A1C5A43684B3806D5188146000E6C7B00F098FF231C021C391C644801F010FB16
S12358206B69D90701D500F015FC6B69DA0501D500F00BFC6B695C0600D594E324253B1C37
S12358406B4359495B185B69180639D5484A13780125012B34DB47490C1C28233C348B46CF
S12358609A46A0464046046828218844002C20D056465E4402E02468002C19D0237BBB42DF
S1235880F9D13369002B00D011E3494801F0D8FA281C00F073FF011C464801F0D1FA4A46BE
S12358A0110E03202A1C00F01DFF2468002CE5D12F4A28239A4413780135AB42D2DA3A4963
S12358C024243B1C63435C1863695D0701D500F09AFC63691C0701D500F066FC24243B1CC9
S12358E0634331495B185B699D0700D5C0E324243B1C63435C186369102B01D100F04FFC64
S12359006369002B00D1AFE3226A002A00D0A6E30A20FAF7E5FF044B1B780137BB4200DB29
S12359206DE771E6022A2000B09F000068B00000E12020005CB60000E220200074B000008C
S123594020FDFFFF88B00000A4B00000B4B00000C4B00000B02A2000AE2A2000B62A2000D2
S1235960282A2000DC2A200020A900001C25200074AA00005C252000B7AA0000DC2720001E
S123598009252000FFFF0000DCB00000F8B0000050FDFFFF08B1000020FCFFFF24B1000090
S12359A034B1000048B10000B421200064B1000078B10000BCB40000C94801F05FFAC948F6
S12359C001F05CFAC84B1B780127012B00DA1BE69946381C00F0C0FE391C021CC34801F057
S12359E02FFAC34BDB5D1B061A16541C17D0002A00D05EE2BF4801F041FA0137B94500DA0F
S1235A0002E6381C00F0A8FE391C021CB74801F017FAB74BDB5D1B061A16541CE7D1B6488B
S1235A20E9E7B64801F02AFAB54801F027FAB54B1B780126012B00DAE6E51F1CB24B1D1C74
S1235A4020350DE0B14801F0FBF92B68002B1BD10A200136FAF744FF2035B74200DAD3E503
S1235A60301C00F093FEE969AB69021C0091A848311C01F0E5F96B69012BE3D1A54801F0A2
S1235A80DFF92B68002BE3D0187B00F05BFE011CA14801F0D5F9AC6807E0207B00F052FE42
S1235AA0011C9E4801F0CCF92468002CF5D1CFE7FFF7B8FAA8E59A4801F0E0F9994801F042
S1235AC0DDF9994B1B780126012B00DA9CE51F1C964B1D1C20352B68002401E01B680134CD
S1235AE0002BFBD13006000E00F03EFEAB680093AB690193EB6902936B68021C03938C48A9
S1235B00231C311C01F09CF9EC6807E0207B00F019FE011C814801F093F92468002CF5D1B1
S1235B200A200136FAF7DCFE2035B742D3DA6BE5804803781C1C642B00D1B6E3642B00DD0A
S1235B406CE3002B00D173E3632B01D100F047FD794D1B061B0E202B03D101300378202BE6
S1235B60FBD000210A2203F051FA0404240C734801F084F924042804001421140022FEF7B6
S1235B8063FB0590002800D13EE505E08B236B446B48197801F054F98B2105A86944012205
S1235BA0FDF7D8FD0128F1D0C3E5624C2178202903D1013421782029FBD00B061B0E002BDB
S1235BC039D01A1C5F4B1B689B5C980700D5203A131C413B1B061E0E00E021780B061B0EE5
S1235BE00134202BF9D12378202B03D101342378202BFBD0201C00210A2203F007FA000634
S1235C00050E23781B061B0E0134202BF9D12378202B03D101342378202BFBD000210A2251
S1235C20201C03F0F3F90206120E0121301CA940AA4003F0FFF80020002306900CE003F03A
S1235C4037F80699021C404801F0FAF8069B581C0690031C052812DC002BF0D03B4801F0A5
S1235C60EFF8069803F024F80699021C364801F0E7F8069B581C0690031C0528ECDD0A2097
S1235C80FAF72EFE0020002306900DE0083003F00FF80699021C2E4801F0D2F8069B581CE8
S1235CA00690031C072813DC002BEFD0274801F0C7F80698083002F0FBFF0699021C244819
S1235CC001F0BEF8069B581C0690031C0728EBDD0A20FAF705FE00200023069048E0000039
S1235CE084B10000A0B100000CAC0000BCB10000DC282000C8B10000D0B10000D8B100004E
S1235D00F0B10000B7AA0000DC27200020B2000028B200003CB2000044B20000BCB400005A
S1235D2048B2000064B2000020A900001C25200098B20000E2202000FEFF0000B8B2000052
S1235D40C0B2000004002000C8B2000010A60000D4B20000103002F0ABFF0699021CCE4844
S1235D6001F06EF8069B581C0690031C022813DC002BEFD0C94801F063F80698103002F0CE
S1235D8097FF0699021CC44801F05AF8069B581C0690031C0228EBDD0A20FAF7A1FD0020C8
S1235DA002F0FCFF041C012002F0F8FF211C021CBB4801F045F8BB4B996EBB4BBB489A6E1E
S1235DC001F03EF8022002F0E9FF06906C466A46117EA37E527EB64801F032F8032002F0F6
S1235DE0DDFF0690B348217E627EA37E01F028F89FE4B14801F042F8B04B64221968B048E0
S1235E000A2301F01DF8AF4BAF48196801F018F801F02EFA011CAD4801F012F8AC4801F0CD
S1235E202DF8AC4801F02AF8AB4B1E68002E01D1FFF7EAFBA34BB4681B68E41AF3680A22C9
S1235E40307C54431D1C554300F07CFC211C031C2A1CA24800F0F4FF7369062B0CD8A04A78
S1235E609B009B589F469F490B782B3B4C2B19D89D4A9B009B589F469C4800F0E1FF0A203A
S1235E803668FAF72DFDD1E701342378202BFBD0201C04F013F8021CFF20211C4000FDF7BE
S1235EA07FFF6BE40020FFF78BFAFFF7ADFB9048ECE41C0E201C00F045FC011C8D4800F0B7
S1235EC0BFFF0120211C3A1C00F00CFC8A4B1B780126012B43DB28259A46A8460DE02B7FC9
S1235EE0BB421CD06378BB4223D0E378BB422AD0282101368844B24531DB804B4046C5181B
S1235F002C1C1C34A378BB42E9D1301C00F036FC011C7B4800F094FF2B7FBB42E2D1301C9C
S1235F2000F02CFC011C774800F08AFF6378BB42DBD1301C00F022FC011C734800F080FFCB
S1235F40E378BB42D4D1301C00F018FC011C6F4800F076FF013628218844B245CDDA0A20A3
S1235F60FAF7BEFC49E56A4800F06AFF694A13780125012B05DA61E413780135AB4200DAFD
S1235F805CE4654B5B57BB42F6D1281C00F0E4FB011C624800F054FF4846040E211C062077
S1235FA02A1C00F09FFB211C01202A1C00F09AFB514B1B7801218846012B44DB28229B464F
S1235FC092460EE0337FAB421CD06378AB4223D0E378AB422AD0012328249844A244C34535
S1235FE031DB464E5644341C1C34A378AB42E9D1404600F0C3FB011C494800F021FF337F5D
S1236000AB42E2D1404600F0B9FB011C454800F017FF6378AB42DBD1404600F0AFFB011C51
S1236020414800F00DFFE378AB42D4D1404600F0A5FB011C3D4800F003FF012328249844F4
S1236040A244C345CDDA334A96E7394800F0F8FEFFF7F0FB374800F0F3FEFFF7E6FBE169E4
S1236060354800F0EDFE53E4344800F0E9FE4BE4334800F0E5FE33490B780125012B00DA92
S12360807DE2884630488246304A6B019B18DC68002C60D174E00000E0B2000010A60000B9
S12360A0ECB2000000F4FFFF00F6FFFF0CB3000028B300004CB3000070B30000F02A200062
S12360C088B30000F0242000B4B30000C4B30000D8B300000CB40000002520003CB40000EF
S12360E03CB70000E220200058B7000050B4000064B4000070B4000074AA00005C25200079
S12361007CB4000088B4000094B40000A0B40000ACB400000CAC0000DC282000BCB40000C7
S1236120B8B40000C4B40000D0B40000DCB40000E8B40000F4B4000000B5000014B50000A1
S12361401CB5000020A90000B42120001C2520002468002C13D0237BBB42F9D12806000E0F
S123616000F002FB011CD94800F06AFE4A46110E02202A1C00F0B6FA2468002CEBD14146E6
S12361800B780135AB4200DB7EE7514624243B1C63435C186369102B01D0FFF7B1FBCC4837
S12361A000F04EFEFFF7ACFBCA4800F049FECA4A13780125012B01DAFFF790FBC74E904681
S12361C0283634682036002C03D116E02468002C12D0237BBB42F9D1281C00F0D7FA011C54
S12361E0BA4800F02DFE4A46110E04202A1C00F079FA2468002CECD1424613780135AB4257
S1236200DFDAFFF76BFBB64800F01AFE4A46110E00203A1C00F066FAFFF75BFB692B00D139
S1236220A2E06F2B00D093E4AE4D0130037890E461231EAD5B422B70281C20A905220023FE
S123624000940194822501F0BDFF81236B446D441A782B78832520A86D44017828780090BA
S123626021AD28780190A04800F0EAFD29231EA85B42037020A9002302220094019401F010
S1236280A1FF81226A441178984800F0D9FDFDF74BFC011C964800F0D3FDFDF741FC011C96
S12362A0944800F0CDFDFFF7AFF90130924D03784FE4924800210022138859400B04023254
S12362C0190C8242F8DD8E4800F0BAFDFDF7B6FD0104090C8B4800F0B3FDFFF74FFA772570
S12362E000236D442B7001342278202A03D101342278202AFBD01306002B01D1FFF784F9D1
S1236300772068440378052B14D87F4A9B009B589F46201C00210A2202F078FE312802DC3B
S1236320FA21C9004018632800DD5CE1774A83181693227813061B0E002B05D0202B03D079
S123634001342378002BF9D177256D442B7801332B701B061B0E052BC6D916A8FEF7EAFA05
S123636000F08CFFFFF70AFA694D5EE7002400210022A35C0BA883541B061B0EFF2B00D075
S1236380012101321F2AF4D9002904D0201C0BA92022FDF705FD594B20349C42E7D9FFF7DD
S12363A0EDF963780020002B04D0A01C00210A2202F02CFE041C514B9C4201D9FFF7DEF993
S12363C0201C07A91022FDF71FFD002507A94A5DFF2A03D04F48611900F032FD01350F2D71
S12363E0F4D91034E7E7307E00F0B6F9011C4A4800F026FD43E5307E00F0A4F9011C47489C
S123640000F01EFD3BE5307E00F0A6F9011C444800F016FD33E5307E00F0B8F9011C414857
S123642000F00EFD2BE5404800F00AFD327E282353433E4A9B181B69002B00D08BE03C4894
S123644000F0FEFC307E00F099F9011C394800F0F7FC14E5307E00F087F9011C364800F0FB
S1236460EFFC0CE50A22201C002102F0CFFD1A9022785FE70A22201C002102F0C7FD1B9081
S1236480227857E70A22201C002102F0BFFD1C9022784FE70A22201C002102F0B7FD189096
S12364A0227847E70A22201C002102F0AFFD179022783FE700200131FFF704F8FFF7A4F8AC
S12364C0481CFEF77DFFFFF79FF8000044B2000028B5000030B50000B7AA0000DC2720001A
S12364E03CB5000002A0000050B500007CB5000088B5000098B5000004A00000FFFF0300A0
S1236500A0B50000B4B500008CB800006C07000001A00000C8B50000D8B50000E8B50000BA
S1236520F8B5000008B6000018B600005C25200020B60000BCB4000028B600004B78481C32
S1236540202B10D101300378FAE7FEF7CDF9FFF75BF80120AFE7384872E70420FFF78DF84B
S12365600D20FFF78AF800210A2202F04FFD2390002844D023A8FEF78DF9FFF745F82F4907
S1236580FFF7B5F9002315A8038013A900200A2213931493FDF738FC7721002369440B7090
S12365A00CE00006000EFAF79BF977256D442B7801332B701B061B0E092B38D877226A44BE
S12365C0137813ACE05C031C203B1B061B0E5E2BE7D90106090E1A4800F032FCE5E7FDF7C6
S12365E02DFAFFF711F81690A3E6164A164B00201A600A21FBF7B0F8FCF7B6FFFEE7FCF7A2
S1236600C9FF437802781B0213438278C17812041A43090611430D4800F012FCFEF7F4FFC2
S12366200920FFF72AF8FDF7ABFBFFF7A7F80A20FAF756F9FFF7A2F838B60000B421200009
S123664040B60000010000A510FDFFFF4CB60000F0B557464646C0B4012382469846051C60
S123666001260F0412E0201CFAF73AF9082C23D07F2C21D0231C203B1B061B0E5E2B02D880
S12366802C70013601354346002B1CD03B14B3421FDDFAF72FF90006040E0D2C19D01B2C73
S12366A01DD0082CDFD1012EDDDD201C013E013DFAF716F9082CDBD12020FAF711F9201C0C
S12366C0FAF70EF9D6E70D2C03D018BC9846A246F0BD0A20FAF704F900232B70F5E7534663
S12366E01C70F2E7F0B5474680B4134B1C680906051C161C0F0E002C1BD01049884602E04A
S12367002468002C15D06369AB42F9D1237EB342F6D1237CBB42F3D141460A68A3689B1ADF
S12367200A220748191C514300F08AFB2468002CE9D108BC9846F0BD00252000F024200062
S1236740A4B800000006000EC3001B180148181870470000309F0000C3001B180148181861
S123676070470000B8AA00000006000EC3001B180148181870470000F4A80000C3001B1830
S1236780014818187047000024A90000C3001B18014818187047000078AA000000B584B0C7
S12367A0009001910348694602920393FBF7F6F804B000BDC56D0000F0B5041C21680C4F63
S12367C00B783A689B5C00205A070FD50A260425031C73430A789B18181C4B1C2360191C7E
S12367E01A783B68D35C30382B42F1D1F0BD000004002000F0B55F4656464D464446F0B422
S123680096B003920493229A8A462199131C061C209F894693465B0600D4AFE07E4C0094E2
S12368205A46D20603D55C4601239C43A3461F9B023B222B00D9D2E05946C90700D5A0E0E3
S12368402023029300245946019489070DD5049A002A00DAC5E05C46640700D5B3E05A4636
S1236860120702D520230193013F5C46A40607D51F99102900D1B0E01F9A082A00D1C5E032
S1236880039C0499002398460C4300D07CE0302205AB1A7001229046C84500DDC1464C4634
S12368A0112359463F1B19420CD13B1C013F002B08DD2022564500D832703B1C0136013FA3
S12368C0002BF7DC019A002A03D0564500D8327001365C46A40607D51F99082900D176E09A
S12368E01F9A102A00D187E05B46DB060DD43B1C013F002B09DD564502D86C46247A3470F5
S123690001363B1C013F002BF5DC01214B464942894443450ADD3022564500D832700124A3
S12369204B4664420136A1444345F5DC0121434649428844002B0CDD05AA564502D84446E3
S1236940135D337001214346494201368844002BF3DC3B1C013F002B08DD2022564500D891
S123696032703B1C0136013F002BF7DC301C16B078BC9846A146AA46B346F0BD2749009103
S12369804EE7302202925DE7039B049C234300D182E71F9A03980499002303F097F805AD6E
S12369A001211F9A4544041C002388440398049902F098FE03900491009AA35C2B70039BA6
S12369C00B43E6D168E72B21013F01914DE7564501D830233370013686E7023F50E7002067
S12369E0C5E72D230193039B049C013F00225942A2410391049238E7564509D9013656454D
S1236A00E9D8009B21331B783370E4E7013F37E730233370F2E70000D4B80000ACB80000A4
S1236A20F0B55F4656464D464446F0B487B005919946059B83465B445F1E031C013B111CF2
S1236A400692041CBB4203D94042012705907F420A781306002B0ED01B0E252B18D0BC429E
S1236A6001D82270069901344B1C0693191C0A781306002BF0D1BC4216D8002323705946D6
