S017000042696E732F4D333033362E50524F442E73726563D6
S224000000DCFF001001010000E9000000ED000000F1000000F5000000F90000000000000039
S22400002000000000000000000000000041040000FD000000000000001104000085C8020015
S2240000406DC802006DEB020099010000C9E60200990100004DCC020049CD020049CE0200D9
S2240000604DCF02009901000021E402005DE502009901000099010000990100009901000010
S2240000809901000059C8020099010000990100009901000099010000990100009901000002
S2240000A099010000B5DC020099010000990100009901000099010000990100009901000072
S2240000C099010000990100009901000051D00200990100009901000011ED0200990100005C
S2240000E09901000000000000FEE700BFFEE700BFFEE700BFFEE700BFFEE700BFFEE700BF89
S2240001001B4B1C4900B58B4206D21B4A52F8040B43F8040B8B42F9D3204821494FF0000201
S2240001208842B8BF40F8042BFFF6FAAF1D4880F30988124B124A186812499342086005D263
S2240001401149096843F8041B9342FBD30F4B0BB100E000BF0E4B13B100E000BFFEE70D4B24
S22400016013B100E000BFF9E700F0BAF9F6E700BF0000001004030010C5390300908B0010A5
S224000180DCFF00106859001000000010000000000000000000000000FEE700000403001092
S2240001A09C660010908D0010000000000000000000000000000000000000000000000000FB
S2240001C000000000000000000000000000000000000000000000000000000000000000001A
S2240001E00000000000000000000000000000000000000000000000000000000000000000FA
S2240002000000000000000000000000000000000000000000000000000000000000000000D9
S2240002200000000000000000000000000000000000000000000000000000000000000000B9
S224000240000000000000000000000000000000000000000000000000000000000000000099
S224000260000000000000000000000000000000000000000000000000000000000000000079
S224000280000000000000000000000000000000000000000000000000000000000000000059
S2240002A0000000000000000000000000000000000000000000000000000000000000000039
S2240002C0000000000000000000000000000000000000000000000000000000000000000019
S2240002E000000000000000000000000000000000000000000000000000000000FFFFFFFFFD
S22400030000B58AB00AA8362340F8283D41F6F1736846C1F6FF7305A9984706980AB000BD2D
S22400032010B44FF44043C4F20F034FF40242C3F8C420D3F8A02142F02002C3F8A021D3F819
S224000340A0114FF440424906C4F20F02F7D54FF4D853C0F2B70301219842C2F80C1138D982
S22400036046F23A0414604FF460630924C2F88440C0F22773C2F88010AA21C2F88C10B3FB78
S224000380F0F05521C2F88C10002829D0A0422DD14EF2C0123A244FF48470C0F2E4024FF429
S2240003A040431A49C4F20F030A60C3F804011A461C60D2F888305B05FBD54FF44043C4F256
S2240003C00F030422C3F8A8210122C3F8002110BC7047C2F804113A2111600C4A1360ECE7A3
S2240003E045F23A0440F201101A46D8E793FBF0F24CF66B23511EC6F65F33A3FB0143DC0D59
S224000400240340F4807044F03A04C8E79C66001072B6EFF3088020E9F00F2C4981F3088846
S2240004204FF000014DF804ED62B628F087FA72B65DF804EBB0E8F00F80F3088862B67047BB
S22400044072B6EFF3088020E9F00F204981F308884DF804ED62B628F09DFA72B65DF804EB27
S224000460B0E8F00F80F3088862B6704700B529F071FA72B6164880F30888A0F58060154979
S224000480154AA2EB0101A0EB01001249134AA2EB010300EB0302014640F0010000F002F842
S2240004A0FEE700BF074C084D00B5AC42034605D254F8040BAC4241F8040BF9D31046984796
S2240004C0FEE700BFA81C0300B01E0300908D0010DCFF0010A81C0300B01E0300B01E03005A
S2240004E0BC4ABD4B80B51A602CF0C0FABB4900230B80BB4901220B80BA49BB4C0A70BB4978
S2240005004FF460600A70BA4922700B70B949C0F227700B70B8490B70FFF702FF00202CF0D4
S224000520B5FA27F09DFA4FF48043C4F202035A6CD00704D45B6C13F47F0F40F0A18048F23C
S224000540FF424FF08043C0F21E025A6003221A70AA221A7255221A722EF048FD2EF028FB19
S2240005602EF0DEF82DF0D0FE2378002B40F0818005202AF049FF02204FF4165100222CF00F
S224000580EBFD01204FF4E12100222CF0E5FD002002464FF416512CF0DFFD042042F6A001E1
S2240005A000222CF0D9FD29F0D1F9944DAF1D6E1C15F8018F4046B8F1000F08D027F0E8FA5C
S2240005C006EB08131B7D0A2B4ED0BD42F0D10120022127F083FB8A4B01221A701A785AB167
S2240005E04FF44042C4F20F024FF47061C2F8C01030BF18780028F9D1002525702DF060FE26
S2240006002DF0F0FE2EF0EEF82DF080FA01202EF01BFD2CF0C7FA4FF44043C4F20F03D3F8A2
S224000620C4104FF48043C4F2020348F260021965C2F209024FF00071D1614FF080431C78CF
S22400064048F2800204F001041C70AA21C4F202024FF0FF30552419721C72D060D0621972E2
S2240006601D7229F077F9FEE74046022127F04AFAABE700202DF042FB01202DF03FFB77E792
S2240006802EF0B4FC2EF094FA2EF04AF82DF03CFE05202AF0B9FE29F059F964244FF47A700E
S2240006A02CF060FA013CF9D12DF09CFE2EF09AF82EF0AEFA2DF02AFA01202EF0C5FC2CF02E
S2240006C071FA022020F02CFE4FF480424FF44043C4F20F030121C4F20202D4641465C3F873
S2240006E004113A211960D3F8A810C9050BD5AA21C3F8A040C3F8AC105521C3F8AC10D36CD2
S22400070043F00203D3644FF44042C4F20F02D2F8A8104FF4404311F48071C4F20F03F6D10C
S224000720D3F88820D2050FD5C3F88010AA21C3F88C104FF480425521C4F20202C3F88C108D
S224000740D36C43F00103D3644FF44042C4F20F02D2F888404FF4404314F48074C4F20F033F
S224000760F6D14CF2B010C4F20F0048F26001C3F80C41C2F20901C3F8A04104604FF00070DA
S224000780C8614FF40241C3F8C4104FF46D421D21C3F8C010CEF20002136943F0040313616F
S2240007A030BF29F0D7F84FF48042C4F20202516C4FF0804341F001015164FF2159600321FA
S2240007C01970AA2255211A7219721A721C7229F0C1F8FEE7A06600107041001076410010C3
S2240007E080420010D4420010D042001074410010D84200105C41001079410010AF1E0300A4
S2240008007841001000B581B001A941F8040D0220694627F041FB009801B000BD00B581B020
S22400082001200DF1030127F01BFB9DF8030001B000BD00BF2DE9F0477F4C85B02378FF2B8C
S2240008407DD00020694601AA1FF0A0FE2378054643B10099019A794B0131013283E8060077
S2240008600020207002A9E5202AF0A2FB03A90446E6202AF09DFB012801D0012C62D1DFF87D
S224000880C49141F6FF73B9F800209A4200F0C280009A0199694B1DB91868904200F0C18035
S2240008A0B9F800001A605960654F002870D14FF6FF7801264FF4C015614CC0F218082CE0AC
S2240008C094F804A020684FEA0A6A4AEA102A227B0098D4F808C01206C0EB0A000028B8BF0B
S2240008E0404242EA1C22904214D294F808A060684FEA0A6A4AEA102A227C0198D4F80CC069
S2240009001206C0EB0A000028B8BF404242EA1C22904274D345458EB20BD01122284648498A
S22400092029F01AFB3B78711C9A1DD2B21135042AC6D90023A9F8003005B0BDE8F08701230D
S2240009402370F9E7E72004A92AF032FB049B13B942F210730493009A0299891A0029B8BFF3
S22400096049428B42019906DD0398401A0028B8BF404283425ADCDFF8CC9041F6FF73B9F8FF
S2240009800000984286D10023A9F800302B4B87E7C004C00C01382A4F00EB0010112200F5E4
S2240009A0C010394629F0D8FA3B780633DBB2042B3FF67DAF3A793868120642EA10203B7B72
S2240009C0009AB9681B06821A002AB8BF524243EA11239A42BFF46BAF3A7A7868120642EA83
S2240009E010203B7C019AF9681B06821A002AB8BF524243EA11239A42BFF459AF9CE7FE2B79
S224000A00A9F8006098D0C3F1FE0346EA43360D4B1E8091E70022A9F800200199009A074B33
S224000A203EE7586881427FF43BAF85E7054B41F6FF721A8080E700BF4C4300100C030010CA
S224000A40304300105443001044F27013C1F200031B6800229A80DA809A60DA601A615A6175
S224000A60704700BFF0B5C5B2002383B0022D0193009300F0BE8002238DF808301E238DF85D
S224000A80093002216A4601AB02A82AF09BF82CF0CFF85B4B5B4C1B78A060013BDBB2022B89
S224000AA088BF594B4FF0030E89BF1B686FF0090318785E7881BF9978DA7840EA062343EA37
S224000AC00143504E88BF43EA026384F810E005F001074FF0510E6A46E3600B2101AB84F808
S224000AE011E006F10800A7742AF06CF8052027F0F1F9464B1B68DA88002A4CD09988B1FBB9
S224000B00F2F23275986848F68902C8F68802A2FB00106169400960F317216161D868E1699D
S224000B20A2FB0062C2F34F12100A2076E2751869A26901F07F4160F31722A261187D002211
S224000B40E0765E69022D41EA1621E1612D4884F82020E27724D02E4B90F82010D3F8C44022
S224000B6093F8C720B3F8C03041EA042180F825302423016280F8242080F82630132114309A
S224000B806A4601AB2AF01EF83FB9052027F0B4F8009803B0F0BD3275B4E7FFF755FFF4E785
S224000BA093F83F401A4A002380F82030D2F8C460DDB2B2F8C03092F8C71080F8253045EA63
S224000BC006222423C477026280F824106A46132180F8263001AB143029F0F4FF052027F06C
S224000BE08BF804216A460DEB01030A4829F0EAFFCEE704238DF8083020238DF8093040E787
S224000C005E4300100C030010F442001070410010284B00109458001070B500B287B028B192
S224000C20A54B1C8814F4806400F0B18029F01AFA002402200C211FF0CBF90590002800F0EE
S224000C4094800023037043708370C37006230371059E022343710323B371234624B1BDF9B5
S224000C600C30002B18BF02230025F3716620294601224FF0FF3300964FF080760196029501
S224000C801FF0F4F961200DF11A012AF0A7F9064600286DD1BDF81A30DA046BD502200D21E0
S224000CA01FF096F9059000285FD0067046708670C67006220271059B0222427103229A710B
S224000CC0224624B1BDF90E20002A18BF0322DA7100934FF0807300210193BB2001224FF0C6
S224000CE0FF3302911FF0C2F94C200DF10E012AF075F910B10023ADF80E30642003A92AF04E
S224000D006DF910B10023ADF80C30BDF80E309B0705D5BDF80C3013F4805300F0CF80022008
S224000D200D211FF055F90590F8B10023037043708370C37006220271059B0222427103223F
S224000D409A71224624B1BDF91020002A18BF0322DA7100934FF08073002101932220012210
S224000D604FF0FF3302911FF081F9204607B070BDADF81A5007AD002345F8083D294616208A
S224000D802AF058F8172029462AF054F8ACE70B2003A92AF023F908B1ADF80C400C200DF164
S224000DA01A012AF01BF9BDF81A3018B10023ADF81A300023BDF90C201BB201249A42A4BFD5
S224000DC04FF0FF33ADF80C300DF10E01A8BF002417202AF003F910B10023ADF80E301620DA
S224000DE00DF11A012AF0FAF8BDF81A3018B10023ADF81A300023BDF90E201BB29A42A4BFDC
S224000E004FF0FF33ADF80E3004A9B8BF012464202AF0E4F80546E8B9BDF81030D90419D50A
S224000E20212004A92AF0DAF808B1ADF8105020200DF11A012AF0D2F8BDF81A3018B10023ED
S224000E40ADF81A300023BDF910201BB29A4201DA012403E04FF0FF33ADF8103002214FF051
S224000E60FF3012F069F9032103464FF0FF30002B18BF002412F060F900287FF4D7AE002C32
S224000E803FF4D4AE03A828F031FF044600283FF4D0AE03A829F096FDBDF80C1039BBBDF8B1
S224000EA00E10F9B9BDF8101000293FF4C2AE09B220202AF04FF8BCE61E43001007AD45F85C
S224000EC0083D29461F2029F0B5FF2946202029F0B1FF2946212029F0ADFF2220294629F096
S224000EE0A9FF42E709B216202AF034F8DAE709B20C202AF02FF8D2E7F0B5B54D4FF6FF72E6
S224000F002B8883B0934238D01A051C0B120DADF80A40A4182BF08CFE4AF28053AD4ACAF68E
S224000F203C531268C3180093577811789678D07841EA072141EA064144F6251241EA0061C5
S224000F40C2F29242A2FB016044F207560F1A00EB5700CCF22E268008A6FB0373C0EBC000EC
S224000F60091A89B201EB1343A2FB03129B1A02EB53029208A24200924AD80C25012428462D
S224000F8002A92AF02BF80135002808BF00240F2DF5D11F25284602A92AF020F8013500282C
S224000FA008BF0024232DF5D102A916202AF016F802A903461720002B08BF00242AF00EF8C1
S224000FC002A903460A20002B08BF00242AF006F898B9BDF80830D3F1010338BF00231C4044
S224000FE011D12BF025FE46F23F73C4F6A333984200902FD820B203B0F0BD012300261C4009
S224001000ADF80860EDD0002024F07AFF0024F1E72888BDF80A3000F470401BB1013B9BB2C0
S224001020ADF80A309B186C4C03432B8021686B4B03221A800029A0D1DF2029F0ABFF019085
S224001040002800F0CF8004F0B3FB2060644B08221A7092E74BF2C533C9F2A213A3FB007370
S2240010604AF6AB22DB0ACAF6AA22A2FB031244F207541509CCF22E24A4FB006405EB45053F
S22400108043200DF10A01A3EBC50529F0A7FFBDF80A30240CDAB2172AADB205DD03F47F43E2
S2240010A003339BB2ADF80A30B3F5006F02D90327ADF80A70BDF80830A3425ED0002024F05A
S2240010C01FFFBDF80A30BDF8082013F47F4017D1944276D00132944271D003200023019333
S2240010E024F00EFF0120FFF797FD002862D021B20A2029F02FFF002024F002FF012479E7C7
S224001100944238D0180AC11CC9B2062901D9011FC9B2D01F8442E0DBD01D8442DDDC009E54
S22400112044F20750CCF22E20A0FB067044F62516000CC2F29246A6FB0076871B06EB5706EC
S224001140B608C6EBC606801BC0B288423BD042F29340521A631AC9F2492080FB031580FB4B
S2240011600260D917ED188318D217C1EBA501C2EBA3039942B1D100243CE7009944F207531D
S224001180CCF22E23A3FB01239DF80A004FF4A3421B0CC0F201024FF4616606FB00F002FBDE
S2240011A0131398428AD200F5167083422CBF0020012084E70A2001A929F03CFE9BE79D426F
S2240011C08BD2044616E7DBB29D4286DA002411E708430010F44200106443001014430010BF
S2240011E00A43001046F2590303A8CEF2ED2340F80C3D224601AB0421684629F0E3FC03A873
S22400120041F2EC3320F8023D0221224601AB29F0D9FC1BE740F20C33C1F20003188D0030FD
S22400122018BF0120704700BF03B2022B10B519D0022029F08BF9032429F0AAF9204601346E
S22400124026F040FD072CF7D1032000211EF0BEFC0020022126F06AFC29F09AF9002026F08E
S22400126031FDFEE700216FF003001EF083FD00216A201EF07FFD00216E201EF07BFD0021BA
S2240012806FF005001EF0A2FC00216B201EF072FD692001211EF06EFDCAE700BF2DE9F04F27
S2240012A05F4F93B03B884FF6FF791AB2002ABFBF03F500639BB21AB23B80B2F5006FC1BF7F
S2240012C0A3F500639BB21AB23B80013AD417640D12195205520D141B002604F50844DFF851
S2240012E05481DFF83CB1A40111961096C0F223094FF0FD0AD8F800304C4588BF4FF4081403
S2240013004022022501369C42204669468DF848A08DF84950F6B214446FD028F01DFE9DF883
S22400132018E029460EF11B0E10AA11AB12A88DF849E029F047FC294610AA11AB384829F061
S22400134041FC9DF8491010AA023911AB6846C9B229F038FC3B8801339BB21AB2B2F5006F10
S2240013603B80C4BFA3F50063ABF800300F2EC1D100242C4B2C4A1B78106803EB43032B4AC8
S2240013809B001370054610B128F026FB054602200E211EF01DFE119000283FD0109BDFF8C6
S2240013A09880C3F30741C3F307271A0E8170C2700370477098F80030119F0622027103F0BB
S2240013C00F0305224271BB710023FB713846109728F042FB80B2030A38727B7298F8000081
S2240013E0109900F00F0041F08071BE722A461EF0FDFD20B213B0BDE8F08F294610AA11ABD8
S22400140012A829F0DFFB11AB0548294610AA29F0D9FB074B3F8801241F80AAE70124E8E799
S2240014205C430010E442001064430010E042001058430010284300100A430010CB1C13EA72
S224001440210338BF0B469B10002B30B413DD0B4A0568126895420ED1002203E050F8044FDF
S224001460AC4202D101329A42F8D1C2EB82729000081830BC70470020FAE700BF000000100A
S2240014802DE9F041074683B00D460220102116461EF09EFDFFB2044648B30623037104231B
S2240014A0437113234FF0000883710223C37180F8008080F8018080F8028080F8038080F84B
S2240014C0088080F80980304628F086FA0646380940EA071701224FF0FF33F8B241468DE861
S2240014E070001EF0C3FD034B012283F82A2003B0BDE8F0810C0300102DE9F04F3E4F8AB06F
S2240015003B68B3F5806F34BF99464FF48069B9F1000F67D0DFF8E480DFF8E4A04FF0000BBE
S224001520B9F1F00F34BF4D46F025ADB208AB022107AA6C1D09A86FF00106CDF820B0CDF882
S2240015401CB08DF824608DF8254029F03BFB0D2007A908AA8DF8250029F0EAFA27480421AE
S22400156007AA08AB29F02EFB15B344F21033C1F2000318682EB2102EA8BF1026B6B234B240
S22400158003A9224628F0E8FC08ABF1B203A807AA29F018FB3B68D8F80000AD1B1B1B2018AF
S2240015A0ADB2C4EB09093B60C8F80000002DE1D144F21A36DAF80000C1F20006079D34786B
S2240015C028F00AFA4FF08073019302900021204601224FF0FF3300951EF048FDB9F1000FD6
S2240015E09ED13B6823B9064B186808B128F0C4F90AB0BDE8F08F00BFEC420010104300105B
S224001600FC42001070B5052384B08DF8003003208A238DF8013026F05DFC02226946D62083
S2240016202DF014F902240020012126F07FFA002522466946D6208DF800408DF801502DF09A
S22400164005F92846012126F071FA01261F2322466946D6208DF801308DF800602DF0F6F85A
S2240016602846314626F062FA3623D620694622468DF800508DF801302DF0E8F8032026F0E7
S2240016803BFB04B070BD00BF2DE9F04F034690B0DBB203200B9326F01DFC0CAA0B234FF4ED
S2240016A08071D6202DF00EF9032026F025FB9DF83A309DF833C09DF832E09DF836409DF8F3
S2240016C031709DF830609DF837509DF835809DF834909DF839A09DF838B041F6A072C0F29A
S2240016E003020A93F9200B9B27218DE800500594029703960495CDF81880CDF81C90CDF880
S22400170020A0CDF824B01FF03BFB0121002026F00DFA05238DF830300320BA238DF83130D4
S22400172026F0D8FB02220CA9D6202DF08FF80020012126F0FBF901240B2302220CA9D620DA
S2240017408DF831308DF830402DF080F82146002026F0ECF900230CA98DF83030D620B72305
S22400176002228DF831302DF071F8032026F0C4FA102006211FF0BCFD10B0BDE8F08F00BF1B
S2240017802DE98048A6B02DF087FCBE4A002313805380DFF81C8344F2243044F2E62144F26C
S2240017A0E82244F2EC2644F2103744F2FC2CC1F20001C1F20002C1F2000CC1F200004FF4D9
S2240017C01674C1F20006C1F200070B800370138033603B60CCF80030A8F82C402BF028FA0B
S2240017E00BA92AF0ADF90B9BB3F5FA6FC0F292816120A54929F0F2FB03B23BB144F2CE20BA
S2240018004FF0000EC1F20000A0F800E028F0B6FB44F2CE21C1F20001034644F2F422088884
S224001820C1F200021360C0F343101EF0BDFD44F2CE23C1F20003054618881EF0D5FD924C27
S2240018400246294600202BF087FC6420214629F0C5FB002840F0548144F2CE27C1F2000738
S2240018603888894CC0F343101EF09EFD054638881EF0BAFD2946024602202BF06DFC44F2BC
S224001880F42CC1F2000CDCF8003044F25E3E19785D789A7841EA0521DB7841EA024242EAD7
S2240018A00363B3F1FF3F0CBF04230023C1F2000E472021468EF8003029F090FB98B144F25E
S2240018C0F420C1F200000368197858789A7841EA0021DB7841EA024242EA0363013300F09A
S2240018E00C810022228044F225330024C1F20003082066491C7029F071FB20B144F2DC2639
S224001900C1F200063480624962481EF0BBFE0420614929F063FB30B144F2083C0027C1F2BF
S224001920000CACF8007044F2143E44F25A3244F20B330024C1F2000EC1F20002C1F2000374
S22400194007205649AEF8004014801C7029F046FB50B144F22C3644F20B37C1F2000602236D
S224001960C1F2000734803B7006204D4929F036FB68B144F2563E44F22C304FF0000CC1F2D0
S224001980000EC1F20000AEF800C0A0F800C044F25631C1F20001B1F9003044F258344FF077
S2240019A0FF32C1F20004B3F5006F228002DD3C4B00261E8044F25C3744F2683C44F2643EDC
S2240019C044F20A3444F2E0260023C1F20007C1F2000CC1F2000EC1F20004C1F200067F20E6
S2240019E023A93B808CF80030CEF800302370337029F0F4FA98B9BDF88C002FF08DFB2EF01D
S224001A004DFF28A30CCB2FF0C9F80022C3F6F07200232EF0E5FD2FF079FA244F38600020D6
S224001A201EF05CFC4FF48043C4F202039B6C44F27C1C23F07F43C1F2000C0320CCF80030FA
S224001A401EF010FF3E200DF1860129F0C7FA18B14FF0000EADF886E0BDF886306FF00900B3
S224001A6003F00F0319B2ADF886301EF0AFF845200DF1860129F0B2FAE0B10020ADF88600F6
S224001A8018E000BFC4420010CE420010DC420010441F030028430010084300102C4300106B
S224001AA056430010006AF84000000000FC0200100C030010BDF8862044F21634D3B2C1F296
S224001AC0000419B26FF004002270ADF886301EF07DF84FF08043AA221A72552200201A72E2
S224001AE01FF01EFC83B218B245F64C06C1F200060028338015DDFFF797FBFF212180F2E685
S224001B006120214629F06AFA00283FF4A5AE00262680A1E648F2F060C3F66E002BF08EF808
S224001B2066E64FF48043C4F2020300225A642DF0B3FA002842F0FC860320012144F2DC278F
S224001B401EF044F8C1F20007082000211EF03EF83B88002B02F0E686C44D4FF4FC71286852
S224001B6029F01AFB2B681868002842F0E7862B689A694AB948F2F45149F64132C2F20601D3
S224001B80C0F26B5219635A6393F84020012062F07F0283F840201EF0A1FB5C20B44929F0A2
S224001BA01DFA44F21E3CC1F2000CBCF8002044F2623E120AC1F2000E8EF8002012B1531E59
S224001BC08EF80030AA4C4120214629F007FA002840F0888323889B0640F18683A54C0694FE
S224001BE0207044F2D6270024C1F2000721466A20A8F8284088F82E4088F82F4088F82A407F
S224001C003C801EF0B7F89C4B21461C606C201EF0B1F849200DF18A0129F0E0F903B21BB1D4
S224001C204FF0030CADF88AC05A20944929F0D6F918B94FF0030EADF88AE0BDF88A00002193
S224001C4000F007001DF040FE46208C4929F0C6F928B144F20C310020C1F20001088044F24C
S224001C600C32C1F2000213886FF00500C3F3C1235B00591CADF88A301DF0A8FF4FF0FF3082
S224001C802CF0FEFF45F64C068310C1F20006DFF804B27B4C44F2501E44F2521044F2441132
S224001CA04FF0FF3C00273380C1F2000EC1F20000C1F20001734EDFF8E0A1DFF8E091ABF89F
S224001CC00070AEF800C02780A0F800C0A1F800C000222B689F1897F84C1019B3B2F5D67FB2
S224001CE020D202F14C0019184A78FA2A00F0DB818A781E2A00F0E481322A00F08B82142A15
S224001D0018BF1A5C00F04182BBF80030013203EB82022B6892B2ABF800209F1897F84C10FA
S224001D200029DBD144F21E3CC1F2000CBCF800309C0508D544F2521EC1F2000EBEF90030CA
S224001D40013302F0BC8544F24411C1F20001B1F90030013302F087854B4A002344F2DC24DE
S224001D601380C1F20004494A44F24C3621884FF0040C1380C1F20006022221273270C8F8B7
S224001D800430C8F80030A8F83070A8F832C0A8F834C0002942F02A8400239AB226A801333A
S224001DA044F24436002400EB4201C1F20006042B26F8124021F8404CEFD144F20E3C44F2A9
S224001DC0F02EFF23C1F2000CC1F2000E0727442022A98CF800308EF80030ADF88C7029F0BD
S224001DE0FDF8002801F086862420ADF88800BDF88830642202FB03F344F25012C1F2000220
S224001E001288ADF8883044F25813C1F200031A800320062125F062FF0B202121002226F070
S224001E200FF814210A461B23194825F02DFF052348200DF18A0188F8543029F0CFF800280C
S224001E4001F05D845B23ADF88A30BDF88A300A2202FB03F345200DF18601ADF88A3029F0DE
S224001E60BDF8E8B10024ADF8864019E0704100101E4300100F430010C84200100C4300107A
S224001E80604300104C410010004300105443001044030010CC420010544100105041001038
S224001EA09DF886306FF0040019B2ADF8863044F220361DF08BFE44F21C3744F24E3C44F2A8
S224001EC0F82E44F2503044F218310023C1F20001C1F20006C1F20007C1F2000CC1F2000ED8
S224001EE0C1F2000033603B800B80ACF80030AEF800300380FFF786FBA94A0421A94B48F663
S224001F0090365418C1F200061B1B921BA64F93FBF1F392FBF1F108970A930991A34826F041
S224001F2019F81B2800F006822128F7D10B201AA925F00AFE1A9C002C01F02C8414F00076B7
S224001F4008BF374640F06885204639461EF0A2F984B204F00F03012B00F27A84DDF868A058
S224001F6005222AF04F431DA818A904F0010407941D9327F085FD052840F01B859DF8613003
S224001F80002B40F016858DF89630994637469DF864305A1E8DF86420002B71D002221DA8A0
S224001FA021A927F06DFD0228044640F001859DF88430122B00F03E8500F2A2810C2B00F230
S224001FC0BD830B2BC0F0CA840020322125F0AEFD9DF8852000211DA827F052FD204609213F
S224001FE01DF0F6FF1B90002898D00023037043708370C3701B9E062333710423224621A951
S2240020007371B01D0B238DF884308DF885402FF0B5FD20A9602028F0E1FF032319461A4662
S22400202030B9BDF8803003F00702D1B2C3F302239DF86000ADF88020040944EA001002224A
S2240020408DF896208DF89700317273721FB1384627F0C2FC81461B9B9DF896208DE8080430
S2240020609DF897004FF0FF330021CDF808901DF0FDFF9DF864305A1E8DF86420002B8DD104
S224002080B8F828303E463BB144F2D620C1F20000038843F0040303801D98002800F0DD836F
S2240020A027F06AFCD9E31A5C12F0030F42F0298492081A54F9224A708A781E2A7FF41CAE15
S2240020C044F2521EC1F2000EBEF90030013364D144F25010C1F20000B0F900305F1C01F0B6
S2240020E0B8868F882868ADF84870B1F806C00A1DCAF8002003F14C01ADF84AC0425C54330C
S224002100013241189200C018CDF810C02FF03FFDB9F80020296813B24C33CB183068191D7D
S224002120CAF8001044F2521102F1080E0830C1F200010A80A9F800E030609F80DDF810C0DB
S224002140A3F806C044F25217C1F20007B7F900302A684C33D1181E2088700220C870D05C2A
S224002160012802BF208840F00800208001200431D054CAF80010D25CBBF80030121803EB7B
S224002180820292B2ABF80020A3E544F25017C1F20007B7F9002001320AD0BBF8002098E5A3
S2240021A0908D0010DCFF0010FC020010541F0300BBF8002027881FFA82FEBEF1080F47F066
S2240021C00107BFB2316008BF5849278004BF47F002070F80A9F800E0195C3E2901BF218889
S2240021E041F004012180195C4B1C02EB8303B3F5D67F9CBF9AB2ABF800207FF66AAD44F28B
S224002200501E4FF0FF3CC1F2000E0023AEF800C033605EE544F24410C1F20000B0F900309B
S2240022200133BAD144F25012C1F20002B2F900707B1C01F0A98444F2481C0B1DC1F2000C3C
S224002240CCF800301946102212A82FF097FC2B6807F14C015A5C07F16000013259181818CE
S22400226092002FF094FC3068B9F8002000F1140C2F68C6F800C011B244F2441C4C31C1F200
S224002280000C7B1802F1140EACF800201E229A70A9F800E0042244F2481EDA70181DC1F202
S2240022A0000E01237B541022CEF8000012A92FF065FC44F24412C1F20002B2F900302A6837
S2240022C04C33D118042044F2481C0F184FF0320EC1F2000C81F802E0C870D054CCF8007083
S2240022E0D25C11E50E202080114E0123337000204FF0FF314FF4FA7206962AF063FC70E41A
S2240023001A2B00F29182192B80F0AC82142B00F05B86C0F0E785182B00F0B7859DF88520B7
S2240023201DA8002127F0ACFB31E600BF604300100F43001044F2D431C1F20001B1F9003040
S2240023400022B3F5967F88F82A2000F33A8344F2EC22C1F200021368002B40F03C8398F801
S2240023605430013BDBB288F85430002B7FF4D6AD44F22034C1F200042368AE49BDF88C20C2
S2240023800133052081F854002360002A46D044F23A16C1F200063378AA204FF08041087221
S2240023A05520012B08721CD944F2DC27C1F200073988B1B144F2253CC1F2000C9CF80010F8
S2240023C09D4C09290DD8013B19219C4AFA201EF0D7FC2378012101332370994BBDF88C20D8
S2240023E01970013A94B2ADF88C40BCB94FF0070EADF88CE06526274644F24430C1F200002E
S22400240016A9235A0A5B9A4201F07F8016A80353023401370136082CBFB2EDD1B8F8283026
S22400242013B1844A013B138544F21431C1F20001B1F90030834C012B00F3D282002BC1F208
S224002440518044F2683CC1F2000C9CF8003043B344F20A3EC1F2000E9EF80030082B01F02A
S2240024607B8444F2E020C1F200000478013CE4B20470B4B944F2E421C1F200010A8801328B
S22400248092B213B2052B0A8001F3B787012B06DD44F25C32C1F2000213880F3B1380FEF74D
S2240024A0FDFE00201EF096F9044603201EF0DAF90646002C00F06386032025F00BFD01235C
S2240024C008210DF19502D6202CF0FCF9032025F013FC2B6893F94030002BC0F2938444F62E
S2240024E07820C1F20000B0F90030002BC0F2678444F2F82E4FF0000CC1F2000E1120AEF8AC
S22400250000C01DF05FFA002800F00E819DF895305A0706D444F21C30C1F200000388013360
S224002520038011201DF04EFA002800F0C48440F252339E4240F291859DF8957017F00407A2
S22400254040F08B8544F24E31C1F200010A88531C12B29BB2B2F5617F0B8081F249870A2B31
S22400256001F03A8740F2180CC1F2000C9CF80030354F5B0613D444F2203EC1F2000EDEF8D4
S22400258000300A2B0BD92AF053FB46F24073C4F6A3339842C2BF3B7843F040033B7040F2A9
S2240025A0523305209E4240F2798225F093FC2B6805209A6801329A6025F09EFBBDF88830B9
S2240025C073B9BDF88A30B34240F2C987B8F8323033B1013B174A9BB25386002B01F0588730
S2240025E06D201DF0EFF9002800F04182052025F071FC2B6893F840209C8722F07F0242F06C
S2240026007E0283F84020052025F076FB68201DF0D9F90346002840F0258244F2DC24C1F217
S2240026200004228892B1B8F82C20B2F5167F02F00F820BE00C03001025430010B41F030091
S2240026403A410010144300101800001044F21E36C1F200063388DF0540F13F86B8F82C3077
S224002660013B9BB2A8F82C30002B00F03686B3F5157F07D144F68E27C1F200073B8843F046
S22400268020033B8072201DF09DF970B944F24D3EC1F2000E9EF800303BB144F68E21C1F229
S2240026A000010B8843F400630B80069C44F24D362378C1F200063070002B40F03985B8F844
S2240026C0303003F00302032A00F06B8503F01F021F2A2ED043B1013B9BB2A8F830301BB9E4
S2240026E0BE4B4FF434721A86052025F0F3FB44F6782444F21633C1F20003C1F2000444F223
S224002700623619782288C1F2000633784A4042FA03F3D80703D52B68DA6A0132DA6205209F
S22400272025F0EAFAFFF7FABB112001211DF04EFAECE6FEF7E1FBB8F83030CBE70E2B00F0BA
S224002740CF81C0F003830F2B7FF4E8AD9DF885200E2A10D01DA8002127F092F99DF8853088
S22400276098423FF414AC1D9827F006F9384627F003F9FFF7D3BB07211DF02AFC1B90002879
S2240027803FF4CCAB0024047044708470C4701B9B0E220626991D1E715A711DA827F070F9AF
S2240027A00E28E0D12046012127F01CFE1C90002802F00B831B9BC0F30741020EC0F3072481
S2240027C09970DA7018705C701B9827F045F99DF860300246190941EA0313022008218DF8A5
S2240027E096208DF897301DF0F3FB1C9000283FF495AB1B9B1A0EC3F30724C3F30741C270A1
S2240028000370447081701C9B02225A7110221E719A719DF896201B93DA7101238DF8963076
S224002820002F7FF414AC16E4FD2B00F05582FE2B00F0CA81202B7FF471AD01239DF88520AA
S22400284088F82F301DA8002127F01AF9FFF79FBB1A9820F04F4027F08FF8304627F08CF834
S224002860FFF75CBB9DF88560012E40F27387012B40F0C0844FF0000C0020022EADF88EC043
S224002880324600F0C8849DF88430012B03D0B21ED2B28DF8852000B2031C18BF01237F2846
S2240028A0CCBF002303F001031946002B00F01B85022A08D000211DA827F0E2F89DF885302F
S2240028C098427FF450AF24A99DF88E0028F086FB02221DA820A927F0D3F802287FF443AFFB
S2240028E0BDF88E301AB27E2A3FF751AB9DF88420BDF89040192A02BFBDF880202243ADF899
S22400290090200ED01A2A02BFBDF8802024EA0202ADF8902005D0022A04BFBDF880C0ADF805
S22400292090C0D8B2BDF9901028F014FBBDF98E30452B02F0AD803E2B02F0A080462B02F05A
S224002940BF80472B7FF423ABBDF8906044F2CE2CC1F2000CACF80060FFF719BB022B81D0A0
S224002960032B00F00682012B7FF4D8AC079C002C3FF4D4AC9DF88560002E7FF475AF1FB1F8
S224002980384627F029F881469DF86040002024091034FEF767F88DE8010404212046012273
S2240029A04FF0FF33CDF808901DF060FBFFF7EFBA3E461D9826F0E0FF304626F0DDFFFFF7B1
S2240029C0ADBA03F00DFF44F2EC22C1F200021368002B3FF4C4ACFEF78FFDC0E40C03001006
S2240029E000201FF0A3FC002880F2468344F25A31C1F200010B88002B3FF423AD01339BB2EA
S224002A001AB2B149962A0B807FF71BAD0022228066201FF01DFC14E524F04F4738461AA90C
S224002A201DF080FE1A9B04F04F441C433E461A94FFF78ABA9DF885300024012BADF88E40F2
S224002A4000F0928598F82A3013B19DF8852081E63A469DF860000AF04F41FEF711FD9DF884
S224002A60852077E64FF4167CA8F82CC00AE6052025F030FA40F20402C1F2000291892B6800
S224002A80A1429C87914A80F06B8493F8402022F07F0242F0650283F84020B4E525F01AFA3D
S224002AA02B680520DA680132DA6025F025F9BDF88830002B3FF494AD9C4280F07385B8F875
S224002AC03430002B3FF48CAD013B814A9BB29386002B7FF485AD0A2006211EF009FC7FE5F1
S224002AE04F2024A928F07AFA18B14FF03C0CADF890C09DF885201DA8082A7FF42CAEBDF891
S224002B00904014F480647FF426AE04221EA926F0B7FF042806467FF426AE2AF089F81E9BE1
S224002B201EA9C31AB3F5967F1DA8324681F04D8426F0A6FF04287FF416AE1E982AF07EF84C
S224002B4040F2180EC1F2000E9EF80030022043F040030B218EF800301DF03AFA1B90002803
S224002B603FF4DCA9047044708470C4709DF860301B9E1A0942EA03135FFA83FE062333715E
S224002B80022373710D23B371F47121460122704600964FF0FF334FF080768DF897E001965F
S224002BA002941DF063FA1E9A4FF46A5302F57C3202F59062C0F20903B2FBF3F319B2092085
S224002BC028F0C8F9FFF7E3B99DF88510002900F0DB8301221DA80DF1960126F051FF9DF86C
S224002BE085309DF89660013B8DF885309DF860301A0942EA03130B2E8DF8973000F0D683C2
S224002C0000F22084042E02F0F48001F23181012E01F0058781F0EF804FF0FE0E00241CAB1A
S224002C2002211BAA8DF884E021A84FF0070E8DF885E01C941B9427F0C5FF1BA91CAA20468D
S224002C408DF8964027F074FF44F20E3EC1F2000E9EF800001BA91CAA27F06AFF02211BAABF
S224002C601CAB1C4827F0AEFF44F2F021C1F2000108781CAA1BA927F05BFF8DF8964046F257
S224002C80F822C1F20002905D1BA91CAA27F050FF9DF896600136F6B2012E8DF89660EED9A8
S224002CA01FB1384626F098FE81461B9B9DF897008DE80804002101224FF0FF33CDF80890D9
S224002CC01DF0D4F9FFF763B95A430010040000100C030010364C00109DF88530032B7FF4A6
S224002CE056A901220DF197011DA826F0C9FE22461DA80DF18E0126F0C3FEBDF88E309DF8DC
S224002D008520033A1E0442BF03F50063ADF88E309BB28DF885201AB2B2F5006FC4BFA3F577
S224002D200063ADF88E309DF89730042B3FF62FA90FF2040C5CF823F0FF460000F946000034
S224002D40774600008F1F0000274600009DF88560002E00F03C84042E1DA800F08184002131
S224002D60324626F08DFE9DF8853098423FF40FA9F9E4079C9DF88520002C41F02A81012A39
S224002D8041F21C81032A1DA80DF18E0101F02A81022226F075FE02287FF4E5ACBDF88E30F5
S224002DA01AB2FF2A01F0CD807F2A3FF4F0A8D8B21CA900231C9328F03DF8FFF7E8B844F22D
S224002DC01831C1F200010B8801339BB21AB2B2F5616F0B8016DD052025F07CF844F27012B6
S224002DE0C1F200021368052093F8402062F07F0283F8402024F080FFFA2027219B4A0523DE
S224002E001DF0BEFF44F67827C1F200073B8840F64572DB0B94428CBF002303F00103002B54
S224002E203FF466ABB4F57A7F7FF662AB9DF8953013F0300F7FF45CAB44F2F82CC1F2000CF6
S224002E40BCF800208A4B002A40F0628644F2503EC1F2000E0120AEF80040188044F2F82709
S224002E60C1F20007B7F900305A2B7FF44FAB112001211CF0ABFE0B23FA2027217B4A1DF057
S224002E807FFF9DF89530FFF743BB9DF885201DA8002126F0F5FD079E002E3FF478A81FB143
S224002EA0384626F099FD81469DF860402409103420F08AF86FE544F24E37C1F200073B8858
S224002EC001339BB2282B3B807FF44CAB112001211CF07CFEFA202721644A01231DF050FF8B
S224002EE0FFF740BB9DF885300021042BADF88E107FF6A8AD98F82E30D9073FF5A3AD0422BD
S224002F001DA81EA926F0BCFD042801F0F185BDF98E30012B7FF496ADD8F858001E9A002464
S224002F20904288F82F4040F029879DF896305BB93FE00C791C190C719DF89610CB1ADBB279
S224002F408DF89630002B34D01D9A54791179A34228BF234651181A468DF8973027F0D4FBB4
S224002F601D999DF897304C791E9AE41A9818E4B202461E904C71002CDBD108784C788A78A8
S224002F80CB7840EA042040EA024242EA036301201C9324F009FE1C9B9DF896101D939DF879
S224002FA097301E98CB1ADBB202468DF89630002BCAD1D8F8583093423CBF2E4B9A65F02311
S224002FC0A8F82830FEF7E3BF9DF885200024022AADF88E407FF436AD1DA824A926F050FD15
S224002FE0022801F08681BDF98E30012B7FF42AAD1421002024F09AFD27F0CCFB44F2D62CAA
S224003000C1F2000CBCF80010030A43EA0023BDF890209BB241F00401ADF89230ACF80010C8
S2240030201AB95A1CADF8902092B29A427EF4AFAF0020782124F07AFD98F82F303BB90D4B7E
S224003040012283F82E20042002211EF051F94FF0000EA8F828E0FEF79ABF44F24E330022C4
S224003060C1F200031A80FFF77DBA00BFB41F0300F84200100C03001000201FF057F9002829
S22400308000F0808744F25A34C1F20004B4F90030B3B90220FDF7E6FC44F26436C1F20006EF
S2240030A00446306826F098FC4FF08073019302900421182001224FF0FF3300941CF0D6FFC1
S2240030C001201FF033F90028C0F2218301201FF02DF90028FFF6B5A90220FDF7C3FC44F235
S2240030E06433C1F200030446186826F075FC00944FF08074019444F21434064601221820AC
S22400310004214FF0FF33C1F2000402961CF0AEFFB4F9002044F25A370026C1F20007022A6C
S2240031203E80964B01F0558601201880FFF789B903F008FAC60440F13A8242F210030340F8
S22400314000F00C02002B00F08682042A0CBF06220522DDF818C09CF8003093423FF4AFAA2F
S22400316041F6447EC0F2030E85490EEBC2030A70002059699A6929F025FDFFF7A0BA0520F3
S22400318024F0A8FE2B68012283F84020052024F0B3FD44F2183EC1F2000EAEF80040FFF7CD
S2240031A08BB944F24C30C1F200000378022B01D0FDF740FB4FF0FF302BF062FD45F64C0149
S2240031C0C1F200010B88C0F38F0419B220B2461A03366C4A062E9CBF1480B8F830307FF6C9
S2240031E075AA884240F3C48204331380B8F83030FFF76CBA02221DA80DF18E0126F040FCAA
S22400320002287FF4B0AA9DF88560BDF88E00022E32467FF438ABA0F180039BB25F2B40F2DA
S224003220858630460A211CF0D3FE1B9000283EF475AE00231C90037043708370C370BDF808
S2240032408E201B9811B206247F290471437141F34181DF29D8BF059301F32C8100231C93AA
S22400326000283EF494AE26F0F7FB9DF8603002461909022041EA031301468DF896208DF8AC
S22400328097301CF0A5FE1C9000283EF447AE1B9BC3F307241A0EC3F30741C27003704470A2
S2240032A081701C9B06221A7104225A7102229A719DF89620059C02321B93DA7114B1FF268B
S2240032C0ADF88E6003F108000DF18E0102222EF055FC002F7FF4E5ACE7E40B2003211EF0DF
S2240032E007F8FFF7CFB9DF2840F35385042A07D01DA826F0C5FB9DF8853098427FF433AA26
S22400330004221DA81FA926F0BBFB04287FF42BAABDF88E30FF2B0CD144F25E3EC1F2000EA8
S2240033209EF80020032A04D99DF88420022A01F05A83D8B21EA927F03BFE9DF88430192B67
S22400334001F0A0801A2B01F08D80022B04BF1F9B1E939DF88E001E9927F0DAFDFEF717BE27
S224003360D189A14280F06A8193F8402022F07F0242F0510283F84020FFF745B91443001077
S2240033800F4300104C5800100A461DA88DF8961026F076FB9DF860309DF896601A0942EA4C
S2240033A003130B2E8DF897307FF42AAC4FF0FE0E1CAB00241BAA02218DF884E021A84FF015
S2240033C0060E8DF885E01C941B9427F0FBFB1CAA1BA930468DF8856027F0AAFB21460120D0
S2240033E013F070FC1CAA03461BA98DF8853027F09FFB0121084613F065FC1CAA03461BA9F4
S2240034008DF8853027F094FB0221012013F05AFC1CAA03461BA98DF8853027F089FB03215E
S224003420012013F04FFC1CAA03461BA98DF8853027F07EFB0421012013F044FC1BA90346E5
S22400344000F070BC1E2E01F01C8400F2A6830E2E01F0348600F231840C2E01F0CC850D2E0E
S2240034607EF495AD9DF88530072B7EF690ADC34904221DA826F004FB1DA8C149042226F04F
S224003480FFFA3FB1384626F0A7FA44F2FC21C1F20001086044F21032C1F200021068B74BF3
S2240034A0441C00F02B87B0F5001F07D344F2EC26C1F2000632680A2A01F0D7859DF89730EF
S2240034C044F2103C44F21A3E20F00F00C1F2000CC1F2000ECCF800008EF80030FEF70CF8C5
S2240034E0FEF755BD44F25A36C1F20006338801339BB21AB2962A33807EF7A3AF0027278031
S22400350066201EF0A5FEFEF79CBF002231469D48ADF88C2029F024F80020322124F006FB93
S22400352044F2DC2CC1F2000CBCF800302BB1FA200321954A33461DF023FC0FFA87F9B9F1D4
S224003540010F00F0AB87012009211DF0D1FE44F2443EC1F2000E34F80E30FEF757BF0420FB
S224003560A8F83200FFF73CB898F82E6016F001067FF468AA1A461DA80DF19701ADF88E30BC
S2240035808DF8974026F07CFA9DF89730012818BFADF88E60BA2B00F0A3820020ADF88E0002
S2240035A0FFF750BA0421A8F83410FFF719B844F20E37C1F200073B7807229C073FF5C9ADD8
S2240035C000F00C02042A0CBF02220122C1E53146092027F0BFFC1B961C9629F029FB0421CB
S2240035E01BAA1CAB06461FA81F9627F0EBFA1B9826F032FA03468DF8963020460923042136
S2240036008DF897301CF0E4FC1C9000283EF486AC1B9B1A0EC3F30726C3F30741C2700370D1
S224003620467081701C9B06221A715C710D229A719DF896201B93DA71FFF732BB118AA142C8
S2240036404ED293F8402022F07F0242F03D0283F84020FEF7D8BF042A0CBF0422032278E54E
S2240036601EA9324626F00CFA04287FF47CA800231B931C9329F0DCFA042104461BAA1CABBD
S2240036801EA81F9427F09EFA04211BAA1CAB1FA827F098FA1B9826F0DFF99DF860300246CE
S2240036A0190941EA0313022006218DF896208DF897301CF08DFC1C9000283EF42FAC1B9BA6
S2240036C01A0EC3F30724C3F30741C2700370447081701C9B06221A7102225A710E22A6E77E
S2240036E0528AA24293F8402022F07F0234BF42F0290242F0010283F84020FEF784BFBDF83A
S2240037008A3023F47E43ADF88A30FEF79EBB44F25A37C1F200073A88013292B213B20F2BAC
S2240037203A807EF78EAE44F2143CC1F2000CBCF90020164C022A00F3D385962B7EF781AEC1
S2240037400021662021801EF083FD114B00221A80FEF777BE324600211DA826F091F99DF8B9
S2240037608560B0427EF4FFAF9DF88430FFF77FB8191F1180B8F83030FEF7A8BF104300103F
S224003780EC420010D41F0300B41F0300144300105A43001098F82F30002B41F01083DDF853
S2240037A018C09CF80030002B41F00183002303201A931DF057F84FF48043C4F2020344F63E
S2240037C0782E9A6CC1F2000E9EF8001002F07F420A434CF6CD46DFF8308304469A64CCF6E8
S2240037E0CC464FF08045AA2700200A2124F09EF91A9BA6FB0302D20802EB8202B3EB420F52
S22400380002D155222F722A720133B3F5167F1A9301F2BD8298F80030002BE5D0012003F018
S22400382025F826F08BFE002106466FF006001CF0CDF901216FF001001CF09CFAA6F10A035B
S224003840DFF8C892DBB20022012BA9F8002041F28282AB4D4620294627F0C0FB0146002851
S22400386000F01E8100232B80692001211CF082FA44F20C36C1F2000631786FF003001CF06B
S22400388079FA3388AA214FF080421172552113F40055117200F09186C3F3C1235900013125
S2240038A06FF005001CF092F96B2001211CF062FA26F044FE0F280546064647B209D80121D1
S2240038C001FA07F248F2A013134013B16C201CF051FADFF838824A20414627F07FFB0028CD
S2240038E000F0E7804FF0000CA8F800C06E2000211CF040FA4FF08042AA21002311725521E4
S224003900117218468DF895301CF064FF0F2D804640F2BE80B8F5616F06D840F252339C42A6
S22400392002D901238DF89530122000211CF022FA40F2040EC1F2000E9EF8003043B19DF86A
S22400394095701220002F00F0148601211CF03EF96C4A4FF080431188AA221A7255220620C7
S2240039601A722BF03FFC44F27C100023C1F20000102E036079D944F20C31C1F200010B881B
S2240039809B0401F128814FF4804544F20C37C1F20007C4F202053B88AE6C6FF003001E4053
S2240039A01CF010F83B8803405E40B6B2002E41F0EF8003201CF056FF40F252339C4294BFA8
S2240039C000220122984294BF002301239A421FBF44F27C11C1F200010B6843F0010318BF77
S2240039E00B60B9F800309F0741F08C8003201CF039FF40F25232904294BF00230123944234
S224003A0094BF002201229A4208D03BB144F27C17C1F200073B6843F001033B60002001460A
S224003A204FF4FA7229F0CEF84FF48043C4F202035B6C13F0010009D1962124F077F8012032
S224003A401DF06EFC0446002801F08C80002001462BF010F84FF48043C4F202035B6C26F053
S224003A6097FD002024F02EF9FEE7012173B201FA03F342F2120261F31F42134223D04FF4AD
S224003A808043C4F202035A6C42F001025A64ADE7012303FA07F717F4134F7FF43EAF39E74A
S224003AA0B5F90030002BBFF6DFAE69201CF062F9DEE6B8F8003098073FF418AF6E200121D9
S224003AC01CF058F916E7190540F1548168201BF079FF00288AD00D200E211DF009FCCEE7B3
S224003AE0BDF98E30012B00F07385002B7EF44FAAFEF7A8BF9DF88830ADF88830FEF777B978
S224003B000C4300100803001004030010E2420010013292B211B2B1F5E16F1A800ADB44F2F6
S224003B205031C1F20001B1F9003004F132029A42C1F25A8144F2F822C1F20002B2F90030FE
S224003B403C2B7FF48BA9032024F0C4F9012308210DF19502D6202AF0B5FE032024F0CCF8BE
S224003B609DF8953003F03002D2F1010138BF0021302A14BF0A4641F00102002A40F0C6868D
S224003B80B8490A80FEF7C4BCBBF8000044F24411C1F200010880FEF78CBBCD2E01F04180BD
S224003BA05CD8642E01F0A0807F2E7EF4F0A99DF88520022A08D000211DA825F061FF9DF843
S224003BC0853098427EF4CFAD02221DA80DF18E0125F056FF02287EF4C6ADBDF88E4026B219
S224003BE030462DF09DFA2CF059FE9FA30CCB2CF0D5FF0022C3F6F07200232CF0F1FC2DF094
S224003C0085F9DDF820C0CCF800009DF89600002C01F09B80314627F09DF900241C941B949E
S224003C20FE241CAB02211BAA8DF8844021A803248DF8854026F0C6FF9DF896001BA91CAA9B
S224003C4026F076FF0DF18E0002211BAA1CAB26F0B9FF002F7FF425A8FFF727B8FA2E00F06F
S224003C60E087FE2E7EF493A944F26832C1F2000214788CB944F2643344F20A36C1F20003AF
S224003C80C1F200061868347025F076FE44F2643CC1F2000CCCF8004044F2143EC1F2000ED7
S224003CA0BEF90030002B41F02D8244F214340023C1F200042380FEF76AB9142E00F0B6838F
S224003CC01D2E7EF464A9032024F004F912AA4FF480710B23D6202AF0F5FD032024F00CF886
S224003CE04FF0FE0E1CAB00241BAA02218DF884E021A84FF00D0E8DF885E01C941B9426F036
S224003D0061FF1BA91CAA30468DF8856026F010FF1CAB0B2112A81BAA26F054FF2B681BA97D
S224003D2093F840301CAA18468DF8853026F000FF1B9B38469DF89760049325F04DFE049BBA
S224003D4002908DE808043046214601224FF0FF331CF08CF9FEF71BB900201EF0FBFA002835
S224003D607EF47FAB01201EF0F5FA00283EF499ABFEF777BB5A053FF539AEFCE59DF8962019
S224003D801DA8214625F07CFE8DF896401E9AFFF710B91B931C938DF8963082B920E01BAAE9
S224003DA09DF897001CA926F0C3FE9DF896309DF885200133DBB29A428DF8963010D90122AD
S224003DC01DA80DF1970125F05BFE0128E7D01C983E4625F0D1FD1D9825F0CEFDFEF73DBD96
S224003DE0BDF88E00002800F03A861CA9C0B227F021F8FEF7CCB8022E00F0A685032E7EF4D5
S224003E00C6A800231C931B9326F0E2FA0446ADF89240FE241CAB02211BAA8DF8844021A819
S224003E2005248DF8854026F0CDFE1BA91CAA9DF8960026F07DFE02211BAA1CAB0DF19200A4
S224003E4026F0C0FE26F0A6FCADF892000DF19200FAE6BBF8002044F25213C1F200031A806C
S224003E60FEF770B9F8420010006AF84000000000082E00F0A2814FD8052E00F0CD80062E1F
S224003E807EF485A89DF88530FF228DF896202BB11DA80DF19601012225F0F2FD9DF8960050
S224003EA0002620A91CAA01280CBF0220304620961C961CF03FFDFE2320988DF8843025F0E5
S224003EC0CBFD1CAB441C1BAA022121A88DF885401B961C9626F076FE06231CAA1BA91846F5
S224003EE08DF8853026F024FE20991B9825F05AFD1B9B38469DF89740049325F06DFD049B1E
S224003F0002908DE808042046314601224FF0FF331CF0ACF8FEF73BB8092E00F0EE820A2EB1
S224003F207EF435A820F068F9FEF731B8C0B227F031F804461B90002861D000260596FFF727
S224003F408DB99DF88520022A08D000211DA825F097FD9DF8853098427EF405AC02221DA819
S224003F600DF18E0125F08CFD02287EF4FCABBDF98E2045F2AA539A427EF409A827F0ECF83C
S224003F80FEF705B80220FCF76DFD44F26432C1F200020646106825F01FFD4FF0FF330746B7
S224003FA000961820042101224FF08076019602971CF05CF801232380FEF743BA00211DA882
S224003FC025F05EFD9DF8852090423EF4DBAEFEF7CABB1DA8002125F053FD0020FCF71CFEB3
S224003FE0FDF7D5BF01220026ADF88E6025F048FD9DF88530013B8DF88530FEF7CFBE1C940C
S2240040000DF18E0031461BAA1CAB0124059426F0D9FD1B98FFF722B941F64174C0F2030439
S22400402024784FF0030E0EFB04FE059400240EF1070E02211BAA1CAB1C941B9421A8FE24BA
S2240040408DF884408DF885E026F0BCFD30461BA91CAA8DF8856026F06BFD059C0126ADF804
S2240040608E60002C41D0012341F62876C0F20306F05C1BA91CAA26F05BFDBDF98E3041F66D
S224004080B86CC0F2030C0CEB03139A680024D11C32EA220228BF0A469210002A5B6811DD22
S2240040A040F2000EC1F2000E1968DEF800000024814204D006E053F8040F814202D10134D9
S2240040C09442F8D1A40002211BAA1CAB24A8ADF8904026F077FDBDF88E20059C013292B2A3
S2240040E013B2A342ADF88E20BEDDC8201BA91CAA26F01EFD0A9E002E40F3D280DFF880C30B
S22400410040F2000EC1F2000EDCF80010DEF80030994240F0C5806246002303E052F8040F54
S224004120814203D10A9C0133A342F7D19B000221ADF890301BAA1CAB24A826F043FDC920A2
S2240041401BA91CAA26F0F4FC099E002E40F3C68048F6903C40F2000EC1F2000CC1F2000EB2
S224004160DCF80020DEF800309A4240F0B780C14B002403E053F8041F8A4203D1099E013400
S224004180B442F7D1A4001BAA1CAB022124A8ADF8904026F017FD38461B9E9DF8974025F0E6
S2240041A01BFC00210290012220464FF0FF338DE840041BF05BFFFDF7EABE4FF0FE0E1CAB6A
S2240041C0002402211BAA8DF884E021A84FF0120E8DF885E01C941B9426F0F4FC1BA91CAAE4
S2240041E030468DF8966026F0A3FC04224FF4D0101EA925F0B1FE1E9B1BAA013308BF1E9415
S2240042001CAB04211EA826F0DDFC04200422C0F21A001EA925F0A0FE1E9B5A1C5BD0A3F576
S224004220D013803B1E9304211CAB1BAA1EA826F0C9FC10200422C0F21A001FA925F08CFE4F
S2240042401F9B5E1C44D0A3F5D0131E9A823B9B1A1F9304211CAB1BAA1FA826F0B3FC082055
S224004260C0F21A0004221EA925F076FE1E9BD8B203F47F03B3F5981F8DF8960012D21428A1
S22400428010D01BAA04211CAB1EA826F09BFC00201BA91CAA8DF8960026F04AFCFEF700BD42
S2240042A0002343E71BA91CAA26F042FCE2201EA926F07EFEC3B28DF896300BB100231E9323
S2240042C01EA804211BAA1CAB26F07CFCFEF7E8BC00231F93BDE700231E93A4E7002451E707
S2240042E067201DF0B5FF4FF0020EA4F800E0FEF7A8B80126ADF88E60FEF77ABE0024052021
S2240043001C601C941B94FE2623F0E4FD4FF0DB0CADF8904002211CAB1BAA21A88DF885C0C8
S224004320CDF810C0544C8DF8846026F04BFC0D231BA91CAA18468DF8853026F0F9FB2046BB
S22400434044F210340421C1F200041BAA1CAB26F039FC23682A684C33D018D6211BAA1CAB24
S22400436026F030FCBDF8903022680133D6329BB22260012BADF89030DDF810C0CAD90520EE
S22400438023F0BAFC44F2FC211B9EC1F20001D1F800E002224FF0FF3300969DF8970000216E
S2240043A04FF080760196CDF808E01BF05FFE0023236044F2EC2244F2FC24C1F20002C1F26F
S2240043C0000413602360FDF7E2BD25F059FB04283DF4DDADFEF7C7B9112039461BF0F6FBDA
S2240043E0FA202721254A3B461CF0CAFCFEF7BAB80220FDF749F9FEF7B5B844F2643344F270
S224004400683644F20A37C1F20003C1F20006C1F20007186834703C7025F0AEFA44F2643CF6
S224004420C1F2000CCCF80040FEF73BB844F2DC20C1F200000388002B3DF4A9AD44F228311B
S224004440C1F200010B6844F25632A3F50813C3F38F13C1F2000219B21380062026F07AFDA1
S224004460FDF795BD1E9B1F9A23EA02031E93FEF770BF00BF908B001010430010B41F030075
S224004480948D00101E9A1F9B13431E93FEF761BF022005211CF02CFFFEF7A2B864201BF0FB
S2240044A091FA00283FF44FA8062049461BF08EFBFFF749B8D0B21EA926F07AFD80B205903D
S2240044C0C0B91EA804211BAA1CAB26F07BFB1B98FEF7C4BED0B224A926F080FD80B2059088
S2240044E040B924A831461BAA1CAB26F06BFB1B98FEF7B4BE0DF18E00F4E74FF0000CFE2386
S224004500CD48CDF870C0CDF86CC0CDF810C08DF884302DF08DFB1CAB441C1BAA022121A850
S2240045208DF8854026F04EFB1BA91CAA30468DF8856026F0FDFAC0482DF07AFB411CC9B2E4
S2240045401BAA1CABBC4826F03DFB38461B9E9DF8974025F041FADDF810C002906146204641
S22400456001224FF0FF338DE840041BF07FFDFDF70EBD39461BF02AFB2B1F18BF0123012D81
S2240045800CBF002303F00103002B3FF4E1A9B5F10D0318BF0123102D0CBF002503F0010572
S2240045A0002D3FF4D5A9B8F5616F7FF6D1A9112039461BF00BFBFFF7CBB929466FF005009E
S2240045C01BF004FB6B2029461BF0D4FBFFF770B9002488F82F4026F085F8BDF98E30C8F8FF
S2240045E05840002B7DF4D3ACFEF72CBA44F2F42EC1F2000EDEF800205121009110785178C5
S2240046009478D67840EA012242EA044242EA0662019202930393FA200121884A03231CF0EA
S224004620AFFBFDF7B9BB072023F054FC4FF6FF71C0F223014FF4081025F0ECFC44F2283464
S22400464044F2563644F2683C0023C1F2000C4FF40811C1F20004C1F20006216033808CF853
S224004660003006201CA91C9326F0E4FB072023F043FBFDF78CBCBDF88E30002B00F0E480D0
S22400468044F25634C1F20004238044F2563EC1F2000E0620BEF9001026F05CFC44F2583057
S2240046A0C1F20000BDF98E30B0F90020934200F0A08044F25C3CC1F2000CBCF900209A42E2
S2240046C07DF465AC44F2643E44F2683144F20A320024C1F2000EC1F20001C1F20002DEF816
S2240046E000000C70147025F047F944F26433C1F200031C60FDF74BBCBDF98E30D9E7BDF87D
S2240047008E30002B51D044F25C3EC1F2000EAEF8003044F2643CC1F2000CDCF8000025F0A5
S2240047202BF944F2283EC1F2000E44F25C30DEF80010C1F20000B0F90020A1F508110023FD
S224004740B2EB911F08BF44F2683244F26434C1F2000408BFC1F20002236008BF13703DF471
S22400476016AC27B1384625F037F9354B18609DF8602044F20A3644F2E02C44F2E42044F2A2
S224004780683101231209C1F20006C1F2000C4FF0000EC1F20000C1F2000132708CF80030BA
S2240047A0A0F800E00B70FDF7F2BB44F25630C1F20000028814045EBF44F25C31C1F20001BB
S2240047C00A80A6D544F22834C1F20004226844F25C36A2F50812520A0132D20092B211B21B
S2240047E0B1F5006FC1F200063280C4BF154A13808FE728F01DFA4FF4A34344F20B31C1F2CC
S2240048000001C0F2010390FBF3F30A7899B244F22C33C1F20003022A198003D009B20720D9
S22400482026F098FB44F258364FF0FF34C1F20006BDF98E3034803CE794440010B01F0300D6
S224004840644300105C43001044F22836C1F20006336844F2563CA3F508139B09C1F2000C27
S224004860ACF8003011E7BBF80000C34CB0F5CC7FBDF472AA2968C14E00F14C028B183080B6
S2240048804FF0040EF82001F802E05870322003EB0E07987083F803E044F24813C1F2000305
S2240048A01F608B5C228801339B00DBB29B1823803846002110222DF087F9FDF74DBABBF815
S2240048C00000AF4C296800F14C022080012088548B18F92058701E2098701E1D0220D870FC
S2240048E0CAF800608A5CBBF80010013202FA00F2D2B200205218ABF800209880D880FDF792
S22400490022BA002387F84C30FDF70CBA112000211BF05CF9FA2027219A4A0A231CF030FA83
S224004920FEF79CBA984999481BF0ACFEFDF714B96FF003001BF046F8FDF7FEB825F0D4FDB4
S22400494025F01AF8FDF713B99DF8852000231C931B93002A3DF41BAB01221DA820A925F0CA
S2240049608FF89DF88030FE228DF884200422162B8DF8852000F08A8400F26C840A2B00F087
S224004980FE8300F2ED83032B00F0538500F24085012B00F0808540F2D58344F6A621C1F223
S2240049A000010B78ADF890301CAB02211BAA21A826F008F91BA91CAA9DF8960026F0B8F8FF
S2240049C09DF880001BA91CAA26F0B2F89DF88530062B3FF475AC24A802211BAA1CAB26F013
S2240049E0F1F8FEF75DB91F9B12A8129326F042FB44F2F4201F9AC1F200000368110ED970C9
S224004A00C2F30724C2F3074044F25E311A705C709870C1F2000100230B70FDF7B8BA9DF845
S224004A208530002B3DF4B3AA1DA80DF19601324625F026F81FB1384624F0CEFF81469DF873
S224004A4096109DF897004A4620F0A0FBFDF79FBAFA2021214B4A1CF093F9FDF7F7BDDDF8F1
S224004A6070901CA91BAA1B901C901BF063FF1C984946012221F00AFAFDF789BABDF89010DC
S224004A806FF0090001F00F011BF0A0F8FDF77FBA44F2623EC1F2000E9EF80030012202FA5C
S224004AA003F3BDF8901044F216300B40C1F200000370C9B26FF004001BF088F8FDF767BA3B
S224004AC0BDF890305C4014F4C05F3DF460AAC3F3C12244F20C345200C1F20004511C238036
S224004AE06FF00500ADF890201BF070F8FDF74FBA9DF885300122043BADF88E208DF896303E
S224004B00FEF705BA01200DF1960123F01DF807281FBF44F27C12C1F20002136843F00203C5
S224004B2018BF136001200DF1960123F00DF80728F8D105200DF1960123F006F807281FBF88
S224004B4044F27C16C1F20006336843F0020318BF336005200DF1960122F0F6FF0728F8D1D9
S224004B60FEF744BF0D200E211CF0C2FB25F010FD204623F0A7F8FEE7CC4200104441001041
S224004B8052410010B41F0300441F03002843001045200DF1860126F021FA68B34FF0000C35
S224004BA0ADF886C0AB6C00234FF48042C4F20202926CF6B222F07F42134336EA03031FBF39
S224004BC044F27C10C1F20000036843F0040318BF0360FEF7EEBE6FF007001AF0F3FE002852
S224004BE03EF4D1AE44F27C12C1F20002136843F004031360FEF7C7BEBDF886301B0AADF8AF
S224004C008630AA6C1A4032421FBF44F27C1EC1F2000EDEF8002042F0040218BFCEF800209B
S224004C20C2E744F25E3EC1F2000E9EF800302BB9FA2E0CBF052600268EF800600026022413
S224004C401CAB21461BAA1C961B9621A8FE268DF884608DF8854025F0B5FF1BA91CAA9DF871
S224004C60960025F065FF44F25E31C1F2000108781CAA1BA925F05CFF002F7EF412A8FEF7DD
S224004C8014B89DF88540022C7DF46DAD24A922461DA824F0F5FE2146FE244FF0000C1CAB94
S224004CA01BAA8DF8844021A80524CDF870C0CDF86CC0CDF810C08DF8854025F083FF1BA9CF
S224004CC01CAA30468DF8856025F032FFBDF8900045F65403C1F200031BAA03EB80000421FE
S224004CE01CAB25F06FFF30E49DF88520022A7DF43AAD44F25E34C1F200042378002B3DF41D
S224004D0046A924A91DA824F0BBFE052023F0E2F8BDF890102C6808B200220B46ABF8001065
S224004D202018114605E08418013384F84C109BB201321CB240F2AB16B442F4DD0520ADF880
S224004D408E3022F0D9FFFDF722B91CA91C9426F071F8FEF762BF00216FF003001BF00AF83D
S224004D6000216A201BF006F800216E201BF002F800216FF005001AF029FF00216B201AF059
S224004D80F9FF692001211AF0F5FFFEF7E1BD44F2DC21C1F200010B88002B3EF43FADFA20FD
S224004DA00321B94AC8231BF0EBFFFEF737BD00204FF05531642227F005FFFEF7F7BC0420AC
S224004DC002211CF095FAFEF7EABC3E461B98FFF700B84FF0FF3CA3F800C0AC4B4FF0640E13
S224004DE0A3F800E0FDF72DBB0C20FCF74DFCFEF7A1BE4FF0000C4FF0010EFE23A448CDF830
S224004E0070C0CDF86CC08DF885E0CDF810C08DF884302CF00DFF841CE4B29E488DF8854026
S224004E202CF006FF431CE418E4B29B488DF885402CF0FEFE431CE418E4B298488DF88540FB
S224004E402CF0F6FE431CE418E4B295488DF885402CF0EEFE00F125021CABA41802211BAA9A
S224004E6021A88DF8854025F0ADFE1BA91CAA30468DF8856025F05CFE85482CF0D9FE1CABFA
S224004E80C1B21BAA824825F09DFE1BA91CAAA72025F04EFE7F482CF0CBFE1CABC1B21BAAFE
S224004EA07C4825F08FFE1BA91CAAA72025F040FE79482CF0BDFE1CABC1B21BAA764825F079
S224004EC081FE1BA91CAAA72025F032FE73482CF0AFFE1CABC1B21BAA704825F073FE1BA933
S224004EE01CAAA72025F024FE6D482CF0A1FE1CABC1B21BAA6A4825F065FE1BA91CAAA720FF
S224004F0025F016FE44F62830C1F20000B0F9CC40A723B0F9CA2063490BA8009427F006FB01
S224004F200BA82CF085FE1BAAC1B21CAB0BA825F049FE44F62831C1F20001B1F9C030A72262
S224004F4059490BA827F0F2FA0BA82CF071FE1BAAC1B21CAB0BA825F035FE44F62832C1F275
S224004F600002B2F9D0305149A7220BA827F0DEFA0BA82CF05DFE1BAA1CABC1B20BA825F089
S224004F8021FE12A803211FF051F9129BA72248490BA827F0CBFA0BA82CF04AFE1BAAC1B2D1
S224004FA01CAB0BA825F00EFE139BA72240490BA827F0BCFA0BA82CF03BFE1BAAC1B21CABCA
S224004FC00BA825F0FFFD149BA72239490BA827F0ADFA0BA82CF02CFE1BAAC1B21CAB0BA8F2
S224004FE025F0F0FDDDF810C01BA960461CAA25F09FFDFFF7AABA45F61E0CC1F2000C9CF812
S22400500000E000240EF1020E1CAB02211BAA1C941B9421A8FE248DF885E08DF8844025F037
S224005020D1FD1BA91CAA30468DF8856025F080FD45F61E0EC1F2000E9EF800301BA9184691
S2240050401CAA8DF8853025F073FD45F61E00C1F20000018800293FF49EA8C9B21BAA1CAB88
S224005060144825F0AFFDFFF796B80A21A0F58012CFF6F0711A604118104624F0CBFF0E4BF2
S22400508000221A60FCF783BFB41F03005A430010684B0010284B0010484B0010C84B0010AB
S2240050A0884B0010B81F0300C41F0300BC1F0300CC1F03005C500010EC42001002244FF01D
S2240050C0000C1CAB4FF0FE0E21461BAA21A8CDF870C0CDF86CC08DF884E0CDF810C08DF8CF
S2240050E0854025F06FFD1BA91CAA30468DF8856025F01EFD21461BAA1CABD24825F062FD4A
S224005100FFF723BA44F20830C1F20000B0F90010042025F01FFF01201DF008F900283EF4FD
S224005120C4ADC94BB3F90030002BBEF6BEAD66201DF08EF844F25A320021C1F2000211807D
S224005140FEF7B3BD44F2E823C1F200031B8844F2E8260024C1F20006ADF89030348023E40A
S224005160102B42D031D80C2B26D01CD30E2B0FD0FF238DF880300026ADF8906014E444F260
S2240051803A1EC1F2000E9EF80030ADF890300BE444F22832C1F200021368A3F508139B09C0
S2240051A0ADF8903000E444F23C10C1F200000088ADF89000FFF7F8BB44F23E11C1F20001CD
S2240051C00988ADF89010FFF7EFBB122B35D029D3132B15D0152BCBD145F28511C1F2000196
S2240051E00B78ADF89030FFF7DFBB44F2AC34C1F20004236806228DF885201E93FFF7D4BB52
S22400520044F21C3CC1F2000CBCF800C044F21C304FF0000EC1F20000ADF890C0A0F800E0D9
S224005220FFF7C2BB44F22436C1F200063378ADF8903000233370FFF7B7BB00201BF0CAFA80
S22400524040F61C4398427FF6AFAB0420FCF71CFAFFF7AABB632B04BF4FF4D670ADF8900074
S2240052603FF4A2AB49D81A2B02BF2B6893F83F30ADF890303FF498AB23D8182B18D00ED90D
S2240052801BF064FAADF89000FFF78EBB45F2A012C1F200021378ADF89030FFF785BB45F231
S2240052A0D414C1F200046379ADF89030FFF77CBB44F69C46C1F200063688ADF89060FFF7BE
S2240052C073BB1C2B00F09980C0F091801D2B2BD0622B7FF44DAF44F2D82C44F2791EC1F291
S2240052E0000CC1F2000E9CF800209EF8003043EA0223ADF89030FFF757BB672B4AD037D8E8
S224005300652B2CD025D944F25214C1F20004B4F900302A68581C3FF42EAF4C33D35C9B006F
S224005320ADF89030FFF740BB052022F0D3FD2B68052093F8402062F07F0283F8402022F0A8
S224005340DBFCFA202721414A05231BF019FDFFF72BBBBBF80010ADF89010FFF725BB44F24B
S2240053605212C1F200021288ADF89020FFF71CBB692B30D021D36A2B15D06B2B7FF4F8AEA2
S22400538044F2441EC1F2000EBEF800E0ADF890E0FFF70ABB44F25010C1F200000088ADF8D3
S2240053A09000FFF701BB44F2581CC1F2000CBCF800C0ADF890C0FFF7F7BA44F25011C1F2E3
S2240053C00001B1F900302A68591CA6D10022ADF89020FFF7E9BA44F6D463C1F200035A7866
S2240053E01B7843EA0223ADF89030FFF7DDBA1FF075FFADF89000FFF7D7BA4AF2CC00CFF6C5
S224005400FF70012124F03EFFADF89000FFF7CCBA052B35D025D3062B1AD0072B7FF4A8AEB1
S224005420FF234FF0000C8DF88030ADF890C0FFF7BBBA44F25D12C1F200021378ADF890301B
S224005440FFF7B2BA5866001014430010B41F030044F22816C1F200063378ADF89030FFF7A7
S224005460A3BA46F29C63C1F200031A6844F24023C0F20F03B2FBF3F3ADF89030FFF794BAC2
S22400548044F22034C1F20004236806228DF885201E93FFF789BA44F2E62CC1F2000CBCF844
S2240054A000C044F2E6204FF0000EC1F20000ADF890C0A0F800E0FFF777BA00BF4FF6FF71E3
S2240054C000B5C0F233014FF4101024F0A3FD44F2AC304FF41011C1F2000044F22C52C1F285
S2240054E00002016044F650130020C1F200031060E32019605DF804EB25F00ABD2DE9F04778
S224005500914656780F461FFA80FA127804E00136F6B2092E88BF0026964246D006EB4603E0
S22400552007EB83039B885345F1D199F80230013B89F80230002E33D0751EDFF87480EDB291
S224005540344698F8013004EB4400A34214D005EB450107EB810107EB80000C222CF00EFBA0
S224005560631EBCB1DCB26B1EC5B1DDB298F8013004EB4400A342EAD199F8013099F8002015
S2240055800133DBB2092B89F80130C0D9002389F80130BCE709246B1E002DE6D10925D0E7CF
S2240055A009253446DFF80880CBE7BDE8F08700BF6803001030B50D46013D441CADB201465B
S2240055C0651901E021460134082022F065FCAC42F8D130BD2DE9F0411C461B78154603EB07
S2240055E0430387B24FEA83088EB227F021FB45F808002378174A03EB430305EB83039F80E6
S2240056002378B7F57A7F03EB430305EB8303DE80237838BF127903EB430328BF527905EB4A
S22400562083031A72237803EB430305EB83051EB1094B1B6893F82F606E7223780133DBB210
S224005640092B237001D900232370A3780133A370BDE8F08168030010644A001070B50446CE
S2240056600EB21BF069FB002832D1244D2868A0F51013B3F5801F33D22EB1B6B2330A84F8C6
S224005680326084F833308022214624F085FC627A237A43EA02235A0405D54BF6FF721A40E7
S2240056A0130A2272637228684FF6FE738030C0F23303984288BF114B286084BF4FF41010D6
S2240056C018600F4B1A6882420FD0C305DB0D03B170BD00F5FE710331BDE8704024F09ABCE6
S2240056E00520BDE8704025F089B80022E32011461A6025F00DFC2868E7E700BFAC430010A5
S2240057005049001030B5C0B281B0032839D8DFE800F0332E29021C480E21FFF74BFF1B4A9C
S2240057201B4B15881C8825F020051580194A0134FF250020462115701C8022F0F7F9072061
S2240057400DF1030122F000FA0728F8D127F070FA114B00221B68C018104B1860104B1A603C
S22400576001B030BD0F480E21FFF724FFD7E70E480E21FFF71FFFD2E70C480E21FFF71AFF45
S224005780CDE70328ECD8CAE70C200300D642001044430010F0420010E043001044490010B0
S2240057A018450010FC1F0300EC1F0300DC1F030030B541F2EC3385B0002400900394ADF8F1
S2240057C01030029401941AE025F0B2F9019B002118790A22181827F031F8E30000FA03F0E5
S2240057E0039B01341B180198039324F0C5F80023029301939DF81330A4B22C2B22D00122B8
S2240058000DF11301684624F03BF903460020012B01A902AA9DF813305BD1A3F12E0EDEF1ED
S224005820000545EB0E052C2B08BF45F00105002DCAD1184601A902AA25F07AF99DF81330E6
S2240058402C2BDCD1019868B124F096F800230293019307E09DF813002C280BD001A902AA8B
S22400586025F066F901220DF11301684624F008F90128EFD0019B9BB101A902AA002025F05C
S22400588057F9019B002118790A22181826F0D6FFADF81000019824F06FF800230293019309
S2240058A0009824F069F80398002300930293019368B104210DEB01036A4603A825F082F937
S2240058C004A802216A4601AB25F07CF9009805B030BDB3F12E0218BF01222C2B0CBF0023C1
S2240058E002F00103002BADD002AA25F021F9019B002118790A22181826F0A0FFE40000FAED
S22400590004F0039B1B1803939CE700BF30B444F2743244F27013C1F20002C1F200031B687E
S224005920D46844F674215C6354889568C1F200014FF0FF301C871488D08208681D6359695A
S2240059405C870068128A013198615961A3F8422030BC70472DE9F0415E4D98B02B6880B2D7
S22400596093F82F20002A00F09B80002116911591002800F0A78000F5AE501B783F3000026F
S224005980FE2B00F0A580383003AC214624F0E4FA2B6818AA93F82F300025D31820464E4908
S2240059A00D2203F8535C2CF04BF960B120464B490E222CF045F9002872D103250F264FF00D
S2240059C00B082F4603E002250E26A846042716AB02214FF0FC0E15AA17A88DF85CE08DF8F2
S2240059E05D7025F0EFF816AA284615A925F0A0F818AA931913F8543CA019202B05D1024615
S224005A0012F8013F0130202BFAD0303BDBB2092B54D814A9002226F011FF15A9C0B216AAA4
S224005A2025F086F814980378002B47D0202B08BF034638D0002214A926F000FF16AAC0B2DC
S224005A4015A925F075F814980378D3F1010238BF0022032F94BF002702F00107002F2DD127
S224005A60202B08BF034604D113F8012F0130202AFAD014A9002226F0E1FE15A916AAC0B2AD
S224005A8025F056F8159B002100934FF08073019348F0500001224FF0FF3302911AF0E6FADB
S224005AA018B0BDE8F08113F8012F0130202AC1D113F8012F0130202AF5D0BBE7159823F0DE
S224005AC05BFFEDE703AC2146054823F0D9FF5FE7303059E7644A00101C2003002C20030013
S224005AE0384500102DE9F04F074689B005205FFA82F90D4622F0EEF9714B05201B681C6B09
S224005B00D3F834B09B69009322F0F6F8B9F1020F00F09B8020462AF0AFFE00220023C3F649
S224005B2010622AF011FF67A30CCB2AF00DFF0022002304460E462BF01DF90028B8BF04F115
S224005B40004431462046B4BF4FF02D0A4FF0200A2BF094F980462AF08FFE02460B462046B9
S224005B6031462AF03BFD59A30CCB2AF0EDFE2BF085F942460346574901A826F0D7FC50464D
S224005B8039462A4624F0D4FF01A82CF051F83A46C1B22B4601A825F015F858462AF06CFECB
S224005BA000220023C3F610622AF0CEFE45A30CCB2AF0CAFEB9F1030F14BF20235F2304464B
S224005BC00E462A463946184624F0B2FF00220023204631462BF0CEF80028B8BF04F100447F
S224005BE031462046B4BF4FF02D0A4FF0200A2BF045F980462AF040FE02460B462046314684
S224005C002AF0ECFC31A30CCB2AF09EFE2BF036F930490346424601A826F088FC39462A4656
S224005C20504624F085FF01A82CF002F83A46C1B22B4601A824F0C6FFB9F1030F14BF2020BD
S224005C405F2039462A4624F073FF2C680098002C2FD024F049FCC0F30721C0F30742030EB3
S224005C6020706170A270E3702B6818785C789978DA7840EA042343EA014343EA02632B6020
S224005C8013B1B9F1030F05D0B9F1000F06D109B0BDE8F08F1A799B185F229A720E4B1B886E
S224005CA05B05F4D403213A462B460C4824F08AFFEDE724F019FC286038602B68E0E700BF7B
S224005CC0704100100080564000000000006AF84000000000802103002A4500108821030077
S224005CE02DE9F041054688B00520D4B20E4622F0F1F8274BB3F904002AF0BEFD25A30CCB45
S224005D002AF022FE2BF0BAF8244B80460520DF8821F0F2FFB8F1030F27DD214B2149424697
S224005D20022C08BF1946684626F000FC68462BF07FFF2A46C1B23346684624F043FF8CB166
S224005D40174B1949022C08BF19463A46684626F0EDFB68462BF06CFF2A46C1B233466846BC
S224005D6024F030FF08B0BDE8F08130202946324624F0DEFE022CE2D129463246302024F0BA
S224005D80D7FE29463020324624F0D2FE0449DCE774430010976EB23F3BDF4F8D68030010D0
S224005DA08C2103009421030098210300F0B5D6B2032E88B005460C462DD0052022F08AF8D1
S224005DC0022E44D04D4F4E493A88684626F0AEFB68462BF02DFF2346C1B22A46684624F015
S224005DE0F1FE29462246202024F0A2FE7A884449684626F09BFB68462BF01AFF2A46C1B236
S224005E002346684624F0DEFE012E59D0052021F073FF08B0F0BD0E68002E4BD0002024F01E
S224005E2063FBC0F30721C0F30742030E30707170B270F370236818785D789978DA7840EA94
S224005E40052343EA014343EA02632360E1E731462C482A46234624F0B5FE284E00273388E4
S224005E60294643FA07F313F0010F0CBF302031202246013724F05CFE082FF0D1294622461B
S224005E80202024F055FE204802212A46234624F099FE00277388294643FA07F313F0010F6C
S224005EA00CBF302031202246013724F041FE082FF0D1ABE7304624F017FB20602860A8E7C1
S224005EC07A681249684626F031FB68462BF0B0FE2346C1B22A46684624F074FEBA680B4923
S224005EE0684626F023FB68462BF0A2FE2A46C1B22346684624F066FE88E700BF784A0010E0
S224005F00A02103009C210300A4210300A8210300F0B5044688B005200D4621F0DBFF234B6C
S224005F20B3F904002AF0A8FC21A30CCB2AF00CFD2AF0A4FF204B06469B684FF47A72002B5F
S224005F4029D11E490023096801F11C0103C92BF08DFB0746052021F0CFFE3A4618496846EA
S224005F6026F0E4FA68462BF063FE2B46C1B22246684624F027FE32461249684626F0D6FA64
S224005F8068462BF055FE2246C1B22B46684624F019FE08B0F0BD09490023096801F1440139
S224005FA003C92BF063FB0746D4E700BF74430010976EB23F3BDF4F8D6803001070410010E1
S224005FC0AC210300B42103002DE97043044688B06FF006000E4619F0F5FC2AF04DFC002291
S224005FE00023C3F6E0722AF0AFFC89464A4601468046002019F058FA164902B2684626F0EB
S22400600095FA68462BF014FE2246C1B23346684624F0D8FD012520202146324624F088FD48
S224006020284641464A4619F03FFA0A4902B2684626F07CFA68462BF0FBFD0135C1B2224681
S2240060406846334624F0BEFD032DE4D108B0BDE8708300BFBC210300F0B5B34D93B02E68F3
S224006060002396F82F2080B2CCB212931193002A00F04A81002800F00B8100F5AE503378FB
S2240060803F300002FE2B00F00981383069466F4623F062FF2A6813A992F82F30CB1800216C
S2240060A003F84B1CA14B92F82F601B7B32B213F0030318BF01238A420CBF002303F0010345
S2240060C0C3B1FF2A16D0013EB6B20DF1FF35BE19022C15F8010F39D00FD8002C1FD13A28CF
S2240060E008D02D2800F0E68011A912AA24F020FDB542EDD1119813B0F0BD652C20D0662C90
S22400610013D0642CF4D13128F4D189482BF090FD11AAC1B212AB864824F054FDEAE7012C8F
S224006120E6D13A2808BF0224E2E7532800F0F58040F2B680542800F0E980702804D17C2065
S22400614011A912AA24F0F4FC0224D1E7A0F15B034C2BC9D801A252F823F000BFFD620000BD
S224006160E9600000F9620000ED620000E9600000E9600000E9600000E9600000E9600000BA
S224006180E9600000E9600000E9600000E9600000E9600000E9600000E9600000E9600000B2
S2240061A0E9600000E9600000E9600000E9600000E9600000E9600000E9600000E960000092
S2240061C0E9600000E9600000E9600000E9600000E9600000E9600000E9600000E162000078
S2240061E0D5620000C9620000BD620000E9600000E9600000E9600000E9600000E9600000AC
S224006200E9600000E9600000E9600000E9600000E9600000E9600000E9600000E960000031
S224006220E9600000E9600000E9600000E9600000E9600000E9600000E9600000E960000011
S224006240E9600000E9600000E9600000E9600000E9600000E9600000E9600000E9600000F1
S224006260E9600000E9600000E9600000E9600000E9600000E9600000E9600000E9600000D1
S224006280E9600000E9600000E9600000B9620000694628486F4623F0F3FBFBE63030F5E612
S2240062A041287FF451AF11A812A90022FFF78CFE02241DE764241BE7652419E711A812A936
S2240062C00022FFF70DFD13E7012011A912AA1AF031FB0DE711A812A90122FFF767FD07E7FD
S2240062E011A812A90322FFF7FDFB01E711A812A90122FFF7F7FBFBE66624F9E611A812A9ED
S2240063000122FFF7EDFCF3E61046F4E611A812A90322FFF74BFD0224EAE6032011A912AA07
S2240063201AF008FB0224E3E6644A001068030010285800103845001070B484B004AC04E911
S2240063400F003A4B1B6893F8354093F8341093F8310093F8302041EA042193F8366093F8BF
S224006360324042EA002293F8375042EA044241EA064193F83300039C41EA0561214042EAE7
S2240063800062914204D0002000B204B070BC70471C7DD97CDA7941EA0421187ABDF800406E
S2240063A042EA002221409142EDD19C7D597D5A7A41EA0421987ABDF8024042EA00222140CD
S2240063C09142E0D11C7ED97D5E7E187B41EA0421DA7A9C7E41EA06415D7B42EA002241EA54
S2240063E00464987B019942EA0542214042EA00629142C8D11C7FD87EDA7B197C5E7F40EAD3
S22400640004205C7C42EA01219D7F9A7C40EA064041EA0443029940EA0560084043EA026315
S224006420C21A504240EB0200AEE700BF644A0010F0B583B292B00F461646194C002B26D057
S2240064404FF6387022681B02C0F2150092F82F20181869466D4623F07FFD236812AA93F810
S2240064602F300024D318684611A9224603F8484C26F0E4F9388011980130119026B12146E6
S224006480224626F0DBF93080002012B0F0BD2368694693F82F2003486D4623F0F1FADCE793
S2240064A0644A00103845001030B5174D174C2B88A4F1340013F4A07F08BF20463321FFF7C7
S2240064C079F804F174000D21FFF774F82B88990748BF04F1340006D404F174000D21FFF763
S2240064E069F804F154001E21FFF764F808481121FFF760F8074B08491A78002022F0010222
S22400650008701A7030BD00BF2A45001070200300F4200300180000104E49001000B581B0EA
S22400652007200DF1030121F00FFB0728F8D1044B1B78062B01D001B000BDFFF7B5FFFAE73D
S2240065405D41001010B5052021F0C4FC44F67823C1F200035C68052021F0CEFB204610BD4C
S2240065602DE9F04F974D8EB02E68D5F810B02C6A594630462AF028FE6B68214605932AF0A5
S22400658023FED5F81480D5F818A00746414605982AF01AFE51462AF017FEEB68014638466E
S2240065A004932AF009FDD5F80890EF6903460499484603932AF008FE39462AF005FE039BFE
S2240065C0014618462AF0F8FC51460346584603932AF0FAFD014648462AF0F6FD39468146B6
S2240065E040462AF0F1FD014630462AF0EDFD014648462AF0E1FC0499064620462AF0E4FD31
S224006600014605982AF0E0FD014630462AF0D4FC039B014618462AF0CDFC2AF03FF9002259
S224006620002382468B462AF0A5FB002880F2BF8068692B6900F1004E0498634A03F10043E2
S22400664000F1004706AC2B61127806235F492046EF60C5F814E04FF000080EAEADF83630F0
S22400666025F064FF46F8148D2046CDF828802BF0DFFA0AAFC1B23B462046324624F0A2FABC
S224006680ADF83680002355F823205149204625F04DFF20462BF0CCFA3246C1B23B4620466D
S2240066A024F090FABDF83620013292B213B2092BADF83620E7DD099823F08EF93146034602
S2240066C0B3200B9324F0B6FB424B00251D70424B1D7026F0ADFA23F007FF314603463A4610
S2240066E020200A93099324F023FA52465B463B49204625F01BFF20462BF09AFA3246C1B299
S2240067003B46204624F05EFA0B9A0A9B110EC2F30724C2F307401A705C70D9709870099894
S2240067200A950B958DF8345023F096F904468DF83540099C022132463B460DA80B940A9572
S224006740099524F03FFA0B9A0A9B46F25904110EC2F30726C2F30740CEF2ED241A705E7044
S2240067609870D9700BAA04213B460C940CA841F2EC340A950B95ADF8364024F023FA022113
S2240067800BAA3B460DF1360024F01CFA099BA82000934FF0807301930B9B294602930122CE
S2240067A04FF0FF3319F062FC0EB0BDE8F08F064B06AC1A780549204625F0B8FE4FF00008BF
