S017000042696E732F4D333033362E434255472E73726563EA
S224000000DCFF001001010000E9000000ED000000F1000000F5000000F90000000000000039
S22400002000000000000000000000000041040000FD000000000000001104000039A903007F
S224000040990100003DCF030099010000C9C9030099010000C1AD0300BDAE0300BDAF0300DB
S224000060C1B003009901000021C703005DC8030099010000990100009901000099010000F2
S2240000809901000025A9030099010000990100009901000099010000990100009901000054
S2240000A09901000085BE0300990100009901000099010000990100009901000099010000BF
S2240000C0990100009901000099010000C5B103009901000099010000E1D003009901000052
S2240000E099010000D50A0000FEE700BF00BE7047FEE700BFFEE700BFFEE700BFFEE700BFD9
S2240001001B4B1C4900B58B4206D21B4A52F8040B43F8040B8B42F9D3204821494FF0000201
S2240001208842B8BF40F8042BFFF6FAAF1D4880F30988124B124A186812499342086005D263
S2240001401149096843F8041B9342FBD30F4B0BB100E000BF0E4B13B100E000BFFEE70D4B24
S22400016013B100E000BFF9E700F0BAF9F6E700BF00000010E40300107D83040084930010C6
S224000180DCFF0010785A001000000010000000000000000000000000FEE70000E4030010A1
S2240001A0906900108495001000000000000000000000000000000000000000000000000008
S2240001C000000000000000000000000000000000000000000000000000000000000000001A
S2240001E00000000000000000000000000000000000000000000000000000000000000000FA
S2240002000000000000000000000000000000000000000000000000000000000000000000D9
S2240002200000000000000000000000000000000000000000000000000000000000000000B9
S224000240000000000000000000000000000000000000000000000000000000000000000099
S224000260000000000000000000000000000000000000000000000000000000000000000079
S224000280000000000000000000000000000000000000000000000000000000000000000059
S2240002A0000000000000000000000000000000000000000000000000000000000000000039
S2240002C0000000000000000000000000000000000000000000000000000000000000000019
S2240002E000000000000000000000000000000000000000000000000000000000F1F1F1F135
S22400030000B58AB00AA8362340F8283D41F6F1736846C1F6FF7305A9984706980AB000BD2D
S22400032010B44FF44043C4F20F034FF40242C3F8C420D3F8A02142F02002C3F8A021D3F819
S224000340A0114FF440424906C4F20F02F7D54FF4D853C0F2B70301219842C2F80C1138D982
S22400036046F23A0414604FF460630924C2F88440C0F22773C2F88010AA21C2F88C10B3FB78
S224000380F0F05521C2F88C10002829D0A0422DD14EF2C0123A244FF48470C0F2E4024FF429
S2240003A040431A49C4F20F030A60C3F804011A461C60D2F888305B05FBD54FF44043C4F256
S2240003C00F030422C3F8A8210122C3F8002110BC7047C2F804113A2111600C4A1360ECE7A3
S2240003E045F23A0440F201101A46D8E793FBF0F24CF66B23511EC6F65F33A3FB0143DC0D59
S224000400240340F4807044F03A04C8E79069001072B6EFF3088020E9F00F2C4981F308884F
S2240004204FF000014DF804ED62B633F093FE72B65DF804EBB0E8F00F80F3088862B67047A0
S22400044072B6EFF3088020E9F00F204981F308884DF804ED62B633F0B1FE72B65DF804EB04
S224000460B0E8F00F80F3088862B6704700B534F0ABFE72B6164880F30888A0F58060154930
S224000480154AA2EB0101A0EB01001249134AA2EB010300EB0302014640F0010000F002F842
S2240004A0FEE700BF074C084D00B5AC42034605D254F8040BAC4241F8040BF9D31046984796
S2240004C0FEE700BF340104003C03040084950010DCFF0010340104003C0304003C03040024
S2240004E0CA4ACB4B80B51A603AF028FBC94900230B80C94901220B80C849C94C0A70C9499F
S2240005004FF460600A70C84922700B70C749C0F227700B70C6490B70FFF702FF00203AF09C
S2240005201DFB32F07DFE4FF48043C4F202035A6CD50700F1AE809A6C100500F1AA809A6C43
S224000540002A00F0A6805A6C12F47F0F40F0B2809A6C42F400629A644FF48043C4F202033D
S224000560996C48F2FF4241F000419964C0F21E024FF080435A6003221A70AA221A7255227B
S2240005801A723CF057FF3CF0FBFC3CF04BFA3CF03BF82378002B40F08680052036F030FDE1
S2240005A002204FF4165100223AF090FE01204FF4E12100223AF08AFE002002464FF4165144
S2240005C03AF084FE042042F6A00100223AF07EFE34F0F6FD974DEF1D6E1C15F8018F4046F1
S2240005E0B8F1000F08D032F0B9FE06EB08131B7D0A2B53D0BD42F0D10120032132F05CFF0F
S2240006008D4B01221A701A785AB14FF44042C4F20F024FF47061C2F8C01030BF18780028E2
S224000620F9D1002525703BF0CBFF3CF05BF83CF05FFA3BF025FB01203CF02AFF3AF06CFBE6
S2240006404FF44043C4F20F03D3F8C4104FF48043C4F2020348F260021965C2F209024FF08F
S2240006600071D1614FF080431C7848F2800204F001041C70AA21C4F202024FF0FF3055248F
S22400068019721C72D060D06219721D7234F09CFDFEE74FF48043C4F2020359E74046022174
S2240006A032F016FEA6E700203BF010FC01203BF00DFC72E73CF0BEFE3CF062FC3CF0B2F924
S2240006C03BF0A2FF052036F09BFC34F079FD64244FF47A703AF0AEFA013CF9D13CF002F819
S2240006E03CF006FA3CF07CFC3BF0CAFA01203CF0CFFE3AF011FB02202AF096F84FF4804217
S224000700C4F202024FF400614FF44043D464C4F20F0311650121C3F804113A211960D3F8A9
S224000720A810C9050BD5AA21C3F8A040C3F8AC105521C3F8AC10D36C43F00203D3644FF493
S2240007404042C4F20F02D2F8A8104FF4404311F48071C4F20F03F6D1D3F88820D2050FD550
S224000760C3F88010AA21C3F88C104FF480425521C4F20202C3F88C10D36C43F00103D364CE
S2240007804FF44042C4F20F02D2F888404FF4404314F48074C4F20F03F6D14CF2B010C4F231
S2240007A00F0048F26001C3F80C41C2F20901C3F8A04104604FF00070C8614FF40241C3F8AB
S2240007C0C4104FF46D421D21C3F8C010CEF20002136943F00403136130BF34F0F5FC4FF452
S2240007E08042C4F20202516C4FF0804341F001015164FF21596003211970AA2255211A727D
S22400080019721A721C7234F0DFFCFEE794690010284200102E4200105C430010B043001091
S224000820AC4300102C420010B443001014420010314200103B0304003042001000B581B09C
S22400084001A941F8040D0220694632F017FF009801B000BD00B581B001200DF1030132F065
S224000860F1FE9DF8030001B000BD00BF2DE9F04FA54C85B02378FF2B00F08E8000206946B2
S22400088001AA28F0F3FF2378064643B1009A019B9E4D0132013385E80C000021217002A965
S2240008A0E52036F00FF903A90446E62036F00AF9012802D0012C40F08580954C41F6FF73F4
S2240008C022889A429DE80C0000F09C80DFF858B2BBF800100D0762D48C4D1EB929689142EE
S2240008E000F00381218885E80C00DFF82882002940F08C804FF6FF7901274FF4C016854DA7
S224000900C0F2180932E095F804A029684FEA0A6A287BDDF800C04AEA112AA9680006CCEB09
S2240009200A0CBCF1000FB8BFCCF1000C40EA11201136844517D295F808A069684FEA0A6A99
S224000940287CDDF804C04AEA112AE9680006CCEB0A0CBCF1000FB8BFCCF1000C40EA11206B
S2240009608445C0F09F804E4597B20BD011226949304634F0F5FD98F800307A1C991DC9B22B
S2240009800429C0D9BBF800301B0700F1A0800023238005B0BDE8F08F01232370F9E7082018
S2240009A05D4935F027F8BBF80030180740F1A880564D082095E80C00574935F01BF89DE83C
S2240009C00C008AE704A9E72036F07CF8049911B942F210710491009A029B9B1A002BB8BF08
S2240009E05B428B42019B06DA0398C01A0028B8BF404288427FDB464C41F6FF7120888842A7
S224000A007FF464AF0021218001265FE7C904C90C0139DFF8008101EB011101F5C0101122F1
S224000A20414634F09DFD98F800300633DBB2042B3FF660AF98F80420D8F80000120642EAAB
S224000A40102098F80C30009AD8F808101B06821A002AB8BF524243EA11239A42BFF44AAF38
S224000A6098F80820D8F80400120642EA102098F81030019AD8F80C101B06821A002AB8BFBC
S224000A80524243EA11239A42BFF434AFBBF8003019077FF57EAF1E4B08201A881F4934F087
S224000AA0A9FF76E7FE2B18BFC3F1FE0327801EBF47EA4337164B1F80BBF800301A077FF5D0
S224000AC068AF22880820164934F094FF61E74FF2F103A6F5C016CFF2F003A3FB0623082081
S224000AE01A09104934F086FF51E70849496899427FF4F8AE4DE7064B41F6FF71198048E7AA
S224000B009DE80C00014DE8E628440010EC030010304400100C4400108404040090040400A0
S224000B20A0040400B0040400AA43001044F22823C1F200031B6800229A80DA809A60DA60CF
S224000B401A615A61704700BFF0B5C5B2002383B0022D0193009300F0BE8002238DF808300C
S224000B601E238DF8093002216A4601AB02A835F0A1FD3AF017F95B4B5B4C1B78A060013B2F
S224000B80DBB2022B88BF594B4FF0030E89BF1B686FF0090318785E7881BF9978DA7840EAF2
S224000BA0062343EA0143504E88BF43EA026384F810E005F001074FF0560E6A46E3600B21F4
S224000BC001AB84F811E006F10800A77435F072FD052032F06FFD464B1B68DA88002A4CD0DA
S224000BE09988B1FBF2F23275986848F68902C8F68802A2FB00106169400960F3172161617A
S224000C00D868E169A2FB0062C2F34F12100A2076E2751869A26901F07F4160F31722A2615D
S224000C20187D0022E0765E69022D41EA1621E1612D4884F82020E27724D02E4B90F8201059
S224000C40D3F8C44093F8C720B3F8C03041EA042180F825302423016280F8242080F8263062
S224000C60132114306A4601AB35F024FD3FB9052032F030FC009803B0F0BD3275B4E7FFF7BA
S224000C8055FFF4E793F83F401A4A002380F82030D2F8C460DDB2B2F8C03092F8C71080F8D7
S224000CA0253045EA06222423C477026280F824106A46132180F8263001AB143035F0FAFC34
S224000CC0052032F007FC04216A460DEB01030A4835F0F0FCCEE704238DF8083020238DF830
S224000CE0093040E73A440010EC030010D043001028420010044C0010A4590010F0B504B29D
S224000D0087B034B18C4B1C8814F4806400F0208100248A4D2B88DA0700F1008100200A216E
S224000D2032F0EAFA002C00F0C18001200246844934F060FE03A835F063F90A2104460020D2
S224000D4032F0DAFA2B88DB0700F1BA80002C40F0BF8003200C2128F01DF90590002800F012
S224000D60A2802B88DE0700F1DF800023037043708370C37006230371059F022343710323B5
S224000D80BB71234624B1BDF90C30002B18BF02230026FB7166203146009701224FF0FF3311
S224000DA04FF080770197029628F068F961200DF11A0135F09DFE002840F0A180BDF81A307D
S224000DC0D80440F19E8003200D2128F0E3F80590002868D02B88D90700F14E8100230370C1
S224000DE043708370C37006220271059B0222427103229A71224624B1BDF90E20002A18BFB1
S224000E000322DA7100934FF0807300210193BB2001224FF0FF33029128F030F94C200DF136
S224000E200E0135F065FE10B10023ADF80E30642003A935F05DFE10B10023ADF80C30BDF825
S224000E400E309A0705D5BDF80C3013F4805300F0FF8003200D2128F09DF8059018B32B8889
S224000E60DB0700F1EE800023037043708370C37006220271059B0222427103229A71224613
S224000E8024B1BDF91020002A18BF0322DA7100934FF0807300210193222001224FF0FF33D1
S224000EA0029128F0EBF8204607B0F0BD34F0E0FB00200A2132F020FA2B88DB077FF546AF51
S224000EC001202049224634F095FD002C3FF441AF03A835F0EFFABDF80C10002940F0D880DB
S224000EE0BDF80E10002940F0CE80BDF8101000293FF42FAF09B2202035F0B6FD29E7ADF8DC
S224000F001A6007AE002346F8083D3146162035F011FD1720314635F00DFD7FE701200A4960
S224000F20224634F067FDF9E602460849012034F061FD059819E700BFFA430010AA430010FB
S224000F40D0040400EC040400C0040400FC0404000B2003A935F0CCFD08B1ADF80C400C2059
S224000F600DF11A0135F0C4FDBDF81A3018B10023ADF81A300023BDF90C201BB201249A42C0
S224000F80A4BF4FF0FF33ADF80C300DF10E01A8BF0024172035F0ACFD10B10023ADF80E3033
S224000FA016200DF11A0135F0A3FDBDF81A3018B10023ADF81A300023BDF90E201BB29A428E
S224000FC0A4BF4FF0FF33ADF80E3004A9B8BF0124642035F08DFD0546E8B9BDF81030D9041B
S224000FE019D5212004A935F083FD08B1ADF8105020200DF11A0135F07BFDBDF81A3018B1EF
S2240010000023ADF81A300023BDF910201BB29A4201DA012403E04FF0FF33ADF810300221AB
S2240010204FF0FF3016F0CEFE032103464FF0FF30002B18BF002416F0C5FE002818BF00247E
S22400104067E602461549012034F0D4FC05980AE707AD45F8083D29461F2035F06BFC294616
S224001060202035F067FC2946212035F063FC2220294635F05FFC16E702460949012034F062
S224001080B9FC0598AAE609B2162035F0EDFC2CE709B20C2035F0E8FC22E700BF0C0504008A
S2240010A004050400F0B5B24D4FF6FF722B8885B0934239D01A051C0B120DADF81240A418E6
S2240010C039F070FE4AF28053AA4ACAF63C531268C3180293577811789678D07841EA072137
S2240010E041EA064144F6251241EA0061C2F29242A2FB016044F207560F1A00EB5700CCF23A
S2240011002E268008A6FB0373C0EBC000091A89B201EB1343A2FB03029B1A02EB5302920899
S224001120A242029200F2BD800C250124284604A935F0DEFC0135002808BF00240F2DF5D148
S2240011401F25284604A935F0D3FC0135002808BF0024232DF5D104A9162035F0C9FC04A95E
S22400116003461720002B08BF002435F0C1FC04A903460A20002B08BF002435F0B9FC0028BA
S22400118040F08380BDF81030D3F1010338BF00231C4040F0818039F005FE46F23F73C4F6E3
S2240011A0A333984202906DD9734D2B88002B40F017814BF2C533C9F2A213A3FB00734AF646
S2240011C0AB22DB0ACAF6AA22A2FB031744F20754CCF22E24A4FB00243F0943200DF11201F5
S2240011E007EB4707A3EBC70735F082FC2B88240CD907BFB200F1ED80BDF81230DAB2172A55
S22400120005DD03F47F4303339BB2ADF81230B3F5006F02D90323ADF81230BDF81030A342EB
S22400122000F0B48000202FF0ABFCBDF8122012F47F4F59D12B88DB0700F1E180BDF81030DE
S2240012409C4200F0938001339C4200F0EB802B880022D807039200F1CD8003202FF090FCE6
S2240012600120FFF74BFD002800F0AE8021B20A2035F0FAFB00202FF083FC01203F4934F022
S224001280B9FB012420B205B0F0BD012300261C40ADF810603FF47FAF00202FF071FC002450
S2240012A0F0E72888BDF8123000F470401BB1013B9BB2ADF812309B18314C03432B80216821
S2240012C0304B03221A8000297FF42EAFDF2035F0EBFB0390002800F0B38005F0E7FA206018
S2240012E0294B08221A701FE7BDF810309C423DD0120AD61CF6B2062E01D9043AD6B22A889F
S224001300D20700F18680DA1FA242A0DCDA1DA2429DDB029944F20752CCF22E22A2FB010274
S22400132044F62511120CC2F29241A1FB0201501A01EB50018908C1EBC101521AD2B2B2426A
S22400134077D042F293419B1BA21BC9F2492181FB026081FB03718018C918D217DB17C2EBD2
S224001360A002C3EBA1039A427FF471AF002489E7E4430010D0430010AA430010840504008D
S22400138040440010F0430010E6430010029944F20753CCF22E23A3FB01634FF4A3429DF83F
S2240013A012601B0CC0F201024FF4616000FB06F002FB13139842BFF435AF00F51670834211
S2240013C02CBF002001202EE70A2003A935F0B2FA50E7BDF812200120254934F00BFB0BE757
S2240013E0244B01201A78244902F0400234F002FB0298DEE60120214934F0FCFA2DE701925A
S224001400BDF8103001201E492246009734F0F2FA14E701201B492246009634F0EBFABDF8FF
S224001420103070E7BDF81230BB427FF610AF002428E79DF812309F42BFF609AF002421E764
S22400144046F2590305A8CEF2ED232246042140F80C3D03AB35F02EF905A841F2EC3320F857
S224001460023D0221224603AB35F024F938E700BF24050400180000101405040088050400CC
S224001480600504003C05040040F2EC33C1F20003188D003018BF0120704700BF03B2022B6D
S2240014A010B51DD0022034F0FBF9042434F02CFB204631F0F5FF01340020142131F01CFF87
S2240014C0082CF3D10320002127F0D8FA0020022131F012FF34F018FB002031F0E1FFFEE730
S2240014E000216FF0030027F011FC00216A2027F00DFC00216E2027F009FC00216FF0050025
S22400150027F0BCFA00216B2027F000FC6920012127F0FCFBC6E700BF2DE9F04F8D4F4FF69F
S224001520FF7A3B8894B01AB2002ABFBF03F500639BB21AB23B80B2F5006FC1BFA3F50063F2
S2240015409BB21AB23B80013AD117490D52185205520D541A0023C0F2230A04F50844DFF88D
S22400156010B2DFF81092CDF800A0A4011293119398469A460099D9F800308C4288BF4FF428
S22400158008140225FD2208F101089C428DF84C208DF84D505FFA88F800F0AA80204601A9EE
S2240015A0402233F0DDFF9DF81C60294611AA12AB1B3613A88DF84D6035F07CF8294611AACC
S2240015C012AB644835F076F89DF84D1001A80239C9B211AA12AB35F06DF8BBF800000546B9
S2240015E060B39DF81C3003F119013F2914DC14AD6A1812F84C2CFF2A40F0938001AA1A3363
S224001600511804E04A780131FF2A40F08A801AB201333F2A9BB2F5DD0025BAF1000F14BFE7
S224001620002000F0010038B1B7F900209DF84D300120494934F0DEF9002D6FD13B88403477
S22400164001339BB21AB2B2F5006FC8BF414A3B80C4BFA3F5006313800AF1010AB8F10F0F77
S2240016601FFA8AFA86D146463C4B3D4A1B78106803EB43033B4A9B001370044610B133F0C7
S224001680E5FD044603200E2127F084FC129000285DD0119BDFF8E080C3F30741C3F3072774
S2240016A01A0E8170C2700370477098F80030129F0622027103F00F0305224271BB71002376
S2240016C0FB713846119733F001FE80B2030A38727B7298F80000119900F00F0041F0807120
S2240016E0BE72224627F064FC28B214B0BDE8F08F294611AA12AB13A834F0DCFF294611AA49
S22400170012AB144834F0D6FFBBF800303A8844F23445C1F20005D8072A800AD4464601258D
S224001720A2E70120104934F065F90025BBF8000073E701200D499DF84D3012B234F05AF929
S22400174044F2AA31C1F200010125088865E70125CAE700BF38440010C0050400C0430010BF
S22400176040440010BC43001090050400B0050400AA43001004440010E6430010CB1C13EAFD
S224001780210338BF0B469B10002B30B413DD0B4A0568126895420ED1002203E050F8044F9C
S2240017A0AC4202D101329A42F8D1C2EB82729000081830BC70470020FAE700BF00000010C7
S2240017C02DE9F041054683B00E4603201021174627F0E0FBEDB2044678B32B0943EA0515B9
S2240017E0062303710423437113234FF0000883710223C37180F8008080F8018080F80280B7
S22400180080F8038080F8088080F80980384633F01DFDEDB24FF0FF33074641462846012297
S2240018208DE8D00027F02AFC2A460120044934F0E1F8044B012283F82A2003B0BDE8F08146
S224001840D8050400EC0300102DE9F04F414FDFF80C813B688AB0D8F8002001203E4934F0C1
S224001860C9F83B68B3F5806F34BF99464FF48069B9F1000F65D0DFF8E8A04FF0000BB9F129
S224001880F00F34BF4D46F025ADB208AB022107AA6C1D09A86FF00106CDF820B0CDF81CB0FD
S2240018A08DF824608DF8254034F004FF0D2007A908AA8DF8250034F0B3FE2848042107AAB5
S2240018C008AB34F0F7FE15B344F2EC33C1F2000318682EB2102EA8BF1026B6B234B203A92F
S2240018E0224633F03DFE08ABF1B203A807AA34F0E1FE3B68D8F80000AD1B1B1B2018ADB260
S224001900C4EB09093B60C8F80000002DE1D144F2F636DAF80000C1F20006079D347833F067
S22400192095FC4FF08073019302900021204601224FF0FF33009527F0A1FBB9F1000F9ED12E
S2240019403B6823B9064B186808B133F04FFC0AB0BDE8F08FC8430010EC050400EC430010DE
S224001960D843001070B5052384B08DF8003003208A238DF8013031F09DFE02226946D620F6
S2240019803BF0EAF802240020012131F0B5FC002522466946D6208DF800408DF801503BF003
S2240019A0DBF82846012131F0A7FC01261F2322466946D6208DF801308DF800603BF0CCF8FB
S2240019C02846314631F098FC3623D620694622468DF800508DF801303BF0BEF8032031F052
S2240019E079FD04B070BD00BF2DE9F04F034690B0DBB203200B9331F05DFE0CAA0B234FF4FD
S224001A008071D6203BF0FEF8032031F063FD9DF83A309DF833C09DF832E09DF831709DF81C
S224001A2030609DF837509DF836409DF835809DF834909DF839A09DF838B040F20C620A931F
S224001A40F92027210B9BC0F204028DE800500297039604950594CDF81880CDF81C90CDF806
S224001A6020A0CDF824B028F0D1FB9DF838409DF831C09DF832E09DF833709DF834609DF8F4
S224001A8035509DF836809DF837909DF839A09DF83AB040F21C6104F004029DF83030012069
S224001AA0C0F204018DE80050029703960495CDF81480CDF818900794CDF820A0CDF824B05B
S224001AC033F098FF0121002031F016FC05238DF830300320BA238DF8313031F0EBFD0222B2
S224001AE00CA9D6203BF038F80020012131F004FC01240B2502220CA9D6208DF831508DF8C9
S224001B0030403BF029F80020214631F0F5FB00260CA90222B723D6208DF831308DF83060A2
S224001B203BF01AF83046214631F0E6FB0CAA2B464FF48071D6203BF065F8032031F0CAFCA1
S224001B409DF838009DF831B09DF832A09DF833909DF834809DF835C09DF836E09DF83770C4
S224001B609DF839609DF83A5040F25C6100F0040207909DF830302046C0F20401CDF800B010
S224001B80CDF804A0CDF80890CDF80C80CDF810C0CDF814E006970896099533F02BFF102085
S224001BA0062128F021FE10B0BDE8F08F2DE98048ABB03BF097FCBA4A002313805380DFF883
S224001BC0189344F2004044F2C23144F2C43244F2C83644F2EC3744F2D83AC1F20002C1F24D
S224001BE00001C1F200004FF41674C1F20006C1F20007C1F2000A0B801380037033603B6070
S224001C00CAF80030A9F82C4039F0CCF810A9044635F01CFE2020FEF711FE0A20FEF70EFE22
S224001C2046F6901EC1F2000EDEF8003001209D49224633F0DFFE109BB3F5FA6FC0F2B781D9
S224001C40994D6120294634F053FF03B20BB10020288033F097FC44F2D0360346924CC1F22E
S224001C600006012091491A46336033F0C3FE6420214634F03DFF002840F08F812B88002BF6
S224001C8040F07B81288844F2D03AC0F3431027F0E5FC0646288827F001FDC1F2000A02460F
S224001CA03146022039F012FBDAF800307E4C19785E789A7841EA0621DB7841EA024242EACB
S224001CC0036344F23A4EB3F1FF3F0CBF04230023C1F2000E472021468EF8003034F008FF74
S224001CE080B1DAF80030197858789A7841EA0021DB7841EA024242EA0363013300F03A81BA
S224001D000021218044F2D033C1F200031A682B8810785478917840EA0420D27840EA014177
S224001D2041EA02620120624933F064FE2B88002B42F0098244F201470024C1F2000708209F
S224001D405C493C7034F0D4FE28B144F2B83AC1F2000AAAF800405849584827F003FE04201A
S224001D60574934F0C5FE38B144F2E4304FF0000EC1F20000A0F800E044F2F03244F2364325
S224001D8044F2E7360024C1F20002C1F20003C1F2000607204B4914801C80347034F0A8FE4A
S224001DA030B144F20847C1F2000702233C8033700620454934F09CFE68B144F2324E44F203
S224001DC008404FF0000AC1F2000EC1F20000AEF800A0A0F800A044F23241C1F20001B1F974
S224001DE0003044F234444FF0FF32C1F20004B3F5006F228002DD344B00261E8044F2384749
S224001E0044F2444A44F2404E44F2E6300023C1F20007C1F2000AC1F2000EC1F200001A467B
S224001E203B808AF80030CEF800300370298844F2BC33C1F200031A70002942F06D817F20C9
S224001E4028A934F055FE98B9BDF8A0003DF0AAFB3CF06AFF1DA30CCB3DF0E6F80022C3F6AB
S224001E60F07200233CF002FE3DF096FA194C2060002027F065FB4FF48043C4F202039B6CAB
S224001E8044F2342623F07F43C1F200063360032027F07EFE2B880246002B40F0E6831DE01A
S224001EA0A0430010AC060400AA430010C0060400E4460400B84300102804040004440010EC
S224001EC0E44300100844001032440010006AF84000000000DC030010EC0300103E200DF1F8
S224001EE09A0134F005FE10B10027ADF89A70BDF89A306FF0090003F00F0319B2ADF89A305E
S224001F0026F0BCFD45200DF19A0134F0F1FD18B14FF0000AADF89AA0BDF89A2044F2F23E17
S224001F20D3B2C1F2000E19B28EF800206FF00400ADF89A3026F0A2FD4FF08043AA221A7204
S224001F4055221A72002028F06FFC83B21AB245F65410C1F20000002A038035DD1749012043
S224001F6033F048FD45F65411C1F20001B1F90000FFF794FAFF202080C4E6C3F3431027F0E9
S224001F806DFB0F4B0446188827F088FB0D4903462246012033F02EFD74E66120214634F01A
S224001FA0A7FD00283FF46AAE002727806AE648F2F060C3F66E0038F0FBFE41E63C070400A7
S224001FC0AA430010CC0604004FF48043C4F2020300225A643BF086FA002843F08F8403204C
S224001FE0012126F04BFD0820002126F047FD44F2B832C1F200021388002B03F07984DFF857
S22400200030834FF4FC71D8F8000034F051FED8F800301868002843F048842B88DF0702F1E2
S224002020F586D8F800309A694AB948F2F45149F64132C2F20601C0F26B5219635A6393F8FB
S2240020404020012062F07F0283F8402027F078FA5C20AA4934F04CFD44F2FA33C1F20003CE
S2240020601A8844F23E44120AC1F2000422700AB1531E2370A14C4120214634F039FD0028A6
S22400208042F0358023889E0642F133809C4F0A97387044F2B2360024C1F2000621466A20FF
S2240020A0A9F8284089F82E4089F82F4089F82A40348026F02BFE934B21461C606C2026F0F2
S2240020C025FE49200DF19E0134F012FD03B213B10327ADF89E705A208B4934F009FD18B900
S2240020E04FF0030AADF89EA0BDF89E00002100F0070026F08DFA4620834934F0F9FC38B170
S22400210044F2E8304FF0000EC1F20000A0F800E044F2E831C1F200010B886FF00500C3F344
S224002120C1235B00591CADF89E3026F0A7FC4FF0FF303AF08DFF45F654142B88C1F2000489
S224002140C0F38F022280DC0704F1B781DFF8E4B16E4E44F2082ED8F8003000274FF0FF3A51
S224002160C1F2000EAEF800A0ABF80070378044F2FC1E44F20A2793F84C40C1F20007C1F24E
S224002180000E93F84E20A7F800A00023AEF800A001205F49009433F02DFCBBF800305D4F53
S2240021A09C46D8F800A063460AEB0C0292F84CE0BEF1000F49D0BCF5D67F46D20CF14C0C1C
S2240021C00AEB0C046178FA2913D11AF80C30980744F068819B080AF80C3044F22820F92390
S2240021E06370C1F20000BBF800300268D21892F84CE0A27801204849CDF814C0CDF800E05D
S22400220033F0F8FBA378DDF814C01E2B00F03282322B00F00983142B18BF1AF80CC000F035
S224002220BF82BBF800300CF1010C03EB8C0CD8F800A01FFA8CFCABF800C00AEB0C0292F8E4
S2240022404CE06346BEF1000FB5D101204FF4D673BBF80020314933F0CDFB2B88DB0704F1F1
S224002260138144F2FA3744F20A2AC1F20007C1F2000A3A88BAF900300120294933F0BAFB6D
S2240022803B88284E9F0504D5B6F90030013304F0CE8044F2FC11C1F20001B1F90030322209
S2240022A001201F4933F0A6FB44F2FC12C1F20002B2F90030013304F082801B4A00231380B3
S2240022C044F2B83E194AC1F2000E44F228401380C1F200000222BEF80010042402702122FE
S2240022E0C9F80430C9F80030A9F83020A9F83240A9F83440002944F045801DE0FA4300106E
S224002300EB430010A4430010E84300103C4400108807040004420010C0070400E407040015
S224002320080804000A420010DC4300103044001028420010A84300102888002844F006806E
S224002340642130F0D9FF00239AB20DF1AC0A013344F220404FF0000E0AEB4201C1F20000D6
S224002360042B20F812E021F840ECEDD144F2EA3444F2CC36FF23C1F20004C1F200060722D5
S224002380442027A923703370ADF8A02034F0B0FB002801F0A6862427ADF89C70BDF89C30D8
S2240023A0642244F2082A02FB03F3C1F2000ABAF800A044F2102EC1F2000EAEF800A0042089
S2240023C00721ADF89C3031F077F80B202121002231F028F914210A461B23AC4831F042F8EC
S2240023E0052348200DF19E0189F8543034F080FB002802F0AB834FF05B0EADF89EE0BDF83F
S2240024009E300A2202FB03F345200DF19A01ADF89E3034F06DFB10B10020ADF89A009DF818
S2240024209A306FF0040019B2ADF89A3026F026FB2B88DC0703F1848744F2FC3144F2F832A1
S22400244044F22A4444F2D43644F22C4744F2F43A0023C1F20001C1F20002C1F20004C1F290
S2240024600006C1F20007C1F2000A0B601380238033803B80AAF80030FFF774FA844A0421A2
S224002480844B49F2843002EB010EC1F20000CEEB0303121A804C814E93FBF1F392FBF1F163
S2240024A009940C960D930E917D4831F04BF91B2800F058822128F7D10B201FA930F02AFF15
S2240024C02B88D80700F17C851F9C002C00F0818514F0007608BF374640F06E8620463946CF
S2240024E026F04AFF2B8884B2DF070BD51F9B6D4A13F0007F6C4B6D4908BF1346E2B2012094
S22400250033F078FA04F00F03012B00F26C841F9F052227F04F4322A81DA90797229332F07A
S224002520E9FE04F0010405280B9440F015859DF87530002B40F010854FF4A344C0F2010415
S2240025408DF8AA309A460F9437469DF878305A1E8DF87820002B75D0022222A826A932F0F6
S224002560C9FE0228044640F0F6849DF89830122B01F0558100F2DA810C2B00F202840B2BDE
S224002580C0F0B7840020322130F0B6FE9DF89920002122A832F0AEFE0320092126F0FAFCA4
S2240025A02090002880D00023037043708370C370209E06233371042326A97371B01D0B231F
S2240025C022468DF898308DF899403DF01DFD602025A934F08DFA002801F08A824FF0030E2E
S2240025E0ADF894E003219DF87420BDF89430100903F0070340EA021201F007010220ADF8E3
S22400260094308DF8AA008DF8AB20337271721FB1384632F01BFE8246209B079C9DF8AA20DC
S22400262000939DF8AB004FF0FF3300210194CDF808A026F023FD9DF878305A1E8DF8782026
S224002640002B89D1B9F828303E463BB144F2B237C1F200073B8843F004033B802298002804
S22400266000F0C68332F0C2FDC2E30120104933F0C1F933E444F20A2EC1F2000EBEF9003012
S224002680013317D0BBF800C08BE500BF2404001084950010DCFF001004440010DC030010E5
S2240026A038040400A8060400A0060400D40A04003007040044F20820C1F20000B0F9002082
S2240026C0DFF89CA2511C00F02081A38844F20C2EADF85C30B4F806C0D8F800000434C1F2E9
S2240026E0000ECEF8004002F14C01ADF85EC010F801E002F154040EF1010241189200001984
S2240027000693CDF814C03DF088FCBAF80010D8F800000AB24C3282183C68101D049044F2D0
S2240027200A200834C1F2000001803C6001F1080E44F20C240499C1F20004AAF800E0216099
S224002740069B9380DDF814C0A2F806C044F20A20C1F20000B0F90030D8F800204C33D11873
S2240027601E2088700220C870D05C44F20C24012808BF3088C1F2000404BF40F00800308028
S22400278001200431D054216012F803C0BBF80030844403EB8C0C1FFA8CFCABF800C000E552
S2240027A044F20821C1F20001B1F9003001337FF469AFBBF80030318898B202B2DFF8A0E176
S2240027C0082A41F0010189B2AEF8000008BF6248318004BF41F0020101803C601AF80C104A
S2240027E03E2901BF318841F0040131801AF80C10013103EB8103B3F5D67F9CBF1FFA83FC4B
S224002800ABF800C07FF6CDAC0120544933F0F2F844F20823C1F200034FF0FF321A80002353
S2240028203B60BBF800C0BCE444F2FC1AC1F2000ABAF9003001337FF425AF44F2082EC1F25F
S224002840000EBEF900A0464BBAF1FF3F66D044F2002EC1F2000E0434CEF800402146102262
S22400286017A806933DF0D0FBD8F800000AF14C01425C0AF1600A01324118920050443DF009
S224002880CCFB069B3868198800F1140AD8F800E0C7F800A00CB244F2FC1A4C34C1F2000A25
S2240028A00EEB040201F1140CAAF800101E219170A3F800C004210123D1700EF8043044F2BB
S2240028C0002E101DC1F2000ECEF8000017A910223DF09AFB44F2FC12C1F20002B2F9003089
S2240028E0D8F800204C33D118042044F2002A0C184FF0320EC1F2000A81F802E0C870D054E0
S224002900CAF8004012F803C08BE4BBF800A044F20A2EC1F2000EAEF800A017E7BBF80000FB
S22400292044F2FC11C1F200010880D3E71A2B00F24682192B80F06182142B00F08884C0F0D8
S2240029406E84182B00F0BA869DF8992022A8002132F0D0FCF9E500BF3C440010D0070400DE
S224002960084200104FF48044C4F20204236D002B40F0FA8244F2B04AC1F2000ABAF90030FE
S2240029800022B3F5967F89F82A2000F3018344F2C83EC1F2000EDEF80030002B40F003832D
S2240029A099F85430013BDBB289F85430002B7FF47BAD2B88C14A05211B0782F8541001F193
S2240029C0098044F2FC30C1F200000268BDF8A03001320260002B4AD044F2EE11C1F20001A2
S2240029E00B784FF08042AA2111725521012B117219D944F2B834C1F2000422889AB144F2E5
S224002A000146C1F200063278AD4C092A0BD8013BAC4AFA20192127F0F9FB23780122013375
S224002A202370A94B1A702B881F0701F1FB81BDF8A040013CA4B2ADF8A040C4B90727ADF83C
S224002A40A070A246652744F220400DF16C0EC1F200003EF804C0235A9C4501F0F6801BA8AA
S224002A60035302340137082C0AF1010AEBD1B9F8283013B1914A013B138544F2F031C1F211
S224002A800001B1F90030914C012B00F3A383002BC1F23D8244F2444AC1F2000A9AF8003054
S224002AA063B344F2E63EC1F2000E9EF80030082B01F0098344F2BC30C1F200000378013BDE
S224002AC0DBB20370D3B944F2C031C1F200010A88013292B213B2052B0A8001F3D982012B87
S224002AE006DD44F23844C1F2000422880F3A22802A88D60703F11684FEF70EFD002026F09D
S224002B00FFFF0446032027F043F82B880646180700F11981002C00F01E81032030F0CAFD85
S224002B20012308210DF1A902D6203AF06BF8032030F0D0FCD8F8003093F94030002BC0F22F
S224002B40678444F65431C1F20001B1F90030002BC0F22D8444F2D4320021C1F20002112067
S224002B60118025F0FFFD002800F006819DF8A920530706D444F2F837C1F200073B88013367
S224002B803B802B881F0700F12B87112025F0EAFD002800F0928440F252339E4240F25486FB
S224002BA09DF8A97017F0040740F04E8644F22A4EC1F2000EBEF80020531C12B29BB2B2F5E0
S224002BC0617FAEF8003081F2D9830A2B03F0968340F21807C1F200073B783D4F580640F151
S224002BE0428640F2523305209E4240F2B88330F061FDD8F8003005209A6801329A6030F0ED
S224002C0069FCBDF89C3093B9BDF89E309E4224BF4FF0040EA9F832E009D2B9F8322032B172
S224002C20013A264992B24A86002A03F05C836D2025F098FD002800F04183052030F03AFD46
S224002C40D8F8003093F840209C8722F07F0242F07E0283F84020052030F03CFC682025F027
S224002C6081FD0446002800F04A834FF4167EA9F82CE0722025F076FD68B944F22941C1F290
S224002C8000010B783BB144F66A32C1F20002138843F4006313800A9C44F229462378C1F2D3
S224002CA000063070002B40F0FC86B9F8301001F00303032B00F0C8860CE000BFEC0300108E
S224002CC001440010D00A0400EE410010F04300101800001001F01F031F2B2BD041B14B1E5F
S224002CE09BB2A9F830301BB9B04B4FF434741C8644F2F23644F654370520C1F20006C1F271
S224002D00000744F23E4A30F0D5FCC1F2000A31783A889AF800304A4042FA03F3DC0704D596
S224002D20D8F80030DA6A0132DA62052030F0D2FBFFF7BABB2B881E0701F10C83FEF7B2F965
S224002D40B9F83010CAE708209949324632F052FE002C7FF4E2AE052030F0ACFCD8F80030BC
S224002D60012283F84020052030F0B4FB44F2F430C1F200000480D0E61120012125F07EFE31
S224002D80F4E60E2B00F0C684C0F084830F2B7FF4DBAD9DF899200E2A00F0AC87002122A861
S224002DA032F0A8FA9DF8993098423FF4CEAB229832F01CFA384632F019FAFFF775BBFD2B73
S224002DC000F04384FE2B00F0CD83202B7FF4BCAD01239DF8992089F82F3022A8002132F048
S224002DE089FAFFF7B2BB1F9820F04F4032F0FEF9304632F0FBF9FFF757BB9DF89960012E28
S224002E0041F27A86012B40F061854FF0000E0020022EADF8A2E0324600F069859DF89830C1
S224002E20012B03D0B21ED2B28DF8992000B2031C18BF01237F28CCBF002303F00103194685
S224002E40002B00F08F86022A07D0002122A832F051FA9DF899309842A9D129A99DF8A20027
S224002E6033F046FE022222A825A932F043FA02289DD1BDF8A20003B27E2B3FF766AB9DF8A2
S224002E809830BDF8A440192B02BFBDF894302343ADF8A4300ED01A2B02BFBDF8943024EA04
S224002EA00303ADF8A43005D0022B04BFBDF89460ADF8A460BDF9A410C0B233F0D5FDBDF8F1
S224002EC0A4300120BDF9A2203A4932F093FDBDF9A230452B03F0EF813E2B03F0E281462BC0
S224002EE003F0C781472B04BFBDF8A4602E80FFF72CBB022B81D0032B00F0FE82012B7FF45E
S224002F0023AD0B9C002C3FF41FAD9DF89960002E7FF475AF2B88CBB91FB1384632F096F981
S224002F20824600209DF87440FDF70EFE24091034079E00900421204601224FF0FF330196FF
S224002F40CDF808A026F09AF8FFF7FFBA01201A4932F050FDE0E73E46229832F047F93046D8
S224002F6032F044F9FFF7A0BA226D0120134932F041FD44F2B04A00232365C1F2000ABAF9E6
S224002F8000300022B3F5967F89F82A207FF7FFAC04F030FD44F2C83EC1F2000EDEF800300D
S224002FA0002B3FF4FDACFEF74FFCF9E4EC030010300704007C0C04006C0C0400CC0D0400C9
S224002FC00120B3491F9A32F015FD1F9C002C7FF47FAA99F82F30002B42F0B3820A9F3B7881
S224002FE0002B42F0A6822B88002B42F09C82002303201F9326F0CCFD2B888046190702F1B6
S2240030008B824FF48043C4F2020344F6543A9A6CC1F2000A9AF8001002F07F420A434CF66E
S224003020CD46DFF88C929A64CCF6CC464FF08044AA2702E099F8003003BB00200A2130F011
S2240030405BF91F9BA6FB03E2D20802EB8202B3EB420F02D15522277222720133B3F5167FB5
S2240030601F93E7D92B88DA0702F1EE8144F2B830C1F200000388002B42F0DE81012004F0B6
S22400308019FD32F005FC4FF48043C4F202035A6C06468049012032F0ADFC00216FF00600E4
S2240030A025F0ECFC2B88344613F0010308BF1F4642F0B98101216FF0010025F027FEA6F1EF
S2240030C00A03DBB244F2BE320021C1F20002012B118042F28A81704C4620214633F008FDA8
S2240030E00146002801F04085002323806920012125F00CFE44F2E834C1F2000421786FF015
S224003100030025F003FE2A884FF08043AA21197255211972D30758BFDFF8989102F15281CF
S22400312044F2E83AC1F2000ABAF8003013F4005401F0F587C3F3C123590001316FF0050042
S22400314025F09CFC6B20012125F0E0FD2B88DC0702F1298132F09CFB0F28064604464FFA1C
S22400316080FB0FD84FF0010A0AFA0BF248F2A01313403BB16C20514625F0C8FD2B88002B96
S22400318042F00B81DFF830A14A20514633F0B0FC002801F0F7840020AAF8000000222B88C9
S2240031A023B101203D49334632F024FC6E20002125F0ACFD01F0F3BC24F04F4738461FA9D7
S2240031C026F020FC1F9B04F04F441C433E461F94FFF784B9002028F023FD0028FFF65AAC33
S2240031E02F49012032F006FC0220FDF7ADFC44F24042C1F200020746106832F027F84FF09C
S224003200FF33064600971820042101224FF080770197029625F032FF012323803AE49DF8EE
S22400322099200026042AADF8A26004D999F82E30D80740F1A98799F82E300120194932F035
S224003240D9FB99F82A30C3B19DF89920A6E59DF899200120144932F0CDFB9DF89920002633
S224003260022AADF8A26001F0058001200F4932F0C1FB99F82A30002BE6D1079C3A469DF824
S224003280740004F04F41FEF79BFA9DF8992085E56408040094080400E84300102409040073
S2240032A01C0E0400280D0400400D0400B80D0400E4030010E8030010BE430010052030F040
S2240032C0F9F940F20402C1F200029189D8F80030A1429C879B4A80F0A98393F84020052059
S2240032E022F07F0242F0650283F8402030F0F2F8682025F037FA044600287FF4B6AC44F26D
S224003300B83601209049C1F2000632F073FB33882BB1B9F82C30B3F5167F02F0698444F281
S224003320FA37C1F200073B88D90540F18185B9F82C30013B9BB2A9F82C30002B00F078851A
S224003340B3F5157F7FF495AC44F66A3AC1F2000ABAF8003043F02003AAF8003089E430F046
S224003360A9F9D8F800300520DA680132DA6030F0B1F8BDF89C30002B3FF459AC9C4280F0D7
S2240033805D85B9F83420002A3FF451AC013A6F4992B28A86002A7FF44AAC01206C492246CF
S2240033A032F028FB0A20062127F01EFA3FE444F2F433C1F200031A882B88013244F2F43724
S2240033C092B2C1F20007D9073A8004D512B20120604932F00FFB44F2F43AC1F2000ABAF9E9
S2240033E00030B3F5616F13DD052030F063F9D8F80030052093F8402062F07F0283F84020D1
S22400340030F068F8FA202721534A052326F0FEFE44F6543EC1F2000EBEF8003040F645728E
S224003420DB0B94428CBF002303F00103002B3FF491ABB4F57A7F7FF68DAB9DF8A92012F01D
S224003440300F7FF487AB44F2D430C1F200000288424B002A40F0AA8444F22C41C1F20001A0
S22400346001220C801A8044F2D43EC1F2000EBEF900305A2B7FF47AAB1120012125F0FEFA91
S224003480354AFA2027210B2326F0C0FE9DF8A920FFF76EBB9DF89960002E00F0D484042E91
S2240034A022A800F0A5850021324631F023FF9DF8993098423FF449A879E444F22A42C1F239
S2240034C00002138801339BB2282B13807FF480AB0121112025F0D2FA9DF8A920012002F0A0
S2240034E004021F4932F086FAFA2027211A4A012326F08CFEFFF76CBB0B9C9DF89920002CEF
S22400350040F05585012A40F24785032A22A80DF1A20100F03485022231F0ECFE02287FF466
S22400352046ACBDF8A2301AB2FF2A00F003857F2A3FF40BA8D8B221A90023219333F0FAF9D0
S224003540FFF703B804000010140F0400EC030010040F0400600E0400D00A0400D4430010ED
S224003560980E04009DF89910002900F045820DF1AA01012222A831F0BDFE9DF899302A88FC
S224003580013B8DF899309DF87430190941EA03138DF8AB30002A40F040829DF8AA600C2EAB
S2240035A001F0438500F2AC82052E01F04B8401F23780022E02F06B8400F21287002E41F095
S2240035C0A982FE2421AB022120AA8DF8984026A80724219620968DF8994033F06BF820A970
S2240035E021AA30468DF8AA6033F01AF844F2EA31C1F20001087821AA20A933F011F8022159
S22400360020AA21ABA94833F055F844F2CC32C1F20002107820A921AA33F002F88DF8AA60FD
S22400362046F2EC43C1F20003985D20A921AA32F0F7FF9DF8AA600136F6B2012E8DF8AA608B
S224003640EED9002F40F0B281B4E19DF89930032B7EF47BAF01220DF1AB0122A831F04AFE4F
S224003660224622A80DF1A20131F044FEBDF8A2309DF89920033A1C0442BF03F50063ADF8DC
S224003680A2309BB28DF899201AB2B2F5006FC4BFA3F50063ADF8A2309DF8AB30042B3EF61E
S2240036A054AF01A656F823F0655D00005F5D00004B5C00004B250000015C00009DF89920BA
S2240036C022A8002131F016FE0B9C002C3EF43DAF1FB1384631F0BAFD82469DF8746029F064
S2240036E089FB3609103604463046079E4FF0FF330421012200940196CDF808A025F0BEFC37
S2240037002B88002B3EF421AF0120694932F072F9FEF71BBF4F2029A933F0EAF918B14FF046
S2240037203C0EADF8A4E09DF89920082A7FF436ABBDF8A43059053FF531AB2B88DB0703D5D9
S22400374001205C4932F056F9042222A823A931F0D1FD042804467FF42AAB37F023FB239BC1
S22400376023A9C31AB3F5967F22A8224680F0FF8531F0C0FD04287FF41AAB239837F018FB81
S22400378040F21800C1F20000037840F2180243F04003C1F2000203200B21137025F0FAFB59
S2240037A0209000283EF480AE0024047044708470C4709DF87430209E1A0942EA03135FFAA3
S2240037C083FE06233371022373710D23B371F4717046012221464FF0FF3300964FF0807658
S2240037E08DF8ABE00196029425F048FC239A4FF46A5302F57C3202F59062C0F20903B2FB78
S224003800F3F319B2092033F02FF92B88DE077EF59CAE0120284932F0EDF8FEF796BE9DF8B2
S22400382099300024012BADF8A24000F045830120224932F0DFF899F82A30002B3FF41DAD93
S2240038409DF89920FFF7AABA40F21807C1F200073B7844F22A410020C1F2000108805806A2
S224003860174F3FF5BEA944F2FC3AC1F2000A0820DAF80020134932F0BDF8DAF800300A2B95
S2240038807FF6AFA937F08EFA46F24073C4F6A33398427FF7A6A93B78082043F040033B7091
S2240038A0094932F0A7F8FFF79CB900BF124D0010540C0400B80C0400C80C0400F40C04006F
S2240038C018000010A80E0400CC0E0400022222A80DF1A20131F00EFD02287FF468AA9DF824
S2240038E09960BDF8A200022E32467FF497AAA0F180039BB25F2B40F26E8303200A2125F0A6
S22400390049FB209000283EF4CFAD00232190037043708370C370BDF8A220209811B206249C
S2240039207F290471437142F33980DF29D8BF089302F324800023219300283EF406AE31F0EA
S224003940C5FC9DF874300246190941EA0313032002218DF8AA208DF8AB3025F01BFB2190EC
S22400396000283EF4A1AD209BC3F307241A0EC3F30741C270037044708170219B06221A711F
S22400398004225A7102229A719DF8AA20089C02322093DA7114B1FF26ADF8A26003F1080040
S2240039A00DF1A20102223CF02FFB1FB1384631F04DFC8246209B079C9DF8AB0000930194A1
S2240039C0002101224FF0FF33CDF808A025F056FBFEF7BBBD0820BE4932F00CF8FEF7F1BFF3
S2240039E044F2F83AC1F2000ABAF900300120B94932F000F8FFF7C9B80A4622A88DF8AA10AD
S224003A0031F078FC9DF874302A88190941EA03138DF8AB30002A3FF4C0AD9DF8AA209DF8A0
S224003A2099300120AC4931F0E5FFB6E5D189A14280F05F8293F8402022F07F0242F0510271
S224003A4083F84020FFF707B944F22840C1F200000378022B01D0FCF709FF2B881F0700F141
S224003A6073844FF0FF3039F0F3FA45F65411C1F200010A88C0F38F0411B220B2461A03366C
S224003A80964B062E9CBF1C80B9F830107FF622A9884240F3538404321A80B9F83010FFF759
S224003AA019B903F059FEC20440F1C08042F21003034000F00C02002B01F05080042A0CBF41
S224003AC006220522DDF828A09AF8003093423FF4ECA840F2284EC0F2040E81490EEBC203A3
S224003AE00A70002059699A6937F026F9FFF7DDB8BDF89410CBB2ADF89430090AFEF773BD1A
S224003B001E2E01F0C58200F22486112E00F0678700F281860D2E01F06F870E2E7EF415ADD8
S224003B2002244FF0000C21AB4FF0FE0E214620AA26A8CDF884C0CDF880C08DF898E0CDF829
S224003B4014C08DF8994032F0B5FD20A921AA30468DF8996032F064FD214620AA21AB6148A9
S224003B6001F0C6BADF2839DD042A07D022A831F0C1FB9DF8993098427FF419A9042222A8A9
S224003B8024A931F0B7FB04287FF411A9BDF8A230FF2B0CD144F23A4EC1F2000E9EF8002064
S224003BA0032A04D99DF89820022A01F00A87D8B223A932F087FF9DF89830192B01F02482C5
S224003BC01A2B01F02B82022B04BF249B23939DF8A200239932F026FFFEF7B7BC209321938F
S224003BE08DF8AA308AB9EBE120AA9DF8AB0021A932F016FD9DF8AA309DF899200133DBB2CB
S224003C009A428DF8AA3040F2DB81012222A80DF1AB0131F06FFB0128E6D021983E4631F077
S224003C20E5FA229831F0E2FAFFF7E2B844F2EA37C1F200073B789B0700F1D88100F00C02AB
S224003C40042A0CBF022201223CE7002239462648ADF8A020CDF814C036F0D8FC01202FF0B5
S224003C60E7FB002032212FF047FB44F22043C1F20003E65ADDF814C05346BDF8A020012022
S224003C801A49009644F2B836CDF804C0C1F2000631F0B0FE002032212FF02EFB33882BB19F
S224003CA0FA200321124A3B4626F0B0FA0FFA8AF6012E01F057860120092126F095FD44F275
S224003CC0204EC1F2000E34F80E30FEF7C8BE00BFE80D0400740E04002C0B04005459001095
S224003CE0EB4300104C690010F80D0400000E0400D00A04000320072125F04CF92090002846
S224003D003EF4D2AB0024047044708470C470209B0E220626991D1E715A7122A831F0EAFA85
S224003D200E287FF444A82046012131F005FD2190002801F01386209BC0F30741020EC0F362
S224003D4007249970DA7018705C70209831F0BEFA9DF874300246190941EA031303200821CB
S224003D608DF8AA208DF8AB3025F014F9219000283EF49AAB209B1A0EC3F30724C3F307415B
S224003D80C270037044708170219B02225A7110221E719A719DF8AA202093DA7101238DF857
S224003DA0AA30002F7EF434ACFEF736BC013292B211B2B1F5E16F1A800ADB44F22C47C1F2B1
S224003DC00007B7F9003004F132029A42C1F2B58544F2D43AC1F2000ABAF900303C2B7FF447
S224003DE042AB03202FF066FC012308210DF1A902D62038F007FF03202FF06CFB9DF8A9200C
S224003E0002F03003D3F1010138BF0021302B14BF0B4641F00103002B41F09485BB490B80E2
S224003E20FEF7A6BE0820BA4931F0E4FDFEF7FFBD0B20032126F0D8FCFEF71BBF0420A9F879
S224003E403400FEF7F4BE3146092032F00DFE2096219636F0A7FF042120AA21AB064624A8A9
S224003E60249632F027FC209831F030FA03468DF8AA300320092304218DF8AB3025F08AF828
S224003E80219000283EF410AB209B1A0EC3F30726C3F30741C270037046708170219B062263
S224003EA01A710D225C719A719DF8AA202093DA71002F7FF47BAD7DE599F82E6016F00106B6
S224003EC07FF4B5AC1A4622A80DF1AB01ADF8A2308DF8AB4031F00EFA9DF8AB20012818BFC5
S224003EE0ADF8A260BA2A00F04E820026ADF8A2609DE4118AA14280F0308593F8402022F084
S224003F007F0242F03D0283F84020FEF7A4BE44F23646C1F20006338801339BB21AB2962A45
S224003F2033807EF7B7AD00272780662027F0FCFDFEF7B0BD9DF89920022A08D0002122A8ED
S224003F4031F0D8F99DF8993098427EF430AF022222A80DF1A20131F0CDF902287EF427AFF9
S224003F60BDF9A22045F2AA539A427EF4EEAA2B88D80701F1DC8432F079FEFEF7E6BA012275
S224003F800026ADF8A26031F0B5F99DF89930013B8DF89930FFF7C5BA002122A831F0AAF974
S224003FA09DF8992090423FF4B0AAFEF700BF22A8002131F09FF90020FCF7A0FEFEF7C5BAD2
S224003FC0BDF8A230002B00F02787D8B221A932F0B1FCFEF7BABAC0B232F066FD044620900F
S224003FE0002801F0978400260896A3E4072269E523A9324631F07EF904287EF4D8AE0023A3
S2240040002093219336F0CEFE0421044620AA21AB23A8249432F04EFB042120AA21AB24A8C8
S22400402032F048FB209831F051F99DF874300246190941EA0313032006218DF8AA208DF8F1
S224004040AB3024F0A7FF219000283EF42DAA209B1A0EC3F30724C3F30741C27003704470C9
S2240040608170219B06221A7102225A710E229A719DF8AA202093DA711FB1384631F0E6F807
S2240040808246209B079E9DF8AB000093019697E42B88DC0701F1388444F2404744F2444A49
S2240040A044F2E63E0024C1F20007C1F2000EC1F2000A38688AF800408EF8004031F096F86E
S2240040C03C60FEF71BBD002027F0BEFD00287EF4F1AC012027F0B8FD00283EF40FADFEF751
S2240040E0E9BC9DF89C30ADF89C30FEF757B90E262680084C0123237000204FF0FF314FF488
S224004100FA720A9436F018FEFDF7C3BFD4430010F00D0400EB430010A44C44F2324723684E
S224004120C1F20007B7F9001044F2B836C1F20006A3F5081332889B09009101209C4931F05A
S22400414059FCFDF77CBE0A20FCF778FB0A20FCF775FBFCF7D5F846F690169649C1F2000680
S2240041604FF440443768C4F20F040E88D4F880310246914901200097019631F03BFC00230C
S224004180C4F88031FDF7D6BD042222A823A931F0B1F8042801F07E83BDF9A200012818BF2A
S2240041A09DF899207FF447A8239A002312F4F87F89F82F3008D12B88D90705D59DF8AA3058
S2240041C07E4931F017FC239AD9F85800904214D09DF8AA2022A8002131F08CF80023239A74
S2240041E08DF8AA30D9F8583093423CBF744B9A65F020A9F82800FEF7A8B99DF8AA305BB9C2
S224004200F0E70C791C190C719DF8AA10CB1ADBB28DF8AA30002BE5D0229A54791179A34293
S22400422028BF234651181A468DF8AB3031F06CFB22999DF8AB304C79239AE41A9818E4B287
S224004240024623904C71002CDBD108784C788A78CB7840EA042040EA024242EA03630120D1
S22400426021932FF087F8219B2398229302469DF8AB30C9E729A922A831F03CF8022804BF75
S2240042804FF0010EADF8A2E0BDF8A4200120BDF9A2304C4931F0AEFBBDF9A260012E18BF65
S2240042A09DF899207EF4E1AF142100202FF024F831F070FB030A43EA002084B2D9F858E0F4
S2240042C0BDF8A420304623463F49ADF8A640CDF800E031F08FFB44F2B230C1F200000288C9
S2240042E0BDF8A43042F0040202802BB9BDF8A6300133ADF8A4309BB2BDF8A62093427EF44B
S22400430024A9002078212EF0F7FF99F82F2001202E4931F06FFB99F82F3053B9284B01206B
S22400432083F82E002A4931F065FB0420022126F05BFA0021A9F82810FEF707B9043AB9F88B
S22400434030101A80FEF7C6BC0820224931F052FBFFF787BB40F21803C1F200031A78012018
S22400436002F040021C4931F045FBFEF7E7BC30F0C1FF04283EF4E9A8FEF719BD0220FDF7F6
S22400438033FBFEF725BCBDF9A240012C01F07082002C3FF44CAA2B88DC077EF5D6A801206F
S2240043A00E4931F027FBFEF7D0B800BF0444001014070400AA430010E0060400140D04009F
S2240043C0EC030010540D04006C0D0400880D0400980D0400200F0400300F0400080D040026
S2240043E0032E01F01482042E7EF4AFA8002321932093FE238DF898307F4801238DF89930D4
S2240044003BF05CFE841CE4B27C488DF899403BF055FE431CE418E4B279488DF899403BF001
S2240044204DFE431CE418E4B276488DF899403BF045FE431CE418E4B273488DF899403BF07C
S2240044403DFE00F1250221AB0221A41826A820AA8DF8994032F02EF920A921AA30468DF88B
S224004460996032F0DDF864483BF028FE21ABC1B220AA614832F01EF920A921AAA72032F0E2
S224004480CFF85E483BF01AFE21ABC1B220AA5B4832F010F920A921AAA72032F0C1F85848BA
S2240044A03BF00CFE21ABC1B220AA554832F002F920A921AAA72032F0B3F852483BF0FEFD17
S2240044C021ABC1B220AA4F4832F0F4F8A72020A921AA32F0A5F82B88590708D54A483BF062
S2240044E0EDFD4A490346484A082031F083FA46483BF0E4FD21ABC1B220AA434832F0DAF877
S22400450020A921AAA72032F08BF844F6044EC1F2000EBEF9CC40BEF9CA20A7233C4910A8DE
S224004520009436F059F810A83BF0C8FD20AAC1B221AB10A832F0BEF844F60440C1F20000F9
S224004540B0F9C030A722334910A836F045F810A83BF0B4FD20AAC1B221AB10A832F0AAF844
S22400456044F60441C1F20001B1F9D030A7222A4910A836F031F810A83BF0A0FD20AA21AB00
S224004580C1B210A832F096F817A803212AF000F8179BA722214910A836F01EF810A83BF08A
S2240045A08DFD20AAC1B221AB10A832F083F8189BA7221A4910A836F00FF810A83BF07EFDEC
S2240045C020AAC1B221AB10A832F074F8199BA722124910A836F000F810A83BF06FFD20AAC0
S2240045E0C1B221AB10A832F065F820A921AA002032F016F800F0F5BC444C0010044C0010BB
S224004600244C0010A44C0010644C0010700B0400800B04008C0B0400840B0400940B040076
S224004620092E01F0C48000F22D81062E01F07480082E7DF48AAF4FF0FE0E21AB0024022112
S22400464020AA8DF898E026A84FF0120E8DF899E02194209432F02EF820A921AA30468DF823
S224004660AA6031F0DDFF04224FF4D01023A930F077FF239B20AA013308BF239421AB042158
S22400468023A832F017F804200422C0F21A0023A930F066FF239B5A1C01F03A80A3F5D01358
S2240046A0803B2393042121AB20AA23A832F002F810200422C0F21A0024A930F051FF249BC4
S2240046C05E1C01F02180A3F5D013239A823B9B1A2493042121AB20AA24A831F0EBFF0820AE
S2240046E0C0F21A00042223A930F03AFF239BD8B203F47F03B3F5981F8DF8AA0080F0EE876A
S224004700142800F0EB8720AA042121AB23A831F0D1FF002020A921AA8DF8AA0031F080FFFC
S2240047201FB1384630F092FD8246209B079C9DF8AB000093002101224FF0FF330194CDF86F
S22400474008A024F09BFC0020012112F055FFFDF7FCBECD2E00F08C8700F20E81642E00F0BA
S2240047601C877F2E7DF4F1AE9DF89920022A08D0002122A830F0BEFD9DF8993098427EF412
S22400478016AB022222A80DF1A20130F0B3FD02287EF40DABBDF8A24026B230463AF006FF8C
S2240047A03AF0C2FA92A30CCB3AF03EFC0022C3F6F07200233AF05AF93AF0EEFDDDF830E0C7
S2240047C0CEF800009DF8AA00002C00F08187314632F04AF9002421942094FE2421AB022131
S2240047E020AA8DF8984026A803248DF8994031F061FF20A921AA9DF8AA0031F011FF0DF1B7
S224004800A200022120AA21AB31F054FF002F7FF4CDA8FFF7CFB8142E00F055811D2E7DF46C
S22400482094AE03202EF046FF17AA4FF480710B23D62038F0E7F903202EF04CFE4FF0FE0EB4
S22400484021AB002420AA02218DF898E026A84FF00D0E8DF899E02194209431F02BFF20A9D6
S22400486021AA30468DF8996031F0DAFE21AB0B2117A820AA31F01EFFD8F8003020A993F868
S22400488040304FE00A2E00F062860B2E7DF45DAE4FF0FE0E21AB002420AA02218DF898E08A
S2240048A026A84FF0060E8DF899E02194209431F001FF21AA20A930468DF8996031F0B0FEF3
S2240048C02146012015F0C8F921AA034620A98DF8993031F0A5FE0121084615F0BDF921AAA0
S2240048E0034620A98DF8993031F09AFE0221012015F0B2F921AA034620A98DF8993031F05A
S2240049008FFE0321012015F0A7F921AA034620A98DF8993031F084FE0421012015F09CF96D
S22400492020A9034621AA18468DF8993031F078FE209B38469DF8AB60069330F087FC069B9C
S22400494007990093019102902146304601224FF0FF3324F093FBFDF7F8BD528AA24293F8F4
S224004960402022F07F0234BF42F0290242F0010283F84020FEF76FB9FA2E00F07986FE2E7F
S2240049807DF4E3AD44F2444601201B49C1F2000631F030F834788CB944F2404E44F2E631C8
S2240049A0C1F2000EC1F20001DEF800000C7030F01DFC44F24042C1F20002146044F2F034B7
S2240049C0C1F20004B4F90030002B40F0C48544F2F0320021C1F200021180FDF7B6BD002351
S2240049E021932093ADF8A230FE244FF0060C0CE0006AF84000000000400C040001339BB202
S224004A001AB23F2AADF8A2303EDC21AB022120AA26A88DF899C0CDF814C08DF8984031F04F
S224004A2049FE20A921AA11208DF8996031F0F8FD20A921AA9DF8A20031F0F2FDBDF9A2009E
S224004A4046F62C0EC1F2000E04210EEB800020AA21AB31F02FFEBDF9A22046F62C0EC1F2F7
S224004A60000E5EF822308020444930F0C3FFBDF8A23046F62C001AB2C1F2000050F8222074
S224004A80DDF814C0002AB9D1BDF9A2203C490132802030F0AFFF209B38469DF8A2409DF8D1
S224004AA0AB60069330F0D2FB069B0134E4B200934FF08073019302900021304622464FF0CB
S224004AC0FF3324F0DBFA44F2B831C1F200010B88002B3DF43AAD099C44F232462368C1F27C
S224004AE00006A3F50813C3F38F1319B23380062031F0BAFFFDF729BD3246002122A830F0C5
S224004B00F9FB9DF89960B0427EF451A99DF89830FEF778B9012E7DF418AD9DF89930002B3F
S224004B203DF413AD22A80DF1AA01324630F0E2FB1FB1384630F08AFB82469DF8AA109DF8F8
S224004B40AB0052462AF08EFFFDF7FFBCBDF89E3023F47E43ADF89E30FDF751BC042A0CBFEF
S224004B6004220322FEF7AEBFB4F90030002BBEF6BDAA692024F0CAF8FEF7BCBAF80B04008F
S224004B80080C0400BAF8002090073EF408AB2B88002B40F0BA846E20012124F0B7F84FF0AC
S224004BA08042AA21002311725521117218468DF8A93024F0A5FF0F2E079040F20B83DDF8E7
S224004BC01CA0BAF5616F10D840F25233984502D901238DF8A9309DF8A93001200093C14990
S224004BE0424640F2523330F005FF1220002124F08DF840F2040EC1F2000E9EF800304BB19A
S224004C009DF8A9A01220BAF1000F00F05984012123F034FF4FF080464FF0AA0E86F808E02E
S224004C204FF0550E0120234686F808E0AE493A4630F0E0FEB9F80010062038F001FD2B88A8
S224004C4007F10109D907A94E00F126844FF48043C4F202035A6C0120A54944F2342730F094
S224004C60C9FEC1F200070023102C3B6040F268822B88D90704D501209E49224630F0BAFEE4
S224004C8044F2E83AC1F2000ABAF800309A0400F16E832B887BB14FF48043C4F202036FF099
S224004CA003009E6C23F05EFD26F07F4203469249012030F09FFE4FF4804344F2E830C4F291
S224004CC00203C1F200009E6C03886FF003001E4023F048FD44F2E831C1F200010B88034091
S224004CE05E40B6B2002E40F0DB82032024F050FF40F2523398452A8894BF002701279842A6
S224004D0094BF002601262AB101207C493A46334630F070FEB7421EBF44F2342AC1F2000A7F
S224004D20DAF8003044F2BE3E18BF43F00103C1F2000E18BFCAF80030BEF800309B0740F0EA
S224004D405D82032024F024FF40F2523398452A8894BF4FF000084FF00108984294BF00269A
S224004D600126002A40F04382B04508D03EB144F23422C1F20002136843F0010313600020A6
S224004D804FF4804601464FF4FA72C4F2020635F0D3FF736C13F0010040F0CC8144F6543735
S224004DA0B36CC1F200073A7803F07F431343B36496212EF0A1FA012025F036FD2B8800288D
S224004DC000F04F83DF0706D5B26C012022F07F424B4930F00FFE00200A212EF08DFA2B88D5
S224004DE0DA0700F137830020014638F02BF82B88DB0700F1F7814FF48043C4F202035B6CEA
S224004E0030F082FE00202EF04BFBFEE701203D4930F0F0FDFDF705B9184621A920AADDF857
S224004E2084A02093219324F01BFF2B881BB10120354930F0DFFD2198514601222BF044FECA
S224004E40FDF783BB40F22544C0F2040424784FF0030E0EFB04FE089400240EF1070E0221D8
S224004E6020AA21AB2194209426A8FE248DF899E08DF8984031F01EFC304620A921AA8DF819
S224004E80996031F0CDFB4FF0010E0426ADF8A2E0BDF9A230089CA34252DC40F20C41C0F21C
S224004EA00401C85C21AA20A931F0BAFBBDF9A22040F24433C0F2040303EB021293685168CA
S224004EC093FBF6F40022002C27DD40F20000C1F200000268D1F800E096454FF0000219D006
S224004EE01BE000BF380904004C090400E803001094080400D4090400F0090400380A040096
S224004F00600A04006C0704009C0C040051F8040F704502D10132A242F8D16FF0030101FBD8
S224004F20023229A89C1A022121AB20AAADF8A44031F0C0FBBDF8A2300133ADF8A230A7E7D3
S224004F40C82020A921AA31F06BFB0D9E002E61DDDFF848E340F20000C1F20000DEF8001065
S224004F600368994256D1AEF10402002303E004325068814203D10D9C0133A342F7D19B006A
S224004F800221ADF8A43020AA21AB29A831F092FBC92020A921AA31F043FB0E9E002E3BDD8D
S224004FA049F2843E40F20000C1F2000EC1F20000DEF8002003689A422ED1AE4B002403E00D
S224004FC053F8041F8A4203D10E9E0134B442F7D1A40020AA21AB022129A8ADF8A44031F047
S224004FE069FB3846209E9DF8AB4030F02FF90096079E02900021204601224FF0FF330196C5
S22400500024F03CF8FDF7A1BA239A249B13432393FEF7DDBD0023B2E70024D9E7239B249AC1
S22400502023EA02032393FEF7D2BD45F62612C1F2000292F800E0002421942094FE240EF1DF
S224005040020E21AB022120AA8DF8984026A845F626148DF899E0C1F2000431F02BFB20A91D
S22400506021AA30468DF8996031F0DAFA237820A9184621AA8DF8993031F0D2FA21880029DD
S224005080AFD0C9B220AA21AB7B4831F013FBA8E79DF89940022C7DF48AAE224629A922A8B1
S2240050A030F028F92146FE244FF0000C21AB20AA8DF8984026A80524CDF884C0CDF880C0DE
S2240050C0CDF814C08DF8994031F0F4FA20A921AA30468DF8996031F0A3FABDF8A40045F6EB
S2240050E05C13C1F2000303EB800020AA21AB042131F0E0FA3846209E9DF8AB4030F0A6F8E8
S224005100DDF814C00096079E02906146204601224FF0FF33019623F0B1FFFDF716BA2146EE
S2240051206FF0050023F0AAFC6B20214623F0EEFDFEF70CB8726C0120504930F05BFC4EE661
S224005140012063B200FA03F342F2120260F31F4213420FD02B88D90703D54949224630F06F
S22400516049FC4FF48043C4F202035A6C42F001025A64E6E51A0521D52B88DA0703D5414995
S224005180224630F037FC682023F0ECFA00283FF4D8AD0D200E2125F027FB4FF48043C4F29F
S2240051A002035A6C42F001025A642B88DB077FF5C8AD0120344930F01DFCC2E55B057FF55C
S2240051C057AD2B88DF077FF5BCAD3049224630F011FCB6E5012303FA0BFB1BF4134F7FF49C
S2240051E0F3ACECE401202A4930F004FC03E6012028494246334630F0FDFBB5E501200DF13A
S224005200AA012EF087F807281FBF44F23420C1F20000036843F0020318BF036003E02B8884
S224005220002B40F09F8001200DF1AA012EF072F80728F4D10DF1AA0105202EF06BF807282B
S2240052401FBF44F23421C1F200010B6843F0020318BF0B6005200DF1AA012EF05BF80728D1
S2240052603FF46FAD2B88002BF4D001200A4930F0C1FBEFE784930010645100109C0A04007C
S224005280880904009C090400B0090400C0090400C40A0400380A0400540A0400889500109A
S2240052A045200DF19A0131F023FC10B10022ADF89A20BDF89A304FF480421B0A44F2E8376B
S2240052C0ADF89A30C4F20202C1F200073988906CF6B2084018403140084212D044F2342AB0
S2240052E0C1F2000ADAF80000298840F00400CAF8000031B1926C01201340C549324630F079
S22400530079FB4FF48043C4F20203986C44F2E83EBDF89A20C1F2000EBEF8001020F07F402E
S224005320104321EA0000314008423FF4DEAC44F23421C1F20001086844F23427298840F071
S2240053400400C1F20007386000293FF4CEAC9B6C012023F07F431343DB43AE49324630F01C
S22400536049FBC2E40120AC4930F044FB5BE76FF0070023F0F7F900283FF48BAC44F2342EF4
S224005380C1F2000EDEF80030012043F00403CEF80030A24930F02EFB7BE45046A04930F0BE
S2240053A029FBFDF7EFBE44F2E83EC1F2000E9EF800303A4601209B490096013730F01AFBB8
S2240053C0FDF7C8BE984BDFF8A4921B783A4601209649009630F00EFBB9F8002001209449BD
S2240053E030F008FB0137FDF79BBE00216FF0030023F08CFC00216A2023F088FC00216E20F1
S22400540023F084FC6FF00500002123F037FB00216B2023F07BFC6920012123F077FCDFF8EC
S2240054204C92FFF7F7BB012082490022334630F0E1FA0127FDF73EBEFA2003217E4AC82356
S22400544024F0E4FEFDF71ABE01207C4930F0D2FAFDF70CBE01207A494A46234630F0CAFA34
S224005460C1E4D80709D40D200E2125F0BDF930F04BFB00202EF014F8FEE70120714930F00F
S224005480B9FA714B1B88D907EDD501206F494A46234630F0AFFAE6E74A46234601206C491C
S2240054A030F0A8FA32880120614930F0A3FA023772880120674930F09DFAB946FFF7C6BBB2
S2240054C0514623F0DBFA331F18BF0123012E0CBF002303F00103002B3FF49CABB6F10D038B
S2240054E018BF0123102E0CBF002603F00106002E3FF490AB079EB6F5616F7FF68BAB1120EB
S224005500514623F0BBFAFFF785BB01205249334630F070FAFFF73FBB08205049424630F0D9
S22400552069FAFDF76EBD01204D4930F063FAFDF75EBD00204FF05531642235F0FDFBFDF725
S22400554052BD0420022125F04FF9FDF747BD29F005F8FCF7FABF44F2E436C1F20006B6F921
S2240055600010042031F080FA012026F059FB00283FF42DAA3B4BB3F90030002BBFF627AA87
S224005580662026F0D1FA44F236404FF0000EC1F20000A0F800E0FFF71ABA9DF89920022A37
S2240055A07DF405AC44F23A4EC1F2000E9EF80030002B3CF4CAAF29A922A82FF09BFE052032
S2240055C02EF078F8BDF8A410D8F8004008B200220B46ABF800102018114605E0841801339B
S2240055E084F84C109BB201321CB240F2AB16B442F4DD0520ADF8A2302DF06CFFBBF80020CF
S224005600012019494FF4D67330F0F4F9FCF79DBF080A0400200A0400440A0400E009040097
S22400562000090400E8080400E8430010BC080400D4080400A8080400D00A04008008040063
S224005640B00A04006C0A0400AA430010880A04006009040074090400100904003007040034
S22400566070080400F04300101C0C0400E803001044F23A4EC1F2000E9EF800302BB9FA2EEE
S2240056800CBF052600268EF800600026022421AB214620AA2196209626A8FE268DF89860DE
S2240056A08DF8994031F006F820A921AA9DF8AA0030F0B6FF44F23A41C1F20001087821AA10
S2240056C020A930F0ADFF002F7EF470A9FEF772B921A9219431F02EF9FFF77CB820A921AAD1
S2240056E030F09EFFE22023A931F0ECF9C3B28DF8AA300BB10023239323A8042120AA21AB25
S22400570030F0D8FFFFF70CB800232493FEF7E1BF00232393FEF7C6BF9DF89930FF228DF80D
S224005720AA202BB122A80DF1AA0101222FF0E2FD9DF8AA00002625A921AA01280CBF022016
S22400574030462596219624F08BFAFE2325988DF898302FF0BBFD21AB441C20AA022126A8DA
S2240057608DF899402096219630F0A4FF062321AA20A918468DF8993030F052FF2599209846
S2240057802FF04AFD209B38469DF8AB4006932FF05DFD069B079900930191029031462046FE
S2240057A001224FF0FF3323F069FCFCF7CEBEC1483AF084FCC04902464FF4806030F01AF9FF
S2240057C04FF0000CFE23BB48CDF884C0CDF880C0CDF814C08DF898303AF070FC21AB441C9F
S2240057E020AA022126A88DF8994030F063FF20A921AA30468DF8996030F012FFAD483AF031
S2240058005DFC411CC9B220AA21ABAA4870E40023219320932FF086FF0446ADF8A640FE2451
S22400582021AB022120AA8DF8984026A805248DF8994030F03FFF20A921AA9DF8AA0030F0A7
S224005840EFFE022120AA21AB0DF1A60030F032FF30F0A0F80221ADF8A60020AA0DF1A60014
S22400586021AB30F027FF002F7EF407ACFEF709BC20460026234691498DE8500030F0BAF89D
S22400588089F82F6030F02EF8BDF9A240C9F85860FEF77EBD9DF899304FF0010E043BADF8DC
S2240058A0A2E08DF8AA30FEF777BC2FF0C7FF2B880446DA0705D5027981498218012030F01D
S2240058C099F820462FF092FCD8F8003098692FF0B5FF2B880446DB0705D5027979498218BB
S2240058E0012030F087F820462FF080FCFCF799BB7549764824F036F8FCF781BB6FF003004C
S22400590022F030FFFCF76BBB0120714930F072F8FEF7C2BB21940DF1A200314620AA21ABEF
S2240059200124089430F0C6FE2098FEF703B80120684930F05FF8FEF71EBB0C20FCF754F8D3
S224005940FEF746BA1120002123F098F8FA202721614A0A2324F05AFCFDF785BD3E46209842
S224005960FEF75DB9642022F0FDFE00283EF4A3A90620314623F082F8FEF79DB9D0B223A91D
S22400598031F0A0F880B20890C0B923A8042120AA21AB30F08FFE2098FDF7CCBFD0B229A948
S2240059A031F0A6F880B2089040B929A8314620AA21AB30F07FFE2098FDF7BCBF0DF1A2001E
S2240059C0F4E7249B17A8179331F0DEF844F2D030249AC1F200000368110EC2F30724C2F302
S2240059E007409870D9701A705C7001203B49249A30F000F8FCF7A9BD9DF89930072B7CF6DE
S224005A00A4AD0422364922A82FF074FC0422354922A82FF06FFC44F2EC3E44F2C830C1F2F9
S224005A200000C1F2000E0168DEF80020A1F10A04B2F5001F34BF00230123604240EB0400D0
S224005A4000910190284901202FF0D4FF3FB138462FF0FCFB44F2D831C1F20001086044F286
S224005A60EC32C1F2000214681D4E631C3ED04FF6FF73C0F21F039C4209D944F2C83EC1F2A0
S224005A80000EDEF800C0BCF10A0F00F097809DF8AB3044F2EC3044F2F63124F00F04C1F297
S224005AA00000C1F2000104600B70FBF7CDFEFCF74CBD00BF704500109C0B0400D80C04007E
S224005AC0480704005C07040028040400044400104C0E0400A80C0400D00A0400900C0400EB
S224005AE0EC430010C8430010B00B040000243460052021942094FE262DF0DCFD4FF0DB0C02
S224005B00ADF8A440022121AB20AA26A88DF899C0CDF814C0C64C8DF8986030F0CBFD0D2352
S224005B2020A921AA18468DF8993030F079FD204644F2EC340421C1F2000420AA21AB30F03C
S224005B40B9FD2368D8F800204C33D018D62120AA21AB30F0AFFDBDF8A43022680133D63200
S224005B609BB22260012BADF8A430DDF814C0C9D905202DF0AFFC44F2D831209EC1F20001C3
S224005B80D1F800E002224FF0FF3300969DF8AB0000214FF080760196CDF808E023F06EFAD7
S224005BA00023236044F2C83244F2D834C1F20002C1F2000413602360FCF7C7BCA4F58014C3
S224005BC09C424FF0010E94BF0023012370462246984934608DE800502FF00CFF306800F1EF
S224005BE00A012FF01DFD944B00221A60FCF7ADBCFA202121914A234624F008FBFDF78FBB90
S224005C0007202DF057FD4FF6FF71C0F223014FF408102FF005FD44F23246099C44F2444EC5
S224005C200023C1F2000E4FF40811C1F20006216033808EF80030062021A9219330F07AFE40
S224005C4007202DF047FCFCF780BC2B88DA070BD544F23240C1F20000B0F90020BDF9A23069
S224005C60012077492FF0C6FEBDF8A230002B6BD044F23241C1F200010B8044F2324EC1F21D
S224005C80000E0620BEF9001030F0EEFE44F23440C1F20000BDF9A240B0F900309C4232D04A
S224005CA02B88DB070CD544F23843C1F20003B3F900200120234663492FF09CFEBDF9A240AF
S224005CC044F23846C1F20006B6F90030A3427CF43CAC44F2404E44F2444144F2E632002445
S224005CE0C1F2000EC1F20001C1F20002DEF800000C7014702FF07AFA44F24043C1F200039D
S224005D001C60FCF722BC35F04DF844F2E7360F9CC1F20006337890FBF4F144F2084E89B22E
S224005D20C1F2000E022BAEF8001003D009B2072030F09AFE44F234414FF0FF30C1F2000180
S224005D40BDF9A2400880ABE7099C44F232462368C1F20006A3F508139B0933808DE7BDF9C1
S224005D60A2409DE7BDF8A230002B6FD044F2384EC1F2000EAEF8003044F2404EC1F2000EEF
S224005D80DEF800002FF032FA2B8844F240400022C1F20000D90702600ED5099C44F2384621
S224005DA02368C1F20006A3F50813B6F900209B09012025492FF01EFE099C44F238462268C7
S224005DC0C1F20006B6F90030A2F50812B3EB921F24D047B138462FF039FA44F2404EC1F2F3
S224005DE0000ECEF800009DF8742044F2E6301209C1F2000044F2BC3144F2C03444F244467A
S224005E0001230270C1F200010022C1F20004C1F200060B7022803370FCF797BB44F2444ED4
S224005E200023C1F2000E8EF80030FCF78EBB00BFEC430010D40B0400C8430010D00A0400AD
S224005E40FC0A0400140B0400E80A040044F23240C1F20000028810045EBF44F23841C1F2A2
S224005E6000010A8088D5099C44F238462268C1F20006A2F50812520A0132D20092B211B280
S224005E80B1F5006F3280C4BFB64A138074E79DF89920002321932093002A3CF456AB01226F
S224005EA022A825A92FF026FA9DF89400FE238DF89830042316288DF8993000F0178100F242
S224005EC0F9800A2800F0988000F2868003285AD04DD801283DD02CD944F68234C1F20004B6
S224005EE02378ADF8A43021AB022120AA26A830F0E1FB20A921AA9DF8AA0030F091FB9DF8F2
S224005F00940020A921AA30F08BFB9DF89930062B07D029A8022120AA21AB30F0CBFBFDF7E4
S224005F2090BB23A8042120AA21AB30F0C3FBFDF788BB44F2C436C1F20006368844F2C430A5
S224005F404FF0000EC1F20000ADF8A460A0F800E0C9E744F2C231C1F20001098844F2C233D2
S224005F600022C1F20003ADF8A4101A80BBE7052828D018D306280ED0FF238DF89430002206
S224005F80ADF8A420AFE744F21526C1F200063378ADF8A430A7E744F29C11C1F200010B7807
S224005FA0ADF8A4309FE746F6901EC1F2000EDEF8002044F24023C0F20F03B2FBF3F3ADF8A7
S224005FC0A43090E744F2FC30C1F20000036806228DF89920239386E7102835D025D80C28FA
S224005FE01AD011D30E28C7D1099C2368A3F508139B09ADF8A43076E744F2EE14C1F20004B4
S2240060002378ADF8A4306EE744F2F416C1F200063688ADF8A46066E744F2F21EC1F2000E5E
S224006020BEF800E0ADF8A4E05DE7122837D02AD313281AD015289FD145F28D24C1F20004A9
S2240060402378ADF8A4304EE744F28846C1F20006298833680622CE068DF8992023937FF585
S22400606042AF41492FF0C6FC3DE744F2F830C1F20000008844F2F8320021C1F20002ADF827
S224006080A40011802FE744F2004EC1F2000E9EF80030ADF8A43000238EF8003023E7002029
S2240060A023F02EFD40F61C43984227D90420FBF79BFC18E7632804BF4FF4D676ADF8A460FC
S2240060C03FF411AF54D81A2802BFD8F8003093F83F30ADF8A4303FF406AF29D818281FD00E
S2240060E015D923F0A3FCADF8A400FCE645F2A826C1F200063378ADF8A430F4E6002023F0E1
S224006100FFFC1A49024601202FF074FCEBE645F2DC2EC1F2000E9EF80530ADF8A430E2E645
S22400612044F67C50C1F200000088ADF8A400DAE61C2800F09480C0F08D801D282FD062283D
S2240061407FF41AAF44F2B43144F23124C1F20001C1F200040A78237843EA0223ADF8A43005
S224006160C1E600BF38440010400B0400580B0400672846D035D865282BD025D944F20A21D9
S224006180C1F20001B1F90030D8F800205C1C3FF4F6AE4C33D35C9B00ADF8A430A3E60520BD
S2240061A02DF088FAD8F80030052093F8402062F07F0283F840202DF08DF9FA202721C24A6C
S2240061C0052324F023F88EE6BBF800E0ADF8A4E089E644F20A20C1F200000088ADF8A400E0
S2240061E081E669282BD01CD36A2812D06B287FF4C3AE44F2FC14C1F200042488ADF8A4409B
S22400620071E644F20826C1F200063688ADF8A46069E644F21023C1F200031B88ADF8A43014
S22400622061E644F2082EC1F2000EBEF90030D8F80020581CADD10020ADF8A40053E644F640
S224006240DC71C1F200014A780B7843EA0223ADF8A43048E629F0F2FCADF8A40043E64AF245
S224006260CC00CFF6FF7001212FF006FDADF8A40039E6BDF8A4305C4014F4C05F3CF465A9E3
S224006280C3F3C12244F2E8345200C1F20004511C23806FF00500ADF8A42022F0EFFBFCF739
S2240062A054B9BDF8A4106FF0090001F00F0122F0E5FBFCF74AB944F23E4EC1F2000E9EF8F9
S2240062C00030012202FA03F3BDF8A41044F2F2300B40C1F200000370C9B26FF0040022F052
S2240062E0CDFBFCF732B90120784932462FF082FB0220052124F078FAFCF799BC3946112037
S22400630022F0BCFB9DF8A920012002F0040270492FF070FBFA2027216B4A3B4623F076FFD5
S224006320FCF756BC44F23846C1F20006B6F9002001200093674900232FF05CFBFCF7DCBB90
S224006340012065492FF056FBFCF776B844F2D037C1F200073B6819785A789878DC7841EA4C
S224006360022343EA004343EA0463009301205B495B4A5C4B2FF03EFB002064212CF0BCFF77
S224006380FBF7E1BF44F2D036C1F20006326856210091107851789478D67840EA012242EAAB
S2240063A0044242EA06620293642301920393FA2001214D4A032323F029FFFBF7BDBFBBF864
S2240063C000104A4EB1F5CC7FBBF477AFD8F80020474801F14C03D41801804FF0040EF821B3
S2240063E044F2002A02F803E004EB0E076170C1F2000A3221A17084F803E0CAF80070D35CA5
S224006400328801339B00DBB29B18002110223380384639F01FFEDAF80010A278338801200C
S2240064200191344900942FF0E5FAFBF746BFBBF80000D8F8001000F14C03CA183080012435
S224006440F920CC5444F20C2E50701E209070171D0220C1F2000ED070CEF80070CB5CBBF829
S22400646000101B1903FA00F3DBB25B18967800209BB29080D080ABF8003020461E493246F0
S2240064802FF0B8FAFBF705BF44F20826174BC1F20006B6F900201B88012018492FF0AAFA3A
S2240064A0FBF7DFBE002382F84C302278A378012013492FF09FFAFBF7C8BE12B2012011498E
S2240064C02FF098FAFBF742BED00A0400F40E0400880E0400300E0400580804004C08040098
S2240064E018420010104C040044080400A8430010FC4100102C0804001C080400F8070400D2
S224006500980704007C0704004FF6FF7100B5C0F233014FF410102FF083F844F288404FF4BE
S2240065201011C1F2000044F20862C1F20002016044F62C230020C1F200031060E320196081
S2240065405DF804EB30F06EBA2DE9F047314B0F461B889146DB071FFA80FA54D499F8016083
S22400656099F8002004E00136F6B2042E88BF0026964246D006EB460307EB83039B885345A8
S224006580F1D199F80230013B89F80230002E33D0751EDFF88880EDB2344698F8013004EB16
S2240065A04400A34214D005EB450107EB810107EB80000C2239F028FD631EBCB1DCB26B1E2C
S2240065C0C5B1DDB298F8013004EB4400A342EAD199F8013099F800200133DBB2042B89F839
S2240065E00130C0D9002389F80130BCE704246B1E002DE6D10425D0E704253446DFF81C80C9
S224006600CBE7BDE8F0870120034952462FF0F2F9A4E700BFAA430010E410040048040010FD
S22400662070B50DB204462A46013D08490220661CADB22FF0DFF9751901E0344601360820E6
S22400664021462DF01BF8AE42F7D170BDF01004002DE9F0411C461B78154603EB430387B2B1
S2240066604FEA83088EB234F09DFB45F808002378174A03EB430305EB83039F802378B7F504
S2240066807A7F03EB430305EB8303DE80237838BF127903EB430328BF527905EB83031A72EF
S2240066A0237803EB430305EB83051EB1094B1B6893F82F606E7223780133DBB2042B2370D0
S2240066C001D900232370A3780133A370BDE8F08148040010404B00102DE9F04181B00446F4
S2240066E00FFA81F823F06EFD002860D13E4E3F4D3388DB0645D42B68A3F51012B2F5801FDC
S2240067004FD232883A4FD00658D4B8F1000F07D01FFA88F84FEA182384F8328084F8333065
S2240067208022214628682EF03DFF237A627A43EA0222510416D428684FF6FE738030C0F2B0
S2240067403303984288BF294B286084BF4FF4101018603B6898423DD0C305DB0D4BB101B0DC
S224006760BDE8F0814BF6FF7313401A0A23726272E1E700F5FE71033101B0BDE8F0412EF066
S2240067804FBF1B4F1B4B39681A6810202B68009119492FF02FF92B68A3F51012B2F5801F63
S2240067A0AFD3052001B0BDE8F0412FF06DBD1349012001B0BDE8F0412FF01CB939680D4A6D
