S017000042696E732F4D333033362E434255472E73726563EA
S224000000DCFF001001010000E9000000ED000000F1000000F5000000F90000000000000039
S22400002000000000000000000000000041040000FD00000000000000110400000D8D0300C7
S224000040F58C030031B2030099010000C5AC03009901000095910300919203009193030013
S22400006095940300990100001DAA030059AB0300990100009901000099010000990100007C
S22400008099010000E18C0300990100009901000099010000990100009901000099010000B5
S2240000A099010000FDA1030099010000990100009901000099010000990100009901000064
S2240000C0990100009901000099010000999503009901000099010000D5B3030099010000C3
S2240000E099010000D50A0000FEE700BF00BE7047FEE700BFFEE700BFFEE700BFFEE700BFD9
S2240001001B4B1C4900B58B4206D21B4A52F8040B43F8040B8B42F9D3204821494FF0000201
S2240001208842B8BF40F8042BFFF6FAAF1D4880F30988124B124A186812499342086005D263
S2240001401149096843F8041B9342FBD30F4B0BB100E000BF0E4B13B100E000BFFEE70D4B24
S22400016013B100E000BFF9E700F0BAF9F6E700BF00000010040300104D5F04006891001018
S224000180DCFF00106459001000000010000000000000000000000000FEE700000403001096
S2240001A0746700106893001000000000000000000000000000000000000000000000000044
S2240001C000000000000000000000000000000000000000000000000000000000000000001A
S2240001E00000000000000000000000000000000000000000000000000000000000000000FA
S2240002000000000000000000000000000000000000000000000000000000000000000000D9
S2240002200000000000000000000000000000000000000000000000000000000000000000B9
S224000240000000000000000000000000000000000000000000000000000000000000000099
S224000260000000000000000000000000000000000000000000000000000000000000000079
S224000280000000000000000000000000000000000000000000000000000000000000000059
S2240002A0000000000000000000000000000000000000000000000000000000000000000039
S2240002C0000000000000000000000000000000000000000000000000000000000000000019
S2240002E000000000000000000000000000000000000000000000000000000000F1F1F1F135
S22400030000B58AB00AA8362340F8283D41F6F1736846C1F6FF7305A9984706980AB000BD2D
S22400032010B44FF44043C4F20F034FF40242C3F8C420D3F8A02142F02002C3F8A021D3F819
S224000340A0114FF440424906C4F20F02F7D54FF4D853C0F2B70301219842C2F80C1138D982
S22400036046F23A0414604FF460630924C2F88440C0F22773C2F88010AA21C2F88C10B3FB78
S224000380F0F05521C2F88C10002829D0A0422DD14EF2C0123A244FF48470C0F2E4024FF429
S2240003A040431A49C4F20F030A60C3F804011A461C60D2F888305B05FBD54FF44043C4F256
S2240003C00F030422C3F8A8210122C3F8002110BC7047C2F804113A2111600C4A1360ECE7A3
S2240003E045F23A0440F201101A46D8E793FBF0F24CF66B23511EC6F65F33A3FB0143DC0D59
S224000400240340F4807044F03A04C8E77467001072B6EFF3088020E9F00F2C4981F308886D
S2240004204FF000014DF804ED62B632F0DDF872B65DF804EBB0E8F00F80F3088862B670475D
S22400044072B6EFF3088020E9F00F204981F308884DF804ED62B632F0FBF872B65DF804EBC1
S224000460B0E8F00F80F3088862B6704700B533F0F5F872B6164880F30888A0F580601549ED
S224000480154AA2EB0101A0EB01001249134AA2EB010300EB0302014640F0010000F002F842
S2240004A0FEE700BF074C084D00B5AC42034605D254F8040BAC4241F8040BF9D31046984796
S2240004C0FEE700BFACE30300B4E5030068930010DCFF0010ACE30300B4E50300B4E5030085
S2240004E0BC4ABD4B80B51A6038F012FDBB4900230B80BB4901220B80BA49BB4C0A70BB4917
S2240005004FF460600A70BA4922700B70B949C0F227700B70B8490B70FFF702FF002038F0C8
S22400052007FD31F0C7F84FF48043C4F202035A6CD00704D45B6C13F47F0F40F0A18048F2B5
S224000540FF424FF08043C0F21E025A6003221A70AA221A7255221A723BF0AAF83AF08AFE3E
S2240005603AF0DEFB3AF0CEF92378002B40F08180052034F087FF02204FF41651002239F0A5
S2240005808FF801204FF4E121002239F089F8002002464FF4165139F083F8042042F6A001EA
S2240005A0002239F07DF833F055F8944DEF1D6E1C15F8018F4046B8F1000F08D031F018F9AA
S2240005C006EB08131B7D0A2B4ED0BD42F0D10120032131F0BBF98A4B01221A701A785AB126
S2240005E04FF44042C4F20F024FF47061C2F8C01030BF18780028F9D1002525703AF05EF920
S2240006003AF0EEF93AF0EEFB39F024FD01203BF07DF838F06BFD4FF44043C4F20F03D3F8BD
S224000620C4104FF48043C4F2020348F260021965C2F209024FF00071D1614FF080431C78CF
S22400064048F2800204F001041C70AA21C4F202024FF0FF30552419721C72D060D0621972E2
S2240006601D7232F0FBFFFEE74046022131F07AF8ABE7002039F0E6FD012039F0E3FD77E763
S2240006803BF016F83AF0F6FD3AF04AFB3AF03AF9052034F0F7FE32F0DDFF64244FF47A7042
S2240006A038F0B2FC013CF9D13AF09AF93AF09AFB3AF010FE39F0CEFC01203BF027F838F01E
S2240006C015FD022028F06CFB4FF480424FF44043C4F20F030121C4F20202D4641465C3F887
S2240006E004113A211960D3F8A810C9050BD5AA21C3F8A040C3F8AC105521C3F8AC10D36CD2
S22400070043F00203D3644FF44042C4F20F02D2F8A8104FF4404311F48071C4F20F03F6D10C
S224000720D3F88820D2050FD5C3F88010AA21C3F88C104FF480425521C4F20202C3F88C108D
S224000740D36C43F00103D3644FF44042C4F20F02D2F888404FF4404314F48074C4F20F033F
S224000760F6D14CF2B010C4F20F0048F26001C3F80C41C2F20901C3F8A04104604FF00070DA
S224000780C8614FF40241C3F8C4104FF46D421D21C3F8C010CEF20002136943F0040313616F
S2240007A030BF32F05BFF4FF48042C4F20202516C4FF0804341F001015164FF215960032166
S2240007C01970AA2255211A7219721A721C7232F045FFFEE7786700104041001046410010B6
S2240007E074420010C8420010C442001044410010CC4200102C41001049410010B3E5030099
S2240008004841001000B581B001A941F8040D0220694631F07DF9009801B000BD00B581B00C
S22400082001200DF1030131F057F99DF8030001B000BD00BF2DE9F04FA54C85B02378FF2B1A
S22400084000F08E800020694601AA27F04FFB2378064643B1009A019B9E4D0132013385E8EA
S2240008600C000021217002A9E52034F06DFB03A90446E62034F068FB012802D0012C40F09E
S2240008808580954C41F6FF7322889A429DE80C0000F09C80DFF858B2BBF800100D0762D4B3
S2240008A08C4D1EB92968914200F00381218885E80C00DFF82882002940F08C804FF6FF79E6
S2240008C001274FF4C016854DC0F2180932E095F804A029684FEA0A6A287BDDF800C04AEA40
S2240008E0112AA9680006CCEB0A0CBCF1000FB8BFCCF1000C40EA11201136844517D295F8F7
S22400090008A069684FEA0A6A287CDDF804C04AEA112AE9680006CCEB0A0CBCF1000FB8BFA9
S224000920CCF1000C40EA11208445C0F09F804E4597B20BD011226949304633F05BF898F8DE
S22400094000307A1C991DC9B20429C0D9BBF800301B0700F1A0800023238005B0BDE8F08F20
S22400096001232370F9E708205D4933F08DFABBF80030180740F1A880564D082095E80C00B4
S224000980574933F081FA9DE80C008AE704A9E72034F0DAFA049911B942F210710491009A1B
S2240009A0029B9B1A002BB8BF5B428B42019B06DA0398C01A0028B8BF404288427FDB464C0C
S2240009C041F6FF71208888427FF464AF0021218001265FE7C904C90C0139DFF8008101EB24
S2240009E0011101F5C0101122414633F003F898F800300633DBB2042B3FF660AF98F8042095
S224000A00D8F80000120642EA102098F80C30009AD8F808101B06821A002AB8BF524243EA20
S224000A2011239A42BFF44AAF98F80820D8F80400120642EA102098F81030019AD8F80C109E
S224000A401B06821A002AB8BF524243EA11239A42BFF434AFBBF8003019077FF57EAF1E4BBF
S224000A6008201A881F4933F00FFA76E7FE2B18BFC3F1FE0327801EBF47EA4337164B1F80D2
S224000A80BBF800301A077FF568AF22880820164933F0FAF961E74FF2F103A6F5C016CFF2CC
S224000AA0F003A3FB062308201A09104933F0ECF951E70849496899427FF4F8AE4DE7064B18
S224000AC041F6FF71198048E79DE80C00014DE8E6404300100C030010484300102443001031
S224000AE0FCE6030008E7030018E7030028E70300C242001044F24013C1F200031B6800220E
S224000B009A80DA809A60DA601A615A61704700BFF0B5C5B2002383B0022D0193009300F0C4
S224000B20BE8002238DF808301E238DF8093002216A4601AB02A834F007F838F01DFB5B4B5F
S224000B405B4C1B78A060013BDBB2022B88BF594B4FF0030E89BF1B686FF0090318785E7889
S224000B6081BF9978DA7840EA062343EA0143504E88BF43EA026384F810E005F001074FF0EA
S224000B80510E6A46E3600B2101AB84F811E006F10800A77433F0D8FF052030F0D5FF464BFB
S224000BA01B68DA88002A4CD09988B1FBF2F23275986848F68902C8F68802A2FB0010616925
S224000BC0400960F317216161D868E169A2FB0062C2F34F12100A2076E2751869A26901F057
S224000BE07F4160F31722A261187D0022E0765E69022D41EA1621E1612D4884F82020E27770
S224000C0024D02E4B90F82010D3F8C44093F8C720B3F8C03041EA042180F825302423016207
S224000C2080F8242080F82630132114306A4601AB33F08AFF3FB9052030F096FE009803B089
S224000C40F0BD3275B4E7FFF755FFF4E793F83F401A4A002380F82030D2F8C460DDB2B2F8FB
S224000C60C03092F8C71080F8253045EA06222423C477026280F824106A46132180F82630B6
S224000C8001AB143033F060FF052030F06DFE04216A460DEB01030A4833F056FFCEE70423B6
S224000CA08DF8083020238DF8093040E7524300100C030010E8420010404100101C4B001044
S224000CC090580010F0B504B287B034B18C4B1C8814F4806400F0208100248A4D2B88DA0719
S224000CE000F1008100200A2130F050FD002C00F0C18001200246844933F0C6F803A833F083
S224000D00C9FB0A210446002030F040FD2B88DB0700F1BA80002C40F0BF8003200C2126F057
S224000D2039FD0590002800F0A2802B88DE0700F1DF800023037043708370C37006230371B5
S224000D40059F022343710323BB71234624B1BDF90C30002B18BF02230026FB7166203146D9
S224000D60009701224FF0FF334FF080770197029626F084FD61200DF11A0134F0FBF800286D
S224000D8040F0A180BDF81A30D80440F19E8003200D2126F0FFFC0590002868D02B88D907E9
S224000DA000F14E810023037043708370C37006220271059B0222427103229A71224624B180
S224000DC0BDF90E20002A18BF0322DA7100934FF0807300210193BB2001224FF0FF3302913D
S224000DE026F04CFD4C200DF10E0134F0C3F810B10023ADF80E30642003A934F0BBF810B1A8
S224000E000023ADF80C30BDF80E309A0705D5BDF80C3013F4805300F0FF8003200D2126F0BA
S224000E20B9FC059018B32B88DB0700F1EE800023037043708370C37006220271059B0222D6
S224000E40427103229A71224624B1BDF91020002A18BF0322DA7100934FF08073002101939C
S224000E60222001224FF0FF33029126F007FD204607B0F0BD32F046FE00200A2130F086FCCD
S224000E802B88DB077FF546AF01202049224632F0FBFF002C3FF441AF03A833F055FDBDF81D
S224000EA00C10002940F0D880BDF80E10002940F0CE80BDF8101000293FF42FAF09B22020DC
S224000EC034F014F829E7ADF81A6007AE002346F8083D3146162033F06FFF1720314633F044
S224000EE06BFF7FE701200A49224632F0CDFFF9E602460849012032F0C7FF059819E700BF76
S224000F0012430010C242001048E7030064E7030038E7030074E703000B2003A934F02AF836
S224000F2008B1ADF80C400C200DF11A0134F022F8BDF81A3018B10023ADF81A300023BDF9CC
S224000F400C201BB201249A42A4BF4FF0FF33ADF80C300DF10E01A8BF0024172034F00AF8E8
S224000F6010B10023ADF80E3016200DF11A0134F001F8BDF81A3018B10023ADF81A3000233C
S224000F80BDF90E201BB29A42A4BF4FF0FF33ADF80E3004A9B8BF0124642033F0EBFF0546E3
S224000FA0E8B9BDF81030D90419D5212004A933F0E1FF08B1ADF8105020200DF11A0133F0A0
S224000FC0D9FFBDF81A3018B10023ADF81A300023BDF910201BB29A4201DA012403E04FF086
S224000FE0FF33ADF8103002214FF0FF3016F0E0FE032103464FF0FF30002B18BF002416F059
S224001000D7FE002818BF002467E602461549012032F03AFF05980AE707AD45F8083D294631
S2240010201F2033F0C9FE2946202033F0C5FE2946212033F0C1FE2220294633F0BDFE16E7CF
S22400104002460949012032F01FFF0598AAE609B2162033F04BFF2CE709B20C2033F046FFA3
S22400106022E700BF84E703007CE70300F0B5BC4D4FF6FF722B8884B0934239D01A051C0B60
S224001080120DADF80E40A41838F076F84AF28053B44ACAF63C531268C3180193577811784A
S2240010A09678D07841EA072141EA064144F6251241EA0061C2F29242A2FB016044F20756FA
S2240010C00F1A00EB5700CCF22E268008A6FB0373C0EBC000091A89B201EB1343A2FB030242
S2240010E09B1A02EB53029208A242019200F2D9800C250124284603A933F03CFF013500286C
S22400110008BF00240F2DF5D11F25284603A933F031FF0135002808BF0024232DF5D103A921
S224001120162033F027FF03A903461720002B08BF002433F01FFF03A903460A20002B08BF97
S224001140002433F017FF002840F09F80BDF80C30D3F1010338BF00231C4040F09D8038F012
S2240011600BF846F23F73C4F6A3339842019040F289807D4D2B88002B40F005814BF2C533B4
S224001180C9F2A213A3FB00734AF6AB22DB0ACAF6AA22A2FB031744F20754CCF22E24A4FB54
S2240011A000243F0943200DF10E0107EB4707A3EBC70733F0DFFE2B88240CD907BFB200F18D
S2240011C0EC80BDF80E30DAB2172A05DD03F47F4303339BB2ADF80E30B3F5006F02D90323C5
S2240011E0ADF80E30BDF80C30A34200F09B8000202DF02CFFBDF80E20BDF80C3012F47F4025
S22400120071D09C423DD0120AD61CF6B2062E01D9043AD6B22A88D20700F1CF80DA1FA2426B
S22400122066DCDA1DA24263DB019944F20752CCF22E22A2FB010244F62511120CC2F2924162
S224001240A1FB0201501A01EB50018908C1EBC101521AD2B2B24200F0B98042F293419B1B79
S224001260A21BC9F2492181FB026081FB03718018C918D217DB17C2EBA002C3EBA1039A42E8
S22400128036D1002420B204B0F0BD012300261C40ADF80C603FF463AF00202DF0D7FE0024B9
S2240012A0F0E72888BDF80E3000F470401BB1013B9BB2ADF80E309B182C4C03432B8021682E
S2240012C02B4B03221A8000297FF412AFDF2033F02DFE029000287FD005F09EFA2060254BA4
S2240012E008221A7004E79C4265D001339C4260D02B880022D807029256D403202DF0A6FE9F
S2240013000120FFF7DFFC002838D021B20A2033F0EDFD00202DF09AFE0120174932F0B4FD73
S2240013200124AFE7019944F20753CCF22E23A3FB01634FF4A3429DF80E601B0CC0F20102AB
S2240013404FF4616000FB06F002FB13139842BFF44EAF00F5167083422CBF0020012047E74C
S224001360FC420010E8420010C24200105843001008430010FE420010D8E703000A2002A9DF
S22400138033F01AFDC5E7204B01201A781F4902F0400232F079FD0198F0E6BDF80E2001209D
S2240013A01B4932F071FD0CE701201A4932F06CFDA3E797429CD2044664E7012016492246E4
S2240013C0009632F061FDBDF80C3027E79DF80E309F428DDA002455E746F2590304A8CEF278
S2240013E0ED232246042140F80C3D02AB33F0ACFB04A841F2EC3320F8023D0221224602ABC6
S22400140033F0A2FB6BE700BF180000108CE703009CE70300DCE70300B4E7030040F20C33FD
S224001420C1F20003188D003018BF0120704700BF03B2022B10B51DD0022032F07BFC042437
S22400144032F0ACFD204630F075FA01340020142130F09CF9082CF3D10320002125F008FF30
S2240014600020022130F092F932F098FD002030F061FAFEE700216FF0030026F041F800214F
S2240014806A2026F03DF800216E2026F039F800216FF0050025F0ECFE00216B2026F030F80E
S2240014A06920012126F02CF8C6E700BF2DE9F04F8D4F4FF6FF7A3B8894B01AB2002ABFBF6C
S2240014C003F500639BB21AB23B80B2F5006FC1BFA3F500639BB21AB23B80013AD117490DFA
S2240014E052185205520D541A0023C0F2230A04F50844DFF810B2DFF81092CDF800A0A401F6
S2240015001293119398469A460099D9F800308C4288BF4FF408140225FD2208F101089C428B
S2240015208DF84C208DF84D505FFA88F800F0AA80204601A9402232F05DFA9DF81C60294635
S22400154011AA12AB1B3613A88DF84D6033F0FCFA294611AA12AB644833F0F6FA9DF84D101F
S22400156001A80239C9B211AA12AB33F0EDFABBF80000054660B39DF81C3003F119013F291D
S22400158014DC14AD6A1812F84C2CFF2A40F0938001AA1A33511804E04A780131FF2A40F093
S2240015A08A801AB201333F2A9BB2F5DD0025BAF1000F14BF002000F0010038B1B7F9002018
S2240015C09DF84D300120494932F05EFC002D6FD13B88403401339BB21AB2B2F5006FC8BF37
S2240015E0414A3B80C4BFA3F5006313800AF1010AB8F10F0F1FFA8AFA86D146463C4B3D4A34
S2240016001B78106803EB43033B4A9B001370044610B132F065F8044603200E2126F0BAF8F5
S224001620129000285DD0119BDFF8E080C3F30741C3F307271A0E8170C2700370477098F8E4
S2240016400030129F0622027103F00F0305224271BB710023FB713846119732F081F880B27C
S224001660030A38727B7298F80000119900F00F0041F08071BE72224626F09AF828B214B088
S224001680BDE8F08F294611AA12AB13A833F05CFA294611AA12AB144833F056FABBF800306D
S2240016A03A8844F24C35C1F20005D8072A800AD446460125A2E70120104932F0E5FB0025B1
S2240016C0BBF8000073E701200D499DF84D3012B232F0DAFB44F2C221C1F200010125088831
S2240016E065E70125CAE700BF5043001014E80300D842001058430010D4420010E4E7030098
S22400170004E80300C24200101C430010FE420010CB1C13EA210338BF0B469B10002B30B4F8
S22400172013DD0B4A0568126895420ED1002203E050F8044FAC4202D101329A42F8D1C2EBDC
S22400174082729000081830BC70470020FAE700BF000000102DE9F041054683B00E46032031
S2240017601021174626F016F8EDB2044678B32B0943EA0515062303710423437113234FF036
S224001780000883710223C37180F8008080F8018080F8028080F8038080F8088080F8098008
S2240017A0384631F09DFFEDB24FF0FF3307464146284601228DE8D00026F060F82A46012030
S2240017C0044932F061FB044B012283F82A2003B0BDE8F0812CE803000C0300102DE9F04FAE
S2240017E0414FDFF80C813B688AB0D8F8002001203E4932F049FB3B68B3F5806F34BF994609
S2240018004FF48069B9F1000F65D0DFF8E8A04FF0000BB9F1F00F34BF4D46F025ADB208ABAA
S224001820022107AA6C1D09A86FF00106CDF820B0CDF81CB08DF824608DF8254033F084F976
S2240018400D2007A908AA8DF8250033F033F92848042107AA08AB33F077F915B344F204333A
S224001860C1F2000318682EB2102EA8BF1026B6B234B203A9224632F0BDF808ABF1B203A838
S22400188007AA33F061F93B68D8F80000AD1B1B1B2018ADB2C4EB09093B60C8F80000002DC4
S2240018A0E1D144F20E36DAF80000C1F20006079D347831F015FF4FF080730193029000216E
S2240018C0204601224FF0FF33009525F0D7FFB9F1000F9ED13B6823B9064B186808B131F037
S2240018E0CFFE0AB0BDE8F08FE042001040E8030004430010F042001070B5052384B08DF83C
S224001900003003208A238DF8013030F01DF902226946D62039F09AFA0224002001212FF0C9
S22400192035FF002522466946D6208DF800408DF8015039F08BFA284601212FF027FF0126F7
S2240019401F2322466946D6208DF801308DF8006039F07CFA284631462FF018FF3623D6208F
S224001960694622468DF800508DF8013039F06EFA03202FF0F9FF04B070BD00BF2DE9F04F00
S224001980034690B0DBB203200B9330F0DDF80CAA0B234FF48071D62039F0AEFA03202FF055
S2240019A0E3FF9DF83A309DF833C09DF832E09DF831709DF830609DF837509DF836409DF8FB
S2240019C035809DF834909DF839A09DF838B04EF660020A93F92027210B9BC0F203028DE893
S2240019E000500297039604950594CDF81880CDF81C90CDF820A0CDF824B026F0BDFE9DF8DC
S224001A0038409DF831C09DF832E09DF833709DF834609DF835509DF836809DF837909DF865
S224001A2039A09DF83AB04EF6700104F004029DF830300120C0F203018DE8005002970396D7
S224001A400495CDF81480CDF818900794CDF820A0CDF824B032F018FA012100202FF096FE40
S224001A6005238DF830300320BA238DF8313030F06BF802220CA9D62039F0E8F900200121D0
S224001A802FF084FE01240B2502220CA9D6208DF831508DF8304039F0D9F9002021462FF0E0
S224001AA075FE00260CA90222B723D6208DF831308DF8306039F0CAF9304621462FF066FE98
S224001AC00CAA2B464FF48071D62039F015FA03202FF04AFF9DF838009DF831B09DF832A043
S224001AE09DF833909DF834809DF835C09DF836E09DF837709DF839609DF83A504EF6B0018D
S224001B0000F0040207909DF830302046C0F20301CDF800B0CDF804A0CDF80890CDF80C8096
S224001B20CDF810C0CDF814E006970896099532F0ABF91020062127F00DF910B0BDE8F08F5B
S224001B402DE98048A8B039F009FEC24A002313805380DFF83C9344F2183044F2DA2144F2FA
S224001B60DC2244F2E02644F2043744F2F02CC1F20002C1F2000CC1F20001C1F200004FF445
S224001B801674C1F20006C1F200070B801380CCF80030037033603B60A9F82C4037F0ECFA76
S224001BA00DA9044634F07EF82020FEF72BFE0A20FEF728FE46F2747EC1F2000EDEF80030F2
S224001BC00120A549224632F05FF90D9BB3F5FA6FC0F2B581A14D6120294633F0CBF903B2F4
S224001BE00BB10020288031F017FF44F2E82603469A4CC1F20006012099491A46336032F0E1
S224001C0043F96420214633F0B5F9002840F08D812B8873B1C3F3431026F060F88F4B0446EF
S224001C20188826F07BF88F4903462246012032F02BF92888894CC0F3431026F04FF8064652
S224001C40288826F06BF831460246022037F028FD44F2E82CC1F2000CDCF8003044F2523E56
S224001C6019785E789A7841EA0621DB7841EA024242EA0363B3F1FF3F0CBF04230023C1F296
S224001C80000E472021468EF8003033F073F998B144F2E820C1F200000368197858789A7806
S224001CA041EA0021DB7841EA024242EA0363013300F08C810022228044F2E823C1F2000393
S224001CC01A682B8810785478917840EA0420D27840EA014141EA02620120634932F0D4F81F
S224001CE02B88002B40F04D8144F219370024C1F2000708205D493C7033F03CF928B144F2BE
S224001D00D02CC1F2000CACF800405949594826F069F90420584933F02DF938B144F2FC201B
S224001D204FF0000EC1F20000A0F800E044F2083244F24E3344F2FF260024C1F20002C1F218
S224001D400003C1F2000607204C4914801C80347033F010F930B144F22037C1F200070223B9
S224001D603C8033700620464933F004F968B144F24A3E44F220304FF0000CC1F2000EC1F20E
S224001D800000AEF800C0A0F800C044F24A31C1F20001B1F9003044F24C344FF0FF32C1F268
S224001DA00004B3F5006F228002DD354B00261E8044F2503744F25C3C44F2583E44F2FE2093
S224001DC00023C1F20007C1F2000CC1F2000EC1F200001A463B808CF80030CEF800300370B6
S224001DE0298844F2D423C1F200031A70002940F0B2807F2025A933F0BDF898B9BDF8940056
S224001E003BF00CFD3BF0CCF81EA30CCB3BF048FA0022C3F6F07200233AF064FF3BF0F8FB8A
S224001E201A4C2060002025F0CBFE4FF48043C4F202039B6C44F24C1623F07F43C1F20006CB
S224001E403360032026F0E4F92B880246002B7DD120E000BFB842001000E90300C242001097
S224001E6014E9030020E90300D0250400D0420010A0E603001C430010FC420010204300107D
S224001E804A430010006AF84000000000FC0200100C0300103E200DF18E0133F06BF810B19F
S224001EA00027ADF88E70BDF88E306FF0090003F00F0319B2ADF88E3025F0DAF945200DF1FA
S224001EC08E0133F057F818B14FF0000CADF88EC0BDF88E2044F20A3ED3B2C1F2000E19B203
S224001EE08EF800206FF00400ADF88E3025F0C0F94FF08043AA221A7255221A72002026F010
S224001F004FFF83B21AB245F64000C1F20000002A03805EDD2B88002B53D145F64001C1F226
S224001F200001B1F90000FFF783FA6120214633F021F800283FF46CAE0027278079E648F27E
S224001F40F060C3F66E0037F01DF943E60120C34931F09AFF9EE7C24C44F24A372368C1F230
S224001F600007B7F9001044F2D026C1F20006A3F5081332889B0900910120BA4931F084FF46
S224001F8037E70A20FEF73EFC0A20FEF73BFCFEF7B7F946F27476B449C1F200064FF440442B
S224001FA03768C4F20F040E88D4F880310246AF4901200097019631F067FF0023C4F88031FB
S224001FC092E60120AA4931F05FFFA6E7FF21218072E64FF48043C4F2020300225A6439F081
S224001FE0BDFB002843F0D3850320012125F040F90820002125F03CF944F2D022C1F200026E
S2240020001388002B03F0BD85DFF884824FF4FC71D8F8000033F08EF8D8F800301868002812
S22400202043F08C852B88DB0703F18285D8F800309A694AB948F2F45149F64132C2F20601D5
S224002040C0F26B5219635A6393F84020012062F07F0283F8402025F0B3FD5C20854932F0E8
S22400206089FF44F21233C1F200031A8844F25634120AC1F2000422700AB1531E23707D4C53
S2240020804120214632F076FF002842F0718323889F0642F16F83784F0797387044F2CA26E6
S2240020A00024C1F2000621466A20A9F8284089F82E4089F82F4089F82A40348025F020FA97
S2240020C06E4B21461C606C2025F01AFA49200DF1920132F04FFF03B213B10327ADF89270F6
S2240020E05A20674932F046FF18B94FF0030CADF892C0BDF89200002100F0070024F0CAFEF9
S22400210046205F4932F036FF38B144F200304FF0000EC1F20000A0F800E044F20031C1F274
S22400212000010B886FF00500C3F3C1235B00591CADF8923025F09CF84FF0FF3039F002F996
S2240021402B8845F64004C0F38F02C1F20004DE07228003F1E68444F2C02C0027C1F2000C60
S224002160ACF80070474E44F22017D8F800304FF0FF3EC1F200074FF0000CA7F800E0A6F8A6
S22400218000C044F2221744F2141C93F84C40C1F20007C1F2000C93F84E20A7F800E0ACF8F9
S2240021A000E00120384900230094DFF8E8A031F06BFE44F2C02EC1F2000ED8F800B0BEF8DD
S2240021C000300BEB030191F84C40002C00F09D81B3F5D67F80F0998103F14C0C0BEB0C07A5
S2240021E07A78FA2A17D11BF80C309C0740F084819B080BF80C3044F2C02EF92344F240100D
S2240022007B70C1F2000EC1F20000BEF800300268D21892F84C40BA7801201C49CDF810C0BD
S224002220009431F031FEBB78DDF810C01E2B33D0322B00F0F080142B18BF1BF80C2000F08F
S224002240A48044F2C02CC1F2000CBCF80030013203EB8203ACF80030ABE700BF84E9030055
S2240022601C43001068E90300C242001034E9030090E903001243001003430010BC4200101D
S2240022800043001054430010DCE9030014EA0300404100101C41001044F2221EC1F2000E41
S2240022A0BEF90030013384D144F22010C1F20000B0F900208C4C511C02F04682B7F804B065
S2240022C044F2241CADF850B0FB88D8F80000C1F2000C0437CCF8007002F14C01ADF85230F6
S2240022E010F801E002F154070EF1010241189200C01904933BF0CDFF2188D8F800000AB219
S224002300DAF8007001F1080E4C328218A4F800E044F2221C44F2241E0837101DC1F2000CC3
S224002320C1F2000EACF80010CAF80070CEF80000A2F804B0049BD38044F22211C1F20001CE
S224002340B1F90030D8F800204C33D1181E2088700220C870D05C44F22414012808BF308874
S224002360C1F2000404BF40F00800308001200431D05444F2C0272160D25CC1F200073B8833
S224002380121803EB82033B8013E744F22011C1F20001B1F9003001337FF40BAF44F2C02278
S2240023A0C1F200021388318898B202B24E4C082A41F0010189B2208008BF4C48318004BF68
S2240023C041F002010180CAF800701BF80C103E2901BF318841F0040131801BF80C100131BA
S2240023E003EB8103B3F5D67F9EBF44F2C027C1F200073B807FF6DDAE01203D4944F2201469
S22400240031F042FDC1F200044FF0FF3323800023CAF80030CDE644F2141CC1F2000CBCF9EA
S2240024200020344B01327FF4C4AE44F2201EC1F2000EBEF90040DFF8B0B0601C02F09081FE
S22400244044F2181CC1F2000C0437CCF800703946102214A804933BF013FFD8F8000004F1D9
S2240024604C01425C603401324118920000193BF010FFDAF80000BBF8001000F1140CCAF8FF
S22400248000C0049BD8F800700CB24C343A1901F1140E19801E239370ABF800E0042344F236
S2240024A0181ED370101D0123C1F2000E3B5514A9CEF8000010223BF0E3FE44F21411C1F22D
S2240024C00001B1F90030D8F800204C33D11832278F70042044F218170C18C1F20007C870CD
S2240024E0D0543C60D25CACE6204100105443001024EA030014410010002381F84C303A78FF
S224002500BB780120B54931F0BFFC44F2C020C1F2000002884FF4D6730120B14931F0B4FCBD
S2240025202B88DA0703F1BB8244F2123344F22214C1F20003C1F2000444F212361A8801203C
S224002540B4F90030C1F20006A64931F09DFC3388A54E9B0504D5B6F90030013303F0AD82DB
S22400256044F21411C1F20001B1F90030322201209C4931F089FC44F21412C1F20002B2F9B1
S2240025800030013303F02082984A002344F2D0201380C1F20000964A44F24034018804278E
S2240025A01380C1F20004022221262270C9F80430C9F80030A9F83060A9F83270A9F8347030
S2240025C0002943F0E3812888002843F0A38164212FF0DCF800239AB228A8013344F2383678
S2240025E0002400EB4201C1F20006042B26F8124021F8404CEFD144F2023C44F2E42EFF23E9
S224002600C1F2000CC1F2000E0727442024A98CF800308EF80030ADF8947032F0ABFC0028D2
S22400262002F08C802420ADF89000BDF89030642202FB03F344F22012C1F200021288ADF8D4
S224002640903044F22813C1F200031A80042007212FF07CF90B20212100222FF02DFA14210A
S2240026600A461B2363482FF047F9052348200DF1920189F8543032F07DFC002801F012874A
S2240026805B23ADF89230BDF892300A2202FB03F345200DF18E01ADF8923032F06BFC10B117
S2240026A00024ADF88E409DF88E306FF0040019B2ADF88E3024F0DCFD2B88DF0702F11D8480
S2240026C044F2143644F2103744F2423C44F2EC2E44F2443044F20C310023C1F20000C1F24E
S2240026E00001C1F20006C1F2000CC1F2000EC1F20007336003800B803B80ACF80030AEF80B
S2240027000030FFF7F9F83C4A3C4B0421981A3C4B3C4CD31A3C4E90FBF1F093FBF1F10594BE
S22400272009960B900C9139482FF056FA1B2800F011812128F7D10B201CA92FF035F82B8808
S224002740DE0700F111841C9C002C00F0168414F0007608BF374640F040862046394625F0ED
S2240027600BFA2B8884B2DF070BD51C9B284A13F0007F284B284908BF1346E2B2012031F01B
S22400278083FB04F00F03012B00F21883DDF870B005222BF04F431FA81AA91F9330F0F4FFDF
S2240027A004F001040528089440F098839DF86930002B40F093834FF4A34CC0F2010C8DF8F2
S2240027C09E309A46CDF828C037469DF86C305A1E8DF86C20002B00F095801FE0ECE903005B
S2240027E038EA03005CEA030022410010F4420010484300104403001068930010D8FF0010C9
S224002800689100101C430010FC020010B0E60300FCE80300F4E8030014ED030002221FA8DF
S22400282023A930F0B1FF0228044640F056839DF88C30122B00F0C08777D80C2B00F28E822D
S2240028400B2BC0F05283002032212EF09FFF9DF88D2000211FA830F097FF0320092124F048
S22400286099FF1D9000283FF45EAF0023037043708370C3701D9E06233371042323A97371D8
S224002880B01D0B2322468DF88C308DF88D403BF0F7FC602022A932F06DFB002801F073823C
S2240028A00320ADF8880003219DF86820BDF88830100903F0070340EA021201F007010220A6
S2240028C0ADF888308DF89E008DF89F20337271721FB1384630F004FF82461D9B9DF89E2063
S2240028E08DE808089DF89F004FF0FF330021CDF808A024F0C3FF9DF86C305A1E8DF86C208B
S224002900002B8BD1B9F828303E463BB144F2CA21C1F200010B8843F004030B801F980028A6
S22400292000F0518230F0ACFE4DE21A2B00F23382192B80F04C82142B00F0E385C0F0C885D4
S224002940182B00F0FF859DF88D201FA8002130F01BFF3AE744F2C832C1F20002B2F9003076
S2240029600022B3F5967F89F82A2000F3F28244F2E024C1F200042368002B40F0E78299F870
S2240029805430013BDBB289F85430002B7FF4CBAE2B88C14A05211B0782F8541001F1B380C0
S2240029A044F21436C1F200063268BDF8943001323260002B4BD044F20617C1F200073B78FB
S2240029C0AA214FF0804211725521012B11721BD944F2D02CC1F2000CBCF80020A2B144F23C
S2240029E0193EC1F2000E9EF80020AC4C092A0BD8013BAB4AFA20192125F0BEFE23780122E2
S224002A0001332370A74B1A702B881F0701F12184BDF89440013CA4B2ADF89440BCB90720CD
S224002A20ADF894006526A24644F2383218A9C1F2000231F804B0A35A9B4501F0CC8318A914
S224002A400B5302340136082C0AF1010AECD1B9F8283013B1904A013B138544F20832C1F211
S224002A600002B2F90030904C012B00F3C484002BC1F26F8244F25C30C1F2000003787BB344
S224002A8044F2FE21C1F200010B78082B01F0C68644F2D422C1F200021378013BDBB213707D
S224002AA0F3B944F2D823C1F200031A8844F2D824013292B213B2C1F20004052B228001F3F1
S224002AC02385012B06DD44F25036C1F2000632880F3A32802A88D60702F12B86FEF7E6FC06
S224002AE0002025F04DFB0446032025F091FB2B880646180700F11481002C00F019810320C9
S224002B002FF022F8012308210DF19D02D62038F0F3F903202EF028FFD8F8003093F940301F
S224002B20002BC0F2088644F66C27C1F20007B7F90030002BC0F2D08544F2EC220021C1F274
S224002B4000021120118024F04FFA002800F001819DF89D20530706D444F21037C1F20007F8
S224002B603B8801333B802B881F0700F1A987112024F03AFA002800F0108540F252339E42E7
S224002B8040F28F879DF89D7017F0040740F0898744F2423EC1F2000EBEF80020531C12B274
S224002BA09BB2B2F5617FAEF8003081F281870A2B02F0CF8040F21807C1F200073B783B4F2D
S224002BC0580640F1FA8740F2523305209E4240F21C852EF0B9FFD8F8003005209A68013221
S224002BE09A602EF0C1FEBDF8903073B9BDF892309E4281F05083B9F8322032B1013A26492D
S224002C0092B24A86002A02F090806D2024F0ECF9002800F0E18405202EF096FFD8F8003094
S224002C2093F840209C8722F07F0242F07E0283F8402005202EF098FE682024F0D5F90446D4
S224002C40002800F0EE874FF4167EA9F82CE0722024F0CAF968B944F24131C1F200010B78F5
S224002C603BB144F68222C1F20002138843F400631380079C44F241362378C1F200063070C4
S224002C80002B40F07387B9F8303003F00302032A00F03F870CE000BF0C03001019430010B8
S224002CA010ED030006410010084300101800001003F01F021F2A2AD043B1013B9BB2A9F8C0
S224002CC030301BB9A44B4FF434741C86052044F20A3644F66C272EF037FFC1F20006C1F217
S224002CE0000744F2563C31783A88C1F2000C9CF800304A4042FA03F3DC0704D5D8F800309A
S224002D00DA6A0132DA6205202EF02EFE0BE52B881E0701F1E183FEF7A9F9B9F83030CBE714
S224002D2008208E49324631F0AFF8002C7FF4E7AE05202EF009FFD8F80030012283F84020D2
S224002D4005202EF011FE44F20C33C1F200031C80D5E61120012124F08BFAF9E60E2B00F0A6
S224002D601D86C0F03E850F2B7FF4EDAD9DF88D200E2A01F0888100211FA830F005FD9DF8DE
S224002D808D3098423FF421AD1F9830F079FC384630F076FCC7E4FD2B00F0BB85FE2B00F01E
S224002DA03485202B7FF4CFAD01239DF88D2089F82F301FA8002130F0E7FC06E51C9820F03B
S224002DC04F4030F05DFC304630F05AFCABE49DF88D60012E41F2C186012B04BF4FF0000C06
S224002DE0ADF896C009D002221FA80DF1960130F0CBFC0228C8D19DF88D60022E01F00980A4
S224002E009DF88C30012B03D0023E8DF88D60F6B2BDF8963018B2021C18BF01227F28CCBF74
S224002E20002202F001021146002A00F0B487022E08D000211FA8324630F0A6FC9DF88D304E
S224002E409842A1D126A99DF8960032F093F802221FA822A930F098FC022895D1BDF8960035
S224002E6003B27E2B3FF7B1AC9DF88C30BDF89840192B02BFBDF888302343ADF898300ED05B
S224002E801A2B02BFBDF8883024EA0303ADF8983005D0022B04BFBDF888C0ADF898C0BDF9C4
S224002EA09810C0B232F022F8BDF898300120BDF996202B4930F0E8FFBDF99630452B01F055
S224002EC06F863E2B01F06286462B01F08186472B04BFBDF898602E8077E43E461F9830F007
S224002EE0CFFB304630F0CCFB1DE4022B3FF46FAF032B00F0B383012B7FF425AD089C002C92
S224002F003FF421AD9DF88D60002E7FF462AF2B88BBB91FB1384630F0E3FB824600209DF887
S224002F206840FDF7F5FD240910348DE801080421204601224FF0FF33CDF808A024F09EFCD5
S224002F4043E40120074930F09FFFE2E7FEF746FC15E504F0FDFC0AE50C03001084E90300B1
S224002F6098EE030088EE030001201C491C9A30F08BFF1C9C002C7FF4EAAB99F82F30002B5D
S224002F8041F0DF87079F3B78002B42F0F6812B88002B42F0DE81002303201C9325F038F9BE
S224002FA02B8880461C0702F115844FF48043C4F2020344F66C2C9A6CC1F2000C9CF80010E8
S224002FC002F07F420A434CF6CD46DFF814909A64CCF6CC464FF08044AA2706E0B4EA0300EF
S224002FE00403001099F8003003BB00200A212EF0CDFB1C9BA6FB03E2D20802EB8202B3EBDF
S224003000420F02D15522277222720133B3F5167F1C93E7D92B88D80702F1A98144F2D0202E
S224003020C1F200000388002B42F09981012004F0EFFC30F077FE4FF48043C4F202035A6CBA
S2240030400646B849012030F01FFF00216FF0060024F00EF92B88344613F0010308BF1F46BE
S22400306042F0AF8301216FF0010024F049FAA6F10A03DBB244F2D6220021C1F20002012BAD
S224003080118041F24087A84C4620214631F072FF0146002801F09781002323806920012164
S2240030A024F02EFA44F20034C1F2000421786FF0030024F025FA2A88AA214FF08043197276
S2240030C055211972D10758BFDFF8709202F19C8144F2003CC1F2000CBCF8003013F40054A2
S2240030E002F08781C3F3C123590001316FF0050024F0BEF86B20012124F002FA2B88DA072D
S22400310002F1688130F00EFE0F28064604464FFA80FB11D84FF0010A0AFA0BF248F2A013F0
S22400312013404BB16C20514624F0EAF92B881BB150467E4930F0A8FEDFF810A24A205146F5
S22400314031F018FF002801F02C810020AAF8000000222B8823B101207549334630F094FEF7
S2240031606E20002124F0CCF94FF08042AA21002311725521117218468DF89D3025F000F89A
S2240031800F2E059041F20481DDF814C0BCF5616F10D840F25233984502D901238DF89D30A9
S2240031A09DF89D30012000936249424640F2523330F06AFE1220002124F0A2F940F2040E3C
S2240031C0C1F2000E9EF800304BB19DF89DA01220BAF1000F02F0D980012124F049F84FF0A8
S2240031E080464FF0AA0E86F808E04FF0550E0120234686F808E050493A4630F045FEB9F8E8
S2240032000010062038F058FB2B8807F10109D8074A4E02F135814FF48043C4F202035A6C9C
S2240032200120404944F24C1730F02EFEC1F200070023102C3B6041F248802B88DA0704D5DE
S22400324001203F49224630F01FFE44F2003CC1F2000CBCF800309B0402F13F802B8853B1FE
S2240032604FF48043C4F202039A6C012022F07F42344930F009FE4FF4804744F20030C1F2C7
S2240032800000C4F202070388BE6C6FF003001E4023F0AAFE44F20031C1F200010B88034049
S2240032A05E40B6B2002E41F0E287032024F0B0FF40F2523398452A8894BF00270127984293
S2240032C094BF002601262AB101201F493A46334630F0DAFDB7421EBF44F24C10C1F20000DA
S2240032E0036844F2D62118BF43F00103C1F2000118BF03600B889F0741F07D87032024F090
S22400330087FF40F2523398452A8894BF4FF000084FF00108984294BF00260126002A41F025
S224003320628715E0E4EA03000043001050EB030074EB030088EB03009CEB030008030010CB
S22400334024EC030040EC030084EC0300D6420010B04508D03EB144F24C17C1F200073B68D9
S22400336043F001033B60002001464FF4FA7235F0CDFE4FF48043C4F202035A6C12F00100E6
S22400338040F09C8796212EF001FA012025F008FD2B88002802F05980DE0703D50120C2493B
S2240033A030F072FD00200A212EF0F0F92B88DA0702F143800020014637F0BEFE2B88DB07FE
S2240033C002F135804FF48043C4F202035B6C30F0E5FD00202EF0AEFAFEE724F04F473846C3
S2240033E01CA924F04FFE1C9B04F04F441C433E461C94FFF7B2B9002026F078FE0028C0F2EA
S2240034006B83002026F072FE002801F0318344F24E37C1F20007B7F90030BBB90220FDF767
S22400342077FB44F2583CC1F2000C0446DCF8000030F056F94FF0807301930290042118204A
S22400344001224FF0FF33009424F018FA012026F04DFE0028C1F2A781012026F047FE0028F0
S224003460FFF608AB012026F041FE90490246012030F00AFD0220FDF74BFB44F25836C1F2ED
S22400348000060446306830F02BF944F2083701220646042118204FF0FF330094C1F20007FB
S2240034A04FF080740194029624F0E8F9B7F9002044F24E3E4FF0000CC1F2000E022AAEF842
S2240034C000C07B4B02F0D68201221A80FFF7D2BA9DF88D600021042EADF8961004D999F84A
S2240034E02E30D80741F1398299F82E3001207149324630F0C9FC99F82A30CBB19DF88D20CD
S22400350039E401209DF88D206B4930F0BDFC9DF88D600024022EADF8964000F05E87012052
S2240035206649324630F0B0FC99F82A30002BE5D13A469DF868000BF04F41FEF70BF99DF831
S2240035408D2018E49DF88D201FA8002130F01CF9089E002E3FF439A91FB1384630F0C0F84F
S22400356082469DF8686027F0ABFE3609103604464FF0FF330421304601228DE81008CDF811
S22400358008A024F07BF92B88002B3FF41EA901204B4930F079FCFFF718B944F24232C1F2B0
S2240035A00002138801339BB2282B13807FF402AB0121112023F05CFE9DF89D20012002F0BD
S2240035C00402404930F060FCFA2027213E4A012325F0D2F8FFF7EEBA05202EF0B5FA40F22C
S2240035E00402C1F200029189D8F80030A1429C87364A80F0088393F8402022F07F0242F0C0
S224003600650283F84020FFF714BB2EF09DFAD8F800300520DA680132DA602EF0A5F9BDF8A4
S2240036209030002B3FF4F1AA9C4280F0CF85B9F83420002A3FF4E9AA013A254992B28A8638
S224003640002A7FF4E2AA01202249224630F01CFC0A20062125F07EFBFFF7D7BA089C002CDA
S22400366041F089829DF88D60012E41F2CB80032E1FA80DF1960100F0F984022230F084F820
S22400368002287FF481ABBDF896301AB2FF2A00F0C5847F2A3FF499A8D8B21EA900231E9371
S2240036A031F08AFBFFF791B898E9030048F003000843001044EF03005CEF0300D4EF0300BC
S2240036C070EE0300C8F0030010ED0300040000100C03001034F1030044F20C3CC1F2000C31
S2240036E0BCF800202B88013292B2D907ACF8002004D512B20120A44930F0C6FB44F20C3E17
S224003700C1F2000EBEF90030B3F5616F13DD05202EF01AFAD8F80030052093F8402062F0DB
S2240037207F0283F840202EF01FF9FA202721974A052325F021F844F66C20C1F20000038855
S22400374040F64572DB0B94428CBF002303F00103002B3FF4F1A9B4F57A7F7FF6EDA99DF81C
S2240037609D2012F0300F7FF4E7A944F2EC21C1F200010A88864B002A40F0AF8344F24432B1
S224003780C1F20002012714801F8044F2EC20C1F20000B0F900305A2B7FF4DAA91120012178
S2240037A023F066FD794AFA2027210B2324F0E4FF9DF89D20FFF7CEB99DF88D300024012BD3
S2240037C0ADF8964000F0DC830120724930F05CFB99F82A30002B3FF4ABAE9DF88D20FFF7ED
S2240037E0CABA9DF88D60002E00F0AF84042E1FA801F06381002132462FF0C6FF9DF88D30D0
S22400380098423EF4E2AFFFF7BFBA9DF88D10002900F04F811FA80DF19E0101222FF0B4FF23
S2240038209DF88D30013B8DF88D309DF868302A88190941EA03138DF89F30002A40F0BC8483
S2240038409DF89E600B2E02F0718200F22F82042E02F0EE8200F20E87012E02F0B78280F02A
S224003860C2864FF0FE0E00241EAB02211DAA8DF88CE023A84FF0070E8DF88DE01E941D9474
S22400388031F062F91DA91EAA20468DF89E4031F011F944F2023EC1F2000E9EF800001DA992
S2240038A01EAA31F007F902211DAA1EAB3A4831F04BF944F2E421C1F2000108781EAA1DA983
S2240038C031F0F8F88DF89E4046F2D032C1F20002905D1DA91EAA31F0EDF89DF89E60013635
S2240038E0F6B2012E8DF89E60EED91FB138462FF0F7FE82461D9B9DF89F008DE808080021E6
S22400390001224FF0FF33CDF808A023F0B7FFFEF75CBF9DF88D30032B7EF457AF01220DF1AF
S2240039209F011FA82FF030FF22461FA80DF196012FF02AFFBDF896309DF88D20033A1C04A7
S22400394042BF03F50063ADF896309BB28DF88D201AB2B2F5006FC4BFA3F50063ADF8963051
S2240039609DF89F30042B3EF630AF0FF2080E5EF823F000BFB9500000B3500000994F000069
S224003980CB2700004F4F000090F0030010ED0300EC42001010EF03002A4C00104F2026A90B
S2240039A031F0E8FA18B14FF03C0CADF898C09DF88D20082A7FF4DFA9BDF8983059053FF534
S2240039C0DAA92B88DB0703D50120AE4930F05CFA04221FA820A92FF0D7FE042804467FF4D1
S2240039E0D3A935F0C9FB209B20A9C31AB3F5967F1FA8224680F059842FF0C6FE04287FF441
S224003A00C3A9209835F0BEFB40F2180EC1F2000E9EF80030032043F040030B218EF8003045
S224003A2023F0B8FE1D9000283EF47DAE0024047044708470C4709DF868301D9E1A0942EADB
S224003A4003135FFA83FE06233371022373710D23B371F4717046012221464FF0FF3300969B
S224003A604FF080768DF89FE00196029423F006FF209A4FF46A5302F57C3202F59062C0F2C9
S224003A800903B2FBF3F319B2092031F02FFA2B88DE077EF59AAE01207B4930F0F5F9FEF709
S224003AA094BE44F242310020C1F200010880FFF781B81FA80A468DF89E102FF065FEB4E615
S224003AC044F2103CC1F2000CBCF9003001206F4930F0DAF9FFF74BB844F24E36C1F2000683
S224003AE03388002B3EF4C6AF01339BB21AB26849962A0B807EF7BEAF00272780662026F09F
S224003B0079FAFEF7B7BF0820624930F0BDF9FEF747BF44F24030C1F200000378022B01D04C
S224003B20FCF788FE2B881F0700F111874FF0FF3037F008FC45F64001C1F200010B88C0F396
S224003B408F0419B220B2461A0336534A062E9CBF1480B9F830307FF6ABA8884240F3E88594
S224003B6004331380B9F83030FFF7A2B803F0A2FDC20440F1748342F21003034000F00C020D
S224003B80002B00F08D83042A0CBF06220522DDF81CC09CF8003093423FF475A84EF2A06EC5
S224003BA0C0F2030E3D490EEBC2030A70002059699A6935F0ABFAFFF766B844F2143CC1F283
S224003BC0000C08203649DCF8002030F05DF944F2143EC1F2000EDEF800300A2B7EF6F3AF29
S224003BE035F0CAFA46F24073C4F6A33398427EF7EAAF3B78082043F040033B70294930F0E6
S224003C0043F9FEF7E0BFD189A14280F0368393F8402022F07F0242F0510283F84020FFF795
S224003C2008B844F2D02601201F49C1F2000630F02BF933882BB1B9F82C30B3F5167F01F03B
S224003C40048544F21237C1F200073B88D90540F17682B9F82C30013B9BB2A9F82C30002B15
S224003C6000F06D82B3F5157F7EF4F1AF44F6822CC1F2000CBCF8003043F02003ACF800305D
S224003C80FEF7E5BFD4EE0300E4EE0300A4F003004E430010E8EF03004058001003430010DC
S224003CA0D8F00300FCF0030044F103001E2E01F09A8400F2C1850E2E01F09E8000F2438476
S224003CC00C2E01F042840D2E7EF47FAD9DF88D30072B7EF67AAD0422BB491FA82FF054FD95
S224003CE00422BA491FA82FF04FFD44F2043144F2E023C1F20003C1F200010A681968B2F5BC
S224003D00001FA1F10A0434BF00230123604240EB040000910190AE49012030F0B5F83FB1DD
S224003D2038462FF0DDFC44F2F024C1F20004206044F20436C1F200063468A34E631C00F062
S224003D4066874FF6FF73C0F21F039C4209D944F2E02EC1F2000EDEF800C0BCF10A0F00F0D5
S224003D60BE879DF89F3044F2043044F20E3124F00F04C1F20000C1F2000104600B70FDF755
S224003D802DFDFEF722BDBDF88810CBB2ADF88830090AFEF789BDDF2840F30F81042E08D0D7
S224003DA01FA832462FF0F0FC9DF88D3098427EF4EBAF04221FA821A92FF0E6FC04287EF426
S224003DC0E3AFBDF89630FF2B0CD144F2523CC1F2000C9CF80020032A04D99DF88C20022A1C
S224003DE001F0D384D8B220A931F0AEF89DF88C30192B01F039861A2B01F02F86022B04BF3C
S224003E00219B20939DF89600209931F04DF8FEF7DCBCBDF89630A3F1800292B25F2A40F2C7
S224003E20B68403200A2123F0B5FC1D9000283EF47AAC00231E90037043708370C370BDF832
S224003E4096201D9811B206247F290471437141F36983DF29D8BF069301F3268300231E936B
S224003E6000283EF4B2AC2FF07BFC9DF868300246190941EA0313032002218DF89E208DF809
S224003E809F3023F087FC1E9000283EF44CAC1D9BC3F307241A0EC3F30741C27003704470A0
S224003EA081701E9B06221A7104225A7102229A719DF89E20069C02321D93DA7114B1FF2672
S224003EC0ADF8966003F108000DF1960102223AF0D7F9002F7FF40AAD0CE5013292B211B20F
S224003EE0B1F5E16F1A800ADB44F2443CC1F2000CBCF9003004F132029A42C1F2FF8344F27E
S224003F00EC2EC1F2000EBEF900303C2B7FF43DAC03202DF019FE012308210DF19D02D620E0
S224003F2036F0EAFF03202DF01FFD9DF89D2002F03003D3F1010138BF0021302B14BF0B463D
S224003F4041F00103002B41F0028422490B80FEF701BE44F24E3CC1F2000CBCF80030013304
S224003F609BB21AB2962AACF800307EF783AD4FF0000EA4F800E0662026F03CF8FEF77ABD25
S224003F8099F82E6016F001067FF41EAC1A461FA80DF19F01ADF896308DF89F402FF0F4FB11
S224003FA09DF89F20012818BFADF89660BA2A00F081820020ADF8960006E41D921E928DF80D
S224003FC09E20D6B997E200BF04430010E0420010F0ED0300EC4200101DAA9DF89F001EA9EE
S224003FE030F068FD9DF89E309DF88D200133DBB29A428DF89E3040F27C8201221FA80DF18A
S2240040009F012FF0C1FB0128E6D01E983E462FF037FB1F982FF034FBFEF7D5BE9DF88D20E7
S224004020022A08D000211FA82FF0AEFB9DF88D3098427EF4A9AE02221FA80DF196012FF033
S224004040A3FB02287EF4A0AEBDF9962045F2AA539A427EF4BAAB2B88D80703D50120C149EB
S2240040602FF012FF31F044F8FEF7AFBB01220026ADF896602FF088FB9DF88D30013B8DF8B6
S2240040808D30FFF700BB0320072123F083FB1D9000283EF448AB0024047044708470C47063
S2240040A01D9B0E220626991D1E715A711FA82FF06BFB0E287EF468AE204601212FF086FDA3
S2240040C01E90002801F07E861D9BC0F30741020EC0F307249970DA7018705C701D982FF0F4
S2240040E03FFB9DF868300246190941EA0313032008218DF89E208DF89F3023F04BFB1E90BF
S22400410000283EF410AB1D9B1A0EC3F30724C3F30741C2700370447081701E9B02225A71D4
S22400412010221E719A719DF89E201D93DA7101238DF89E30002F7EF4CCABFEF7CEBB0B2028
S224004140032124F007FEFEF782BD3146092030F0CDFE1D961E9635F00FF804211DAA1EAB16
S224004160064621A8219630F0EFFC1D982FF0F8FA03468DF89E300320092304218DF89F3039
S22400418023F008FB1E9000283EF4CDAA1D9B1A0EC3F30726C3F30741C27003704670817078
S2240041A01E9B06221A715C710D229A719DF89E201D93DA71FFF799BB9DF89E209DF88D304A
S2240041C0012069492FF060FEFFF73ABB0421A9F83410FEF71ABD002331466448ADF894301A
S2240041E034F0F2FB01202DF06DFB002032212DF0CDFA44F2383CC1F2000C34F80C70534602
S224004200BDF8942001205A498DE880082FF03CFE002032212DF0BAFA44F2D02EC1F2000EDD
S224004220BEF800302BB1FA200321524A334624F0A3FA0FFA8AF7012F00F06B8501200921CE
S22400424024F088FD44F23830C1F20000235AFEF7F6BB082048492FF017FEFEF7D9BB44F2A0
S2240042600237C1F200073B789B0725D400F00C02042A0CBF0222012289E4118AA14280F05F
S2240042805D8493F8402022F07F0242F03D0283F84020FEF7CEBC0420A9F83200FEF7B5BC92
S2240042A0042A0CBF0422032271E42FF06DFA04283EF48BAAFEF768BD072268E45A6C0120D1
S2240042C02E492FF0E1FDFFF771B8012063B200FA03F342F2120260F31F42134210D02B883C
S2240042E0DB0703D5264922462FF0CEFD4FF48043C4F202035A6C42F001025A64FEF7FEBF12
S224004300190522D52B88DF0703D51E4922462FF0BBFD682022F068FE00283EF4EFAF0D2047
S2240043200E2124F017FD4FF48043C4F202035A6C42F001025A642B88D8077EF5DFAF0120F3
S22400434011492FF0A1FDFEF7D9BF5A057EF575AF2B88D9077EF5D2AF0C4922462FF094FDCA
S224004360FEF7CCBFC4EE03006CED0300F8EF030000F0030010ED0300F0EF0300DCEC03001D
S224004380D8EB0300ECEB030000EC030010EC0300012303FA0BFB1BF4134F7EF4FAAEFEF7E3
S2240043A0F3BEBAF8002093073EF4D3AE2B8823B10120A84933462FF067FD6E20012123F0D0
S2240043C09FF8FEF7D1BEB4F90030002BBEF666AE692023F095F8FEF765BE1FA826A932469E
S2240043E02FF0D2F9022800F083850120BDF89820BDF9963098492FF047FDBDF99660012E83
S22400440018BF9DF88D607FF48AA8142100202DF0BDF92FF009FD030A43EA002084B2D9F8EB
S22400442058E0BDF89820234630468C49ADF89A40CDF800E02FF028FD44F2CA2CC1F2000CCB
S224004440BCF80020BDF8983042F00402ACF800202BB9BDF89A300133ADF898309BB2BDF804
S2240044609A2093427EF4B1A9002078212DF08EF999F82F2001207A492FF006FD99F82F30A9
S22400448053B9784B012083F82E0077492FF0FCFC0420022124F05EFC4FF0000EA9F828E0FC
S2240044A0FEF793B9BDF8923023F47E43ADF89230FEF7E9B8BDF99640012C01F05481002CBF
S2240044C03FF482A92B88DC077EF57FA9012067492FF0DAFCFEF779B940F21803C1F2000358
S2240044E01A78012002F0400261492FF0CDFCFEF712BCBDF89630002B01F00581D8B21EA90D
S22400450030F05AFCFEF761B92B88DC0701F1658044F2583C44F25C3E44F2FE210024C1F2DE
S224004520000CC1F2000EC1F20001DCF800008EF800400C702FF0A4F844F25832C1F20002AF
S2240045401460FEF7CDBA142E01F059841D2E7EF43CA903202DF0F8FA14AA4FF480710B2362
S224004560D62036F0C9FC03202DF0FEF94FF0FE0E1EAB00241DAA02218DF88CE023A84FF001
S2240045800D0E8DF88DE01E941D9430F0DDFA1DA91EAA30468DF88D6030F08CFA1EAB0B219E
S2240045A014A81DAA30F0D0FAD8F800301DA993F840301EAA18468DF88D3030F07BFA1D9B13
S2240045C038469DF89F6004932FF08AF8049B02908DE808083046214601224FF0FF3323F052
S2240045E04DF9FEF7F2B8022E01F02885032E7EF4ECA800231E931D932FF0DEFA0446ADF862
S2240046009A40FE241EAB02211DAA8DF88C4023A805248DF88D4030F097FA1DA91EAA9DF87B
S2240046209E0030F047FA02211DAA1EAB0DF19A0030F08AFA2FF0F8FBADF89A000DF19A009E
S22400464002211DAA1EAB30F07FFA002F7FF44EA9FFF750B960EB030070EF030088EF030047
S224004660A4EF03000C030010B4EF030024EF030060F10300082E01F0B5824FD8052E01F0C7
S224004680B080062E7EF4A1A89DF88D30FF228DF89E202BB11FA80DF19E0101222FF074F852
S2240046A09DF89E00002622A91EAA01280CBF0220304622961E9623F013FEFE2322988DF88D
S2240046C08C302FF04DF81EAB441C1DAA022123A88DF88D401D961E9630F036FA06231EAADD
S2240046E01DA918468DF88D3030F0E4F922991D982EF0DCFF1D9B38469DF89F4004932EF08A
S224004700EFFF049B02908DE808082046314601224FF0FF3323F0B2F8FEF757B8092E00F097
S2240047209C870A2E7EF451A828F07EF9FEF74DB8191F1180B9F83030FEF7BABA9DF890308D
S224004740ADF89030FDF771BF44F2C020C1F20000008844F22211C1F200010880FDF7ECBD38
S22400476044F2C020C1F2000000881880FDF7A5BE0E262680B44C0123237000204FF0FF31D4
S2240047804FF4FA72079434F0C1FCFDF787BCD8B230F0CCFB04461D90002801F07381002617
S2240047A00696FFF75BBB44F24E3EC1F2000EBEF8003001201B189BB21AB2AEF80030A349B4
S2240047C02FF062FB44F24E30C1F20000B0F900300F2B7EF74FA944F20831C1F20001B1F9A4
S2240047E000209B4C022A00F30B82962B7EF742A900232380662025F0FDFB964B00241C80E6
S224004800FEF738B9324600211FA82EF0BDFF9DF88D60B0423EF42BAFFEF7B6BA002025F059
S22400482079FC00287EF434A9012025F073FC00283EF456A9FEF72CB9CD2E00F0AD8253D86A
S224004840642E00F00F837F2E7DF4BFAF9DF88D20022A08D000211FA82EF096FF9DF88D3080
S22400486098427EF491AA02221FA80DF196012EF08BFF02287EF488AABDF8964026B23046DD
S22400488038F0D0FF38F08CFB73A30CCB38F008FD0022C3F6F072002338F024FA38F0B8FECF
S2240048A0DDF824C0CCF800009DF89E00002C00F01A83314630F01AFB00241E941D94FE2435
S2240048C01EAB02211DAA8DF88C4023A803248DF88D4030F039F99DF89E001DA91EAA30F058
S2240048E0E9F80DF19600ABE6FA2E00F05582FE2E7DF46BAF01205A492FF0C6FA44F25C32A0
S224004900C1F2000214788CB944F2583344F2FE26C1F20003C1F20006186834702EF0B0FE92
S22400492044F2583CC1F2000CCCF8004044F2083EC1F2000EBEF90030002B40F0BF8644F2EB
S22400494008340023C1F200042380FDF73EBF082044492FF099FAFFF7E9B804221FA820A9F4
S2240049602EF012FF042800F0EB81BDF99600012818BF9DF88D607EF4B7AD209A002312F4F4
S224004980F87F89F82F3008D12B88D90705D59DF89E3035492FF078FA209AD9F8580090424E
S2240049A014D09DF89E201FA800212EF0EDFE0023209A8DF89E30D9F8583093423CBF2B4BFB
S2240049C09A65F023A9F82830FDF7FFBE9DF89E305BB9F0E70C791C190C719DF89E10CB1A69
S2240049E0DBB28DF89E30002BE5D01F9A54791179A34228BF234651181A468DF89F302FF071
S224004A00CDF91F999DF89F304C79209AE41A9818E4B2024620904C71002CDBD108784C781B
S224004A208A78CB7840EA042040EA024242EA036301201E932CF0E8FE1E9B20981F9302469F
S224004A409DF89F30C9E700BF0343001030F00300084300104E430010006AF8400000000067
S224004A605CEE030050F1030030EF03000C030010C24901202FF008FA0220FCF749F844F286
S224004A805833C1F20003064618682EF029FE00964FF08076074601961820042101224FF051
S224004AA0FF330126029722F0E9FE2680FDF7E2BF0220FCF763FFFEF77DB820A932462EF0CB
S224004AC063FE04287EF460A900231D931E9334F053FB042104461DAA1EAB20A8219430F037
S224004AE033F804211DAA1EAB21A830F02DF81D982EF036FE9DF868300246190941EA0313E4
S224004B00032006218DF89E208DF89F3022F042FE1E9000283DF407AE1D9B1A0EC3F30724E0
S224004B20C3F30741C2700370447081701E9B06221A7102225A710E22FFF737BB528AA242F5
S224004B4093F8402022F07F0234BF42F0290242F0010283F84020FEF76CB8324600211FA8F9
S224004B602EF012FE9DF88D60B0427EF40DA99DF88C30FEF731B99DF88D201FA800212EF0EE
S224004B8003FE0020FCF79EF8FDF71FBEBDF898106FF0090001F00F0122F06AFBFDF715BE91
S224004BA044F2563EC1F2000E9EF80030012202FA03F3BDF8981044F20A300B40C1F20000BF
S224004BC00370C9B26FF0040022F052FBFDF7FDBDBDF898305C4014F4C05F3DF4F6ADC3F3A8
S224004BE0C12244F200345200C1F20004511C23806FF00500ADF8982022F03AFBFDF7E5BDAC
S224004C00672025F0F7F902222280FDF733BF0024346005201E941D94FE262CF095FF4FF004
S224004C20DB0CADF8984002211EAB1DAA23A88DF88DC0CDF810C0524C8DF88C602FF084FF75
S224004C400D231DA91EAA18468DF88D302FF032FF204644F204340421C1F200041DAA1EAB61
S224004C602FF072FF2368D8F800204C33D018D6211DAA1EAB2FF068FFBDF898302268013375
S224004C80D6329BB22260012BADF89830DDF810C0C9D905202CF068FE44F2F0211D9EC1F2FC
S224004CA00001D1F800E002224FF0FF3300969DF89F0000214FF080760196CDF808E022F03A
S224004CC0DDFD0023236044F2E02244F2F024C1F20002C1F2000413602360FDF776BDA4F5AB
S224004CE080149C424FF0010E94BF0023012370462246244934608DE800502FF0C5F83068FD
S224004D0000F10A012EF0D6FE1F4B00221A60FDF75CBD642022F068F900283FF48FAA0620DC
S224004D20394622F0A5FAFFF789BA0120174932462FF0AAF80220052124F00CF8FDF765BFD3
S224004D409DF88D600122043EADF896208DF89E600BE63946112022F08BFA9DF89D200120DE
S224004D6002F004020A492FF08FF8FA202721094A3B4623F001FDFDF71DBF00BF1CF0030058
S224004D800443001014EE0300E042001024F10300B8F0030010ED030044F2523EC1F2000E36
S224004DA09EF800302BB9FA2E0CBF052600268EF80060002602241EAB21461DAA1E961D9670
S224004DC023A8FE268DF88C608DF88D402FF0BCFE1DA91EAA9DF89E002FF06CFE44F2523140
S224004DE0C1F2000108781EAA1DA92FF063FE002F7EF47CADFEF77EBD02244FF0000C1EAB38
S224004E004FF0FE0E21461DAA23A8CDF878C0CDF874C08DF88CE0CDF810C08DF88D402FF05C
S224004E2093FE1DA91EAA30468DF88D602FF042FED54821461DAA1EAB2FF086FE38461D9E17
S224004E409DF89F402EF04CFCDDF810C002906146204601224FF0FF338DE8400822F00EFDC1
S224004E60FDF7B3BC9DF88D20022A7DF48DAF44F25230C1F200000378002B3DF4A6AC26A94C
S224004E801FA82EF081FC05202CF05EFEBDF89810D8F8004044F2C02608B20022C1F20006F0
S224004EA00B4631802018114605E08418013384F84C109BB201321CB240F2AB1C6445F4DD0E
S224004EC00520ADF896302CF04FFD44F2C02EC1F2000EBEF800200120AC494FF4D6732EF05A
S224004EE0D3FFFDF772BC1EA91E942FF065FFE3E40126ADF89660FFF778BA0120A4492EF0E0
S224004F00C3FFFDF7DDBB00216FF0030022F0F8FA00216A2022F0F4FA00216E2022F0F0FA61
S224004F206FF00500002122F0A3F900216B2022F0E7FA6920012122F0E3FADFF86492FEF73E
S224004F404EB90420022123F005FFFEF71BB807202CF0FAFD4FF6FF71C0F223014FF40810FF
S224004F602EF0A8FD44F24A36059C44F25C3C0023C1F2000C4FF40811C1F200062160338019
S224004F808CF8003006201EA91E932FF015FF07202CF0EAFCFDF719BC2B88DA070BD544F2EB
S224004FA04A33C1F20003B3F900200120BDF9963078492EF069FFBDF89630002B6DD044F2F0
S224004FC04A34C1F20004238044F24A3EC1F2000E0620BEF900102FF089FF44F24C30C1F27C
S224004FE00000BDF99640B0F900309C4233D02B88DB070CD544F25031C1F20001B1F90020BB
S2240050002346012064492EF03FFFBDF9964044F25032C1F20002B2F90030A3427DF4D5AB4E
S22400502044F2583344F25C3644F2FE2C0024C1F20003C1F2000CC1F20006186834708CF888
S22400504000402EF01DFB44F2583EC1F2000ECEF80040FDF7BABB34F08FF844F2FF260A9C2D
S224005060C1F20006337890FBF4F144F2203C89B2C1F2000C022BACF8001003D009B2072035
S2240050802FF034FF44F24C304FF0FF3EC1F20000BDF99640A0F800E0A9E7059E44F24A3CE5
S2240050A03368C1F2000CA3F508139B09ACF800308AE7BDF996409AE7BDF89630002B71D001
S2240050C044F25030C1F20000038044F2583CC1F2000CDCF800002EF0D3FA2B8844F2583E18
S2240050E00022C1F2000ED907CEF800200ED5059C44F250362368C1F20006A3F50813B6F91C
S22400510000209B09012025492EF0BEFEDDF814C044F2503EDCF80020C1F2000EBEF9003054
S224005120A2F50812B3EB921F25D03FB138462EF0D7FA44F25831C1F2000108609DF8682020
S22400514044F2FE2444F2D42644F2D82E44F25C3001231209C1F20004C1F200064FF0000CCA
S224005160C1F2000EC1F2000022703370AEF800C00370FDF72ABB44F25C310023C1F2000135
S2240051800B70FDF722BB00BF3067001038EE0300A8EA03003CED030054ED030028ED030012
S2240051A00803001044F24A31C1F200010A8810045EBF44F25033C1F200031A8085D5059CA3
S2240051C044F250362268C1F20006A2F50812520A0132D20092B211B2B1F5006F3280C4BF68
S2240051E0BA4A138071E70120B949424633462EF04BFEFEF7ADB801200DF19E012CF0D4FA2E
S22400520007281FBF44F24C12C1F20002136843F0020318BF136003E02B88002B40F0948031
S22400522001200DF19E012CF0BFFA0728F4D105200DF19E012CF0B8FA07281FBF44F24C16AD
S224005240C1F20006336843F0020318BF336005200DF19E012CF0A8FA07283EF44FA82B88C8
S224005260002BF4D001209B492EF00EFEEFE745200DF18E012FF07EFE002845D00022ADF8A4
S2240052808E20BB6CF7B24FF48043C4F20203996CBDF88E2021F07F41114326EA010616F020
S2240052A0FF0F3EF402A844F24C1EC1F2000EDEF80000298840F00400CEF8000000293DF4C3
S2240052C0F4AF9B6C012023F07F431343DB4382493A462EF0D9FDFDF7E8BF6FF0070021F064
S2240052E083FE00283DF4BAAF44F24C1EC1F2000EDEF80030012043F00403CEF800307749EE
S2240053002EF0C2FDFDF7AABFBDF88E301B0AADF88E30BA6C1A4032420BD044F24C1CC1F233
S224005320000CDCF800102A8841F00401CCF800100AB9F7B2A7E7BA6CF7B2134001206849CE
S2240053403A462EF0A1FD9EE7012066492EF09CFD66E7012064492EF097FDFDF71CBEFA204B
S2240053600321624AC82323F007FAFDF75FBE01205F492EF089FDFDF751BE00204FF05531F3
S224005380642233F0C3FEFDF702BE514621F070FF331F18BF0123012E0CBF002303F0010372
S2240053A0002B3DF41CAFB6F10D0318BF0123102E0CBF002603F00106002E3DF410AF059E25
S2240053C0B6F5616F7DF60BAF1120514621F050FFFDF705BF44F2003EC1F2000E9EF8003045
S2240053E03A4601204349009601372EF04DFDFDF789BE21466FF0050021F03AFF6B20214603
S22400540022F07EF8FDF77ABE3B4BDFF814911B783A460120394900962EF036FDB9F8002063
S224005420012037492EF030FD0137FDF751BE012034492EF029FDFDF7C5BF012032494A46BA
S22400544023462EF021FDFDF7B5BFD80709D40D200E2123F07FFC2EF0A1FD00202CF06AFA38
S224005460FEE7012029492EF00FFD294B1B88D907EDD5012027494A4623462EF005FDE6E755
S2240054804A462346012024492EF0FEFC328801201B492EF0F9FC0237728801201F492EF03C
S2240054A0F3FCB946FDF7B7BED0B220A92FF04CFD80B20690002845D120A804211DAA1EAB5A
S2240054C02FF042FB1D98FEF7C9BC00BF5043001084EC0300A0EC03006CEC030030EC03005E
S2240054E054EC030090EC0300C0EA030010ED0300D0EA030038EB0300004300100CEB030008
S22400550024EB030004ED0300F0EC0300ACEC0300C2420010C8EC0300B0EB0300C4EB0300EB
S22400552008030010D0B226A92FF024FD80B2069040B926A831461DAA1EAB2FF005FB1D9850
S224005540FEF78CBC0DF19600F4E745F6120CC1F2000C9CF800E000240EF1020E1EAB0221EF
S2240055601DAA1E941D9423A8FE248DF88DE08DF88C402FF0E9FA1DA91EAA30468DF88D6054
S2240055802FF098FA45F6120EC1F2000E9EF800301DA918461EAA8DF88D302FF08BFA45F666
S2240055A01200C1F20000018829B1C9B2C2481DAA1EAB2FF0C9FA38461D9E9DF89F402EF0FC
S2240055C08FF800210290012220464FF0FF338DE8400822F053F9FDF7F8B80120B7492EF094
S2240055E053FCFEF795BF9DF88D40022C7DF4CCAB224626A91FA82EF0C7F82146FE244FF0F3
S224005600000C1EAB1DAA8DF88C4023A80524CDF878C0CDF874C0CDF810C08DF88D402FF0A8
S22400562093FA1DA91EAA30468DF88D602FF042FABDF8980045F6480EC1F2000E1DAA0EEBA8
S22400564080001EAB0421FFF7F7BBFA2021219C4A234623F091F8FEF7F4BA9A4838F06AFED3
S224005660994902464FF480602EF00EFC4FF0000CFE239448CDF878C0CDF874C0CDF810C0DD
S2240056808DF88C3038F056FE1EAB441C1DAA022123A88DF88D402FF057FA1DA91EAA3046A4
S2240056A08DF88D602FF006FA864838F043FE411CC9B21DAA1EAB8348FFF7BEBB44F2FC2029
S2240056C0C1F20000B0F9001004202FF00FFC012024F00CFD00283FF432A97C4BB3F90030F4
S2240056E0002BBFF62CA9662024F084FC44F24E320021C1F200021180FFF721B90C20FCF7CA
S2240057003DF9FEF7FCBB18461EA91DAADDF878A01D931E9322F0E4FD2B881BB101206C4920
S2240057202EF0B2FB1E985146012229F033FCFDF74CB844F25037C1F20007B7F90020012081
S2240057400093644900232EF09FFBFDF7C7B91120002121F08DFDFA202721594A0A2323F083
S2240057600BF8FEF712B82046002623465A498DE850002EF089FB89F82F602EF0FDFABDF988
S2240057809640C9F85860FEF79ABE219B14A814932FF03CFC44F2E82E219AC1F2000EDEF854
S2240057A00030110EC2F30724C2F307409870D9701A705C7001204949219A2EF065FBFDF732
S2240057C004B801204649002233462EF05DFB0127FDF748BC0820434942462EF055FBFDF789
S2240057E0E4BB4EF29D64C0F2030424784FF0030E0EFB04FE069400240EF1070E02211DAA58
S2240058001EAB1E941D9423A8FE248DF88DE08DF88C402FF099F930461DA91EAA8DF88D6000
S2240058202FF048F94FF0010C0426ADF896C0BDF99630069CA34257DC4EF2846EC0F2030E67
S2240058401EF803001DA91EAA2FF034F9BDF996204EF2BC50C0F2030000EB02129368516830
S22400586093FBF6FE0022BEF1000F12DD40F2000CC1F2000CDCF800200C6894424FF0000256
S22400588004D006E051F8040F844202D101327245F8D16FF0030E0EFB023226A89C1A02214D
S2240058A01EAB1DAAADF898402FF04EF9BDF896300133ADF89630BAE7505000107CF0030096
S2240058C010ED030088440010DCED030008430010B8EE030060F00300F4EE0300ACEE030042
S2240058E0F8EA030084E9030040F200061EAAC8201DA9C1F200062FF0DDF83268A74B002443
S224005900DDF82CC0644522DA53F8041F91421ED10134F5E744F2E82EC1F2000EDEF80030C8
S22400592019785A789878DC7841EA022343EA004343EA04630093012099499A4A9A4B2EF0CA
S224005940A3FA002064212BF021FFFCF743BE1EABA40002211DAA26A8ADF898402FF0F4F824
S2240059601EAAC9201DA92FF0A5F840F2000EC1F2000EDEF800208D4B00240C9EB44262DA20
S22400598053F8041B91425ED10134F6E744F2E82CC1F2000CDCF80020512100911078517833
S2240059A09478D67840EA012242EA044242EA06620293642301920393FA2001217C4A0323C8
S2240059C022F0DAFEFCF7FFBD44F2C023C1F200031988784EB1F5CC7FBCF4D6ADD8F80020DF
S2240059E0754801F14C03D41801804FF0040EF82144F2181C02F803E004EB0E076170C1F2FE
S224005A00000C3221A17084F803E0CCF80070D35C328801339B00DBB29B1800211022338080
S224005A20384638F053FC44F2181EC1F2000EDEF80010A278338801200191604900942EF076
S224005A4023FAFCF7A1BDA4001DAA1EAB022126A8ADF898402FF078F8ADE5209B219A23EA8D
S224005A6002032093FEF7CEB9209A219B13432093FEF7C8B94FF0FF301880514B6421198038
S224005A80FCF7F8BF1E940DF1960031461DAA1EAB012406942FF058F81D98FEF7DFB944F264
S224005AA02011444BC1F20001B1F900201B88012044492EF0E9F9FCF737BD44F2C027C1F29B
S224005AC000073888D8F8001000F14C03CA1830800124F920CC5444F2241C50701E20907076
S224005AE0171D0220C1F2000CD070CCF80070CB5C44F2C02E1B1903FA00F3C1F2000EBEF832
S224005B000010DBB25B18967800209BB29080D080AEF8003020462C4932462EF0B5F9FCF7AD
S224005B201FBD12B2012029492EF0AEF9FCF713BB012027492EF0A8F9FCF778BA2EF0C8F854
S224005B402B880446D90705D502792249821801202EF09AF920462DF093FDD8F80030986923
S224005B602EF0B6F82B880446DA0705D502791A49821801202EF088F920462DF081FDFCF770
S224005B8055BA1649164822F02DFAFCF73DBA6FF0030021F029FAFCF727BA00BF68930010DD
S224005BA0A0EA030030410010142A04006891001098EA0300C04200101441001080EA03001E
S224005BC04E4300104CEA030070EA0300D0E90300C0E903009CE90300B0E90300A0E6030074
S224005BE01C4300104FF0FE0E1EAB002402211DAA8DF88CE023A84FF0120E8DF88DE01E9450
S224005C001D942EF0A1FF1DA91EAA30468DF89E602EF050FF04224FF4D01020A92DF0EAFE05
S224005C20209B1DAA013308BF20941EAB042120A82EF08AFF04200422C0F21A0020A92DF0D5
S224005C40D9FE209B5A1C6ED0A3F5D013803B209304211EAB1DAA20A82EF076FF10200422AA
S224005C60C0F21A0021A92DF0C5FE219B5E1C57D0A3F5D013209A823B9B1A219304211EAB03
S224005C801DAA21A82EF060FF0820C0F21A00042220A92DF0AFFE209BD8B203F47F03B3F5DF
S224005CA0981F8DF89E0026D2142824D01DAA04211EAB20A82EF048FF00201DA91EAA8DF8C8
S224005CC09E002EF0F7FE1FB138462DF009FD82461D9B9DF89F008DE80808002101224FF0E1
S224005CE0FF33CDF808A021F0C9FD0020012111F07BFCFCF76ABD1DA91EAA2EF0DBFEE220CE
S224005D0020A92FF021F9C3B28DF89E300BB10023209320A804211DAA1EAB2EF015FFD2E7BA
S224005D2000232193AAE70023209391E74FF0FE0E1EAB00241DAA02218DF88CE023A84FF08B
S224005D40060E8DF88DE01E941D942EF0FDFE1EAA1DA930468DF88D602EF0ACFE21460120F6
S224005D6016F07EFE1EAA03461DA98DF88D302EF0A1FE0121084616F073FE1EAA03461DA908
S224005D808DF88D302EF096FE0221012016F068FE1EAA03461DA98DF88D302EF08BFE032176
S224005DA0012016F05DFE1EAA03461DA98DF88D302EF080FE0421012016F052FE1DA90346FC
S224005DC0FEF7F7BB3E461D98FEF721B99DF88D30002B3CF4FAAC1FA80DF19E0132462DF0C3
S224005DE0D3FC1FB138462DF07BFC82469DF89E109DF89F00524628F09BF8FCF7E6BC44F2A0
S224005E00D022C1F200021388002B3CF4DEAC059C44F24A362368C1F20006A3F50813C3F352
S224005E208F1319B2338006202FF060F8FCF7CDBC00231E931D93FE238DF88C30B34801231F
S224005E408DF88D3038F076FA841CE4B2B0488DF88D4038F06FFA431CE418E4B2AD488DF8E7
S224005E608D4038F067FA431CE418E4B2AA488DF88D4038F05FFA431CE418E4B2A7488DF8AC
S224005E808D4038F057FA00F125021EAB0221A41823A81DAA8DF88D402EF056FE1DA91EAA13
S224005EA030468DF88D602EF005FE984838F042FA1EABC1B21DAA95482EF046FE1DA91EAAC0
S224005EC0A7202EF0F7FD924838F034FA1EABC1B21DAA8F482EF038FE1DA91EAAA7202EF013
S224005EE0E9FD8C4838F026FA1EABC1B21DAA89482EF02AFE1DA91EAAA7202EF0DBFD864868
S224005F0038F018FA1EABC1B21DAA83482EF01CFEA7201DA91EAA2EF0CDFD2B88590708D50F
S224005F207E4838F007FA7E4903467C4A08202DF0ABFF7A4838F0FEF91EABC1B21DAA774805
S224005F402EF002FE1DA91EAAA7202EF0B3FD44F61C3CC1F2000CBCF9CC40BCF9CA20A72380
S224005F6070490DA8009432F015FD0DA838F0E2F91DAAC1B21EAB0DA82EF0E6FD44F61C3EE1
S224005F80C1F2000EBEF9C030A72267490DA832F001FD0DA838F0CEF91DAAC1B21EAB0DA8EA
S224005FA02EF0D2FD44F61C30C1F20000B0F9D030A7225E490DA832F0EDFC0DA838F0BAF94D
S224005FC01DAA1EABC1B20DA82EF0BEFD14A8032126F044FD149BA72255490DA832F0DAFC31
S224005FE00DA838F0A7F91DAAC1B21EAB0DA82EF0ABFD159BA7224E490DA832F0CBFC0DA83E
S22400600038F098F91DAAC1B21EAB0DA82EF09CFD169BA72246490DA832F0BCFC0DA838F0DE
S22400602089F91DAAC1B21EAB0DA82EF08DFD1DA91EAA00202EF03EFDFFF7BDBA9DF88D20C3
S22400604000231E931D93002A3CF4BFAB01221FA822A92DF099FB9DF88800FE238DF88C300E
S224006060042316288DF88D3031D000F2A7800A2800F09B8000F2898003287ED06BD801283D
S22400608058D034D944F69A21C1F200010B78ADF898301EAB02211DAA23A82EF055FD1DA979
S2240060A01EAA9DF89E002EF005FD9DF888001DA91EAA2EF0FFFC9DF88D30062B0FD026A8CC
S2240060C002211DAA1EAB2EF03FFDFDF70EBC45F29414C1F200042378ADF89830D9E720A8CA
S2240060E004211DAA1EAB2EF02FFDFDF7FEBB44F2DC23C1F200031B8844F2DC260024C1F252
S2240061000006ADF898303480C3E700BF5C4B00101C4B00103C4B0010BC4B00107C4B001037
S224006120B0ED0300C0ED0300CCED0300C4ED0300D4ED030044F2DA2CC1F2000CBCF800C067
S22400614044F2DA204FF0000EC1F20000ADF898C0A0F800E09DE7052800F06B81C0F05B817C
S224006160062800F07081072800F09C80FF238DF888300026ADF898608BE744F22D12C1F214
S22400618000021378ADF8983083E7102852D042D80C2838D02FD30E28E8D1059C2368A3F531
S2240061A008139B09ADF8983073E744F2061EC1F2000E9EF80030ADF898306AE7632804BF67
S2240061C04FF4D671ADF898103FF463AF00F29D801A2802BFD8F8003093F83F30ADF8983025
S2240061E03FF457AF77D818286CD063D921F05EFFADF898004DE744F20C10C1F200000088EE
S224006200ADF8980045E744F20A11C1F200010988ADF898103DE7122838D02BD313281AD0A4
S2240062201528A3D145F27912C1F200021378ADF898302EE744F2A036C1F200062988336813
S2240062400622CE068DF88D2020937FF522AF86492DF01AFE1DE744F2103EC1F2000EBEF810
S22400626000E044F210310020C1F20001ADF898E008800EE744F2183CC1F2000C9CF8003047
S224006280ADF8983000238CF8003002E7002021F077FF40F61C43984240F2DD800420FBF711
S2240062A06DFBF6E6FF234FF0000C8DF88830ADF898C0EEE645F2C816C1F200067379ADF8BB
S2240062C09830E6E644F6904CC1F2000CBCF800C0ADF898C0DDE61C2800F09380C0F08C8019
S2240062E01D2829D062287FF441AF44F2CC2E44F24910C1F2000EC1F200009EF8002003780A
S22400630043EA0223ADF89830C3E667284AD038D865282ED025D944F22214C1F20004B4F9FE
S2240063200030D8F800205C1C3FF423AF4C33D35C9B00ADF89830ACE605202BF005FCD8F862
S2240063400030052093F8402062F07F0283F840202BF00AFBFA202721444A052322F00CFAFA
S22400636097E644F2C022C1F200021288ADF898208FE644F22213C1F200031B88ADF8983031
S22400638087E669282DD01ED36A2813D06B287FF4EDAE44F2141EC1F2000EBEF800E0ADF892
S2240063A098E076E644F22010C1F200000088ADF898006EE644F2281CC1F2000CBCF800C025
S2240063C0ADF898C065E644F22011C1F20001B1F90030D8F80020581CA8D10022ADF898201F
S2240063E057E644F6C863C1F200035A781B7843EA0223ADF898304CE627F086FEADF8980012
S22400640047E64AF2CC00CFF6FF7001212DF07EFEADF898003DE646F27473C1F200031A689C
S22400642044F24023C0F20F03B2FBF3F3ADF898302FE644F21434C1F20004236806228DF878
S2240064408D20209325E644F2B406C1F200063378ADF898301DE6002021F092FE04490246B2
S22400646001202DF011FD14E680ED030010ED030098ED03004FF6FF7100B5C0F233014FF446
S22400648010102DF017FB44F2A0304FF41011C1F2000044F22052C1F20002016044F644133C
S2240064A00020C1F200031060E32019605DF804EB2EF0FABC2DE9F047314B0F461B88914665
S2240064C0DB071FFA80FA54D499F8016099F8002004E00136F6B2042E88BF0026964246D027
S2240064E006EB460307EB83039B885345F1D199F80230013B89F80230002E33D0751EDFF81B
S2240065008880EDB2344698F8013004EB4400A34214D005EB450107EB810107EB80000C224E
S22400652037F0AEFE631EBCB1DCB26B1EC5B1DDB298F8013004EB4400A342EAD199F8013023
S22400654099F800200133DBB2042B89F80130C0D9002389F80130BCE704246B1E002DE6D13D
S2240065600425D0E704253446DFF81C80CBE7BDE8F0870120034952462DF086FCA4E700BF64
S224006580C242001014F303006803001070B50DB204462A46013D08490220661CADB22DF010
S2240065A073FC751901E034460136082021462BF0AFFAAE42F7D170BD20F303002DE9F041B2
S2240065C01C461B78154603EB430387B24FEA83088EB232F0D1FD45F808002378174A03EBD6
S2240065E0430305EB83039F802378B7F57A7F03EB430305EB8303DE80237838BF127903EB68
S224006600430328BF527905EB83031A72237803EB430305EB83051EB1094B1B6893F82F6074
S2240066206E7223780133DBB2042B237001D900232370A3780133A370BDE8F08168030010D4
S224006640584A00102DE9F04181B004460FFA81F822F06EF8002860D13E4E3F4D3388DB06BA
S22400666045D42B68A3F51012B2F5801F4FD232883A4FD00658D4B8F1000F07D01FFA88F8DB
S2240066804FEA182384F8328084F833308022214628682DF0D1F9237A627A43EA02225104D5
S2240066A016D428684FF6FE738030C0F23303984288BF294B286084BF4FF4101018603B682F
S2240066C098423DD0C305DB0D4BB101B0BDE8F0814BF6FF7313401A0A23726272E1E700F50B
S2240066E0FE71033101B0BDE8F0412DF0E3B91B4F1B4B39681A6810202B68009119492DF0EC
S224006700C3FB2B68A3F51012B2F5801FAFD3052001B0BDE8F0412EF001B81349012001B0F0
S224006720BDE8F0412DF0B0BB39680D4A1020126800910C492DF0A8FBB8F1000FA6D09DE7FC
S224006740064A0023E320194613602EF0ADFB2868B8E700BFC2420010A04300104449001094
S224006760D84900104CF3030034F3030030B5C0B281B0032839D8DFE800F0332E29021C480C
S2240067800E21FFF703FF1B4A1B4B15881C8825F020051580194A0134FF250020462115702A
S2240067A01C802AF0F3FF07200DF103012AF0FCFF0728F8D132F0E0FC114B00221B68C0181F
