S017000042696E732F4D333033362E50524F442E73726563D6
S224000000DCFF001001010000E9000000ED000000F1000000F5000000F90000000000000039
S22400002000000000000000000000000041040000FD000000000000001104000015DE02006F
S22400004099010000B50103009901000009FD020099010000DDE10200D9E20200D9E30200D1
S224000060DDE402009901000061FA02009DFB020099010000990100009901000099010000BF
S2240000809901000001DE020099010000990100009901000099010000990100009901000044
S2240000A099010000A1F2020099010000990100009901000099010000990100009901000070
S2240000C0990100009901000099010000E1E502009901000099010000590303009901000058
S2240000E09901000000000000FEE700BFFEE700BFFEE700BFFEE700BFFEE700BFFEE700BF89
S2240001001B4B1C4900B58B4206D21B4A52F8040B43F8040B8B42F9D3204821494FF0000201
S2240001208842B8BF40F8042BFFF6FAAF1D4880F30988124B124A186812499342086005D263
S2240001401149096843F8041B9342FBD30F4B0BB100E000BF0E4B13B100E000BFFEE70D4B24
S22400016013B100E000BFF9E700F0BAF9F6E700BF00000010E40300101D530300A88D001039
S224000180DCFF00107C5A001000000010000000000000000000000000FEE70000E40300109D
S2240001A0B4680010A88F0010000000000000000000000000000000000000000000000000C7
S2240001C000000000000000000000000000000000000000000000000000000000000000001A
S2240001E00000000000000000000000000000000000000000000000000000000000000000FA
S2240002000000000000000000000000000000000000000000000000000000000000000000D9
S2240002200000000000000000000000000000000000000000000000000000000000000000B9
S224000240000000000000000000000000000000000000000000000000000000000000000099
S224000260000000000000000000000000000000000000000000000000000000000000000079
S224000280000000000000000000000000000000000000000000000000000000000000000059
S2240002A0000000000000000000000000000000000000000000000000000000000000000039
S2240002C0000000000000000000000000000000000000000000000000000000000000000019
S2240002E000000000000000000000000000000000000000000000000000000000FFFFFFFFFD
S22400030000B58AB00AA8362340F8283D41F6F1736846C1F6FF7305A9984706980AB000BD2D
S22400032010B44FF44043C4F20F034FF40242C3F8C420D3F8A02142F02002C3F8A021D3F819
S224000340A0114FF440424906C4F20F02F7D54FF4D853C0F2B70301219842C2F80C1138D982
S22400036046F23A0414604FF460630924C2F88440C0F22773C2F88010AA21C2F88C10B3FB78
S224000380F0F05521C2F88C10002829D0A0422DD14EF2C0123A244FF48470C0F2E4024FF429
S2240003A040431A49C4F20F030A60C3F804011A461C60D2F888305B05FBD54FF44043C4F256
S2240003C00F030422C3F8A8210122C3F8002110BC7047C2F804113A2111600C4A1360ECE7A3
S2240003E045F23A0440F201101A46D8E793FBF0F24CF66B23511EC6F65F33A3FB0143DC0D59
S224000400240340F4807044F03A04C8E7B468001072B6EFF3088020E9F00F2C4981F308882C
S2240004204FF000014DF804ED62B629F053FD72B65DF804EBB0E8F00F80F3088862B67047EB
S22400044072B6EFF3088020E9F00F204981F308884DF804ED62B629F069FD72B65DF804EB57
S224000460B0E8F00F80F3088862B6704700B52AF03DFD72B6164880F30888A0F580601549A9
S224000480154AA2EB0101A0EB01001249134AA2EB010300EB0302014640F0010000F002F842
S2240004A0FEE700BF074C084D00B5AC42034605D254F8040BAC4241F8040BF9D31046984796
S2240004C0FEE700BF6C33030074350300A88F0010DCFF00106C3303007435030074350300F9
S2240004E0CA4ACB4B80B51A602DF088FDC94900230B80C94901220B80C849C94C0A70C9494A
S2240005004FF460600A70C84922700B70C749C0F227700B70C6490B70FFF702FF00202DF0A9
S2240005207DFD28F069FD4FF48043C4F202035A6CD50700F1AE809A6C100500F1AA809A6C00
S224000540002A00F0A6805A6C12F47F0F40F0B2809A6C42F400629A644FF48043C4F202033D
S224000560996C48F2FF4241F000419964C0F21E024FF080435A6003221A70AA221A7255227B
S2240005801A7230F093F82FF037FE2FF0E9FB2FF0DBF92378002B40F0868005202CF008FA96
S2240005A002204FF4165100222EF09EF801204FF4E12100222EF098F8002002464FF416514C
S2240005C02EF092F8042042F6A00100222EF08CF82AF088FC974DAF1D6E1C15F8018F4046B2
S2240005E0B8F1000F08D028F09FFD06EB08131B7D0A2B53D0BD42F0D10120022128F03AFE62
S2240006008D4B01221A701A785AB14FF44042C4F20F024FF47061C2F8C01030BF18780028E2
S224000620F9D1002525702FF06BF92FF0FBF92FF0FDFB2EF033FD012030F066F82DF07AFD03
S2240006404FF44043C4F20F03D3F8C4104FF48043C4F2020348F260021965C2F209024FF08F
S2240006600071D1614FF080431C7848F2800204F001041C70AA21C4F202024FF0FF3055248F
S22400068019721C72D060D06219721D722AF02EFCFEE74FF48043C4F2020359E740460221ED
S2240006A028F0FCFCA6E700202EF01EFE01202EF01BFE72E72FF0FAFF2FF09EFD2FF050FB51
S2240006C02FF042F905202CF073F92AF00BFC64244FF47A702DF00EFD013CF9D12FF0A2F94F
S2240006E02FF0A4FB2FF0B8FD2EF0D8FC012030F00BF82DF01FFD022022F07EF84FF4804245
S224000700C4F202024FF400614FF44043D464C4F20F0311650121C3F804113A211960D3F8A9
S224000720A810C9050BD5AA21C3F8A040C3F8AC105521C3F8AC10D36C43F00203D3644FF493
S2240007404042C4F20F02D2F8A8104FF4404311F48071C4F20F03F6D1D3F88820D2050FD550
S224000760C3F88010AA21C3F88C104FF480425521C4F20202C3F88C10D36C43F00103D364CE
S2240007804FF44042C4F20F02D2F888404FF4404314F48074C4F20F03F6D14CF2B010C4F231
S2240007A00F0048F26001C3F80C41C2F20901C3F8A04104604FF00070C8614FF40241C3F8AB
S2240007C0C4104FF46D421D21C3F8C010CEF20002136943F00403136130BF2AF087FB4FF4CB
S2240007E08042C4F20202516C4FF0804341F001015164FF21596003211970AA2255211A727D
S22400080019721A721C722AF071FBFEE7B8680010584200105E42001068430010BC4300106F
S224000820B84300105C420010C04300104442001061420010733503006042001000B581B05B
S22400084001A941F8040D0220694628F0F1FD009801B000BD00B581B001200DF1030128F0A1
S224000860CBFD9DF8030001B000BD00BF2DE9F0477F4C85B02378FF2B7DD00020694601AA0D
S22400088021F066F82378054643B10099019A794B0131013283E806000020207002A9E520DC
S2240008A02BF05AFE03A90446E6202BF055FE012801D0012C62D1DFF8C49141F6FF73B9F876
S2240008C000209A4200F0C280009A0199694B1DB91868904200F0C180B9F800001A605960C0
S2240008E0654F002870D14FF6FF7801264FF4C015614CC0F218082CE094F804A020684FEA5F
S2240009000A6A4AEA102A227B0098D4F808C01206C0EB0A000028B8BF404242EA1C229042FD
S22400092014D294F808A060684FEA0A6A4AEA102A227C0198D4F80CC01206C0EB0A000028F1
S224000940B8BF404242EA1C22904274D345458EB20BD01122284648492AF0CAFD3B78711C1E
S2240009609A1DD2B21135042AC6D90023A9F8003005B0BDE8F08701232370F9E7E72004A914
S2240009802BF0EAFD049B13B942F210730493009A0299891A0029B8BF49428B42019906DD4A
S2240009A00398401A0028B8BF404283425ADCDFF8CC9041F6FF73B9F80000984286D1002340
S2240009C0A9F800302B4B87E7C004C00C01382A4F00EB0010112200F5C01039462AF088FD0A
S2240009E03B780633DBB2042B3FF67DAF3A793868120642EA10203B7B009AB9681B06821AF4
S224000A00002AB8BF524243EA11239A42BFF46BAF3A7A7868120642EA10203B7C019AF968D7
S224000A201B06821A002AB8BF524243EA11239A42BFF459AF9CE7FE2BA9F8006098D0C3F1FE
S224000A40FE0346EA43360D4B1E8091E70022A9F800200199009A074B3EE7586881427FF4F5
S224000A603BAF85E7054B41F6FF721A8080E700BF34440010EC030010184400103C440010E0
S224000A8044F25823C1F200031B6800229A80DA809A60DA601A615A61704700BFF0B5C5B2D5
S224000AA0002383B0022D0193009300F0BE8002238DF808301E238DF8093002216A4601ABF7
S224000AC002A82BF04BFB2DF07BFB5B4B5B4C1B78A060013BDBB2022B88BF594B4FF0030E62
S224000AE089BF1B686FF0090318785E7881BF9978DA7840EA062343EA0143504E88BF43EADC
S224000B00026384F810E005F001074FF0560E6A46E3600B2101AB84F811E006F10800A7740D
S224000B202BF01CFB052028F0A1FC464B1B68DA88002A4CD09988B1FBF2F23275986848F652
S224000B408902C8F68802A2FB00106169400960F317216161D868E169A2FB0062C2F34F1211
S224000B60100A2076E2751869A26901F07F4160F31722A261187D0022E0765E69022D41EA6F
S224000B801621E1612D4884F82020E27724D02E4B90F82010D3F8C44093F8C720B3F8C0304C
S224000BA041EA042180F825302423016280F8242080F82630132114306A4601AB2BF0CEFA28
S224000BC03FB9052028F064FB009803B0F0BD3275B4E7FFF755FFF4E793F83F401A4A00238C
S224000BE080F82030D2F8C460DDB2B2F8C03092F8C71080F8253045EA06222423C4770262A6
S224000C0080F824106A46132180F8263001AB14302BF0A4FA052028F03BFB04216A460DEB88
S224000C2001030A482BF09AFACEE704238DF8083020238DF8093040E746440010EC03001050
S224000C40DC43001058420010104C0010A859001070B500B287B028B1A54B1C8814F48064D2
S224000C6000F0B1802AF0CAFC002402200C2120F001FB0590002800F09480002303704370E5
S224000C808370C37006230371059E022343710323B371234624B1BDF90C30002B18BF02236F
S224000CA00025F3716620294601224FF0FF3300964FF080760196029520F02AFB61200DF170
S224000CC01A012BF05FFC064600286DD1BDF81A30DA046BD502200D2120F0CCFA05900028CC
S224000CE05FD0067046708670C67006220271059B0222427103229A71224624B1BDF90E2005
S224000D00002A18BF0322DA7100934FF0807300210193BB2001224FF0FF33029120F0F8FADF
S224000D204C200DF10E012BF02DFC10B10023ADF80E30642003A92BF025FC10B10023ADF835
S224000D400C30BDF80E309B0705D5BDF80C3013F4805300F0CF8002200D2120F08BFA05905F
S224000D60F8B10023037043708370C37006220271059B0222427103229A71224624B1BDF921
S224000D801020002A18BF0322DA7100934FF0807300210193222001224FF0FF33029120F0BA
S224000DA0B7FA204607B070BDADF81A5007AD002345F8083D294616202BF010FB172029465A
S224000DC02BF00CFBACE70B2003A92BF0DBFB08B1ADF80C400C200DF11A012BF0D3FBBDF804
S224000DE01A3018B10023ADF81A300023BDF90C201BB201249A42A4BF4FF0FF33ADF80C3041
S224000E000DF10E01A8BF002417202BF0BBFB10B10023ADF80E3016200DF11A012BF0B2FB4F
S224000E20BDF81A3018B10023ADF81A300023BDF90E201BB29A42A4BF4FF0FF33ADF80E306C
S224000E4004A9B8BF012464202BF09CFB0546E8B9BDF81030D90419D5212004A92BF092FBCC
S224000E6008B1ADF8105020200DF11A012BF08AFBBDF81A3018B10023ADF81A300023BDF903
S224000E8010201BB29A4201DA012403E04FF0FF33ADF8103002214FF0FF3012F007F9032184
S224000EA003464FF0FF30002B18BF002412F0FEF800287FF4D7AE002C3FF4D4AE03A82AF092
S224000EC0E1F9044600283FF4D0AE03A82BF046F8BDF80C1039BBBDF80E10F9B9BDF81010ED
S224000EE000293FF4C2AE09B220202BF007FBBCE60644001007AD45F8083D29461F202BF00E
S224000F006DFA294620202BF069FA294621202BF065FA222029462BF061FA42E709B21620CD
S224000F202BF0ECFADAE709B20C202BF0E7FAD2E7F0B5B54D4FF6FF722B8883B0934238D02E
S224000F401A051C0B120DADF80A40A4182DF038F94AF28053AD4ACAF63C531268C3180093F1
S224000F60577811789678D07841EA072141EA064144F6251241EA0061C2F29242A2FB016076
S224000F8044F207560F1A00EB5700CCF22E268008A6FB0373C0EBC000091A89B201EB134392
S224000FA0A2FB03129B1A02EB53029208A24200924AD80C250124284602A92BF0E3FA0135B4
S224000FC0002808BF00240F2DF5D11F25284602A92BF0D8FA0135002808BF0024232DF5D14E
S224000FE002A916202BF0CEFA02A903461720002B08BF00242BF0C6FA02A903460A20002BC3
S22400100008BF00242BF0BEFA98B9BDF80830D3F1010338BF00231C4011D12DF0D1F846F291
S2240010203F73C4F6A333984200902FD820B203B0F0BD012300261C40ADF80860EDD0002036
S22400104026F008FA0024F1E72888BDF80A3000F470401BB1013B9BB2ADF80A309B186C4C95
S22400106003432B8021686B4B03221A800029A0D1DF202BF063FA0190002800F0CF8004F07F
S22400108037FB2060644B08221A7092E74BF2C533C9F2A213A3FB00734AF6AB22DB0ACAF655
S2240010A0AA22A2FB031244F207541509CCF22E24A4FB006405EB450543200DF10A01A3EBB7
S2240010C0C5052BF05FFABDF80A30240CDAB2172AADB205DD03F47F4303339BB2ADF80A3085
S2240010E0B3F5006F02D90327ADF80A70BDF80830A3425ED0002026F0ADF9BDF80A30BDF830
S224001100082013F47F4017D1944276D00132944271D003200023019326F09CF90120FFF7F2
S22400112097FD002862D021B20A202BF0E7F9002026F090F9012479E7944238D0180AC11CA3
S224001140C9B2062901D9011FC9B2D01F8442E0DBD01D8442DDDC009E44F20750CCF22E2058
S224001160A0FB067044F62516000CC2F29246A6FB0076871B06EB5706B608C6EBC606801B6F
S224001180C0B288423BD042F29340521A631AC9F2492080FB031580FB0260D917ED188318EF
S2240011A0D217C1EBA501C2EBA3039942B1D100243CE7009944F20753CCF22E23A3FB0123FE
S2240011C09DF80A004FF4A3421B0CC0F201024FF4616606FB00F002FB131398428AD200F51E
S2240011E0167083422CBF0020012084E70A2001A92BF0F4F89BE79D428BD2044616E7DBB29B
S2240012009D4286DA002411E7F0430010DC4300104C440010FC430010F243001046F2590334
S22400122003A8CEF2ED2340F80C3D224601AB042168462AF093FF03A841F2EC3320F8023DC6
S2240012400221224601AB2AF089FF1BE740F2EC33C1F20003188D003018BF0120704700BF64
S22400126003B2022B10B519D002202AF03BFC03242AF05AFC2046013427F0F0FF072CF7D133
S224001280032000211FF0FEFD0020022127F01AFF2AF04AFC002027F0E1FFFEE700216FF0AC
S2240012A003001FF0C3FE00216A201FF0BFFE00216E201FF0BBFE00216FF005001FF0E2FDF5
S2240012C000216B201FF0B2FE692001211FF0AEFECAE700BF2DE9F04F5F4F93B03B884FF67A
S2240012E0FF791AB2002ABFBF03F500639BB21AB23B80B2F5006FC1BFA3F500639BB21AB224
S2240013003B80013AD417640D12195205520D141B002604F50844DFF85481DFF83CB1A401E6
S22400132011961096C0F223094FF0FD0AD8F800304C4588BF4FF408144022022501369C4262
S224001340204669468DF848A08DF84950F6B214446FD02AF0CDF89DF818E029460EF11B0EA6
S22400136010AA11AB12A88DF849E02AF0F7FE294610AA11AB38482AF0F1FE9DF8491010AA65
S224001380023911AB6846C9B22AF0E8FE3B8801339BB21AB2B2F5006F3B80C4BFA3F50063C9
S2240013A0ABF800300F2EC1D100242C4B2C4A1B78106803EB43032B4A9B001370054610B197
S2240013C029F0D6FD054602200E211FF053FF119000283FD0109BDFF89880C3F30741C3F3F9
S2240013E007271A0E8170C2700370477098F80030119F0622027103F00F0305224271BB712F
S2240014000023FB713846109729F0F2FD80B2030A38727B7298F80000109900F00F0041F0CC
S2240014208071BE722A461FF033FF20B213B0BDE8F08F294610AA11AB12A82AF08FFE11AB1A
S2240014400548294610AA2AF089FE074B3F8801241F80AAE70124E8E744440010CC43001057
S2240014604C440010C84300104044001010440010F2430010CB1C13EA210338BF0B469B1074
S224001480002B30B413DD0B4A0568126895420ED1002203E050F8044FAC4202D101329A42E6
S2240014A0F8D1C2EB82729000081830BC70470020FAE700BF000000102DE9F041074683B0D3
S2240014C00D460220102116461FF0D4FEFFB2044648B3062303710423437113234FF0000839
S2240014E083710223C37180F8008080F8018080F8028080F8038080F8088080F8098030463D
S22400150029F036FD0646380940EA071701224FF0FF33F8B241468DE870001FF0F9FE034BA7
S224001520012283F82A2003B0BDE8F081EC0300102DE9F04F3E4F8AB03B68B3F5806F34BFAD
S22400154099464FF48069B9F1000F67D0DFF8E480DFF8E4A04FF0000BB9F1F00F34BF4D467C
S224001560F025ADB208AB022107AA6C1D09A86FF00106CDF820B0CDF81CB08DF824608DF817
S22400158025402AF0EBFD0D2007A908AA8DF825002AF09AFD2748042107AA08AB2AF0DEFD08
S2240015A015B344F2F833C1F2000318682EB2102EA8BF1026B6B234B203A9224629F098FFFA
S2240015C008ABF1B203A807AA2AF0C8FD3B68D8F80000AD1B1B1B2018ADB2C4EB09093B6011
S2240015E0C8F80000002DE1D144F20246DAF80000C1F20006079D347829F0BAFC4FF08073ED
S224001600019302900021204601224FF0FF3300951FF07EFEB9F1000F9ED13B6823B9064B6C
S224001620186808B129F074FC0AB0BDE8F08F00BFD4430010F8430010E443001070B5052350
S22400164084B08DF8003003208A238DF8013027F00DFF02226946D6202EF01CFC02240020AE
S224001660012127F02FFD002522466946D6208DF800408DF801502EF00DFC2846012127F065
S22400168021FD01261F2322466946D6208DF801308DF800602EF0FEFB2846314627F012FDF4
S2240016A03623D620694622468DF800508DF801302EF0F0FB032027F0EBFD04B070BD00BF69
S2240016C02DE9F04F034690B0DBB203200B9327F0CDFE0CAA0B234FF48071D6202EF016FCB9
S2240016E0032027F0D5FD9DF83A309DF833C09DF832E09DF836409DF831709DF830609DF8B0
S22400170037509DF835809DF834909DF839A09DF838B043F26462C0F203020A93F9200B9BA1
S22400172027218DE800500594029703960495CDF81880CDF81C90CDF820A0CDF824B020F037
S2240017408BFD0121002027F0BDFC05238DF830300320BA238DF8313027F088FE02220CA981
S224001760D6202EF097FB0020012127F0ABFC01240B2302220CA9D6208DF831308DF83040C1
S2240017802EF088FB2146002027F09CFC00230CA98DF83030D620B72302228DF831302EF0B8
S2240017A079FB032027F074FD1020062121F00CF810B0BDE8F08F00BF2DE98048A6B02EF0A4
S2240017C0CDFFBE4A002313805380DFF81C8344F20C4044F2CE3144F2D03244F2D43644F2CC
S2240017E0F83744F2E43CC1F20001C1F20002C1F2000CC1F200004FF41674C1F20006C1F24B
S22400180000070B800370138033603B60CCF80030A8F82C402CF0D4FC0BA92BF065FC0B9B3B
S224001820B3F5FA6FC0F292816120A5492AF0AAFE03B23BB144F2B6304FF0000EC1F20000DF
S224001840A0F800E029F066FE44F2B631C1F20001034644F2DC320888C1F200021360C0F3C5
S22400186043101FF083FF44F2B633C1F20003054618881FF09BFF924C0246294600202CF045
S22400188033FF642021462AF07DFE002840F0548144F2B637C1F200073888894CC0F34310EC
S2240018A01FF064FF054638881FF080FF2946024602202CF019FF44F2DC3CC1F2000CDCF82A
S2240018C0003044F2464E19785D789A7841EA0521DB7841EA024242EA0363B3F1FF3F0CBF3F
S2240018E004230023C1F2000E472021468EF800302AF048FE98B144F2DC30C1F2000003684B
S224001900197858789A7841EA0021DB7841EA024242EA0363013300F00C810022228044F204
S2240019200D430024C1F20003082066491C702AF029FE20B144F2C436C1F2000634806249BB
S224001940624820F081F8042061492AF01BFE30B144F2F03C0027C1F2000CACF8007044F2DB
S224001960FC3E44F2424244F2F3330024C1F2000EC1F20002C1F2000307205649AEF8004016
S22400198014801C702AF0FEFD50B144F2144644F2F337C1F200060223C1F2000734803B7025
S2240019A006204D492AF0EEFD68B144F23E4E44F214404FF0000CC1F2000EC1F20000AEF897
S2240019C000C0A0F800C044F23E41C1F20001B1F9003044F240444FF0FF32C1F20004B3F51E
S2240019E0006F228002DD3C4B00261E8044F2444744F2504C44F24C4E44F2F23444F2C836B4
S224001A000023C1F20007C1F2000CC1F2000EC1F20004C1F200067F2023A93B808CF800301A
S224001A20CEF80030237033702AF0ACFD98B9BDF88C0030F0D3FE30F093FA28A30CCB30F0C0
S224001A400FFC0022C3F6F072002330F02BF930F0BFFD244F386000201FF022FE4FF4804396
S224001A60C4F202039B6C44F2642C23F07F43C1F2000C0320CCF8003020F0D6F83E200DF1F4
S224001A8086012AF07FFD18B14FF0000EADF886E0BDF886306FF0090003F00F0319B2ADF8BB
S224001AA086301FF0EFF945200DF186012AF06AFDE0B10020ADF8860018E000BFAC43001077
S224001AC0B6430010C44300100836030010440010F0430010144400103E440010006AF8405D
S224001AE000000000DC030010EC030010BDF8862044F2FE34D3B2C1F2000419B26FF00400C6
S224001B002270ADF886301FF0BDF94FF08043AA221A72552200201A7220F06EFE83B218B216
S224001B2045F66016C1F200060028338015DDFFF797FBFF212180F2E6612021462AF022FD27
S224001B4000283FF4A5AE00262680A1E648F2F060C3F66E002CF03AFB66E64FF48043C4F275
S224001B60020300225A642EF0F9FD002842F0AF840320012144F2C4371FF084F9C1F200071E
S224001B80082000211FF07EF93B88002B02F09984C44D4FF4FC7128682AF0D2FD2B68186827
S224001BA0002842F06E842B689A694AB948F2F45149F64132C2F20601C0F26B5219635A63A7
S224001BC093F84020012062F07F0283F840201FF067FD5C20B4492AF0D5FC44F2064CC1F234
S224001BE0000CBCF8002044F24A4E120AC1F2000E8EF8002012B1531E8EF80030AA4C41206E
S224001C0021462AF0BFFC002840F0868323889B0640F18483A54C0694207044F2BE37002434
S224001C20C1F2000721466A20A8F8284088F82E4088F82F4088F82A403C801FF0F7F99C4B83
S224001C4021461C606C201FF0F1F949200DF18A012AF098FC03B21BB14FF0030CADF88AC0B9
S224001C605A2094492AF08EFC18B94FF0030EADF88AE0BDF88A00002100F007001EF058FF78
S224001C8046208C492AF07EFC28B144F2F4310020C1F20001088044F2F432C1F20002138834
S224001CA06FF00500C3F3C1235B00591CADF88A301FF0E8F84FF0FF302EF006FB45F66016C5
S224001CC08310C1F20006DFF804B27B4C44F2382E44F23A2044F22C214FF0FF3C002733805C
S224001CE0C1F2000EC1F20000C1F20001734EDFF8E0A1DFF8E091ABF80070AEF800C0278036
S224001D00A0F800C0A1F800C000222B689F1897F84C1019B3B2F5D67F20D202F14C0019188C
S224001D204A78FA2A00F0D9818A781E2A00F0E281322A00F08982142A18BF1A5C00F03F823E
S224001D40BBF80030013203EB82022B6892B2ABF800209F1897F84C100029DBD144F2064C5D
S224001D60C1F2000CBCF800309C0508D544F23A2EC1F2000EBEF90030013302F0DF8344F239
S224001D802C21C1F20001B1F90030013302F0AA834B4A002344F2C4341380C1F20004494A4D
S224001DA044F2344621884FF0040C1380C1F20006022221273270C8F80430C8F80030A8F898
S224001DC03070A8F832C0A8F834C0002942F0B38400239AB226A8013344F22C46002400EB7E
S224001DE04201C1F20006042B26F8124021F8404CEFD144F2F63C44F2D83EFF23C1F2000C49
S224001E00C1F2000E0727442022A98CF800308EF80030ADF88C702AF0B5FB002801F0D18759
S224001E202420ADF88800BDF88830642202FB03F344F23822C1F200021288ADF8883044F2D4
S224001E404023C1F200031A800320062127F012FA0B202121002227F0BFFA14210A461B233B
S224001E60194827F0DDF9052348200DF18A0188F854302AF087FB002802F03E815B23ADF85A
S224001E808A30BDF88A300A2202FB03F345200DF18601ADF88A302AF075FBE8B10024ADF8C0
S224001EA0864019E05842001006440010F7430010B0430010F44300104844001034420010A4
S224001EC0E84300103C44001024040010B44300103C420010384200109DF886306FF004002D
S224001EE019B2ADF8863044F208461EF0CBFF44F2044744F2364C44F2E03E44F2384044F2EA
S224001F0000410023C1F20001C1F20006C1F20007C1F2000CC1F2000EC1F2000033603B80B0
S224001F200B80ACF80030AEF800300380FFF786FBA84A0421A84B48F6A8565418C1F2000602
S224001F401B1B921BA54F93FBF1F392FBF1F108970A930991A24827F0C9FA1B2800F0048271
S224001F602128F7D10B201AA927F0BAF81A9C002C01F0D28414F0007708BF3E4640F03885B8
S224001F80204631461FF0D8FA84B204F00F03012B00F27884DDF868A005222AF04F431DA8B3
S224001FA018A904F0010407941D9329F035F8052840F0F3839DF86130002B40F0EE838DF887
S224001FC0963099469DF864305A1E8DF86420002B71D002221DA821A929F01EF802280446EB
S224001FE040F0DB839DF88430122B00F0F58600F2A1810C2B00F2BC830B2BC0F0C98400208E
S224002000322127F05FF89DF8852000211DA829F003F8204609211FF02DF91B90002899D0C5
S2240020200023037043708370C3701B9E062333710423224621A97371B01D0B238DF8843035
S2240020408DF8854031F0FCF820A960202AF09AFA032319461A4630B9BDF8803003F00702F6
S224002060D1B2C3F302239DF86000ADF88020040944EA001002228DF896208DF8970031725A
S22400208073721FB1384628F073FF81461B9B9DF896208DE808049DF897004FF0FF33002177
S2240020A0CDF808901FF034F99DF864305A1E8DF86420002B8DD1B8F828303BB144F2BE3037
S2240020C0C1F20000038843F0040303801D98002800F0DD8328F01CFFD9E31A5C12F0030F5A
S2240020E042F0FB8192081A54F9224A708A781E2A7FF41EAE44F23A2EC1F2000EBEF9003081
S224002100013364D144F23820C1F20000B0F900305F1C02F053808F882868ADF84870B1F84A
S22400212006C00A1DCAF8002003F14C01ADF84AC0425C5433013241189200C018CDF810C02B
S22400214031F087F8B9F80020296813B24C33CB183068191DCAF8001044F23A2102F1080E17
S2240021600830C1F200010A80A9F800E030609F80DDF810C0A3F806C044F23A27C1F200075D
S224002180B7F900302A684C33D1181E2088700220C870D05C012802BF208840F0080020803A
S2240021A001200431D054CAF80010D25CBBF80030121803EB820292B2ABF80020A5E544F25A
S2240021C03827C1F20007B7F9002001320AD0BBF800209AE5A88F0010DCFF0010DC03001091
S2240021E018360300BBF8002027881FFA82FEBEF1080F47F00107BFB2316008BF5849278058
S22400220004BF47F002070F80A9F800E0195C3E2901BF218841F004012180195C4B1C02EBC1
S2240022208303B3F5D67F9CBF9AB2ABF800207FF66CAD44F2382E4FF0FF3CC1F2000E002324
S224002240AEF800C0336060E544F22C20C1F20000B0F900300133BAD144F23822C1F2000229
S224002260B2F900707B1C01F0A08744F2302C0B1DC1F2000CCCF800301946102212A830F0B7
S224002280DFFF2B6807F14C015A5C07F16000013259181818920030F0DCFF3068B9F80020AB
S2240022A000F1140C2F68C6F800C011B244F22C2C4C31C1F2000C7B1802F1140EACF80020FA
S2240022C01E229A70A9F800E0042244F2302EDA70181DC1F2000E01237B541022CEF8000049
S2240022E012A930F0ADFF44F22C22C1F20002B2F900302A684C33D118042044F2302C0F1867
S2240023004FF0320EC1F2000C81F802E0C870D054CCF80070D25C13E50E202080114E012318
S224002320337000204FF0FF314FF4FA7206962BF011FF72E41A2B00F29182192B80F0AC826E
S224002340142B00F05086C0F0DC85182B00F0C3859DF885201DA8002128F05EFE32E600BF7C
S22400236048440010F743001044F2BC41C1F20001B1F900300022B3F5967F88F82A2000F315
S224002380348344F2D432C1F200021368002B40F0298398F85430013BDBB288F85430002B02
S2240023A07FF4D8AD44F20844C1F200042368AE49BDF88C200133052081F854002360002A31
S2240023C046D044F22226C1F200063378AA204FF0804108725520012B08721CD944F2C4377B
S2240023E0C1F200073988B1B144F20D4CC1F2000C9CF800109D4C09290DD8013B19219C4AAD
S224002400FA201FF029FF2378012101332370994BBDF88C201970013A94B2ADF88C40BCB9AD
S2240024204FF0070EADF88CE06526274644F22C40C1F2000016A9235A0A5B9A4200F0CB8726
S22400244016A80353023401370136082CBFB2EDD1B8F8283013B1844A013B138544F2FC318A
S224002460C1F20001B1F90030834C012B00F3D082002BC1F2748044F2504CC1F2000C9CF892
S224002480003043B344F2F23EC1F2000E9EF80030082B01F0A68644F2C830C1F20000047877
S2240024A0013CE4B20470B4B944F2CC31C1F200010A88013292B213B2052B0A8001F3B587C4
S2240024C0012B06DD44F24442C1F2000213880F3B1380FEF7FFFE00201FF05EFB0446032018
S2240024E01FF0A2FB0646002C00F09586032026F0BDFF012308210DF19502D6202DF006FDBB
S224002500032026F0C5FE2B6893F94030002BC0F21B8444F66030C1F20000B0F90030002B2E
S224002520C0F2EF8344F2E03E4FF0000CC1F2000E1120AEF800C01EF079FB002800F00E8152
S2240025409DF895305A0706D444F20440C1F2000003880133038011201EF068FB002800F0B8
S224002560338340F252339E4240F286859DF8957017F0040740F0808544F23641C1F200018A
S2240025800A88531C12B29BB2B2F5617F0B8081F284870A2B01F0628740F2180CC1F2000C70
S2240025A09CF80030354F5B0613D444F2084EC1F2000EDEF800300A2B0BD92BF001FE46F2C8
S2240025C04073C4F6A3339842C2BF3B7843F040033B7040F2523305209E4240F2338426F0C9
S2240025E045FF2B6805209A6801329A6026F050FEBDF8883073B9BDF88A30B34240F2D686BC
S224002600B8F8323033B1013B174A9BB25386002B01F03D876D201EF009FB002800F0FA83E8
S224002620052026F023FF2B6893F840209C8722F07F0242F07E0283F84020052026F028FE16
S22400264068201EF0F3FA0346002840F0C08344F2C434C1F20004228892B1B8F82C20B2F599
S224002660167F01F007870BE0EC0300100D4400107836030022420010FC430010180000105A
S22400268044F20646C1F200063388DF0540F16B86B8F82C30013B9BB2A8F82C30002B00F08D
S2240026A06286B3F5157F07D144F67637C1F200073B8843F020033B8072201EF0B7FA70B92A
S2240026C044F2354EC1F2000E9EF800303BB144F67631C1F200010B8843F400630B80069CDA
S2240026E044F235462378C1F200063070002B40F06B85B8F8303003F00302032A00F03B8500
S22400270003F01F021F2A2ED043B1013B9BB2A8F830301BB9BD4B4FF434721A86052026F03C
S224002720A5FE44F6603444F2FE33C1F20003C1F2000444F24A4619782288C1F200063378EA
S2240027404A4042FA03F3D80703D52B68DA6A0132DA62052026F09CFDFFF7FCBB11200121E7
S2240027601EF090FBECE6FEF7E3FBB8F83030CBE70E2B00F05282C0F03D820F2B7FF4E8ADA6
S2240027809DF885200E2A10D01DA8002128F044FC9DF8853098423FF415AC1D9828F0B8FB0C
S2240027A0384628F0B5FBFFF7D5BB07211EF062FD1B9000283FF4CEAB0024047044708470F4
S2240027C0C4701B9B0E220626991D1E715A711DA828F022FC0E28E0D12046012129F0CEF855
S2240027E01C90002801F06A861B9BC0F30741020EC0F307249970DA7018705C701B9828F00E
S224002800F7FB9DF860300246190941EA0313022008218DF896208DF897301EF02BFD1C903D
S22400282000283FF497AB1B9B1A0EC3F30724C3F30741C2700370447081701C9B02225A7149
S22400284010221E719A719DF896201B93DA7101238DF89630002F7FF415AC17E4FD2B00F07E
S2240028607881FE2B00F0F580202B7FF471AD01239DF8852088F82F301DA8002128F0CCFBEE
S224002880FFF7A0BB1A9820F04F4028F041FB384628F03EFBFFF75EBB9DF88560012E40F284
S2240028A07186012B40F0F4834FF0000C0020022EADF88EC0324600F0FC839DF88430012B5F
S2240028C003D0B21ED2B28DF8852000B2031C18BF01237F28CCBF002303F001031946002B00
S2240028E000F0F784022A08D000211DA828F094FB9DF8853098427FF450AF24A99DF88E0051
S22400290029F040FE02221DA820A928F085FB02287FF443AFBDF88E301AB27E2A3FF752AB68
S2240029209DF88420BDF89040192A02BFBDF880202243ADF890200ED01A2A02BFBDF8802089
S22400294024EA0202ADF8902005D0022A04BFBDF880C0ADF890C0D8B2BDF9901029F0CEFD99
S224002960BDF98E30452B02F023853E2B02F01685462B02F0F282472B7FF424ABBDF89060AE
S22400298044F2B63CC1F2000CACF80060FFF71ABB022B81D0032B00F07882012B7FF4D8ACC3
S2240029A0079C002C3FF4D4AC9DF88560002E7FF475AF1FB1384628F0DBFA81469DF860401A
S2240029C0002024091034FEF769F88DE801040421204601224FF0FF33CDF808901EF098FC73
S2240029E0FFF7F0BAFEF7A4FDD3E403F0A1FEC8E424F04F4630461AA91FF076F81A9B04F09F
S224002A004F441C4337461A94FFF7BABAEC030010002020F035FF0028FFF62DAD0220FEF7B9
S224002A203DF844F24C42C1F200020646106828F09FFA4FF0FF33074600961820042101229A
S224002A404FF08076019602971EF062FC0123238011E59DF88510002900F0EF8301221DA846
S224002A600DF1960128F0D8FA9DF885309DF89660013B8DF885309DF860301A0942EA0313FD
S224002A800C2E8DF8973000F0EA8300F2EB84052E01F0848501F2FC80022E01F0398701F27D
S224002AA09681002E40F08886FE241CAB02211BAA8DF8844021A807241C961B968DF88540D3
S224002AC029F04CFB1BA91CAA30468DF8966029F0FBFA44F2F63EC1F2000E9EF800001BA983
S224002AE01CAA29F0F1FA02211BAA1CABC64829F035FB44F2D831C1F2000108781CAA1BA904
S224002B0029F0E2FA8DF8966046F21042C1F20002905D1BA91CAA29F0D7FA9DF896600136DE
S224002B20F6B2012E8DF89660EED91FB1384628F01FFA81461B9B9DF897008DE808040021AD
S224002B4001224FF0FF33CDF808901EF0E1FBFFF739BA9DF88530032B7FF434AA01220DF1C2
S224002B6097011DA828F058FA22461DA80DF18E0128F052FABDF88E309DF88520033A1E045F
S224002B8042BF03F50063ADF88E309BB28DF885201AB2B2F5006FC4BFA3F50063ADF88E3037
S224002BA09DF89730042B3FF60DAA0FF2080E5EF823F000BF3B52000035520000B351000042
S224002BC0C51F00006351000044F23647C1F200073B8801339BB2282B3B807FF4DDAC11206C
S224002BE001211EF04FF9FA202721884A01231FF033FBD1E49DF88560002E00F07984042E47
S224002C001DA800F0CD840021324628F005FA9DF8853098423FF4D6A9BFE54F2024A929F02A
S224002C20B1FC18B14FF03C0CADF890C09DF885201DA8082A7FF4A9ADBDF8904014F4806432
S224002C407FF4A3AD04221EA928F0E6F9042806467FF4A3AD2BF0B4FA1E9B1EA9C31AB3F5BF
S224002C60967F1DA8324682F06B8028F0D5F904287FF493AD1E982BF0A9FA40F2180EC1F25C
S224002C80000E9EF80030022043F040030B218EF800301EF0EFFA1B9000283FF45BA904706C
S224002CA044708470C4709DF860301B9E1A0942EA03135FFA83FE06233371022373710D2310
S224002CC0B371F47121460122704600964FF0FF334FF080768DF897E0019602941EF018FBA0
S224002CE01E9A4FF46A5302F57C3202F59062C0F20903B2FBF3F319B2092029F0FFFBFFF73B
S224002D0061B944F20041C1F200010B8801339BB21AB2B2F5616F0B8016DD052026F0A6FBB8
S224002D2044F25822C1F200021368052093F8402062F07F0283F8402026F0AAFAFA202721D4
S224002D40324A05231FF088FA44F66037C1F200073B8840F64572DB0B94428CBF002303F0E1
S224002D600103002B3FF4DEABB4F57A7F7FF6DAAB9DF8953013F0300F7FF4D4AB44F2E03CE7
S224002D80C1F2000CBCF80020214B002A40F04E8444F2384EC1F2000E0120AEF800401880E7
S224002DA044F2E037C1F20007B7F900305A2B7FF4C7AB112001211EF065F80B23FA2027216F
S224002DC0124A1FF049FA9DF89530FFF7BBBB4FF4167CA8F82CC06FE49DF885300024012B2C
S224002DE0ADF88E4000F0C58298F82A3013B19DF88520C9E43A469DF860000AF04F41FEF79B
S224002E005BFB9DF88520BFE41E4D001078360300E0430010052026F029FB40F20402C1F2D1
S224002E20000291892B68A1429C87974A80F08E8293F8402022F07F0242F0650283F8402085
S224002E40FFF7FBBB26F012FB2B680520DA680132DA6026F01DFABDF88830002B3FF4DAABBA
S224002E609C4280F0F082B8F83430002B3FF4D2AB013B864A9BB29386002B7FF4CBAB0A20EE
S224002E8006211FF0A1FCFFF7C5BB079C9DF88520002C41F08181012A41F27381032A1DA864
S224002EA00DF18E0101F06081022228F0B5F802287FF473ACBDF88E301AB2FF2A01F03381FC
S224002EC07F2A3FF47FA8D8B21CA900231C9329F085FAFFF777B89DF885201DA8002128F0D4
S224002EE09BF8079E002E3FF46DA81FB1384628F03FF881469DF860402409103421F00EFBFB
S224002F0063E59DF885300021042BADF88E107FF66BAF98F82E30D9073FF566AF04221DA8F6
S224002F201EA928F079F8042801F02684BDF98E30012B7FF459AFD8F858001E9A0024904284
S224002F4088F82F4040F032879DF896305BB93FE00C791C190C719DF89610CB1ADBB28DF89D
S224002F609630002B34D01D9A54791179A34228BF234651181A468DF8973028F091FE1D99A2
S224002F809DF897304C791E9AE41A9818E4B202461E904C71002CDBD108784C788A78CB78FB
S224002FA040EA042040EA024242EA036301201C9326F0C6F81C9B9DF896101D939DF897301C
S224002FC01E98CB1ADBB202468DF89630002BCAD1D8F8583093423CBF2C4B9A65F023A8F81A
S224002FE02830FEF7EFBF9DF885200024022AADF88E407FF4F9AE1DA824A928F00DF80228E1
S22400300001F0D186BDF98E30012B7FF4EDAE1421002026F057F828F089FE44F2BE3CC1F279
S224003020000CBCF80010030A43EA0023BDF890209BB241F00401ADF89230ACF800101AB988
S2240030405A1CADF8902092B29A427EF4BBAF0020782126F037F898F82F303BB90B4B01224A
S22400306083F82E20042002211FF0AEFB4FF0000EA8F828E0FEF7A6BF44F236430022C1F2B0
S22400308000031A80FFF788BA04000010EC03001002221DA80DF18E0127F0BEFF02287FF45C
S2240030A07CAB9DF88560BDF88E00022E32467FF404ACA0F180039BB25F2B40F26B863046D8
S2240030C00A211EF0D7F81B9000283EF443AF00231C90037043708370C370BDF88E201B98BB
S2240030E011B206247F290471437141F36481DF29D8BF059301F34F8100231C9300283EF4CD
S22400310061AF27F075FF9DF8603002461909022041EA031301468DF896208DF897301EF041
S224003120A9F81C9000283EF415AF1B9BC3F307241A0EC3F30741C2700370447081701C9B61
S22400314006221A7104225A7102229A719DF89620059C02321B93DA7114B1FF26ADF88E6001
S22400316003F108000DF18E01022230F069F8002F7FF4DCACDEE444F23440C1F20000037858
S224003180022B01D0FDF772FB4FF0FF302DF09CF845F66011C1F200010B88C0F38F0419B2A8
S2240031A020B2461A0336AA4A062E9CBF1480B8F830307FF6A5AA884240F332820433138039
S2240031C0B8F83030FFF79CBA03F064F9C60440F1F28042F21003034000F00C02002B00F02E
S2240031E06182042A0CBF06220522DDF818C09CF8003093423FF47DAA43F2086EC0F2030E91
S22400320094490EEBC2030A70002059699A692AF0A1FFFFF76EBA052026F028F92B680122C5
S22400322083F84020052026F033F844F2004EC1F2000EAEF80040FFF759B90A461DA88DF87B
S224003240961027F0E9FE9DF860309DF896601A0942EA03130C2E8DF897307FF416AC45F6BA
S224003260321CC1F2000C9CF800E000240EF1020E1CAB02211BAA1C941B9421A8FE248DF817
S22400328085E08DF8844028F069FF1BA91CAA30468DF8856028F018FF45F6321EC1F2000E16
S2240032A09EF800301BA918461CAA8DF8853028F00BFF45F63210C1F200000188002901F02C
S2240032C02882C9B21BAA1CAB634828F047FF01F020BADF2840F3EB81042A07D01DA827F0DD
S2240032E09BFE9DF8853098427FF457AA04221DA81FA927F091FE04287FF44FAABDF88E3034
S224003300FF2B0CD144F2464EC1F2000E9EF80020032A04D99DF88420022A01F00286D8B2EE
S2240033201EA929F019F99DF88430192B02F05F801A2B02F05580022B04BF1F9B1E939DF83C
S2240033408E001E9929F0B8F8FEF73CBED189A1426BD293F8402022F07F0242F0510283F873
S2240033604020FFF76AB90B2003211FF02DFAFFF7A3B998F82E6016F001067FF435AD1A4618
S2240033801DA80DF19701ADF88E308DF8974027F043FE9DF89730012818BFADF88E60BA2BE2
S2240033A000F015870020ADF88E001DE50420A8F83200FFF72FB944F2F637C1F200073B7883
S2240033C007229C073FF511AF00F00C02042A0CBF0222012209E7002231462048ADF88C20A8
S2240033E02AF092FB0020322125F06CFE44F2C43CC1F2000CBCF800302BB1FA200321184ADA
S22400340033461EF029FF0FFA87F9B9F1010F01F04980012009211FF0D7F944F22C4EC1F26E
S224003420000E34F80E30FFF70BB8118AA14280F06B8693F8402022F07F0242F03D0283F80D
S2240034404020FFF7FAB80421A8F83410FFF7E2B860590010F7430010705100109836030011
S224003460783603001E2E01F0118600F2C181112E00F0B58500F24C810D2E01F09E840E2EDC
S2240034807EF4A0AD02244FF0000C1CAB4FF0FE0E21461BAA21A8CDF870C0CDF86CC08DF885
S2240034A084E0CDF810C08DF8854028F057FE1BA91CAA30468DF8856028F006FE21461BAAA5
S2240034C01CABBB4828F04AFE38461B9E9DF8974027F04EFDDDF810C0029061462046012251
S2240034E04FF0FF338DE840041DF012FFFEF76ABD3146092029F002F81B961C962AF060FED5
S22400350004211BAA1CAB06461FA81F9628F026FE1B9827F06DFD03468DF896302046092397
S22400352004218DF897301DF0A5FE1C9000283EF411AD1B9B1A0EC3F30726C3F30741C270B0
S2240035400370467081701C9B06221A715C710D229A719DF896201B93DA71FFF7E6BA44F2CB
S2240035604246C1F20006338801339BB21AB2962A33807EF780AF00272780662020F012F977
S224003580FEF779BF324600211DA827F045FD9DF88560B0427FF401A99DF88430FFF781B940
S2240035A01EA9324627F038FD04287FF4F6A800231B931C932AF004FE042104461BAA1CABA7
S2240035C01EA81F9428F0CAFD04211BAA1CAB1FA828F0C4FD1B9827F00BFD9DF860300246FE
S2240035E0190941EA0313022006218DF896208DF897301DF03FFE1C9000283EF4ABAC1B9B36
S2240036001A0EC3F30724C3F30741C2700370447081701C9B06221A7102225A710E2297E74D
S224003620191F1180B8F83030FFF76AB8013292B211B2B1F5E16F1A800ADB44F23841C1F283
S2240036400001B1F9003004F132029A42C1F2B08344F2E032C1F20002B2F900303C2B7FF4ED
S2240036609FAB032025F002FF012308210DF19502D6202CF04BFC032025F00AFE9DF89530ED
S22400368003F03002D2F1010138BF0021302A14BF0A4641F00102002A41F0598345490A8023
S2240036A0FEF750BF042A0CBF042203229DE51B931C938DF8963082B91FE01BAA9DF8970068
S2240036C01CA928F001FD9DF896309DF885200133DBB29A428DF896300FD901221DA80DF1BF
S2240036E0970127F099FC0128E7D01C9827F010FC1D9827F00DFCFFF7CAB8BDF88E00002812
S22400370001F043841CA9C0B228F068FEFEF75ABC142E00F0BF841D2E7EF454AC032025F0C2
S224003720A5FE12AA4FF480710B23D6202CF0EEFB032025F0ADFD4FF0FE0E1CAB00241BAAEB
S22400374002218DF884E021A84FF00D0E8DF885E01C941B9428F002FD1BA91CAA30468DF850
S224003760856028F0B1FC1CAB0B2112A81BAA28F0F5FC2B681BA993F840301CAA18468DF824
S224003780853028F0A1FC1B9B38469DF89760049327F0EEFB049B02908DE8080430462146D4
S2240037A001224FF0FF331DF0B3FDFEF70BBC00BF70680010E0430010012E7EF403AC9DF838
S2240037C08530002B3EF4FEAB1DA80DF19601324627F022FC1FB1384627F0CAFB81469DF89C
S2240037E096109DF897004A4622F07AFFFEF7EABBCD2E01F01B845CD8642E01F07B847F2E4F
S2240038007EF4E0AB9DF88520022A08D000211DA827F002FC9DF8853098427EF4BEAF022246
S2240038201DA80DF18E0127F0F7FB02287EF4B5AFBDF88E4026B230462EF0D4FF2EF090FBBD
S22400384033A30CCB2EF00CFD0022C3F6F07200232EF028FA2EF0BCFEDDF820C0CCF800009E
S2240038609DF89600002C01F07684314628F046FE00241C941B94FE241CAB02211BAA8DF855
S224003880844021A803248DF8854028F067FC9DF896001BA91CAA28F017FC0DF18E0002211B
S2240038A01BAA1CAB28F05AFC002F7FF43FA9FFF741B9FA2E01F0BA83FE2E7EF483AB44F237
S2240038C05042C1F2000214788CB944F24C4344F2F236C1F20003C1F200061868347027F0FE
S2240038E017FB44F24C4CC1F2000CCCF8004044F2FC3EC1F2000EBEF90030002B41F03382F7
S22400390044F2FC340023C1F200042380FEF75ABB006AF8400000000098F82F30002B41F0C8
S2240039207F83DDF818C09CF80030002B41F07083002303201A931EF077F94FF48043C4F293
S224003940020344F6603E9A6CC1F2000E9EF8001002F07F420A434CF6CD46DFF82C830446F3
S2240039609A64CCF6CC464FF08045AA2700200A2125F0A8FB1A9BA6FB0302D20802EB8202F2
S224003980B3EB420F02D155222F722A720133B3F5167F1A9301F22C8398F80030002BE5D04C
S2240039A0012002F00BFF28F095F8002106466FF006001DF067FA01216FF001001DF036FB40
S2240039C0A6F10A03DFF8C482DBB20022012BA8F8002041F2F182AA4D4620294628F0D2FD2D
S2240039E00146002800F02A8100232B80692001211DF01CFB44F2F436C1F2000631786FF0FA
S224003A0003001DF013FB3388AA214FF080421172552113F40055117200F0F087C3F3C12323
S224003A20590001316FF005001DF02CFA6B2001211DF0FCFA28F04EF80F280546064647B28A
S224003A4009D8012101FA07F248F2A013134013B16C201DF0EBFADFF834924A20494628F03A
S224003A6091FD002800F0F3804FF0000CA9F800C06E2000211DF0DAFA4FF08042AA210023FD
S224003A8011725521117218468DF895301EF084F80F2D814640F2CA80B9F5616F06D840F266
S224003AA052339C4202D901238DF89530122000211DF0BCFA40F2040EC1F2000E9EF8003074
S224003AC043B19DF895701220002F00F06D8701211DF0D8F96B4A4FF080431188AA221A7266
S224003AE0552206201A722CF0DFFE44F264200023C1F20000102E036040F2858044F2F431DC
S224003B00C1F200010B889B0400F1C8864FF4804344F2F436C4F20203C1F200069D6C3388DD
S224003B206FF003001D401DF081F8338803405D40ADB2002D40F0718603201EF075F840F21D
S224003B4052339C4294BF00220122984294BF002301239A421FBF44F26421C1F200010B6855
S224003B6043F0010318BF0B60B8F800309F0740F01A8603201EF058F840F25232904294BF15
S224003B8000230123944294BF002201229A4208D03BB144F26427C1F200073B6843F0010376
S224003BA03B60002001464FF4FA722AF0D3FA4FF48043C4F202035A6C12F0010014D144F6BF
S224003BC0603C9A6CC1F2000C9CF8001002F07F420A439A64962125F075FA01201EF00CFE69
S224003BE00446002800F00F86002001462CF066FA4FF48043C4F202035B6C27F095FF002093
S224003C0025F02CFBFEE7012173B201FA03F342F2120261F31F42134223D04FF48043C4F245
S224003C2002035A6C42F001025A64A2E7012303FA07F717F4134F7FF432AF2DE7B5F9003066
S224003C40002BBFF6D3AE69201DF0F0F9D2E6B9F8003098073FF40CAF6E2001211DF0E6F9BD
S224003C600AE7190540F1448268201CF0DFFF00283FF47FAF0D200E211EF0A6FDCDE700BFBE
S224003C80F4430010E8030010E4030010CA430010092E00F0058300F2B282062E00F031831C
S224003CA0082E7EF48FA94FF0FE0E1CAB002402211BAA8DF884E021A84FF0120E8DF885E006
S224003CC01C941B9428F04AFA1BA91CAA30468DF8966028F0F9F904224FF4D0101EA927F078
S224003CE007FC1E9B1BAA013308BF1E941CAB04211EA828F033FA04200422C0F21A001EA9BD
S224003D0027F0F6FB1E9B5A1C00F0F882A3F5D013803B1E9304211CAB1BAA1EA828F01EFA6F
S224003D2010200422C0F21A001FA927F0E1FB1F9B5E1C00F06983A3F5D0131E9A823B9B1AEC
S224003D401F9304211CAB1BAA1FA828F007FA0820C0F21A0004221EA927F0CAFB1E9BD8B21B
S224003D6003F47F03B3F5981F8DF8960080F03683142800F033831BAA04211CAB1EA828F0B1
S224003D80EDF900201BA91CAA8DF8960028F09CF9FEF7CBBEC0B228F0D1FB04461B900028D5
S224003DA000F0F48400260596FFF7A6B99DF896201DA8214627F030F98DF896401E9AFFF7C0
S224003DC007B99DF88830ADF88830FEF72CB8032E00F07585042E7EF4F5A84FF0000C4FF0B5
S224003DE0010EFE23B948CDF870C0CDF86CC08DF885E0CDF810C08DF884302FF07BFA841CBB
S224003E00E4B2B3488DF885402FF074FA431CE418E4B2B0488DF885402FF06CFA431CE41822
S224003E20E4B2AD488DF885402FF064FA431CE418E4B2AA488DF885402FF05CFA00F1250271
S224003E401CABA41802211BAA21A88DF8854028F085F91BA91CAA30468DF8856028F034F99A
S224003E609A482FF047FA1CABC1B21BAA974828F075F91BA91CAAA72028F026F994482FF014
S224003E8039FA1CABC1B21BAA914828F067F91BA91CAAA72028F018F98E482FF02BFA1CAB3F
S224003EA0C1B21BAA8B4828F059F91BA91CAAA72028F00AF988482FF01DFA1CABC1B21BAA17
S224003EC0854828F04BF91BA91CAAA72028F0FCF882482FF00FFA1CABC1B21BAA7F4828F087
S224003EE03DF91BA91CAAA72028F0EEF844F61040C1F20000B0F9CC40A723B0F9CA20784928
S224003F000BA8009429F0E6FD0BA82FF0F3F91BAAC1B21CAB0BA828F021F944F61041C1F279
S224003F200001B1F9C030A7226E490BA829F0D2FD0BA82FF0DFF91BAAC1B21CAB0BA828F052
S224003F400DF944F61042C1F20002B2F9D0306649A7220BA829F0BEFD0BA82FF0CBF91BAA10
S224003F601CABC1B20BA828F0F9F812A8032121F007FC129BA7225D490BA829F0ABFD0BA811
S224003F802FF0B8F91BAAC1B21CAB0BA828F0E6F8139BA72255490BA829F09CFD0BA82FF058
S224003FA0A9F91BAAC1B21CAB0BA828F0D7F8149BA7224E490BA829F08DFD0BA82FF09AF9F7
S224003FC01BAAC1B21CAB0BA828F0C8F8DDF810C01BA960461CAA28F077F8FFF775BA0023AE
S224003FE01C931B93ADF88E30FE244FF0060C06E001339BB21AB23F2AADF88E3032DC1CABB5
S22400400002211BAA21A88DF885C0CDF810C08DF8844028F0A3F81BA91CAA11208DF885606A
S22400402028F052F81BA91CAA9DF88E0028F04CF8BDF98E0046F25072C1F2000202EB8000B0
S2240040401CAB1BAA042128F089F8BDF88E3046F2507E1AB2C1F2000E5EF82220DDF810C0CE
S224004060002AC5D11B9B38469DF88E409DF89760049326F07DFF049B0134E4B200934FF0F3
S2240040808073019302900021304622464FF0FF331DF03EF944F2C430C1F200000388002BBB
S2240040A03DF490AF44F21041C1F200010B6844F23E42A3F50813C3F38F13C1F2000219B29C
S2240040C01380062028F01AFAFDF77CBF504C0010104C0010304C0010B04C0010704C00104B
S2240040E07C3603008836030080360300903603005A053FF53EAD01E5BDF88A3023F47E4318
S224004100ADF88A30FDF7BDBE528AA24293F8402022F07F0234BF42F0290242F0010283F88E
S2240041204020FEF78ABA9DF88520022A08D000211DA826F071FF9DF8853098427EF42DABC9
S22400414002221DA80DF18E0126F066FF02287EF424ABBDF98E2045F2AA539A427DF432AF38
S22400416028F0CEFAFDF72EBF01220026ADF88E6026F052FF9DF88530013B8DF88530FEF781
S22400418099BE00211DA826F047FF9DF8852090423EF484AEFEF701BB1DA8002126F03CFF29
S2240041A00020FCF755FDFDF70DBFBBF8000044F22C21C1F200010880FEF795B8BBF800204E
S2240041C044F23A23C1F200031A80FDF7D5BFBDF98E30012B00F01B81002B7DF4F3AEFEF711
S2240041E003BE00201FF060FB00287EF454A901201FF05AFB00283EF46EA9FEF74CB90A2EB0
S22400420078D00B2E7DF4DEAE4FF0FE0E1CAB00241BAA02218DF884E021A84FF0060E8DF873
S22400422085E01C941B9427F099FF1CAA1BA930468DF8856027F048FF2146012010F0D2FBE9
S2240042401CAA03461BA98DF8853027F03DFF0121084610F0C7FB1CAA03461BA98DF88530BA
S22400426027F032FF0221012010F0BCFB1CAA03461BA98DF8853027F027FF0321012010F067
S224004280B1FB1CAA03461BA98DF8853027F01CFF0421012010F0A6FB1BA90346FFF76DBA1D
S2240042A04FF0000CFE23B648CDF870C0CDF86CC0CDF810C08DF884302FF01CF81CAB441C81
S2240042C01BAA022121A88DF8854027F047FF1BA91CAA30468DF8856027F0F6FEA8482FF0FD
S2240042E009F8411CC9B21BAA1CABA54827F036FFFFF7EAB821F02AFAFDF764BE00231E9364
S22400430008E59DF88530FF228DF896202BB11DA80DF19601012226F07FFE9DF896000026C8
S22400432020A91CAA01280CBF0220304620961C961DF0E2FCFE2320988DF8843026F058FE8C
S2240043401CAB441C1BAA022121A88DF885401B961C9627F003FF06231CAA1BA918468DF824
S224004360853027F0B1FE20991B9826F0E7FD1B9B38469DF89740049326F0FAFD049B0290E2
S2240043808DE808042046314601224FF0FF331CF0BFFFFDF717BED0B21EA928F0DDF880B22B
S2240043A00590C0B91EA804211BAA1CAB27F0D6FE1B98FEF7A1BED0B224A928F0E3F880B20D
S2240043C0059040B924A831461BAA1CAB27F0C6FE1B98FEF791BE0DF18E00F4E71BA91CAAB8
S2240043E027F072FEE2201EA928F0B6F8C3B28DF896300BB100231E931EA804211BAA1CABDB
S22400440027F0ACFEFEF791BB00231F9399E4002488F82F4027F032FCBDF98E30C8F858401F
S224004420002B7DF4CFADFEF7DFBC44F24C4344F2504644F2F237C1F20003C1F20006C1F2BD
S2240044400007186834703C7026F062FD44F24C4CC1F2000CCCF80040FEF73DB811203946E0
S2240044601CF010FDFA202721464A3B461DF0F4FEFEF792B8FA202121424A1DF0EDFEFEF798
S224004480FFB827F0FDFA26F043FDFDF78CBB022005211EF099F9FEF7BDB80220FDF710F950
S2240044A0FEF77AB864201CF0C1FB00283EF4B1AF062049461CF0E6FCFEF7ABBF1B98FFF71F
S2240044C015B9314931481DF0BFFAFDF761BB6FF003001CF0ABFBFDF74BBB002387F84C3014
S2240044E0FDF73CBCBBF80000294CB0F5CC7FBDF44FAC2968274E00F14C028B1830804FF030
S224004500040EF82001F802E05870322003EB0E07987083F803E044F23023C1F200031F6050
S2240045208B5C228801339B00DBB29B1823803846002110222EF0AAFEFDF72ABCBBF800000F
S224004540154C296800F14C022080012088548B18F92058701E2098701E1D0220D870CAF857
S22400456000608A5CBBF80010013202FA00F2D2B200205218ABF800209880D880FDF7FFBB1D
S2240045807C450010783603000836030010440010B44300102C4200103A42001043F2056440
S2240045A0C0F2030424784FF0030E0EFB04FE059400240EF1070E02211BAA1CAB1C941B9467
S2240045C021A8FE248DF884408DF885E027F0C6FD30461BA91CAA8DF8856027F075FD059C4A
S2240045E00126ADF88E60002C41D0012343F2EC56C0F20306F05C1BA91CAA27F065FDBDF964
S2240046008E3043F27C5CC0F2030C0CEB031399680024CA1C31EA210128BF114689100029B4
S2240046205B6811DD40F2000EC1F2000E1A68DEF800000024824204D006E053F8040F8242A7
S22400464002D101348C42F8D1A40002211BAA1CAB24A8ADF8904027F081FDBDF88E20059C89
S224004660013292B213B2A342ADF88E20BEDDC8201BA91CAA27F028FD0A9E002E78DDDFF876
S22400468078C340F2000EC1F2000EDCF80010DEF8003099426CD16246002303E052F8040FCC
S2240046A0814203D10A9C0133A342F7D19B000221ADF890301BAA1CAB24A827F04FFDC92010
S2240046C01BA91CAA27F000FD099E002E52DD48F6A85C40F2000EC1F2000CC1F2000EDCF85D
S2240046E00020DEF800309A4244D1C14B002403E053F8041F8A4203D1099E0134B442F7D1E3
S224004700A4001BAA1CAB022124A8ADF8904027F025FD38461B9E9DF8974026F029FC0021C8
S2240047200290012220464FF0FF338DE840041CF0EFFDFDF747BC44F2DC3EC1F2000EDEF859
S224004740002056210091107851789478D67840EA012242EA044242EA066201920293039370
S224004760FA200121A34A03231DF076FDFDF730BB00239BE70024C3E79DF885300122043B67
S224004780ADF88E208DF89630FEF7D0BB1C940DF18E0031461BAA1CAB0124059427F0DEFC08
S2240047A01B98FEF7A9BC01200DF1960124F098FC07281FBF44F26422C1F20002136843F05D
S2240047C0020318BF136001200DF1960124F088FC0728F8D105200DF1960124F081FC0728C5
S2240047E01FBF44F26426C1F20006336843F0020318BF336005200DF1960124F071FC0728B6
S224004800F8D1FFF7B6B90D200E211DF0DDFF27F08BF9204624F022FDFEE745200DF186011D
S22400482027F0B0FE10B10027ADF88670BDF886204FF48041120A44F2F43CADF88620C4F249
S2240048400201C1F2000C896CBCF80030D8B219401140054029421FBF44F2642EC1F2000E6D
S224004860DEF8001041F0040118BFCEF800104FF48041C4F20201896C21F07F410A4323EA8D
S22400488002032B421FBF44F26420C1F20000036843F0040318BF0360FFF74EB96FF0070014
S2240048A01CF0C4F900283FF431A944F26422C1F20002136843F004031360FFF727B9002363
S2240048C01C931B9327F050F80446ADF89240FE241CAB02211BAA8DF8844021A805248DF8C5
S2240048E0854027F03BFC1BA91CAA9DF8960027F0EBFB02211BAA1CAB0DF1920027F02EFC6E
S22400490027F014FAADF892000DF19200FEF7C7BF9DF8852000231C931B93002A3DF452AB19
S22400492001221DA820A926F077FB9DF88030FE228DF884200422162B8DF8852000F04D815C
S22400494000F230810A2B00F0D48000F2BF80032B00F08C807CD8012B69D05AD944F68E31F6
S224004960C1F200010B78ADF890301CAB02211BAA21A827F0F3FB1BA91CAA9DF8960027F04D
S224004980A3FB9DF880001BA91CAA27F09DFB9DF88530062B3FF430AD24A802211BAA1CAB20
S2240049A027F0DCFBFEF7C1B839461CF06BFA2B1F18BF0123012D0CBF002303F00103002B23
S2240049C03FF488A8B5F10D0318BF0123102D0CBF002503F00105002D3FF47CA8B9F5616F96
S2240049E07FF678A8112039461CF04CFAFFF772B8A88D001074360300AC8F001029466FF0F0
S224004A0005001CF03FFA6B2029461CF00FFBFFF711B844F2D033C1F200031B8844F2D036AA
S224004A200024C1F20006ADF8903034809DE744F2CE3CC1F2000CBCF800C044F2CE304FF011
S224004A40000EC1F20000ADF890C0A0F800E08CE7052B31D022D3062B18D0072B0ED0FF233F
S224004A608DF880300026ADF890607EE744F24522C1F200021378ADF8903076E7FF234FF0DC
S224004A80000C8DF88030ADF890C06EE744F21026C1F200063378ADF8903066E746F6B40311
S224004AA0C1F200031A6844F24023C0F20F03B2FBF3F3ADF8903058E744F20844C1F20004EC
S224004AC0236806228DF885201E934EE7102B38D028D80C2B1ED015D30E2BC0D144F210426C
S224004AE0C1F200021368A3F508139B09ADF890303BE744F2222EC1F2000E9EF80030ADF8F1
S224004B00903032E744F22420C1F200000088ADF890002AE744F22621C1F200010988ADF855
S224004B20901022E7122B31D026D3132B13D0152B95D145F29921C1F200010B78ADF890303C
S224004B4013E744F29444C1F20004236806228DF885201E9309E744F2044CC1F2000CBCF81A
S224004B6000C044F204404FF0000EC1F20000ADF890C0A0F800E0F8E644F20C46C1F200066A
S224004B803378ADF8903000233370EEE600201DF003F840F61C4398427FF6E7AE0420FCF7AE
S224004BA08FFDE2E6632B04BF4FF4D670ADF890003FF4DBAE44D81A2B02BF2B6893F83F3022
S224004BC0ADF890303FF4D1AE1FD8182B15D00CD91CF09EFFADF89000C7E645F2B422C1F26A
S224004BE000021378ADF89030BFE645F2E824C1F200046379ADF89030B7E644F68856C1F276
S224004C0000063688ADF89060AFE61C2B00F08E80C0F087801D2B29D0622B7FF420AF44F25F
S224004C20C03C44F2612EC1F2000CC1F2000E9CF800209EF8003043EA0223ADF8903094E683
S224004C40672B45D033D8652B29D023D944F23A24C1F20004B4F900302A68581C3FF402AF06
S224004C604C33D35C9B00ADF890307EE6052024F0FDFB2B68052093F8402062F07F0283F8FB
S224004C80402024F005FBFA202721C74A05231DF0E3FA6AE6BBF80010ADF8901065E644F23D
S224004CA03A22C1F200021288ADF890205DE6692B2CD01ED36A2B13D06B2B7FF4D0AE44F2F6
S224004CC02C2EC1F2000EBEF800E0ADF890E04CE644F23820C1F200000088ADF8900044E6AF
S224004CE044F2402CC1F2000CBCF800C0ADF890C03BE644F23821C1F20001B1F900302A6815
S224004D00591CADD10022ADF890202EE644F6E873C1F200035A781B7843EA0223ADF89030A9
S224004D2023E621F085FDADF890001EE64AF2CC00CFF6FF70012126F071FDADF8900014E688
S224004D4026F06AF904283DF43DA9FDF726BD112000211CF097F8FA202721934A0A231DF055
S224004D607BFAFEF71DB844F2F030C1F20000B0F90010042027F0C2FB01201EF081FD002860
S224004D803EF4BEAD894BB3F90030002BBEF6B8AD66201EF007FD44F242420021C1F2000255
S224004DA01180FEF7ADBD0126ADF88E60FEF72FB90C20FCF785FCFEF74BBC9DF88530072B4F
S224004DC07DF600A97A4904221DA826F025F91DA87849042226F020F93FB1384626F0C8F8B1
S224004DE044F2E431C1F20001086044F2F832C1F2000210686E4B441C1DD0B0F5001F06D317
S224004E0044F2D436C1F2000632680A2A7AD09DF8973044F2F83C44F2024E20F00F00C1F25E
S224004E20000CC1F2000ECCF800008EF80030FCF77FFBFDF7C7B8002405201C601C941B9422
S224004E40FE2624F013FB4FF0DB0CADF8904002211CAB1BAA21A88DF885C0CDF810C0544CF5
S224004E608DF8846027F07AF90D231BA91CAA18468DF8853027F028F9204644F2F8340421C3
S224004E80C1F200041BAA1CAB27F068F923682A684C33D018D6211BAA1CAB27F05FF9BDF827
S224004EA0903022680133D6329BB22260012BADF89030DDF810C0CAD9052024F0E9F944F26E
S224004EC0E4311B9EC1F20001D1F800E002224FF0FF3300969DF8970000214FF0807601965E
S224004EE0CDF808E01CF014FA0023236044F2D43244F2E434C1F20002C1F200041360236054
S224004F00FDF760B80A21A0F58012CFF6F0711A604118104626F04AFB264B00221A60FDF783
S224004F2051B81F9B12A8129327F078FB44F2DC301F9AC1F200000368110ED970C2F307245F
S224004F40C2F3074044F246411A705C709870C1F2000100230B70FDF735B8BDF890305C40F1
S224004F6014F4C05F3DF42EA8C3F3C12244F2F4345200C1F20004511C23806FF00500ADF8E5
S224004F8090201BF07FFFFDF71DB8DDF870901CA91BAA1B901C901CF0AFFE1C984946012235
S224004FA022F01EFAFDF70EB878360300FC430010F8430010D443001000216FF003001CF007
S224004FC035F800216A201CF031F800216E201CF02DF800216FF005001BF054FF00216B2050
S224004FE01CF024F8692001211CF020F8FEF772BD44F2C431C1F200010B88002B3EF4D0AC46
S224005000FA200321C94AC8231DF026F9FEF7C8BC00204FF05531642229F09CF8FEF788BC59
S224005020042002211DF0D0FBFEF77BBC44F2464EC1F2000E9EF800302BB9FA2E0CBF0526CD
S22400504000268EF80060002602241CAB21461BAA1C961B9621A8FE268DF884608DF88540FD
S22400506027F07CF81BA91CAA9DF8960027F02CF844F24641C1F2000108781CAA1BA927F01E
S22400508023F8002F7DF452ADFDF754BD9DF88540022C7DF482AB24A922461DA825F0BCFF5C
S2240050A02146FE244FF0000C1CAB1BAA8DF8844021A80524CDF870C0CDF86CC0CDF810C0D5
S2240050C08DF8854027F04AF81BA91CAA30468DF8856026F0F9FFBDF8900045F66813C1F202
S2240050E000031BAA03EB800004211CAB27F036F8FEF7EAB99DF88520022A7DF44EAB44F2A6
S2240051004644C1F200042378002B3CF45BAF24A91DA825F081FF052024F0A8F9BDF89010F3
S2240051202C6808B200220B46ABF800102018114605E08418013384F84C109BB201321CB28C
S22400514040F2AB16B442F4DD0520ADF88E3024F09FF8FCF737BF1CA91C9427F03FF9FEF7BB
S22400516087BB072024F082F94FF6FF71C0F223014FF4081026F01AFA44F2104444F23E46DE
S22400518044F2504C0023C1F2000C4FF40811C1F20004C1F20006216033808CF8003006207C
S2240051A01CA91C9327F01AF9072024F071F8FCF709BFBDF88E30002B00F0E18044F23E4446
S2240051C0C1F20004238044F23E4EC1F2000E0620BEF9001027F092F944F24040C1F20000F5
S2240051E0BDF98E30B0F90020934200F0A58044F2444CC1F2000CBCF900209A427CF4E2AE4D
S22400520044F24C4E44F2504144F2F2320024C1F2000EC1F20001C1F20002DEF800000C70F8
S224005220147025F075FE44F24C43C1F200031C60FCF7C8BEBDF98E30D9E7BDF88E30002B1B
S22400524050D044F24440C1F20000038044F24C4CC1F2000CDCF8000025F05AFE44F2104ED7
S224005260C1F2000E44F24440DEF80010C1F20000B0F90020A1F508110023B2EB911F08BF66
S22400528044F2504244F24C44C1F2000408BFC1F20002236008BF13703CF494AE27B13846B3
S2240052A025F066FE224B18609DF8602044F2F23644F2C83C44F2CC3044F2504101231209A6
S2240052C0C1F20006C1F2000C4FF0000EC1F20000C1F2000132708CF80030A0F800E00B7054
S2240052E0FCF770BE44F23E41C1F200010A8814045EBF44F24443C1F200031A80A6D544F29A
S2240053001044C1F20004226844F24446A2F50812520A0132D20092B211B2B1F5006FC1F252
S22400532000063280C4BF034A13808FE7783603004C4400104444001028F042FF4FF4A3436C
S22400534044F2F331C1F20001C0F2010390FBF3F30A7899B244F21443C1F20003022A19803E
S22400536003D009B2072027F0C9F844F240464FF0FF34C1F20006BDF98E30348037E744F238
S2240053801046C1F20006336844F23E4CA3F508139B09C1F2000CACF8003014E7BDF8901064
S2240053A06FF0090001F00F011BF06CFDFCF70ABE44F24A4EC1F2000E9EF80030012202FADC
S2240053C003F3BDF8901044F2FE300B40C1F200000370C9B26FF004001BF054FDFCF7F2BDCC
S2240053E01E9B1F9A23EA02031E93FDF7A8BF1E9A1F9B13431E93FDF7A2BF00BF4FF6FF71D6
S22400540000B5C0F233014FF4101026F0CFF844F294404FF41011C1F2000044F21462C1F22C
S2240054200002016044F638230020C1F200031060E32019605DF804EB27F03EB82DE9F0470F
S224005440914656780F461FFA80FA127804E00136F6B2092E88BF0026964246D006EB4603A1
S22400546007EB83039B885345F1D199F80230013B89F80230002E33D0751EDFF87480EDB252
S224005480344698F8013004EB4400A34214D005EB450107EB810107EB80000C222DF0D0FE9B
S2240054A0631EBCB1DCB26B1EC5B1DDB298F8013004EB4400A342EAD199F8013099F80020D6
S2240054C00133DBB2092B89F80130C0D9002389F80130BCE709246B1E002DE6D10925D0E790
S2240054E009253446DFF80880CBE7BDE8F08700BF4804001030B50D46013D441CADB201463B
S224005500651901E021460134082023F091FFAC42F8D130BD2DE9F0411C461B78154603EB97
S224005520430387B24FEA83088EB228F049FE45F808002378174A03EB430305EB83039F807A
S2240055402378B7F57A7F03EB430305EB8303DE80237838BF127903EB430328BF527905EB0B
S22400556083031A72237803EB430305EB83051EB1094B1B6893F82F606E7223780133DBB2D1
S224005580092B237001D900232370A3780133A370BDE8F081480400104C4B001070B50446C5
S2240055A00EB21CF035FE002832D1244D2868A0F51013B3F5801F33D22EB1B6B2330A84F8B7
S2240055C0326084F833308022214625F0B1FF627A237A43EA02235A0405D54BF6FF721A4078
S2240055E0130A2272637228684FF6FE738030C0F23303984288BF114B286084BF4FF4101097
S22400560018600F4B1A6882420FD0C305DB0D03B170BD00F5FE710331BDE8704025F0C6BF76
S2240056200520BDE8704026F0B5BB0022E32011461A6026F041FF2868E7E700BF9444001014
S224005640384A001030B5C0B281B0032839D8DFE800F0332E29021C480E21FFF74BFF1B4A74
S2240056601B4B15881C8825F020051580194A0134FF250020462115701C8023F023FD0720F1
S2240056800DF1030123F02CFD0728F8D128F098FD114B00221B68C018104B1860104B1A60A1
S2240056A001B030BD0F480E21FFF724FFD7E70E480E21FFF71FFFD2E70C480E21FFF71AFF06
S2240056C0CDE70328ECD8CAE7D0360300BE4300102C440010D8430010C84400102C4A00100A
S2240056E000460010C0360300B0360300A036030030B541F2EC3385B0002400900394ADF838
S2240057001030029401941AE026F0DEFC019B002118790A22181828F065FBE30000FA03F03D
S224005720039B01341B180198039325F0F1FB0023029301939DF81330A4B22C2B22D0012248
S2240057400DF11301684625F067FC03460020012B01A902AA9DF813305BD1A3F12E0EDEF17E
S224005760000545EB0E052C2B08BF45F00105002DCAD1184601A902AA26F0A6FC9DF8133077
S2240057802C2BDCD1019868B125F0C2FB00230293019307E09DF813002C280BD001A902AA1C
S2240057A026F092FC01220DF11301684625F034FC0128EFD0019B9BB101A902AA002026F0BC
S2240057C083FC019B002118790A22181828F00AFBADF81000019825F09BFB00230293019339
S2240057E0009825F095FB0398002300930293019368B104210DEB01036A4603A826F0AEFC98
S22400580004A802216A4601AB26F0A8FC009805B030BDB3F12E0218BF01222C2B0CBF002351
S22400582002F00103002BADD002AA26F04DFC019B002118790A22181828F0D4FAE40000FA4C
S22400584004F0039B1B1803939CE700BF30B444F25C4244F25823C1F20002C1F200031B684F
S224005860D46844F65C315C6354889568C1F200014FF0FF301C871488D08208681D63596923
S2240058805C870068128A013198615961A3F8422030BC70472DE9F0415E4D98B02B6880B298
S2240058A093F82F20002A00F09B80002116911591002800F0A78000F5AE501B783F30000230
S2240058C0FE2B00F0A580383003AC214625F010FE2B6818AA93F82F300025D31820464E4998
S2240058E00D2203F8535C2DF00DFD60B120464B490E222DF007FD002872D103250F264FF040
S2240059000B082F4603E002250E26A846042716AB02214FF0FC0E15AA17A88DF85CE08DF8B2
S2240059205D7026F01BFC16AA284615A926F0CCFB18AA931913F8543CA019202B05D1024674
S22400594012F8013F0130202BFAD0303BDBB2092B54D814A9002228F045FA15A9C0B216AA34
S22400596026F0B2FB14980378002B47D0202B08BF034638D0002214A928F034FA16AAC0B23C
S22400598015A926F0A1FB14980378D3F1010238BF0022032F94BF002702F00107002F2DD1B8
S2240059A0202B08BF034604D113F8012F0130202AFAD014A9002228F015FA15A916AAC0B23C
S2240059C026F082FB159B002100934FF08073019348F0500001224FF0FF3302911BF098FCB7
S2240059E018B0BDE8F08113F8012F0130202AC1D113F8012F0130202AF5D0BBE7159825F09D
S224005A0087FAEDE703AC2146054825F005FB5FE7303059E74C4B0010E0360300F0360300E5
S224005A20204600102DE9F04F074689B005205FFA82F90D4623F01AFD714B05201B681C6BAF
S224005A40D3F834B09B69009323F022FCB9F1020F00F09B8020462CF071FA00220023C3F619
S224005A6010622CF0D3FA67A30CCB2CF0CFFA0022002304460E462CF0DFFC0028B8BF04F192
S224005A80004431462046B4BF4FF02D0A4FF0200A2CF056FD80462CF051FA02460B462046F3
S224005AA031462CF0FDF859A30CCB2CF0AFFA2CF047FD42460346574901A828F00BF8504696
S224005AC039462A4626F000FB01A82DF013FC3A46C1B22B4601A826F041FB58462CF02EFAAB
S224005AE000220023C3F610622CF090FA45A30CCB2CF08CFAB9F1030F14BF20235F2304468C
S224005B000E462A463946184626F0DEFA00220023204631462CF090FC0028B8BF04F100444F
S224005B2031462046B4BF4FF02D0A4FF0200A2CF007FD80462CF002FA02460B4620463146BD
S224005B402CF0AEF831A30CCB2CF060FA2CF0F8FC30490346424601A827F0BCFF39462A4699
S224005B60504626F0B1FA01A82DF0C4FB3A46C1B22B4601A826F0F2FAB9F1030F14BF202066
S224005B805F2039462A4626F09FFA2C680098002C2FD025F075FFC0F30721C0F30742030E1B
S224005BA020706170A270E3702B6818785C789978DA7840EA042343EA014343EA02632B60E1
S224005BC013B1B9F1030F05D0B9F1000F06D109B0BDE8F08F1A799B185F229A720E4B1B882F
S224005BE05B05F4D403213A462B460C4826F0B6FAEDE725F045FF286038602B68E0E700BFE3
S224005C00584200100080564000000000006AF8400000000044380300124600104C380300AF
S224005C202DE9F041054688B00520D4B20E4623F01DFC274BB3F904002CF080F925A30CCB14
S224005C402CF0E4F92CF07CFC244B80460520DF8823F01EFBB8F1030F27DD214B21494246A8
S224005C60022C08BF1946684627F034FF68462DF041FB2A46C1B23346684626F06FFA8CB106
S224005C80174B1949022C08BF19463A46684627F021FF68462DF02EFB2A46C1B23346684684
S224005CA026F05CFA08B0BDE8F08130202946324626F00AFA022CE2D129463246302026F026
S224005CC003FA29463020324626F0FEF90449DCE75C440010976EB23F3BDF4F8D4804001076
S224005CE050380300583803005C380300F0B5D6B2032E88B005460C462DD0052023F0B6FBD1
S224005D00022E44D04D4F4E493A88684627F0E2FE68462DF0EFFA2346C1B22A46684626F0DC
S224005D201DFA29462246202026F0CEF97A884449684627F0CFFE68462DF0DCFA2A46C1B2AE
S224005D402346684626F00AFA012E59D0052023F09FFA08B0F0BD0E68002E4BD0002025F08B
S224005D608FFEC0F30721C0F30742030E30707170B270F370236818785D789978DA7840EA26
S224005D80052343EA014343EA02632360E1E731462C482A46234626F0E1F9284E002733887C
S224005DA0294643FA07F313F0010F0CBF302031202246013726F088F9082FF0D129462246B3
S224005DC0202026F081F9204802212A46234626F0C5F900277388294643FA07F313F0010FDB
S224005DE00CBF302031202246013726F06DF9082FF0D1ABE7304625F043FE20602860A8E729
S224005E007A681249684627F065FE68462DF072FA2346C1B22A46684626F0A0F9BA680B49C2
S224005E20684627F057FE68462DF064FA2A46C1B22346684626F092F988E700BF604B001096
S224005E406438030060380300683803006C380300F0B5044688B005200D4623F007FB234B97
S224005E60B3F904002CF06AF821A30CCB2CF0CEF82CF066FB204B06469B684FF47A72002BE1
S224005E8029D11E490023096801F11C0103C92CF04FFF0746052023F0FBF93A4618496846BB
S224005EA027F018FE68462DF025FA2B46C1B22246684626F053F932461249684627F00AFECA
S224005EC068462DF017FA2246C1B22B46684626F045F908B0F0BD09490023096801F1440111
S224005EE003C92CF025FF0746D4E700BF5C440010976EB23F3BDF4F8D480400105842001028
S224005F0070380300783803002DE97043044688B06FF006000E461AF089FE2CF00FF8002244
S224005F200023C3F6E0722CF071F889464A460146804600201AF0EEFB164902B2684627F052
S224005F40C9FD68462DF0D6F92246C1B23346684626F004F9012520202146324626F0B4F8C0
S224005F60284641464A461AF0D5FB0A4902B2684627F0B0FD68462DF0BDF90135C1B22246B2
S224005F806846334626F0EAF8032DE4D108B0BDE8708300BF80380300F0B5B74D93B02E68AC
S224005FA0002396F82F2080B2CCB212931193002A00F04C81002800F00B8100F5AE503378BA
S224005FC03F300002FE2B00F00981383069466F4625F08EFA2A6813A992F82F30CB18002104
S224005FE003F84B1CA54B92F82F601B7B32B213F0030318BF01238A420CBF002303F0010302
S224006000C3B1FF2A16D0013EB6B20DF1FF35BE19022C15F8010F39D00FD8002C1FD13A288F
S22400602008D02D2800F0E88011A912AA26F04CF8B542EDD1119813B0F0BD652C20D0662C25
S22400604013D0642CF4D13128F4D18D482DF052F911AAC1B212AB8A4826F080F8EAE7012C5F
S224006060E6D13A2808BF0224E2E7532800F0F08040F2B680542800F0F880702804D17C201C
S22400608011A912AA26F020F80224D1E7A0F15B034C2BC9D801A252F823F000BF4162000010
S2240060A0296000003D62000031620000296000002960000029600000296000002960000073
S2240060C0296000002960000029600000296000002960000029600000296000002960000073
S2240060E0296000002960000029600000296000002960000029600000296000002960000053
S224006100296000002960000029600000296000002960000029600000296000002562000034
S224006120196200000D62000001620000296000002960000029600000296000002960000060
S2240061402960000029600000296000002960000029600000296000002960000029600000F2
S2240061602960000029600000296000002960000029600000296000002960000029600000D2
S2240061802960000029600000296000002960000029600000296000002960000029600000B2
S2240061A0296000002960000029600000296000002960000029600000296000002960000092
S2240061C0296000002960000029600000FD61000069462C486F4624F01FFFFBE63030F5E69B
S2240061E031283CD041287FF44FAF11A812A90022FFF78AFE02241BE7642419E7652417E710
S22400620011A812A90022FFF70BFD11E7012011A912AA1BF071FD0BE711A812A90122FFF75E
S22400622065FD05E711A812A90322FFF7FBFBFFE611A812A90122FFF7F5FBF9E66624F7E6DE
S22400624011A812A90122FFF7EBFCF1E61046F2E6032011A912AA1BF04FFD0224E8E611A823
S22400626012A91BF04BFF0224E2E611A812A90322FFF73CFD0224DBE64C4B00104804001069
S2240062803C5900102046001070B484B004AC04E90F003A4B1B6893F8354093F8341093F878
S2240062A0310093F8302041EA042193F8366093F8324042EA002293F8375042EA044241EA62
S2240062C0064193F83300039C41EA0561214042EA0062914204D0002000B204B070BC704785
S2240062E01C7DD97CDA7941EA0421187ABDF8004042EA002221409142EDD19C7D597D5A7A7E
S22400630041EA0421987ABDF8024042EA002221409142E0D11C7ED97D5E7E187B41EA04213D
S224006320DA7A9C7E41EA06415D7B42EA002241EA0464987B019942EA0542214042EA0062B0
S2240063409142C8D11C7FD87EDA7B197C5E7F40EA04205C7C42EA01219D7F9A7C40EA0640FE
S22400636041EA0443029940EA0560084043EA0263C21A504240EB0200AEE700BF4C4B00100C
S224006380F0B583B292B00F461646194C002B26D04FF6387022681B02C0F2150092F82F2071
S2240063A0181869466D4625F0A3F8236812AA93F82F300024D318684611A9224603F8484CF7
S2240063C027F010FD388011980130119026B12146224627F007FD3080002012B0F0BD2368D6
S2240063E0694693F82F2003486D4624F015FEDCE74C4B00102046001030B5174D174C2B88AB
S224006400A4F1340013F4A07F08BF20463321FFF771F804F174000D21FFF76CF82B88990764
S22400642048BF04F1340006D404F174000D21FFF761F804F154001E21FFF75CF80848112113
S224006440FFF758F8074B08491A78002022F0010208701A7030BD00BF124600103437030003
S224006460B837030018000010364A001000B581B007200DF1030122F033FE0728F8D1044BD4
S2240064801B78062B01D001B000BDFFF7B5FFFAE74542001010B5052022F0E8FF44F6603322
S2240064A0C1F200035C68052022F0F2FE204610BD2DE9F04F974D8EB02E68D5F810B02C6AD3
S2240064C0594630462CF0E2F96B68214605932CF0DDF9D5F81480D5F818A007464146059890
S2240064E02CF0D4F951462CF0D1F9EB680146384604932CF0C3F8D5F80890EF690346049908
S224006500484603932CF0C2F939462CF0BFF9039B014618462CF0B2F851460346584603930B
S2240065202CF0B4F9014648462CF0B0F93946814640462CF0ABF9014630462CF0A7F90146A7
S22400654048462CF09BF80499064620462CF09EF9014605982CF09AF9014630462CF08EF805
S224006560039B014618462CF087F82BF0F9FC0022002382468B462BF05FFF002880F2BF80F8
S22400658068692B6900F1004E0498634A03F1004300F1004706AC2B61127806235F4920469B
S2240065A0EF60C5F814E04FF000080EAEADF8363027F090FA46F8148D2046CDF828802CF059
S2240065C099FE0AAFC1B23B462046324625F0C6FDADF83680002355F823205149204627F097
S2240065E079FA20462CF086FE3246C1B23B46204625F0B4FDBDF83620013292B213B2092B0A
S224006600ADF83620E7DD099824F0B2FC31460346B3200B9325F0E2FE424B00251D70424B61
S2240066201D7027F0CDFD25F02BFA314603463A4620200A93099325F047FD52465B463B49DE
S224006640204627F047FA20462CF054FE3246C1B23B46204625F082FD0B9A0A9B110EC2F31F
S2240066600724C2F307401A705C70D970987009980A950B958DF8345024F0BAFC04468DF8C5
S2240066803540099C022132463B460DA80B940A95099525F063FD0B9A0A9B46F25904110EBB
S2240066A0C2F30726C2F30740CEF2ED241A705E709870D9700BAA04213B460C940CA841F29B
S2240066C0EC340A950B95ADF8364025F047FD02210BAA3B460DF1360025F040FD099BA82097
S2240066E000934FF0807301930B9B2946029301224FF0FF331AF00CFE0EB0BDE8F08F064BB7
S22400670006AC1A780549204627F0E4F94FF000080EAE4FE720000020CC4400108438030030
S2240067208838030054440010724B0010903803002DE9F041184D194F194E1424A8463188F7
S224006740B5F900000131091900EBC00007EBC00009B2FEF723FF2B88002001339BB21AB2E3
S224006760C82A01462B8002DD0022A8F800200134A4B222F0A7FCC92CE1D133884FF0FF325D
S224006780002B0CBF4FF47A7300233380054B1A8000232B80BDE8F081104600100040002064
S2240067A0324A0010BC44001040F24843C1F2000300221A611A759A61704700BF2DE9F041E1
