S01A000042696E732F4D333033367630332E50524F442E73726563FA
S224000000DCFF001001010000E9000000ED000000F1000000F5000000F90000000000000039
S22400002000000000000000000000000041040000FD0000000000000011040000411103000F
S224000040990100005135030099010000A5300300990100000915030005160300051703000E
S2240000600918030099010000FD2D0300392F030099010000990100009901000099010000BD
S224000080990100002D110300990100009901000099010000990100009901000099010000E4
S2240000A099010000F9250300990100009901000099010000990100009901000099010000E4
S2240000C09901000099010000990100000D19030099010000990100003537030099010000E7
S2240000E09901000000000000FEE700BFFEE700BFFEE700BFFEE700BFFEE700BFFEE700BF89
S2240001001B4B1C4900B58B4206D21B4A52F8040B43F8040B8B42F9D3204821494FF0000201
S2240001208842B8BF40F8042BFFF6FAAF1D4880F30988124B124A186812499342086005D263
S2240001401149096843F8041B9342FBD30F4B0BB100E000BF0E4B13B100E000BFFEE70D4B24
S22400016013B100E000BFF9E700F0BAF9F6E700BF00000010D001001025890300748E001044
S224000180DCFF00104459001000000010000000000000000000000000FEE70000D0010010EC
S2240001A080690010749000100000000000000000000000000000000000000000000000002D
S2240001C000000000000000000000000000000000000000000000000000000000000000001A
S2240001E00000000000000000000000000000000000000000000000000000000000000000FA
S2240002000000000000000000000000000000000000000000000000000000000000000000D9
S2240002200000000000000000000000000000000000000000000000000000000000000000B9
S224000240000000000000000000000000000000000000000000000000000000000000000099
S224000260000000000000000000000000000000000000000000000000000000000000000079
S224000280000000000000000000000000000000000000000000000000000000000000000059
S2240002A0000000000000000000000000000000000000000000000000000000000000000039
S2240002C0000000000000000000000000000000000000000000000000000000000000000019
S2240002E000000000000000000000000000000000000000000000000000000000FFFFFFFFFD
S22400030000B58AB00AA8362340F8283D41F6F1736846C1F6FF7305A9984706980AB000BD2D
S22400032010B44FF44043C4F20F034FF40242C3F8C420D3F8A02142F02002C3F8A021D3F819
S224000340A0114FF440424906C4F20F02F7D54FF4D853C0F2B70301219842C2F80C1138D982
S22400036046F23A0414604FF460630924C2F88440C0F22773C2F88010AA21C2F88C10B3FB78
S224000380F0F05521C2F88C10002829D0A0422DD14EF2C0123A244FF48470C0F2E4024FF429
S2240003A040431A49C4F20F030A60C3F804011A461C60D2F888305B05FBD54FF44043C4F256
S2240003C00F030422C3F8A8210122C3F8002110BC7047C2F804113A2111600C4A1360ECE7A3
S2240003E045F23A0440F201101A46D8E793FBF0F24CF66B23511EC6F65F33A3FB0143DC0D59
S224000400240340F4807044F03A04C8E78069001072B6EFF3088020E9F00F2C4981F308885F
S2240004204FF000014DF804ED62B62CF0E9FE72B65DF804EBB0E8F00F80F3088862B6704751
S22400044072B6EFF3088020E9F00F204981F308884DF804ED62B62CF0FFFE72B65DF804EBBD
S224000460B0E8F00F80F3088862B6704700B52DF0D3FE72B6164880F30888A0F5806015490F
S224000480154AA2EB0101A0EB01001249134AA2EB010300EB0302014640F0010000F002F842
S2240004A0FEE700BF074C084D00B5AC42034605D254F8040BAC4241F8040BF9D31046984796
S2240004C0FEE700BFC0660300C868030074900010DCFF0010C0660300C8680300C868030089
S2240004E0774A784B784D012680B51A602E7030F01BFF764A00231380754A764C1670764AC3
S2240005004FF460601380754AC0F227701670744A26701370734A1370734A1370FFF700FF66
S224000520002030F011FF2BF0DBFE4FF48043C4F202035A6CD60700F1B1809A6C100500F1E0
S224000540AD809A6C002A00F0A9805A6C12F47F0F40F0D0809A6C42F400629A644FF48043A4
S224000560C4F20203996C48F2FF4241F000419964C0F21E024FF080435A6003221A70AA22C3
S2240005801A7255221A7233F03BFA33F003F832F0B5FD32F0A7FB2378002B40F08980052095
S2240005A02FF09CFB02204FF41651002231F032FA01204FF4E121002231F02CFA002002460E
S2240005C04FF4165131F026FA042042F6A001002231F020FA2DF01CFE444E06F10608771C70
S2240005E016F8019F4846B9F1000F08D02BF010FF07EB09131B7D0A2B55D04645F0D1022190
S22400060001202BF0B3FF3A4B01221A701A78002129705AB14FF44042C4F20F024FF47061BE
S224000620C2F8C01030BF18780028F9D10025257032F034FB32F0C4FB32F0C6FD31F0D2FEF8
S224000640012033F00BFA30F00BFF4FF44043C4F20F03D3F8C4104FF48043C4F2020348F2FA
S22400066060021965C2F209024FF00071D1614FF080431C7848F2800204F001041C70AA2152
S224000680C4F202024FF0FF30552419721C72D060D06219721D722DF0BFFDFEE74FF480435B
S2240006A0C4F2020356E7484602212BF06BFEA4E7002031F0C5FF012031F0C2FF6FE700BF60
S2240006C0846900104C400010B141001052400010B0410010AC4100105C410010504000108D
S2240006E0B44100103840001055400010C76803005440001033F084F932F04CFF32F0FEFCC4
S22400070032F0F0FA05202FF0E9FA2DF081FD64244FF47A7030F084FE013CF9D132F050FB3B
S22400072032F052FD32F066FF31F05CFE012033F095F930F095FE022023F05EFF4FF4804225
S224000740C4F202024FF400614FF44043D464C4F20F0311650121C3F804113A211960D3F869
S224000760A810C9050BD5AA21C3F8A040C3F8AC105521C3F8AC10D36C43F00203D3644FF453
S2240007804042C4F20F02D2F8A8104FF4404311F48071C4F20F03F6D1D3F88820D2050FD510
S2240007A0C3F88010AA21C3F88C104FF480425521C4F20202C3F88C10D36C43F00103D3648E
S2240007C04FF44042C4F20F02D2F888404FF4404314F48074C4F20F03F6D14CF2B016C4F2EB
S2240007E00F0648F26005C3F80C41C2F20905C3F8A04148F2800134604FF00076EE61C4F2D1
S22400080002014FF0FF304FF40245C3F8C4504FF46D42C862C8601D21C3F8C010CEF200023A
S224000820136943F00403136130BF2DF0F5FC4FF48042C4F20202516C4FF0804341F00101DB
S2240008405164FF21596003211970AA2255211A7219721A721C722DF0DFFCFEE700B581B022
S22400086001A941F8040D022069462BF065FF009801B000BD00B581B001200DF103012BF005
S2240008803FFF9DF8030001B000BD00BF2DE9F041114D04B24FF080464FF0AA085527002063
S2240008A064212BF083FD0A2C04BF86F808803772F5D0002CF3DB35F8143000200133642162
S2240008C025F814302BF072FD0A2C04BF86F808803772EED1E3E700BF304200102DE9F04F61
S2240008E0294D87B00024C0B2284F8B460390059404942E1D4FF0FE084FF00E094FF0110A64
S22400090001E0402C3ED005AB022104AA06A88DF818808DF819902EF0B7FD04A905AA11209E
S2240009208DF819A02EF066FD204604A905AA2EF061FD06EB8400042104AA05AB2EF0A4FDFE
S22400094007EBC40004AA05AB08212EF09DFD55F8043FE2B20134002BD3D10132D4B258461E
S224000960049D2DF09BFC4FF08073019302900021039822464FF0FF33009522F0FFFA07B0D9
S224000980BDE8F08F4124EAE718680010946000102DE9F04FAE4C8AB02378FF2B00F066813F
S2240009A0002005A906AA22F0F1FD2378074643B1059D069EA74B0135013683E86000002246
S2240009C02270A54B1B78022B6DD007A9E5202EF059FF08A90446E6202EF054FF012802D0FB
S2240009E0012C40F04B81DFF87C9241F6FF73B9F800209A4200F05D81059A0699954B1FB9CA
S224000A001868824200F0B181B9F800001A605960924E002840F067814FF6FF7801274FF440
S224000A20C0158E4CC0F218082DE094F804A020684FEA0A6A4AEA102A227B0598D4F808C082
S224000A401206C0EB0A000028B8BF404242EA1C22904215D294F808A060684FEA0A6A4AEAA3
S224000A60102A227C0698D4F80CC01206C0EB0A000028B8BF404242EA1C229042C0F06A819E
S224000A8045458FB20BD01122284674492DF0C6FE3378791C9A1DD2B21135042AC5D90023BC
S224000AA0A9F80030E4E06B4B059D069E27B91A68069E954200F00481DFF8ACA1DFF8A08132
S224000AC083E860004FF4C01051461122444655462DF0A4FE0FCD0FC400222B685F4E0192E1
S224000AE04FF6FF72C0F2180223704FF0000B4FF4C01935460492374658E02C792B6824064E
S224000B00059898F8046044EA1324D8F800303606A04246EA132640F38780B04234DC001BFC
S224000B2034F0B6FB0290039197F808C098F808007B68D8F8042000064FEA0C6C4CEA132CC3
S224000B4040EA1220CCEB0000CDF800C034F0A0FB02AB0CCB34F004FC02900391301B34F0FC
S224000B6097FB0B46024602A903C934F023FD34F091FEDDF800C0069B84449C45089003DA83
S224000B80019A531C9BB201933B78019A0633DBB202F00102042B019252D8314E2F4C0FCC9B
S224000BA00FC623683370049B994549D009F111091122484629492DF031FE3B780BF1010B49
S224000BC00633DBB2042B94BF00230123BBF1310F88BF43F00103002B8FD09AF80440DAF8E5
S224000BE00030240644EA1324230E00229AF808102B712A70DAF80400090641EA1021D2B239
S224000C00DBB243EA012342EA042285E80C00090E2972059898F80460D8F800303606A042C5
S224000C2046EA13263FF779AFB0423FF778AF3B78019A0633DBB202F00102042B0192ACD949
S224000C40019A084BBAB141F6FF721A8010E000BF38420010D80100107C4900101C4200108F
S224000C60C44100104042001048420010012323700AB0BDE8F08F019A1A80F9E7E72009A9CB
S224000C802EF000FE099B13B942F210730993059A0799891A0029B8BF49428B42069914DD06
S224000CA00898401A0028B8BF404283420DDD314BC9E70022A9F800200699059A2E4BA3E616
S224000CC05A6896427FF4F8AED2E7DFF8A89041F6FF73B9F8000098427FF490AE0023A9F8EB
S224000CE00030254B90E6C004C00C0138234E00EB0010112200F5C01031462DF08FFD3378E1
S224000D000633DBB2042B3FF687AE32793068120642EA1020337B059AB1681B06821A002A6B
S224000D20B8BF524243EA11239A42BFF475AE327A7068120642EA1020337C069AF1681B06CF
S224000D40821A002AB8BF524243EA11239A42BFF463AE8DE7FE2BA9F8007089D0C3F1FE0300
S224000D6047EA4337034B1F8082E7586888427FF44BAE7DE740420010D80100101C4200102A
S224000D8044F24C03C1F200031B6800229A80DA809A60DA601A615A61704700BFF0B5C5B2FE
S224000DA0002383B0022D0193009300F0C48002238DF808301E238DF8093002216A4601ABEE
S224000DC002A82EF061FB30F091FB5E4B5E4C1B78A060013BDBB2022B88BF5C4B4FF0030E24
S224000DE089BF1B686FF0090318785E7881BF9978DA7840EA062343EA0143534E88BF43EAD6
S224000E00026384F810E005F001074FF0800E6A46E3600B2101AB84F811E006F10800A774E0
S224000E202EF032FB05202BF0A5FC494B1B68DA88002A4CD09988B1FBF2F23275986848F62C
S224000E408902C8F68802A2FB00106169400960F317216161D868E169A2FB0062C2F34F120E
S224000E60100A2076E2751869A26901F07F4160F31722A261187D0022E0765E69022D41EA6C
S224000E801621E161304884F82020E27724D0314B90F82010D3F8C44093F8C720B3F8C03043
S224000EA041EA042180F825302423016280F8242080F82630132114306A4601AB2EF0E4FA0C
S224000EC03FB905202BF060FB009803B0F0BD3275B4E7FFF755FFF4E793F83F401D4A002387
S224000EE080F82030D2F8C470DEB2B2F8C03092F8C71080F8253046EA07222423C477026290
S224000F0080F824106A46132180F8263001AB14302EF0BAFA05202BF037FB04210DEB010319
S224000F206A460D482EF0B0FA29466A4601AB0B482EF0AAFAC8E704238DF8083024238DF8A0
S224000F4009303AE75E420010D8010010E04100104C400010384A0010FC570010505800101F
S224000F6070B500B287B028B1A54B1C8814F4806400F0B1802DF0D8FC002402200C2121F06F
S224000F80AFFF0590002800F094800023037043708370C37006230371059E0223437103232F
S224000FA0B371234624B1BDF90C30002B18BF02230025F3716620294601224FF0FF33009609
S224000FC04FF080760196029521F0D8FF61200DF11A012EF06DFC064600286DD1BDF81A30EF
S224000FE0DA046BD502200D2121F07AFF059000285FD0067046708670C67006220271059B75
S2240010000222427103229A71224624B1BDF90E20002A18BF0322DA7100934FF0807300214C
S2240010200193BB2001224FF0FF33029121F0A6FF4C200DF10E012EF03BFC10B10023ADF808
S2240010400E30642003A92EF033FC10B10023ADF80C30BDF80E309B0705D5BDF80C3013F4A4
S224001060805300F0CF8002200D2121F039FF0590F8B10023037043708370C3700622027178
S224001080059B0222427103229A71224624B1BDF91020002A18BF0322DA7100934FF080734B
S2240010A000210193222001224FF0FF33029121F065FF204607B070BDADF81A5007AD002368
S2240010C045F8083D294616202EF01EFB172029462EF01AFBACE70B2003A92EF0E9FB08B1AF
S2240010E0ADF80C400C200DF11A012EF0E1FBBDF81A3018B10023ADF81A300023BDF90C20DC
S2240011001BB201249A42A4BF4FF0FF33ADF80C300DF10E01A8BF002417202EF0C9FB10B1D5
S2240011200023ADF80E3016200DF11A012EF0C0FBBDF81A3018B10023ADF81A300023BDF9C9
S2240011400E201BB29A42A4BF4FF0FF33ADF80E3004A9B8BF012464202EF0AAFB0546E8B980
S224001160BDF81030D90419D5212004A92EF0A0FB08B1ADF8105020200DF11A012EF098FB3B
S224001180BDF81A3018B10023ADF81A300023BDF910201BB29A4201DA012403E04FF0FF336A
S2240011A0ADF8103002214FF0FF3012F0E3FE032103464FF0FF30002B18BF002412F0DAFEF6
S2240011C000287FF4D7AE002C3FF4D4AE03A82DF0EFF9044600283FF4D0AE03A82EF054F821
S2240011E0BDF80C1039BBBDF80E10F9B9BDF8101000293FF4C2AE09B220202EF015FBBCE634
S2240012000A42001007AD45F8083D29461F202EF07BFA294620202EF077FA294621202EF0EA
S22400122073FA222029462EF06FFA42E709B216202EF0FAFADAE709B20C202EF0F5FAD2E76A
S224001240F0B5B94D4FF6FF732C8883B09C420BD0260BADF80A6030F049F94FF4B543C5F2F3
S224001260C323984200904AD80C250124284602A92EF01EFB0135002808BF00240F2DF5D106
S2240012801F25284602A92EF013FB0135002808BF0024232DF5D102A916202EF009FB02A9B3
S2240012A003461720002B08BF00242EF001FB02A903460A20002B08BF00242EF0F9FA98B9E3
S2240012C0BDF80830D3F1010338BF00231C4011D130F00CF946F23F73C4F6A33398420090F3
S2240012E06AD820B203B0F0BD012300271C40ADF80870EDD0002029F0E9F90024F1E74AF2A1
S22400130080538A4ACAF63C531268C3180093177892F801E09178D07847EA0E2242EA0141D0
S22400132044F6251241EA0061C2F29242A2FB017044F20757C0EB010E00EB5E00CCF22E276B
S2240013408008A7FB03E3C0EBC000091A89B201EB1343A2FB031224059B1A240D02EB530369
S2240013609B083419A34200937FF67EAF2988BDF80A2001F470411AB1013A92B2ADF80A200F
S224001380D2186B4C41EA02032B802668694B03221A80002E7FF468AFDF202EF065FA014650
S2240013A00190002800F0D480304622F09FFD2060614B08221A7057E74BF2C533C9F2A21344
S2240013C0A3FB00E34AF6AB22DB0ACAF6AA22A2FB031244F207541509CCF22E24A4FB007485
S2240013E005EB450543200DF10A01A3EBC5052EF05FFABDF80A30240CDAB2172AADB205DD46
S22400140003F47F4303339BB2ADF80A30B3F5006FBDF8083084BF4FF0030EADF80AE0A342A1
S2240014205FD0002029F052F9BDF80A30BDF8082013F47F4018D1944200F0828001329442A8
S2240014407CD003200023019329F040F90120FFF787FD002862D021B20A202EF0E5F9002001
S22400146029F034F901243CE7944238D0180AC11CC9B2062901D9011FC9B2D01F8442E0DB6D
S224001480D01D8442DDDC009E44F20750CCF22E20A0FB067044F62516000CC2F29246A6FBE5
S2240014A00076871B06EB5706B608C6EBC606801BC0B2884246D042F29340521A631AC9F2EE
S2240014C0492080FB031580FB0270D917ED188318D217C1EBA501C2EBA3039942B1D100247F
S2240014E0FFE6009944F20753CCF22E23A3FB01239DF80A004FF4A3421B0CC0F201024FF422
S224001500616606FB00F002FB1313984289D200F5167083422CBF0020012083E70A2001A90C
S2240015202EF0F2F89BE700BFF4410010E04100106442001000420010F64100109D4280D267
S2240015400446CEE6DBB29D42BFF67BAF0024C8E64DF2503303A8CFF68D2340F80C3D2246A0
S22400156001AB042168462DF08FFF03A841F2EC3320F8023D0221224601AB2DF085FF17E712
S22400158040F2D813C1F20003188D003018BF0120704700BF10B504B2022C2FD04FF4804382
S2240015A0C4F202035B6C58051FD4022C19D002202DF02EFC03242DF04DFC204601342AF092
S2240015C0C9FF072CF7D10320002121F01DFA002002212AF0EBFE2DF03DFC00202AF0BAFF48
S2240015E0FEE70A202DF014FCE4E71120012121F00BFA1120002121F007FAD6E700216FF0D5
S224001600030021F0E9FA00216A2021F0E5FA00216E2021F0E1FA00216FF0050021F0F4F915
S22400162000216B2021F0D8FA6920012121F0D4FAB4E700BF2DE9F04F5F4F93B03B884FF6E4
S224001640FF791AB2002ABFBF03F500639BB21AB23B80B2F5006FC1BFA3F500639BB21AB2C0
S2240016603B80013AD417640D12195205520D141B002604F50844DFF85481DFF83CB1A40183
S22400168011961096C0F223094FF0FD0AD8F800304C4588BF4FF408144022022501369C42FF
S2240016A0204669468DF848A08DF84950F6B214446FD02DF0B3F89DF818E029460EF11B0E5A
S2240016C010AA11AB12A88DF849E02DF0DDFE294610AA11AB38482DF0D7FE9DF8491010AA30
S2240016E0023911AB684689B22DF0CEFE3B8801339BB21AB2B2F5006F3B80C4BFA3F50063BD
S224001700ABF800300F2EC1D100242C4B2C4A1B78106803EB43032B4A9B001370054610B133
S2240017202CF0BCFD054602200E2121F0D9FB119000283FD0109BDFF89880C3F30741C3F328
S22400174007271A0E8170C2700370477098F80030119F0622027103F00F0305224271BB71CB
S2240017600023FB71384610972CF0D8FD80B2030A38727B7298F80000109900F00F0041F080
S2240017808071BE722A4621F0B9FB20B213B0BDE8F08F294610AA11AB12A82DF075FE11AB4A
S2240017A00548294610AA2DF06FFE074B3F8801241F80AAE70124E8E75C420010C041001003
S2240017C064420010BC4100104442001014420010F6410010CB1C13EA210338BF0B469B1003
S2240017E0002B30B413DD0B4A0568126895420ED1002203E050F8044FAC4202D101329A4283
S224001800F8D1C2EB82729000081830BC70470020FAE700BF000000102DE9F041074683B06F
S2240018200D4602201021164621F05AFBFFB2044648B3062303710423437113234FF0000850
S22400184083710223C37180F8008080F8018080F8028080F8038080F8088080F809803046D9
S2240018602CF01CFD0646380940EA071701224FF0FF33F8B241468DE8700021F07FFB034BD6
S224001880012283F82A2003B0BDE8F081D80100102DE9F04F3E4F8AB03B68B3F5806F34BF60
S2240018A099464FF48069B9F1000F68D0DFF8E480DFF8E4A04FF0000BB9F1F00F34BF4E4617
S2240018C0F026B6B208AB022107AA741D09A86FF00105CDF820B0CDF81CB08DF824508DF8B3
S2240018E025402DF0D1FD0D2007A908AA8DF825002DF080FD2748042107AA08AB2DF0C4FDEA
S2240019001EB344F2FC13C1F20003186834B2102CA8BF1024A4B225B203A92A46A4B22CF0FE
S2240019207DFF08AB03A8214607AA2DF0ADFD3B68D8F80000361B5B1B2818B6B2C5EB090945
S2240019403B60C8F80000002EE0D144F20623C1F20003DAF800001C78079D2CF09FFC4FF033
S2240019608073019302900021204601224FF0FF33009521F003FBB9F1000F9DD13B6823B9E4
S224001980054B186808B12CF059FC0AB0BDE8F08FD8410010FC410010E841001010B5C4B280
S2240019A084B003202AF0E6FE012C14BF4B246B24072369460222D6208DF800308DF8014061
S2240019C031F036FC002001212AF0F0FC03202AF0DBFD04B010BD00BF70B5052384B08DF80C
S2240019E0003003208A238DF801302AF0C3FE02226946D620144631F01BFC002001212AF09A
S224001A00D5FC002522466946D6208DF800408DF8015031F00DFC284601212AF0C7FC012665
S224001A201F2322466946D6208DF801308DF8006031F0FEFB284631462AF0B8FC0723224658
S224001A4069468DF80030D6204B238DF8013031F0EFFB284631462AF0A9FC3623D620694656
S224001A6022468DF800508DF8013031F0E1FB03202AF08AFD04B070BD2DE9F04F034690B0EE
S224001A80DBB203200B932AF075FE0CAA0B234FF48071D62031F008FC03202AF075FD9DF8EF
S224001AA03A309DF833C09DF832E09DF836409DF831709DF830609DF837509DF835809DF827
S224001AC034909DF839A09DF838B046F6B812C0F203020A93F9200B9B27218DE80050059493
S224001AE0029703960495CDF81880CDF81C90CDF820A0CDF824B022F0ADFA012100202AF015
S224001B0055FC05238DF830300320BA238DF831302AF030FE02220CA9D62031F089FB0020A0
S224001B2001212AF043FC01240B2302220CA9D6208DF831308DF8304031F07AFB214600200B
S224001B402AF034FC00230CA98DF83030D620B72302228DF8313031F06BFB03202AF014FDCA
S224001B601020062122F030FD10B0BDE8F08F00BF2DE98048A7B031F09BFFBD4A44F21020CA
S224001B800023C1F20000037013805380B94E44F2C21144F2D61244F2D81844F2FC1E44F2B7
S224001BA0E810C1F20001C1F20002C1F2000EC1F200004FF41674C1F200080B801380C8F8E5
S224001BC00030CEF800300360B4852FF08FFC0CA92EF020FC0C9BB3F5FA6FC0F294816120A5
S224001BE0A5492DF065FE03B22BB144F2AA120021C1F2000211802CF023FE44F2AA14C1F2A4
S224001C000004034644F2E0182088C1F20008C8F80030C0F3431021F0C9FB0546208821F012
S224001C20E5FB954C0246294600202FF0F3FE642021462DF03DFE002840F0598144F2AA1191
S224001C40C1F20001088844F2AA14C0F3431021F0ADFBC1F200040546208821F0C7FB29469C
S224001C60024602202FF0D6FE44F2E012C1F20002136844F25E2819785D789A7841EA052125
S224001C80DB7841EA024242EA0363B3F1FF3F0CBF04230023C1F200084720214688F80030BB
S224001CA02DF006FEA0B144F2E01EC1F2000EDEF80030197858789A7841EA0021DB7841EA75
S224001CC0024242EA0363013300F00E810021218044F211220024C1F2000208206749147016
S224001CE02DF0E6FD20B144F2B813C1F200031C806349644821F0C6FC042063492DF0D8FDCE
S224001D0030B144F2F4180024C1F20008A8F8004044F2002E44F25A2244F2F7130024C1F2AF
S224001D20000EC1F20002C1F2000307205749AEF8004014801C702DF0BBFD60B144F21828FC
S224001D4044F2F71EC1F200080223C1F2000EA8F800408EF8003006204D492DF0A9FD50B17C
S224001D6044F2422144F218220020C1F20001C1F200020880108044F24224C1F20004B4F9B4
S224001D80003044F2442E4FF0FF38C1F2000EB3F5006FAEF8008002DD3D4B0020188044F29D
S224001DA05C2444F268280023C1F20004C1F20008238088F8003044F2642E44F2F61444F2B2
S224001DC0BC18C1F2000EC1F20004C1F200087F2024A9CEF80030237088F800302DF068FDD0
S224001DE098B9BDF8900033F0A3FE33F063FA29A30CCB33F0DFFB0022C3F6F072002333F0E1
S224001E00FBF833F08FFD254C2060002021F07EFA4FF48043C4F202039B6C44F2580823F010
S224001E207F43C1F200080320C8F8003021F01AFD3E200DF18A012DF03BFD18B14FF0000E93
S224001E40ADF88AE0BDF88A306FF0090003F00F031946ADF88A3020F0D7FD45200DF18A0102
S224001E602DF026FDE0B10020ADF88A0018E000BFA0410010D8010010AA410010B8410010A8
S224001E805C69030014420010F44100101842001042420010006AF84000000000C801001051
S224001EA0BDF88A2044F20224D3B2C1F2000419466FF004002270ADF88A3020F0A5FD4FF082
S224001EC08043AA221A72552200201A7222F094FB83B218B245F2B478C1F200080028A8F839
S224001EE0003017DDFFF756FBFF202080F0E6612021462DF0DDFC00283FF4A0AE4FF0000E09
S224001F00A4F800E09AE648F2F060C3F66E002FF0F3FA64E631F0CCFD002842F0F9820320D7
S224001F20012120F071FD0820002120F06DFD44F2B81EC1F2000EBEF80030002B02F0E28205
S224001F40C44D4FF4FC7128682DF090FD2B681868002842F08E822B689A694AB948F2F451EC
S224001F6049F64132C2F20601C0F26B5219635A6393F84020012062F07F0283F8402021F07C
S224001F80C5F9B5495C202DF093FC44F20A20C1F20000028844F26221120AC1F200010A70B8
S224001FA00AB1531E0B70AC4C412021462DF080FC002840F09E8323889B0640F19C83A74C14
S224001FC00794207044F2B2180024C1F2000821466A20348586F82E4086F82F4086F82A4087
S224001FE0A8F8004020F0F8FD9D4B21461C606C2020F0F2FD49200DF18E012DF059FC03B284
S2240020001BB14FF0030EADF88EE05A2095492DF04FFC10B90320ADF88E00BDF88E00002149
S22400202000F0070020F03CFB46208E492DF040FC28B144F2F8120021C1F20002118044F211
S224002040F814C1F2000423886FF00500C3F3C1235B00591CADF88E3020F0D6FC4FF0FF308C
S22400206031F000FB45F2B4788310C1F20008DFF810A27D4CA8F8003044F22C0144F22E02A3
S22400208044F220034FF0FF304FF0000EC1F20002C1F20001C1F20003744FDFF8E8B1DFF8FE
S2240020A0E8911080AAF800E00880A4F800E0188000222B6803EB020E9EF84C1021B3B2F5D4
S2240020C0D67F21D202F14C0019184A78FA2A00F0E6818A781E2A00F0EF81322A00F09C82F2
S2240020E0142A18BF1A5C00F04E82BAF80030013203EB82022B6892B2AAF8002003EB020E72
S2240021009EF84C100029DAD144F20A2EC1F2000EBEF80030980508D544F22E00C1F200004E
S224002120B0F90030013302F0378244F22002C1F20002B2F90030013302F001824C4A002398
S22400214013804C4A44F23828138044F2B8140222C1F20008C1F2000488F80020464A01213E
S224002160208811704FF0210E042273603360A6F830E07286B286002842F05F8100239AB2B0
S2240021800DF19C08013344F230204FF0000E08EB4201C1F20000042B20F812E021F840EC2A
S2240021A0EDD144F2FA1444F2DC18FF23C1F20004C1F200080722442023A9237088F80030BE
S2240021C0ADF890202DF074FB002802F062804FF0240EADF88CE0BDF88C30642202FB03F3B1
S2240021E044F22C02C1F200021288ADF88C3044F23403C1F200031A80032006212AF0B6F9F6
S2240022000B20212100222AF06BFA14210A461B231A482AF081F9052348200DF18E0186F857
S22400222054302DF045FB002801F075855B23ADF88E30BDF88E300A2202FB03F345200DF1CF
S2240022408A01ADF88E302DF033FBF8B10024ADF88A401BE04C4000100A420010FB410010C5
S224002260A4410010F84100106042001028400010EC410010404200107C490010100200102B
S224002280A8410010304000102C4000109DF88A306FF004001946ADF88A3044F20C2820F05A
S2240022A0B3FB44F2042444F2082E44F23A2044F2E41144F23C220023C1F2000EC1F20001BA
S2240022C0C1F20002C1F20008C1F20000C1F20004C8F80030AEF800300B8013802380038015
S2240022E0FFF77AFBAD4A0421AD4B48F6746E02EB0108C1F2000EC8EB0303CEEB0202A94C18
S22400230093FBF1F392FBF1F109940B930A91A6482AF078FA1B2800F013822128F7D10B2083
S2240023201BA92AF051F81B9C002C01F0F18514F0007708BFB84640F061852046414620F0D4
S22400234031FF84B204F00F03012B00F29184DDF86C90052229F04F431EA819A904F00104B5
S22400236008941E932BF0EEFF052840F009849DF86530002B40F004848DF89A3098469DF84A
S22400238068305A1E8DF86820002B77D002221EA822A92BF0D7FF0228044640F0F1839DF856
S2240023A08830122B00F0CB8700F2B1810C2B00F2D2830B2BC0F0ED840020322129F0F6FF67
S2240023C09DF8892000211EA82BF0BCFF2046092120F086FD1C90002899D000230370437054
S2240023E08370C370DDF870B006238BF804300423224622A98BF805300BF106000B238DF816
S22400240088308DF8894034F0C5F821A960202DF04FFA032319461A4630B9BDF8843003F0F6
S2240024200702D1B2C3F302239DF86400ADF88420040944EA001002228DF89A208DF89B0020
S2240024408BF808108BF809301FB138462BF026FF80461C9B9DF89A208DE808029DF89B0017
S2240024604FF0FF330021CDF8088020F087FD9DF868305A1E8DF86820002B87D1338D3BB103
S22400248044F2B210C1F20000038843F0040303801E98002800F0F1832BF0D0FEEDE31A5CD3
S2240024A012F0030F42F0468092081A54F9224A708A781E2A7FF411AE44F22E0EC1F2000E7F
S2240024C0BEF90030013366D144F22C00C1F20000B0F900305A1C01F01085B1F804802868FE
S2240024E0ADF83080B1F806C00A1DCBF8002003F14C01ADF832C0425C5433013241189200EE
S224002500C018CDF810C034F04EF8B9F80020296813B24C33CB183868191DCBF8001044F277
S2240025202E0102F1080E0830C1F200010A80A9F800E03860A3F80480DDF810C0A3F806C0AA
S22400254044F22E08C1F20008B8F900302A684C33D1181E2088700220C870D05C012802BFCE
S224002560208840F00800208001200431D054CBF80010D25CBAF80030121803EB820292B299
S224002580AAF8002095E544F22C08C1F20008B8F9002001320AD0BAF800208AE574900010A2
S2240025A0DCFF0010C80100106C690300BAF80020B4F800E01FFA82FCBCF1080F4EF0010E74
S2240025C01FFA8EFE396008BF5B49A4F800E004BF4EF0020EA1F800E0A9F800C0195C3E290A
S2240025E001BF218841F004012180195C4B1C02EB8303B3F5D67F9CBF9AB2AAF800207FF66C
S22400260058AD44F22C004FF0FF3EC1F200000023A0F800E03B604CE544F22002C1F20002AB
S224002620B2F900300133B6D144F22C03C1F20003B3F90080B8F1FF3F01F0568444F2240E9E
S2240026400B1DC1F2000ECEF80030194610220CA833F0A0FF2B6808F14C015A5C08F16000A7
S224002660013259181818920033F09DFF3868B9F8002000F11408D5F800E0C7F8008011B203
S22400268044F220084C31C1F200080EEB010302F1140CA8F800201E229A700422DA70181DE0
S2240026A00123A9F800C00EF8013044F2240EC1F2000ECEF800000CA9102233F06BFF44F2C0
S2240026C02002C1F20002B2F900302A684C33D118042044F2240801EB000E4FF0320CC1F299
S2240026E0000881F802C0C870D054C8F800E0D25CFBE40E222280114C0123237000204FF044
S224002700FF314FF4FA7207942EF0BAFE5AE41A2B00F29A82192B80F0B582142B00F0308702
S224002720C0F0BF86182B00F0A6869DF889201EA800212BF007FE22E660420010FB410010F5
S22400274044F2D421C1F20001B1F900300022B3F5967F86F82A2000F34B8344F2D812C1F280
S22400276000021368002B40F0408396F85430013BDBB286F85430002B7FF4C9AD44F20C2462
S224002780C1F200042368B249BDF890200133052081F854002360002A4AD044F21608C1F29E
S2240027A0000898F80030AA204FF0804108725520012B08721CD944F2B81EC1F2000EBEF875
S2240027C00010A9B144F21120C1F200000178A14C09290DD8013B19219F4AFA2021F03AFC33
S2240027E023780121013323709C4BBDF890201970013A94B2ADF89040D4B90721ADF890108B
S2240028006527A04644F23022C1F200020DF15C0EA35A3EF804209A4201F05B8117A90B537E
S224002820023408F101080137082C1FFA88F8E9D1338D13B1864A013B138544F20022C1F269
S2240028400002B2F90030864C012B00F3E582002BC1F2798144F26821C1F200010B785BB362
S22400286044F2F612C1F200021378082B01F0338244F2BC13C1F200031C78013CE4B21C704E
S224002880D4B944F2C018C1F20008B8F80020013292B213B2052BA8F8002002F3B181012B8E
S2240028A008DD44F25C2EC1F2000EBEF800300F3BAEF80030FEF7BEFE002020F08BFF0446F2
S2240028C0032020F0CFFF0746002C01F05B80032029F050FF012308210DF19902D62030F026
S2240028E0E3FC032029F050FE2B6893F94030002BC0F2B78644F68010C1F20000B0F900306B
S224002900002BC0F28B8644F2E4120021C1F20002112011801FF04CFF002800F013819DF865
S2240029209930580708D444F20828C1F20008B8F800300133A8F8003011201FF039FF0028E9
S22400294000F0E68440F252339F4240F249879DF8998018F0040840F0438744F23A2EC1F271
S224002960000EBEF80020531C12B29BB2B2F5617FAEF8003081F2B0850A2B02F0A88040F268
S2240029801808C1F2000898F80030DFF8D880590615D444F20C2EC1F2000EDEF800300A2BB4
S2240029A00DD92EF0A3FD46F24073C4F6A3339842C2BF98F8003043F0400388F8003040F280
S2240029C0523305209F4240F2F88429F0D3FE2B6805209A6801329A6029F0D6FDBDF88C308B
S2240029E06BB9BDF88E30BB4241F26F80738E33B1013B174A9BB25386002B01F079856D20CD
S224002A001FF0D6FE002800F0B384052029F0B2FE2B6893F840209C8722F07F0242F07E02AB
S224002A2083F84020052029F0AFFD68201FF0C0FE0346002840F0BC8444F2B814C1F20004DD
S224002A4022888AB1B28DB2F5167F01F0D7850BE0D801001011420010CC69030016400010EF
S224002A60004200101800001044F20A28C1F20008B8F80030DA0540F19787B38D013B9BB2DD
S224002A80B385002B00F09087B3F5157F09D144F6961EC1F2000EBEF8003043F02003AEF820
S224002AA0003072201FF084FE68B944F23921C1F200010B783BB144F69612C1F200021388B8
S224002AC043F400631380079C44F239282378C1F2000888F80000002B40F02787338E03F0F7
S224002AE00302032A00F0F98603F01F021F2A2ED03BB1013B9BB233861BB9BF4B4FF43472E0
S224002B001A86052029F036FE44F6801444F20223C1F20003C1F2000444F26228197822880D
S224002B20C1F2000898F800304A4042FA03F3DC0703D52B68DA6A0132DA62052029F024FDF9
S224002B40FFF7E5BB112001211FF05EFFE7E6FEF777FB338ECCE70E2B00F0C685C0F04F847C
S224002B600F2B7FF4E2AD9DF889200E2A10D01EA800212BF0E7FB9DF8893098423FF4FFABD5
S224002B801E982BF05BFB38462BF058FBFFF7BFBB072120F0A5F91C9000283FF4B8AB002449
S224002BA0047044708470C4701C9B0E224FF0060B991D83F804B05A711EA82BF0C3FB0E2804
S224002BC0DED1204601212CF06FF81D90002801F01C851C9BC0F30741020EC0F30724997026
S224002BE0DA7018705C701C982BF098FB9DF864300246190941EA0313022008218DF89A2072
S224002C008DF89B3020F06CF91D9000283FF47FAB1C9B1A0EC3F30724C3F30741C270037055
S224002C20447081701D9B02225A71102283F804B09A719DF89A201C93DA7101238DF89A301B
S224002C40002F7FF402AC04E4FD2B00F02783FE2B00F00681202B7FF468AD01239DF88920A0
S224002C6086F82F301EA800212BF06CFBFFF787BB1B9820F04F402BF0E1FA38462BF0DEFA18
S224002C80FFF745BB9DF889B0BBF1010F40F2C187012B40F0AD854FF0000E0020BBF1020F7D
S224002CA0ADF892E05A4600F0B5859DF88830012B03D0023AD2B28DF8892000B2031C18BF4C
S224002CC001237F28CCBF002303F001031946002B00F07086022A08D000211EA82BF032FBDC
S224002CE09DF8893098427FF44BAF25A99DF892002CF0DEFD0222044621A91EA82BF022FB18
S224002D0002287FF43DAFBDF892301AB27E2A3FF736AB9DF88820BDF894B0192A02BFBDF834
S224002D2084204BEA0202ADF894200ED01A2A02BFBDF884202BEA0202ADF8942005D0022AA9
S224002D4004BFBDF88400ADF89400A4B21CB9BDF894205A4506D0D8B2BDF994102CF064FDCF
S224002D60BDF892301BB2452B01F0BB843E2B01F0AE84462B01F07584472B7FF400ABBDF83E
S224002D8094E044F2AA10C1F20000A0F800E0FFF7F6BA022B3FF476AF032B00F04683012B61
S224002DA07FF4C3AC089C002C3FF4BFAC9DF889B0BBF1000F7FF468AF1FB138462BF06EFADA
S224002DC080469DF86440002024091034FDF7E6FF8DE801020421204601224FF0FF33CDF829
S224002DE0088020F0CBF8FFF7CABAFEF751FDBCE404F0F4F8B1E400BFD801001024F04F484E
S224002E0040461BA920F08EFC1B9B04F04F441C4347461B94FFF791BA002023F095F90028C7
S224002E20FFF618AD0220FDF7B9FF44F26423C1F20003074618682BF031FA4FF0010886466B
S224002E4000971820042101224FF0FF334FF080770197CDF808E020F091F8A4F80080F9E4D8
S224002E609DF88910002900F0F0851EA80DF19A0101222BF067FA9DF88930013B8DF88930CB
S224002E809DF864309DF89A401A0942EA0313D8B28DF89B00FE2C3FF672AA01A151F824F00C
S224002EA0BF4E000069500000514F00001B580000F15500002D540000AD5300007F230000CB
S224002EC0D9590000875900007F590000DB580000AB5C0000455B0000995800007F23000096
S224002EE07F230000754A00007F2300007F2300007B4A0000C3490000774900007F230000F5
S224002F007F2300007F2300007F230000D1480000D1480000E1480000474800007F2300003A
S224002F207F2300007F2300007F2300007F2300007F2300007F2300007F2300007F2300007C
S224002F407F2300007F2300007F2300007F2300007F2300007F2300007F2300007F2300005C
S224002F607F2300007F2300007F2300007F2300007F2300007F2300007F2300007F2300003C
S224002F807F2300007F2300007F2300007F2300007F2300007F2300007F2300007F2300001C
S224002FA07F2300007F2300007F2300007F2300007F2300007F2300007F2300007F230000FC
S224002FC07F2300007F2300007F2300007F2300007F2300007F2300007F2300007F230000DC
S224002FE07F2300007F2300007F2300007F2300007F2300007F2300007F2300007F230000BC
S2240030007F2300007F2300007F2300007F2300007F2300007F2300007F2300007F2300009B
S2240030207F2300007F2300007F2300007F230000DB4700007F2300007F2300007F230000FB
S2240030407F2300007F2300007F2300007F2300007F2300007F2300007F2300007F2300005B
S2240030607F2300007F2300007F2300007F2300007F2300007F2300007F2300007F2300003B
S2240030807F2300007F2300007F2300007F2300007F2300007F2300007F2300003147000045
S2240030A07F2300007F2300007F2300007F2300007F2300007F2300007F2300007F230000FB
S2240030C07F2300007F2300007F2300007F2300007F2300007F2300007F2300007F230000DB
S2240030E07F2300007F2300007F2300007F2300007F2300007F2300007F2300007F230000BB
S2240031007F2300007F2300007F2300007F2300007F2300007F2300007F2300007F2300009A
S2240031207F2300007F2300007F2300007F2300007F2300007F2300007F2300007F2300007A
S2240031407F2300007F2300007F2300007F2300007F2300007F2300007F2300007F2300005A
S2240031607F2300007F2300007F2300007F2300007F2300007F2300007F2300007F2300003A
S2240031807F2300007F2300007F2300007F2300007F2300007F2300007F2300007F2300001A
S2240031A07F2300007F2300007F2300007F2300007F2300007F2300007F2300007F230000FA
S2240031C04F4B00007F2300007F2300007F2300007F230000E74A00007F2300007F23000053
S2240031E07F2300007F2300007F2300007F2300007F2300007F2300007F2300007F230000BA
S2240032007F2300007F2300007F2300007F2300007F2300007F2300007F2300007F23000099
S2240032207F2300007F2300007F2300007F2300007F2300007F2300007F2300007F23000079
S2240032407F2300007F2300007F2300007F2300007F2300007F2300007F2300007F23000059
S2240032607F2300007F2300007F2300007F2300007F2300007F2300007F2300007F23000039
S2240032807F2300007F230000E74A00007F2300007F2300007F230000114600009DF8893029
S2240032A0032B7FF46CA801220DF19B011EA82BF049F822461EA80DF192012BF043F8BDF8AB
S2240032C092309DF88920033A1C0442BF03F50063ADF892309BB28DF889201AB2B2F5006F6C
S2240032E0C4BFA3F50063ADF892309DF89B30042B3FF645A80FF2040E5EF823F06D4D0000FD
S224003300634D0000E14C00007F230000914C000044F23A22C1F20002138801339BB2282B96
S22400332013807FF42CAB112001211FF06DFBFA202721B74A012320F08DFEFFF720BB9DF859
S22400334089300024012BADF8924000F0938396F82A3013B19DF8892009E43A469DF8640092
S22400336009F04F41FEF758FA9DF88920FFF7FFBB052029F0FFF940F20402C1F2000291894D
S2240033802B68A1429C87A34A80F0678393F84020052022F07F0242F0650283F8402029F018
S2240033A0F3F868201FF004FA034600283FF444AB4FF41670B085FFF774BB29F0DBF92B6852
S2240033C00520DA680132DA6029F0DEF8BDF88C30002B3FF414AB9C4280F01784B38E002B42
S2240033E03FF40DAB013B8C4A9BB29386002B7FF406AB0A20062121F0E7F8FFF700BB9DF88F
S22400340089B0BBF1000F00F0B383BBF1040F1EA800F0178400215A462AF094FF9DF88930C1
S22400342098423EF4ACAFFFF7ABBB089C9DF88920002C40F04285012A40F23485032A1EA8B6
S2240034400DF1920100F0428502222AF07BFF02287FF496ABBDF892301AB2FF2A00F0F284B7
S2240034607F2A3EF48CAFD8B21DA900231D932CF04BF9FEF784BF9DF889201EA800212AF037
S22400348061FF089C002C3EF47AAF1FB138462AF005FF80469DF864402409103423F094FD1C
S2240034A096E49DF889300024042BADF892407FF64EAF96F82E30DC073FF549AF04221EA81C
S2240034C01FA92AF03FFF042801F08D80BDF99230012B7FF43CAFB06D1F9A0024904286F851
S2240034E02F4040F0A4839DF89A305BB93FE00C791C190C719DF89A10CB1ADBB28DF89A3038
S224003500002B34D01E9A54791179A34228BF234651181A468DF89B302BF058FD1E999DF85E
S2240035209B304C791F9AE41A9818E4B202461F904C71002CDBD108784C788A78CB7840EABA
S224003540042040EA024242EA036301201D9328F06BFF1D9B9DF89A101E939DF89B301F9830
S224003560CB1ADBB202468DF89A30002BCAD1B36D93423CBF284B9A65F0203085FEF7FFBE9E
S2240035809DF889200021022AADF892107FF4DFAE1EA825A92AF0D6FE022801F01F80BDF962
S2240035A09230012B7FF4D3AE0020142128F0FEFE2BF052FD44F2B213C1F200031A8844F2C8
S2240035C0B214BDF8943042F00402C1F20004ADF8960022801BB9431CADF894309BB283422D
S2240035E07EF4CDAE0020782128F0E0FE96F82F303BB9094B012283F82E200420022120F0B2
S224003600E3FF4FF0000EA6F828E0FEF7B8BE00BFCC69030004000010D801001044F2042116
S224003620C1F200010B8801339BB21AB2B2F5616F0B8016DD052029F09DF844F24C02C1F2F2
S22400364000021368052093F8402062F07F0283F8402028F099FFFA202721C64A052320F0D0
S224003660F9FC44F68018C1F20008B8F8003040F64572DB0B94428CBF002303F00103002BAA
S2240036803FF441A9B4F57A7F7FF63DA99DF8993013F0300F7FF437A944F2E41EC1F2000E1F
S2240036A0BEF80020B44B002A40F0908344F23C20C1F2000001210480198044F2E41EC1F254
S2240036C0000EBEF900305A2B7FF429A9112001211FF09AF90B23FA202721A64A20F0BAFCEB
S2240036E09DF89930FFF71DB94F2025A92CF0E0F810B13C20ADF894009DF889201EA8082ADE
S2240037007FF436AABDF8944014F480647FF430AA04221FA92AF016FE042883467FF430AA31
S2240037202DF0E4FE1F9B1FA9C31AB3F5967F1EA85A4680F0D6862AF005FE04287FF420AAB1
S2240037401F982DF0D9FE40F21801C1F200010B7840F2180243F04003C1F2000202200B2172
S22400376013701FF0BDFB1C9000283EF4D0AD047044708470C4709DF86430DDF870E01A09B6
S22400378042EA03135FFA83FC06238EF8043002238EF805300D238EF806308EF80740214627
S2240037A001226046CDF800E04FF0FF334FF0807E8DF89BC0CDF804E002941FF0DFFB1F9A27
S2240037C04FF46A5302F57C3202F59062C0F20903B2FBF3F319B209202CF026F8FEF7CFBD56
S2240037E044F23A210020C1F200010880FFF7C7B802221EA80DF192012AF0A4FD02287FF48F
S224003800BFA99DF889B0BDF89200BBF1020F5A467FF44BAAA0F180039BB25F2B40F26E8254
S22400382058460A211FF05CFB1C9000283EF46FAD00231D90037043708370C370BDF89220AF
S2240038401C9811B206247F290471437141F30D82DF29D8BF069301F3F88100231D9300288E
S2240038603EF48DAD2AF05AFD9DF8643002461909022041EA031301468DF89A208DF89B309A
S2240038801FF02EFB1D9000283EF441AD1C9BC3F307241A0EC3F30741C270037044708170EE
S2240038A01D9B06221A7104225A7102229A719DF89A20069C02321C93DA711CB14FF0FF0E40
S2240038C0ADF892E003F108000DF19201022232F061FE002F40F0868188E144F2382EC1F27C
S2240038E0000E9EF80030022B01D0FDF751F84FF0FF302FF0B7FE45F2B471C1F200010B88CF
S224003900C0F38F0419B220B2471A03371B4A062F9CBF1480338E7FF6E7A8884240F3B484A1
S22400392004331380338EFFF7DFB803F0FDF9C30440F1F88042F21003034000F00C02002B5E
S22400394000F0D781042A0CBF06220522079C237893423FF4C3A846F65C18C0F20308084963
S22400396008EBC2030A70002059699A692DF088FDFFF7B4B8CC690300E4410010B45700109F
S224003980FB410010052028F0F5FE2B68012283F84020052028F0F8FD44F2042EC1F2000EBA
S2240039A0AEF80040FEF793BF0B20032120F00CFEFFF777B8DF2840F3B681042A07D01EA80B
S2240039C02AF0C0FC9DF8893098427FF4D9A804221EA820A92AF0B6FC04287FF4D1A8BDF8A2
S2240039E09230FF2B0BD144F25E21C1F200010A78032A04D99DF88820022A01F0DE80D8B2C3
S224003A001FA92BF03FFF9DF888201F9B192A08BF209A81B204BF1A431F920AD01A2A02BFE2
S224003A20209A23EA02021F9203D0022A04BF209A1F9219B91F9A93423EF4A1AC9DF89200D2
S224003A401F992BF0CFFEFEF79ABC1EA80A468DF89A102AF077FCFFF713BAD189A14226D2AC
S224003A6093F8402022F07F0242F0510283F84020FEF7D8BF96F82EB01BF0010B7FF467ACCE
S224003A801A461EA80DF19B01ADF892308DF89B402AF058FC9DF89B30012818BFADF892B0E5
S224003AA0FF2B00F00E810023ADF892304FE4118AA14280F0E88193F8402022F07F0242F094
S224003AC03D0283F84020FEF7ADBF04207086FEF796BF00223946BB48ADF890202DF0AAF949
S224003AE00020322128F062FC44F2B81EC1F2000EBEF800302BB1FA200321B34A3B4620F07D
S224003B00A9FA0FFA88F9B9F1010F01F092800120092120F059FD44F23020C1F20000235A4F
S224003B20FEF77CBE44F2FA1EC1F2000E9EF8003007229F073FF50AAF00F00C02042A0CBFC9
S224003B400222012202E744F25A2EC1F2000EBEF8003001339BB21AB2962AAEF800307EF773
S224003B6079AE00202080662022F060FAFEF772BE594609202BF058FECDF870B0CDF874B03B
S224003B802DF0B4FC042186461CAA1DAB20A8CDF880E02BF079FC1C982AF0C0FB03468DF800
S224003BA09A302046092304218DF89B301FF098F91D9000283EF4ABAB1C9B1A0EC3F3072E68
S224003BC0C3F30741C270037080F801E081701D9B06221A715C710D229A719DF89A201C9383
S224003BE0DA711FB138462AF059FB80461C9B9DF89B008DE80802002101224FF0FF33CDF813
S224003C0008801FF0BBF9FEF7BABB0421B186FEF7F6BE5A4600211EA82AF094FB9DF889B0E7
S224003C2058457EF4ADAF9DF88830FFF731B89DF89A201EA821462AF085FB8DF89A401F9ABA
S224003C4095E41FA95A462AF07DFB04287EF498AF00231C931D932DF049FC042104461CAAEE
S224003C601DAB1FA820942BF00FFC04211CAA1DAB20A82BF009FC1C982AF050FB9DF86430F9
S224003C800246190941EA0313022006218DF89A208DF89B301FF024F91D9000283EF437AB87
S224003CA01C9B1A0EC3F30724C3F30741C2700370447081701D9B06221A7102225A710E226D
S224003CC08AE7BDF99230012B00F0F486002B7EF456ABFFF73CBB002022F04AFA00287EF4C5
S224003CE0C7AD012022F044FA00283EF4E5ADFEF7BFBD042A0CBF0422032227E6C0B22BF09F
S224003D00B3FD04461C90002800F04A874FF0000ECDF818E0A1E5BDF88E3023F47E43ADF88F
S224003D208E30FEF786BA1C931D938DF89A3082B91FE01CAA9DF89B001DA92BF05BFB9DF8E1
S224003D409A309DF889200133DBB29A428DF89A300FD901221EA80DF19B012AF0F3FA0128CF
S224003D60E7D01D982AF06AFA1E982AF067FAFEF784BFBDF89200002800F003871D9B002B1F
S224003D803EF4FDAAC0B200241C942BF06DFD01461C9028B11D982AF07DFB002840F02A875E
S224003DA01D9B23B19DF892001DA92BF0ADFC1C9800283EF4E4AA2AF041FA00231C93FEF709
S224003DC0DEBA00BFEC690300CC690300013292B211B2B1F5E16F1A800ADB44F23C22C1F201
S224003DE00002B2F9003004F132029A42C0F2868344F2E418C1F20008B8F900303C2B7FF479
S224003E005CAC032028F0B6FC012308210DF19902D6202FF049FA032028F0B6FB9DF8993020
S224003E2003F03002D2F1010138BF0021302A14BF0A4641F00102002A40F0708333490A8077
S224003E40FEF76FBD9DF88920022A08D000211EA82AF078FA9DF8893098427EF491AE02228A
S224003E601EA80DF192012AF06DFA02287EF488AEBDF9922045F2AA539A427EF480AA2BF064
S224003E80D5FDFEF77CBA528AA24293F8402022F07F0234BF42F0290242F0010283F8402082
S224003EA0FEF7C0BD00211EA82AF04CFA9DF8892090423FF4C3AAFEF763BE1EA800212AF07D
S224003EC041FA0020FDF74CF8FEF759BA4FF0000E0122ADF892E02AF035FA9DF88930013BE8
S224003EE08DF88930FFF7B6BABAF8000044F22001C1F200010880FEF7E2BBBAF8002044F23A
S224003F002E03C1F200031A80FEF71ABBE441001096F82F30002B40F08B82DDF81C8098F8C6
S224003F200030002B40F07D82002303201B931FF099FC4FF48043C4F2020344F6801E9A6CBB
S224003F40C1F2000E9EF8001002F07F420A434CF6CD46DFF85C8304469A64CCF6CC464FF08F
S224003F608045AA2700200A2128F020FA1B9BA6FB0302D20802EB8202B3EB420F02D1552249
S224003F802F722A720133B3F5167F1B9300F23A8298F80030002BE5D0012003F065F82AF0E7
S224003FA02FFF002106466FF006001EF02DFD01216FF001001EF010FEA6F10A03DFF8F48235
S224003FC0DBB20022012BA8F8002040F20082B64D462029462BF06CFC0146002800F034811E
S224003FE000232B80692001211EF0F6FD44F2F81EC1F2000E9EF800106FF003001EF0ECFD36
S22400400044F2F810C1F200000388AA214FF080421172552113F40055117200F05382C3F300
S224004020C123590001316FF005001EF0EDFC6B2001211EF0D1FD2AF0E3FE0F28054606465F
S22400404047B209D8012101FA07F248F2A013134013B16C201EF0C0FDDFF858924A20494656
S2240040602BF026FC002800F0F8800021A9F800106E2000211EF0B0FD4FF08042AA21002343
S22400408011725521117218468DF899301FF0A2FB0F2D814640F2CE80B9F5616F06D840F236
S2240040A052339C4202D901238DF89930122000211EF092FD40F20402C1F20002137843B1EF
S2240040C09DF899701220002F00F0D98101211EF09BFC764A4FF080431188AA221A725522A1
S2240040E006201A722FF08AFD44F2580E0023C1F2000E102ECEF8003040F2898044F2F81036
S224004100C1F2000003889E0400F151814FF4804344F2F812C4F20203C1F200029D6C13889D
S2240041206FF003001D401EF043FB44F2F81EC1F2000EBEF8003003405D40ADB2002D40F0E0
S224004140F88003201FF08EFB40F252339C4294BF00220122984294BF002301239A421FBFCC
S22400416044F25802C1F20002136843F0010318BF1360B8F800309D0740F09E8003201FF0F5
S22400418071FB40F25232904294BF00230123944294BF002201229A4208D03BB144F25800F0
S2240041A0C1F20000036843F001030360002001464FF4FA722DF064F94FF48043C4F20203F1
S2240041C05A6C12F0010013D144F680149A6CC1F20004217802F07F420A439A64962128F03C
S2240041E0E5F8012020F008FA0446002800F09780002001462FF030F94FF48043C4F20203C1
S2240042005B6C2AF027FE002028F0A4F9FEE7012173B201FA03F342F2120261F31F4213424F
S22400422025D04FF48043C4F202035A6C42F001025A64A3E7012303FA07F74BF212333B4064
S224004240002B7FF42CAF27E7B5F90030002BBFF6C9AE69201EF0C0FCC8E6B9F8003099071B
S2240042603FF406AF6E2001211EF0B6FC04E71A0515D568201EF09CFA00283FF47FAF0D200B
S2240042800E2120F0A1F9CCE7191F1180338EFEF72BBC9DF88C30ADF88C30FDF79CBF5F05C2
S2240042A03FF56CAF2AE700BFF8410010D4010010D0010010BE41001001200DF19A0128F0EA
S2240042C083F807281FBF44F25808C1F20008D8F8003043F0020318BFC8F8003001200DF1E2
S2240042E09A0128F071F80728F8D105200DF19A0128F06AF807281FBF44F2580EC1F2000E03
S224004300DEF8003043F0020318BFCEF8003005200DF19A0128F058F80728F8D12EE70D202D
S2240043200E2120F051F92AF095FD204628F012F9FEE745200DF18A012BF0BAFA10B1002037
S224004340ADF88A00BDF88A204FF48041120A44F2F81EADF88A20C4F20201C1F2000EBEF8DF
S2240043600030896CD8B219401140054029421FBF44F25800C1F20000016841F0040118BF9A
S22400438001604FF48041C4F20201896C21F07F410A4323EA02032B421FBF44F25801C1F248
S2240043A000010B6843F0040318BF0B60C9E66FF007001EF0FDF900283FF4A8AE44F25801AF
S2240043C0C1F200010B6843F004030B609EE600216FF003001EF000FC00216A201EF0FCFB4B
S2240043E000216E201EF0F8FB00216FF005001EF00BFB00216B201EF0EFFB692001211EF012
S224004400EBFB66E644F2B811C1F200010B88002B3FF4C2ADFA200321BD4AC8231FF01AFEFB
S224004420BAE500204FF0553164222DF029F87BE50420022120F0C8F86FE544F2E014C1F287
S224004440000422688020009014785078977892F803E044EA002242EA074242EA0E620192D5
S22400446002930393FA20AB4A03231FF0F3FDFDF785BE2AF09BFC29F0E1FEFDF76CBD39465C
S2240044801EF0C2FA2B1F18BF0123012D0CBF002303F00103002B3FF41CAEB5F10D0318BF40
S2240044A00123102D0CBF002503F00105002D3FF410AEB9F5616F7FF60CAE112039461EF024
S2240044C0A3FA06E629466FF005001EF09DFA6B2029461EF081FBAEE50220FDF7CDFAFEF7ED
S2240044E04EBA29F02FFF04283DF449AFFEF748BB0220052120F068F8FEF781BA0C20FDF713
S224004500BBFA75E4844985481FF0BCF8FDF718BD6FF003001EF04CF9FDF701BD11200021A9
S2240045201EF072FAFA202721794A0A231FF092FDFFF7C3B800238EF84C30FDF7E5BDBAF82E
S2240045400000774CB0F5CC7FBDF4F8AD2968754F00F14C028B1838804FF0040CF82001F8FE
S22400456002C05870322003EB0C0E987083F803C044F22403C1F20003C3F800E08B5C2288CD
S22400458001339B00DBB29B18238070460021102232F026F8FDF7D2BDBAF80000624C2968A7
S2240045A000F14C022080012088548B18F92058701E2098701F1D0220D870CBF800708A5C91
S2240045C0BAF80010013202FA00F2D2B252180021AAF800209980D980FDF7A7BD0122ADF890
S2240045E09220FEF7E1BF9DF889304FF0010E043BADF892E08DF89A30FEF768BFFA202121B6
S224004600434A1FF027FDFEF72FBA1C98FFF7AABB44F26822C1F2000214788CB944F26423E5
S22400462044F2F61EC1F20003C1F2000E18688EF8004029F003FE44F26420C1F20000046083
S22400464044F20021C1F20001B1F9003013BB44F200204FF0000EC1F20000A0F800E0FDF7E0
S2240046608EBEBDF894308BEA030B1BF4C05F3DF486AEC3F3C12244F2F8145200C1F2000476
S224004680511C23806FF00500ADF894201EF0BCF9FDF775BE44F2F412C1F20002B2F90010B2
S2240046A004202BF0C1F8012021F04EFD0028CED01E4BB3F90030002BC9DA662044F25A246D
S2240046C021F0B4FCC1F2000400232380BFE7BDF894106FF0090001F00F011EF095F9FDF79F
S2240046E04EBE44F26221C1F200010B78012202FA03F3BDF8941044F202220B40C1F20002F1
S224004700C9B213706FF004001EF07EF9FDF737BECC690300C86903005C690300144200102B
S224004720A8410010204000102E400010004200109DF88920022A08D000211EA829F002FEF9
S2240047409DF8893098427EF41BAA02221EA80DF1920129F0F7FD02287EF412AABDF892408E
S2240047600FFA84FB584631F0E7F930F0A3FDBDA30CCB30F01FFF0022C3F6F072002330F058
S2240047803BFC31F0CFF8099908609DF89A00002C54D059462BF048F800241D941C94FE24CB
S2240047A01DAB02211CAA8DF8884022A803248DF889402AF069FE9DF89A001CA91DAA2AF061
S2240047C019FE0DF1920002211CAA1DAB2AF05CFE002F7FF407AAFFF709BA9DF88920022A92
S2240047E07EF4CEA944F25E24C1F200042378002B3DF4C5AD25A91EA829F0A4FD052027F069
S224004800B9FFBDF894102C6808B200220B46AAF800102018114605E08418013384F84C10F3
S2240048209BB201321CB240F2AB1E7445F4DD0520ADF8923027F0A8FEFDF7A1BD1DA91D948E
S2240048402AF062FFA8E79DF88940022C7EF498A9224625A91EA829F075FD2146FE244FF0BB
S224004860000B1DAB1CAA8DF8884022A80524CDF874B0CDF870B08DF889402AF005FE1E23E0
S2240048801CA91DAA18468DF889302AF0B3FDBDF8940045F2BC71C1F2000101EB80001CAA8E
S2240048A01DAB04212AF0F0FD1C9B38469DF89B40059329F0F3FC059B02908DE808022046A3
S2240048C0594601224FF0FF331EF058FBFDF757BDA4F11C0EDEF1000040EB0E00FDF75EF826
S2240048E0032027F047FF13AA4FF480710B23D6202EF0DAFC032027F047FE4FF0FE0E00243C
S2240049001DAB1CAA02218DF888E022A84FF00D0E8DF889E01D941C942AF0B6FD9DF89A3055
S2240049201CA91DAA18468DF889302AF063FD1DAB1CAA0B2113A82AF0A7FD2B681CA993F8BA
S22400494040301DAA18468DF889302AF053FD1C9B38469DF89BB0059329F0A0FC059B029081
S2240049608DE808025846214601224FF0FF331EF005FBFDF704BD4FF0FE0E00241DAB1CAA5A
S22400498002218DF888E022A84FF0110E8DF889E01D941C942AF078FD16231CA91DAA1846D9
S2240049A08DF889302AF026FD1CAA1DAB08212F482AF06AFD1CAA1DAB08212D482AF064FD21
S2240049C0C5E74FF0FE0E00241DAB1CAA02218DF888E022A84FF0190E8DF889E01D941C949A
S2240049E02AF052FD15231CA91DAA18468DF889302AF000FD44F208001CAA1DAB0421C4F22B
S224004A0004002AF041FD44F20C001CAA1DAB0421C4F204002AF038FD44F21C001CAA1DAB57
S224004A200421C4F204002AF02FFD48F208001CAA1DAB0421C4F204002AF026FD48F20C001A
S224004A401CAA1DAB0421C4F204002AF01DFD48F21C001CAA1DAB0421C4F204002AF014FDC2
S224004A6075E700BF006AF84000000000704D0010944C00103946FBF731FF44F2B814C1F261
S224004A8000042388002B3DF47AAC44F2142EC1F2000EDEF8003044F24220A3F50813C3F3A0
S224004AA08F13C1F20000038019B206202AF0BCFEFDF765BC002486F82F402AF075FABDF9EF
S224004AC09230B465002B7DF45AACFEF740BC112041461DF099FFFA202721A34A43461FF01F
S224004AE0B9FAFDF74CBF44F25E2EC1F2000E9EF800302BB9FA2C0CBF052400248EF80040CE
S224004B004FF0000E02241DAB21461CAACDF874E0CDF870E022A84FF0FE0E8DF888E08DF873
S224004B2089402AF0B1FC1CA91DAA9DF89A002AF061FC44F25E21C1F2000108781DAA1CA939
S224004B402AF058FC002F7FF44DA8FFF74FB844F25E22C1F200021378043BDBB2012B3DF62D
S224004B600EAC46F65913C0F203031978032027F0C7FB0120014627F0F9FCFBF777FCFDF7BC
S224004B80FEBBDDF874801DA91CAA1C901D901EF0D1FE1D984146012225F05EFDFDF7EFBB5F
S224004BA01D940DF1920059461CAA1DAB012406942AF06AFC1C98FEF750BE209B13A844F2E0
S224004BC0E0141393C1F200042AF0BEFE209A2368C2F30740C2F30724110E44F25E2E1A701D
S224004BE05C709870D970C1F2000E00238EF80030FDF7C5BB1D9829F021FB1D94FFF7D7B865
S224004C0044F2642144F2682244F2F613C1F20001C1F20002C1F2000344F264280868147000
S224004C201C70C1F2000829F009FBC8F80040FDF743BE64201DF0BCFD00283EF468AF062035
S224004C4049461DF0E1FEFEF762BFD0B21FA92AF019FE80B20690C0B91FA804211CAA1DAB88
S224004C602AF012FC1C98FEF7F8BDD0B225A92AF01FFE80B2069040B925A859461CAA1DAB67
S224004C802AF002FC1C98FEF7E8BD0DF19200F4E7072027F06FFD4FF6FF71C0F223014FF4C6
S224004CA0081029F019FE44F2142444F2422E44F268200023C1F2000E4FF40811C1F20004DE
S224004CC0C1F2000021600370AEF8003006201DA91D932AF019FD072027F056FCFDF74FBBF8
S224004CE0BDF89230002B00F0DC8044F24220C1F20000038044F24223C1F2000344F2442404
S224004D00B3F900100620C1F200042AF08DFDBDF99230B4F90020934200F09F8044F25C2472
S224004D20C1F20004B4F900209A427DF428AB44F2642E44F2682144F2F6120024C1F2000E20
S224004D40C1F20001C1F20002DEF800000C70147029F074FA44F26423C1F200031C60FDF7A5
S224004D600EBBBDF99230D9E7CC690300BDF89230002B4DD044F25C20C1F20000038044F218
S224004D806421C1F20001086829F058FA44F21422C1F2000244F25C231168C1F20003B3F949
S224004DA00020A1F508110023B2EB911F08BF44F2682E44F26424C1F2000408BFC1F2000E1F
S224004DC0236008BF8EF800303DF4D9AA27B1384629F064FAA14B18609DF8642044F2F61E86
S224004DE01209C1F2000E8EF8002044F2BC1044F2C01244F268240123C1F200000021C1F2B5
S224004E000002C1F20004037011802370FDF7B7BA44F24221C1F200010A8810045EBF44F292
S224004E205C23C1F200031A80A9D544F21424C1F20004226844F25C2EA2F50812520A013271
S224004E40D20092B211B2B1F5006FC1F2000EAEF80020C4BF824A138091E72CF047FB44F2EA
S224004E60F71E4FF4A343C1F2000EC0F201039EF8002090FBF3F344F2182099B2C1F20000E5
S224004E80022A018003D009B207202AF0CDFC44F244224FF0FF31C1F20002BDF992301180FF
S224004EA03CE744F21421C1F200010B6844F24222A3F508139B09C1F2000213801AE74FF0BF
S224004EC0FE0E4FF0000B1DAB02211CAA8DF888E022A84FF0070E8DF889E0CDF874B0CDF81F
S224004EE070B02AF0D1FA1CA91DAA58468DF89AB02AF080FA44F2FA12C1F2000210781CA9D7
S224004F001DAA2AF077FA02211CAA1DAB55482AF0BBFA44F2DC13C1F2000318781CA91DAA26
S224004F202AF068FA8DF89AB046F2DC4EC1F2000E1EF804001CA91DAA2AF05CFA9DF89A4079
S224004F400134E4B2012C8DF89A40EDD9FEF749BE9DF8892000231D931C93002A3DF40FAA5F
S224004F6001221EA821A929F0EDF9FE229DF884308DF8882004228DF889206B2B00F20E8278
S224004F80DFE813F0FE01EE01E601DE01D001C601BD01B6010C020C02AE01A6019E010C0262
S224004FA093010C0288017E01C90070010C0268015F0157010201FD00F700F200E800D40034
S224004FC00C020C020C020C020C020C020C020C020C020C020C020C020C020C020C020C02EC
S224004FE00C020C020C020C020C020C020C020C020C020C020C020C020C020C020C020C02CC
S2240050000C020C020C020C020C020C020C020C020C020C020C020C020C020C020C020C02AB
S2240050200C020C020C020C020C020C020C020C020C020C020C020C02D0000C020C020C02C9
S2240050400C020C020C020C02BA002A01250119010A013C012F014401B2008B00644200103E
S2240050605C420010464B00109DF88930002B3DF486A91EA80DF19A01012229F063F91FB13C
S224005080384629F00BF980469DF89A109DF89B00424624F061FCFDF772B944F2200EC1F20C
S2240050A0000EBEF800E0ADF894E01DAB02211CAA22A82AF0E9F91CA91DAA9DF89A002AF0E2
S2240050C099F99DF884001CA91DAA2AF093F99DF88930062B00F0A58025A802211CAA1DABDC
S2240050E02AF0D2F9FEF77DBD44F23404C1F200042488ADF89440D8E744F2B41344F2550402
S224005100C1F20003C1F200041A78237843EA0223ADF89430C9E700201EF05CFB40F61C436B
S2240051209842C2D90420FCF7A7FCBEE7052027F021FB2B68052093F8402062F07F0283F84D
S224005140402027F021FAFA202721B74A05231EF081FFAAE74AF2CC00CFF6FF70012129F097
S224005160F3FCADF89400A0E724F09EFCADF894009BE72B6893F83F30ADF8943095E71EF092
S224005180E5FAADF8940090E744F6B031C1F200010988ADF8941088E744F22E02C1F2000248
S2240051A0B2F900302A68591C0DD04C33D35C9B00ADF8943079E744F22E01C1F2000109886F
S2240051C0ADF8941071E70023ADF894306DE7BAF80000ADF8940068E74FF4D67EADF894E05F
S2240051E063E744F22C01C1F20001B1F900302A685C1CDAD10022ADF8942056E744F22C00A0
S224005200C1F200000088ADF894004EE744F62863C1F200035A781B7843EA0223ADF8943045
S22400522043E71FA804211CAA1DAB2AF02DF9FEF7D8BC45F23010C1F200004379ADF89430AD
S22400524033E745F2FC0EC1F2000E9EF80030ADF894302AE745F2DD04C1F200042378ADF8DE
S224005260943022E744F20821C1F20001098844F208230022C1F20003ADF894101A8014E7A1
S22400528044F21020C1F200000378ADF89430002303700AE744F2AC2EC1F2000EDEF80030AE
S2240052A006228DF889201F93FFE644F21424C1F200042368A3F508139B09ADF89430F4E6B2
S2240052C044F21A03C1F200031B88ADF89430ECE644F21802C1F200021288ADF89420E4E620
S2240052E044F21601C1F200010B78ADF89430DCE6FF2300208DF88430ADF89400D5E644F255
S224005300040EC1F2000E9EF80030ADF89430CCE644F20C24C1F20004236806228DF88920D6
S2240053201F93C2E646F68013C1F200031A6844F24023C0F20F03B2FBF3F3ADF89430B4E614
S22400534044F23902C1F200021378ADF89430ACE644F6B611C1F200010B78ADF89430A4E671
S22400536044F2C214C1F20004248844F2C2104FF0000EC1F20000ADF89440A0F800E094E646
S22400538044F2D611C1F20001098844F2D6130022C1F20003ADF894101A8086E6FF234FF0FF
S2240053A0000E8DF88430ADF894E07EE69DF88930FF228DF89A202BB11EA80DF19A01012218
S2240053C028F0C0FF9DF89A004FF0000B21A91DAA01280CBF02205846CDF884B0CDF874B051
S2240053E01EF0A8FAFE2321988DF8883028F096FF1DAB441C1CAA022122A88DF88940CDF846
S22400540070B0CDF874B02AF03FF806231CA91DAA18468DF8893029F0EDFF21991C9828F051
S22400542023FFFFF741BA00BFCC69030045F65414C1F2000463694FF0000EADF884E03BB1F5
S22400544072461B68511C0A46ADF88410002BF8D146F65910C0F2030090F800B04FF0030E40
S2240054600EFB0BFE00240EF10A0E02211CAA1DAB1D941C9422A8FE248DF889E08DF88840A1
S2240054802AF002F805231CA918461DAA8DF8893029F0B0FF0121ADF89210BBF1000F46D0A1
S2240054A0012346F64012C0F20302D05C1CA91DAA29F0A0FFBDF9922046F6D003C0F20303DF
S2240054C003EB021293684FF0040E93FBFEF451680022002C15DD40F2000EC1F2000EDEF829
S2240054E000200868904208BF9E464FF0000204D007E051F8043F834202D10132A242F8D19A
S22400550073466FF0030000FB023202219C1A25A81CAA1DABADF8944029F0B6FFBDF892205A
S224005520013292B213B25B45ADF89220B9DDC8201CA91DAA29F05EFF0B9C002C40F30B841E
S224005540DFF850E340F20000C1F20000DEF800100368994240F0FF83AEF10402002303E0CE
S22400556004325068814203D10B9C0133A342F7D19B000221ADF894301CAA1DAB25A829F07E
S22400558083FFC9201CA91DAA29F034FF0A9C002C40F3E38348F6746E40F20000C1F2000E45
S2240055A0C1F20000DEF8002003689A4240F0D583AE4B002403E053F8041F8A4203D10A99BD
S2240055C001348C42F7D11DAB1CAA0221A40025A8ADF8944029F058FF1CA91DAACA2029F061
S2240055E009FF21A81CAA1DAB022129F04DFF8EE34FF0010C4FF0000BFE239D488DF889C0E4
S224005600CDF810C08DF88830CDF874B0CDF870B031F01AF8841CE4B296488DF8894031F02F
S22400562013F8431CE418E4B293488DF8894031F00BF8431CE418E4B290488DF8894031F0E4
S22400564003F8431CE418E4B28D488DF8894030F0FBFF00F125021DABA41802211CAA22A8CD
S2240056608DF8894029F010FF04231CA91DAA18468DF8893029F0BEFE7D4830F0E5FF1DABFA
S22400568081B21CAA7A4829F0FFFE1CA91DAAA72029F0B0FE774830F0D7FF1DAB81B21CAAA4
S2240056A0744829F0F1FE1CA91DAAA72029F0A2FE714830F0C9FF1DAB81B21CAA6E4829F0E4
S2240056C0E3FE1CA91DAAA72029F094FE6B4830F0BBFF1DAB81B21CAA684829F0D5FE1CA937
S2240056E01DAAA72029F086FE654830F0ADFF1DAB81B21CAA624829F0C7FE1CA91DAAA72065
S22400570029F078FE44F63820C1F20000B0F9CC40B0F9CA20A7235B490CA800942BF070FB2C
S2240057200CA830F091FF1CAA81B21DAB0CA829F0ABFE44F63821C1F20001B1F9C030A7221F
S22400574051490CA82BF05CFB0CA830F07DFF1CAA81B21DAB0CA829F097FE44F63822C1F2CA
S2240057600002B2F9D0304949A7220CA82BF048FB0CA830F069FF1CAA1DAB81B20CA829F040
S22400578083FE13A8032123F027F9139BA72240490CA82BF035FB0CA830F056FF1CAA81B250
S2240057A01DAB0CA829F070FE149BA72238490CA82BF026FB0CA830F047FF1CAA81B21DAB1D
S2240057C00CA829F061FE159BA72231490CA82BF017FB0CA830F038FF1DAB81B21CAA0CA844
S2240057E029F052FE1CA91DAA584629F003FE1C9B38469DF89B40059328F050FD059BDDF8E0
S22400580010C08DE8080202905946204662464FF0FF331DF0B3FBFCF7B2BD00231D931C93E5
S22400582029F038FA0446ADF89640FE241DAB02211CAA8DF8884022A805248DF8894029F0D9
S22400584023FE1CA91DAA9DF89A0029F0D3FD02211CAA1DAB0DF1960029F016FE29F0FCFBFC
S224005860ADF896000DF19600FEF7ADBF748E0010784A0010384A0010584A0010D84A001099
S224005880984A0010D0690300DC690300D4690300E4690300789000104FF0FE0E00241DABAE
S2240058A01CAA02218DF888E022A84FF0030E8DF889E01D941C9429F0E7FD0E231CA91DAAEA
S2240058C018468DF8893029F095FD1CAA1DAB0221BC4829F0D9FDFFF73AB84FF0FE0E002481
S2240058E01DAB1CAA02218DF888E022A84FF0060E8DF889E01D941C9429F0C6FD0B231DAAC8
S2240059001CA918468DF8893029F074FD214601200FF0E6F81DAA03461CA98DF8893029F006
S22400592069FD012108460FF0DBF81DAA03461CA98DF8893029F05EFD022101200FF0D0F828
S2240059401DAA03461CA98DF8893029F053FD032101200FF0C5F81DAA03461CA98DF88930B2
S22400596029F048FD042101200FF0BAF81CA903461DAA8DF8893029F03DFDFEF7E8BF23F0B8
S22400598011F8FCF7FCBCFE234FF0000B8E488DF88830CDF874B0CDF870B030F055FE1DABC7
S2240059A0441C1CAA022122A88DF8894029F06CFD09231CA91DAA18468DF8893029F01AFD7B
S2240059C0814830F041FE411C89B21CAA1DAB7E4829F05AFDFEF768BF4FF0FE0E0024022190
S2240059E01DAB1CAA8DF888E022A84FF0120E8DF889E01D941C9429F047FD082318461CA904
S224005A001DAA8DF89A3029F0F5FC04224FF4D0101FA928F003FF1F9B1CAA013308BF1F9408
S224005A201DAB04211FA829F02FFD0420C0F21A0004221FA928F0F2FE1F9B581C7FD0A3F56D
S224005A40D013803B1F9304211DAB1CAA1FA829F01BFD102020A90422C0F21A0028F0DEFE67
S224005A60209B591C68D0A3F5D0131F9A823B9B1A209304211DAB1CAA20A829F005FD0820A2
S224005A80C0F21A0004221FA928F0C8FE1F9BD8B203F47F03B3F5981F8DF89A0037D21428E9
S224005AA035D01CAA04211DAB1FA829F0EDFC00201CA91DAA8DF89A0029F09CFC1FB1384696
S224005AC028F0ECFB80461C9C9DF89B00002101224FF0FF338DE81002CDF808801DF04EFA36
S224005AE0292025A929F0E4FE044600287CF447AC4FF6FF71C0F221014FF4D01028F0ECFE0C
S224005B0029201DA91D9429F0FFFDFCF738BC1CA91DAA29F06FFCE2201FA929F0B3FEC3B2AB
S224005B208DF89A300BB100231F931FA804211CAA1DAB29F0A9FCC1E70023209399E7002327
S224005B401F9380E79DF88930072B7CF618AC1F4904221EA828F0F6FB1EA81D49042228F0AA
S224005B60F1FB47B1384628F099FB44F2E81EC1F2000ECEF8000044F2FC11C1F200010868E8
S224005B80124B421C26D0B0F5001F08D344F2D81EC1F2000EDEF800200A2A00F0CD809DF8C7
S224005BA09B3044F2FC1144F2062220F00F00C1F20001C1F2000208601370FBF769FEFCF7B5
S224005BC0DEBB00BF3C69001098430010FC410010D8410010002405201C601D941C944FF0ED
S224005BE0FE0B26F0C7FD4FF0DB0CADF8944002211DAB1CAA22A88DF889C0CDF810C0584C9C
S224005C008DF888B029F040FC0D231CA91DAA18468DF8893029F0EEFB204644F2FC14042142
S224005C20C1F200041CAA1DAB29F02EFC23682A684C33D018D6211CAA1DAB29F025FCBDF8DF
S224005C40943022680133D6329BB22260012BADF89430DDF810C0CAD9052026F095FC44F207
S224005C60E811DDF870E0C1F20001D1F800C002224FF0FF33CDF800E09DF89B004FF0807E1D
S224005C800021CDF804E0CDF808C01DF077F90023236044F2D81244F2E814C1F20002C1F2CB
S224005CA0000413602360FCF76ABB45F28672C1F2000292F800E000240EF1020E1DAB022161
S224005CC01CAA1D941C9422A8FE248DF889E08DF8884029F0D9FB45F286740C231CA91DAA98
S224005CE01846C1F200048DF8893029F083FB23781CA918461DAA8DF8893029F07BFB2188BA
S224005D0029B189B217481CAA1DAB29F0BDFB3846DDF870B09DF89B4028F0C0FA0021029043
S224005D20012220464FF0FF33CDF800B0CDF804901DF024F9FCF723BB0A21A0F58012CFF684
S224005D40F0711A604118104628F0C6FD064B00221A60FCF714BB00230AE4002433E400BF1F
S224005D60FC410010B44F0010D84100102DE9F047914656780F461FFA80FA127804E0013616
S224005D80F6B2092E88BF0026964246D006EB460307EB83039B885345F1D199F80230013B96
S224005DA089F80230002E33D0751EDFF87480EDB2344698F8013004EB4400A34214D005EBD6
S224005DC0450107EB810107EB80000C2230F0E2FB631EBCB1DCB26B1EC5B1DDB298F801309C
S224005DE004EB4400A342EAD199F8013099F800200133DBB2092B89F80130C0D9002389F874
S224005E000130BCE709246B1E002DE6D10925D0E709253446DFF80880CBE7BDE8F08700BF96
S224005E203402001030B50D46013D441CADB20146651901E0214601340820032226F058FDE8
S224005E4008B9AC42F6D130BD114B70B4002201211048114C19704FF07E56002513469907A7
S224005E6019B214BF855086500432022902DC002124F813100133242AF1D14FF07E5242623E
S224005E80064A00231370064A137070BC704700BFE442001020000020244400106C420010E6
S224005EA0924900102DE9F0411C461B78154603EB430387B24FEA83088EB22BF017FB45F880
S224005EC008002378174A03EB430305EB83039F802378B7F57A7F03EB430305EB8303DE80A8
S224005EE0237838BF127903EB430328BF527905EB83031A72237803EB430305EB83051EB182
S224005F00094B1B6893F82F606E7223780133DBB2092B237001D900232370A3780133A37096
S224005F20BDE8F081340200106849001070B504460EB21DF0B7FF002832D1244D2868A0F58C
S224005F401013B3F5801F33D22EB1B6B2330A84F8326084F833308022214628F07FFC237A23
S224005F60627A43EA0223580405D54BF6FF721A40130A2272637228684FF6FE738030C0F27E
S224005F803303984288BF114B286084BF4FF4101018600F4B1A6882420FD0C305DB0D03B1C0
S224005FA070BD00F5FE710331BDE8704028F094BC0520BDE8704029F083B80022E320114610
S224005FC01A6029F00FFC2868E7E700BFAC4200105448001030B5C0B281B0032839D8DFE8CC
S224005FE000F0332E29021C480E21FFF71BFF1B4A1B4B15881C8825F020051580194A01340A
S224006000FF250020462115701C8026F0CFF907200DF1030126F0D8F90728F8D12BF066FA4E
S224006020114B00221B68C018104B1860104B1A6001B030BD0F480E21FFF7F4FED7E70E48BA
S2240060400E21FFF7EFFED2E70C480E21FFF7EAFECDE70328ECD8CAE7246A0300B241001027
S22400606030420010DC410010E0420010484800101C440010146A0300046A0300F4690300D8
S22400608030B444F2742244F24C03C1F20002C1F200031B68D46844F678115C635488956841
S2240060A0C1F200014FF0FF301C871488D08208681D6359695C870068128A013198615961AA
S2240060C0A3F8422030BC70472DE9F0415E4D98B02B6880B293F82F20002A00F09B800021EC
S2240060E016911591002800F0A78000F5AE501B783F300002FE2B00F0A580383003AC21465C
S22400610028F08CFB2B6818AA93F82F300025D31820464E490D2203F8535C30F09DFA60B1EE
S22400612020464B490E2230F097FA002872D103250F264FF00B082F4603E002250E26A846C4
S224006140042716AB02214FF0FC0E15AA17A88DF85CE08DF85D7029F097F916AA284615A9BC
S22400616029F048F918AA931913F8543CA019202B05D1024612F8013F0130202BFAD0303B9A
S224006180DBB2092B54D814A900222AF0C1FF15A9C0B216AA29F02EF914980378002B47D0BB
S2240061A0202B08BF034638D0002214A92AF0B0FF16AAC0B215A929F01DF914980378D3F1C5
S2240061C0010238BF0022032F94BF002702F00107002F2DD1202B08BF034604D113F8012F60
S2240061E00130202AFAD014A900222AF091FF15A916AAC0B229F0FEF8159B002100934FF02A
S2240062008073019348F0500001224FF0FF3302911CF0B4FE18B0BDE8F08113F8012F01303B
S224006220202AC1D113F8012F0130202AF5D0BBE7159828F003F8EDE703AC2146054828F051
S22400624081F85FE7303059E768490010346A0300446A03003C4400102DE9F04F074689B05C
S22400626005205FFA82F90D4626F084FA714B05201B681C6BD3F834B09B69009326F084F975
S224006280B9F1020F00F09B8020462FF001F800220023C3F610622FF063F867A30CCB2FF0CB
S2240062A05FF80022002304460E462FF06FFA0028B8BF04F1004431462046B4BF4FF02D0A79
S2240062C04FF0200A2FF0E6FA80462EF0E1FF02460B46204631462EF08DFE59A30CCB2FF07C
S2240062E03FF82FF0D7FA42460346574901A82AF087FD504639462A4629F07CF801A830F0DF
S224006300A3F93A4681B22B4601A829F0BDF858462EF0BEFF00220023C3F610622FF020F821
S22400632045A30CCB2FF01CF8B9F1030F14BF20235F2304460E462A463946184629F05AF8BC
S22400634000220023204631462FF020FA0028B8BF04F1004431462046B4BF4FF02D0A4FF000
S224006360200A2FF097FA80462EF092FF02460B46204631462EF03EFE31A30CCB2EF0F0FF41
S2240063802FF088FA30490346424601A82AF038FD39462A46504629F02DF801A830F054F93C
S2240063A03A4681B22B4601A829F06EF8B9F1030F14BF20205F2039462A4629F01BF82C688F
S2240063C00098002C2FD028F0F1FCC0F30721C0F30742030E20706170A270E3702B6818781F
S2240063E05C789978DA7840EA042343EA014343EA02632B6013B1B9F1030F05D0B9F1000F74
S22400640006D109B0BDE8F08F1A799B185F229A720E4B1B885B05F4D403213A462B460C4863
S22400642029F032F8EDE728F0C1FC286038602B68E0E700BF4C400010008056400000000080
S224006440006AF84000000000B86B03002E440010C06B03002DE9F041054688B00520D4B24A
S2240064600E4626F087F9274BB3F904002EF010FF25A30CCB2EF074FF2FF00CFA244B804654
S2240064800520DF8826F080F8B8F1030F27DD214B21494246022C08BF194668462AF0B0FCF8
S2240064A0684630F0D1F82A4681B23346684628F0EBFF8CB1174B1949022C08BF19463A469F
S2240064C068462AF09DFC684630F0BEF82A4681B23346684628F0D8FF08B0BDE8F0813020FB
S2240064E02946324628F086FF022CE2D129463246302028F07FFF29463020324628F07AFF9D
S2240065000449DCE774420010976EB23F3BDF4F8D34020010C46B0300CC6B0300D06B0300C4
S224006520F0B5D6B2032E88B005460C462DD0052026F020F9022E44D04D4F4E493A886846EB
S2240065402AF05EFC684630F07FF8234681B22A46684628F099FF29462246202028F04AFF9B
S2240065607A88444968462AF04BFC684630F06CF82A4681B22346684628F086FF012E59D097
S224006580052026F001F808B0F0BD0E68002E4BD0002028F00BFCC0F30721C0F30742030E77
S2240065A030707170B270F370236818785D789978DA7840EA052343EA014343EA02632360A5
S2240065C0E1E731462C482A46234628F05DFF284E00273388294643FA07F313F0010F0CBFDA
S2240065E0302031202246013728F004FF082FF0D129462246202028F0FDFE204802212A461D
S224006600234628F041FF00277388294643FA07F313F0010F0CBF302031202246013728F0B5
S224006620E9FE082FF0D1ABE7304628F0BFFB20602860A8E77A68124968462AF0E1FB684676
S22400664030F002F8234681B22A46684628F01CFFBA680B4968462AF0D3FB68462FF0F4FF62
S2240066602A4681B22346684628F00EFF88E700BF80490010D86B0300D46B0300DC6B03005D
S224006680E06B0300F0B5044688B005200D4626F071F8234BB3F904002EF0FAFD21A30CCBBB
S2240066A02EF05EFE2FF0F6F8204B06469B684FF47A72002B29D11E490023096801F11C0136
S2240066C003C92FF0DFFC0746052025F05DFF3A46184968462AF094FB68462FF0B5FF2B46E2
S2240066E081B22246684628F0CFFE3246124968462AF086FB68462FF0A7FF224681B22B46CC
S224006700684628F0C1FE08B0F0BD09490023096801F1440103C92FF0B5FC0746D4E700BF0A
S22400672074420010976EB23F3BDF4F8D340200104C400010E46B0300EC6B03002DE970434B
S224006740044688B06FF006000E461CF031F82EF09FFD00220023C3F6E0722EF001FE8946CE
S2240067604A460146804600201BF08CFD164902B268462AF045FB68462FF066FF224681B2DB
S2240067803346684628F080FE012520202146324628F030FE284641464A461BF073FD0A4959
S2240067A002B268462AF02CFB68462FF04DFF013581B222466846334628F066FE032DE4D1BF
