S01A000042696E732F4D333033367630332E50524F442E73726563FA
S224000000DCFF001001010000E9000000ED000000F1000000F5000000F90000000000000039
S22400002000000000000000000000000061040000FD0000000000000031040000451E0300BE
S224000040990100001543030099010000693B0300990100000D22030009230300092403003A
S2240000600D25030099010000C13B0300FD3C03009901000099010000990100009901000009
S22400008099010000311E0300990100009901000099010000990100009901000099010000D3
S2240000A099010000913303009901000099010000990100009901000099010000990100003E
S2240000C0990100009901000099010000112603009901000099010000F94403009901000005
S2240000E09901000000000000FEE700BFFEE700BFFEE700BFFEE700BFFEE700BFFEE700BF89
S2240001001B4B1C4900B58B4206D21B4A52F8040B43F8040B8B42F9D3204821494FF0000201
S2240001208842B8BF40F8042BFFF6FAAF1D4880F30988124B124A186812499342086005D263
S2240001401149096843F8041B9342FBD30F4B0BB100E000BF0E4B13B100E000BFFEE70D4B24
S22400016013B100E000BFF9E700F0CAF9F6E700BF00000010D001001061970300B08D0010AF
S224000180DCFF00107859001000000010000000000000000000000000FEE70000D0010010B8
S2240001A0BC690010B08F0010000000000000000000000000000000000000000000000000B6
S2240001C000000000000000000000000000000000000000000000000000000000000000001A
S2240001E00000000000000000000000000000000000000000000000000000000000000000FA
S2240002000000000000000000000000000000000000000000000000000000000000000000D9
S2240002200000000000000000000000000000000000000000000000000000000000000000B9
S224000240000000000000000000000000000000000000000000000000000000000000000099
S224000260000000000000000000000000000000000000000000000000000000000000000079
S224000280000000000000000000000000000000000000000000000000000000000000000059
S2240002A0000000000000000000000000000000000000000000000000000000000000000039
S2240002C0000000000000000000000000000000000000000000000000000000000000000019
S2240002E000000000000000000000000000000000000000000000000000000000FFFFFFFFFD
S22400030000B58AB00AA8362340F8283D41F6F1736846C1F6FF7305A9984706980AB000BD2D
S22400032010B44FF44043C4F20F034FF40242C3F8C420D3F8A02142F02002C3F8A021D3F819
S224000340A0114FF440424906C4F20F02F7D54FF4D853C0F2B70301219842C2F80C1198BF3C
S224000360C2F8041140D94FF45854C0F26E14A04237D046F23A0414604FF460630924C2F8AD
S2240003808440C0F22773C2F88010AA21C2F88C10B3FBF0F05521C2F88C1000282FD0A0427A
S2240003A033D14EF2C0123A244FF48470C0F2E4021E494FF44043C4F20F030A60C3F80401D6
S2240003C019461C60D1F888204FF440435205C4F20F03F7D50422C3F8A8210122C3F8002172
S2240003E00BE00220C2F804013A2010600F4803600423C2F8A831C2F8001110BC704745F269
S2240004003A0440F201101A46D2E793FBF0F24CF66B23511EC6F65F33A3FB0143DC0D24034E
S22400042040F4807044F03A04C2E700BFBC69001072B6EFF3088020E9F00F2C4981F3088871
S2240004404FF000014DF804ED62B62DF05BFD72B65DF804EBB0E8F00F80F3088862B67047BF
S22400046072B6EFF3088020E9F00F204981F308884DF804ED62B62DF071FD72B65DF804EB2B
S224000480B0E8F00F80F3088862B6704700B52EF045FD72B6164880F30888A0F5806015497D
S2240004A0154AA2EB0101A0EB01001249134AA2EB010300EB0302014640F0010000F002F822
S2240004C0FEE700BF074C084D00B5AC42034605D254F8040BAC4241F8040BF9D31046984776
S2240004E0FEE700BF9074030098760300B08F0010DCFF0010907403009876030098760300D8
S224000500784B794A794D80B501271A602F7031F08DFD774A00261680764A774C1670774A22
S2240005204FF460601680764AC0F227701770754A27701770744A1670744A1670744A1670E4
S224000540FFF7EEFE304631F081FD2CF04BFD4FF48043C4F202035A6CD60700F1B1809A6CAF
S224000560100500F1AD809A6C002A00F0A9805A6C12F47F0F40F0D2809A6C42F400629A6482
S2240005804FF48043C4F20203996C48F2FF4241F000419964C0F21E024FF080435A600322F3
S2240005A01A70AA221A7255221A7234F00BF933F0D3FE33F077FC33F04BFA2378002B40F041
S2240005C08980052030F00CFA02204FF41651002232F0A2F801204FF4E121002232F09CF8DA
S2240005E0002002464FF4165132F096F8042042F6A001002232F090F82EF08CFC454E06F13B
S2240006000608771C16F8019F4846B9F1000F08D02CF080FD07EB09131B7D0A2B55D0464543
S224000620F0D1022101202CF023FE3B4B01221A701A78002129705AB14FF44042C4F20F025D
S2240006404FF47061C2F8C01030BF18780028F9D10025257033F0D8F933F068FA33F096FC9E
S22400066032F042FD012034F0DBF831F07BFD4FF44043C4F20F03D3F8C4104FF48043C4F27A
S224000680020348F260021965C2F209024FF00071D1614FF080431C7848F2800204F001044A
S2240006A01C70AA21C4F202024FF0FF30552419721C72D060D06219721D722EF02FFCFEE77A
S2240006C04FF48043C4F2020356E7484602212CF0DBFCA4E7002032F07FFE012032F07CFE6C
S2240006E06FE700BF54400010C0690010B94100105A400010C0410010B44100106441001084
S224000700B841001058400010BC410010404000105D400010977603005C40001034F052F8AF
S22400072033F01AFE33F0BEFB33F092F9052030F057F92EF0EFFB64244FF47A7031F0F2FC8E
S224000740013CF9D133F0F2F933F020FC33F034FE32F0CAFC012034F063F831F003FD022020
S22400076024F002FC4FF48042C4F202024FF400614FF44043D464C4F20F0311650121C3F8E6
S22400078004113A211960D3F8A810C9050BD5AA21C3F8A040C3F8AC105521C3F8AC10D36C31
S2240007A043F00203D3644FF44042C4F20F02D2F8A8104FF4404311F48071C4F20F03F6D16C
S2240007C0D3F88820D2050FD5C3F88010AA21C3F88C104FF480425521C4F20202C3F88C10ED
S2240007E0D36C43F00103D3644FF44042C4F20F02D2F888404FF4404314F48074C4F20F039F
S224000800F6D14CF2B016C4F20F0648F26005C3F80C41C2F20905C3F8A04148F280013460E9
S2240008204FF00076EE61C4F202014FF0FF304FF40245C3F8C4504FF46D42C862C8601D21AD
S224000840C3F8C010CEF20002136943F00403136130BF2EF063FB4FF48042C4F20202516C35
S2240008604FF0804341F001015164FF21596003211970AA2255211A7219721A721C722EF072
S2240008804DFBFEE700B581B001A941F8040D022069462CF0D3FD009801B000BD00B581B0A3
S2240008A001200DF103012CF0ADFD9DF8030001B000BD00BF2DE9F041114D04B24FF0804625
S2240008C04FF0AA085527002064212CF0F1FB0A2C04BF86F808803772F5D0002CF3DB35F865
S2240008E0143000200133642125F814302CF0E0FB0A2C04BF86F808803772EED1E3E700BF8E
S224000900384200102DE9F04F2E4C87B02378C0B28B46039033B1002001212CF0C9FB237830
S224000920002BF8D1284D0024284F059404942E1D4FF0FE084FF00E094FF0110A01E0402CF0
S2240009403ED005AB022104AA06A88DF818808DF819902FF01BFC04A905AA11208DF819A009
S2240009602FF0CAFB204604A905AA2FF0C5FB06EB8400042104AA05AB2FF008FC07EBC4001C
S22400098004AA05AB08212FF001FC55F8043FE2B20134002BD3D10132D4B25846049D2EF071
S2240009A0FFFA4FF08073019302900021039822464FF0FF33009522F053FF07B0BDE8F08F78
S2240009C04124EAE7706900104C680010C86000102DE9F04FAE4C8AB02378FF2B00F06681D2
S2240009E0002005A906AA23F053FA2378074643B1059D069EA74B0135013683E860000022A6
S224000A002270A54B1B78022B6DD007A9E5202FF0BBFD08A90446E6202FF0B6FD012802D0F8
S224000A20012C40F04B81DFF87C9241F6FF73B9F800209A4200F05D81059A0699954B1FB989
S224000A401868824200F0B181B9F800001A605960924E002840F067814FF6FF7801274FF400
S224000A60C0158E4CC0F218082DE094F804A020684FEA0A6A4AEA102A227B0598D4F808C042
S224000A801206C0EB0A000028B8BF404242EA1C22904215D294F808A060684FEA0A6A4AEA63
S224000AA0102A227C0698D4F80CC01206C0EB0A000028B8BF404242EA1C229042C0F06A815E
S224000AC045458FB20BD01122284674492EF028FD3378791C9A1DD2B21135042AC5D900231A
S224000AE0A9F80030E4E06B4B059D069E27B91A68069E954200F00481DFF8ACA1DFF8A081F2
S224000B0083E860004FF4C01051461122444655462EF006FD0FCD0FC400222B685F4E01923E
S224000B204FF6FF72C0F2180223704FF0000B4FF4C01935460492374658E02C792B6824060D
S224000B40059898F8046044EA1324D8F800303606A04246EA132640F38780B04234DC001BBC
S224000B6035F08CFA0290039197F808C098F808007B68D8F8042000064FEA0C6C4CEA132CAD
S224000B8040EA1220CCEB0000CDF800C035F076FA02AB0CCB35F0DAFA02900391301B35F010
S224000BA06DFA0B46024602A903C935F0F9FB35F067FDDDF800C0069B84449C45089003DAC3
S224000BC0019A531C9BB201933B78019A0633DBB202F00102042B019252D8314E2F4C0FCC5B
S224000BE00FC623683370049B994549D009F111091122484629492EF093FC3B780BF1010BA8
S224000C000633DBB2042B94BF00230123BBF1310F88BF43F00103002B8FD09AF80440DAF8A4
S224000C200030240644EA1324230E00229AF808102B712A70DAF80400090641EA1021D2B2F8
S224000C40DBB243EA012342EA042285E80C00090E2972059898F80460D8F800303606A04285
S224000C6046EA13263FF779AFB0423FF778AF3B78019A0633DBB202F00102042B0192ACD909
S224000C80019A084BBAB141F6FF721A8010E000BF40420010D8010010A44900102442001017
S224000CA0CC4100104842001050420010012323700AB0BDE8F08F019A1A80F9E7E72009A973
S224000CC02FF062FC099B13B942F210730993059A0799891A0029B8BF49428B42069914DD65
S224000CE00898401A0028B8BF404283420DDD314BC9E70022A9F800200699059A2E4BA3E6D6
S224000D005A6896427FF4F8AED2E7DFF8A89041F6FF73B9F8000098427FF490AE0023A9F8AA
S224000D200030254B90E6C004C00C0138234E00EB0010112200F5C01031462EF0F1FB33783F
S224000D400633DBB2042B3FF687AE32793068120642EA1020337B059AB1681B06821A002A2B
S224000D60B8BF524243EA11239A42BFF475AE327A7068120642EA1020337C069AF1681B068F
S224000D80821A002AB8BF524243EA11239A42BFF463AE8DE7FE2BA9F8007089D0C3F1FE03C0
S224000DA047EA4337034B1F8082E7586888427FF44BAE7DE748420010D801001024420010DA
S224000DC044F25403C1F200031B6800229A80DA809A60DA601A615A61704700BFF0B5C5B2B6
S224000DE0002383B0022D0193009300F0C48002238DF808301E238DF8093002216A4601ABAE
S224000E0002A82FF0C3F931F0F3F95E4B5E4C1B78A060013BDBB2022B88BF5C4B4FF0030E21
S224000E2089BF1B686FF0090318785E7881BF9978DA7840EA062343EA0143534E88BF43EA95
S224000E40026384F810E005F001074FF0970E6A46E3600B2101AB84F811E006F10800A77489
S224000E602FF094F905202CF007FB494B1B68DA88002A4CD09988B1FBF2F23275986848F629
S224000E808902C8F68802A2FB00106169400960F317216161D868E169A2FB0062C2F34F12CE
S224000EA0100A2076E2751869A26901F07F4160F31722A261187D0022E0765E69022D41EA2C
S224000EC01621E161304884F82020E27724D0314B90F82010D3F8C44093F8C720B3F8C03003
S224000EE041EA042180F825302423016280F8242080F82630132114306A4601AB2FF046F96A
S224000F003FB905202CF0C2F9009803B0F0BD3275B4E7FFF755FFF4E793F83F401D4A0023E5
S224000F2080F82030D2F8C470DEB2B2F8C03092F8C71080F8253046EA07222423C47702624F
S224000F4080F824106A46132180F8263001AB14302FF01CF905202CF099F904210DEB010316
S224000F606A460D482FF012F929466A4601AB0B482FF00CF9C8E704238DF8083024238DF89C
S224000F8009303AE764420010D8010010E841001054400010684A0010305800108458001030
S224000FA070B500B287B028B1A54B1C8814F4806400F0B1802EF03AFB002402200C2122F0CC
S224000FC001FC0590002800F094800023037043708370C37006230371059E022343710323A0
S224000FE0B371234624B1BDF90C30002B18BF02230025F3716620294601224FF0FF330096C9
S2240010004FF080760196029522F02AFC61200DF11A012FF0CFFA064600286DD1BDF81A30FD
S224001020DA046BD502200D2122F0CCFB059000285FD0067046708670C67006220271059BE5
S2240010400222427103229A71224624B1BDF90E20002A18BF0322DA7100934FF0807300210C
S2240010600193BB2001224FF0FF33029122F0F8FB4C200DF10E012FF09DFA10B10023ADF818
S2240010800E30642003A92FF095FA10B10023ADF80C30BDF80E309B0705D5BDF80C3013F403
S2240010A0805300F0CF8002200D2122F08BFB0590F8B10023037043708370C37006220271E9
S2240010C0059B0222427103229A71224624B1BDF91020002A18BF0322DA7100934FF080730B
S2240010E000210193222001224FF0FF33029122F0B7FB204607B070BDADF81A5007AD0023D9
S22400110045F8083D294616202FF080F9172029462FF07CF9ACE70B2003A92FF04BFA08B14A
S224001120ADF80C400C200DF11A012FF043FABDF81A3018B10023ADF81A300023BDF90C2039
S2240011401BB201249A42A4BF4FF0FF33ADF80C300DF10E01A8BF002417202FF02BFA10B133
S2240011600023ADF80E3016200DF11A012FF022FABDF81A3018B10023ADF81A300023BDF927
S2240011800E201BB29A42A4BF4FF0FF33ADF80E3004A9B8BF012464202FF00CFA0546E8B9DE
S2240011A0BDF81030D90419D5212004A92FF002FA08B1ADF8105020200DF11A012FF0FAF938
S2240011C0BDF81A3018B10023ADF81A300023BDF910201BB29A4201DA012403E04FF0FF332A
S2240011E0ADF8103002214FF0FF3013F079F9032103464FF0FF30002B18BF002413F070F992
S22400120000287FF4D7AE002C3FF4D4AE03A82EF051F8044600283FF4D0AE03A82EF0B6FE16
S224001220BDF80C1039BBBDF80E10F9B9BDF8101000293FF4C2AE09B220202FF077F9BCE692
S2240012401042001007AD45F8083D29461F202FF0DDF8294620202FF0D9F8294621202FF0E1
S224001260D5F8222029462FF0D1F842E709B216202FF05CF9DAE709B20C202FF057F9D2E7A5
S224001280F0B50C2582B00124284601A92FF092F90135002808BF00240F2DF5D11F2528465D
S2240012A001A92FF087F90135002808BF0024232DF5D101A916202FF07DF901A903461720E2
S2240012C0002B08BF00242FF075F901A903460A20002B08BF00242FF06DF998B9BDF8043074
S2240012E0D3F1010338BF00231C4011D130F080FF46F23F73C4F6A333984205460DD820B2D4
S22400130002B0F0BD012300211C40ADF80410EDD0002029F07BFF0024F1E74BF2C533C9F2B3
S224001320A213A3FB00234AF6AB22DB0ACAF6AA22A2FB031244F207541609CCF22E24A4FBA3
S224001340001406EB460643200DF10601A3EBC6062FF030F9BDF80630240CDAB2172AB6B2DD
S224001360A7B205DD03F47F4303339BB2ADF80630B3F5006F02D90322ADF80620BDF804304B
S224001380BB4256D0002029F041FFBDF80630BDF8042013F47F4017D197426DD00132974218
S2240013A068D003200023009329F030FF0120FFF7F7FD002859D039B20A202FF0B7F8002070
S2240013C029F024FF01249AE7974230D0180AC11CC9B2062901D9011FC9B2D01F8742E0DBBC
S2240013E0D01D8742DDDC44F62510C2F29240A0FB0450251A00EB55008008C0EBC000201AE9
S224001400C0B288423AD042F29340521A7B1AC9F2492080FB031480FB0250D917E41883186F
S224001420D217C1EBA401C2EBA3039942B9D1002465E744F20753CCF22E23A3FB05134FF4AD
S224001440A3429DF806101B0CC0F201024FF4616000FB01F102FB1353994293D201F516710A
S2240014608B422CBF002001208DE70A2069462EF0CDFFA4E79E4294D2044640E7DBB29E4288
S2240014808FDA00243BE700BF40F2D813C1F20003188D003018BF0120704700BF10B504B248
S2240014A0022C2FD04FF48043C4F202035B6C58051FD4022C19D002202EF02CFB03242EF05F
S2240014C04BFB204601342BF0C7FE072CF7D10320002121F0FFFE002002212BF0E9FD2EF097
S2240014E03BFB00202BF0B8FEFEE70A202EF012FBE4E71120012121F0EDFE1120002121F009
S224001500E9FED6E700216FF0030021F0CBFF00216A2021F0C7FF00216E2021F0C3FF00219F
S2240015206FF0050021F0D6FE00216B2021F0BAFF6920012121F0B6FFB4E700BF2DE9F04FC7
S2240015405F4F93B03B884FF6FF791AB2002ABFBF03F500639BB21AB23B80B2F5006FC1BFDC
S224001560A3F500639BB21AB23B80013AD417640D12195205520D141B002604F50844DFF8AE
S2240015805481DFF83CB1A40111961096C0F223094FF0FD0AD8F800304C4588BF4FF4081460
S2240015A04022022501369C42204669468DF848A08DF84950F6B214446FD02DF0B1FF9DF847
S2240015C018E029460EF11B0E10AA11AB12A88DF849E02EF0DBFD294610AA11AB38482EF020
S2240015E0D5FD9DF8491010AA023911AB684689B22EF0CCFD3B8801339BB21AB2B2F5006F7F
S2240016003B80C4BFA3F50063ABF800300F2EC1D100242C4B2C4A1B78106803EB43032B4A25
S2240016209B001370054610B12DF0BAFC054602200E2122F0C7F8119000283FD0109BDFF8E1
S2240016409880C3F30741C3F307271A0E8170C2700370477098F80030119F0622027103F018
S2240016600F0305224271BB710023FB71384610972DF0D6FC80B2030A38727B7298F8000044
S224001680109900F00F0041F08071BE722A4622F0A7F820B213B0BDE8F08F294610AA11AB8C
S2240016A012A82EF073FD11AB0548294610AA2EF06DFD074B3F8801241F80AAE70124E8E7C1
S2240016C062420010C84100106C420010C44100104C4200101C420010FC410010CB1C13EA28
S2240016E0210338BF0B469B10002B30B413DD0B4A0568126895420ED1002203E050F8044F3D
S224001700AC4202D101329A42F8D1C2EB82729000081830BC70470020FAE700BF0000001067
S2240017202DE9F041074683B00D4602201021164622F048F8FFB2044648B3062303710423CF
S224001740437113234FF0000883710223C37180F8008080F8018080F8028080F8038080F8A8
S224001760088080F8098030462DF01AFC0646380940EA071701224FF0FF33F8B241468DE823
S224001780700022F06DF8034B012283F82A2003B0BDE8F081D80100102DE9F04F3E4F8AB059
S2240017A03B68B3F5806F34BF99464FF48069B9F1000F68D0DFF8E480DFF8E4A04FF0000B1B
S2240017C0B9F1F00F34BF4E46F026B6B208AB022107AA741D09A86FF00105CDF820B0CDF8CE
S2240017E01CB08DF824508DF825402EF0CFFC0D2007A908AA8DF825002EF07EFC27480421E7
S22400180007AA08AB2EF0C2FC1EB344F20423C1F20003186834B2102CA8BF1024A4B225B235
S22400182003A92A46A4B22DF07BFE08AB03A8214607AA2EF0ABFC3B68D8F80000361B5B1B26
S2240018402818B6B2C5EB09093B60C8F80000002EE0D144F20C23C1F20003DAF800001C785E
S224001860079D2DF09DFB4FF08073019302900021204601224FF0FF33009521F0F1FFB9F157
S224001880000F9DD13B6823B9054B186808B12DF057FB0AB0BDE8F08FE041001004420010EA
S2240018A0F041001010B5C4B284B003202BF0E4FD012C14BF4B246B24072369460222D62063
S2240018C08DF800308DF8014032F094FB002001212BF0EEFB03202BF0D9FC04B010BD00BF3E
S2240018E070B5052384B08DF8003003208A238DF801302BF0C1FD02226946D620144632F009
S22400190079FB002001212BF0D3FB002522466946D6208DF800408DF8015032F06BFB284660
S22400192001212BF0C5FB01261F2322466946D6208DF801308DF8006032F05CFB2846314636
S2240019402BF0B6FB0723224669468DF80030D6204B238DF8013032F04DFB284631462BF03C
S224001960A7FB3623D620694622468DF800508DF8013032F03FFB03202BF088FC04B070BDD0
S2240019802DE9F04F034690B0DBB203200B932BF073FD0CAA0B234FF48071D62032F066FBFA
S2240019A003202BF073FC9DF83A309DF833C09DF832E09DF836409DF831709DF830609DF84C
S2240019C037509DF835809DF834909DF839A09DF838B047F28872C0F203020A93F9200B9BA7
S2240019E027218DE800500594029703960495CDF81880CDF81C90CDF820A0CDF824B022F073
S224001A00E1FF012100202BF053FB05238DF830300320BA238DF831302BF02EFD02220CA924
S224001A20D62032F0E7FA002001212BF041FB01240B2302220CA9D6208DF831308DF8304012
S224001A4032F0D8FA214600202BF032FB00230CA98DF83030D620B72302228DF8313032F005
S224001A60C9FA03202BF012FC1020062123F064FA10B0BDE8F08F00BF2DE98048A7B032F090
S224001A80F9FECE4A002313805380CD4E44F2182044F2CA1144F2DE1244F2E01844F2042C55
S224001AA044F2F01EC1F20001C1F20002C1F2000CC1F2000EC1F200004FF41674C1F20008B9
S224001AC00B8003701380C8F80030CCF80030CEF80030B48530F08CFB0CA92FF01DFB0C9B23
S224001AE0B3F5FA6FC0F262816120B6492EF062FD03B22BB144F2B2110020C1F20001088058
S224001B002DF020FD44F2B212C1F20002034644F2E8141088C1F200042360C0F3431022F072
S224001B20B7F844F2B218C1F200080546B8F8000022F0CEF8A34C02462946002030F0ECFD94
S224001B40642021462EF036FD002842F09B8244F2B21EC1F2000EBEF8000044F2B214C0F3A1
S224001B60431022F095F8C1F200040546208822F0AFF829460246022030F0CEFD44F2E81019
S224001B80C1F200000368472019785D789A7841EA0521DB7841EA024242EA036344F26422E2
S224001BA0B3F1FF3F0CBF04230023C1F20002214613702EF0FFFCC8B144F2E818C1F2000807
S224001BC0D8F80030197858789A7841EA0021DB7841EA024242EA036301330BBF4FF0FF0CA5
S224001BE04FF0000EA4F800C0A4F800E044F219220024C1F200020820734914702EF0DAFC15
S224001C0020B144F2C213C1F200031C8044F2FD186E496F480024C1F2000822F0DBF90720EC
S224001C206C4988F800402EF0C5FC40B144F2202CC1F2000C0223ACF8004088F8003006203A
S224001C4065492EF0B7FC68B144F24A2044F220214FF0000EC1F20000C1F20001A0F800E0A4
S224001C60A1F800E044F24A22C1F20002B2F9003044F24C28B3F5006FC4BF574B4FF0000C83
S224001C8044F2622EC8BFA3F800C04FF0FF340023C1F20008C1F2000EA8F80040AEF80030D0
S224001CA044F2702444F26C2844F2FC1C44F2C41EC1F20004C1F20008C1F2000CC1F2000E33
S224001CC07F2024A92370C8F800308CF800308EF800302EF06FFC98B9BDF8900034F01EFE47
S224001CE034F0DEF93DA30CCB34F05AFB0022C3F6F072002334F076F834F00AFD394C206092
S224001D00002021F075FF4FF48043C4F202039B6C44F2600823F07F43C1F200080320C8F840
S224001D20003022F047FA3E200DF18A012EF042FC18B14FF0000CADF88AC0BDF88A306FF007
S224001D40090003F00F031946ADF88A3021F0C2FA45200DF18A012EF02DFC18B14FF0000E9A
S224001D60ADF88AE0BDF88A2044F20824D3B2C1F2000419466FF004002270ADF88A3021F08E
S224001D80A9FA4FF08043AA221A72552200201A7223F0EAF883B218B245F2E878C1F20008D8
S224001DA00028A8F800301FDDFFF778FB48F2F060C3F66E0030F022FA96E600BFA8410010A0
S224001DC0D8010010B2410010C24100102C7703001C420010204200104A420010006AF8403B
S224001DE000000000C801001032F044FD002842F069820320012121F06DFA0820002121F046
S224001E0069FA44F2C21CC1F2000CBCF80030002B02F0E2827F4D4FF4FC7128682EF0A8FC54
S224001E202B681868002842F0D1822B689A694AB948F2F45149F64132C2F20601C0F26B52E9
S224001E4019635A6393F84020012062F07F0283F8402021F0CDFE5C206F492EF0ABFB44F280
S224001E60102EC1F2000EBEF8002044F26820120AC1F2000002700AB1531E0370664C4120D7
S224001E8021462EF097FB002842F0098123889B0642F10781614C0794207044F2BA18002437
S224001EA0C1F2000821466A20348586F82E4086F82F4086F82A40A8F8004021F0F3FA584B76
S224001EC021461C606C2021F0EDFA49200DF18E012EF070FB03B21BB14FF0030CADF88EC055
S224001EE05A2050492EF066FB18B94FF0030EADF88EE0BDF88E00002100F0070021F026F88D
S224001F00462048492EF056FB28B144F2FE110020C1F20001088044F2FE12C1F20002138846
S224001F206FF00500C3F3C1235B00591CADF88E3021F0D0F94FF0FF3032F076FA45F2E874FE
S224001F408310C1F20004DFF8E8A0DFF8E890364F44F2340E44F2360044F220014FF0FF3C4A
S224001F604FF000082380C1F2000EC1F20000C1F200012E4CDFF8C0B0A9F80080AEF800C002
S224001F80A7F80080A0F800C0A1F800C0AAF800C000222B6803EB020E9EF84C1000295BD011
S224001FA0B2F5D67F58D202F14C0019184A78FA2A00F0B8838A78143A282A00F23E83DFE859
S224001FC012F0FB023C033C033C033C033C033C033C033C033C0387023C033C033C033C0341
S224001FE03C033C033C033C033C033C033C033C033C033C033C033C033C033C033C03110218
S2240020003C033C033C033C033C033C033C033C033C033D00544000101042001001420010EE
S224002020AC410010FE41001066420010284000102C400010B041001038400010BAF9003037
S224002040013300F00483B9F800202B6803EB020E9EF84C100029A3D144F21021C1F20001C4
S2240020600B88980508D544F23602C1F20002B2F90030013302F0688144F22008C1F2000828
S224002080B8F90030013302F03281BAF90030013302F03982CB4A00231380CB4A44F2C211D4
S2240020A044F24024C1F200011380C1F20004022208882270C54A4FF0040C01214FF0210855
S2240020C0736033601170A6F83080A6F832C0A6F834C0002842F0FA8100239AB227A801335D
S2240020E044F23828002400EB4201C1F20008042B28F8124021F8404CEFD144F2002E44F298
S224002100E412FF23C1F2000EC1F200024FF0070C442023A98EF800301370ADF890C02EF05E
S22400212049FA002801F0CA872423ADF88C30BDF88C30642244F2340402FB03F3C1F2000436
S224002140248844F23C08C1F2000803200621A8F80040ADF88C302BF08BF80B2021210022E1
S2240021602BF040F914210A461B2399482BF056F8052348200DF18E0186F854302EF01AFAA8
S224002180002801F0AE854FF05B08ADF88E80BDF88E300A2202FB03F345200DF18A01ADF874
S2240021A08E302EF007FA18B14FF0000CADF88AC09DF88A306FF004001946ADF88A3044F294
S2240021C0442421F087F844F20A2844F2142E44F20E2044F2422144F2EC120023C1F2000E0D
S2240021E0C1F20001C1F20002C1F20000C1F20004C1F20008CEF800300B8013802380038012
S224002200A8F80030FFF76CFB724A0421724B48F6B05E02EB010CC1F2000ECCEB0303CEEB71
S22400222002026E4C93FBF1F392FBF1F109940B930A916B482BF068F91B2800F09782212860
S224002240F7D10B201BA92AF041FF1B9C002C01F0578514F0007708BFB84640F0D985204684
S224002260414621F011FC84B204F00F03012B00F20785DDF86CA005222AF04F431EA819A992
S22400228004F0010408941E932CF0DEFE052840F07E849DF86530002B40F079848DF89A30CB
S2240022A098469DF868305A1E8DF86820002B77D002221EA822A92CF0C7FE0228044640F0DD
S2240022C066849DF88830122B00F00F8600F234820C2B00F247840B2BC0F066850020322120
S2240022E02AF0E6FE9DF8892000211EA82CF0ACFE2046092121F066FA1C90002899D000238F
S224002300037043708370C370DDF870B006238BF804300423224622A98BF805300BF1060083
S2240023200B238DF888308DF8894035F029F821A960202EF03FF9032319461A4630B9BDF876
S224002340843003F00702D1B2C3F302239DF86400ADF88420040944EA001002228DF89A207A
S2240023608DF89B008BF808108BF809301FB138462CF016FE80461C9B9DF89A208DE8080416
S2240023809DF89B004FF0FF330021CDF8088021F067FA9DF868305A1E8DF86820002B87D182
S2240023A0338D3BB144F2BA10C1F20000038843F0040303801E98002800F067842CF0C0FDDF
S2240023C000F063BCF441001048420010A449001010020010B08F0010DCFF0010C8010010D8
S2240023E03C77030044F22002C1F20002B2F9003001337FF428AE44F23403C1F20003B3F9EE
S2240024000080DFF864C3B8F1FF3F01F0618744F2240E0B1DC1F2000ECEF8003019461022A1
S2240024200CA8CDF810C034F0ABFF2B6808F14C015A5C08F16000013259181818920034F00E
S224002440A8FFDDF810C02068BCF80020D5F800E002F11408CDF8188000F11408C4F800806D
S22400246011B244F220084C31C1F200080EEB0103A8F800201E229A700422DA70069A181DB2
S2240024800123ACF800200EF8013044F22403C1F2000318600CA9102234F072FF44F2200EAD
S2240024A0C1F2000EBEF900302A684C33D11804204FF0320CC87081F802C001EB000ED05443
S2240024C044F22400C1F20000C0F800E0D25CB5E044F23602C1F20002B2F9003001337FF4EA
S2240024E0B2AD44F23403C1F20003B3F90000DFF87882431C01F05487B1F804C02A68ADF809
S22400250030C0CB8801F1040ECBF800E000F14C01ADF8323012F801E054300EF1010E5118A1
S22400252010184FEA8E020593CDF810C034F031FFB8F80010D5F800E00AB220684C3272443F
S22400254001F1080ECDF818E000F1080E101DCBF8000044F23600C1F2000001800699C4F8BF
S22400256000E0A8F80010DDF810C0A2F804C0059BD38044F23608C1F20008B8F900302A682E
S2240025804C33D1181E2088700220C870D05C012802BF388840F00800388001200431D054FE
S2240025A0CBF80010D25CB9F80030121803EB820292B2A9F80020ECE444F2340CC1F2000C8E
S2240025C0BCF9002001327FF43EADB9F80020B7F800E01FFA82FCBCF1080F4EF0010E1FFA6F
S2240025E08EFE2160DFF8808108BF5E49A7F800E004BF4EF0020EA1F800E0A8F800C0195CA5
S2240026003E2901BF398841F004013980195C4B1C02EB8303B3F5D67F9CBF9AB2A9F800202A
S2240026207FF6B7AC44F234004FF0FF3EC1F200000023A0F800E02360ABE41A5CB9F8003020
S224002640013203EB820292B2A9F80020A1E444F2340CC1F2000CBCF90080B8F1FF3F01F004
S224002660958644F2300E0B1DC1F2000ECEF80030194604220CA834F083FE2B6808F14C0130
S2240026805A5C08F15400013259181818920034F080FE44F23400C1F200000288206802F108
S2240026A00808CDF8188000F10808D5F800E0C4F8008011B244F22C084C31C1F200080EEB60
S2240026C00103A8F800204FF0010C3C229A7083F803C0181D069A44F2340344F23008C1F2DC
S2240026E00003C1F200081A800EF801C00422C8F800000CA934F044FEBAF900302A684C33C1
S224002700D11801204FF03C0CC87081F802C0D05444F2300001F1040EC1F20000C0F800E0D7
S224002720D25C8BE71A5C12F0030F41F0DB8592081A54F9224A703DE41A2B00F28D82192B51
S22400274080F0A882142B00F08D83C0F06F83182B00F0F7839DF889201EA800212CF074FC9B
S2240027609FE500BF664200103440001044F2E021C1F20001B1F900300022B3F5967F86F8B3
S2240027802A2000F3408344F2E012C1F200021368002B40F0358396F85430013BDBB286F870
S2240027A05430002B7FF445AD44F21424C1F200042368AC49BDF890200133052081F85400D0
S2240027C02360002A4BD044F21608C1F2000898F80030AA204FF0804108725520012B0872FE
S2240027E01DD944F2C21CC1F2000CBCF80010B1B144F2192EC1F2000E9EF800109A4C0929E9
S2240028000DD8013B1921994AFA2022F0DBF82378012101332370964BBDF890201970013AE8
S22400282094B2ADF89040D4B90720ADF890006527A04644F23821C1F200010DF15C0C635A17
S2240028403CF804209A4201F02C8117AA1353023408F101080137082C1FFA88F8E9D1338DC3
S22400286013B1804A013B138544F27024C1F20004237863B344F2FC18C1F2000898F80030FA
S224002880082B01F08B8144F2C41CC1F2000C9CF80040013CE4B28CF80040C4B944F2C81E2A
S2240028A0C1F2000EBEF80020013292B213B2052BAEF8002003F3D781012B06DD44F2622035
S2240028C0C1F2000003880F3B0380FEF737FE002021F028FC0446032021F06CFCB4F5FA7F61
S2240028E00746C1F0018003202AF0C6FD012308210DF19902D62031F0B9FB03202AF0C6FCA4
S2240029002B6893F94030002BC0F2C38644F6A810C1F20000B0F90030002BC0F2978644F24F
S224002920EC1E4FF0000CC1F2000E1120AEF800C020F094FB002800F00C819DF899305807E4
S22400294006D444F20E20C1F20000038801330380112020F083FB002800F01F8640F252330C
S2240029609F4240F2DA869DF8998018F0040840F0D48644F24221C1F200010A88531C12B281
S2240029809BB2EF2A0B8001F398840A2B01F0898440F2180CC1F2000C9CF80030DFF8D480FA
S2240029A0590615D444F2142EC1F2000EDEF800300A2B0DD92FF01CFC46F24073C4F6A333BE
S2240029C09842C2BF98F8003043F0400388F8003040F2523305209F4240F216862AF04CFDC3
S2240029E02B6805209A6801329A602AF04FFCBDF88C306BB9BDF88E30BB4241F20480738EC9
S224002A0033B1013B174A9BB25386002B01F0F5846D2020F023FB002800F0DE8505202AF000
S224002A202BFD2B6893F840209C8722F07F0242F07E0283F8402005202AF028FC682020F0AD
S224002A400DFB0346002840F0C18544F2C214C1F20004228882B1B28DB2F5167F03F0FC80F8
S224002A600AE000BFD8010010194200109C770300164000101800001044F21028C1F2000887
S224002A80B8F80030DA0540F14387B38D013B9BB2B385002B00F03C87B3F5157F09D144F648
S224002AA0C01CC1F2000CBCF8003043F02003ACF80030722020F0D2FA68B944F24121C1F28E
S224002AC000010B783BB144F6C012C1F20002138843F400631380079C44F241282378C1F268
S224002AE0000888F80000002B40F04886338E03F00302032A00F0198603F01F021F2A2DD051
S224002B003BB1013B9BB233861BB9C04B4FF43470188605202AF0B0FC44F2082244F6A813DE
S224002B20C1F20002C1F2000344F268241178C1F200041A8823784A4042FA03F3DC0703D56F
S224002B402B68DA6A0132DA6205202AF09FFBFFF770BB1120012120F0BDFBEEE6FEF790FBC1
S224002B60338ECDE70E2B00F08884C0F000850F2B7FF4F0AD9DF889200E2A10D01EA80021EA
S224002B802CF062FA9DF8893098423FF48AAB1E982CF0D6F938462CF0D3F9FFF74ABB0721FE
S224002BA020F010FE1C9000283FF443AB0024047044708470C4701C9B0E224FF0060B991D9C
S224002BC083F804B05A711EA82CF03EFA0E28DED1204601212CF0EAFE1D90002801F00B8416
S224002BE01C9BC0F30741020EC0F307249970DA7018705C701C982CF013FA9DF8643002463B
S224002C00190941EA0313022008218DF89A208DF89B3020F0D7FD1D9000283FF40AAB1C9B1A
S224002C201A0EC3F30724C3F30741C2700370447081701D9B02225A71102283F804B09A712B
S224002C409DF89A201C93DA7101238DF89A30002F7FF48DABFFF78FBBFD2B00F0A183FE2B34
S224002C6000F08881202B7FF475AD01239DF8892086F82F301EA800212CF0E6F9FFF711BB93
S224002C801B9820F04F402CF05BF938462CF058F9FFF7CFBA9DF889B0BBF1010F41F2F382D1
S224002CA0012B40F090854FF0000C0020BBF1020FADF892C05A4600F098859DF88830012B59
S224002CC003D0023AD2B28DF8892000B2031C18BF01237F28CCBF002303F001031946002B8C
S224002CE000F03186022A08D000211EA82CF0ACF99DF8893098427FF44AAF25A99DF89200F3
S224002D002DF058FC0222044621A91EA82CF09CF902287FF43CAFBDF892301AB27E2A3FF7E5
S224002D20C0AA9DF88820BDF894B0192A02BFBDF884204BEA0202ADF894200ED01A2A02BF1C
S224002D40BDF884202BEA0202ADF8942005D0022A04BFBDF884E0ADF894E0A4B21CB9BDF8CD
S224002D6094205A4506D0D8B2BDF994102DF0DEFBBDF892301BB2452B01F075853E2B01F052
S224002D806885322B01F05C85462B01F03F85472B7FF487AABDF894E044F2B210C1F2000002
S224002DA0A0F800E0FFF77DBA022B3FF473AF032B00F03083012B7FF4CDAC089C002C3FF4FB
S224002DC0C9AC9DF889B0BBF1000F7FF465AF1FB138462CF0E5F880469DF8644000202409D6
S224002DE01034FDF7FBFF8DE801040421204601224FF0FF33CDF8088020F032FDFFF751BA76
S224002E00FEF7CAFCC7E404F077F9BCE4D801001024F04F4840461BA921F02CF91B9B04F085
S224002E204F441C4347461B94FFF719BA9DF889300020042BADF8920004D996F82E30DC0716
S224002E4041F1B68196F82A3013B19DF8892095E63A469DF864000AF04F41FEF761FC9DF8B5
S224002E6089208BE69DF889200023022AADF89230E8D11EA825A92CF0E7F8022801F0C38297
S224002E80BDF99230012BDDD1002014212AF010F92CF064FF44F2BA1CC1F2000CBCF8002045
S224002EA0BDF8943042F00402ADF89600ACF800201BB9431CADF894309BB283427FF4F1A9A2
S224002EC0002078212AF0F4F896F82F303BB9284B012283F82E200420022122F02DF84FF031
S224002EE0000EA6F828E0FFF7DCB99DF889300024012BADF89240A5D196F82EB01BF0010B80
S224002F00A0D11A461EA80DF19B01ADF892308DF89B402CF099F89DF89B30012818BFADF802
S224002F2092B0FF2B1CBF4FF0000EADF892E089D1BDF99230012B01F04284002B7FF4B1A934
S224002F4080E79DF889201EA800212CF07DF8089C002C3FF4A6A91FB138462CF021F88046B4
S224002F609DF864402409103424F0B2FC3BE700BFD80100109DF88910002900F0DC841EA8A9
S224002F800DF19A0101222CF05FF89DF88930013B8DF889309DF864309DF89A401A0942EA4E
S224002FA00313D8B28DF89B00FA2C3FF67AA901A151F824F0B15C000031500000254F0000CD
S224002FC0F5530000CD4C0000FD4A0000854A0000A32200001949000095480000435C0000D2
S224002FE0A15B0000F95A000009590000C9580000A3220000A3220000AF580000A3220000A4
S224003000A322000073580000D357000087570000A3220000A3220000A3220000A3220000FF
S224003020E1560000E1560000F15600007B560000A3220000A3220000A3220000A3220000F1
S224003040A3220000A3220000A3220000A3220000A3220000A3220000A3220000A322000043
S224003060A3220000A3220000A3220000A3220000A3220000A3220000A3220000A322000023
S224003080A3220000A3220000A3220000A3220000A3220000A3220000A3220000A322000003
S2240030A0A3220000A3220000A3220000A3220000A3220000A3220000A3220000A3220000E3
S2240030C0A3220000A3220000A3220000A3220000A3220000A3220000A3220000A3220000C3
S2240030E0A3220000A3220000A3220000A3220000A3220000A3220000A3220000A3220000A3
S224003100A3220000A3220000A3220000A3220000A3220000A3220000A3220000A322000082
S224003120A3220000A3220000A3220000A3220000A3220000A3220000A3220000A322000062
S224003140A32200000F560000A3220000A3220000A3220000A3220000A3220000A3220000A2
S224003160A3220000A3220000A3220000A3220000A3220000A3220000A3220000A322000022
S224003180A3220000A3220000A3220000A3220000A3220000A3220000A3220000A322000002
S2240031A0A3220000A3220000A3220000A322000073550000A3220000A3220000A3220000DF
S2240031C0A3220000A3220000A3220000A3220000A3220000A3220000A3220000A3220000C2
S2240031E0A3220000A3220000A3220000A3220000A3220000A3220000A3220000A3220000A2
S224003200A3220000A3220000A3220000A3220000A3220000A3220000A3220000A322000081
S224003220A3220000A3220000A3220000A3220000A3220000A3220000A3220000A322000061
S224003240A3220000A3220000A3220000A3220000A3220000A3220000A3220000A322000041
S224003260A3220000A3220000A3220000A3220000A3220000A3220000A3220000A322000021
S224003280A3220000A3220000A3220000A3220000A3220000A3220000A3220000A322000001
S2240032A0A3220000A3220000A3220000A3220000A3220000A3220000A3220000A3220000E1
S2240032C0A3220000A3220000A3220000A3220000A32200003D550000A3220000A3220000F4
S2240032E0A3220000A3220000D3540000A3220000A3220000A3220000A3220000A32200003F
S224003300A3220000A3220000A3220000A3220000A3220000A3220000A3220000A322000080
S224003320A3220000A3220000A3220000A3220000A3220000A3220000A3220000A322000060
S224003340A3220000A3220000A3220000A3220000A3220000A3220000A3220000A322000040
S224003360A3220000A3220000A3220000A3220000A3220000A3220000A3220000A322000020
S224003380A3220000A3220000A3220000A3220000A3220000A3220000A3220000D35400009E
S2240033A09DF88930032B7EF47CAF01220DF19B011EA82BF049FE22461EA80DF192012BF030
S2240033C043FEBDF892309DF88920033A1C0442BF03F50063ADF892309BB28DF889201AB28B
S2240033E0B2F5006FC4BFA3F50063ADF892309DF89B30042B3EF655AF0FF2040C5CF823F08E
S2240034005F46000059460000D3450000A322000081450000089C9DF88920002C40F0D78328
S224003420012A40F2C983032A1EA80DF1920100F00E8402222BF008FE02287FF4A8ABBDF8EE
S22400344092301AB2FF2A00F0CB837F2A3EF429AFD8B200241C942DF089F81C9000283EF4BD
S22400346020AFBDF892301D94B92B01F0C781D8B21DA92CF0CBFFFEF714BF4F2025A92DF0DB
S22400348099F810B13C22ADF894209DF889201EA8082A7FF474ABBDF8944014F480647FF46E
S2240034A06EAB04221FA92BF0CFFD042883467FF46EAB2EF09DFE1F9B1FA9C31AB3F5967FC3
S2240034C01EA85A4682F0C1832BF0BEFD04287FF45EAB1F982EF092FE40F2180CC1F2000CD3
S2240034E09CF80030022043F040030B218CF8003020F068F91C9000283EF49BAE04704470A3
S2240035008470C4709DF86430DDF870E01A0942EA03135FFA83FC06238EF8043002238EF865
S22400352005300D238EF806308EF80740214601226046CDF800E04FF0FF334FF0807E8DF890
S2240035409BC0CDF804E0029420F08AF91F9A4FF46A5302F57C3202F59062C0F20903B2FB87
S224003560F3F319B209202CF0E1FFFEF79ABE9DF889B0BBF1000F00F05782BBF1040F1EA84C
S22400358000F0C78200215A462BF05EFD9DF8893098423EF486AEFFF7FABA44F24228C1F22B
S2240035A00008B8F8003001339BB2282BA8F800307FF4EEA9112001211FF08CFEFA20272122
S2240035C0C34A012321F0FEF9FFF7E2B94FF4167EA6F82CE0FFF76DBA052029F04DFF40F2C2
S2240035E00402C1F2000291892B68A1429C87B94A80F0948193F8402022F07F0242F06502B9
S22400360083F84020FFF717BA29F036FF2B680520DA680132DA6029F039FEBDF88C30002B62
S2240036203FF4F6A99C4280F0D981B38E002B3FF4EFA9013BA84A9BB29386002B7FF4E8A911
S2240036400A20062121F078FCFFF7E2B944F20A21C1F200010B8801339BB21AB2B2F5616F92
S2240036600B8016DD052029F007FF44F25402C1F200021368052093F8402062F07F0283F869
S224003680402029F003FEFA202721914A052321F099F944F6A818C1F20008B8F8003040F6D8
S2240036A04572DB0B94428CBF002303F00103002B3FF435A9B4F57A7F7FF631A99DF89930A2
S2240036C013F0300F7FF42BA944F2EC1CC1F2000CBCF80020814B002A40F0C78244F2442E74
S2240036E0C1F2000E0120AEF80040188044F2EC18C1F20008B8F900305A2B7FF41EA911209F
S22400370001211FF0E7FD0B23FA202721704A21F059F99DF89930FFF712B944F24223002206
S224003720C1F200031A80FFF733B944F2402CC1F2000C9CF80030022B01D0FDF749F94FF0BA
S224003740FF3030F071FE45F2E87EC1F2000EBEF80030C0F38F0419B220B2471A0337604A3A
S224003760062F9CBF1480338E7FF6C6A9884240F3108204331380338EFFF7BEB903F062FBA4
S224003780C30440F12F8142F21003034000F00C02002B00F07184042A0CBF06220522079CF9
S2240037A0237893423FF4A2A947F22C78C0F203084C4908EBC2030A70002059699A692EF0B2
S2240037C0E1FCFFF793B902221EA80DF192012BF03BFC02287FF4DBA99DF889B0BDF89200C2
S2240037E0BBF1020F5A467FF468AAA0F180039BB25F2B40F2738458460A211FF0E3FF1C9068
S22400380000283EF416AD00231D90037043708370C370BDF892201C9811B206247F29047145
S224003820437140F30186DF29D8BF069300F3D48700231D9300283EF434AD2BF0F1FB9DF8E5
S224003840643002461909022041EA031301468DF89A208DF89B301FF0B5FF1D9000283EF462
S224003860E8AC1C9BC3F307241A0EC3F30741C2700370447081701D9B06221A7104225A714B
S22400388002229A719DF89A20069C02321C93DA711CB14FF0FF0CADF892C003F108000DF1CD
S2240038A09201022233F06CFD1FB138462BF078FB80461C9B9DF89B008DE808040021012272
S2240038C04FF0FF33CDF808801FF0CAFFFEF7E9BC9C77030004000010D8010010EC41001063
S2240038E0E857001001420010052029F0C5FD2B68012283F84020052029F0C8FC44F20A2E20
S2240039004FF0000CC1F2000EAEF800C0FEF7EBBF0B20032121F010FBFFF7CBB8D189A14270
S22400392075D293F8402022F07F0242F0510283F84020FFF780B81EA80A468DF89A102BF0CF
S22400394083FBFFF727BBDF2840F3D683042A07D01EA82BF079FB9DF8893098427FF417A9C4
S22400396004221EA820A92BF06FFB04287FF40FA9BDF89230FF2B0BD144F26421C1F20001C5
S2240039800A78032A04D99DF88820022A00F05D85D8B21FA92CF0F8FD9DF888201F9B192ABE
S2240039A008BF209A81B204BF1A431F920AD01A2A02BF209A23EA02021F9203D0022A04BF60
S2240039C0209A1F9219B91F9A93423EF46AAC9DF892001F992CF088FDFEF763BC0421B186DF
S2240039E0FFF716B844F2002CC1F2000C9CF8003007229F073FF5D3AE00F00C02042A0CBF9E
S224003A0002220122CBE604207086FFF701B8118AA1426FD293F8402022F07F0242F03D0232
S224003A2083F84020FFF707B8594609202CF07EFDCDF870B0CDF874B02EF0DAFB04218646E0
S224003A401CAA1DAB20A8CDF880E02CF09FFB1C982BF0E6FA03468DF89A3020460923042132
S224003A608DF89B301FF0AEFE1D9000283EF4E1AB1C9B1A0EC3F3072EC3F30741C270037036
S224003A8080F801E081701D9B06221A715C710D229A719DF89A201C93DA71002F7FF405AFC6
S224003AA007E74FF0000E39469248ADF890E02EF043F80020322129F0FBFA44F2C210C1F2C3
S224003AC0000003882BB1FA2003218B4A3B4620F079FF0FFA88FABAF1010F02F0DD8009219F
S224003AE0012021F029FA44F23821C1F20001635AFEF7ABBE528AA24293F8402022F07F02D0
S224003B0034BF42F0290242F0010283F84020FEF792BF1FA95A462BF097FA04287FF437A868
S224003B2000231C931D932EF063FB042104461CAA1DAB1FA820942CF029FB04211CAA1DAB17
S224003B4020A82CF023FB1C982BF06AFA9DF864300246190941EA0313022006218DF89A20CF
S224003B608DF89B301FF02EFE1D9000283EF461AB1C9B1A0EC3F30724C3F30741C27003703F
S224003B80447081701D9B06221A7102225A710E227EE7191F1180338EFEF7AEBF002022F06E
S224003BA091FF00287EF46FAE012022F08BFF00283EF48DAEFEF767BE00211EA82BF044FA0D
S224003BC09DF8892090423FF42EACFEF7E0BF1EA800212BF039FA0020FDF7E2F9FEF761BBFA
S224003BE09DF88920022A08D000211EA82BF02CFA9DF8893098427EF4CAAF02221EA80DF15B
S224003C0092012BF021FA02287EF4C1AFBDF9922045F2AA539A427EF444AB2CF089FD44F219
S224003C209C2E44F208200023C1F2000EC1F2000003700021AEF800306FF004001FF04AFB9F
S224003C406FF0090000211FF045FBFEF72ABB4FF0000C0122ADF892C02BF0F6F99DF88930F0
S224003C60013B8DF88930FFF7EABB013292B211B2B1F5E16F1A800ADB44F24421C1F200012C
S224003C80B1F9003004F132029A42C0F2938544F2EC12C1F20002B2F900303C2B7FF426AD05
S224003CA0032029F0E9FB012308210DF19902D62030F0DCF9032029F0E9FA9DF8993003F09E
S224003CC03002D2F1010138BF0021302A14BF0A4641F00102002A40F09B8308490A80FEF7D7
S224003CE02EBEBDF88E3023F47E43ADF88E30FEF74EBA00BFBC7703009C770300EC410010E0
S224003D0096F82F30002B42F05380DDF81C8098F80030002B42F04480002303201B9320F02B
S224003D2049FA4FF48043C4F2020344F6A81C9A6CC1F2000C9CF8001002F07F420A434CF6D1
S224003D40CD46DFF8908304469A64CCF6CC464FF08045AA2700200A2129F0AAF91B9BA6FB12
S224003D6003E2D20802EB8202B3EB420F02D155222F722A720133B3F5167F1B9302F2008005
S224003D8098F80030002BE5D0012003F0FBF92BF0B9FE002106466FF006001FF09BFA01210C
S224003DA06FF001001FF07EFBA6F10A03DFF82893DBB20021012BA9F8001041F2C587C24DC7
S224003DC0462029462CF0F6FB0146002800F0338100222A80692001211FF064FB44F2FE13BD
S224003DE0C1F2000344F2FE1819786FF00300C1F200081FF057FBB8F80030AA214FF0804201
S224003E001172552113F40055117200F0D582C3F3C123590001316FF005001FF05BFA6B2006
S224003E2001211FF03FFB2BF06DFE0F280546064647B209D8012101FA07F248F2A01313408E
S224003E4013B16C201FF02EFBDFF88C824A2041462CF0B0FB002800F0F7804FF0000CA8F8BE
S224003E6000C06E2000211FF01DFB4FF08042AA21002311725521117218468DF8993020F080
S224003E8051F90F2D40F2CD80B0F5616F06D840F252339C4202D901238DF899301220002190
S224003EA01FF000FB40F2040EC1F2000E9EF8003043B19DF899101220002900F07A8201218D
S224003EC01FF008FA814A4FF080431188AA221A72552206201A7230F07FFD44F26000002390
S224003EE0C1F20000102E036040F2888044F2FE11C1F200010B889E0401F1A0874FF48043E2
S224003F0044F2FE18C4F20203C1F200089D6CB8F800306FF003001D401FF0A0F8B8F80030AB
S224003F2003405D40ADB2002D41F04887032020F041F940F252339C4294BF0022012298429C
S224003F4094BF002301239A421FBF44F26002C1F20002136843F0010318BF1360B9F80030DE
S224003F609D0741F07882032020F024F940F25232904294BF00230123944294BF002201228D
S224003F809A420AD04BB144F2600EC1F2000EDEF8003043F00103CEF80030002001464FF428
S224003FA0FA722EF0EFF84FF48043C4F202035A6C12F0010013D144F6A8149A6CC1F200046A
S224003FC0217802F07F420A439A64962129F070F8012020F0C9FF0446002801F0708200209F
S224003FE0014630F01BF94FF48043C4F202035B6C2BF0B2FD002029F02FF9FEE7012173B262
S22400400001FA03F342F2120261F31F42134225D04FF48043C4F202035A6C42F001025A64E9
S224004020A1E7012303FA07F74BF212333B40002B7FF42DAF28E7B5F90030002BBFF6CAAE18
S22400404069201FF02FFAC9E6B8F8003099073FF408AF6E2001211FF025FA06E71A0540F166
S224004060A38068201EF0FAFF00283FF47CAF0D200E2120F061FFCBE7042A0CBF0422032241
S224004080FFF78DBB612021462CF094FA00283DF45EAD4FF0000CA4F800C0FDF758BD0E2108
S2240040A021800B4C0123237000204FF0FF314FF4FA7207942EF066F8FDF7EFBE9DF88C3005
S2240040C0ADF88C30FEF733B8FE410010D401001001420010D0010010C6410010C0B22CF08D
S2240040E045FA04461C90002800F0CC814FF0000CCDF818C0FFF79CBB1C931D938DF89A303E
S22400410082B91FE01CAA9DF89B001DA92BF0F4FF9DF89A309DF889200133DBB29A428DF8D7
S2240041209A300FD901221EA80DF19B012AF08CFF0128E7D01D982AF003FF1E982AF000FF20
S224004140FEF7A3BDBDF89200002800F0AB811D9B002B3EF4A6A8C0B200241C942CF006FAB5
S22400416001461C9028B11D982BF016F8002840F0A8811D9B73B1BDF89230B92B06D144F2CB
S224004180C01E0122C1F2000E8EF80020D8B21DA92CF03CF91C9800283EF483A82AF0D0FEF0
S2240041A000231C93FEF77DB85F053FF5DCAE9DE604221EA81FA92AF047FF042800F0128196
S2240041C0BDF99230012B7EF43DAEB06D1F9A0024904286F82F404CD19DF89A305BB93FE071
S2240041E00C791C190C719DF89A10CB1ADBB28DF89A30002B34D01E9A54791179A34228BF79
S224004200234651181A468DF89B302BF061FD1E999DF89B304C791F9AE41A9818E4B202467D
S2240042201F904C71002CDBD108784C788A78CB7840EA042040EA024242EA036301201D938D
S22400424028F074FF1D9B9DF89A101E939DF89B301F98CB1ADBB202468DF89A30002BCAD140
S224004260B36D93423CBFBD4B9A65F0223285FEF718B89DF89A201EA821462AF0E5FE8DF8B6
S2240042809A401F9AECE75A4600211EA82AF0DCFE9DF889B058457EF47AAC9DF88830FEF7F3
S2240042A0FFBC112041461FF015F8FA202721AC4A434620F087FBFEF76BBB0220FDF760FB6B
S2240042C0FEF766BB6FF003001EF0C8FEFDF791BDB9F8008044F2200CC1F2000CACF80080D5
S2240042E0FEF7DCB800238EF84C30FDF7B5BEB9F800009C4FB0F5CC7FBDF4C7AE296800F170
S2240043004C02994C8B184FF0040C03EB0C0E208001F802C0F82083F803C044F2240C58708C
S224004320C1F2000C32209870CCF800E08B5C3A8801339B00DBB29B183B807046002110223F
S22400434033F044F8FDF7A1BEB9F80000874C2968208000F14C02012088548B18F920587031
S2240043601E2098701F1D0220D870CBF800708A5CB9F80010013202FA00F2D2B2002452183F
S224004380A9F800209C80DC80FDF776BEB9F800C044F22C0EC1F2000EAEF800C0FEF7ACB955
S2240043A0B9F8002044F23603C1F200031A80FEF7E0B81EF08FFF85E529466FF005001EF0F4
S2240043C089FF6B2029461FF06DF82CE52BF070FB2AF0B6FDFDF729BD654966481FF0FAFD42
S2240043E0FDF718BD9DF889300121043BADF892108DF89A30E4E61C989DE60220052120F051
S2240044009BFDFEF705BB0124ADF89240FEF73CBD112000211EF05EFFFA202721504A0A23DA
S22400442020F0D0FAFFF762B9D0B225A92CF0C2F880B20690002832D125A859461CAA1DAB79
S2240044402BF0A4FE1C98FFF7F3B9209B13A844F2E8141393C1F200042CF0F8F8209A2368EE
S224004460C2F30740C2F30724110E44F2642C1A705C709870D970C1F2000C00238CF8003039
S224004480FDF70FBF1D940DF1920059461CAA1DAB012406942BF07AFE1C98FFF7C9B90DF16B
S2240044A09200CAE7DDF874801DA91CAA1C901D901FF0E8FE1D984146012226F06DFEFDF73D
S2240044C0F0BE1D982AF03CFD1D9463E644F2E81EC1F2000EDEF80020972000901478507899
S2240044E0977892F803E044EA002242EA074242EA0E62019202930393FA201F4A032320F063
S22400450061FAFDF7E9BDB9F80000164CB0F5D27FBDF4C0AD296800F14C02184F8B184FF061
S224004520010E388001F802E0F92083F803E044F2300E587003F1040C3C20C1F2000E9870F8
S224004540CEF800C08A5C218801329200D2B25218228000225A60FDF79DBD00BFD80100101A
S2240045609C770300B041001020400010364000102C7703001C420010987703002C40001087
S224004580072028F079FF4FF6FF71C0F223014FF408102BF023F844F21C2444F24A2C44F2EB
S2240045A0702E0023C1F2000CC1F2000E4FF40811C1F200042160ACF800308EF80030062071
S2240045C01DA91D932BF022FF072028F05FFEFDF768BEBDF89230002B00F0DD8044F24A2CD3
S2240045E0C1F2000CACF8003044F24A22C1F2000244F24C24B2F900100620C1F200042BF073
S22400460095FFBDF99230B4F90020934200F09E8044F26224C1F20004B4F900209A427DF44C
S22400462040AE44F26C2C44F2702E44F2FC110024C1F2000CC1F2000EC1F20001DCF8000076
S2240046408EF800400C702AF07BFC44F26C22C1F200021460FDF725BEBDF99230D8E7BDF8D2
S2240046609230002B4DD044F2622EC1F2000EAEF8003044F26C2EC1F2000EDEF800002AF04D
S2240046805FFC44F21C20C1F2000044F26223C1F200030168B3F90020A1F5081144F26C247A
S2240046A0C1F200040023B2EB911F236002BF44F27024C1F2000423703DF4F3AD27B138464F
S2240046C02AF06EFC914B18609DF8642044F2FC1C1209C1F2000C8CF8002044F2C41E44F2CA
S2240046E0C81144F270220123C1F2000E0020C1F20001C1F200028EF8003008801370FDF7F1
S224004700D0BD44F24A20C1F20000028810045EBF44F26221C1F200010A80AAD544F21C240D
S224004720C1F20004226844F2622CA2F50812520A0132D20092B211B2B1F5006FC1F2000C82
S224004740ACF80020C4BF724A138092E72DF050FD44F2FD1C4FF4A343C1F2000CC0F20103EE
S2240047609CF8002090FBF3F344F2202E99B2C1F2000E022AAEF8001003D009B207202BF0CD
S224004780D5FE44F24C214FF0FF30C1F20001BDF9923008803CE744F21C2EC1F2000EDEF842
S2240047A0003044F24A20A3F508139B09C1F20000038019E70C20FDF7E3F8FFF768BA002460
S2240047C086F82F402BF072FABDF99230B465002B7DF467ADFEF736BBD0B21FA92BF0D4FE02
S2240047E080B2069000287FF45AAE1FA804211CAA1DAB2BF0CBFC1C98FFF71AB844F2C0116A
S2240048000122C1F200010A70FEF731BEBDF894308BEA030B1BF4C05F3DF443ADC3F3C1227A
S22400482044F2FE1C5200C1F2000C511CACF800306FF00500ADF894201EF04CFDFDF731BDDB
S2240048409DF8943044F29C24C1F200042380FDF728BDBDF894106FF0090001F00F011EF001
S22400486039FDFDF71EBD44F26820C1F200000378012202FA03F3BDF8941044F208220B4029
S224004880C1F20002C9B213706FF004001EF022FDFDF707BDFE234FF0000B1E488DF888300A
S2240048A0CDF874B0CDF870B032F0B6FD1DAB441C1CAA022122A88DF889402BF067FC09237D
S2240048C01CA91DAA18468DF889302BF015FC114832F0A2FD411C89B21CAA1DAB0D482BF0CF
S2240048E055FC1C9B38469DF89B4005932AF058FB059B02908DE808042046594601224FF09E
S224004900FF331EF0ADFFFDF7CCBC00BF6C42001062420010A44300104FF0FE0E0024022170
S2240049201DAB1CAA8DF888E022A84FF0120E8DF889E01D941C942BF029FC082318461CA9F1
S2240049401DAA8DF89A302BF0D7FB04224FF4D0101FA92AF0E5FD1F9B1CAA013308BF1F9414
S2240049601DAB04211FA82BF011FC0420C0F21A0004221FA92AF0D4FD1F9B581C7FD0A3F578
S224004980D013803B1F9304211DAB1CAA1FA82BF0FDFB102020A90422C0F21A002AF0C0FD73
S2240049A0209B591C68D0A3F5D0131F9A823B9B1A209304211DAB1CAA20A82BF0E7FB082091
S2240049C0C0F21A0004221FA92AF0AAFD1F9BD8B203F47F03B3F5981F8DF89A0037D21428D7
S2240049E035D01CAA04211DAB1FA82BF0CFFB00201CA91DAA8DF89A002BF07EFB1FB13846A1
S224004A002AF0CEFA80461C9C9DF89B00002101224FF0FF338DE81004CDF808801EF020FF49
S224004A20292025A92BF0C6FD044600287DF439AC4FF6FF71C0F221014FF4D0102AF0CEFD23
S224004A4029201DA91D942BF0E1FCFDF72ABC1CA91DAA2BF051FBE2201FA92BF095FDC3B2E0
S224004A608DF89A300BB100231F931FA804211CAA1DAB2BF08BFBC1E70023209399E7002315
S224004A801F9380E79DF88930FF228DF89A202BB11EA80DF19A0101222AF0D6FA9DF89A00D3
S224004AA04FF0000B21A91DAA01280CBF02205846CDF884B0CDF874B01FF0E4FBFE232198B8
S224004AC08DF888302AF0ACFA1DAB441C1CAA022122A88DF88940CDF870B0CDF874B02BF0C2
S224004AE055FB06231CA91DAA18468DF889302BF003FB21991C982AF039FAF2E645F6881C85
S224004B00C1F2000CDCF814304FF0000EADF884E03BB172461B68511C0A46ADF88410002B1B
S224004B20F8D147F22970C0F2030090F800B04FF0030E0EFB0BFE00240EF10A0E02211CAA62
S224004B401DAB1D941C9422A8FE248DF889E08DF888402BF01BFB05231CA918461DAA8DF838
S224004B6089302BF0C9FA0121ADF89210BBF1000F46D0012347F21072C0F20302D05C1CA9D8
S224004B801DAA2BF0B9FABDF9922047F2A063C0F2030303EB021293684FF0040C93FBFCF455
S224004BA051680022002C15DD40F2000EC1F2000EDEF800200868904208BF9E464FF00002D2
S224004BC004D007E051F8043F834202D10132A242F8D173466FF0030000FB023202219C1AEE
S224004BE025A81CAA1DABADF894402BF0CFFABDF89220013292B213B25B45ADF89220B9DDC8
S224004C00C8201CA91DAA2BF077FA0B9C002C41F32681DFF80CC340F2000EC1F2000EDCF866
S224004C200010DEF80030994241F01981ACF10402002303E004325068814203D10B9C0133AA
S224004C40A342F7D19B000221ADF894301CAA1DAB25A82BF09BFAC9201CA91DAA2BF04CFA9A
S224004C60DDF828C0BCF1000F41F3FC8048F6B05E40F20000C1F2000EC1F20000DEF800201E
S224004C8003689A4241F0EE809B4B002403E053F8041F8A4204D1DDF828C001346445F6D1CB
S224004CA01DAB1CAA0221A40025A8ADF894402BF06DFA1CA91DAACA202BF01EFA21A81CAA9A
S224004CC01DAB02212BF062FA00F04CBF4FF0010C4FF0000BFE2389488DF889C0CDF810C087
S224004CE08DF88830CDF874B0CDF870B032F094FB841CE4B282488DF8894032F08DFB431C9C
S224004D00E418E4B27F488DF8894032F085FB431CE418E4B27C488DF8894032F07DFB431C49
S224004D20E418E4B279488DF8894032F075FB00F125021DABA41802211CAA22A88DF889409E
S224004D402BF024FA04231CA91DAA18468DF889302BF0D2F9694832F05FFB1DAB81B21CAAF2
S224004D6066482BF013FA1CA91DAAA7202BF0C4F9634832F051FB1DAB81B21CAA60482BF090
S224004D8005FA1CA91DAAA7202BF0B6F95D4832F043FB1DAB81B21CAA5A482BF0F7F91CA9BA
S224004DA01DAAA7202BF0A8F9574832F035FB1DAB81B21CAA54482BF0E9F91CA91DAAA72006
S224004DC02BF09AF9514832F027FB1DAB81B21CAA4E482BF0DBF91CA91DAAA7202BF08CF90A
S224004DE044F66821C1F20001B1F9CC40B1F9CA20A72347490CA800942CF084FE0CA832F0D7
S224004E000BFB1CAA81B21DAB0CA82BF0BFF944F66822C1F20002B2F9C0303E49A7220CA827
S224004E202CF070FE0CA832F0F7FA44F6682481B21CAA1DAB0CA8C1F200042BF0A7F9B4F9C2
S224004E40D030A72234490CA82CF05CFE0CA832F0E3FA1CAA1DAB81B20CA82BF097F913A84F
S224004E60032124F049FA139BA7222C490CA82CF049FE0CA832F0D0FA1CAA81B21DAB0CA89A
S224004E802BF084F9149BA72224490CA82CF03AFE0CA832F0C1FA1CAA81B21DAB0CA82BF067
S224004EA075F9159BA7221D490CA82CF02BFE0CA832F0B2FA1DAB81B21CAA0CA82BF066F936
S224004EC01CA91DAA58462BF017F91C9B38469DF89B4005932AF064F8059BDDF810C08DE80B
S224004EE0080402905946204662464FF0FF331EF0B7FCFDF7D6B900BFB08D0010A84A00109F
S224004F00684A0010884A0010084B0010C84A0010A0770300AC770300A4770300B4770300D7
S224004F20B48F00109DF8892000231D931C93002A3DF4B7A901221EA821A92AF085F8FE2234
S224004F409DF884308DF8882004228DF889206B2B00F24982DFE813F039022A0221021902C0
S224004F600B020102F901F10147024702E801E001D8014702CD014702C301B7011901A8015C
S224004F80470293018A018101790174016E0169015F01490147024702310147024702470211
S224004FA047024702470247024702470247024702470247024702470247024702470247025C
S224004FC047024702470247024702470247024702470247024702470247024702470247023C
S224004FE047024702470225014702470247024702470247024702470247024702470247023F
S224005000470247024702470247024702210147024702470247024702470247020A01D600D3
S224005020D100C900B500EA00DB00F200AD0085009DF88930002B3DF434A91EA80DF19A014D
S22400504001222AF001F81FB1384629F0A9FF80469DF89A109DF89B00424625F0B3F9FDF794
S22400506020B944F22001C1F200010988ADF894101DAB02211CAA22A82BF088F81CA91DAACB
S2240050809DF89A002BF038F89DF884001CA91DAA2BF032F89DF88930062B5CD025A802210C
S2240050A01CAA1DAB2BF072F8002F7EF4FEABFEF700BC44F23C00C1F200000088ADF89400F7
S2240050C0D6E744F2360CC1F2000CBCF900302A68591C04BF4FF0000EADF894E0C8D04C33AB
S2240050E0D35C9B00ADF89430C2E744F23604C1F200042488ADF89440BAE7B9F80030ADF85C
S2240051009430B5E74FF4D672ADF89420B0E744F23404C1F20004B4F900302A685C1C04BFE0
S2240051204FF0000CADF894C0D9D1A1E744F23402C1F200021288ADF8942099E744F6586E60
S224005140C1F2000E9EF801209EF8003043EA0223ADF894308CE71FA804211CAA1DAB2BF049
S22400516015F8002F7EF4A1ABFEF7A3BB44F2BC1044F25D01C1F20000C1F2000102780B78E3
S22400518043EA0223ADF8943072E700201EF0CAFF40F61C4398427FF66BAF0420FCF7F0FBFF
S2240051A066E746F6701C0123C1F2000C4FF0470E8CF80030ADF894E05AE744F69A1244F630
S2240051C0BC13C1F20002C1F2000344F2F0241178C1F200041A88238842EA813243EA024368
S2240051E006228DF889201F9342E7052028F044F92A68052092F8403043F0800382F84030AE
S224005200ADF8943028F042F8FA202721CA4A05231FF0D8FB2CE74AF2CC00CFF6FF700121DD
S2240052202AF014FBADF8940022E725F073F9ADF894001DE72B6893F83F30ADF8943017E74C
S2240052401EF02CFFADF8940012E744F6E030C1F200000088ADF894000AE745F2641EC1F2C3
S224005260000E9EF80530ADF8943001E745F22C1CC1F2000C9CF80030ADF89430F8E645F27F
S2240052802C12C1F200021378032B95BF45F2601345F20D14C1F20003C1F2000494BF1B88A4
S2240052A02378ADF89430E3E644F20E2EC1F2000EBEF800E044F20E210020C1F20001ADF875
S2240052C094E00880D4E644F2182CC1F2000C9CF80030ADF8943000238CF80030C8E644F2F2
S2240052E0B824C1F20004236806228DF889201F93BEE644F21C22C1F200021368A3F5081388
S2240053009B09ADF89430B3E644F21A01C1F200010988ADF89410ABE644F21800C1F2000071
S2240053200088ADF89400A3E644F2160EC1F2000E9EF80030ADF894309AE6FF234FF0000CE7
S2240053408DF88430ADF894C092E644F20404C1F200042378ADF894308AE644F21422C1F216
S2240053600002136806228DF889201F9380E646F6BC11C1F200010A6844F24023C0F20F03B1
S224005380B2FBF3F3ADF8943072E644F24100C1F200000378ADF894306AE644F6E21EC1F269
S2240053A0000E9EF80030ADF8943061E644F2CA13C1F200031B8844F2CA1C0024C1F2000CF9
S2240053C0ADF89430ACF8004052E644F2DE10C1F20000008844F2DE120021C1F20002ADF843
S2240053E09400118044E6FF2300208DF88430ADF894003DE600231D931C932AF0CDFA0446D5
S224005400ADF89640FE241DAB02211CAA8DF8884022A805248DF889402AF0B8FE1CA91DAA4F
S2240054209DF89A002AF068FE02211CAA1DAB0DF196002AF0ABFE2AF091FCADF896000DF1D0
S224005440960002211CAA1DAB2AF0A0FE002F7EF42CAAFEF72EBA01200DF19A0127F036FEEF
S22400546007281FBF44F26008C1F20008D8F8003043F0020318BFC8F8003001200DF19A0108
S22400548027F024FE0728F8D105200DF19A0127F01DFE07281FBF44F2600CC1F2000CDCF8A4
S2240054A0003043F0020318BFCCF8003005200DF19A0127F00BFE0728F8D1FEF754BD0D20AB
S2240054C00E211FF039FD2AF047FB204627F0C4FEFEE744F26421C1F200010B7823B9FA2CDF
S2240054E00CBF052400240C704FF0000E02241DAB21461CAACDF874E0CDF870E022A84FF074
S224005500FE0E8DF888E08DF889402AF03FFE1CA91DAA9DF89A002AF0EFFD44F26422C1F2B8
S224005520000210781CA91DAA2AF0E6FD002F7EF4BCA9FEF7BEB900BF9C77030044F2642E44
S224005540C1F2000E9EF80030043BDBB2012B3CF6A8AE47F22970C0F203000178032027F005
S22400556051FD0120014627F083FEFAF78FFFFCF798BE9DF88920022A08D000211EA829F0CE
S22400558063FD9DF8893098427DF401AB02221EA80DF1920129F058FD02287DF4F8AABDF886
S2240055A092400FFA84FB584631F0BCF930F078FDC1A30CCB30F0F4FE0022C3F6F0720023D6
S2240055C030F010FC31F0A4F8DDF824C0CCF800009DF89A00002C4BD059462AF0A7FF002467
S2240055E01D941C94FE241DAB02211CAA8DF8884022A803248DF889402AF0C8FD9DF89A00D8
S2240056001CA91DAA2AF078FD0DF1920019E79DF88920022A7DF4BBAA44F26424C1F2000425
S2240056202378002B3CF43DAE25A91EA829F00CFD052027F021FFBDF894102C6808B20022A9
S2240056400B46A9F800102018114605E08418013384F84C109BB201321CB240F2AB1C644537
S224005660F4DD0520ADF8923027F010FEFCF719BE1DA91D942AF0CAFEB1E79DF88940022C5C
S2240056807DF485AA25A922461EA829F0DDFC2146FE244FF0000B1DAB1CAA8DF8884022A8FF
S2240056A00524CDF874B0CDF870B08DF889402AF06DFD1E231CA91DAA18468DF889302AF099
S2240056C01BFDBDF8940045F2F071C1F200011CAA01EB80001DAB04212AF058FDFFF701B9DA
S2240056E0A4F11C0EDEF1000040EB0E00FCF7DAF8032027F0C1FE13AA4FF480710B23D6200B
S2240057002EF0B4FC032027F0C1FD4FF0FE0E00241DAB1CAA02218DF888E022A84FF00D0E8D
S2240057208DF889E01D941C942AF030FD9DF89A301CA91DAA18468DF889302AF0DDFC1DAB8C
S2240057401CAA0B2113A82AF021FD2B681CA993F840301DAA18468DF889302AF0CDFC1C9B0F
S22400576038469DF89BB0059329F01AFC059B02908DE808045846214601224FF0FF331EF0A5
S2240057806FF8FCF78EBD4FF0FE0E00241DAB1CAA02218DF888E022A84FF0110E8DF889E03C
S2240057A01D941C942AF0F2FC16231CA91DAA18468DF889302AF0A0FC1CAA1DAB0821404825
S2240057C02AF0E4FC1CAA1DAB08213E482AF0DEFCC5E74FF0FE0E00241DAB1CAA02218DF848
S2240057E088E022A84FF0190E8DF889E01D941C942AF0CCFC15231CA91DAA18468DF889307B
S2240058002AF07AFC44F208001CAA1DAB0421C4F204002AF0BBFC44F20C001CAA1DAB042182
S224005820C4F204002AF0B2FC44F21C001CAA1DAB0421C4F204002AF0A9FC48F208001CAA5B
S2240058401DAB0421C4F204002AF0A0FC48F20C001CAA1DAB0421C4F204002AF097FC48F24C
S2240058601C001CAA1DAB0421C4F204002AF08EFC75E744F2C214C1F200042388002B3CF4D1
S22400588010AD44F21C2CC1F2000CDCF8003044F24A2EA3F50813C3F38F13C1F2000E19B2C0
S2240058A0AEF8003006202AF041FEFCF7FABC3946FBF728F8FCF7F5BC006AF840000000000E
S2240058C0A04D0010C44C00104FF0FE0E00241DAB1CAA02218DF888E022A84FF0030E8DF8FA
S2240058E089E01D941C942AF051FC0E231CA91DAA18468DF889302AF0FFFB1CAA1DAB022154
S224005900A3482AF043FC2AE79DF88930072B7CF6C8ACA04904221EA829F096FB1EA89E499B
S224005920042229F091FB00231D931C933FB1384629F036FB44F2F013C1F20003186044F2C0
S2240059400424C1F200042368924C5A1C69D0B3F1005F28D8B3F5001F17D344F2E010C1F2BE
S224005960000002680A2A08D10A21CFF6F071A3F580105918206029F031FE44F2E0110023AF
S224005980C1F200010B60FCF78CBC23F00F039DF89B20236044F20C23C1F200031A70FBF719
S2240059A0FBFEFCF77EBC4FF0FE0E1DAB1CAA02218DF888E022A84FF0F50E8DF889E02AF0BF
S2240059C0E5FB0D231CA91DAA18468DF889302AF093FB1CAA1DAB042120462AF0D7FB1CAA17
S2240059E01DABF02120682AF0D1FB44F2F01C1C9AC1F2000C44F2E01EDCF800300021C1F298
S224005A00000ECEF8001000924FF08072019202939DF89B0001224FF0FF331DF021FFFCF7CE
S224005A2040BC002323600520059327F025FD059B4FF0FE0B4FF0DB0CADF8943002211DAB67
S224005A401CAA22A88DF889C0CDF810C0514C8DF888B02AF09BFB0D231CA91DAA18468DF8A5
S224005A6089302AF049FB204644F204240421C1F200041CAA1DAB2AF089FB23682A684C33A2
S224005A80D018D6211CAA1DAB2AF080FBBDF8943022680133D6329BB22260012BADF894305C
S224005AA0DDF810C0CAD9052027F0F0FB44F2F011DDF870E0C1F20001D1F800C002224FF076
S224005AC0FF33CDF800E09DF89B004FF0807E0021CDF804E0CDF808C01DF0C2FE00232360B3
S224005AE044F2E01244F2F014C1F20002C1F2000413602360FCF7D5BB45F2BA70C1F2000046
S224005B0090F800E000240EF1020E1DAB02211CAA1D941C9422A8FE248DF889E08DF88840AC
S224005B202AF034FB0C231CA91DAA18468DF889302AF0E2FA45F2BA71C1F200010B781DAA6A
S224005B401CA918468DF889302AF0D6FA45F2BA72C1F20002118829B189B210481CAA1DAB49
S224005B602AF014FB3846DDF870B09DF89B4029F017FA00210290012220464FF0FF33CDF878
S224005B8000B0CDF804A01DF06BFEFCF78ABB00BF7469001004420010E0410010E44F0010C3
S224005BA04FF0FE0E00241DAB1CAA02218DF888E022A84FF0060E8DF889E01D941C942AF04D
S224005BC0E5FA0B231DAA1CA918468DF889302AF093FA214601200FF039FA1DAA03461CA955
S224005BE08DF889302AF088FA012108460FF02EFA1DAA03461CA98DF889302AF07DFA022168
S224005C0001200FF023FA1DAA03461CA98DF889302AF072FA032101200FF018FA1DAA034643
S224005C201CA98DF889302AF067FA042101200FF00DFA1CA903461DAA8DF889302AF05CFA12
S224005C408DE523F03FFBFCF72CBB29F0FDF904283CF427ABFCF79BBFFA202121834A1EF0E5
S224005C60B1FEFCF709BF44F26C2144F2702244F2FC13C1F20001C1F20002C1F2000344F290
S224005C806C28086814701C70C1F2000829F058F9C8F80040FCF71BBE64201DF0DFF9002869
S224005CA03DF41DAF062051461DF014FBFDF717BF4FF0FE0E4FF0000B1DAB02211CAA8DF874
S224005CC088E022A84FF0070E8DF889E0CDF874B0CDF870B02AF05AFA1CA91DAA58468DF860
S224005CE09AB02AF009FA44F20022C1F2000210781CA91DAA2AF000FA02211CAA1DAB5C48AE
S224005D002AF044FA44F2E413C1F2000318781CA91DAA2AF0F1F98DF89AB046F2105CC1F2FD
S224005D20000C1CF804001CA91DAA2AF0E5F99DF89A400134E4B2012C8DF89A40EDD9002FFB
S224005D407DF4B3ADFDF7B5BD00216FF003001DF0A9FB00216A201DF0A5FB00216E201DF0BF
S224005D60A1FB00216FF005001DF0B4FA00216B201DF098FB692001211DF094FBFEF7A2B860
S224005D8044F2C210C1F200000388002B3DF4FCAFFA200321354AC8231EF014FEFDF7F4BF42
S224005DA000204FF0553164222CF0ECF9FDF7B4BF042002211FF0C0F8FDF7A7BF45200DF140
S224005DC08A012AF0F7FB18B14FF0000CADF88AC0BDF88A204FF48041120A44F2FE1EADF8AE
S224005DE08A20C4F20201C1F2000EBEF80030896CD8B219401140054029421FBF44F2600047
S224005E00C1F20000016841F0040118BF01604FF48041C4F20201896C21F07F410A4323EA16
S224005E2002032B421FBF44F26001C1F200010B6843F0040318BF0B60FEF778B86FF0070048
S224005E401DF00CF900283EF459A844F26002C1F20002136843F004031360FEF74FB800233C
S224005E60FEF7F0BE0024FEF71BBF00BF9C770300764B00102DE9F047914656780F461FFA81
S224005E8080FA127804E00136F6B2092E88BF0026964246D006EB460307EB83039B88534537
S224005EA0F1D199F80230013B89F80230002E33D0751EDFF87480EDB2344698F8013004EB11
S224005EC04400A34214D005EB450107EB810107EB80000C2231F054FA631EBCB1DCB26B1EF2
S224005EE0C5B1DDB298F8013004EB4400A342EAD199F8013099F800200133DBB2092B89F81B
S224005F000130C0D9002389F80130BCE709246B1E002DE6D10925D0E709253446DFF80880B4
S224005F20CBE7BDE8F08700BF3402001030B50D46013D441CADB20146651901E02146013412
S224005F400820032227F056FB08B9AC42F6D130BD114B70B4002201211048114C19704FF0E3
S224005F607E5600251346990719B214BF855086500432022902DC002124F813100133242AC0
S224005F80F1D14FF07E524262064A00231370064A137070BC704700BFF24200102000002098
S224005FA03044001074420010BA4900102DE9F0411C461B78154603EB430387B24FEA8308B7
S224005FC08EB22CF015F945F808002378174A03EB430305EB83039F802378B7F57A7F03EB1A
S224005FE0430305EB8303DE80237838BF127903EB430328BF527905EB83031A72237803EBF4
S224006000430305EB83051EB1094B1B6893F82F606E7223780133DBB2092B237001D90023FD
S2240060202370A3780133A370BDE8F081340200109049001070B504460EB21EF0EBFB0028D6
S22400604032D1244D2868A0F51013B3F5801F33D22EB1B6B2330A84F8326084F83330802220
S224006060214629F07DFA237A627A43EA0223580405D54BF6FF721A40130A22726372286801
S2240060804FF6FE738030C0F23303984288BF114B286084BF4FF4101018600F4B1A688242EA
S2240060A00FD0C305DB0D03B170BD00F5FE710331BDE8704029F092BA0520BDE8704029F086
S2240060C081BE0022E32011461A602AF00DFA2868E7E700BFB84200107C48001030B5C0B213
S2240060E081B0032839D8DFE800F0332E29021C480E21FFF71BFF1B4A1B4B15881C8825F027
S22400610020051580194A0134FF250020462115701C8026F0CDFF07200DF1030126F0D6FF66
S2240061200728F8D12CF064F8114B00221B68C018104B1860104B1A6001B030BD0F480E2145
S224006140FFF7F4FED7E70E480E21FFF7EFFED2E70C480E21FFF7EAFECDE70328ECD8CAE7BE
S224006160F4770300BA41001038420010E4410010EC4200106848001028440010E47703000A
S224006180D4770300C477030030B444F27C2244F25403C1F20002C1F200031B68D46844F6C5
S2240061A0A0115C6354889568C1F200014FF0FF301C871488D08208681D6359695C870068E1
S2240061C0128A013198615961A3F8422030BC70472DE9F0415E4D98B02B6880B293F82F20C0
S2240061E0002A00F09B80002116911591002800F0A78000F5AE501B783F300002FE2B00F0A8
S224006200A580383003AC214629F08AF92B6818AA93F82F300025D31820464E490D2203F8C4
S224006220535C31F001F960B120464B490E2231F0FBF8002872D103250F264FF00B082F46B1
S22400624003E002250E26A846042716AB02214FF0FC0E15AA17A88DF85CE08DF85D7029F00B
S22400626095FF16AA284615A929F046FF18AA931913F8543CA019202B05D1024612F8013FC6
S2240062800130202BFAD0303BDBB2092B54D814A900222BF0BFFD15A9C0B216AA29F02CFF71
S2240062A014980378002B47D0202B08BF034638D0002214A92BF0AEFD16AAC0B215A929F05F
S2240062C01BFF14980378D3F1010238BF0022032F94BF002702F00107002F2DD1202B08BFB3
S2240062E0034604D113F8012F0130202AFAD014A900222BF08FFD15A916AAC0B229F0FCFE72
S224006300159B002100934FF08073019348F0500001224FF0FF3302911DF0A2FA18B0BDE889
S224006320F08113F8012F0130202AC1D113F8012F0130202AF5D0BBE7159828F001FEEDE7EA
S22400634003AC2146054828F07FFE5FE7303059E790490010047803001478030048440010C7
S2240063602DE9F04F074689B005205FFA82F90D4627F082F8714B05201B681C6BD3F834B0C6
S2240063809B69009326F082FFB9F1020F00F09B8020462FF073FE00220023C3F610622FF07F
S2240063A0D5FE67A30CCB2FF0D1FE0022002304460E4630F0E1F80028B8BF04F1004431460B
S2240063C02046B4BF4FF02D0A4FF0200A30F058F980462FF053FE02460B46204631462FF0C4
S2240063E0FFFC59A30CCB2FF0B1FE30F049F942460346574901A82BF085FB504639462A4660
S22400640029F07AFE01A831F007F83A4681B22B4601A829F0BBFE58462FF030FE002200234E
S224006420C3F610622FF092FE45A30CCB2FF08EFEB9F1030F14BF20235F2304460E462A46B1
S2240064403946184629F058FE002200232046314630F092F80028B8BF04F10044314620466A
S224006460B4BF4FF02D0A4FF0200A30F009F980462FF004FE02460B46204631462FF0B0FC7B
S22400648031A30CCB2FF062FE30F0FAF830490346424601A82BF036FB39462A46504629F0DE
S2240064A02BFE01A830F0B8FF3A4681B22B4601A829F06CFEB9F1030F14BF20205F20394611
S2240064C02A4629F019FE2C680098002C2FD029F0EFFAC0F30721C0F30742030E2070617075
S2240064E0A270E3702B6818785C789978DA7840EA042343EA014343EA02632B6013B1B9F18B
S224006500030F05D0B9F1000F06D109B0BDE8F08F1A799B185F229A720E4B1B885B05F4D42B
S22400652003213A462B460C4829F030FEEDE729F0BFFA286038602B68E0E700BF5440001023
S2240065400080564000000000006AF84000000000887903003A440010907903002DE9F04199
S224006560054688B00520D4B20E4626F085FF274BB3F904002FF082FD25A30CCB2FF0E6FD99
S22400658030F07EF8244B80460520DF8826F07EFEB8F1030F27DD214B21494246022C08BFFB
S2240065A0194668462BF0AEFA684630F035FF2A4681B23346684629F0E9FD8CB1174B19493A
S2240065C0022C08BF19463A4668462BF09BFA684630F022FF2A4681B23346684629F0D6FDDF
S2240065E008B0BDE8F08130202946324629F084FD022CE2D129463246302029F07DFD2946DD
S2240066003020324629F078FD0449DCE77C420010976EB23F3BDF4F8D3402001094790300FF
S2240066209C790300A0790300F0B5D6B2032E88B005460C462DD0052026F01EFF022E44D055
S2240066404D4F4E493A8868462BF05CFA684630F0E3FE234681B22A46684629F097FD29469C
S2240066602246202029F048FD7A88444968462BF049FA684630F0D0FE2A4681B2234668461E
S22400668029F084FD012E59D0052026F0FFFD08B0F0BD0E68002E4BD0002029F009FAC0F3B9
S2240066A00721C0F30742030E30707170B270F370236818785D789978DA7840EA052343EAC8
S2240066C0014343EA02632360E1E731462C482A46234629F05BFD284E00273388294643FA5B
S2240066E007F313F0010F0CBF302031202246013729F002FD082FF0D129462246202029F03C
S224006700FBFC204802212A46234629F03FFD00277388294643FA07F313F0010F0CBF3020CE
S22400672031202246013729F0E7FC082FF0D1ABE7304629F0BDF920602860A8E77A681249C4
S22400674068462BF0DFF9684630F066FE234681B22A46684629F01AFDBA680B4968462BF038
S224006760D1F9684630F058FE2A4681B22346684629F00CFD88E700BFA8490010A8790300F7
S224006780A4790300AC790300B0790300F0B5044688B005200D4626F06FFE234BB3F9040040
S2240067A02FF06CFC21A30CCB2FF0D0FC2FF068FF204B06469B684FF47A72002B29D11E49CC
