S01A000042696E732F4D333033367630332E50524F442E73726563FA
S224000000DCFF001001010000E9000000ED000000F1000000F5000000F90000000000000039
S22400002000000000000000000000000061040000FD00000000000000310400009537030055
S22400004099010000655C030099010000B9540300990100005D3B0300593C0300593D03002D
S2240000605D3E030099010000115503004D56030099010000990100009901000099010000CC
S22400008099010000813703009901000099010000990100009901000099010000990100006A
S2240000A099010000E14C0300990100009901000099010000990100009901000099010000D5
S2240000C0990100009901000099010000613F03009901000099010000495E03009901000032
S2240000E09901000000000000FEE700BFFEE700BFFEE700BFFEE700BFFEE700BFFEE700BF89
S2240001001B4B1C4900B58B4206D21B4A52F8040B43F8040B8B42F9D3204821494FF0000201
S2240001208842B8BF40F8042BFFF6FAAF1D4880F30988124B124A186812499342086005D263
S2240001401149096843F8041B9342FBD30F4B0BB100E000BF0E4B13B100E000BFFEE70D4B24
S22400016013B100E000BFF9E700F0CAF9F6E700BF00000010D0010010B1B20300788E00107B
S224000180DCFF0010005A001000000010000000000000000000000000FEE70000D00100102F
S2240001A0446A00107890001000000000000000000000000000000000000000000000000064
S2240001C000000000000000000000000000000000000000000000000000000000000000001A
S2240001E00000000000000000000000000000000000000000000000000000000000000000FA
S2240002000000000000000000000000000000000000000000000000000000000000000000D9
S2240002200000000000000000000000000000000000000000000000000000000000000000B9
S224000240000000000000000000000000000000000000000000000000000000000000000099
S224000260000000000000000000000000000000000000000000000000000000000000000079
S224000280000000000000000000000000000000000000000000000000000000000000000059
S2240002A0000000000000000000000000000000000000000000000000000000000000000039
S2240002C0000000000000000000000000000000000000000000000000000000000000000019
S2240002E000000000000000000000000000000000000000000000000000000000FFFFFFFFFD
S22400030000B58AB00AA8362340F8283D41F6F1736846C1F6FF7305A9984706980AB000BD2D
S22400032010B44FF44043C4F20F034FF40242C3F8C420D3F8A02142F02002C3F8A021D3F819
S224000340A0114FF440424906C4F20F02F7D54FF4D853C0F2B70301219842C2F80C1198BF3C
S224000360C2F8041140D94FF45854C0F26E14A04237D046F23A0414604FF460630924C2F8AD
S2240003808440C0F22773C2F88010AA21C2F88C10B3FBF0F05521C2F88C1000282FD0A0427A
S2240003A033D14EF2C0123A244FF48470C0F2E4021E494FF44043C4F20F030A60C3F80401D6
S2240003C019461C60D1F888204FF440435205C4F20F03F7D50422C3F8A8210122C3F8002172
S2240003E00BE00220C2F804013A2010600F4803600423C2F8A831C2F8001110BC704745F269
S2240004003A0440F201101A46D2E793FBF0F24CF66B23511EC6F65F33A3FB0143DC0D24034E
S22400042040F4807044F03A04C2E700BF446A001072B6EFF3088020E9F00F2C4981F30888E8
S2240004404FF000014DF804ED62B62FF005FA72B65DF804EBB0E8F00F80F3088862B6704716
S22400046072B6EFF3088020E9F00F204981F308884DF804ED62B62FF01BFA72B65DF804EB82
S224000480B0E8F00F80F3088862B6704700B530F0EFF972B6164880F30888A0F580601549D5
S2240004A0154AA2EB0101A0EB01001249134AA2EB010300EB0302014640F0010000F002F822
S2240004C0FEE700BF074C084D00B5AC42034605D254F8040BAC4241F8040BF9D31046984776
S2240004E0FEE700BFE48D0300EC8F030078900010DCFF0010E48D0300EC8F0300EC8F0300EE
S224000500744B754A754D80B501271A602F7033F035FA734A00261680724A734C1670734A97
S2240005204FF460601680724AC0F227701770714A27701770704A1670704A1670704A1670F8
S224000540FFF7EEFE304633F029FA2EF0F5F94FF48043C4F202035A6CD70700F1AA809A6C66
S224000560160500F1A6809A6C002A00F0A2805A6C12F47F0F40F0CA809A6C42F400629A6492
S2240005804FF48043C4F20203996C48F2FF4241F000419964C0F21E024FF080435A600322F3
S2240005A01A70AA221A7255221A7235F0B3FD35F07BFB35F01FF934F0F3FE2378002B40F099
S2240005C08280052031F0B4FE02204FF41651002233F04AFD01204FF4E121002233F044FDD8
S2240005E0002002464FF4165133F03EFD042042F6A001002233F038FD30F036F9414E06F13A
S2240006000608771C16F8019F4846B9F1000F08D02EF02AFA07EB09131B7D0A2B4ED04645A1
S224000620F0D1022101202EF0CDFA374B01221A701A78002129705AB14FF44042C4F20F02B9
S2240006404FF47061C2F8C01030BF18780028F9D10025257034F080FE34F010FF35F03EF99B
S22400066034F0EAF9012035F083FD33F023FA4FF44043C4F20F03D3F8C4204FF48043C4F26F
S22400068002031A654FF080431C7848F2800204F001041C70AA21C4F202024FF0FF3055248E
S2240006A019721C72D060D06219721D7230F0E0F8FEE74FF48043C4F202035DE7484602210D
S2240006C02EF08CF9ABE7002034F02EFB012034F02BFB76E754400010486A0010B94100103B
S2240006E05A400010C0410010B441001064410010B841001058400010BC4100104040001032
S2240007005D400010EB8F03005C40001035F002FD35F0CAFA35F06EF834F042FE052031F0BC
S22400072007FE30F0A1F864244FF47A7033F0A2F9013CF9D134F0A2FE35F0D0F835F0E4FAC8
S22400074034F07AF9012035F013FD4FF48043C4F202035B6C5D0504D501200146224635F0EF
S2240007609DFD33F0A7F9022026F0A8F84FF48042C4F2020200214FF400604FF44043D164C1
S224000780C4F20F0310650120C3F804013A201860D3F8A800C0050BD5C3F8A010AA21C3F85B
S2240007A0AC105521C3F8AC10D36C43F00203D3644FF44042C4F20F02D2F8A8104FF4404309
S2240007C011F48071C4F20F03F6D1D3F88820D2050FD5C3F88010AA21C3F88C104FF48042EF
S2240007E05521C4F20202C3F88C10D36C43F00103D3644FF44042C4F20F02D2F888404FF45F
S224000800404314F48074C4F20F03F6D14CF2B016C4F20F0648F26005C3F80C41C2F209058D
S224000820C3F8A04148F2800134604FF00076EE61C4F202014FF0FF304FF40245C3F8C45044
S2240008404FF46D42C862C8601D21C3F8C010CEF20002136943F00403136130BF30F008F88B
S2240008604FF48042C4F20202516C4FF0804341F001015164FF21596003211970AA22552145
S2240008801A7219721A721C722FF0F2FFFEE700BF00B581B001A941F8040D022069462EF0A5
S2240008A077FA009801B000BD00B581B001200DF103012EF051FA9DF8030001B000BD00BF85
S2240008C02DE9F041114D04B24FF080464FF0AA085527002064212EF095F80A2C04BF86F87F
S2240008E008803772F5D0002CF3DB35F8143000200133642125F814302EF084F80A2C04BFC5
S22400090086F808803772EED1E3E700BF384200102DE9F04F2E4C87B02378C0B28B460390DA
S22400092033B1002001212EF06DF82378002BF8D1284D0024284F059404942E1D4FF0FE08A9
S2240009404FF00E094FF0110A01E0402C3ED005AB022104AA06A88DF818808DF8199031F0EC
S224000960BDF804A905AA11208DF819A031F06CF8204604A905AA31F067F806EB8400042191
S22400098004AA05AB31F0AAF807EBC40004AA05AB082131F0A3F855F8043FE2B20134002BB4
S2240009A0D3D10132D4B25846049D2FF0A3FF4FF08073019302900021039822464FF0FF33E8
S2240009C0009524F0F7FB07B0BDE8F08F4124EAE7F8690010D4680010506100102DE9F04F93
S2240009E0AE4C8AB02378FF2B00F06681002005A906AA24F0F7FE2378074643B1059D069E79
S224000A00A74B0135013683E8600000222270A54B1B78022B6DD007A9E52031F05DFA08A928
S224000A200446E62031F058FA012802D0012C40F04B81DFF87C9241F6FF73B9F800209A428F
S224000A4000F05D81059A0699954B1FB91868824200F0B181B9F800001A605960924E00287B
S224000A6040F067814FF6FF7801274FF4C0158E4CC0F218082DE094F804A020684FEA0A6A3F
S224000A804AEA102A227B0598D4F808C01206C0EB0A000028B8BF404242EA1C22904215D204
S224000AA094F808A060684FEA0A6A4AEA102A227C0698D4F80CC01206C0EB0A000028B8BFDA
S224000AC0404242EA1C229042C0F06A8145458FB20BD011222846744930F0CAF93378791C91
S224000AE09A1DD2B21135042AC5D90023A9F80030E4E06B4B059D069E27B91A68069E954213
S224000B0000F00481DFF8ACA1DFF8A08183E860004FF4C010514611224446554630F0A8F9B1
S224000B200FCD0FC400222B685F4E01924FF6FF72C0F2180223704FF0000B4FF4C019354616
S224000B400492374658E02C792B682406059898F8046044EA1324D8F800303606A04246EA9F
S224000B60132640F38780B04234DC001B36F030FF0290039197F808C098F808007B68D8F8C3
S224000B80042000064FEA0C6C4CEA132C40EA1220CCEB0000CDF800C036F01AFF02AB0CCBA5
S224000BA036F07EFF02900391301B36F011FF0B46024602A903C937F09DF837F00BFADDF819
S224000BC000C0069B84449C45089003DA019A531C9BB201933B78019A0633DBB202F001029D
S224000BE0042B019252D8314E2F4C0FCC0FC623683370049B994549D009F1110911224846C1
S224000C00294930F035F93B780BF1010B0633DBB2042B94BF00230123BBF1310F88BF43F05F
S224000C200103002B8FD09AF80440DAF80030240644EA1324230E00229AF808102B712A7087
S224000C40DAF80400090641EA1021D2B2DBB243EA012342EA042285E80C00090E29720598D2
S224000C6098F80460D8F800303606A04246EA13263FF779AFB0423FF778AF3B78019A0633C0
S224000C80DBB202F00102042B0192ACD9019A084BBAB141F6FF721A8010E000BF40420010AA
S224000CA0D8010010A449001024420010CC4100104842001050420010012323700AB0BDE864
S224000CC0F08F019A1A80F9E7E72009A931F004F9099B13B942F210730993059A0799891AFF
S224000CE00029B8BF49428B42069914DD0898401A0028B8BF404283420DDD314BC9E700224F
S224000D00A9F800200699059A2E4BA3E65A6896427FF4F8AED2E7DFF8A89041F6FF73B9F8F8
S224000D20000098427FF490AE0023A9F80030254B90E6C004C00C0138234E00EB00101122E1
S224000D4000F5C010314630F093F833780633DBB2042B3FF687AE32793068120642EA1020E6
S224000D60337B059AB1681B06821A002AB8BF524243EA11239A42BFF475AE327A7068120667
S224000D8042EA1020337C069AF1681B06821A002AB8BF524243EA11239A42BFF463AE8DE7E3
S224000DA0FE2BA9F8007089D0C3F1FE0347EA4337034B1F8082E7586888427FF44BAE7DE78B
S224000DC048420010D80100102442001044F25403C1F200031B6800229A80DA809A60DA6085
S224000DE01A615A61704700BFF0B5C5B2002383B0022D0193009300F0C48002238DF8083064
S224000E001E238DF8093002216A4601AB02A830F065FE32F095FE5E4B5E4C1B78A060013B4B
S224000E20DBB2022B88BF5C4B4FF0040E89BF1B686FF0090318785E7881BF9978DA7840EA4B
S224000E40062343EA0143534E88BF43EA026384F810E005F001074FF0020E6A46E3600B21A2
S224000E6001AB84F811E006F10800A77430F036FE05202DF0ABFF494B1B68DA88002A4CD03B
S224000E809988B1FBF2F23275986848F68902C8F68802A2FB00106169400960F317216161D7
S224000EA0D868E169A2FB0062C2F34F12100A2076E2751869A26901F07F4160F31722A261BB
S224000EC0187D0022E0765E69022D41EA1621E161304884F82020E27724D0314B90F82010B1
S224000EE0D3F8C44093F8C720B3F8C03041EA042180F825302423016280F8242080F82630C0
S224000F00132114306A4601AB30F0E8FD3FB905202DF066FE009803B0F0BD3275B4E7FFF725
S224000F2055FFF4E793F83F401D4A002380F82030D2F8C470DEB2B2F8C03092F8C71080F820
S224000F40253046EA07222423C477026280F824106A46132180F8263001AB143030F0BEFDCF
S224000F6005202DF03DFE04210DEB01036A460D4830F0B4FD29466A4601AB0B4830F0AEFD0F
S224000F80C8E704238DF8083024238DF809303AE764420010D8010010E84100105440001017
S224000FA0684A0010B85800100C59001070B500B287B028B1A54B1C8814F4806400F0B1804D
S224000FC02FF0DCFF002402200C2124F0A5F80590002800F094800023037043708370C370BE
S224000FE006230371059E022343710323B371234624B1BDF90C30002B18BF02230025F371A9
S2240010006620294601224FF0FF3300964FF080760196029524F0CEF861200DF11A0130F0B5
S22400102071FF064600286DD1BDF81A30DA046BD502200D2124F070F8059000285FD006703E
S22400104046708670C67006220271059B0222427103229A71224624B1BDF90E20002A18BF45
S2240010600322DA7100934FF0807300210193BB2001224FF0FF33029124F09CF84C200DF16D
S2240010800E0130F03FFF10B10023ADF80E30642003A930F037FF10B10023ADF80C30BDF817
S2240010A00E309B0705D5BDF80C3013F4805300F0CF8002200D2124F02FF80590F8B100237B
S2240010C0037043708370C37006220271059B0222427103229A71224624B1BDF91020002A30
S2240010E018BF0322DA7100934FF0807300210193222001224FF0FF33029124F05BF82046F4
S22400110007B070BDADF81A5007AD002345F8083D2946162030F022FE1720294630F01EFEB7
S224001120ACE70B2003A930F0EDFE08B1ADF80C400C200DF11A0130F0E5FEBDF81A3018B17B
S2240011400023ADF81A300023BDF90C201BB201249A42A4BF4FF0FF33ADF80C300DF10E01E3
S224001160A8BF0024172030F0CDFE10B10023ADF80E3016200DF11A0130F0C4FEBDF81A30C6
S22400118018B10023ADF81A300023BDF90E201BB29A42A4BF4FF0FF33ADF80E3004A9B8BFE4
S2240011A00124642030F0AEFE0546E8B9BDF81030D90419D5212004A930F0A4FE08B1ADF8FB
S2240011C0105020200DF11A0130F09CFEBDF81A3018B10023ADF81A300023BDF910201BB2E7
S2240011E09A4201DA012403E04FF0FF33ADF8103002214FF0FF3013F023FB032103464FF077
S224001200FF30002B18BF002413F01AFB00287FF4D7AE002C3FF4D4AE03A82FF0F3FC044658
S22400122000283FF4D0AE03A830F058FBBDF80C1039BBBDF80E10F9B9BDF8101000293FF437
S224001240C2AE09B2202030F019FEBCE61042001007AD45F8083D29461F2030F07FFD2946F4
S224001260202030F07BFD2946212030F077FD2220294630F073FD42E709B2162030F0FEFDD7
S224001280DAE709B20C2030F0F9FDD2E7F0B50C2582B00124284601A930F034FE01350028DD
S2240012A008BF00240F2DF5D11F25284601A930F029FE0135002808BF0024232DF5D101A990
S2240012C0162030F01FFE01A903461720002B08BF002430F017FE01A903460A20002B08BF12
S2240012E0002430F00FFE98B9BDF80430D3F1010338BF00231C4011D132F022FC46F23F7314
S224001300C4F6A333984205460DD820B202B0F0BD012300211C40ADF80410EDD000202BF0AB
S2240013201FFC0024F1E74BF2C533C9F2A213A3FB00234AF6AB22DB0ACAF6AA22A2FB0312FB
S22400134044F207541609CCF22E24A4FB001406EB460643200DF10601A3EBC60630F0D2FD27
S224001360BDF80630240CDAB2172AB6B2A7B205DD03F47F4303339BB2ADF80630B3F5006FAF
S22400138002D90322ADF80620BDF80430BB4256D000202BF0E5FBBDF80630BDF8042013F48B
S2240013A07F4017D197426DD00132974268D00320002300932BF0D4FB0120FFF7F7FD002831
S2240013C059D039B20A2030F059FD00202BF0C8FB01249AE7974230D0180AC11CC9B206292E
S2240013E001D9011FC9B2D01F8742E0DBD01D8742DDDC44F62510C2F29240A0FB0450251A6E
S22400140000EB55008008C0EBC000201AC0B288423AD042F29340521A7B1AC9F2492080FB6D
S224001420031480FB0250D917E4188318D217C1EBA401C2EBA3039942B9D1002465E744F2A4
S2240014400753CCF22E23A3FB05134FF4A3429DF806101B0CC0F201024FF4616000FB01F1C8
S22400146002FB1353994293D201F516718B422CBF002001208DE70A20694630F06FFCA4E7EB
S2240014809E4294D2044640E7DBB29E428FDA00243BE700BF40F2D813C1F20003188D00300D
S2240014A018BF0120704700BF10B504B2022C2FD04FF48043C4F202035B6C58051FD4022C0B
S2240014C019D002202FF0CEFF03242FF0EDFF204601342DF06BFB072CF7D10320002123F06E
S2240014E085FB002002212DF08DFA2FF0DDFF00202DF05CFBFEE70A202FF0B4FFE4E7112014
S224001500012123F073FB1120002123F06FFBD6E700216FF0030023F06FFC00216A2023F0D8
S2240015206BFC00216E2023F067FC00216FF0050023F05CFB00216B2023F05EFC6920012167
S22400154023F05AFCB4E700BF2DE9F04F5F4F93B03B884FF6FF791AB2002ABFBF03F500632E
S2240015609BB21AB23B80B2F5006FC1BFA3F500639BB21AB23B80013AD417640D1219520514
S224001580520D141B002604F50844DFF85481DFF83CB1A40111961096C0F223094FF0FD0AC7
S2240015A0D8F800304C4588BF4FF408144022022501369C42204669468DF848A08DF84950B1
S2240015C0F6B214446FD02FF053FC9DF818E029460EF11B0E10AA11AB12A88DF849E030F037
S2240015E07DFA294610AA11AB384830F077FA9DF8491010AA023911AB684689B230F06EFA69
S2240016003B8801339BB21AB2B2F5006F3B80C4BFA3F50063ABF800300F2EC1D100242C4B29
S2240016202C4A1B78106803EB43032B4A9B001370054610B12FF05EF9054602200E2123F02C
S2240016406BFD119000283FD0109BDFF89880C3F30741C3F307271A0E8170C2700370477054
S22400166098F80030119F0622027103F00F0305224271BB710023FB71384610972FF07AF909
S22400168080B2030A38727B7298F80000109900F00F0041F08071BE722A4623F04BFD20B248
S2240016A013B0BDE8F08F294610AA11AB12A830F015FA11AB0548294610AA30F00FFA074BC3
S2240016C03F8801241F80AAE70124E8E762420010C84100106C420010C44100104C420010B7
S2240016E01C420010FC410010CB1C13EA210338BF0B469B10002B30B413DD0B4A05681268F4
S22400170095420ED1002203E050F8044FAC4202D101329A42F8D1C2EB82729000081830BC98
S22400172070470020FAE700BF000000102DE9F041074683B00D4602201021164623F0ECFC59
S224001740FFB2044648B3062303710423437113234FF0000883710223C37180F8008080F8DC
S224001760018080F8028080F8038080F8088080F8098030462FF0BEF80646380940EA0717CD
S22400178001224FF0FF33F8B241468DE8700023F011FD034B012283F82A2003B0BDE8F0817A
S2240017A0D80100102DE9F04F3E4F8AB03B68B3F5806F34BF99464FF48069B9F1000F68D0F6
S2240017C0DFF8E480DFF8E4A04FF0000BB9F1F00F34BF4E46F026B6B208AB022107AA741D5E
S2240017E009A86FF00105CDF820B0CDF81CB08DF824508DF8254030F071F90D2007A908AAAC
S2240018008DF8250030F020F92748042107AA08AB30F064F91EB344F20423C1F20003186807
S22400182034B2102CA8BF1024A4B225B203A92A46A4B22FF01DFB08AB03A8214607AA30F07A
S2240018404DF93B68D8F80000361B5B1B2818B6B2C5EB09093B60C8F80000002EE0D144F229
S2240018600C23C1F20003DAF800001C78079D2FF041F84FF08073019302900021204601221A
S2240018804FF0FF33009523F095FCB9F1000F9DD13B6823B9054B186808B12EF0FBFF0AB098
S2240018A0BDE8F08FE041001004420010F041001010B5C4B284B003202DF088FA012C14BF06
S2240018C04B246B24072369460222D6208DF800308DF8014034F036F8002001212DF092F85C
S2240018E003202DF07DF904B010BD00BF70B5052384B08DF8003003208A238DF801302DF014
S22400190065FA02226946D620144634F01BF8002001212DF077F8002522466946D6208DF884
S22400192000408DF8015034F00DF8284601212DF069F801261F2322466946D6208DF8013029
S2240019408DF8006033F0FEFF284631462DF05AF80723224669468DF80030D6204B238DF84A
S224001960013033F0EFFF284631462DF04BF83623D620694622468DF800508DF8013033F0C7
S224001980E1FF03202DF02CF904B070BD2DE9F04F034690B0DBB203200B932DF017FA0CAA0C
S2240019A00B234FF48071D62034F008F803202DF017F99DF83A309DF833C09DF832E09DF893
S2240019C036409DF831709DF830609DF837509DF835809DF834909DF839A09DF838B049F24C
S2240019E0DC02C0F203020A93F9200B9B27218DE800500594029703960495CDF81880CDF85E
S224001A001C90CDF820A0CDF824B024F085FC012100202CF0F7FF05238DF830300320BA2301
S224001A208DF831302DF0D2F902220CA9D62033F089FF002001212CF0E5FF01240B230222A0
S224001A400CA9D6208DF831308DF8304033F07AFF214600202CF0D6FF00230CA98DF830302A
S224001A60D620B72302228DF8313033F06BFF03202DF0B6F81020062124F008FF10B0BDE835
S224001A80F08F00BF2DE98048A7B034F09BFBCE4A002313805380CD4E44F2182044F2CA11D9
S224001AA044F2DE1244F2E01844F2042C44F2F01EC1F20001C1F20002C1F2000CC1F2000E3A
S224001AC0C1F200004FF41674C1F200080B8003701380C8F80030CCF80030CEF80030B48522
S224001AE032F02EF80CA930F0BFFF0C9BB3F5FA6FC0F262816120B64930F004FA03B22BB18A
S224001B0044F2B2110020C1F2000108802FF0C2F944F2B212C1F20002034644F2E8141088CF
S224001B20C1F200042360C0F3431023F05BFD44F2B218C1F200080546B8F8000023F072FDBD
S224001B40A34C02462946002032F08EFA6420214630F0D8F9002842F09D8244F2B21EC1F202
S224001B60000EBEF8000044F2B214C0F3431023F039FDC1F200040546208823F053FD2946D5
S224001B800246022032F070FA44F2E810C1F200000368472019785D789A7841EA0521DB787B
S224001BA041EA024242EA036344F26422B3F1FF3F0CBF04230023C1F200022146137030F0AD
S224001BC0A1F9C8B144F2E818C1F20008D8F80030197858789A7841EA0021DB7841EA02427B
S224001BE042EA036301330BBF4FF0FF0C4FF0000EA4F800C0A4F800E044F219220024C1F299
S224001C00000208207349147030F07CF920B144F2C213C1F200031C8044F2FD186E496F48D9
S224001C200024C1F2000823F07FFE07206C4988F8004030F067F940B144F2202CC1F2000CE2
S224001C400223ACF8004088F800300620654930F059F968B144F24A2044F220214FF0000E03
S224001C60C1F20000C1F20001A0F800E0A1F800E044F24A22C1F20002B2F9003044F24C282B
S224001C80B3F5006FC4BF574B4FF0000C44F2622EC8BFA3F800C04FF0FF340023C1F20008C0
S224001CA0C1F2000EA8F80040AEF8003044F2702444F26C2844F2FC1C44F2C41EC1F20004F7
S224001CC0C1F20008C1F2000CC1F2000E7F2024A92370C8F800308CF800308EF8003030F04B
S224001CE011F998B9BDF8900036F0C2FA35F082FE3DA30CCB35F0FEFF0022C3F6F07200237F
S224001D0035F01AFD36F0AEF9394C2060002023F019FC4FF48043C4F202039B6C44F2600802
S224001D2023F07F43C1F200080320C8F8003023F0EBFE3E200DF18A0130F0E4F818B14FF014
S224001D40000CADF88AC0BDF88A306FF0090003F00F031946ADF88A3022F048FF45200DF12D
S224001D608A0130F0CFF818B14FF0000EADF88AE0BDF88A2044F20824D3B2C1F2000419466B
S224001D806FF004002270ADF88A3022F02FFF4FF08043AA221A72552200201A7224F08EFD8E
S224001DA083B218B245F67008C1F200080028A8F800301FDDFFF778FB48F2F060C3F66E00A3
S224001DC031F0C4FE96E600BFA8410010D8010010B2410010C2410010809003001C42001067
S224001DE0204200104A420010006AF84000000000C801001034F0E6F9002842F06B820320E8
S224001E00012122F0F3FE0820002122F0EFFE44F2C21CC1F2000CBCF80030002B02F00783F2
S224001E207F4D4FF4FC71286830F04AF92B681868002842F0F6822B689A694AB948F2F45131
S224001E4049F64132C2F20601C0F26B5219635A6393F84020012062F07F0283F8402023F09B
S224001E6071FB5C206F4930F04DF844F2102EC1F2000EBEF8002044F26820120AC1F20000C0
S224001E8002700AB1531E0370664C4120214630F039F8002842F00B8123889B0642F1098172
S224001EA0614C0794207044F2BA180024C1F2000821466A20348586F82E4086F82F4086F85D
S224001EC02A40A8F8004022F097FF584B21461C606C2022F091FF49200DF18E0130F012F837
S224001EE003B21BB14FF0030CADF88EC05A20504930F008F818B94FF0030EADF88EE0BDF8FF
S224001F008E00002100F0070022F0ACFC462048492FF0F8FF28B144F2FE110020C1F200015D
S224001F20088044F2FE12C1F2000213886FF00500C3F3C1235B00591CADF88E3022F056FEE7
S224001F404FF0FF3033F018FF45F670048310C1F20004DFF8E8A0DFF8E890364F44F2340E30
S224001F6044F2360044F220014FF0FF3C4FF000082380C1F2000EC1F20000C1F200012E4C93
S224001F80DFF8C0B0A9F80080AEF800C0A7F80080A0F800C0A1F800C0AAF800C000222B6887
S224001FA003EB020E9EF84C1000295BD0B2F5D67F58D202F14C0019184A78FA2A00F0B88331
S224001FC08A78143A282A00F23E83DFE812F0FB023C033C033C033C033C033C033C033C03E9
S224001FE03C0387023C033C033C033C033C033C033C033C033C033C033C033C033C033C03A2
S2240020003C033C033C033C033C0311023C033C033C033C033C033C033C033C033C033D00F9
S224002020544000101042001001420010AC410010FE41001066420010284000102C4000104A
S224002040B041001038400010BAF90030013300F00483B9F800202B6803EB020E9EF84C1010
S2240020600029A3D144F21021C1F200010B88980508D544F23602C1F20002B2F90030013364
S22400208002F06A8144F22008C1F20008B8F90030013302F03481BAF90030013302F06E8290
S2240020A0CB4A00231380CB4A44F2C2101380C1F2000044F24022C1F2000204880220107072
S2240020C0C54A4FF0040C01214FF02108736033601170A6F83080A6F832C0A6F834C0002C90
S2240020E042F01F8200239AB227A8013344F23828002400EB4201C1F20008042B28F8124052
S22400210021F8404CEFD144F2002E44F2E412FF23C1F2000EC1F200024FF0070C442023A9AB
S2240021208EF800301370ADF890C02FF0EBFE002801F0CC872423ADF88C30BDF88C30642259
S22400214044F2340402FB03F3C1F20004248844F23C08C1F2000803200621A8F80040ADF8B2
S2240021608C302CF02FFD0B20212100222CF0E4FD14210A461B2399482CF0FAFC0523482084
S2240021800DF18E0186F854302FF0BCFE002801F0AD854FF05B08ADF88E80BDF88E300A2293
S2240021A002FB03F345200DF18A01ADF88E302FF0A9FE18B14FF0000CADF88AC09DF88A30BE
S2240021C06FF004001946ADF88A3044F2442422F00DFD44F20A2844F2142E44F20E2044F2A5
S2240021E0422144F2EC120023C1F2000EC1F20001C1F20002C1F20000C1F20004C1F20008D1
S224002200CEF800300B80138023800380A8F80030FFF76CFB724A0421724B48F6786E02EBA3
S224002220010CC1F2000ECCEB0303CEEB02026E4C93FBF1F392FBF1F109940B930A916B482D
S2240022402CF00CFE1B2800F097822128F7D10B201BA92CF0E5FB1B9C002C01F0558514F059
S224002260007708BFB84640F0D9852046414623F0B5F884B204F00F03012B00F20785DDF827
S2240022806CA005222AF04F431EA819A904F0010408941E932EF082FB052840F07E849DF8FD
S2240022A06530002B40F079848DF89A3098469DF868305A1E8DF86820002B77D002221EA8F1
S2240022C022A92EF06BFB0228044640F066849DF88830122B00F00F8600F234820C2B00F23C
S2240022E047840B2BC0F06685002032212CF08AFB9DF8892000211EA82EF050FB204609210B
S22400230022F00AFF1C90002899D00023037043708370C370DDF870B006238BF804300423F5
S224002320224622A98BF805300BF106000B238DF888308DF8894036F0CDFC21A960202FF09A
S224002340E1FD032319461A4630B9BDF8843003F00702D1B2C3F302239DF86400ADF88420C7
S224002360040944EA001002228DF89A208DF89B008BF808108BF809301FB138462EF0BAFA13
S22400238080461C9B9DF89A208DE808049DF89B004FF0FF330021CDF8088022F00BFF9DF82B
S2240023A068305A1E8DF86820002B87D1338D3BB144F2BA10C1F20000038843F004030380D1
S2240023C01E98002800F067842EF064FA00F063BCF441001048420010A449001010020010B6
S2240023E078900010DCFF0010C80100109090030044F22002C1F20002B2F9003001337FF44A
S22400240028AE44F23403C1F20003B3F90080DFF864C3B8F1FF3F01F0638744F2240E0B1D42
S224002420C1F2000ECEF80030194610220CA8CDF810C036F04FFC2B6808F14C015A5C08F10D
S2240024406000013259181818920036F04CFCDDF810C02068BCF80020D5F800E002F1140886
S224002460CDF8188000F11408C4F8008011B244F220084C31C1F200080EEB0103A8F800209B
S2240024801E229A700422DA70069A181D0123ACF800200EF8013044F22403C1F200031860FE
S2240024A00CA9102236F016FC44F2200EC1F2000EBEF900302A684C33D11804204FF0320C51
S2240024C0C87081F802C001EB000ED05444F22400C1F20000C0F800E0D25CB5E044F2360290
S2240024E0C1F20002B2F9003001337FF4B2AD44F23403C1F20003B3F90000DFF87882431C42
S22400250001F05687B1F804C02A68ADF830C0CB8801F1040ECBF800E000F14C01ADF8323015
S22400252012F801E054300EF1010E511810184FEA8E020593CDF810C036F0D5FBB8F80010DC
S224002540D5F800E00AB220684C32724401F1080ECDF818E000F1080E101DCBF8000044F25F
S2240025603600C1F2000001800699C4F800E0A8F80010DDF810C0A2F804C0059BD38044F2D5
S2240025803608C1F20008B8F900302A684C33D1181E2088700220C870D05C012802BF3888FC
S2240025A040F00800388001200431D054CBF80010D25CB9F80030121803EB820292B2A9F849
S2240025C00020ECE444F2340CC1F2000CBCF9002001327FF43EADB9F80020B7F800E01FFAF2
S2240025E082FCBCF1080F4EF0010E1FFA8EFE2160DFF8808108BF5E49A7F800E004BF4EF05B
S224002600020EA1F800E0A8F800C0195C3E2901BF398841F004013980195C4B1C02EB830331
S224002620B3F5D67F9CBF9AB2A9F800207FF6B7AC44F234004FF0FF3EC1F200000023A0F804
S22400264000E02360ABE41A5CB9F80030013203EB820292B2A9F80020A1E444F2340CC1F2D4
S224002660000CBCF90080B8F1FF3F01F0978644F2300E0B1DC1F2000ECEF800301946042247
S2240026800CA836F027FB2B6808F14C015A5C08F15400013259181818920036F024FB44F27C
S2240026A03400C1F200000288206802F10808CDF8188000F10808D5F800E0C4F8008011B20F
S2240026C044F22C084C31C1F200080EEB0103A8F800204FF0010C3C229A7083F803C0181D6F
S2240026E0069A44F2340344F23008C1F20003C1F200081A800EF801C00422C8F800000CA9ED
S22400270036F0E8FABAF900302A684C33D11801204FF03C0CC87081F802C0D05444F230002A
S22400272001F1040EC1F20000C0F800E0D25C8BE71A5C12F0030F41F0DD8592081A54F92265
S2240027404A703DE41A2B00F28D82192B80F0A882142B00F08D83C0F06F83182B00F0F783E7
S2240027609DF889201EA800212EF018F99FE500BF664200103440001044F2E021C1F2000196
S224002780B1F900300022B3F5967F86F82A2000F3408344F2E012C1F200021368002B40F04A
S2240027A0358396F85430013BDBB286F85430002B7FF445AD44F21424C1F200042368AC494A
S2240027C0BDF890200133052081F854002360002A4BD044F21608C1F2000898F80030AA2008
S2240027E04FF0804108725520012B08721DD944F2C21CC1F2000CBCF80010B1B144F2192ED3
S224002800C1F2000E9EF800109A4C09290DD8013B1921994AFA2023F07FFD2378012101335C
S2240028202370964BBDF890201970013A94B2ADF89040D4B90720ADF890006527A04644F2AA
S2240028403821C1F200010DF15C0C635A3CF804209A4201F02C8117AA1353023408F1010812
S2240028600137082C1FFA88F8E9D1338D13B1804A013B138544F27024C1F20004237863B340
S22400288044F2FC18C1F2000898F80030082B01F08B8144F2C41CC1F2000C9CF80040013C58
S2240028A0E4B28CF80040C4B944F2C81EC1F2000EBEF80020013292B213B2052BAEF8002057
S2240028C003F31382012B06DD44F26220C1F2000003880F3B0380FEF737FE002023F0CCF875
S2240028E00446032023F010F9B4F5FA7F0746C1F0018003202CF06AFA012308210DF1990220
S224002900D62033F05BF803202CF06AF92B6893F94030002BC0F2C38644F6A810C1F200004A
S224002920B0F90030002BC0F2978644F2EC1E4FF0000CC1F2000E1120AEF800C022F01AF8B8
S224002940002800F00C819DF89930580706D444F20E20C1F20000038801330380112022F09A
S22400296009F8002800F01F8640F252339F4240F2DA869DF8998018F0040840F0D48644F2E8
S2240029804221C1F200010A88531C12B29BB2EF2A0B8001F39A840A2B01F08B8440F2180CC8
S2240029A0C1F2000C9CF80030DFF8D480590615D444F2142EC1F2000EDEF800300A2B0DD9C2
S2240029C031F0BEF846F24073C4F6A3339842C2BF98F8003043F0400388F8003040F25233A8
S2240029E005209F4240F216862CF0F0F92B6805209A6801329A602CF0F3F8BDF88C306BB976
S224002A00BDF88E30BB4241F20480738E33B1013B174A9BB25386002B01F01A856D2021F089
S224002A20A9FF002800F0DE8505202CF0CFF92B6893F840209C8722F07F0242F07E0283F804
S224002A40402005202CF0CCF8682021F093FF0346002840F0C18544F2C214C1F2000422888D
S224002A6082B1B28DB2F5167F03F038810AE000BFD801001019420010F09003001640001011
S224002A801800001044F21028C1F20008B8F80030DA0540F14387B38D013B9BB2B385002BFA
S224002AA000F03C87B3F5157F09D144F6C01CC1F2000CBCF8003043F02003ACF800307220D3
S224002AC021F058FF68B944F24121C1F200010B783BB144F6C012C1F20002138843F40063B7
S224002AE01380079C44F241282378C1F2000888F80000002B40F04886338E03F00302032A17
S224002B0000F0198603F01F021F2A2DD03BB1013B9BB233861BB9C04B4FF434701886052010
S224002B202CF054F944F2082244F6A813C1F20002C1F2000344F268241178C1F200041A88C3
S224002B4023784A4042FA03F3DC0703D52B68DA6A0132DA6205202CF043F8FFF770BB11204A
S224002B60012122F043F8EEE6FEF790FB338ECDE70E2B00F08884C0F000850F2B7FF4F0AD64
S224002B809DF889200E2A10D01EA800212DF006FF9DF8893098423FF48AAB1E982DF07AFEF6
S224002BA038462DF077FEFFF74ABB072122F0B4FA1C9000283FF443AB0024047044708470E8
S224002BC0C4701C9B0E224FF0060B991D83F804B05A711EA82DF0E2FE0E28DED120460121A5
S224002BE02EF08CFB1D90002801F030841C9BC0F30741020EC0F307249970DA7018705C706A
S224002C001C982DF0B7FE9DF864300246190941EA0313022008218DF89A208DF89B3022F069
S224002C207BFA1D9000283FF40AAB1C9B1A0EC3F30724C3F30741C2700370447081701D9B9D
S224002C4002225A71102283F804B09A719DF89A201C93DA7101238DF89A30002F7FF48DAB7E
S224002C60FFF78FBBFD2B00F0A183FE2B00F08881202B7FF475AD01239DF8892086F82F3092
S224002C801EA800212DF08AFEFFF711BB1B9820F04F402DF0FFFD38462DF0FCFDFFF7CFBA63
S224002CA09DF889B0BBF1010F41F2F582012B40F090854FF0000C0020BBF1020FADF892C04B
S224002CC05A4600F098859DF88830012B03D0023AD2B28DF8892000B2031C18BF01237F2895
S224002CE0CCBF002303F001031946002B00F03186022A08D000211EA82DF050FE9DF8893055
S224002D0098427FF44AAF25A99DF892002FF0FAF80222044621A91EA82DF040FE02287FF46C
S224002D203CAFBDF892301AB27E2A3FF7C0AA9DF88820BDF894B0192A02BFBDF884204BEA50
S224002D400202ADF894200ED01A2A02BFBDF884202BEA0202ADF8942005D0022A04BFBDF8EA
S224002D6084E0ADF894E0A4B21CB9BDF894205A4506D0D8B2BDF994102FF080F8BDF89230D6
S224002D801BB2452B01F097853E2B01F08A85322B01F07E85462B01F06185472B7FF487AACC
S224002DA0BDF894E044F2B210C1F20000A0F800E0FFF77DBA022B3FF473AF032B00F0308342
S224002DC0012B7FF4CDAC089C002C3FF4C9AC9DF889B0BBF1000F7FF465AF1FB138462DF0E3
S224002DE089FD80469DF86440002024091034FDF7FBFF8DE801040421204601224FF0FF3331
S224002E00CDF8088022F0D6F9FFF751BAFEF7CAFCC7E404F04BFABCE4D801001024F04F48AB
S224002E2040461BA922F0D0FD1B9B04F04F441C4347461B94FFF719BA9DF889300020042B26
S224002E40ADF8920004D996F82E30DC0741F1B88196F82A3013B19DF8892095E63A469DF8A5
S224002E6064000AF04F41FEF761FC9DF889208BE69DF889200023022AADF89230E8D11EA8EB
S224002E8025A92DF08BFD022801F0E882BDF99230012BDDD1002014212BF0B4FD2EF006FCA2
S224002EA044F2BA1CC1F2000CBCF80020BDF8943042F00402ADF89600ACF800201BB9431C8B
S224002EC0ADF894309BB283427FF4F1A9002078212BF098FD96F82F303BB9284B012283F80A
S224002EE02E200420022123F0D1FC4FF0000EA6F828E0FFF7DCB99DF889300024012BADF897
S224002F009240A5D196F82EB01BF0010BA0D11A461EA80DF19B01ADF892308DF89B402DF0CC
S224002F203DFD9DF89B30012818BFADF892B0FF2B1CBF4FF0000EADF892E089D1BDF99230D0
S224002F40012B01F06484002B7FF4B1A980E79DF889201EA800212DF021FD089C002C3FF4A5
S224002F60A6A91FB138462DF0C5FC80469DF864402409103426F056F93BE700BFD801001032
S224002F809DF88910002900F0DC841EA80DF19A0101222DF003FD9DF88930013B8DF889301E
S224002FA09DF864309DF89A401A0942EA0313D8B28DF89B00FA2C3FF67AA901A151F824F0E8
S224002FC0355D000081500000754F000055540000254D0000554B0000D74A0000AF22000018
S224002FE06B490000F5480000BF5C00001D5C0000595B00006959000029590000AF2200007E
S224003000AF2200000F590000AF220000AF220000D358000033580000E7570000AF2200000B
S224003020AF220000AF220000AF220000415700004157000051570000DB560000AF2200003E
S224003040AF220000AF220000AF220000AF220000AF220000AF220000AF220000AF220000E3
S224003060AF220000AF220000AF220000AF220000AF220000AF220000AF220000AF220000C3
S224003080AF220000AF220000AF220000AF220000AF220000AF220000AF220000AF220000A3
S2240030A0AF220000AF220000AF220000AF220000AF220000AF220000AF220000AF22000083
S2240030C0AF220000AF220000AF220000AF220000AF220000AF220000AF220000AF22000063
S2240030E0AF220000AF220000AF220000AF220000AF220000AF220000AF220000AF22000043
S224003100AF220000AF220000AF220000AF220000AF220000AF220000AF220000AF22000022
S224003120AF220000AF220000AF220000AF220000AF220000AF220000AF220000AF22000002
S224003140AF220000AF220000AF220000AF2200006F560000AF220000AF220000AF220000EE
S224003160AF220000AF220000AF220000AF220000AF220000AF220000AF220000AF220000C2
S224003180AF220000AF220000AF220000AF220000AF220000AF220000AF220000AF220000A2
S2240031A0AF220000AF220000AF220000AF220000AF220000AF220000AF220000D35500002B
S2240031C0AF220000AF220000AF220000AF220000AF220000AF220000AF220000AF22000062
S2240031E0AF220000AF220000AF220000AF220000AF220000AF220000AF220000AF22000042
S224003200AF220000AF220000AF220000AF220000AF220000AF220000AF220000AF22000021
S224003220AF220000AF220000AF220000AF220000AF220000AF220000AF220000AF22000001
S224003240AF220000AF220000AF220000AF220000AF220000AF220000AF220000AF220000E1
S224003260AF220000AF220000AF220000AF220000AF220000AF220000AF220000AF220000C1
S224003280AF220000AF220000AF220000AF220000AF220000AF220000AF220000AF220000A1
S2240032A0AF220000AF220000AF220000AF220000AF220000AF220000AF220000AF22000081
S2240032C0AF220000AF220000AF220000AF220000AF220000AF220000AF220000AF22000061
S2240032E09D550000AF220000AF220000AF220000AF22000033550000AF220000AF22000069
S224003300AF220000AF220000AF220000AF220000AF220000AF220000AF220000AF22000020
S224003320AF220000AF220000AF220000AF220000AF220000AF220000AF220000AF22000000
S224003340AF220000AF220000AF220000AF220000AF220000AF220000AF220000AF220000E0
S224003360AF220000AF220000AF220000AF220000AF220000AF220000AF220000AF220000C0
S224003380AF220000AF220000AF220000AF220000AF220000AF220000AF220000AF220000A0
S2240033A0AF220000AF220000335500009DF88930032B7EF47CAF01220DF19B011EA82DF025
S2240033C0EDFA22461EA80DF192012DF0E7FABDF892309DF88920033A1C0442BF03F50063D6
S2240033E0ADF892309BB28DF889201AB2B2F5006FC4BFA3F50063ADF892309DF89B30042B90
S2240034003EF655AF0FF2040C5CF823F0AF460000A946000023460000AF220000D1450000C3
S224003420089C9DF88920002C40F0D783012A40F2C983032A1EA80DF1920100F00E8402221C
S2240034402DF0ACFA02287FF4A8ABBDF892301AB2FF2A00F0CB837F2A3EF429AFD8B20024A9
S2240034601C942EF02BFD1C9000283EF420AFBDF892301D94B92B01F0E981D8B21DA92EF0A7
S2240034806DFCFEF714BF4F2025A92EF03BFD10B13C22ADF894209DF889201EA8082A7FF442
S2240034A074ABBDF8944014F480647FF46EAB04221FA92DF073FA042883467FF46EAB30F0CE
S2240034C03FFB1F9B1FA9C31AB3F5967F1EA85A4682F0FD832DF062FA04287FF45EAB1F9861
S2240034E030F034FB40F2180CC1F2000C9CF80030022043F040030B218CF8003021F00CFE0C
S2240035001C9000283EF49BAE047044708470C4709DF86430DDF870E01A0942EA03135FFAFB
S22400352083FC06238EF8043002238EF805300D238EF806308EF80740214601226046CDF896
S22400354000E04FF0FF334FF0807E8DF89BC0CDF804E0029421F02EFE1F9A4FF46A5302F5CC
S2240035607C3202F59062C0F20903B2FBF3F319B209202EF083FCFEF79ABE9DF889B0BBF106
S224003580000F00F05782BBF1040F1EA800F0C78200215A462DF002FA9DF8893098423EF45C
S2240035A086AEFFF7FABA44F24228C1F20008B8F8003001339BB2282BA8F800307FF4EEA93F
S2240035C01120012121F012FBFA202721C34A012322F0A2FEFFF7E2B94FF4167EA6F82CE01E
S2240035E0FFF76DBA05202BF0F1FB40F20402C1F2000291892B68A1429C87B94A80F0948155
S22400360093F8402022F07F0242F0650283F84020FFF717BA2BF0DAFB2B680520DA680132CF
S224003620DA602BF0DDFABDF88C30002B3FF4F6A99C4280F0D981B38E002B3FF4EFA9013BD0
S224003640A84A9BB29386002B7FF4E8A90A20062123F01CF9FFF7E2B944F20A21C1F20001BF
S2240036600B8801339BB21AB2B2F5616F0B8016DD05202BF0ABFB44F25402C1F200021368CE
S224003680052093F8402062F07F0283F840202BF0A7FAFA202721914A052322F03DFE44F6BF
S2240036A0A818C1F20008B8F8003040F64572DB0B94428CBF002303F00103002B3FF435A960
S2240036C0B4F57A7F7FF631A99DF8993013F0300F7FF42BA944F2EC1CC1F2000CBCF800203C
S2240036E0814B002A40F0C78244F2442EC1F2000E0120AEF80040188044F2EC18C1F2000859
S224003700B8F900305A2B7FF41EA91120012121F06DFA0B23FA202721704A22F0FDFD9DF84E
S2240037209930FFF712B944F242230022C1F200031A80FFF733B944F2402CC1F2000C9CF816
S2240037400030022B01D0FDF749F94FF0FF3032F013FB45F6700EC1F2000EBEF80030C0F34F
S2240037608F0419B220B2471A0337604A062F9CBF1480338E7FF6C6A9884240F31082043340
S2240037801380338EFFF7BEB903F01AFCC30440F12F8142F21003034000F00C02002B00F00F
S2240037A07384042A0CBF06220522079C237893423FF4A2A949F28008C0F203084C4908EB2C
S2240037C0C2030A70002059699A6930F083F9FFF793B902221EA80DF192012DF0DFF8022849
S2240037E07FF4DBA99DF889B0BDF89200BBF1020F5A467FF468AAA0F180039BB25F2B40F2B9
S224003800758458460A2121F087FC1C9000283EF416AD00231D90037043708370C370BDF8B3
S22400382092201C9811B206247F290471437140F32686DF29D8BF069300F3F68700231D9305
S22400384000283EF434AD2DF095F89DF8643002461909022041EA031301468DF89A208DF87D
S2240038609B3021F059FC1D9000283EF4E8AC1C9BC3F307241A0EC3F30741C2700370447060
S22400388081701D9B06221A7104225A7102229A719DF89A20069C02321C93DA711CB14FF07C
S2240038A0FF0CADF892C003F108000DF19201022235F010FA1FB138462DF01CF880461C9B25
S2240038C09DF89B008DE80804002101224FF0FF33CDF8088021F06EFCFEF7E9BCF090030098
S2240038E004000010D8010010EC410010705800100142001005202BF069FA2B68012283F88A
S224003900402005202BF06CF944F20A2E4FF0000CC1F2000EAEF800C0FEF7EBBF0B200321CF
S22400392022F0B4FFFFF7CBB8D189A14275D293F8402022F07F0242F0510283F84020FFF7EC
S22400394080B81EA80A468DF89A102DF027F8FFF727BBDF2840F3D883042A07D01EA82DF054
S2240039601DF89DF8893098427FF417A904221EA820A92DF013F804287FF40FA9BDF8923027
S224003980FF2B0BD144F26421C1F200010A78032A04D99DF88820022A00F08285D8B21FA96F
S2240039A02EF09AFA9DF888201F9B192A08BF209A81B204BF1A431F920AD01A2A02BF209AF8
S2240039C023EA02021F9203D0022A04BF209A1F9219B91F9A93423EF46AAC9DF892001F996C
S2240039E02EF02AFAFEF763BC0421B186FFF716B844F2002CC1F2000C9CF8003007229F0798
S224003A003FF5D3AE00F00C02042A0CBF02220122CBE604207086FFF701B8118AA1426FD275
S224003A2093F8402022F07F0242F03D0283F84020FFF707B8594609202EF020FACDF870B01D
S224003A40CDF874B030F07CF8042186461CAA1DAB20A8CDF880E02EF041F81C982CF08AFFC8
S224003A6003468DF89A302046092304218DF89B3021F052FB1D9000283EF4E1AB1C9B1A0ED2
S224003A80C3F3072EC3F30741C270037080F801E081701D9B06221A715C710D229A719DF842
S224003AA09A201C93DA71002F7FF405AF07E74FF0000E39469148ADF890E02FF0E5FC00202F
S224003AC032212AF09FFF44F2C210C1F2000003882BB1FA2003218A4A3B4622F01DFC0FFAED
S224003AE088FABAF1010F02F019810921012022F0CDFE44F23821C1F20001635AFEF7ABBE72
S224003B00528AA24293F8402022F07F0234BF42F0290242F0010283F84020FEF792BF1FA9F4
S224003B205A462CF03BFF04287FF437A800231C931D9330F005F8042104461CAA1DAB1FA8A9
S224003B4020942DF0CBFF04211CAA1DAB20A82DF0C5FF1C982CF00EFF9DF8643002461909F9
S224003B6041EA0313022006218DF89A208DF89B3021F0D2FA1D9000283EF461AB1C9B1A0E58
S224003B80C3F30724C3F30741C2700370447081701D9B06221A7102225A710E227EE7191FD0
S224003BA01180338EFEF7AEBF002024F035FC00287EF46FAE012024F02FFC00283EF48DAE3B
S224003BC0FEF767BE00211EA82CF0E8FE9DF8892090423FF42EACFEF7E0BF1EA800212CF029
S224003BE0DDFE0020FDF7E2F9FEF761BB9DF88920022A08D000211EA82CF0D0FE9DF8893084
S224003C0098427EF4CAAF02221EA80DF192012CF0C5FE02287EF4C1AFBDF9922045F2AA53D8
S224003C209A427EF444AB2EF02BFA44F29C2E44F208200023C1F2000EC1F200000370002176
S224003C40AEF800306FF0040020F0D0FF6FF00900002120F0CBFFFEF72ABB4FF0000C01229C
S224003C60ADF892C02CF09AFE9DF88930013B8DF88930FFF7EABB013292B211B2B1F5E16F01
S224003C801A8009DB44F24421C1F20001B1F900303133A34280F2B68544F2EC12C1F2000299
S224003CA0B2F900303C2B7FF427AD03202BF08EF8012308210DF19902D62031F07FFE032015
S224003CC02AF08EFF9DF8993003F03002D2F1010138BF0021302A14BF0A4641F00102002AFD
S224003CE040F0C18307490A80FEF72FBEBDF88E3023F47E43ADF88E30FEF74FBA109103003F
S224003D00F0900300EC41001096F82F30002B42F09180DDF81C8098F80030002B42F08280F3
S224003D20002303201B9321F0EFFE4FF48043C4F2020344F6A81C9A6CC1F2000C9CF8001064
S224003D4002F07F420A434CF6CD46DFF8988304469A64CCF6CC464FF08045AA2700200A21DB
S224003D602AF050FE1B9BA6FB03E2D20802EB8202B3EB420F02D155222F722A720133B3F5FD
S224003D80167F1B9302F23E8098F80030002BE5D0012003F0D1FA2DF05DFB002106466FF069
S224003DA0060020F023FF01216FF0010021F024F8A6F10A03DFF83093DBB20021012BA9F85E
S224003DC0001042F20380C44D462029462EF09AF80146002800F0388100222A8069200121F2
S224003DE021F00AF844F2FE13C1F2000344F2FE1819786FF00300C1F2000820F0FDFFB8F8F8
S224003E000030AA214FF080421172552113F40055117200F0FC82C3F3C123590001316FF0D7
S224003E20050020F0E3FE6B20012120F0E5FF4FF48043C4F202035A6C22F480625A642DF08C
S224003E4009FB0F280546064647B209D8012101FA07F248F2A013134013B16C2020F0CCFF30
S224003E60DFF884824A2041462EF04CF8002800F0F4804FF0000CA8F800C06E20002120F017
S224003E80BBFF4FF08042AA21002311725521117218468DF8993021F0EFFD0F2D804640F21B
S224003EA0C980B8F5616F06D840F252339C4202D901238DF899301220002120F09DFF40F246
S224003EC0040EC1F2000E9EF8003043B19DF899101220002900F07582012120F087FE7F4A50
S224003EE04FF080431188AA221A72552206201A7232F01AFA44F260000023C1F20000102EC1
S224003F00036040F2848044F2FE11C1F200010B889E0401F1D5874FF4804344F2FE18C4F27F
S224003F200203C1F200089D6CB8F800306FF003001D4020F01FFDB8F8003003405D40ADB2C9
S224003F40002D41F07D87032021F0DEFD40F252339C4294BF00220122984294BF002301234A
S224003F609A421FBF44F26002C1F20002136843F0010318BF1360B9F800309D0741F09B8266
S224003F80032021F0C1FD40F25232904294BF00230123944294BF002201229A420AD04BB1E8
S224003FA044F2600EC1F2000EDEF8003043F00103CEF80030002001464FF4FA722FF08AFDA8
S224003FC04FF48043C4F202035A6C12F0010013D144F6A8149A6CC1F20004217802F07F426F
S224003FE00A439A6496212AF00DFD012022F066FC0446002801F093824FF48043C4F20203C8
S2240040005B6C2DF051FA00202AF0D0FDFEE7012173B201FA03F342F2120261F31F421342F6
S22400402025D04FF48043C4F202035A6C42F001025A64A5E7012303FA07F74BF212333B4064
S224004040002B7FF431AF2CE7B5F90030002BBFF6C5AE692020F0D0FEC4E6B8F80030990708
S2240040603FF40BAF6E20012120F0C6FE09E71A0540F1A280682020F07DFC002880D00D20B2
S2240040800E2122F003FCCCE7042A0CBF04220322FFF78BBB612021462DF034FF00283DF417
S2240040A05CAD4FF0000CA4F800C0FDF756BD0E2121800B4C0123237000204FF0FF314FF494
S2240040C0FA7207942FF006FDFDF7EDBE9DF88C30ADF88C30FEF731B8FE410010D40100104F
S2240040E001420010D0010010C6410010C0B22DF0E5FE04461C90002800F0EF814FF0000C35
S224004100CDF818C0FFF79ABB1C931D938DF89A3082B91FE01CAA9DF89B001DA92DF094FC61
S2240041209DF89A309DF889200133DBB29A428DF89A300FD901221EA80DF19B012CF02EFC40
S2240041400128E7D01D982CF0A5FB1E982CF0A2FBFEF7A1BDBDF89200002800F0CE811D9BE1
S224004160002B3EF4A4A8C0B200241C942DF0A6FE01461C9028B11D982CF016FD002840F082
S224004180CB811D9B73B1BDF89230B92B06D144F2C01E0122C1F2000E8EF80020D8B21DA9D2
S2240041A02DF0DCFD1C9800283EF481A82CF072FB00231C93FEF77BB85F053FF5E1AEA2E69B
S2240041C004221EA81FA92CF0E9FB042800F03581BDF99230012B7EF43BAEB06D1F9A00245B
S2240041E0904286F82F404CD19DF89A305BB93FE00C791C190C719DF89A10CB1ADBB28DF8DF
S2240042009A30002B34D01E9A54791179A34228BF234651181A468DF89B302DF001FA1E9974
S2240042209DF89B304C791F9AE41A9818E4B202461F904C71002CDBD108784C788A78CB7842
S22400424040EA042040EA024242EA036301201D932AF016FC1D9B9DF89A101E939DF89B3006
S2240042601F98CB1ADBB202468DF89A30002BCAD1B36D93423CBFB94B9A65F0223285FEF702
S22400428016B89DF89A201EA821462CF087FB8DF89A401F9AECE75A4600211EA82CF07EFB2A
S2240042A09DF889B058457EF478AC9DF88830FEF7FDBC1120414620F099FCFA202721A84A4C
S2240042C0434622F029F8FEF769BB0220FDF75EFBFEF764BB6FF0030020F04CFBFDF78FBD88
S2240042E0B9F8008044F2200CC1F2000CACF80080FEF7DAB800238EF84C30FDF7B3BEB9F881
S2240043000000984FB0F5CC7FBDF4C5AE296800F14C02954C8B184FF0040C03EB0C0E208052
S22400432001F802C0F82083F803C044F2240C5870C1F2000C32209870CCF800E08B5C3A88D3
S22400434001339B00DBB29B183B8070460021102234F0E6FCFDF79FBEB9F80000834C29681D
S224004360208000F14C02012088548B18F92058701E2098701F1D0220D870CBF800708A5CD3
S224004380B9F80010013202FA00F2D2B200245218A9F800209C80DC80FDF774BEB9F800C054
S2240043A044F22C0EC1F2000EAEF800C0FEF7AAB9B9F8002044F23603C1F200031A80FEF784
S2240043C0DEB820F013FC2B1F18BF0123012D0CBF002303F00103002B3FF481ADB5F10D0389
S2240043E018BF0123102D0CBF002503F00105002D3FF475ADB8F5616F81BF4FF48043C4F29C
S22400440002035A6C42F4806288BF5A6467E529466FF0050020F0EAFB6B20294620F0ECFCA9
S22400442005E52CF0EDFF2CF035FAFDF704BD5049504821F079FAFDF7F3BC9DF889300121BD
S224004440043BADF892108DF89A30C1E61C987AE60220052122F01AFAFEF7E0BA0124ADF800
S2240044609240FEF717BD1120002120F0BFFBFA2027213B4A0A2321F04FFFFFF73DB9D0B29F
S22400448025A92DF03FFD80B20690002832D125A859461CAA1DAB2DF021FB1C98FFF7CEB999
S2240044A0209B13A844F2E8141393C1F200042DF075FD209A2368C2F30740C2F30724110E23
S2240044C044F2642C1A705C709870D970C1F2000C00238CF80030FDF7EABE1D940DF19200F7
S2240044E059461CAA1DAB012406942DF0F7FA1C98FFF7A4B90DF19200CAE7DDF874801DA9E6
S2240045001CAA1C901D9021F067FB1D984146012228F0ECFAFDF7CBBE1D982CF0BBF91D94F4
S22400452040E644F2E81EC1F2000EDEF80020009014785078977892F803E044EA002242EA81
S224004540074242EA0E62019202930393FA200A4A042321F0E1FEFDF7C5BD00BFD801001010
S224004560F0900300B04100102040001036400010809003001C420010EC900300B9F800000B
S224004580D84CB0F5D27FBDF48BAD296800F14C02D54F8B184FF0010E388001F802E0F92082
S2240045A083F803E044F2300E587003F1040C3C20C1F2000E9870CEF800C08A5C21880132EB
S2240045C09200D2B25218228000225A60FDF768BD07202AF0FBFB4FF6FF71C0F223014FF4BA
S2240045E008102CF0A3FC44F21C2444F24A2C44F2702E0023C1F2000CC1F2000E4FF40811EE
S224004600C1F200042160ACF800308EF8003006201DA91D932DF0A2FB07202AF0E1FAFDF76D
S22400462046BEBDF89230002B00F0DD8044F24A2CC1F2000CACF8003044F24A22C1F20002EC
S22400464044F24C24B2F900100620C1F200042DF015FCBDF99230B4F90020934200F09E80C1
S22400466044F26224C1F20004B4F900209A427DF41EAE44F26C2C44F2702E44F2FC110024D3
S224004680C1F2000CC1F2000EC1F20001DCF800008EF800400C702CF0FDF844F26C22C1F243
S2240046A000021460FDF703BEBDF99230D8E7BDF89230002B4DD044F2622EC1F2000EAEF8A7
S2240046C0003044F26C2EC1F2000EDEF800002CF0E1F844F21C20C1F2000044F26223C1F2B6
S2240046E000030168B3F90020A1F5081144F26C24C1F200040023B2EB911F236002BF44F267
S2240047007024C1F2000423703DF4D1AD27B138462CF0F0F8754B18609DF8642044F2FC1C0E
S2240047201209C1F2000C8CF8002044F2C41E44F2C81144F270220123C1F2000E0020C1F24F
S2240047400001C1F200028EF8003008801370FDF7AEBD44F24A20C1F20000028810045EBF70
S22400476044F26221C1F200010A80AAD544F21C24C1F20004226844F2622CA2F50812520A36
S2240047800132D20092B211B2B1F5006FC1F2000CACF80020C4BF564A138092E72FF0D0F959
S2240047A044F2FD1C4FF4A343C1F2000CC0F201039CF8002090FBF3F344F2202E99B2C1F260
S2240047C0000E022AAEF8001003D009B207202DF055FB44F24C214FF0FF30C1F20001BDF947
S2240047E0923008803CE744F21C2EC1F2000EDEF8003044F24A20A3F508139B09C1F2000056
S224004800038019E70C20FDF7C1F8FFF745BA002486F82F402CF0F2FEBDF99230B465002B69
S2240048207DF445ADFEF714BBD0B21FA92DF054FB80B2069000287FF45DAE1FA804211CAA76
S2240048401DAB2DF04BF91C98FEF7F8BF44F2C0110122C1F200010A70FEF70FBEBDF8943037
S2240048608BEA030B1BF4C05F3DF421ADC3F3C12244F2FE1C5200C1F2000C511CACF8003048
S2240048806FF00500ADF8942020F0B0F9FDF70FBD9DF8943044F29C24C1F200042380FDF740
S2240048A006BDBDF894106FF0090001F00F0120F09DF9FDF7FCBC44F26820C1F20000037830
S2240048C0012202FA03F3BDF8941044F208220B40C1F20002C9B213706FF0040020F086F915
S2240048E0FDF7E5BCB04100102C4000106C42001062420010FE234FF0000B95488DF88830AA
S224004900CDF874B0CDF870B034F030FA1DAB441C1CAA022122A88DF889402DF0DFF809232D
S2240049201CA91DAA18468DF889302DF08DF8884834F01CFA411C89B21CAA1DAB84482DF08F
S224004940CDF81C9B38469DF89B4005932BF0D2FF059B02908DE808042046594601224FF04A
S224004960FF3320F027FCFDF7A2BC4FF0FE0E002402211DAB1CAA8DF888E022A84FF0120E45
S2240049808DF889E01D941C942DF0A8F8082318461CA91DAA8DF89A302DF056F804224FF4CE
S2240049A0D0101FA92CF064FA1F9B1CAA013308BF1F941DAB04211FA82DF090F80420C0F273
S2240049C01A0004221FA92CF053FA1F9B581C7FD0A3F5D013803B1F9304211DAB1CAA1FA882
S2240049E02DF07CF8102020A90422C0F21A002CF03FFA209B591C68D0A3F5D0131F9A823B88
S224004A009B1A209304211DAB1CAA20A82DF066F80820C0F21A0004221FA92CF029FA1F9B58
S224004A20D8B203F47F03B3F5981F8DF89A0037D2142835D01CAA04211DAB1FA82DF04EF8C9
S224004A4000201CA91DAA8DF89A002CF0FDFF1FB138462BF04FFF80461C9C9DF89B000021E8
S224004A6001224FF0FF338DE81004CDF8088020F0A1FB292025A92DF045FA044600287DF4C5
S224004A8016AC4FF6FF71C0F221014FF4D0102CF04DFA29201DA91D942DF060F9FDF707BC53
S224004AA01CA91DAA2CF0D0FFE2201FA92DF014FAC3B28DF89A300BB100231F931FA8042144
S224004AC01CAA1DAB2DF00AF8C1E70023209399E700231F9380E79DF88930FF228DF89A203C
S224004AE02BB11EA80DF19A0101222BF057FF9DF89A004FF0000B21A91DAA01280CBF0220C2
S224004B005846CDF884B0CDF874B021F065F8FE2321988DF888302BF02DFF1DAB441C1CAA56
S224004B20022122A88DF88940CDF870B0CDF874B02CF0D4FF06231CA91DAA18468DF8893027
S224004B402CF082FF21991C982BF0BAFEF9E600BFA443001045F6102CC1F2000CDCF814308F
S224004B604FF0000EADF884E03BB172461B68511C0A46ADF88410002BF8D149F27D00C0F25F
S224004B80030090F800B04FF0030E0EFB0BFE00240EF10A0E02211CAA1DAB1D941C9422A85C
S224004BA0FE248DF889E08DF888402CF097FF05231CA918461DAA8DF889302CF045FF01210F
S224004BC0ADF89210BBF1000F46D0012349F26402C0F20302D05C1CA91DAA2CF035FFBDF97E
S224004BE0922048F6F473C0F2030303EB021293684FF0040C93FBFCF451680022002C15DDDE
S224004C0040F2000EC1F2000EDEF800200868904208BF9E464FF0000204D007E051F8043F23
S224004C20984202D10132A242F8D173466FF0030000FB023202219C1A25A81CAA1DABADF8BF
S224004C4094402CF04BFFBDF89220013292B213B25B45ADF89220B9DDC8201CA91DAA2CF055
S224004C60F3FE0B9C002C41F33C81DFF804C340F2000EC1F2000EDCF80010DEF80030994216
S224004C8041F02F81ACF10402002303E004325068814203D10B9C0133A342F7D19B000221BA
S224004CA0ADF894301CAA1DAB25A82CF017FFC9201CA91DAA2CF0C8FEDDF828C0BCF1000F29
S224004CC041F3128148F6786E40F20000C1F2000EC1F20000DEF8002003689A4241F004814B
S224004CE0994B002403E053F8041F8A4204D1DDF828C001346445F6D11DAB1CAA0221A400FE
S224004D0025A8ADF894402CF0E9FE1CA91DAACA202CF09AFE21A81CAA1DAB02212CF0DEFEA9
S224004D2000F05EBF4FF0010C4FF0000BFE2387488DF889C0CDF810C08DF88830CDF874B052
S224004D40CDF870B034F012F8841CE4B280488DF8894034F00BF8431CE418E4B27D488DF88D
S224004D60894034F003F8431CE418E4B27A488DF8894033F0FBFF431CE418E4B277488DF8F3
S224004D80894033F0F3FF00F125021DABA41802211CAA22A88DF889402CF0A0FE04231CA9ED
S224004DA01DAA18468DF889302CF04EFE674833F0DDFF1DAB81B21CAA64482CF08FFE1CA99A
S224004DC01DAAA7202CF040FE614833F0CFFF1DAB81B21CAA5E482CF081FE1CA91DAAA720F7
S224004DE02CF032FE5B4833F0C1FF1DAB81B21CAA58482CF073FE1CA91DAAA7202CF024FE5D
S224004E00554833F0B3FF1DAB81B21CAA52482CF065FE1CA91DAAA7202CF016FE4F4833F004
S224004E20A5FF1DAB81B21CAA4C482CF057FE1CA91DAAA7202CF008FE44F66823C1F2000313
S224004E40B3F9CC40B3F9CA204549A7230CA800942EF000FB0CA833F089FF44F6682481B2EE
S224004E601CAA1DABC1F200040CA82CF037FEB4F9C030A7223B490CA82EF0ECFA0CA833F06A
S224004E8075FF1CAA81B21DAB0CA82CF027FEB4F9D030A72234490CA82EF0DCFA0CA833F071
S224004EA065FF1CAA1DAB81B20CA82CF017FE13A8032125F0CBFE139BA7222C490CA82EF068
S224004EC0C9FA0CA833F052FF1CAA81B21DAB0CA82CF004FE149BA72224490CA82EF0BAFAE4
S224004EE00CA833F043FF1CAA81B21DAB0CA82CF0F5FD159BA7221D490CA82EF0ABFA0CA807
S224004F0033F034FF1DAB81B21CAA0CA82CF0E6FD1CA91DAA58462CF097FD1C9B38469DF81E
S224004F209B4005932BF0E6FC059BDDF810C08DE8080402905946204662464FF0FF3320F076
S224004F4039F9FDF7B4B900BF788E0010A84A0010684A0010884A0010084B0010C84A0010B9
S224004F60F490030000910300F8900300089103007C9000109DF8892000231D931C93002AE4
S224004F803DF495A901221EA821A92BF007FDFE229DF884308DF8882004228DF889206B2B4B
S224004FA000F25482DFE813F0440235022C02240216020C020402FC0152025202F301EB01D8
S224004FC0E3015202D8015202CE01C2011501B30152029E0195018C0184017F017901740101
S224004FE06A015401520252023C015202330152025202520252022B015202520252025202B3
S22400500052025202520252025202520252025202520252025202520252025202520252024B
S22400502052025202520252025202520252025202520252025202210152025202520252025D
S224005040520252025202520252025202520252025202520252025202520252021D01520241
S22400506052025202520252025202520206010101FC00F400E700DA00CB00B500AD008500C7
S2240050809DF88930002B3DF412A91EA80DF19A0101222BF083FC1FB138462BF02BFC804634
S2240050A09DF89A109DF89B00424626F035FEFDF7FEB844F22004C1F200042488ADF89440CB
S2240050C01DAB02211CAA22A82CF008FD1CA91DAA9DF89A002CF0B8FC9DF884001CA91DAAFF
S2240050E02CF0B2FC9DF88930062B1DD025A802211CAA1DAB2CF0F2FC002F7EF4DCABFEF7D0
S224005100DEBB44F23C03C1F200031B88ADF89430D6E744F6E461C1F200014A780B7843EA58
S2240051200223ADF89430CBE71FA804211CAA1DAB2CF0D4FC002F7EF4BEABFEF7C0BB44F214
S224005140340EC1F2000EBEF900302A685C1C0ED04C33D35C9B00ADF89430B1E744F2340CB8
S224005160C1F2000CBCF800C0ADF894C0A8E70020ADF89400A4E744F23601C1F20001B1F9C0
S22400518000302A68591CE3D10022ADF8942097E744F23600C1F200000088ADF894008FE7D0
S2240051A0B9F800E0ADF894E08AE74FF4D67CADF894C085E744F2BC1344F25D04C1F2000383
S2240051C0C1F200041A78237843EA0223ADF8943076E7002020F050FC40F61C4398427FF66E
S2240051E06FAF0420FCF7D2FB6AE746F6F8100123C1F2000047210370ADF8941060E744F697
S224005200810E0123C1F2000E8EF8003058E744F6084CC1F2000C9CF80030ADF894304FE770
S22400522044F69A1244F6BC13C1F20002C1F2000344F2F0241178C1F200041A88238842EA0C
S224005240813243EA024306228DF889201F9337E7052029F0BBFD2A68052092F8403043F024
S224005260800382F84030ADF8943029F0B9FCFA202721C94A052321F04FF821E74AF2CC0080
S224005280CFF6FF7001212BF089FFADF8940017E726F0EAFDADF8940012E72B6893F83F301D
S2240052A0ADF894300CE720F0A3FBADF8940007E744F63040C1F200000088ADF89400FFE6B5
S2240052C045F2002EC1F2000E9EF80530ADF89430F6E645F2C81CC1F2000C9CF80030ADF850
S2240052E09430EDE645F2C812C1F200021378032B95BF45F2FC1345F2A814C1F20003C1F29D
S224005300000494BF1B882378ADF89430D8E644F20E2EC1F2000EBEF800E044F20E2100207E
S224005320C1F20001ADF894E00880C9E644F2182CC1F2000C9CF80030ADF8943000238CF857
S2240053400030BDE644F2B824C1F20004236806228DF889201F93B3E644F21C22C1F2000257
S2240053601368A3F508139B09ADF89430A8E644F21A01C1F200010988ADF89410A0E644F2C4
S2240053801800C1F200000088ADF8940098E644F2160EC1F2000E9EF80030ADF894308FE63F
S2240053A0FF234FF0000C8DF88430ADF894C087E644F20404C1F200042378ADF894307FE67E
S2240053C044F21422C1F20002136806228DF889201F9375E646F64421C1F200010A6844F2CC
S2240053E04023C0F20F03B2FBF3F3ADF8943067E644F24100C1F200000378ADF894305FE6E5
S22400540044F6E21EC1F2000E9EF80030ADF8943056E644F2CA13C1F200031B8844F2CA1C99
S2240054200024C1F2000CADF89430ACF8004047E644F2DE10C1F20000008844F2DE12002164
S224005440C1F20002ADF89400118039E6FF238DF8843099E600231D931C932BF045FF0446A4
S224005460ADF89640FE241DAB02211CAA8DF8884022A805248DF889402CF030FB1CA91DAA78
S2240054809DF89A002CF0E0FA02211CAA1DAB0DF196002CF023FB2CF009F9ADF896000DF10C
S2240054A0960002211CAA1DAB2CF018FB002F7EF402AAFEF704BA01200DF19A0129F0B0FAF4
S2240054C007281FBF44F26008C1F20008D8F8003043F0020318BFC8F8003001200DF19A01A8
S2240054E029F09EFA0728F8D105200DF19A0129F097FA07281FBF44F2600CC1F2000CDCF854
S224005500003043F0020318BFCCF8003005200DF19A0129F085FA0728F8D1FEF731BD0D20F5
S2240055200E2121F0B3F92BF0BFFF204629F03EFBFEE744F26421C1F200010B7823B9FA2C10
S2240055400CBF052400240C704FF0000E02241DAB21461CAACDF874E0CDF870E022A84FF013
S224005560FE0E8DF888E08DF889402CF0B7FA1CA91DAA9DF89A002CF067FA44F26422C1F26B
S224005580000210781CA91DAA2CF05EFA002F7EF492A9FEF794B900BFF090030044F2642E54
S2240055A0C1F2000E9EF80030043BDBB2012B3CF67EAE49F27D00C0F203000178032029F0E7
S2240055C0CBF90120014629F0FDFAFAF75FFFFCF76EBE9DF88920022A08D000211EA82BF0D8
S2240055E0DDF99DF8893098427DF4D7AA02221EA80DF192012BF0D2F902287DF4CEAABDF88D
S22400560092400FFA84FB584632F036FE32F0F2F9C1A30CCB32F06EFB0022C3F6F072002304
S22400562032F08AF832F01EFDDDF824C0CCF800009DF89A00002C4BD059462CF01FFC002497
S2240056401D941C94FE241DAB02211CAA8DF8884022A803248DF889402CF040FA9DF89A0000
S2240056601CA91DAA2CF0F0F90DF1920019E79DF88920022A7DF491AA44F26424C1F2000479
S2240056802378002B3CF413AE25A91EA82BF086F9052029F09BFBBDF894102C6808B2002283
S2240056A00B46A9F800102018114605E08418013384F84C109BB201321CB240F2AB1C6445D7
S2240056C0F4DD0520ADF8923029F08AFAFCF7EFBD1DA91D942CF042FBB1E79DF88940022C38
S2240056E07DF45BAA25A922461EA82BF057F92146FE244FF0000B1DAB1CAA8DF8884022A850
S2240057000524CDF874B0CDF870B08DF889402CF0E5F91E231CA91DAA18468DF889302CF0C0
S22400572093F9BDF8940045F67801C1F200011CAA01EB80001DAB04212CF0D0F9FFF701B973
S224005740A4F11C0EDEF1000040EB0E00FCF7B0F8032029F03BFB13AA4FF480710B23D6205B
S22400576030F02CF9032029F03BFA4FF0FE0E00241DAB1CAA02218DF888E022A84FF00D0E3D
S2240057808DF889E01D941C942CF0A8F99DF89A301CA91DAA18468DF889302CF055F91DAB3F
S2240057A01CAA0B2113A82CF099F92B681CA993F840301DAA18468DF889302CF045F91C9BC2
S2240057C038469DF89BB005932BF094F8059B02908DE808045846214601224FF0FF331FF0CC
S2240057E0E9FCFCF764BD4FF0FE0E00241DAB1CAA02218DF888E022A84FF0110E8DF889E088
S2240058001D941C942CF06AF916231CA91DAA18468DF889302CF018F91CAA1DAB08214048D6
S2240058202CF05CF91CAA1DAB08213E482CF056F9C5E74FF0FE0E00241DAB1CAA02218DF8F9
S22400584088E022A84FF0190E8DF889E01D941C942CF044F915231CA91DAA18468DF88930A3
S2240058602CF0F2F844F208001CAA1DAB0421C4F204002CF033F944F20C001CAA1DAB042135
S224005880C4F204002CF02AF944F21C001CAA1DAB0421C4F204002CF021F948F208001CAA0D
S2240058A01DAB0421C4F204002CF018F948F20C001CAA1DAB0421C4F204002CF00FF948F2FE
S2240058C01C001CAA1DAB0421C4F204002CF006F975E744F2C214C1F200042388002B3CF4FA
S2240058E0E6AC44F21C2CC1F2000CDCF8003044F24A2EA3F50813C3F38F13C1F2000E19B28B
S224005900AEF8003006202CF0B9FAFCF7D0BC3946FAF7FEFFFCF7CBBC006AF84000000000AF
S224005920FC4D0010284D00104FF0FE0E00241DAB1CAA02218DF888E022A84FF0030E8DF8D8
S22400594089E01D941C942CF0C9F80E231CA91DAA18468DF889302CF077F81CAA1DAB022106
S224005960AA482CF0BBF82AE79DF88930072B7CF69EACA74904221EA82BF010F81EA8A54961
S22400598004222BF00BF800231D931C933FB138462AF0B0FF44F2F013C1F20003186044F268
S2240059A00424C1F200042368994C5A1C69D0B3F1005F28D8B3F5001F17D344F2E010C1F257
S2240059C0000002680A2A08D10A21CFF6F071A3F58010591820602BF0A9FA44F2E0110023D9
S2240059E0C1F200010B60FCF762BC23F00F039DF89B20236044F20C23C1F200031A70FBF7E3
S224005A00D1FEFCF754BC4FF0FE0E1DAB1CAA02218DF888E022A84FF0F50E8DF889E02CF0B0
S224005A205DF80D231CA91DAA18468DF889302CF00BF81CAA1DAB042120462CF04FF81CAA53
S224005A401DABF02120682CF049F844F2F01C1C9AC1F2000C44F2E01EDCF800300021C1F2C0
S224005A60000ECEF8001000924FF08072019202939DF89B0001224FF0FF331FF09BFBFCF7F6
S224005A8016BC002323600520059329F09FF9059B4FF0FE0B4FF0DB0CADF8943002211DABB9
S224005AA01CAA22A88DF889C0CDF810C0584C8DF888B02CF013F80D231CA91DAA18468DF8C7
S224005AC089302BF0C1FF204644F204240421C1F200041CAA1DAB2CF001F823682A684C334E
S224005AE0D018D6211CAA1DAB2BF0F8FFBDF8943022680133D6329BB22260012BADF894307F
S224005B00DDF810C0CAD9052029F06AF844F2F011DDF870E0C1F20001D1F800C002224FF09C
S224005B20FF33CDF800E09DF89B004FF0807E0021CDF804E0CDF808C01FF03CFB00232360D9
S224005B4044F2E01244F2F014C1F20002C1F2000413602360FCF7ABBB9DF8893053B11EA80B
S224005B600DF19A0101222AF019FF9DF89A00002840F0A98045F64200C1F2000090F800E0EA
S224005B8000240EF1020E1DAB02211CAA1D941C9422A8FE248DF889E08DF888402BF09EFFDC
S224005BA00C231CA91DAA18468DF889302BF04CFF45F64201C1F200010B781DAA1CA9184684
S224005BC08DF889302BF040FF45F64202C1F20002118829B189B210481CAA1DAB2BF07EFFC8
S224005BE03846DDF870B09DF89B402AF083FE00210290012220464FF0FF33CDF800B0CDF83B
S224005C0004A01FF0D7FAFCF752BB00BFFC69001004420010E04100107C5000104FF0FE0E19
S224005C2000241DAB1CAA02218DF888E022A84FF0060E8DF889E01D941C942BF04FFF0B239A
S224005C401DAA1CA918468DF889302BF0FDFE214601200FF0ABFB1DAA03461CA98DF88930C1
S224005C602BF0F2FE012108460FF0A0FB1DAA03461CA98DF889302BF0E7FE022101200FF0B4
S224005C8095FB1DAA03461CA98DF889302BF0DCFE032101200FF08AFB1DAA03461CA98DF844
S224005CA089302BF0D1FE042101200FF07FFB1CA903461DAA8DF889302BF0C6FE7FE524F013
S224005CC0ABFFFCF7F4BA18F0C1F9FCF7F0BA2AF065FE04283CF4EBAAFCF75FBFFA2021213A
S224005CE0834A20F019FBFCF7CDBE44F26C2144F2702244F2FC13C1F20001C1F20002C1F244
S224005D00000344F26C28086814701C70C1F200082AF0C0FDC8F80040FCF7DFBD64201EF07E
S224005D2029FE00283DF4E1AE062051461EF05EFFFDF7DBBE4FF0FE0E4FF0000B1DAB02211A
S224005D401CAA8DF888E022A84FF0070E8DF889E0CDF874B0CDF870B02BF0C0FE1CA91DAA4C
S224005D6058468DF89AB02BF06FFE44F20022C1F2000210781CA91DAA2BF066FE02211CAAA0
S224005D801DAB5C482BF0AAFE44F2E413C1F2000318781CA91DAA2BF057FE8DF89AB046F259
S224005DA0985CC1F2000C1CF804001CA91DAA2BF04BFE9DF89A400134E4B2012C8DF89A405D
S224005DC0EDD9002F7DF477ADFDF779BD00216FF003001FF011F800216A201FF00DF800218F
S224005DE06E201FF009F800216FF005001EF0FEFE00216B201FF000F8692001211EF0FCFF0A
S224005E00FEF76DB844F2C210C1F200000388002B3DF4BEAFFA200321354AC82320F07CFA26
S224005E20FDF7B6BF00204FF0553164222DF052FEFDF776BF0420022120F028FDFDF769BF5B
S224005E4045200DF18A012CF05DF818B14FF0000CADF88AC0BDF88A204FF48041120A44F226
S224005E60FE1EADF88A20C4F20201C1F2000EBEF80030896CD8B219401140054029421FBF9B
S224005E8044F26000C1F20000016841F0040118BF01604FF48041C4F20201896C21F07F415A
S224005EA00A4323EA02032B421FBF44F26001C1F200010B6843F0040318BF0B60FEF743B809
S224005EC06FF007001EF056FD00283EF424A844F26002C1F20002136843F004031360FEF766
S224005EE01AB80023FEF7DABE0024FEF705BF00BFF0900300764B00102DE9F0479146567839
S224005F000F461FFA80FA127804E00136F6B2092E88BF0026964246D006EB460307EB830303
S224005F209B885345F1D199F80230013B89F80230002E33D0751EDFF87480EDB2344698F8F5
S224005F40013004EB4400A34214D005EB450107EB810107EB80000C2232F0BCFE631EBCB1FB
S224005F60DCB26B1EC5B1DDB298F8013004EB4400A342EAD199F8013099F800200133DBB238
S224005F80092B89F80130C0D9002389F80130BCE709246B1E002DE6D10925D0E709253446DE
S224005FA0DFF80880CBE7BDE8F08700BF3402001030B50D46013D441CADB20146651901E0CF
S224005FC0214601340820032228F0BEFF08B9AC42F6D130BD114B70B4002201211048114C22
S224005FE019704FF07E5600251346990719B214BF855086500432022902DC002124F81310FA
S2240060000133242AF1D14FF07E524262064A00231370064A137070BC704700BFF2420010D5
S224006020200000203044001074420010BA4900102DE9F0411C461B78154603EB430387B2BA
S2240060404FEA83088EB22DF07BFD45F808002378174A03EB430305EB83039F802378B7F551
S2240060607A7F03EB430305EB8303DE80237838BF127903EB430328BF527905EB83031A7215
S224006080237803EB430305EB83051EB1094B1B6893F82F606E7223780133DBB2092B2370F1
S2240060A001D900232370A3780133A370BDE8F081340200109049001070B504460EB220F065
S2240060C053F8002832D1244D2868A0F51013B3F5801F33D22EB1B6B2330A84F8326084F832
S2240060E03330802221462AF0E3FE237A627A43EA0223580405D54BF6FF721A40130A227276
S224006100637228684FF6FE738030C0F23303984288BF114B286084BF4FF4101018600F4B4A
S2240061201A6882420FD0C305DB0D03B170BD00F5FE710331BDE870402AF0F8BE0520BDE81D
S22400614070402BF0E7BA0022E32011461A602BF073FE2868E7E700BFB84200107C48001051
S22400616030B5C0B281B0032839D8DFE800F0332E29021C480E21FFF71BFF1B4A1B4B158808
S2240061801C8825F020051580194A0134FF250020462115701C8028F035FC07200DF10301B1
S2240061A028F03EFC0728F8D12DF0CAFC114B00221B68C018104B1860104B1A6001B030BD8E
S2240061C00F480E21FFF7F4FED7E70E480E21FFF7EFFED2E70C480E21FFF7EAFECDE703282D
S2240061E0ECD8CAE748910300BA41001038420010E4410010EC420010684800102844001005
S22400620038910300289103001891030030B444F27C2244F25403C1F20002C1F200031B6812
S224006220D46844F6A0115C6354889568C1F200014FF0FF301C871488D08208681D63596935
S2240062405C870068128A013198615961A3F8422030BC70472DE9F0415E4D98B02B6880B2CE
S22400626093F82F20002A00F09B80002116911591002800F0A78000F5AE501B783F30000266
S224006280FE2B00F0A580383003AC21462AF0F0FD2B6818AA93F82F300025D31820464E49EA
S2240062A00D2203F8535C32F069FD60B120464B490E2232F063FD002872D103250F264FF0B4
S2240062C00B082F4603E002250E26A846042716AB02214FF0FC0E15AA17A88DF85CE08DF8E9
S2240062E05D702BF0FBFB16AA284615A92BF0ACFB18AA931913F8543CA019202B05D10246E2
S22400630012F8013F0130202BFAD0303BDBB2092B54D814A900222DF025FA15A9C0B216AA85
S2240063202BF092FB14980378002B47D0202B08BF034638D0002214A92DF014FA16AAC0B2A8
S22400634015A92BF081FB14980378D3F1010238BF0022032F94BF002702F00107002F2DD109
S224006360202B08BF034604D113F8012F0130202AFAD014A900222DF0F5F915A916AAC0B28E
S2240063802BF062FB159B002100934FF08073019348F0500001224FF0FF3302911EF00AFF90
S2240063A018B0BDE8F08113F8012F0130202AC1D113F8012F0130202AF5D0BBE715982AF0CE
S2240063C069FAEDE703AC214605482AF0E7FA5FE7303059E79049001058910300689103006C
S2240063E0484400102DE9F04F074689B005205FFA82F90D4628F0EAFC714B05201B681C6BEC
S224006400D3F834B09B69009328F0EAFBB9F1020F00F09B80204631F0DBFA00220023C3F614
S224006420106231F03DFB67A30CCB31F039FB0022002304460E4631F049FD0028B8BF04F178
S224006440004431462046B4BF4FF02D0A4FF0200A31F0C0FD804631F0BBFA02460B4620464B
S224006460314631F067F959A30CCB31F019FB31F0B1FD42460346574901A82CF0EBFF504692
S22400648039462A462BF0E0FA01A832F06FFC3A4681B22B4601A82BF021FB584631F098FA88
S2240064A000220023C3F6106231F0FAFA45A30CCB31F0F6FAB9F1030F14BF20235F230446E4
S2240064C00E462A46394618462BF0BEFA002200232046314631F0FAFC0028B8BF04F1004432
S2240064E031462046B4BF4FF02D0A4FF0200A31F071FD804631F06CFA02460B462046314616
S22400650031F018F931A30CCB31F0CAFA31F062FD30490346424601A82CF09CFF39462A469B
S22400652050462BF091FA01A832F020FC3A4681B22B4601A82BF0D2FAB9F1030F14BF2020B0
S2240065405F2039462A462BF07FFA2C680098002C2FD02AF055FFC0F30721C0F30742030E87
S22400656020706170A270E3702B6818785C789978DA7840EA042343EA014343EA02632B6017
S22400658013B1B9F1030F05D0B9F1000F06D109B0BDE8F08F1A799B185F229A720E4B1B8865
S2240065A05B05F4D403213A462B460C482BF096FAEDE72AF025FF286038602B68E0E700BF4F
S2240065C0544000100080564000000000006AF84000000000DC9203003A440010E4920300E2
S2240065E02DE9F041054688B00520D4B20E4628F0EDFB274BB3F9040031F0EAF925A30CCB08
S22400660031F04EFA31F0E6FC244B80460520DF8828F0E6FAB8F1030F27DD214B2149424633
S224006620022C08BF194668462CF014FF684632F09DFB2A4681B2334668462BF04FFA8CB151
S224006640174B1949022C08BF19463A4668462CF001FF684632F08AFB2A4681B233466846B4
S2240066602BF03CFA08B0BDE8F0813020294632462BF0EAF9022CE2D12946324630202BF08E
S224006680E3F92946302032462BF0DEF90449DCE77C420010976EB23F3BDF4F8D34020010E0
S2240066A0E8920300F0920300F4920300F0B5D6B2032E88B005460C462DD0052028F086FB5C
S2240066C0022E44D04D4F4E493A8868462CF0C2FE684632F04BFB234681B22A4668462BF007
S2240066E0FDF92946224620202BF0AEF97A88444968462CF0AFFE684632F038FB2A4681B21A
S224006700234668462BF0EAF9012E59D0052028F067FA08B0F0BD0E68002E4BD000202AF00B
S2240067206FFEC0F30721C0F30742030E30707170B270F370236818785D789978DA7840EA7C
S224006740052343EA014343EA02632360E1E731462C482A4623462BF0C1F9284E00273388CD
S224006760294643FA07F313F0010F0CBF30203120224601372BF068F9082FF0D12946224604
S22400678020202BF061F9204802212A4623462BF0A5F900277388294643FA07F313F0010F47
S2240067A00CBF30203120224601372BF04DF9082FF0D1ABE730462AF023FE20602860A8E795
