S01A000042696E732F4D333033367630332E434255472E737265630E
S224000000DCFF001001010000E9000000ED000000F1000000F5000000F90000000000000039
S22400002000000000000000000000000061040000FD00000000000000310400007915040092
S22400004099010000A13C0400990100001534040099010000011A0400FD1A0400FD1B040049
S224000060011D04009901000071340400AD35040099010000990100009901000099010000C8
S2240000809901000065150400990100009901000099010000990100009901000099010000A7
S2240000A099010000852B040099010000990100009901000099010000990100009901000051
S2240000C0990100009901000099010000051E04009901000099010000953E04009901000081
S2240000E099010000D50A0000FEE700BF00BE7047FEE700BFFEE700BFFEE700BFFEE700BFD9
S2240001001B4B1C4900B58B4206D21B4A52F8040B43F8040B8B42F9D3204821494FF0000201
S2240001208842B8BF40F8042BFFF6FAAF1D4880F30988124B124A186812499342086005D263
S2240001401149096843F8041B9342FBD30F4B0BB100E000BF0E4B13B100E000BFFEE70D4B24
S22400016013B100E000BFF9E700F0CAF9F6E700BF00000010D001001041030500E48E00102C
S224000180DCFF00100C5A001000000010000000000000000000000000FEE70000D001001023
S2240001A0306B0010E49000100000000000000000000000000000000000000000000000000B
S2240001C000000000000000000000000000000000000000000000000000000000000000001A
S2240001E00000000000000000000000000000000000000000000000000000000000000000FA
S2240002000000000000000000000000000000000000000000000000000000000000000000D9
S2240002200000000000000000000000000000000000000000000000000000000000000000B9
S224000240000000000000000000000000000000000000000000000000000000000000000099
S224000260000000000000000000000000000000000000000000000000000000000000000079
S224000280000000000000000000000000000000000000000000000000000000000000000059
S2240002A0000000000000000000000000000000000000000000000000000000000000000039
S2240002C0000000000000000000000000000000000000000000000000000000000000000019
S2240002E000000000000000000000000000000000000000000000000000000000F1F1F1F135
S22400030000B58AB00AA8362340F8283D41F6F1736846C1F6FF7305A9984706980AB000BD2D
S22400032010B44FF44043C4F20F034FF40242C3F8C420D3F8A02142F02002C3F8A021D3F819
S224000340A0114FF440424906C4F20F02F7D54FF4D853C0F2B70301219842C2F80C1198BF3C
S224000360C2F8041140D94FF45854C0F26E14A04237D046F23A0414604FF460630924C2F8AD
S2240003808440C0F22773C2F88010AA21C2F88C10B3FBF0F05521C2F88C1000282FD0A0427A
S2240003A033D14EF2C0123A244FF48470C0F2E4021E494FF44043C4F20F030A60C3F80401D6
S2240003C019461C60D1F888204FF440435205C4F20F03F7D50422C3F8A8210122C3F8002172
S2240003E00BE00220C2F804013A2010600F4803600423C2F8A831C2F8001110BC704745F269
S2240004003A0440F201101A46D2E793FBF0F24CF66B23511EC6F65F33A3FB0143DC0D24034E
S22400042040F4807044F03A04C2E700BF306B001072B6EFF3088020E9F00F2C4981F30888FB
S2240004404FF000014DF804ED62B63AF051FB72B65DF804EBB0E8F00F80F3088862B67047BE
S22400046072B6EFF3088020E9F00F204981F308884DF804ED62B63AF06FFB72B65DF804EB22
S224000480B0E8F00F80F3088862B6704700B53BF069FB72B6164880F30888A0F5806015494E
S2240004A0154AA2EB0101A0EB01001249134AA2EB010300EB0302014640F0010000F002F822
S2240004C0FEE700BF074C084D00B5AC42034605D254F8040BAC4241F8040BF9D31046984776
S2240004E0FEE700BFA46E0400AC700400E4900010DCFF0010A46E0400AC700400AC70040058
S224000500744B754A754D80B501271A602F7041F035F9734A00261680724A734C1670734A8A
S2240005204FF460601680724AC0F227701770714A27701770704A1670704A1670704A1670F8
S224000540FFF7EEFE304641F029F939F005FB4FF48043C4F202035A6CD70700F1AA809A6C3C
S224000560160500F1A6809A6C002A00F0A2805A6C12F47F0F40F0CA809A6C42F400629A6492
S2240005804FF48043C4F20203996C48F2FF4241F000419964C0F21E024FF080435A600322F3
S2240005A01A70AA221A7255221A7243F0D9FD43F099FB43F0CFF842F0A1FE2378002B40F0C0
S2240005C0828005203DF0FCF902204FF41651002241F09CFC01204FF4E121002241F096FCCB
S2240005E0002002464FF4165141F090FC042042F6A001002241F08AFC3BF0B0FA414E06F1F6
S2240006000708771C16F8019F4846B9F1000F08D039F040FB07EB09131B7D0A2B4ED046457E
S224000620F0D10321012039F0EFFB374B01221A701A78002129705AB14FF44042C4F20F028A
S2240006404FF47061C2F8C01030BF18780028F9D10025257042F02EFE42F0BEFE43F0EEF867
S22400066042F03CF9012043F0A9FD41F075F94FF44043C4F20F03D3F8C4204FF48043C4F27C
S22400068002031A654FF080431C7848F2800204F001041C70AA21C4F202024FF0FF3055248E
S2240006A019721C72D060D06219721D723BF05AFAFEE74FF48043C4F202035DE74846022186
S2240006C039F0A2FAABE7002042F080FA012042F07DFA76E72C400010346B0010B54100109A
S2240006E032400010BC410010B041001060410010B441001030400010B841001018400010BE
S22400070035400010AB7004003440001043F028FD43F0E8FA43F01EF842F0F0FD05203DF085
S2240007204FF93BF01BFA64244FF47A7041F0A2F8013CF9D142F050FE43F080F843F002FB4A
S22400074042F0CCF8012043F039FD4FF48043C4F202035B6C5D0504D501200146224643F04E
S224000760CBFD41F0F9F802202EF07CFC4FF48042C4F2020200214FF400604FF44043D16454
S224000780C4F20F0310650120C3F804013A201860D3F8A800C0050BD5C3F8A010AA21C3F85B
S2240007A0AC105521C3F8AC10D36C43F00203D3644FF44042C4F20F02D2F8A8104FF4404309
S2240007C011F48071C4F20F03F6D1D3F88820D2050FD5C3F88010AA21C3F88C104FF48042EF
S2240007E05521C4F20202C3F88C10D36C43F00103D3644FF44042C4F20F02D2F888404FF45F
S224000800404314F48074C4F20F03F6D14CF2B016C4F20F0648F26005C3F80C41C2F209058D
S224000820C3F8A04148F2800134604FF00076EE61C4F202014FF0FF304FF40245C3F8C45044
S2240008404FF46D42C862C8601D21C3F8C010CEF20002136943F00403136130BF3BF082F905
S2240008604FF48042C4F20202516C4FF0804341F001015164FF21596003211970AA22552145
S2240008801A7219721A721C723BF06CF9FEE700BF00B581B001A941F8040D0220694639F01A
S2240008A0A1FB009801B000BD00B581B001200DF1030139F07BFB9DF8030001B000BD00BF24
S2240008C02DE9F041114D04B24FF080464FF0AA0855270020642139F0ABF90A2C04BF86F85D
S2240008E008803772F5D0002CF3DB35F8143000200133642125F8143039F09AF90A2C04BFA3
S22400090086F808803772EED1E3E700BF344200102DE9F04F374C88B02378C0B20491039010
S22400092033B10020012139F083F92378002BF8D1DFF8D08000231D462F4E06930593474670
S2240009401C464FF0FE094FF00E0A02E00134402C4DD006AB022105AA07A88DF81C908DF80B
S2240009601DA03CF073FB112305A906AA11208DF81D303CF021FB05A906AA20463CF01CFB37
S224000980042105AA06AB06EB84003CF05FFB082105AA06AB08EBC4003CF058FBB7E800185C
S2240009A0AB592246802015498DE800183BF0EEFCAB59E2B20435002BC8D1551CEDB2621C03
S2240009C00F4980203BF0E2FC0498059C3BF00CF94FF0807301930290002103982A464FF0E1
S2240009E0FF3300942CF04CFE08B0BDE8F08F41252A46E5E7E46A0010C4690010F471040044
S224000A00107204003C6200102DE9F04F5F4D8DB02B78FF2B00F08C81002008A909AA2DF0F4
S224000A2047FA2B7806468046594F002B40F083813B78022B7FD00AA9E5203CF023FD0BA9CD
S224000A400446E6203CF01EFD012802D0012C40F09D81DFF850A141F6FF73BAF800209A4265
S224000A60089A099B00F0C7814A48018804900C0700F1AA81484CB8F1000F00F07D81BAF829
S224000A80001084E80C00DFF81481002940F048824FF6FF7701264FF4C015404CC0F21807E3
S224000AA032E094F8049021684FEA0969207BDDF820C049EA1129A1680006CCEB090CBCF186
S224000AC0000FB8BFCCF1000C40EA11201135844517D294F8089061684FEA0969207CDDF866
S224000AE024C049EA1129E1680006CCEB090CBCF1000FB8BFCCF1000C40EA11208445C0F0B5
S224000B005B82BD4296B20BD01122244928463BF0F3F998F80030721C991DC9B20429C0D967
S224000B2004990B881B0700F16C810023AAF800300DB0BDE8F08F002E00F01281089E099BAF
S224000B40154C144802880490950700F1C681DFF858A0134D266063604FF4C010514611228C
S224000B602C4656463BF0C8F90FCE0FC4DFF82C8033684FF6FF720021C0F2180223700391DE
S224000B808B464FF4C019444607928CE03C420010A0490010AE410010D801001020420010F3
S224000BA0C8410010444200104C4200109AF80460DAF80030360646EA13260021320E9AF853
S224000BC0083022712170DAF80420CFB2049920791B0643EA12230A8840EA0320190E47EA4D
S224000BE00627606090072760217200F1278108982F792B683F06B04247EA13277EDDB842E7
S224000C003EDC801B44F036FF0590069198F808C0287AD8F804306A6800064FEA0C6C4CEAC8
S224000C20132C40EA1220CCEB0000CDF808C044F021FF05AB0CCB44F085FF05900691B81B3E
S224000C4044F018FF0B46024605A903C945F0A4F845F012FA04990B900B88DDF808C013F0B4
S224000C60020F40F01D81099B84449C4508DA049A13889A0700F122810398431C9BB2039316
S224000C8098F8003003990633DBB201F00101042B03913FD8954F964E0FCE0FC7079A3368A9
S224000CA091453B7036D009F111091122484690493BF022F998F800300BF1010B0633DBB226
S224000CC0042B94BF00230123BBF1310F88BF43F00103002B7FF46AAF049A1388990700F15B
S224000CE0C28026792368360608982F7946EA13262B683F06B04247EA132780DCB84280DCAF
S224000D0098F8003003990633DBB201F00101042B0391BFD9049803889B0700F1D8800399B0
S224000D20744B002900F0D08041F6FF721A80FFE601232B70FCE66F4B01201A886E493B78D7
S224000D403BF024FB089A099B6C4C0133013284E80C003B780021022B29707FF46CAEEAE670
S224000D60664C089E23689E42099B7FF4EAAE626893427FF4E6AEDBE6216891427FF47FAE99
S224000D805E49496899427FF47AAED1E60CA9E7203CF078FB0C9911B942F210710C91089A0B
S224000DA00A9B9B1A002BB8BF5B428B42099B36DA0B98C01A0028B8BF404288422FDA4D4B0B
S224000DC041F6FF711980B3E608204D493BF0DEFA04990B88180740F10681484C082094E835
S224000DE00C0047493BF0D2FA089A099BB8F1000F7FF445AEC0E70021AAF800104FF0010835
S224000E0032E64FF2F103A5F5C015CFF2F003A3FB052308201A093B493BF0B8FA85E6DFF8A9
S224000E20D4A041F6FF71BAF8000088427FF41CAE0020AAF800004FF0010815E695F804E063
S224000E402F7A2A6869683F064FEA0E6E4EEA122E47EA1127324601202B49CDF800E001975C
S224000E603BF094FA3DE72279237A2F792E7A21686068D5F800E0D5F804C012061B063F06FB
S224000E80360642EA112243EA102347EA1E2746EA1C2601201D49009701963BF077FA20E712
S224000EA002461B4901203BF071FA94F808C063684FEA0C6C0B984CEA132CD4E601201549A9
S224000EC0039A3BF063FAD7E60398188030E601201149039A3BF05AFA21E7324601200F4952
S224000EE03BF054FA089E099B31E600BFC8410010204200104442001024720400D8010010B0
S224000F00C8720400F47204005C7204007C7204009C720400AC720400BC7204004072040044
S224000F20C904C90C0139DFF8D88001EB011101F5C010112241463AF0DFFF98F80030063322
S224000F40DBB2042B3FF6A4AD98F80420D8F80000120642EA102098F80C30089AD8F80810FC
S224000F601B06821A002AB8BF524243EA11239A42BFF48EAD98F80820D8F80400120642EA7F
S224000F80102098F81030099AD8F80C101B06821A002AB8BF524243EA11239A42BFF478ADB6
S224000FA0049A138819077FF5C3AD114B08201A8810493BF0EBF9BBE5FE2B18BFC3F1FE030C
S224000FC0AAF8006004981EBF46EA4336084B1E8003881A077FF5ACADBAF800200820064935
S224000FE03BF0D4F9A4E5089A099B044C43E500BF44420010D4720400E4720400D8010010CB
S2240010002042001044F22C03C1F200031B6800229A80DA809A60DA601A615A61704700BF45
S224001020F0B5C5B2002383B0022D0193009300F0C48002238DF808301E238DF809300221AB
S2240010406A4601AB02A83CF001F840F0CBFC5E4B5E4C1B78A060013BDBB2022B88BF5C4B9F
S2240010604FF0040E89BF1B686FF0090318785E7881BF9978DA7840EA062343EA0143534E76
S22400108088BF43EA026384F810E005F001074FF0020E6A46E3600B2101AB84F811E006F18B
S2240010A00800A7743BF0D2FF052038F0B7FF494B1B68DA88002A4CD09988B1FBF2F23275F2
S2240010C0986848F68902C8F68802A2FB00106169400960F317216161D868E169A2FB006264
S2240010E0C2F34F12100A2076E2751869A26901F07F4160F31722A261187D0022E0765E692E
S224001100022D41EA1621E161304884F82020E27724D0314B90F82010D3F8C44093F8C72001
S224001120B3F8C03041EA042180F825302423016280F8242080F82630132114306A4601ABEA
S2240011403BF084FF3FB9052038F06CFE009803B0F0BD3275B4E7FFF755FFF4E793F83F40C4
S2240011601D4A002380F82030D2F8C470DEB2B2F8C03092F8C71080F8253046EA0722242322
S224001180C477026280F824106A46132180F8263001AB14303BF05AFF052038F043FE042126
S2240011A00DEB01036A460D483BF050FF29466A4601AB0B483BF04AFFC8E704238DF808308A
S2240011C024238DF809303AE760420010D8010010E44100102C400010644A0010C4580010AE
S2240011E018590010F0B504B287B034B18C4B1C8814F4806400F0208100248A4D2B88DA076B
S22400120000F1008100200A2138F012FD002C00F0C1800120024684493BF0B8F803A83BF091
S224001220BBFB0A210446002038F002FD2B88DB0700F1BA80002C40F0BF8003200C212CF070
S22400124085F90590002800F0A2802B88DE0700F1DF800023037043708370C3700623037148
S224001260059F022343710323BB71234624B1BDF90C30002B18BF02230026FB7166203146B4
S224001280009701224FF0FF334FF08077019702962CF0F6F961200DF11A013CF009F90028BD
S2240012A040F0A180BDF81A30D80440F19E8003200D212CF04BF90590002868D02B88D90775
S2240012C000F14E810023037043708370C37006220271059B0222427103229A71224624B15B
S2240012E0BDF90E20002A18BF0322DA7100934FF0807300210193BB2001224FF0FF33029118
S2240013002CF0BEF94C200DF10E013CF0D1F810B10023ADF80E30642003A93CF0C9F810B1E2
S2240013200023ADF80C30BDF80E309A0705D5BDF80C3013F4805300F0FF8003200D212CF08F
S22400134005F9059018B32B88DB0700F1EE800023037043708370C37006220271059B022268
S224001360427103229A71224624B1BDF91020002A18BF0322DA7100934FF080730021019377
S224001380222001224FF0FF3302912CF079F9204607B0F0BD3AF038FE00200A2138F048FC70
S2240013A02B88DB077FF546AF0120204922463AF0EDFF002C3FF441AF03A83BF047FDBDF804
S2240013C00C10002940F0D880BDF80E10002940F0CE80BDF8101000293FF42FAF09B22020B7
S2240013E03CF022F829E7ADF81A6007AE002346F8083D314616203BF069FF172031463BF0FF
S22400140065FF7FE701200A4922463AF0BFFFF9E60246084901203AF0B9FF059819E700BF62
S2240014200C420010AE410010147304003073040004730400407304000B2003A93CF038F8B3
S22400144008B1ADF80C400C200DF11A013CF030F8BDF81A3018B10023ADF81A300023BDF991
S2240014600C201BB201249A42A4BF4FF0FF33ADF80C300DF10E01A8BF002417203CF018F8AD
S22400148010B10023ADF80E3016200DF11A013CF00FF8BDF81A3018B10023ADF81A30002301
S2240014A0BDF90E201BB29A42A4BF4FF0FF33ADF80E3004A9B8BF012464203BF0F9FF0546A8
S2240014C0E8B9BDF81030D90419D5212004A93BF0EFFF08B1ADF8105020200DF11A013BF05D
S2240014E0E7FFBDF81A3018B10023ADF81A300023BDF910201BB29A4201DA012403E04FF053
S224001500FF33ADF8103002214FF0FF3018F0D2FA032103464FF0FF30002B18BF002418F041
S224001520C9FA002818BF002467E60246154901203AF02CFF05980AE707AD45F8083D294624
S2240015401F203BF0C3FE294620203BF0BFFE294621203BF0BBFE222029463BF0B7FE16E7A2
S2240015600246094901203AF011FF0598AAE609B216203BF059FF2CE709B20C203BF054FF58
S22400158022E700BF50730400487304002DE9F0410C2584B00124284603A93BF089FF013524
S2240015A0002808BF00240F2DF5D11F25284603A93BF07EFF0135002808BF0024232DF5D1AC
S2240015C003A916203BF074FF03A903461720002B08BF00243BF06CFF03A903460A20002B64
S2240015E008BF00243BF064FF002840F08480BDF80C30D3F1010338BF00231C4040F08280B0
S22400160040F0F0F946F23F73C4F6A333984207466DD9884D2B88002B40F0DC804BF2C53351
S224001620C9F2A213A3FB07234AF6AB22DB0ACAF6AA22A2FB036844F20756CCF22E26A6FBA1
S22400164007164FEA181843200DF10E0108EB4808A3EBC8083BF02CFF2B88360CD9071FFAAA
S22400166088F8B4B200F1AF80BDF80E30DAB2172A05DD03F47F4303339BB2ADF80E30B3F5F6
S224001680006F02D90322ADF80E20BDF80C30A34277D0002035F05CFDBDF80E2012F47F4F91
S2240016A035D12B88DB0700F1A380BDF80C309C4265D001339C4200F0AF802B880022D8078D
S2240016C0029200F19080032035F042FD0120FFF789FD002872D021B20A203BF0A5FE0020F7
S2240016E035F036FD012054493AF050FE012420B204B0BDE8F081012300211C40ADF80C1034
S2240017003FF47EAF002035F023FD0024EFE7BDF80C309C4233D0120AD71CFFB2062F01D964
S224001720043AD7B22A88D2076DD4DA1F9442C4DBDA1D9442C1DC44F62512C2F29242A2FBA3
S2240017400612B11A02EB51029208C2EBC202B21AD2B2BA4267D042F29341E21BDB1BC9F21D
S224001760492181FB026081FB03618018C918D217DB17C2EBA002C3EBA1039A429DD10024D9
S224001780B5E744F20753CCF22E23A3FB07134FF4A3429DF80E101B0CC0F201024FF4616096
S2240017A000FB01F102FB13739942BFF472AF01F516718B422CBF002001206BE70A2002A968
S2240017C03BF084FD8BE7BDF80E2001201B493AF0DDFD49E71A4B01201A781A4902F040029B
S2240017E03AF0D4FD1AE7012017493AF0CFFD6AE70192BDF80C30012014492246CDF8008071
S2240018003AF0C4FD51E701201149224600973AF0BDFDBDF80C3088E7BDF80E3043457FF6F2
S2240018204CAF002463E79DF80E309845BFF645AF00245CE7AE410010C8730400687304005D
S2240018401800001058730400CC730400A47304008073040040F2D813C1F20003188D00308F
S22400186018BF0120704700BF10B504B2022C33D04FF48043C4F202035B6C580523D4022C3F
S2240018801DD002203AF0D8FC04243AF009FE204638F0AEFA01340020142138F0C9F9082CFF
S2240018A0F3D1032000212BF023FB0020022138F0BFF93AF0F5FD002038F09AFAFEE70A20B8
S2240018C03AF0BAFCE0E7112001212BF011FB112000212BF00DFBD2E700216FF003002BF016
S2240018E081FC00216A202BF07DFC00216E202BF079FC00216FF005002BF0FAFA00216B20A8
S2240019002BF070FC692001212BF06CFCB0E700BF2DE9F04F8D4F4FF6FF7A3B8894B01AB2F5
S224001920002ABFBF03F500639BB21AB23B80B2F5006FC1BFA3F500639BB21AB23B80013A2B
S224001940D117490D52185205520D541A0023C0F2230A04F50844DFF810B2DFF81092CDF898
S22400196000A0A4011293119398469A460099D9F800308C4288BF4FF408140225FD2208F1C9
S22400198001089C428DF84C208DF84D505FFA88F800F0AA80204601A940223AF0ADFA9DF87D
S2240019A01C60294611AA12AB1B3613A88DF84D603BF04CFB294611AA12AB64483BF046FB10
S2240019C09DF84D1001A8023989B211AA12AB3BF03DFBBBF80000054660B39DF81C3003F130
S2240019E019013F2914DC14AD6A1812F84C2CFF2A40F0938001AA1A33511804E04A78013106
S224001A00FF2A40F08A801AB201333F2A9BB2F5DD0025BAF1000F14BF002000F0010038B12A
S224001A20B7F900209DF84D30012049493AF0AEFC002D6FD13B88403401339BB21AB2B2F5A0
S224001A40006FC8BF414A3B80C4BFA3F5006313800AF1010AB8F10F0F1FFA8AFA86D14646E7
S224001A603C4B3D4A1B78106803EB43033B4A9B001370044610B13AF0B7F8044603200E21F1
S224001A802BF064FD129000285DD0119BDFF8E080C3F30741C3F307271A0E8170C27003704B
S224001AA0477098F80030129F0622027103F00F0305224271BB710023FB71384611973AF074
S224001AC0D3F880B2030A38727B7298F80000119900F00F0041F08071BE7222462BF044FD11
S224001AE028B214B0BDE8F08F294611AA12AB13A83BF0ACFA294611AA12AB14483BF0A6FA9E
S224001B0044F248253A88BBF80030C1F200052A80DD070AD446460125A2E7012010493AF075
S224001B2035FC0025BBF8000073E701200D499DF84D3012B23AF02AFC44F2AE11C1F20001F7
S224001B400125088865E70125CAE700BF5E42001004740400C441001068420010C0410010DC
S224001B60D4730400F4730400AE41001018420010F8410010CB1C13EA210338BF0B469B10FD
S224001B80002B30B413DD0B4A0568126895420ED1002203E050F8044FAC4202D101329A42DF
S224001BA0F8D1C2EB82729000081830BC70470020FAE700BF000000102DE9F041054683B0CE
S224001BC00E460320102117462BF0C0FCEDB2044678B32B0943EA051506230371042343711D
S224001BE013234FF0000883710223C37180F8008080F8018080F8028080F8038080F8088030
S224001C0080F80980384639F0EFFFEDB24FF0FF3307464146284601228DE8D0002BF030FD27
S224001C202A46012004493AF0B1FB044B012283F82A2003B0BDE8F0811C740400D80100106E
S224001C402DE9F04F424FDFF810813B688AB0D8F8002001203F493AF099FB3B68B3F5806FC3
S224001C6034BF99464FF48069B9F1000F66D0DFF8ECA04FF0000BB9F1F00F34BF4E46F0267F
S224001C80B6B208AB022107AA741D09A86FF00105CDF820B0CDF81CB08DF824508DF82540A0
S224001CA03BF0D4F90D2007A908AA8DF825003BF083F92948042107AA08AB3BF0C7F91EB391
S224001CC044F20023C1F20003186834B2102CA8BF1024A4B225B203A92A46A4B23AF00CF9E5
S224001CE008AB03A8214607AA3BF0B0F93B68D8F80000361B5B1B2818B6B2C5EB09093B6056
S224001D00C8F80000002EE0D144F20823C1F20003DAF800001C78079D39F066FF4FF080733E
S224001D20019302900021204601224FF0FF3300952BF0A6FCB9F1000F9DD13B6823B9074B13
S224001D40186808B139F020FF0AB0BDE8F08F00BFDC4100103074040000420010EC410010FC
S224001D6010B5C4B284B0032038F058F9012C14BF4B246B24072302226946D6208DF80030AD
S224001D808DF8014041F08EFD0121002037F050FF032038F047F8012002493AF0F7FA04B03F
S224001DA010BD00BF507404002DE9F04F8EB00AAA0B234FF48071D62041F0CAFD9DF830402E
S224001DC09DF829C09DF82AE09DF82C609DF82D509DF82B709DF82E809DF82F909DF831A081
S224001DE09DF832B047F2604104F004029DF82830C0F2040101208DE800500396049507943C
S224001E000297CDF81480CDF81890CDF820A0CDF824B03AF0BBFA05238DF8283003208A238C
S224001E208DF8293038F0FAF802220AA9D620144641F038FD0020012137F0FAFE002522462A
S224001E400AA9D6208DF828408DF8295041F02AFD2846012137F0ECFE01261F2322460AA96C
S224001E60D6208DF829308DF8286041F01BFD2846314637F0DDFE072322460AA98DF828302A
S224001E80D6204B238DF8293041F00CFD2846314637F0CEFE3623D6200AA922468DF8285082
S224001EA08DF8293041F0FEFC032037F0BBFF0EB0BDE8F08F2DE9F04F034690B0DBB20320A0
S224001EC00B9338F0ABF80CAA0B234FF48071D62041F03EFD032037F0A5FF9DF83A309DF898
S224001EE033C09DF832E09DF831709DF830609DF837509DF836409DF835809DF834909DF889
S224001F0039A09DF838B047F29C420A93F92027210B9BC0F204028DE8005002970396049563
S224001F200594CDF81880CDF81C90CDF820A0CDF824B02CF09DFD9DF838409DF831C09DF839
S224001F4032E09DF833709DF834609DF835509DF836809DF837909DF839A09DF83AB047F222
S224001F60AC4104F004029DF830300120C0F204018DE80050029703960495CDF81480CDF8FA
S224001F8018900794CDF820A0CDF824B03AF0FEF90121002037F04CFE05238DF830300320D7
S224001FA0BA238DF8313038F039F802220CA9D62041F078FC0020012137F03AFE01240B2596
S224001FC002220CA9D6208DF831508DF8304041F069FC0020214637F02BFE00260CA90222C6
S224001FE0B723D6208DF831308DF8306041F05AFC3046214637F01CFE0CAA2B464FF4807111
S224002000D62041F0A5FC032037F00CFF9DF838009DF831B09DF832A09DF833909DF8348053
S2240020209DF835C09DF836E09DF837709DF839609DF83A5047F2EC4100F0040207909DF855
S22400204030302046C0F20401CDF800B0CDF804A0CDF80890CDF80C80CDF810C0CDF814E024
S2240020600697089609953AF091F9102006212CF0D9FF10B0BDE8F08F2DE98048A9B042F036
S224002080C7F8AF4A002313805380DFF8E88244F2142044F2C61144F2DA1244F2DC1544F2C3
S2240020A0002744F2EC1AC1F20002C1F20001C1F200004FF41674C1F20005C1F20007C1F2AA
S2240020C0000A0B80138003702B603B60CAF80030A8F82C403FF086FC0EA904463CF09AF8CC
S2240020E02020FEF7D5FB0A20FEF7D2FB46F6303EC1F2000EDEF800300120924922463AF0EB
S22400210045F90E9BB3F5FA6FC0F28F818E4E612031463BF0CDF903B20BB10020308039F0D1
S224002120FDFE44F2E4150346874CC1F20005012086491A462B603AF029F9642021463BF05F
S224002140B7F9002840F06781308844F2E41AC0F343102BF08DFD054630882BF0A9FDC1F27C
S224002160000A0246294602203FF0D0FEDAF80030754C19785D789A7841EA0521DB7841EA70
S224002180024242EA036344F2602EB3F1FF3F0CBF04230023C1F2000E472021468EF8003064
S2240021A03BF086F980B1DAF80030197858789A7841EA0021DB7841EA024242EA03630133F6
S2240021C000F026810021218044F2E413C1F200031A68338810785478917840EA0420D2788C
S2240021E040EA014141EA0262012059493AF0CEF83388002B42F0D48444F215270024C1F273
S2240022000007082053493C703BF052F928B144F2BE1AC1F2000AAAF800404F494F482BF0FC
S224002220E9FE44F2F91E0024C1F2000E07204C498EF800403BF03CF950B144F21C2044F2F5
S224002240F911C1F200000223C1F2000104800B70062044493BF02CF950B144F2462344F20B
S2240022601C240022C1F20003C1F200041A80228044F24625C1F20005B5F9003044F2482A6F
S224002280B3F5006F4FF0FF37C1F2000AC8BF354BAAF80070C8BF4FF0000E44F25E2044F219
S2240022A06C2444F2682544F2F81744F2C01A3188C8BFA3F800E0C1F200000023C1F2000429
S2240022C0C1F20005C1F20007C1F2000A038023702B603B708AF80030002942F04A847F2004
S2240022E026A93BF0E5F898B9BDF8980044F012F843F0D2FB1CA30CCB43F04EFD0022C3F637
S224002300F072002343F06AFA43F0FEFE184C206000202BF017FC4FF48043C4F202039B6C73
S22400232044F2380523F07F43C1F200052B6003202BF076FF33880246002B40F0D7811BE0A9
S224002340A44100103C750400AE410010507504009CBF0400BE410010987104001842001021
S2240023601C42001046420010006AF84000000000C8010010D80100103E200DF192013BF0D4
S22400238097F810B10027ADF89270BDF892306FF0090003F00F031946ADF892302AF0A8FDB1
S2240023A045200DF192013BF083F818B14FF0000AADF892A0BDF8922044F2042ED3B2C1F28C
S2240023C0000E19468EF800206FF00400ADF892302AF08EFD4FF08043AA221A7255221A7219
S2240023E000202CF03FFE83B21AB245F67400C1F20000002A03801FDDBF49012039F0C6FF3C
S22400240045F67401C1F20001B1F90000FFF72CFAFF202080D8E6612021463BF049F8002894
S2240024203FF492AE002727808EE648F2F060C3F66E003FF0DDFA69E641F0EAFE002842F069
S2240024405C86032001212AF053FD082000212AF04FFD44F2BE12C1F200021388002B02F0C4
S2240024604686A64D4FF4FC7128683BF001F92B681868002842F019863388DA0702F10F8603
S2240024802B689A694AB948F2F45149F64132C2F20601C0F26B5219635A6393F840200120FE
S2240024A062F07F0283F840202BF04CFB5C2094493AF0FEFF44F20C23C1F200031A8844F294
S2240024C06424120AC1F2000422700AB1531E23708B4C412021463AF0EBFF002842F03A8381
S2240024E023889B0642F13883864C0894207044F2B61A0024C1F2000A21466A20A8F82840BF
S22400250088F82E4088F82F4088F82A40AAF800402AF068FE7C4B21461C606C202AF062FEDD
S22400252049200DF196013AF0C3FF03B21BB14FF0030EADF896E05A2074493AF0B9FF10B9DE
S2240025400320ADF89600BDF89600002100F007002AF078FA46206D493AF0AAFF28B144F22B
S224002560FA120021C1F20002118044F2FA14C1F2000423886FF00500C3F3C1235B00591C6F
S224002580ADF896302AF0B4FC4FF0FF3041F012FC45F674073388C1F20007C0F38F023A802B
S2240025A0DF0703F1F08644F2AC1E4FF0000AC1F2000EAEF800A044F20C0A4FF0FF37C1F202
S2240025C0000AAAF80070DFF8589144F20E0A2B684FF0000EC1F2000AAAF80070A9F800E09C
S2240025E044F2040A43F6F87E93F84C40C1F2000EC1F2000A93F84E20AEF80070AAF800702D
S2240026000120434900230094424F39F0BFFE44F2AC11C1F20001D5F800B00B880BEB030129
S22400262091F84C40002C00F04E82B3F5D67F80F04A8203F14C0C0BEB0C0A9AF80120FA2A2C
S22400264018D11BF80C309C0740F032829B080BF80C3044F2AC1EF92344F22C008AF80130A3
S224002660C1F2000EC1F20000BEF800300268D21892F84C409AF8022001202749CDF814C0B3
S224002680009439F083FE9AF80230DDF814C0143B282B00F2F781DFE813F0AB01F501F5011C
S2240026A0F501F501F501F501F501F501F5013701F501F501F501F501F501F501F501F50173
S2240026C0F501F501F501F501F501F501F501F501F501F501F501BE00F501F501F501F501CD
S2240026E0F501F501F501F501F501450001200B4939F04CFE40E600BFB87504002C40001048
S2240027000C420010FD410010A8410010FA410010087604000040001040760400AC75040013
S2240027206242001044F20400C1F20000B0F9003001337FF46CAF44F20C01C1F20001B1F9B7
S2240027400040DFF858B3631C03F011860AF1040344F2080AC1F2000A1946CAF800300422CB
S2240027600EA844F009FB2B6804F14C015A5C04F15400013259181818920044F006FB386857
S224002780BBF8002000F1080A2C68C7F800A011B244F2040A4C31C1F2000A63184FF0010E61
S2240027A002F1080CAAF800203C229A7083F803E0ABF800C004F801E044F2080E181DC1F211
S2240027C0000ECEF800000EA9042244F0D5FA44F20401C1F20001B1F900302A684C33D1187D
S2240027E044F2080A01200C1D4FF03C0EC1F2000A81F802E0C870D054CAF8004044F2AC1E43
S224002800D25CC1F2000EBEF80030121803EB8203AEF80030FBE643F6F871C1F20001B1F98A
S2240028200030DFF888C201337FF4F1AE44F20C02C1F20002B2F90040DFF860B2601C03F0C0
S2240028408D850AF1040343F6FC7AC1F2000ACAF80030194610220EA8CDF814C044F08CFA67
S2240028602B6804F14C015A5C04F16000013259181818920044F089FA3868BBF8002000F1F2
S224002880140AC7F800A0DDF814C02C6811B24C31631802F1140EACF800201E229A70ABF8F8
S2240028A000E0042243F6FC7EDA70181DC1F2000E012363541022CEF800000EA944F05CFA06
S2240028C043F6F871C1F20001B1F900302A684C33D118042043F6FC7A4FF0320E0C18C1F2A0
S2240028E0000A81F802E0C87044F2AC1ED054CAF80040D25CC1F2000EBEF80030013203EB1A
S2240029008203AEF8003082E644F20E00C1F20000B0F90030DFF890C101337FF478AE44F2F4
S2240029200C01C1F20001B1F900205C4C511C03F00C85BAF804B044F2100EADF838B0BAF875
S224002940063028680AF1040AC1F2000ECEF800A002F14C01ADF83A3010F801A002F1540E2F
S2240029600AF101024118920070440493CDF814C044F00BFA2188DDF814C0D5F800E00AB291
S22400298038684C32724401F1080AACF8001044F2100100F1080EC1F20001101DA4F800A03B
S2240029A0C7F800E00860A2F804B0049BD38044F20E04C1F20004B4F900302A684C33D118F5
S2240029C01E2088700220C870D05C44F2100A012808BFB9F80000C1F2000A04BF40F008008D
S2240029E0A9F8000004310120D054CAF8001005E744F20C02C1F20002B2F9003001337FF47E
S224002A0006AE44F2AC14C1F200042388B9F8001098B202B2214C082A41F00101208089B239
S224002A2008BF1F48A9F8001004BF41F002010180C7F800A01BF80C103E2901BFB9F80010C4
S224002A4041F00401A9F800101BF80C10013103EB8103B3F5D67F9EBF44F2AC10C1F20000B8
S224002A6003807FF6D4AD01200E4939F08FFC44F20C0E4FF0FF3AC1F2000E0023AEF800A0BA
S224002A803B60C4E544F2AC101BF80C20C1F200000388013203EB82030380B8E50C4000105C
S224002AA062420010507604000E400010F83F0010002381F84C309AF800209AF8023001203F
S224002AC0C44939F063FC44F2AC13C1F200031A8801204FF4D673C04939F058FC3388DF073B
S224002AE003F1258444F20C2744F20E0AC1F20007C1F2000A3A88BAF900300120B74939F017
S224002B0045FC3B88B64F9C0504D5B7F90030013303F0D38343F6F870C1F20000B0F90030A3
S224002B20AE490120322239F031FC43F6F871C1F20001B1F90030013303F0858344F2040E27
S224002B40C1F2000EBEF90030013303F04F8344F20807C1F200073B6844F2AC1EC1F2000E6C
S224002B601F6844F2040ABEF80040C1F2000ABAF9002000979B4F2346012000249A4939F0C4
S224002B8005FC3C80994F4FF0020A3C8044F23C27C1F2000787F800A044F20C20944F4FF08E
S224002BA00109C1F20000038887F8009048469149C8F80440C8F800404FF400474A4600979C
S224002BC039F0E4FB44F2BE1EC1F2000EBEF8007004212120A8F83000A8F83210A8F83410F3
S224002BE0002F43F0CA8244F2E41AC1F2000ADAF8003019785A789878DC7841EA022343EAEB
S224002C00004343EA0463009348467B497B4A7C4B39F0BCFB3846642137F00AF800239AB2EC
S224002C200DF1A40A013344F234204FF0000E0AEB4201C1F20000042B20F812E021F840EC6F
S224002C40EDD144F2FC1444F2E017FF23C1F20004C1F200070722442025A923703B70ADF86D
S224002C6098203AF025FC002801F056874FF0240AADF894A0BDF89430642244F20C0E02FBC4
S224002C8003F3C1F2000EBEF800E044F21402C1F20002A2F800E004200721ADF8943037F08B
S224002CA0B3F80B202121002237F070F914210A461B23544837F07EF8052348200DF1960124
S224002CC088F854303AF0F4FB002802F07D805B20ADF89600BDF896300A2202FB03F3452006
S224002CE00DF19201ADF896303AF0E2FB10B10021ADF892109DF892306FF004001946ADF8E5
S224002D0092302AF0F5F83388D80703F1308244F2102244F20A2444F23E2744F2E81A44F2D0
S224002D20402E44F206200023C1F20002C1F20000C1F20004C1F20007C1F2000EC1F2000A4A
S224002D40136023803B800380AAF80030AEF80030FFF72AF82C4A2D4B0421981A2C4B2D4CA5
S224002D60D31A2D4F90FBF1F093FBF1F106940A970C900D91294837F0A5F91B2800F020818A
S224002D802128F7D10B201DA936F060FF3388D90700F1DE831D9C002C00F0E38314F0007704
S224002DA008BFB94640F0F184204649462AF0E6FD338884B2DB0739D51D9B194A13F0007F33
S224002DC0184B194908BF1346E2B2012039F0DEFA2CE000BF18760400647604008876040016
S224002DE00E400010F0410010C476040044420010A0490010D8760400FC7604001C4000102E
S224002E00B4C4040010020010E4900010D8FF0010E48E001018420010C8010010A8710400C2
S224002E2038750400307504009879040004F00F03012B00F2CA82DDF874A005222AF04F43F2
S224002E4020A81BA9209338F023FF04F001040528099440F0A0829DF86D30002B40F09B8225
S224002E604FF4A344C0F201048DF8A23099460B949DF870305A1E8DF87020002B79D002223D
S224002E8020A824A938F004FF0228044640F083829DF89030122B00F00D857CD80C2B00F233
S224002EA064820B2BC0F022830020322136F0C0FE9DF89120002120A838F0EAFE03200921B9
S224002EC02AF044FB1E9000283FF454AF0023037043708370C370DDF878B006238BF804303C
S224002EE0042324A98BF805300BF106000B2322468DF890308DF8914043F03EFF602023A932
S224002F003AF0D6FA002801F099820320ADF88C0003219DF86C20BDF88C30100903F007035E
S224002F2040EA021201F007010220ADF88C308DF8A2008DF8A3208BF808308BF809101FB13C
S224002F40384638F051FE81461E9B9DF8A2208DE808049DF8A3004FF0FF330021CDF80890F8
S224002F602AF08EFB9DF870305A1E8DF87020002B85D1B8F828303BB144F2B611C1F20001C1
S224002F800B8843F004030B802098002800F0228238F0FAFD1EE21A2B00F20482192B80F0D0
S224002FA01D82142B00F06684C0F04C84182B00F094849DF8912020A8002138F069FE57E78D
S224002FC044F2DC22C1F20002B2F900300022B3F5967F88F82A2000F3D58344F2DC14C1F25B
S224002FE000042368002B40F0CA8398F85430013BDBB288F85430002B7FF4BCAE3388BF4AE8
S22400300005211C0782F8541001F1048244F21027C1F200073A68BDF8983001323A60002BCE
S22400302048D043F6EA7AC1F2000A9AF80030AA214FF0804211725521012B11721AD944F2BA
S224003040BE1EC1F2000EBEF800209AB144F21520C1F200000278AA4C092A0BD8013BA94ADA
S224003060FA2019212BF004FD2378012201332370A54B1A70BDF89840013CA4B2ADF898403F
S224003080C4B90721ADF898106527A14644F2342E19AAC1F2000E32F804A034F80E309A4593
S2240030A001F0C38319A8035302340137082C09F10109EBD1B8F8283013B1904A013B1385E1
S2240030C044F26C21C1F200010B786BB344F2F812C1F200021378082B01F0688644F2C01437
S2240030E0C1F200042378013BDBB22370E3B944F2C417C1F200073A88013292B213B2052B88
S2240031003A8001F33686012B08DD44F25E2AC1F2000ABAF800200F3AAAF800203288D00746
S22400312003F11780FEF7F4FB00202BF031F8044603202BF075F8338807461A0701F16381C3
S224003140B4F5FA7FC1F04B81032036F067FF012308210DF1A102D62040F0FAFB032036F0CA
S22400316061FE2B6893F94030002BC0F2E68644F6A410C1F20000B0F90030002BC0F2B18685
S22400318044F2E8120021C1F200021120118029F027FD002800F0E4809DF8A120500708D420
S2240031A044F20A2AC1F2000ABAF800300133AAF800303388190701F1EB80112029F010FD6C
S2240031C0002800F0138740F252339F4240F2D0879DF8A19019F0040940F0CA8744F23E2026
S2240031E0C1F200000288531C12B29BB2EF2A038001F300840A2B02F0988740F2180EC1F2A8
S224003200000E9EF80030DFF804915B0640F1C18740F2523305209F4240F23B8636F0FEFEBD
S2240032202B6805209A6801329A6036F0FBFDBDF8943073B9BDF896309F4281F0F182B8F8EF
S224003240322032B1013A2D4992B24A86002A02F061876D2029F0C4FC002800F0C98505207A
S22400326036F0DCFE2B6893F840209C8722F07F0242F07E0283F84020052036F0D3FD6820E5
S22400328029F0AEFC0446002800F0D2854FF41671A8F82C10722029F0A3FC68B944F23D2207
S2240032A0C1F2000213783BB144F6BC14C1F20004238843F400632380089F44F23D2A3B783D
S2240032C0C1F2000A8AF80000002B41F03C80B8F8303003F00302032A01F0068003F01F02D2
S2240032E01F2A34D0A3B1013B9BB2A8F830307BB9024B4FF4347119860AE000BFD801001005
S2240033001542001010940400EA3F001018000010052036F083FE44F2042244F6A413C1F26C
S2240033200002C1F2000344F264241178C1F200041A8823784A4042FA03F3DF0703D52B6888
S224003340DA6A0132DA62052036F06CFD12E533881B0701F14185FEF719F9B8F83030C1E7B6
S2240033601120012129F0C4FD16E70E2B00F05F86C0F026860F2B7FF41CAE9DF891200E2ABF
S22400338001F06C81002120A838F082FC9DF8913098423FF46DAD209838F0F6FB384638F0C7
S2240033A0F3FBE7E4FD2B00F0E984FE2B00F0CC82202B7FF4FEAD01239DF8912088F82F30B1
S2240033C020A8002138F064FC52E51D9820F04F4038F0DAFB384638F0D7FBCBE49DF891B0F2
S2240033E0BBF1010F41F2C682012B40F0F8864FF0000E0020BBF1020FADF89AE05A4600F0DE
S22400340000879DF89030012B03D0023AD2B28DF8912000B2031C18BF01237F28CCBF0023B5
S22400342003F001031946002B01F02280022A07D0002120A838F02CFC9DF891309842AAD18C
S22400344027A99DF89A003AF033F80222834623A920A838F01DFC02289DD1BDF89A2013B285
S2240034607E2B3FF705AD9DF89030BDF89C40192B02BFBDF88C302343ADF89C300ED01A2B60
S22400348002BFBDF88C3024EA0303ADF89C3005D0022B04BFBDF88C00ADF89C001FFA8BF392
S2240034A01BB9BDF89C30A34206D0BDF99C10D0B239F0BAFFBDF89C300120BDF99A20BA491C
S2240034C038F064FFBDF99A30452B02F001863E2B03F0B083322B03F0A483462B03F088837E
S2240034E0472B04BFBDF89C003080C1E4022B3FF475AF032B00F06E81012B7FF45AAD099C10
S224003500002C3FF456AD9DF891B0BBF1000F7FF467AF3388BBB91FB1384638F065FB81465E
S22400352000209DF86C40FDF77BFD240910348DE801040421204601224FF0FF33CDF8089052
S2240035402AF09EF894E40120984938F01FFFE2E7012097491D9A38F019FF1D9C002C7FF4DD
S2240035601DAC98F82F30002B42F02E80DDF820A09AF80030002B42F01F803388002B42F018
S2240035801580002303201D932AF04AFE338880461A0702F104804FF48043C4F2020344F625
S2240035A0A41E9A6CC1F2000E9EF8001002F07F420A434CF6CD457F4F9A64CCF6CC454FF0A5
S2240035C080444FF0AA0906E00132B2F5167F1D921CD83B7853BB00200A2136F029FB1D9A2B
S2240035E0A5FB0203DB0803EB8303B2EB430FEBD15523012084F808906F49237238F0C6FE39
S2240036001D9A0132B2F5167F1D92E2D901206B4938F0BCFE6421002036F00AFB44F2BE1189
S224003620C1F200010B88002B41F06387012005F095F838F0F9FD4FF48043C4F202035A6CB0
S2240036400546012002405E4938F0A0FE00216FF0060029F04DFC33882C4613F0010308BF67
S2240036601F4641F06B8701216FF0010029F0BAFDA5F10A03DBB244F2C21A0022C1F2000A4A
S224003680012BAAF8002041F23C874E4C4620214639F00EFF0146002801F0AB834FF0000EC9
S2240036A0A4F800E06920012129F09CFD44F2FA10C1F2000001786FF0030029F093FD3288FB
S2240036C04FF08043AA21197255211972D30758BFDFF8F89001F1FA8644F2FA11C1F20001D5
S2240036E00B8813F4005401F00E85C3F3C123590001316FF0050029F0FBFB6B20012129F0F5
S22400370071FD3388DC0701F1AD864FF48043C4F202035A6C22F480625A6438F085FD0F2855
S224003720054604464FFA80FB0FD84FF0010A0AFA0BF248F2A01313403BB16C20514629F091
S22400374051FD3388002B41F03F86DFF884A04A20514639F0ADFE002801F066830023AAF8A3
S22400376000300022338823B1012017492B4638F00DFE6E20002129F035FD01F062BBFEF741
S2240037805FFA32E404F08AFF27E424F04F4948461DA92AF07FFC1D9B04F04F441C434F4665
S2240037A01D94FFF701BB00BF3C7B04002C7B040014770400D00100103077040040770400A6
S2240037C054770400FA410010E4770400D4010010C2410010099C9DF89120002C41F081802A
S2240037E0012A41F27380032A20A80DF19A0100F02787022238F04CFA02287FF4CCADBDF8EA
S2240038009A301AB2FF2A00F0E1867F2A3FF430ABD8B200241E9439F027FE1E9000283FF41F
S22400382027ABBDF89A301F94B92B05D144F2BC140122C1F200042270D8B21FA939F046FD95
S224003840FFF716BB9DF891200024042AADF89A4004D998F82E30D90741F1C38198F82E3076
S2240038600120344938F092FD98F82A30C3B19DF8912087E59DF8912001202F4938F086FD54
S2240038809DF891200021022AADF89A1001F0CE8001202A4938F07AFD98F82A30002BE6D103
S2240038A03A469DF86C000AF04F41FEF785F99DF8912067E59DF891300024012BADF89A40CE
S2240038C000F03C8701201E4938F060FD98F82A30002BE5D09DF8912054E59DF8912020A8CC
S2240038E0002138F0D5F9099C002C3FF4C1AA1FB1384638F079F981469DF86CB02EF082FD40
S2240039004FEA1B1B0BF1100B04464FF0FF330421584601228DE81004CDF8089029F0B0FECE
S2240039203388002B3FF4A4AA0120064938F02EFDFFF79EBAFC7B0400147C04008C7C0400EF
S224003940C87B0400147B04009DF89110002900F02B850DF1A201012220A838F099F99DF8AE
S22400396091303288013B8DF891309DF86C30190941EA03138DF8A330002A40F026859DF8BF
S224003980A240FA2C3FF674AA01A151F824F000BF596B00006167000055660000D965000084
S2240039A0D5630000C56E00003F6E0000712E0000BD6C0000596C00006B700000BF6F000054
S2240039C027600000DD5D0000375D0000712E0000712E0000295D0000712E0000712E00008B
S2240039E08D5D0000A55B0000475C0000712E0000712E0000712E0000712E0000CF4C00009E
S224003A00CF4C0000DD4C0000955C0000712E0000712E0000712E0000712E0000712E000051
S224003A20712E0000712E0000712E0000712E0000712E0000712E0000712E0000712E000089
S224003A40712E0000712E0000712E0000712E0000712E0000712E0000712E0000712E000069
S224003A60712E0000712E0000712E0000712E0000712E0000712E0000712E0000712E000049
S224003A80712E0000712E0000712E0000712E0000712E0000712E0000712E0000712E000029
S224003AA0712E0000712E0000712E0000712E0000712E0000712E0000712E0000712E000009
S224003AC0712E0000712E0000712E0000712E0000712E0000712E0000712E0000712E0000E9
S224003AE0712E0000712E0000712E0000712E0000712E0000712E0000712E0000712E0000C9
S224003B00712E0000712E0000712E0000712E0000712E0000712E0000712E0000712E0000A8
S224003B20255B0000712E0000712E0000712E0000712E0000712E0000712E0000712E0000A7
S224003B40712E0000712E0000712E0000712E0000712E0000712E0000712E0000712E000068
S224003B60712E0000712E0000712E0000712E0000712E0000712E0000712E0000712E000048
S224003B80712E0000712E0000712E0000795A0000712E0000712E0000712E0000712E0000F4
S224003BA0712E0000712E0000712E0000712E0000712E0000712E0000712E0000712E000008
S224003BC0712E0000712E0000712E0000712E0000712E0000712E0000712E0000712E0000E8
S224003BE0712E0000712E0000712E0000712E0000712E0000712E0000712E0000712E0000C8
S224003C00712E0000712E0000712E0000712E0000712E0000712E0000712E0000712E0000A7
S224003C20712E0000712E0000712E0000712E0000712E0000712E0000712E0000712E000087
S224003C40712E0000712E0000712E0000712E0000712E0000712E0000712E0000712E000067
S224003C60712E0000712E0000712E0000712E0000712E0000712E0000712E0000712E000047
S224003C80712E0000712E0000712E0000712E0000712E0000712E0000712E0000712E000027
S224003CA0712E0000712E0000712E0000712E0000355A0000712E0000712E0000712E000017
S224003CC0712E0000CD590000712E0000712E0000712E0000712E0000712E0000712E000060
S224003CE0712E0000712E0000712E0000712E0000712E0000712E0000712E0000712E0000C7
S224003D00712E0000712E0000712E0000712E0000712E0000712E0000712E0000712E0000A6
S224003D20712E0000712E0000712E0000712E0000712E0000712E0000712E0000712E000086
S224003D40712E0000712E0000712E0000712E0000712E0000712E0000712E0000712E000066
S224003D60712E0000712E0000712E0000712E0000712E0000712E0000CD5900009DF8913008
S224003D80032B7FF475A801220DF1A30120A837F07FFF224620A80DF19A0137F079FFBDF811
S224003DA09A309DF89120033A1C0442BF03F50063ADF89A309BB28DF891201AB2B2F5006F61
S224003DC0C4BFA3F50063ADF89A309DF8A330042B3FF64EA80FF2040E5EF823F0C558000096
S224003DE0BF580000A9570000712E00002B57000040F204070520C1F2000736F00FF9B989FA
S224003E002B68A1429C87D04A80F00A8393F84020052022F07F0242F0650283F8402036F0B0
S224003E2001F8682028F0DCFE044600287FF42EAA44F2BE1A0120C549C1F2000A38F0A6FA8B
S224003E40BAF800302BB1B8F82C30B3F5167F01F0648444F20C2EC1F2000EBEF80030DF0582
S224003E6040F1D384B8F82C30013B9BB2A8F82C30002B00F0CA84B3F5157F7FF40BAA44F61D
S224003E80BC10C1F20000038843F020030380FFF701BA36F0C3F82B680520DA680132DA6041
S224003EA035F0C0FFBDF89430002B3FF4D2A99C4280F0B184B8F83420002A3FF4CAA9013A35
S224003EC0A34992B28A86002A7FF4C3A90120A149224638F05BFA0A2006212BF0A3F8FFF7A7
S224003EE0B8B944F20621C1F200010A883388013292B2DB070A8004D512B20120964938F046
S224003F0045FA44F20622C1F20002B2F90030B3F5616F12DD052036F081F82B68052093F801
S224003F20402062F07F0283F8402035F07BFFFA2027218A4A05232AF09BFD44F6A41AC1F214
S224003F40000ABAF8003040F64572DB0B94428CBF002303F00103002B3FF412A9B4F57A7FA7
S224003F607FF60EA99DF8A12012F0300F7FF408A944F2E81EC1F2000EBEF80020784B002A95
S224003F8040F0088444F24020C1F2000001210480198044F2E81EC1F2000EBEF900305A2B6F
S224003FA07FF4FAA81120012128F0A2FF6B4AFA2027210B232AF05CFD9DF8A120FFF7EEB831
S224003FC09DF891B0BBF1000F00F0C382BBF1040F20A800F08F8400215A4637F059FE9DF8B8
S224003FE0913098423EF444AFFFF7D5B944F23E2AC1F2000ABAF8003001339BB2282BAAF8C5
S22400400000307FF4FAA80121112028F071FF9DF8A120012002F00402524938F0B7F9FA207F
S22400402027214E4A01232AF023FDFFF7E6B84F2027A939F03DFA18B14FF03C0EADF89CE097
S2240040409DF89120082A7FF49DA9BDF89C3059053FF598A93388DB0703D50120424938F08D
S22400406095F9042220A821A937F012FE042804467FF491A93DF0B6FC219B21A9C31AB3F5B1
S224004080967F20A8224680F0BA8437F001FE04287FF481A921983DF0ABFC40F21800C1F2AF
S2240040A00000037840F2180243F04003C1F2000203200B21137029F049FA1E9000283EF4D3
S2240040C059AE0024047044708470C4709DF86C30DDF878E01A0942EA03135FFA83FC06239C
S2240040E08EF8043002238EF805300D238EF806308EF807406046214601224FF0FF33CDF802
S22400410000E04FF0807E8DF8A3C0CDF804E0029429F0B6FA219A4FF46A5302F57C3202F536
S2240041209062C0F20903B2FBF3F319B2092039F07BF93388DC077EF59BAE01200B4938F0AF
S22400414025F9FEF795BE00BF04000010B07D0400D8010010A07D0400FC7C040010940400C2
S224004160E8410010347D04008C7B04009C7B040040F2180EC1F2000E9EF8003044F23E22B1
S2240041800021C1F200025B061180DFF8E0923FF53FA844F21020C1F200000268AB4908204F
S2240041A038F0F4F844F21021C1F200010B680A2B7FF62EA83DF016FC46F24073C4F6A3331E
S2240041C098427FF725A899F80030082043F0400389F800309E4938F0D9F8FFF719B80222E2
S2240041E020A80DF19A0137F053FD02287FF4D3A89DF891B0BDF89A00BBF1020F5A467FF4D5
S22400420000A9A0F180039BB25F2B40F2E68303200A2129F09BF91E9000283EF4ABAD0023EC
S2240042201F90037043708370C370BDF89A201E9811B206247F290471437141F34082DF299D
S224004240D8BF079301F32A8200231F9300283EF40FAE37F009FD9DF86C300246190941EAA9
S2240042600313032002218DF8A2208DF8A33029F06DF91F9000283EF47DAD1E9BC3F30724F2
S2240042801A0EC3F30741C2700370447081701F9B06221A7104225A7102229A719DF8A220C5
S2240042A0079C02321E93DA711CB14FF0FF0EADF89AE003F108000DF19A01022242F05CFDAA
S2240042C01FB1384637F090FC81461E9B9DF8A3008DE80804002101224FF0FF33CDF808908D
S2240042E029F0CEF9FEF7C4BD44F23C2AC1F2000A9AF80030022B01D0FCF786FB33881A07FA
S22400430000F18F834FF0FF303FF054FD45F6740EC1F2000EBEF80030C0F38F0419B220B260
S224004320471A03374B4A062F9CBF1480B8F830307EF6D4AF884240F36E8304331380B8F8B5
S2240043403030FEF7CBBF04F033F8C40440F1E58142F21003034000F00C02002B00F056837F
S224004360042A0CBF06220522089C237893423EF4AEAF47F29817C0F20407374907EBC20371
S2240043800A70002059699A693DF0F6FAFEF79FBF44F20A2EC1F2000EBEF9003001202F499A
S2240043A037F0F4FFFEF709BF0A4620A88DF8A21037F06EFC9DF86C303288190941EA0313F3
S2240043C08DF8A330002A3FF4DAAA9DF8A2209DF891300120224937F0D9FFFFF7D0BA0520C2
S2240043E035F01CFE2B68012283F84020052035F019FD44F2062E4FF0000AC1F2000EAEF86E
S22400440000A0FEF7A1BE082016493A4637F0BEFFFEF796BE0820144937F0B8FFFEF7F6BD64
S224004420D189A14280F0A88193F8402022F07F0242F0510283F84020FEF71EBFBDF88C10A0
S224004440CBB2ADF88C30090AFEF763BD447D0400687D040074580010FD410010107D0400E8
S224004460F0790400AC750400A07C040018000010DF2847DD042A07D020A837F009FC9DF8A4
S224004480913098427EF487AF042220A822A937F0FFFB04287EF47FAFBDF89A30FF2B0BD1A9
S2240044A044F26021C1F200010A78032A04D99DF89020022A01F01381D8B221A938F0E2FFAD
S2240044C09DF89020219B192A08BF229A81B204BF1A4321920AD01A2A02BF229A23EA02025E
S2240044E0219203D0022A04BF229A219219B9219A93423EF4BDAC9DF89A00219938F072FF54
S224004500FEF7B6BC1E931F938DF8A2308AB93FE21EAA9DF8A3001FA938F04EFD9DF8A2306F
S2240045209DF891200133DBB29A428DF8A23040F22F82012220A80DF1A30137F0A9FB0128D8
S224004540E6D01F9837F020FB209837F01DFBFEF741BF5946092038F067FFCDF878B0CDF8B3
S2240045607CB03DF03FFA042186461EAA1FAB22A8CDF888E038F06AFD1E9837F075FB034605
S2240045808DF8A2300320092304218DF8A33028F0DDFF1F9000283EF4EDAB1E9B1A0EC3F3C7
S2240045A0072EC3F30741C270037080F801E081701F9B06221A715C710D229A719DF8A22009
S2240045C01E93DA71002F7FF47CAE7EE69DF89120022A08D0002120A837F05AFB9DF89130A5
S2240045E098427EF4D8AE022220A80DF19A0137F04FFB02287EF4CFAEBDF99A2045F2AA5331
S2240046009A427EF435AC3388D80701F1418039F00DF844F2982044F204210023C1F20000CC
S224004620C1F2000103800B706FF00400002128F05FFC6FF00900002128F05AFCFEF718BC0C
S2240046404FF0000E0122ADF89AE037F021FB9DF89130013B8DF89130FFF7D1B803200721E1
S22400466028F074FF1E9000283EF484AB0024047044708470C4701E9B0E224FF0060B991D10
S22400468083F804B05A7120A837F002FB0E287EF482AE2046012137F01BFD1F90002800F0C9
S2240046A0F4871E9BC0F30741020EC0F307249970DA7018705C701E9837F0D6FA9DF86C3053
S2240046C00246190941EA0313032008218DF8A2208DF8A33028F03AFF1F9000283EF44AABF0
S2240046E01E9B1A0EC3F30724C3F30741C2700370447081701F9B02225A71102283F804B0A1
S2240047009A719DF8A2201E93DA7101238DF8A230002F7EF415ACFEF717BC44F2FC1EC1F28E
S224004720000E9EF80030072299073FF51DAE00F00C02042A0CBF0222012215E698F82EB031
S2240047401BF0010B7FF4BEA81A4620A80DF1A301ADF89A308DF8A34037F09AFA9DF8A320B0
S224004760012818BFADF89AB0FF2A00F0C3810023ADF89A30FFF7A6B8118AA14280F09780FD
S22400478093F8402022F07F0242F03D0283F84020FEF772BD013292B211B2B1F5E16F1A805C
S2240047A009DB44F24022C1F20002B2F900303133A34280F2598744F2E81AC1F2000ABAF9A5
S2240047C000303C2B7FF4E5AB032035F027FC012308210DF1A102D6203FF0BAF8032035F0C2
S2240047E021FB9DF8A12002F03003D3F1010138BF0021302B14BF0B4641F00103002B40F030
S2240048003887C8490B80FEF7C9BC0B2003212AF009FCFEF73FBD0423A8F83430FEF719BD69
S2240048200422A8F83220FEF714BD00223946BE48ADF898203CF00AFD012035F0A1FA00205D
S224004840322135F0F5F944F23423C1F2000334F803E0BDF898204B460120B449CDF804A016
S22400486044F2BE1ACDF800E0C1F2000A37F08EFD0020322135F0DCF9BAF800302BB1FA20CC
S2240048800321AB4A3B462AF0F3F80FFA89FABAF1010F00F0DD86012009212AF0C3FB44F281
S2240048A0342EC1F2000E34F80E30FEF7FBBB528AA24293F8402022F07F0234BF42F029022D
S2240048C042F0010283F84020FEF7D6BC002120A837F0DEF99DF8912090423EF484AFFEF7E3
S2240048E05ABD20A8002137F0D3F90020FCF77AFCFEF7BEBA21A95A4637F0CAF904287EF4D8
S2240049004AAD00231E931F933DF06CF8042104461EAA1FAB21A8229438F098FB04211EAA5C
S2240049201FAB22A838F092FB1E9837F09DF99DF86C300246190941EA0313032006218DF80B
S224004940A2208DF8A33028F001FE1F9000283EF411AA1E9B1A0EC3F30724C3F30741C2706B
S2240049600370447081701F9B06221A7102225A710E2222E65A46002120A837F089F99DF8BF
S22400498091B058457EF407AD9DF89030FEF72CBDBDF89A30002B00F045861F9A002A3EF461
S2240049A067AAD8B200241E9438F05EFD01461E90002800F01C861F9837F070FA002800F0EF
S2240049C01686BDF99A2001205A4937F0DFFC1F9837F0DAF81F9400F01BBEC0B238F044FDF9
S2240049E004461E90002800F0F5854FF0000ECDF81CE029E40220FDF75DFAFEF7FEBB37F0CB
S224004A0047F904283EF434AAFEF7C5BC042A0CBF04220322A8E4191F1180B8F83030FEF701
S224004A205DBC0820444937F0B1FC6BE420A827A937F02EF9022800F0AD85BDF89C200120BC
S224004A40BDF99A303D4937F0A1FCBDF99AB0BBF1010F18BF9DF891207EF41AAF142100201E
S224004A6035F0E6F837F062FCD8F858E004462346BDF89C2058463249ADF89E40CDF800E03C
S224004A8037F084FC44F2B613C1F200031A8844F2B614BDF89C3042F00402C1F20004228001
S224004AA02BB9BDF89E300133ADF89C309BB2BDF89E2093427EF4DCA90020782135F0B8F8CB
S224004AC098F82F2001201F4937F060FC98F82F3053B91D4B012083F82E001C4937F056FCDB
S224004AE0042002212AF09EFA4FF0000EA8F828E0FEF7BEB9BDF99A40012C00F03885002CC1
S224004B003EF4E0AE3388D8077EF5B2A90120104937F03CFCFEF7ACB99DF89430ADF8943073
S224004B20FEF7A8B8E8410010A87C0400B07C0400109404005C7B0400BC7D0400287C040022
S224004B40407C04005C7C0400D80100106C7C0400DC7B04000E272780AB4F01233B700020BF
S224004B604FF0FF314FF4FA7208973CF005FFFDF7BEBCA64C44F246272368C1F20007B7F94B
S224004B80001044F2BE15C1F20005A3F508132A889B09009101209E4937F0F8FBFDF79FBB35
S224004BA00A20FBF775FE0A20FBF772FEFBF7A8FB46F630359749C1F200054FF440442F68A9
S224004BC0C4F20F040D88D4F880310246924901200097019537F0DAFB0023C4F88031FDF704
S224004BE00BBB042220A821A937F052F8042800F0B384BDF99A00012818BF9DF891207EF466
S224004C002DAE219A002312F4F87F88F82F3008D13388DB0705D59DF8A230804937F0B6FB22
S224004C20219AD8F85800904214D09DF8A22020A8002137F02DF80023219A8DF8A230D8F845
S224004C40583093423CBF764B9A65F020A8F82800FEF70EB99DF8A2305BB9F0E70C791C1997
S224004C600C719DF8A210CB1ADBB28DF8A230002BE5D0209A54791179A34228BF2346511813
S224004C801A468DF8A33037F00BFB20999DF8A3304C79219AE41A9818E4B2024621904C718F
S224004CA0002CDBD108784C788A78CB7840EA042040EA024242EA036301201F9334F0F6FF54
S224004CC01F9B2198209302469DF8A330C9E7A4F11C04604240EB0400FDF742F8032035F04D
S224004CE09DF915AA4FF480710B23D6203EF030FE032035F097F84FF0FE0E00241FAB1EAACE
S224004D0002218DF890E024A84FF00D0E8DF891E01F941E9438F09AF99DF8A2301EA91FAA43
S224004D2018468DF8913038F047F91FAB1EAA0B2115A838F08BF92B681EA993F840301FAA1D
S224004D4018468DF8913038F037F91E9B38469DF8A3B0049336F048FF049B02908DE808047D
S224004D605846214601224FF0FF3328F089FCFEF77FB83388D90700F1EA8344F2682144F2DE
S224004D806C2244F2F8130024C1F20001C1F20002C1F2000344F26827086814701C70C1F204
S224004DA0000736F0F1FE3C60FEF7BEB900202CF03DF900287EF492A901202CF037F90028EE
S224004DC03EF4B2A9FEF78AB9BDF8963023F47E43ADF89630FDF77EBF40F21800C1F200001D
S224004DE00278104902F04002012037F0CFFAFEF7B2BAB4F90030002BBEF654AC692028F0D8
S224004E00F1F9FEF753BC00BFFD4100101842001090750400AE4100105C750400E87B0400E4
S224004E20D8010010CC7D0400BAF8002090073EF499AC3388002B40F0C1826E20012128F036
S224004E40D1F94FF08042AA21002311725521117218468DF8A13029F09BF90F2D824640F281
S224004E60CF8140F2523300930120BD495246434637F08CFABAF5616F10D840F252339845A3
S224004E8002D901238DF8A1309DF8A13001200093B449424640F2523337F078FA1220002176
S224004EA028F0A0F940F2040EC1F2000E9EF8003043B19DF8A1101220002900F0AD8201219B
S224004EC028F016F84FF080454FF0AA0E85F808E04FF0550E0120234685F808E0A2493A464B
S224004EE037F054FAB9F8001006203FF04BFA338807F10109D9079D4D00F14D824FF4804390
S224004F00C4F202035A6C01200240994937F03EFA44F238000023C1F20000102C036040F252
S224004F2005813388D90704D501209249224637F02DFA44F2FA11C1F200010B889A0400F1A9
S224004F40118233887BB14FF48043C4F202036FF003009D6C27F044FE25F07F42034686495F
S224004F60012037F013FA4FF4804344F2FA17C4F20203C1F200079D6C3B886FF003001D408A
S224004F8027F02EFE3B8803405D40ADB2002D40F08581032029F044F940F25233984532889D
S224004FA094BF00270127984294BF002501252AB1012072493A462B4637F0E8F9AF421EBF54
S224004FC044F23800C1F20000036844F2C21118BF43F00103C1F2000118BF03600B889B0706
S224004FE040F02081032029F01BF940F252339845328894BF4FF000084FF00108984294BF2E
S22400500000250125002A40F00681A84508D03DB144F23807C1F200073B6843F001033B6008
S22400502000204FF4804501464FF4FA72C4F202053CF0A2FC6B6C13F001006FD144F6A41AB3
S224005040AB6CC1F2000A9AF8002003F07F431343AB64962134F0ECFD01202AF003F83388F6
S224005060002800F0BE81DF0706D5AA6C012022F07F42434937F08AF900200A2134F0D8FD8F
S2240050803388DA0700F1A6814FF48043C4F202035B6C37F005FA002034F0AAFEFEE70120B7
S2240050A0384937F073F9FDF7EBB937F093F833880446D80705D522790120A218324937F0B7
S2240050C065F9204636F060FD2B68986937F082F833880446D90705D502792C4982180120E5
S2240050E037F054F9204636F04FFDFDF7C9B92849284828F07FFFFDF7B4B96FF0030027F098
S2240051006FFDFDF79EB921466FF0050027F0F0FE6B20214628F066F8FEF7F3BA6A6C012002
S22400512002F001021C4937F031F9A9E7012063B200FA03F342F2120260F31F4213422FD0B9
S2240051403388D90703D51549224637F01FF94FF48043C4F202035A6C42F001025A6441E730
S224005160F87704000C78040020780400D401001054770400A8780400C47804000C790400F2
S22400518034790400EC750400C8750400DC7504009871040018420010707904005C78040022
S2240051A01A0521D53388DA0703D5B549224637F0EDF8682027F014FD00283FF413AF0D20F5
S2240051C00E2129F02FFF4FF48043C4F202035A6C42F001025A643388DB077FF503AF0120F6
S2240051E0A84937F0D3F8FDE65F057FF59AAE3388DF077FF5F7AEA449224637F0C7F8F1E6F8
S224005200012303FA0BFB4BF212330BEA0303002B7FF433AE25E601209C4942462B4637F035
S224005220B5F8F2E601200DF1A20134F00FFD07281FBF44F23802C1F20002136843F002030D
S22400524018BF136003E03388002B40F09F8001200DF1A20134F0FAFC0728F4D105200DF1F4
S224005260A20134F0F3FC07281FBF44F23805C1F200052B6843F0020318BF2B6005200DF1EB
S224005280A20134F0E3FC07283FF4ACAE3388002BF4D001207E4937F079F8EFE745200DF144
S2240052A0920138F005F918B14FF0000AADF892A0BDF892304FF480421B0A44F2FA1EADF8B3
S2240052C09230C4F20202C1F2000EBEF80010906CEDB2084018402940084214D044F2380185
S2240052E0C1F20001086844F23807318840F00400C1F20007386031B1926C012013406549CF
S2240053002A4637F043F84FF48043C4F20203986C44F2FA1ABDF89220C1F2000ABAF80010C1
S22400532020F07F40104321EA0000294008423FF430AE44F2380EC1F2000EDEF800003188AB
S22400534040F00400CEF8000000293FF422AE9B6C012023F07F431343DB434F492A4637F082
S22400536015F816E66FF0070027F03AFC00283FF4E8AD44F23802C1F200021368012043F088
S22400538004031360454937F001F8DAE50120444936F0FCFF5BE74A4623460120414936F046
S2240053A0F5FF2A880120404936F0F0FF02376A8801203E4936F0EAFFB9469FE501203C4978
S2240053C02B4636F0E3FF38E550463A4936F0DEFFFEF7BBB9012038494A46234636F0D6FF17
S2240053E052E6D80709D40D200E2129F01BFE37F057F8002034F0FCFCFEE701202F4936F0D0
S224005400C5FF2F4B1B88D907EDD501202D494A46234636F0BBFFE6E727F06AFD2B1F18BF28
S2240054200123012D0CBF002303F00103002B3FF449ADB5F10D0318BF0123102D0CBF0025FE
S22400544003F00105002D3FF43DADBAF5616F81BF4FF48043C4F202035A6C42F4806288BF5F
S2240054605A642FE544F2FA12C1F20002137801203A4615490095013736F088FFFEF745B967
S2240054807078040084780400947804000C79040028790400DC780400F4780400B4780400E5
S2240054A018790400347804009477040048780400D0770400C077040084790400407904008B
S2240054C0AE4100105C790400A8770400A94BDFF8D4921B783A460120A749009536F056FF67
S2240054E0B9F800200120A54936F050FF0137FEF7F3B8FA200321A24AC82329F0B9FAFEF7A4
S22400550095B800216FF0030027F06CFE00216A2027F068FE00216E2027F064FE6FF0050081
S224005520002127F0E5FC00216B2027F05BFE6920012127F057FEDFF86C92C3E401209149A3
S22400554000222B4636F022FF0127FEF78CB801208D4936F01BFF10E49DF891304FF0010E3C
S224005560043BADF89AE08DF8A230FFF742BB20464FF0000B234685498DE8100836F006FFDF
S22400558088F82FB036F07AFEBDF99A40C8F858B0FFF7B5BA0122ADF89A20FFF74EBA0820A4
S2240055A07B49424636F0F2FEFDF7F5BF0120794936F0ECFEFDF7E5BF00204FF055316422E6
S2240055C03CF0DAF9FDF7D9BF0420022129F02AFDFDF7CCBF1F940DF19A0059461EAA1FABB9
S2240055E00124079437F032FD1E98FEF72DBE1F9B73B1BDF89A30B92B06D144F2BC1E0122AF
S224005600C1F2000E8EF80020D8B21FA937F05EFE1E9800283DF42CAC36F0B6FA00231E93B8
S224005620FDF726BC18461FA91EAADDF87C901E931F9328F05DFE33881BB10120564936F07D
S224005640A5FE1F984946012231F026FDFDF710BC642027F0C5FA00283FF41DA906205146FD
S22400566027F046FCFFF717B90C20FCF723FCFFF7A2B81120002127F03BFCFA202721404AEC
S2240056800A2329F0F5F9FEF784BC1E98FEF75ABF0120424936F07AFEFEF7B9BFD0B221A9D5
S2240056A037F0F0FE80B20790002833D121A804211EAA1FAB37F0CAFC1E98FEF7C5BDD0B2BF
S2240056C027A937F0F5FE80B2079018BB27A859461EAA1FAB37F0BAFC1E98FEF7B5BD229B88
S2240056E015A844F2E4141593C1F2000437F02CFF229A2368110EC2F30724C2F307409870BF
S224005700D9701A705C7001202549229A36F03EFEFDF7AEBB0DF19A00D9E7FA202121184AC5
S224005720234629F0A5F9FEF794BB072034F076FC4FF6FF71C0F223014FF4081036F03CFCFF
S224005740069C44F2462E44F26C200023C1F2000E4FF40811C1F2000021600370AEF8003079
S22400576006201FA91F9337F0B1FD072034F05AFBFDF77EBBFA4100107C7704009477040091
S2240057801094040068770400E87C0400AC7B0400AC75040020770400707B04007C7B04003C
S2240057A0507B0400D40100103388DA070BD544F2462EC1F2000EBEF90020BDF99A300120D1
S2240057C0A94936F0E3FDBDF89A30002B6BD044F24620C1F20000038044F24620C1F20000C6
S2240057E0B0F90010062037F01FFE44F24821C1F20001BDF99A40B1F900309C4232D0338829
S224005800DB070CD544F25E23C1F20003B3F9002001202346954936F0B9FDBDF99A4044F27D
S2240058205E2EC1F2000EBEF90030A3427DF420AB44F2682144F26C2244F2F8130024C1F273
S2240058400001C1F20002C1F20003086814701C7036F09AF944F2682EC1F2000ECEF800400B
S224005860FDF706BB3CF0BEF844F2F91E0B9CC1F2000E9EF8003090FBF4F144F21C2089B2F4
S224005880C1F20000022B018003D009B2072037F0CBFD44F248224FF0FF31C1F20002BDF984
S2240058A09A401180ABE7069C44F2462E2368C1F2000EA3F508139B09AEF800308CE7BDF9F8
S2240058C09A409CE7BDF89A30002B5DD044F25E20C1F20000038044F26821C1F200010868C2
S2240058E036F052F9338844F268240022C1F20004D90722600ED5069C44F25E2E2368C1F2F5
S224005900000EA3F50813BEF900209B090120584936F03CFD069C44F25E2E2268C1F2000E76
S224005920BEF90030A2F50812B3EB921F24D03FB1384636F059F944F26821C1F200010860C6
S2240059409DF86C2044F2F8141209C1F20004227044F2C01E44F2C41144F26C220123C1F2C1
S224005960000E0020C1F20001C1F200028EF8003008801370FDF77CBA44F26C240023C1F204
S22400598000042370FDF774BA44F24621C1F200010A8810045EBF44F25E23C1F200031A802E
S2240059A099D5069C44F25E2E2268C1F2000EA2F50812520A0132D20092B211B2B1F5006F97
S2240059C0AEF80020C4BF2B4A138084E744F2602EC1F2000E9EF800302BB9FA2C0CBF0524BD
S2240059E000248EF800404FF0000E02241FAB21461EAACDF87CE0CDF878E024A84FF0FE0EF7
S224005A008DF890E08DF8914037F020FB1EA91FAA9DF8A20037F0D0FA44F26021C1F20001D1
S224005A2008781FAA1EA937F0C7FA002F7EF449ACFEF74BBC44F26022C1F200021378043BA0
S224005A40DBB2012B3DF614AA47F29513C0F204031978042034F090F80220014634F0D4F942
S224005A60FAF714FDFDF704BAC0790400D8790400AC7904005E4200109DF89120022A08D0B8
S224005A80002120A836F004F99DF8913098427DF482AC022220A80DF19A0136F0F9F8022860
S224005AA07DF479ACBDF89A400FFA84FB584640F035FC3FF0F1FFC2A30CCB40F06DF9002222
S224005AC0C3F6F07200233FF089FE40F01DFB0A9908609DF8A200002C00F02181594637F0BF
S224005AE0A3FC00241F941E94FE241FAB02211EAA8DF8904024A803248DF8914037F0A6FA3D
S224005B009DF8A2001EA91FAA37F056FA0DF19A0002211EAA1FAB37F099FA002F7EF4D1AB1E
S224005B20FEF7D3BB9DF89120022A7DF434AC44F26024C1F200042378002B3DF499A927A9A0
S224005B4020A836F0A5F8052034F068FABDF89C102C6844F2AC1E08B20022C1F2000E0B4627
S224005B60AEF800102018114605E08418013384F84C109BB201321CB240F2AB1E7445F4DD7B
S224005B800520ADF89A3034F04DF944F2AC10C1F2000002888C4901204FF4D67336F0F6FB3A
S224005BA0FDF766B94FF0FE0E00241FAB1EAA02218DF890E024A84FF0190E8DF891E01F94D9
S224005BC01E9437F043FA15231EA91FAA18468DF8913037F0F1F944F208001EAA1FAB042138
S224005BE0C4F2040037F032FA44F20C001EAA1FAB0421C4F2040037F029FA44F21C001EAA7C
S224005C001FAB0421C4F2040037F020FA48F208001EAA1FAB0421C4F2040037F017FA48F270
S224005C200C001EAA1FAB0421C4F2040037F00EFA48F21C001EAA1FAB0421C4F2040037F0C5
S224005C4005FAFFF782B84FF0FE0E00241FAB1EAA02218DF890E024A84FF0110E8DF891E0D7
S224005C601F941E9437F0F2F916231EA91FAA18468DF8913037F0A0F91EAA1FAB0821534825
S224005C8037F0E4F91EAA1FAB0821514837F0DEF9FFF75BB89DF89140022C7DF47CAB22460C
S224005CA027A920A835F0F4FF2146FE244FF0000B1FAB1EAA8DF8904024A80524CDF87CB08F
S224005CC0CDF878B08DF8914037F0C0F91E231EA91FAA18468DF8913037F06EF9BDF89C0048
S224005CE045F67C01C1F2000101EB80001EAA1FAB042137F0ABF91E9B38469DF8A3400493FF
S224005D0035F072FF049B02908DE808042046594601224FF0FF3327F0B3FCFDF7A9B81FA9BA
S224005D201F9437F0D3FADCE69DF8A3003946FAF7EFFDFDF79DB84FF0FE0E00241FAB1EAA17
S224005D4002218DF890E024A84FF0030E8DF891E01F941E9437F07AF90E231EA91FAA1846F6
S224005D608DF8913037F028F946F6E823C1F200031A7880205B78174936F008FB1EAA1FAB73
S224005D800221154837F062F9FEF7DFBF44F2BE10C1F200000388002B3DF46AA8069C44F2E1
S224005DA0462E2368C1F2000EA3F50813C3F38F1319B2AEF80030062037F036FBFDF758B8F0
S224005DC0006AF84000000000F07A0400FC4D0010284D0010D87A0400E86A00109DF89130C2
S224005DE0072B7DF645A80422C54920A835F050FF0422C44920A835F04BFF44F2002E44F298
S224005E00DC10C1F2000EC1F20000DEF800200468B2F5001FA4F10A0134BF00230123D1F159
S224005E20000E4EEB010E0120B7498DE8104036F0ADFA00231F931E933FB1384635F0D4FE69
S224005E4044F2EC11C1F20001086044F20023C1F200031A68AA4C531C7AD0B2F1005F3AD89A
S224005E604FF6FF73C0F21F039A4226D944F2DC1EC1F2000EDEF800B0BBF10A0F15D1A2F5FE
S224005E80801E9E454FF0010CA0496046C4F800E094BF0023012372468DE8001836F076FA90
S224005EA0206800F10A0136F087F844F2DC100023C1F200000360FCF7DBBF9DF8A33044F22E
S224005EC0082122F00F02C1F2000122600B70FBF7B7FEFCF7CDBF4FF0FE0E1FAB1EAA02219A
S224005EE08DF890E024A84FF0F50E8DF891E037F0ADF80D231EA91FAA18468DF8913037F04D
S224005F005BF81EAA1FAB0421204637F09FF81EAA1FABF021206837F099F844F2DC12002126
S224005F20C1F2000244F2EC1E1160C1F2000E1E9ADEF8003000924FF08072019202939DF8F7
S224005F40A30001224FF0FF3327F09AFBFCF790BF002323600520049334F060F8049B4FF05B
S224005F60FE0B4FF0DB0CADF89C3002211FAB1EAA24A88DF891C0CDF814C0614C8DF890B01A
S224005F8037F064F80D231EA91FAA18468DF8913037F012F8204644F200240421C1F2000448
S224005FA01EAA1FAB37F052F823682A684C33D018D6211EAA1FAB37F049F8BDF89C30226859
S224005FC00133D6329BB22260012BADF89C30DDF814C0CAD9052033F025FF44F2EC11DDF854
S224005FE078E0C1F20001D1F800C002224FF0FF33CDF800E09DF8A3004FF0807E0021CDF872
S22400600004E0CDF808C027F03BFB0023236044F2DC1244F2EC14C1F20002C1F200041360DE
S2240060202360FCF725BF9DF8913053B120A80DF1A201012235F02CFE9DF8A200002841F03C
S224006040108045F64602C1F2000292F800E000240EF1020E1FAB02211EAA1F941E9424A8F0
S224006060FE248DF891E08DF8904036F0EFFF45F646040C231EA91FAA1846C1F200048DF8BC
S224006080913036F099FF23781EA918461FAA8DF8913036F091FF218829B189B21C481EAA0D
S2240060A01FAB36F0D3FF3846DDF878B09DF8A34035F09AFD00210290012220464FF0FF33BD
S2240060C0CDF800B0CDF804A027F0DAFAFCF7D0BE44F26421C1F200010B78012202FA03F36A
S2240060E0BDF89C1044F204220B40C1F20002C9B213706FF0040026F0FBFEFCF7B9BE00BF45
S22400610000420010DC410010907A0400B47A04007C50001001209F493A4636F037F90220DE
S224006120052128F07FFFFDF794B84946112026F0DFFE9DF8A120012002F00402964936F037
S22400614025F9FA202721954A4B4628F091FCFDF754B844F25E2EC1F2000EBEF9002001202A
S22400616000938F49002336F011F9FCF7DBBF01208C4936F00BF9FCF7CABD44F2E412C1F256
S22400618000021368CDF800A01A785F78997842EA0727DB7847EA014747EA0367019744F20F
S2240061A0E4174FF0640A49460423FA207E4AC1F200070294CDF80CA028F05AFC3B68197837
S2240061C05A789878DF7841EA022343EA004343EA0763009348467549754A764B36F0D6F8D7
S2240061E02046514633F024FDFCF718BD44F2AC11C1F200010888704FB0F5D27FBCF4A7ACA2
S22400620029686E4C00F14C028B1820804FF0010EF92044F2080401F802E003F1040C58705C
S224006220C1F200043C20987083F803E0C4F800C08A5C398872449200D2B252183A800022AB
S2240062405A60FCF784BC44F2AC12C1F200021188594FB1F5CC7FBCF471AC2A68584801F180
S2240062604C03D41801804FF0040CF82143F6FC7A02F803C004EB0C0E6170C1F2000A32219F
S224006280A17084F803C0CAF800E0D35C3A8801339B00DBB29B18002110223B80704640F013
S2240062A091FDDAF80010A2783B88012001914549009436F06BF8FCF741BC44F2AC1EC1F28B
S2240062C0000EBEF80000296800F14C03CA1838800124F920CC5450701E2090700220D070CC
S2240062E044F2100002F1040EC1F20000C0F800E0CB5C44F2AC17C1F200071B1939889B0099
S224006300DBB25B18977844F2AC1A4FF0000E9BB2C1F2000AA2F804E0A2F806E0AAF8003046
S224006320204629493A4636F031F8FCF7F3BB44F20C04214BC1F20004B4F900201B88012016
S224006340224936F023F8FCF7CDBB44F2AC12C1F200021288ACF80020FCF729BB44F2AC1041
S224006360C1F200000088ACF80000FCF7A9BA44F2AC10C1F20000008844F20401C1F20001C7
S2240063800880FCF724BA12B20120114935F0FEFFFCF709B9907D0400247D0400109404002B
S2240063A0CC7C040008770400F4760400FC7604001C400010B4C40400AC41001004400010EC
S2240063C0F83F0010AC7604009C76040078760400FC75040000231F931E93FE238DF89030E2
S2240063E0924801238DF8913040F020FD841CE4B28F488DF8914040F019FD431CE418E4B26D
S2240064008C488DF8914040F011FD431CE418E4B289488DF8914040F009FD431CE418E4B2D0
S22400642086488DF8914040F001FD00F1250202211FABA41824A81EAA8DF8914036F006FE30
S22400644004231EA91FAA18468DF8913036F0B4FD764840F0EBFC1FAB81B21EAA734836F08A
S224006460F5FD1EA91FAAA72036F0A6FD704840F0DDFC1FAB81B21EAA6D4836F0E7FD1EA9F9
S2240064801FAAA72036F098FD6A4840F0CFFC1FAB81B21EAA674836F0D9FD1EA91FAAA72038
S2240064A036F08AFD644840F0C1FC1FAB81B21EAA614836F0CBFDA7201EA91FAA36F07CFD3F
S2240064C033885B0708D55D4840F0B0FC5C4903465A4A082035F05AFF584840F0A7FC1FABC7
S2240064E081B21EAA554836F0B1FD1EA91FAAA72036F062FD44F66423C1F20003B3F9CC4020
S224006500B3F9CA204F49A7230EA800943AF084FE0EA840F08BFC44F6642481B21EAA1FAB94
S224006520C1F200040EA836F091FDB4F9C030A72245490EA83AF070FE0EA840F077FC1EAAD2
S22400654081B21FAB0EA836F081FDB4F9D030A7223E490EA83AF060FE0EA840F067FC1EAA93
S2240065601FAB81B20EA836F071FD15A803212EF02FF8159BA72236490EA83AF04DFE0EA8D0
S22400658040F054FC1EAA81B21FAB0EA836F05EFD169BA7222E490EA83AF03EFE0EA840F087
S2240065A045FC1EAA81B21FAB0EA836F04FFD179BA72227490EA83AF02FFE0EA840F036FC98
S2240065C01EAA81B21FAB0EA836F040FD1EA91FAA002036F0F1FC66E500231F931E9335F01F
S2240065E06DFD0446ADF89E40FE241FAB02211EAA8DF8904024A805248DF8914036F026FD9F
S2240066001EA91FAA9DF8A20036F0D6FC02211EAA1FAB0DF19E0036F019FD35F087FEADF8DA
S2240066209E000DF19E00FFF773BA00BFA44A0010644A0010844A0010044B0010C44A001022
S224006640347A0400447A0400507A0400487A0400587A04009DF8912000231F931E93002A61
S2240066603CF406AC012220A823A935F011FBFE229DF88C308DF8902004228DF891206B2BB3
S22400668000F26382DFE813F0530243023B02330225021B0212020B02610261020302FB011C
S2240066A0F3016102EB016102D801CE01BD01AF01610297018F0187017F017A0174016F0126
S2240066C065014F0161026102360161022E0161026102610261022701610261026102610230
S2240066E0610261026102610261026102610261026102610261026102610261026102610265
S224006700610261026102610261026102610261026102610261021C0161026102610261028A
S22400672061026102610261026102610261026102610261026102610261026102180161026E
S22400674061026102610261026102610209010401FC00F400E700C900B500D100AD0085007B
S2240067609DF89130002B3CF483AB20A80DF1A201012235F08DFA1FB1384635F035FA814694
S2240067809DF8A2109DF8A3004A462FF0A9FAFCF76FBB43F6F872C1F200021288ADF89C20B3
S2240067A01FAB02211EAA24A836F050FC1EA91FAA9DF8A20036F000FC9DF88C001EA91FAA47
