S017000042696E732F4D333033352E50524F442E73726563D7
S224000000DCFF001001010000E9000000ED000000F1000000F5000000F90000000000000039
S22400002000000000000000000000000041040000FD0000000000000011040000E9A60200D3
S224000040B1010000F1C90200B10100004DC50200B101000039AB020035AC020035AD020008
S22400006039AE0200B1010000A5C20200E1C30200B1010000B1010000B1010000B101000009
S224000080B1010000D5A60200B1010000B1010000B1010000B1010000B1010000B101000000
S2240000A0B10100007DBC0200E9D40200B1010000B1010000B1010000B1010000B101000015
S2240000C0B1010000B1010000B10100003DAF0200B1010000B10100008DCB0200B1010000A7
S2240000E0B101000000000000FEE700BFFEE700BFFEE700BFFEE700BFFEE700BFFEE700BF71
S224000100214B224900B58B4206D2214A52F8040B43F8040B8B42F9D3264827494FF00002E3
S2240001208842B8BF40F8042BFFF6FAAF48F2FF424FF08043C0F21E025A6003221A70AA22F0
S2240001401A7255221A721D4880F30988114B124A186812499342086005D21149096843F8F5
S224000160041B9342FBD30F4B0BB100E000BF0E4B13B100E000BFFEE70C4B13B100E000BFA8
S224000180F9E700F0ADF9F6E700000010F4000010095703008CC50010DCFF0010FC550010E3
S2240001A000000010000000000000000000000000FEE70000F400001098A200108CC7001094
S2240001C000000000000000000000000000000000000000000000000000000000000000001A
S2240001E00000000000000000000000000000000000000000000000000000000000000000FA
S2240002000000000000000000000000000000000000000000000000000000000000000000D9
S2240002200000000000000000000000000000000000000000000000000000000000000000B9
S224000240000000000000000000000000000000000000000000000000000000000000000099
S224000260000000000000000000000000000000000000000000000000000000000000000079
S224000280000000000000000000000000000000000000000000000000000000000000000059
S2240002A0000000000000000000000000000000000000000000000000000000000000000039
S2240002C0000000000000000000000000000000000000000000000000000000000000000019
S2240002E000000000000000000000000000000000000000000000000000000000FFFFFFFFFD
S22400030000B58AB00AA8362340F8283D41F6F1736846C1F6FF7305A9984706980AB000BD2D
S22400032010B44FF44043C4F20F034FF40242C3F8C420D3F8A02142F02002C3F8A021D3F819
S224000340A0114FF440424906C4F20F02F7D54FF4D853C0F2B70301219842C2F80C1138D982
S22400036046F23A0414604FF460630924C2F88440C0F22773C2F88010AA21C2F88C10B3FB78
S224000380F0F05521C2F88C10002829D0A0422DD14EF2C0123A244FF48470C0F2E4024FF429
S2240003A040431A49C4F20F030A60C3F804011A461C60D2F888305B05FBD54FF44043C4F256
S2240003C00F030422C3F8A8210122C3F8002110BC7047C2F804113A2111600C4A1360ECE7A3
S2240003E045F23A0440F201101A46D8E793FBF0F24CF66B23511EC6F65F33A3FB0143DC0D59
S224000400240340F4807044F03A04C8E798A2001072B6EFF3088020E9F00F2C4981F308880E
S2240004204FF000014DF804ED62B626F0B3FF72B65DF804EBB0E8F00F80F3088862B670478C
S22400044072B6EFF3088020E9F00F204981F308884DF804ED62B626F0C9FF72B65DF804EBF8
S224000460B0E8F00F80F3088862B6704700B527F09DFF72B6164880F30888A0F5806015494A
S224000480154AA2EB0101A0EB01001249134AA2EB010300EB0302014640F0010000F002F842
S2240004A0FEE700BF074C084D00B5AC42034605D254F8040BAC4241F8040BF9D31046984796
S2240004C0FEE700BFB0320300983E03008CC70010DCFF0010B0320300983E0300983B0300D3
S2240004E0594A5A4B80B51A602AF034FA584B00221A80584B584C4FF460601A800125C0F29D
S22400050027702570FFF70CFF00202AF033FA25F0D3FF4FF44043C4F20F03D3F8C41000220C
S22400052041F00051C2F20802C3F8C41015632CF0A3FC2CF07FFA2CF035F82378002B7BD1C4
S224000540052029F0E1F902204FF4165100222AF079FD01204FF4E12100222AF073FD0020CE
S22400056002464FF416512AF06DFD042042F6A00100222AF067FD2EF079F827F013FF374D27
S224000580AF1D6E1C15F8018F4046B8F1000F08D026F02AF806EB08131B7D0A2B47D0BD4226
S2240005A0F0D10120022126F0C5F82D4B01221A701A785AB14FF44042C4F20F024FF47061FC
S2240005C0C2F8C01030BF18780028F9D14FF44045C4F20F05002626702BF040FE2CF044F81C
S2240005E02BF080FAD5F8C420334622F00052C2F20803C5F8C4201E632EF074F82CF074FCDC
S2240006002AF044FA4FF46D43CEF200031A6942F004021A6140F60373C5F8C03030BF4FF00A
S2240006208043AA221A721E7227F0C0FEFEE74046022125F093FFB2E700202BF033FB284690
S2240006402BF030FB7CE700BF9CA20010844000108840001090410010E0410010973E030049
S2240006608A40001000B581B001A941F8040D0220694626F03DF9009801B000BD00B581B0B8
S22400068001200DF1030126F017F99DF8030001B000BD00BF2DE9F043734C85B02378FF2B45
S2240006A068D00020694601AA1EF038FC2378054643B10099019A6D4B0131013283E80600A5
S2240006C00020207002A9E52028F070FE03A90446E62028F06BFE012801D0012C7BD1DFF868
S2240006E0949141F6FF73B9F800209A4200F0A780009A01995D4B1DB91868904200F0A68049
S224000700B9F800501A605960002D36D1584F2024A0460126C0F21404554DC0F2180815E041
S22400072028690099AA69411A0029B8BF4942914208D268690199EA69411A0029B8BF494200
S22400074091426FD30136B6B244450DD02022A4F1200047492EF088FD3B7820349A1D012B66
S224000760D2B2F1D0042ADBD90023A9F8003005B0BDE8F08301232370F9E7ED04ED0C3C4F80
S224000780002D6DD04FF4A0142022394920462EF06BFD3B78691E9A1DFF2BD2B2B7D0042AEF
S2240007A098BF8DB22034002DEED1042AAFD83969009ABB698A1A002AB8BF52429A422C491F
S2240007C0A5D24869019ACB69821A002AB8BF52429A429CD2CBE7E72004A928F0E7FD049B01
S2240007E013B942F210730493009A0299891A0029B8BF49429942019906DA0398401A002865
S224000800B8BF4042984226DBDFF8689041F6FF73B9F8000098427FF46DAF0023A9F8003079
S224000820124B6DE7F604F60CFE2BA9F800609ED0C3F1FE0346EA43360E4B1E8097E7002279
S224000840A9F800200199009A084B59E7586888427FF456AF8BE7074B41F6FF721A8086E796
S2240008603A780632D2B2A0E76042001000010010384200106842001044F28403C1F2000304
S2240008801B6800229A80DA809A60DA601A615A61704700BF2DE9F041C5B2002383B0022D17
S2240008A00193009300F0A08002238DF808301E238DF8093002216A4601AB02A828F032FBAD
S2240008C02AF02CF94C4B4D4C1B78A060013BDBB2022B88BF4A4B494F89BF1B686FF0090371
S2240008E018785E7881BF9978DA7840EA062343EA014388BF43EA02634FF0030E6A46E3600A
S2240009000B2101AB84F810E005F001064FF0270E07F1080084F811E0A67428F003FB05205C
S22400092026F004F8374B1B68DA88002A4BD09988B1FBF2F23A75986848F68901C8F6880185
S224000940A1FB00206269400960F317226261D8682D4AA1FB0071C1F34F11080A2076E1759D
S2240009601F69A069002167F31720A061187DE769E076D3F81480D2F8C4C0B2F8C03092F822
S224000980C7005FFA81FE07F07F474EEA0C2247EA182784F825302123E7612262E17784F86B
S2240009A0240084F82630194813216A4601AB28F0B9FA56B9052025F0CBFE022D0CD00098CB
S2240009C003B0BDE8F0813A75B5E7FFF755FF052025F0BEFE022DF2D104216A460DEB0103FB
S2240009E00B4828F09FFAEAE704238DF8083020238DF809305EE700BF72420010000100105F
S224000A000042001084400010144A0010140100102855001070B500B287B028B1AA4B1C880B
S224000A2014F4806400F0AB802EF07AFD002402200C211DF083FF0590002800F08E80002335
S224000A40037043708370C37006230371059E022343710323B371234624B1BDF90C30002B87
S224000A6018BF02230025F3716620294601224FF0FF330096019502951DF0AEFF61200DF167
S224000A801A0128F0A9FC0646002869D1BDF81A30DA0467D502200D211DF050FF0590002849
S224000AA05BD0067046708670C67006220271059B0222427103229A71224624B1BDF90E204B
S224000AC0002A18BF0322DA7100210093BB2001224FF0FF33019102911DF07EFF4C200DF164
S224000AE00E0128F079FC10B10023ADF80E30642003A928F071FC10B10023ADF80C30BDF85F
S224000B000E309B0705D5BDF80C3013F4805300F0C28002200D211DF011FF0590E8B100235B
S224000B20037043708370C37006220271059B0222427103229A71224624B1BDF91020002AD5
S224000B4018BF0322DA7100210093222001224FF0FF33019102911DF03FFF204607B070BD05
S224000B60ADF81A5007AD002345F8083D2946162028F0FCF91720294628F0F8F9AEE70B20E7
S224000B8003A928F029FC08B1ADF80C400C200DF11A0128F021FCBDF81A3018B10023ADF8B3
S224000BA01A300023BDF90C201BB201249A42A4BF4FF0FF33ADF80C300DF10E01A8BF0024C6
S224000BC0172028F009FC10B10023ADF80E3016200DF11A0128F000FCBDF81A3018B10023A7
S224000BE0ADF81A300023BDF90E201BB29A42A4BF4FF0FF33ADF80E3004A9B8BF01246420CD
S224000C0028F0EAFB0546D8B9BDF81030D90417D5212004A928F0E0FB08B1ADF81050202059
S224000C200DF11A0128F0D8FBBDF81A3018B10023ADF81A300023BDF910201BB29A4206DB3E
S224000C404FF0FF33ADF81030002C3FF4EDAE012210461E4928F040F803A827F0BDFD044649
S224000C601B490120224628F037F8002C3FF4DFAE03A828F055F8BDF80C1059BBBDF80E1087
S224000C80E9B9BDF8101000293FF4D1AE09B2202028F0D4FACBE607AD45F8083D29461F2087
S224000CA028F064F92946202028F060F92946212028F05CF92220294628F058F94DE709B274
S224000CC0162028F0BBFADCE726420010743F0300903F030009B20C2028F0B0FACEE700BF2C
S224000CE0F0B5B54D4FF6FF722B8883B0934238D01A051C0B120DADF80A40A41829F00EFF99
S224000D004AF28053AD4ACAF63C531268C3180093577811789678D07841EA072141EA06411E
S224000D2044F6251241EA0061C2F29242A2FB016044F207560F1A00EB5700CCF22E26800893
S224000D40A6FB0373C0EBC000091A89B201EB1343A2FB03129B1A02EB53029208A2420092B3
S224000D604AD80C250124284602A928F035FB0135002808BF00240F2DF5D11F25284602A9ED
S224000D8028F02AFB0135002808BF0024232DF5D102A9162028F020FB02A903461720002B48
S224000DA008BF002428F018FB02A903460A20002B08BF002428F010FB98B9BDF80830D3F1BF
S224000DC0010338BF00231C4011D129F0A7FE46F23F73C4F6A333984200902FD820B203B084
S224000DE0F0BD012300261C40ADF80860EDD0002023F056FE0024F1E72888BDF80A3000F4BB
S224000E0070401BB1013B9BB2ADF80A309B186C4C03432B8021686B4B03221A800029A0D1F5
S224000E20DF2028F02BFA0190002800F0CF8004F0F5FB2060644B08221A7092E74BF2C53304
S224000E40C9F2A213A3FB00734AF6AB22DB0ACAF6AA22A2FB031244F207541509CCF22E241D
S224000E60A4FB006405EB450543200DF10A01A3EBC50528F0B1FABDF80A30240CDAB2172ABD
S224000E80ADB205DD03F47F4303339BB2ADF80A30B3F5006F02D90327ADF80A70BDF80830C9
S224000EA0A3425ED0002023F0FBFDBDF80A30BDF8082013F47F4017D1944276D00132944250
S224000EC071D003200023019323F0EAFD0120FFF7A1FD002862D021B20A2028F0AFF900200C
S224000EE023F0DEFD012479E7944238D0180AC11CC9B2062901D9011FC9B2D01F8442E0DB0E
S224000F00D01D8442DDDC009E44F20750CCF22E20A0FB067044F62516000CC2F29246A6FB6A
S224000F200076871B06EB5706B608C6EBC606801BC0B288423BD042F29340521A631AC9F27E
S224000F40492080FB031580FB0260D917ED188318D217C1EBA501C2EBA3039942B1D1002414
S224000F603CE7009944F20753CCF22E23A3FB01239DF80A004FF4A3421B0CC0F201024FF469
S224000F80616606FB00F002FB131398428AD200F5167083422CBF0020012084E70A2001A990
S224000FA027F0E4FF9BE79D428BD2044616E7DBB29D4286DA002411E714420010004200108D
S224000FC078420010204200101642001046F2590303A8CEF2ED2340F80C3D224601AB04219F
S224000FE0684627F09FFF03A841F2EC3320F8023D0221224601AB27F095FF1BE740F200130C
S224001000C1F20003188D003018BF0120704700BF03B2022B10B51DD0022027F0BDFD032424
S22400102027F0DCFD2046013425F078FB072CF7D1032000211DF0AAFA152000211DF0A6FAA5
S2240010400020022125F09EFA27F0C8FD002025F065FBFEE700216FF003001DF06DFB00212C
S2240010606A201DF069FB00216E201DF065FB00216FF005001DF08AFA00216B201DF05CFB2E
S224001080692001211DF058FBC6E700BF2DE9F04F634F48F689013B88C8F688011AB2002A05
S2240010A0BFBF03F5F0439BB21AB23B80B2F5F04FC1BFA3F5F0439BB21AB23B80531E81FBBC
S2240010C00302D817D218C0EBA232C2EB0212A3EBC22493B0002604F50A344FF6FF79DFF845
S2240010E05481DFF83CB1A40111961096C0F2A7094FF0FD0AD8F800304C4588BF4FF40A048F
S2240011004022022501369C42204669468DF848A08DF84950F6B214446FD02EF0A5F89DF8FD
S22400112018E029460EF11B0E10AA11AB12A88DF849E027F0F7FE294610AA11AB384827F0B5
S224001140F1FE9DF8491010AA023911AB6846C9B227F0E8FE3B8801339BB21AB2B2F5F04FE0
S2240011603B80C4BFA3F5F043ABF800300F2EC1D100242C4B2C4A1B78106803EB43032B4AFA
S2240011809B001370054610B127F09CF9054602200E211DF0D3FB119000283FD0109BDFF8A3
S2240011A09880C3F30741C3F307271A0E8170C2700370477098F80030119F0622027103F0BD
S2240011C00F0305224271BB710023FB713846109727F0B8F980B2030A38727B7298F8000010
S2240011E0109900F00F0041F08071BE722A461DF0B3FB20B213B0BDE8F08F294610AA11AB27
S22400120012A827F08FFE11AB0548294610AA27F089FE074B3F8801241F80AAE70124E8E739
S22400122070420010F041001078420010EC4100106C4200103042001016420010CB1C13EA13
S224001240210338BF0B469B10002B30B413DD0B4A0568126895420ED1002203E050F8044FE1
S224001260AC4202D101329A42F8D1C2EB82729000081830BC70470020FAE700BF000000100C
S2240012802DE9F041074683B00D460220102116461DF054FBFFB2044648B30623037104236A
S2240012A0437113234FF0000883710223C37180F8008080F8018080F8028080F8038080F84D
S2240012C0088080F80980304627F0FCF80646380940EA071701224FF0FF33F8B241468DE8F0
S2240012E070001DF079FB034B012283F82A2003B0BDE8F081000100102DE9F04F3E4F8AB0CC
S2240013003B68B3F5806F34BF99464FF48069B9F1000F67D0DFF8E480DFF8E4A04FF0000BC0
S224001320B9F1F00F34BF4D46F025ADB208AB022107AA6C1D09A86FF00106CDF820B0CDF884
S2240013401CB08DF824608DF8254027F0EBFD0D2007A908AA8DF8250027F09AFD274804214F
S22400136007AA08AB27F0DEFD15B344F21C23C1F2000318682EB2102EA8BF1026B6B234B296
S22400138003A922462DF070FF08ABF1B203A807AA27F0C8FD3B68D8F80000AD1B1B1B201871
S2240013A0ADB2C4EB09093B60C8F80000002DE1D144F22326DAF80000C1F20006079D347874
S2240013C027F080F84FF08073019302900021204601224FF0FF3300951DF0FEFAB9F1000FB3
S2240013E09ED13B6823B9064B186808B127F03AF80AB0BDE8F08F00BFF84100101C420010D3
S2240014000842001070B5052384B08DF8003003208A238DF8013025F089FA02226946D62050
S2240014202BF056F902240020012125F0ABF8002522466946D6208DF800408DF801502BF035
S22400144047F92846012125F09DF801261B2322466946D6208DF801308DF800602BF038F9B4
S2240014602846314625F08EF83723D620694622468DF800508DF801302BF02AF9032025F07F
S22400148067F904B070BD00BF2DE9F04F034690B0DBB203200B9325F049FA0CAA0B234FF49C
S2240014A08071D6202BF050F9032025F051F99DF83A309DF833C09DF832E09DF836409DF88C
S2240014C031709DF830609DF837509DF835809DF834909DF839A09DF838B043F6AC72C0F28E
S2240014E003020A93F9200B9B27218DE800500594029703960495CDF81880CDF81C90CDF882
S22400150020A0CDF824B01DF03FFF0121002025F039F805238DF830300320BA238DF83130A7
S22400152025F004FA02220CA9D6202BF0D1F80020012125F027F801240B2302220CA9D62048
S2240015408DF831308DF830402BF0C2F82146002025F018F800230CA98DF83030D620B7239D
S22400156002228DF831302BF0B3F8032025F0F0F8102006211EF0D6F910B0BDE8F08F00BF9F
S2240015802DE98048BE4A002313805380BD4D44F22C2044F20C2144F2F21244F2F41444F23A
S2240015A0F81744F21C2C44F2082EC1F20001C1F20002C1F2000CC1F2000EC1F20000C1F2DE
S2240015C000044FF41676C1F20007A4B00B800370138023803B60CCF80030CEF80030AE8539
S2240015E029F09CFA09A928F0E9F9099BB3F5FA6FC0F2CE856120A44927F0EEFE03B22BB1CF
S22400160044F2DE110020C1F20001088026F0F2FE44F2DE12C1F20002034644F20024108828
S224001620C1F200042360C0F343101DF085FB44F2DE17C1F20007064638881DF09DFB924C64
S22400164002463146002029F0FDFC6420214627F0C3FE002840F08F8544F2DE1EC1F2000E72
S224001660BEF8000044F2DE14C0F343101DF064FBC1F20004064620881DF07EFB3146024625
S224001680022029F0DFFC44F20020C1F200000368472019785E789A7841EA0621DB7841EA0B
S2240016A0024242EA036344F27222B3F1FF3F0CBF04230023C1F200022146137027F08CFE4E
S2240016C0B0B144F20026C1F200063368197858789A7841EA0021DB7841EA024242EA0363E1
S2240016E001331CBF4FF0000CA4F800C000F00F810820664927F070FE002800F0F98044F28C
S224001700E8104FF0000EC1F20000A0F800E004205F4927F061FE28B144F214230022C1F2F7
S22400172000031A8044F2202644F26E2744F2172C0024C1F20006C1F20007C1F2000C0720CA
S224001740544934803C808CF8004027F045FE58B144F2342E44F21720C1F2000E0223C1F2B2
S2240017600000AEF80040037006204B4927F034FE50B144F26A2244F234230021C1F20002E2
S224001780C1F200031180198044F26A24C1F20004B4F9003044F26C27B3F5F04FC4BF3E4B50
S2240017A04FF0000C4FF0FF36C1F20007C8BFA3F800C03E8044F2702E44F27C2444F278268D
S2240017C044F2162744F2EC1C0023C1F2000EC1F20004C1F20006C1F20007C1F2000C7F20E7
S2240017E00DF18601AEF80030237033603B708CF8003027F0F1FD98B9BDF8860030F090FFC4
S22400180030F050FB25A30CCB30F0CCFC0022C3F6F072002330F0E8F930F07CFE214C2060E9
S22400182000201DF011FA4FF48043C4F202039B6C44F28C0623F07F43C1F200060320336097
S2240018401DF038FD3E2020A927F0C6FD10B10027ADF88070BDF880306FF0090003F00F03F1
S22400186019B2ADF880301CF091FE452020A927F0B3FDC8B14FF0000CADF880C014E000BF57
S224001880D441001000010010DE410010E841001014420010344200106A420010006AF8405B
S2240018A000000000E8000010BDF8802044F2222ED3B2C1F2000E19B28EF800206FF0040036
S2240018C0ADF880301CF062FE4FF08043AA221A72552200201A721EF009FA83B218B245F27E
S2240018E0D841C1F2000100280B8013DDFFF790FB44F2E811C1F200010B88002B3FF407AF68
S2240019002EF0BEF92D492E481DF084FBFFE6FF272780EDE62BF00EFB002842F001870320C7
S22400192001211CF033FE082000211CF02FFE152001211CF02BFE44F2E812C1F200021388B5
S224001940002B02F0E586DFF884804FF4FC71D8F8000027F0E3FDD8F800301868002842F0CE
S224001960D186D8F800309A694AB948F2F45149F64132C2F20601C0F26B5219635A632BF056
S22400198011FF06462BF014FF07462BF01DFF044600944AF2E8143B460A4901203246C1F2FE
S2240019A0000427F099F9B4F90030EBB14AF2E817C1F20007044C07F13C060BE0183F030038
S2240019C030420010BC3F0300E6A1001084400010B44209D034F9022F0120C54927F07CF92F
S2240019E0B4F90230002BF3D101201DF02DF95C20C04927F0F1FC44F2262CC1F2000CBCF83C
S224001A00002044F2762E120AC1F2000E8EF8002012B1531E8EF80030B64C4120214627F079
S224001A20DBFC002840F0918323889B0640F18F83B14C0694207044F2E4170024C1F2000799
S224001A4021466A202C8585F82E4085F82F4085F82A403C801CF070FEA84B21461C606B208A
S224001A601CF06AFE21466C201CF066FE492021A927F0B2FC03B21BB14FF0030CADF884C0DA
S224001A805A209F4927F0A8FC18B94FF0030EADF884E0BDF88400002100F007001CF052FB50
S224001AA04620974927F098FC28B144F218210020C1F20001088044F21822C1F200021388CC
S224001AC06FF00500C3F3C1235B00591CADF884301CF05CFD4FF0FF302BF016F845F2D84689
S224001AE08310C1F20006DFF838B2864C44F2640E44F2660044F258014FF0FF3C00273380DB
S224001B00C1F2000EC1F20000C1F200017E4EDFF814A2DFF81492ABF80070AEF800C02780A2
S224001B20A0F800C0A1F800C00022D8F800309F1897F84C1021B3B2F5D67F21D202F14C0029
S224001B4019184A78FA2A00F0DC818A781E2A00F0E581322A00F08E82142A18BF1A5C00F0A5
S224001B604582BBF80030013203EB8202D8F8003092B2ABF800209F1897F84C100029DAD194
S224001B8044F2262C44F2660EC1F2000CC1F2000E0120BEF90030BCF800205C4927F09CF862
S224001BA044F22620C1F200000388594C9E0504D5B4F90030013302F0A28344F25802C1F2DA
S224001BC0000244F25804B2F90030012032224F49C1F2000427F080F8B4F90030013302F03B
S224001BE05F854C4A002344F2E8171380C1F20007494A44F2602C398804201380C1F2000C35
S224001C0002224FF0210E8CF800206B602B60A5F830E06886A886002942F0268500239AB2F5
S224001C2024AC013344F25827002604EB4201C1F20007042B27F8126021F8406CEFD144F259
S224001C401A2E44F2FC12FF23C1F2000EC1F200024FF0070C44200DF182018EF800301370EB
S224001C60ADF886C027F0B8FB002801F0FC852423ADF88230BDF88230642244F2640402FBEA
S224001C8003F3C1F20004248844F26C06C1F20006032006213480ADF8823024F04BFD0B20A9
S224001CA02021002224F0F8FD14210A461B231B4824F016FD0523482021A985F8543027F0F4
S224001CC08BFB002801F0C7855B26ADF88460BDF884300A2202FB03F3452020A9ADF88430FB
S224001CE027F07AFB10B30027ADF880701EE000BFE03F0300264200101B420010D8410010E7
S224001D00184200107442001060400010F83F0300664000100E42001068420010380100108B
S224001D20DC41001068400010644000109DF880306FF0040019B2ADF880301CF027FC44F2D8
S224001D40282C44F2242E44F2622044F2042144F264220023C1F2000CC1F2000EC1F200007D
S224001D60C1F20001C1F20002BF4CCCF80030AEF8003003800B801380FFF744FB0894BB48AB
S224001D8024F014FE1B2800F023822028F7D10B2018A924F005FC189C002C01F0958314F042
S224001DA0007708BF3E4640F03C85204631461CF027FF84B204F00F03012B00F24D84DDF85C
S224001DC060A005222AF04F431BA816A904F0010407941B9326F0CAFB052840F0C6839DF851
S224001DE05930002B40F0C1838DF88E3099469DF85C305A1E8DF85C20002B71D002221BA8A7
S224001E001FA926F0B3FB0228044640F0AE839DF87C30122B00F0AB8600F2C2810C2B00F25F
S224001E208F830B2BC0F09F840020322124F0AAFB9DF87D2000211BA826F098FB2046092107
S224001E401CF07CFD1990002899D00023037043708370C370199E06233371042322461FA974
S224001E607371B01D0B238DF87C308DF87D4031F089F91EA9602027F0AFFA032319461A467C
S224001E8030B9BDF8783003F00702D1B2C3F302239DF85800ADF87820040944EA0010022204
S224001EA08DF88E208DF88F00317273721FB1384626F008FB8146199B9DF88E208DE80804A8
S224001EC09DF88F004FF0FF330021CDF808901CF083FD9DF85C305A1E8DF85C20002B8DD13B
S224001EE02B8D3BB144F2E410C1F20000038843F0040303801B98002800F0B38326F0B2FA51
S224001F00AFE31A5C12F0030F42F0F78392081A54F9224A708A781E2A7FF41BAE44F2660EE7
S224001F20C1F2000EBEF90030013367D144F26400C1F20000B0F900305F1C00F014818F884B
S224001F40D8F80000ADF84070B1F806C00A1DCAF8002003F14C01ADF842C0425C543301329F
S224001F6041189200C018CDF810C031F014F9B9F80020D8F8001013B24C33CB183068191D30
S224001F80CAF8001044F2660102F1080E0830C1F200010A80A9F800E030609F80DDF810C079
S224001FA0A3F806C044F26607C1F20007B7F90030D8F800204C33D1181E2088700220C87096
S224001FC0D05C012802BF208840F00800208001200431D054CAF80010D25CBBF800301218DF
S224001FE003EB820292B2ABF800209EE544F26407C1F20007B7F90020013202D0BBF80020DD
S22400200093E5BBF8002027881FFA82FEBEF1080F47F00107BFB2316008BF1549278004BF92
S22400202047F002070F80A9F800E0195C3E2901BF218841F004012180195C4B1C02EB8303E0
S224002040B3F5D67F9CBF9AB2ABF800207FF66DAD44F2640E4FF0FF3CC1F2000E0023AEF8D9
S22400206000C0336061E500BFE8000010283F03007442001044F25800C1F20000B0F90030C1
S2240020800133BBD144F26402C1F20002B2F900707B1C01F03B8544F25C0C0B1DC1F2000C42
S2240020A0CCF800301946102210A831F06BF8D8F8003007F14C015A5C07F160000132591863
S2240020C01818920031F067F83068B9F8002000F1140CD8F80070C6F800C011B244F2580C24
S2240020E04C31C1F2000C7B1802F1140EACF800201E229A70A9F800E0042244F25C0EDA7058
S224002100181DC1F2000E01237B541022CEF8000010A931F037F844F25802C1F20002B2F9E0
S2240021200030D8F800204C33D118042044F25C0C0F184FF0320EC1F2000C81F802E0C87058
S224002140D054CCF80070D25C0BE50E2020801F4E0123337000204FF0FF314FF4FA72069628
S22400216028F0A6FC67E4BBF8002044F26603C1F200031A8016E76120214627F02DF9002849
S2240021803FF46AAA4FF0000CA4F800C0FFF764BA48F2F060C3F66E0028F0C6FCFFF72ABAD3
S2240021A01A2B00F24282192B80F06082142B00F0A085C0F03285182B00F035849DF87D20B0
S2240021C01BA8002126F0D2F911E600BF1B42001044F2E821C1F20001B1F900300022B3F57B
S2240021E0967F85F82A2000F3FD8244F2F812C1F200021368002B40F0F28295F85430013B00
S224002200DBB285F85430002B7FF4B9AD44F22823C1F200031A68B54944F22824BDF8863083
S22400222001320520C1F2000481F85400226023B35C1EAA224FF080431A72A4B255221A7238
S224002240ADF88640CCB90726ADF886602746652644F2582CC1F2000C0DF1500E34F80C309C
S2240022603EF804209A4200F0CB8714AA1353023401370136082CBFB2EAD12B8D13B19B4A57
S224002280013B138544F22024C1F20004B4F90030974C012B00F3A982002BC0F24E8744F242
S2240022A07C2CC1F2000C9CF8003043B344F2162EC1F2000E9EF80030082B01F0DA8244F241
S2240022C0EC10C1F200000478013CE4B20470B4B944F2F011C1F200010A88013292B213B261
S2240022E0052B0A8002F32282012B06DD44F27022C1F2000213880F3B1380FEF7C7FE0020A8
S2240023001CF084FF044603201CF0D4FF44F6841EC1F2000EBEF8003040F64572DB0B9442B1
S2240023208CBF002303F001030646002B00F04482B4F57A7F40F2408244F20420C1F2000063
S22400234002886C4B002A40F06C8644F26421C1F2000101220C801A8076201BF077FF30B13B
S22400236044F22422C1F2000213880133138011201BF06CFF002800F0398440F252339E42B2
S22400238000F2B58744F2622E4FF0000CC1F2000EAEF800C040F21801C1F200010B785B06EF
S2240023A017D444F22822C1F2000213680A2B10D928F0B4FB46F24073C4F6A3339842C1BFC3
S2240023C040F21807C1F200073B7843F04003C8BF3B7040F2523305209E4240F2E08324F02D
S2240023E0A5FAD8F8003005209A6801329A6024F0AFF9BDF882308BB9BDF88430B3429CBFC5
S2240024004FF0040CA5F832C008D96B8E33B1013B364A9BB25386002B02F087856D201BF078
S22400242015FF0646002800F0EB82D8F80030FF2283F84020052024F079FAD8F800309C87E7
S224002440052024F085F968201BF000FF002840F0D38244F22621C1F200010B88DF0540F1A8
S2240024601886AB8D013B9BB2AB85002B00F01186B3F5157F07D144F69A12C1F200021388CC
S22400248043F02003138074201BF0E0FE68B944F26124C1F2000423783BB144F69A16C1F21A
S2240024A00006338843F400633380069F44F2612C3B78C1F2000C8CF80000002B40F02985A2
S2240024C02B8E03F00302032A00F0608403F01F021F2A31D083B1013B9BB22B8663B9034B0F
S2240024E04FF4347EA3F830E006E000BF000100102042001004420010052024F017FA44F239
S224002500222044F68413C1F20000C1F2000344F2762401781A88C1F2000423784A4042FA37
S22400252003F3D80704D5D8F80030DA6A0132DA62052024F00DF922E4FEF7D2FB2B8EC9E7C5
S2240025400E2B00F09F82C0F084820F2B7FF436AE9DF87D200E2A0FD01BA8002126F006F8A4
S2240025609DF87D3098423FF442AC1B9825F07AFF384625F077FF02E407211CF0DFF9199034
S22400258000283FF4FCAB0024047044708470C470199B0E220626991D1E715A711BA825F0C8
S2240025A0E5FF0E28E1D12046012126F041FA1A90002802F0C084199BC0F30741020EC0F3F7
S2240025C007249970DA7018705C70199825F0BAFF9DF858300246190941EA03130220082192
S2240025E08DF88E208DF88F301CF0A8F91A9000283FF4C5AB199B1A0EC3F30724C3F3074182
S224002600C2700370447081701A9B02225A7110221E719A719DF88E201993DA7101238DF818
S2240026208E30002F7FF443AC45E4FD2B00F0AB81FE2B00F02981202B7FF4C0AD01239DF832
S2240026407D2000211BA885F82F3025F08FFFA86D2CF030FBFFF7CBBB189820F04F4025F039
S22400266001FF384625F0FEFEFFF789BB9DF87D60012E41F23382012B40F0DA834FF0000CFF
S2240026800023022EADF888C0324600F0E1839DF87C10012903D0B21ED2B28DF87D201BB2C8
S2240026A0181C18BF01207F2BCCBF002000F001000146002800F0F384022A08D000211BA8E5
S2240026C025F054FF9DF87D3098427FF44EAF0DF18A019DF8880026F07FFE02221BA81EA91A
S2240026E025F044FF02287FF440AFBDF8882013B27E2B3FF77CAB9DF87C30BDF88A40192BC5
S22400270002BFBDF878302343ADF88A300ED01A2B02BFBDF8783024EA0303ADF88A3005D048
S224002720022B04BFBDF878C0ADF88AC0BDF98A10D0B226F083FDBDF98830452B02F02680EA
S2240027403E2B02F01980462B02F03880472B7FF44EABBDF88A6044F2DE1CC1F2000CACF855
S2240027600060FFF744BB022B80D0032B67D0012B7FF424AD079E002E3FF420AD9DF87D6068
S224002780002E7FF475AF1FB1384625F09BFE81469DF85840002024091034FEF77BF88DE811
S2240027A001040421204601224FF0FF33CDF808901CF012F9FFF71BBB44F204214FF0000E08
S2240027C0C1F200011120A1F800E01BF03FFD00287FF4C2AD112001211BF0D8FEBCE5FEF77B
S2240027E08BFD0AE508F054FAFFE400201EF020FB002880F2F38244F26E21C1F200010B88D0
S224002800002B3FF44CAD01339BB21AB29A49962A0B807FF744AD0022228066201EF09AFA8E
S2240028203DE524F04F46304618A91CF097FC189B04F04F441C4337461894FFF7B6BA079C27
S2240028409DF87D20002C41F06F80012A41F26180032A1BA822A901F04F80022225F086FE7E
S22400286002287FF482AEBDF888301AB2FF2A01F023807F2A3FF4BBAAD8B21AA900231A9332
S22400288026F074FBFFF7B3BA9DF87D10002900F0658301221BA80DF18E0125F067FE9DF8A6
S2240028A07D309DF88E60013B8DF87D309DF858301A0942EA03130B2E8DF88F3000F06083A3
S2240028C000F24E84052E01F0468601F26081022E02F0198101F28881002E40F0D585FE24D9
S2240028E01AAB022119AA8DF87C401FA807241A9619968DF87D4026F015FB19A91AAA304632
S2240029008DF88E6026F0C4FA44F21A22C1F20002107819A91AAA26F0BBFA022119AA1AABC0
S224002920564826F0FFFA44F2FC13C1F20003187819A91AAA26F0ACFA8DF88E6045F66064A6
S224002940C1F20004A05D19A91AAA26F0A1FA9DF88E600136F6B2012E8DF88E60EED91FB1EC
S224002960384625F0AFFD8146199B9DF88F008DE80804002101224FF0FF33CDF808901CF0D5
S2240029802BF8FFF734BA9DF87D30032B7FF42FAA01220DF18F011BA825F0E8FD22461BA8D6
S2240029A022A925F0E3FDBDF888309DF87D20033A1E0442BF03F5F043ADF888309BB28DF8F9
S2240029C07D201AB2B2F5F04FC4BFA3F5F043ADF888309DF88F30042B3FF609AA01A656F898
S2240029E023F000BFCD4000009540000011400000EF1D0000C13F00004FF41673AB8542E59E
S224002A00052023F093FF40F20400C1F200008189D8F80030A1429C87194A80F07D83642295
S224002A2083F840200CE59DF87D201BA8002125F09DFD079C002C3FF4DAA91FB1384625F018
S224002A4041FD81469DF85840240910341FF00AF8A5E69DF87D60002E00F01284042E1BA817
S224002A6000F0FC870021324625F080FD9DF87D3098423FF4BCA978E56E420010164B001071
S224002A80040000104F200DF18A0126F0A5FC18B14FF03C0CADF88AC09DF87D201BA8082A08
S224002AA07FF45BADBDF88A4014F480647FF455AD04221CA925F05AFD042806467FF455AD72
S224002AC028F02CF81C9B1CA9C31AB3F5967F1BA8324681F00D8425F049FD04287FF445AD76
S224002AE01C9828F021F840F2180EC1F2000E9EF80030022043F040030B218EF800301BF088
S224002B001DFF199000283FF43AA9047044708470C4709DF85830199E1A0942EA03135FFACB
S224002B2083FE06233371022373710D23B371F47121460122704600964FF0FF334FF0807604
S224002B408DF88FE0019602941BF046FF1C9A4FF46A5302F57C3202F59062C0F20903B2FB50
S224002B60F3F319B2092026F069FBFFF740B99DF87D300024012BADF8884000F0DE8395F830
S224002B802A3013B19DF87D20E6E43A469DF858000AF04F41FEF774FB9DF87D20DCE423F0B6
S224002BA0C5FED8F800300520DA680132DA6023F0CFFDBDF88230002B3FF430AC9C4224BF38
S224002BC04FF0040EA5F834E0BFF428ACAB8E002B3FF424AC013B934A9BB29386002B7FF4E3
S224002BE01DAC0A2006211CF09DFE17E444F26220C1F20000038801339BB2282B03807FF454
S224002C00C9AB112001211BF0C1FCFA202721864A01231CF0B9FBFFF7BDBB9DF87D30002139
S224002C20042BADF88810AAD995F82E30DA07A6D404221BA81CA925F099FC042801F00F8353
S224002C40BDF98830012B9AD1A86D1C9A0024904285F82F4040F083869DF88E305BB93FE0FE
S224002C600C791C190C719DF88E10CB1ADBB28DF88E30002B34D01B9A54791179A34228BF29
S224002C80234651181A468DF88F302DF035FC1B999DF88F304C791C9AE41A9818E4B202465C
S224002CA01C904C71002CDBD10B784C788878CA7843EA042343EA004343EA026301201A9321
S224002CC023F09EFC1A9B9DF88E101B939DF88F301C98CB1ADBB202468DF88E30002BCAD1E1
S224002CE0AB6D93423CBF4F4B9A65F0232B85FFF77EB89DF87D200024022AADF888407FF4FD
S224002D003EAF1BA80DF18A0125F030FC022801F0EA82BDF98830012B7FF431AFA86D2BF090
S224002D20C9FF1421002023F02DFC2DF0C1FC44F2E41CC1F2000CBCF80010030A43EA002345
S224002D40BDF88A209BB241F00401ADF88C30ACF800101AB95A1CADF88A2092B29A427FF44C
S224002D6046A80020782123F00DFC95F82F303BB92C4B012283F82E20042002211CF0D2FD26
S224002D804FF0000EA5F828E0FFF731B844F26027C1F200073B78022B01D0FDF77BFC4FF08B
S224002DA0FF3029F0B1FE45F2D84CC1F2000CBCF80030C0F38F0419B220B2461A03361B4A38
S224002DC0062E9CBF14802B8E7FF680AB884240F30583043313802B8EFFF778BB00201EF013
S224002DE027F8002840F0C6820220FDF753FD44F27827C1F200070646386825F063FB009625
S224002E0007460421182001224FF0FF334FF08076019602971BF0E0FD4FF0010CA4F800C07A
S224002E20FFF73DBA0001001010400300D854001002221BA822A925F099FB02287FF495ABC8
S224002E409DF87D60BDF88830022E32467FF41FACA3F1800292B25F2A40F26F8530460A21FE
S224002E601BF06CFD199000283EF489AF00231A90037043708370C370BDF88820199811B2B4
S224002E8006247F290471437141F34D85DF29D8BF059301F3F88500231A9300283EF4A7AF04
S224002EA025F050FB9DF8583002461909022041EA031301468DF88E208DF88F301BF03EFDBF
S224002EC01A9000283EF45BAF199BC3F307241A0EC3F30741C2700370447081701A9B0622FD
S224002EE01A7104225A7102229A719DF88E20059C02321993DA7114B1FF26ADF8886003F1A8
S224002F00080022A9022230F03DF9002F7FF428AD2AE506F093FFC60440F1618142F210032D
S224002F20034000F00C02002B00F01385042A0CBF06220522069C237893423FF4C1AA43F667
S224002F401876C0F20306C84906EBC2030A70002059699A6927F0ACFDFFF7B2BA0A461BA8C8
S224002F608DF88E1025F002FB9DF858309DF88E601A0942EA03130B2E8DF88F307FF4A0ACD6
S224002F804FF0FE0E1AAB002419AA02218DF87CE01FA84FF0060E8DF87DE01A94199425F0C5
S224002FA0C1FF1AAA19A930468DF87D6025F070FF2146012013F0AEF91AAA034619A98DF8E4
S224002FC07D3025F065FF0121084613F0A3F91AAA034619A98DF87D3025F05AFF0221012004
S224002FE013F098F91AAA034619A98DF87D3025F04FFF0321012013F08DF91AAA034619A937
S2240030008DF87D3025F044FF0421012013F082F919A903461AAA8DF87D3025F039FF01F01E
S22400302086BA013292B211B2B1F5E16F1A800CDB44F26427C1F20007B7F9003004F1320216
S2240030409A4202DA0C20FEF71FFA44F2042CC1F2000CBCF900303C2B0CD1112000211BF0CE
S22400306095FA0A23FA202721804A1CF08DF9804BB3F900305A2B7FF46FA9112001211BF0BC
S22400308085FAFA202721794A0B231CF07DF9FFF763B90B2003211CF045FCFFF7F4B9DF2B7C
S2240030A040F3C181042A07D01BA825F05FFA9DF87D3098427FF459AA04221BA81DA925F00A
S2240030C055FA04287FF451AABDF88830FF2B0CD144F2722EC1F2000E9EF80020032A04D937
S2240030E09DF87C20022A01F0B284D8B21CA926F05DF99DF87C30192B01F038831A2B01F025
S2240031002E83022B04BF1D9B1C939DF888001C9926F072F8FEF76BBED189A14204D25022AD
S22400312083F84020FFF78CB9118AA14280F0AF833C2283F84020FFF783B944F26E26C1F26C
S2240031400006338801339BB21AB2962A33807FF7A6A80027278066201DF0FCFDFFF79FB87E
S2240031601D2E01F0B98100F237830E2E01F0918100F200840C2E01F07C800D2E7EF437AEBA
S2240031809DF87D30072B7EF632AE3A4904221BA825F0ECF91BA83849042225F0E7F93FB1AD
S2240031A0384625F08FF944F20821C1F20001086044F21C23C1F200031A682E4B501C01F0F1
S2240031C0C5839DF88F1044F2232622F00F02C1F200061A603170FEF78FF8FEF708BE44F28B
S2240031E01A2EC1F2000E9EF8003007229C073FF5A1AE00F00C02042A0CBF0222012299E6EF
S224003200002231461D48ADF8862027F0E7F80020322123F0B7F944F2E81CC1F2000CBCF887
S22400322000302BB1FA200321104A33461CF0ACF844F2E8104FF0000EC1F200000FFA87F905
S224003240A0F800E02BF0E4FEB9F1010F01F00082092101201CF066FB44F25821C1F20001AC
S224003260635AFFF702B800BF1B42001010400300044200101C420010F841001030400300DD
S2240032803146092025F0DAFF19961A9627F046FC042119AA1AAB06461DA81D9625F042FE1D
S2240032A0199825F04FF903468DF88E302046092304218DF88F301BF041FB1A9000283EF429
S2240032C05EAD199B1A0EC3F30726C3F30741C2700370467081701A9B06221A715C710D2271
S2240032E09A719DF88E201993DA71FFF738BB76201AF0ACFF00283FF445A844F26223C1F29A
S22400330000031A8844F26227531C12B29BB2C1F20007B2F5617F3B8080F27E870A2B7FF4A9
S22400332039A8112000211BF031F9FA202721644A00231CF029F8FFF72DB895F82E6016F0C4
S22400334001067FF41CAC1A461BA80DF18F01ADF888308DF88F4025F009F99DF88F30012830
S22400336018BFADF88860BA2B00F0C6830020ADF8880004E401201DF05BFD002833DB0120B4
S2240033801DF056FD064600287EF489AF0220FDF781FA44F27823C1F200038146186825F036
S2240033A091F804210746012218204FF0FF334FF0807E0297CDF80090CDF804E01BF00CFB5B
S2240033C0B4F9003044F26E27C1F20007022B3E8001F0328301202080FEF761BF191F118056
S2240033E02B8EFFF773B844F26E2EC1F2000EBEF80020013292B213B20F2BAEF800207EF7D4
S2240034004EAFB4F90020022A01F34E83962B7EF746AF0021662021801DF09CFC294B00223E
S2240034201A80FEF73CBF19901A908DF88E0082B91FE019AA9DF88F001AA925F029FD9DF8E3
S2240034408E309DF87D200133DBB29A428DF88E300FD901221BA80DF18F0125F087F801287E
S224003460E7D01A9824F0FEFF1B9824F0FBFFFFF7F8B8BDF88800002801F010851AA9C0B246
S22400348025F074FDFEF7B3BC012E7EF4B0AC9DF87D30002B3EF4ABAC1BA80DF18E01324682
S2240034A025F064F81FB1384625F00CF881469DF88E109DF88F004A4620F032FCFEF797BCFB
S2240034C0104003006E42001095F82F30002B41F02685069E3378002B41F019850023032052
S2240034E018931BF0E7FE4FF48043C4F2020344F684179A6CC1F20007397802F07F420A4325
S2240035004CF6CD46DFF8A88304469A64CCF6CC464FF08045AA2700200A2123F033F8189B22
S224003520A6FB03C2D20802EB8202B3EB420F02D155222F722A720133B3F5167F189301F250
S224003540198598F80030002BE5D0012007F0E8FB25F01AFB002106466FF006001BF016F818
S22400356001216FF001001BF0E7F8A6F10A03DFF84493DBB20022012BA9F8002041F2DE8457
S224003580C94D4620294625F027FF0146002800F01A8100232B80692001211BF0CDF844F287
S2240035A01826C1F2000631786FF003001BF0C4F83388AA214FF080421172552113F4005561
S2240035C0117201F0EE84C3F3C123590001316FF005001AF0DBFF6B2001211BF0ADF825F021
S2240035E0D3FA0F280546064647B209D8012101FA07F248F2A013134013B16C201BF09CF80C
S224003600DFF8B0824A20414625F0E6FE002800F0C3804FF0000CA8F800C06E2000211BF0F2
S2240036208BF8AA224FF080431A7255220F2D1A7240F2AA8000201BF0E9FD0027B0F5616F60
S22400364005D840F25237BC4294BF00270127122000211BF071F840F2040EC1F2000E9EF8CB
S224003660003033B11220002F01F0338101211AF08DFF8E4D4FF08043AA2229881A72552216
S2240036801A72062029F0BAFE0720698829F0B6FE0820A98829F0B2FE44F28C000023C1F203
S2240036A00000102E03605CD944F21821C1F200010B889B0400F1DC864FF4804544F218270A
S2240036C0C1F20007C4F202053B88AE6C6FF003001E401AF0BBFD3B8803405E40B6B2002ED5
S2240036E041F0C08003201BF0E5FD40F252339C4294BF00240124984294BF002301239C42C1
S2240037001FBF44F28C01C1F200010B6843F0010318BF0B60B9F800309F0741F07380002098
S22400372001464FF4FA7227F0C3F94FF48043C4F202035B6C13F0010009D1962122F022FF6B
S22400374001201CF0D3FA0446002801F0E2800020014629F0D1F825F041FA002022F0DEFFFD
S224003760FEE7012173B201FA03F342F2120261F31F4213421AD04FF48043C4F202035A6C64
S22400378042F001025A64CAE7012303FA07F717F4134F7FF456AF4DE7B8F8003098073FF496
S2240037A03CAF6E2001211AF0C7FF3AE7190540F12C8368201AF04AFD0028B0D00D200E219D
S2240037C01CF0B0F8D7E7B5F90030002BBFF6E3AE69201AF0B1FFE2E67F2E00F0B28500F252
S2240037E09E811E2E00F00186642E7EF400AB9DF87D30022B7EF4B9AE44F27222C1F200026C
S2240038001378002B3EF4F3AA0DF18A0102221BA824F0ACFE052023F089F8BDF88A10D8F818
S224003820004008B200220B46ABF800102018114605E08418013384F84C109BB201321CB2F9
S22400384040F2AB16B442F4DD0520ADF8883022F07FFFFEF7CCBABDF8843023F47E43ADF836
S2240038608430FEF734BA9DF88230ADF88230FEF701BA00201DF0F0FA00287EF420AD0120BF
S2240038801DF0EAFA00283EF43AADFEF718BD528AA24228BF83F84060BEF4D2AD282283F86F
S2240038A04020FEF7CDBD00BF18420010F8000010F4000010EE4100109DF87D20022A08D07A
S2240038C000211BA824F052FE9DF87D3098427EF44CAE02221BA822A924F048FE02287EF46B
S2240038E044AEBDF9882045F2AA539A427EF47FAA24F0A2FDFEF77BBA01220026ADF8886015
S22400390024F034FE9DF87D30013B8DF87D30FEF7AABF00211BA824F029FE9DF87D2090422B
S2240039203EF496AFFEF721BE1BA8002124F01EFE0020FDF76FF8FEF75ABAD8B225F09EFC66
S22400394004461990002801F0698000260596FFF7A2BA042A0CBF04220322FFF7EBBA9DF8E6
S2240039608E201BA8214624F001FE8DF88E401C9AFFF7B6B9142E00F05484192E7EF437AA45
S22400398049F2C011C1F20001B1F918404FF0000E01344FF0FE0C02211AAB640019AA1FA8BF
S2240039A08DF87CC0CDF868E0CDF864E0ADF88AE08DF87D4025F0B6FA19A930461AAA8DF894
S2240039C07D6025F065FA49F2C012C1F20002137E927E8DF87D30D10744BF63F07F038DF8C7
S2240039E07D3049F2C0169DF87D0019A91AAAC1F2000625F04DFAB6F918304FF0000C002BEA
S224003A00ADF88CC018DD00244AF2E81EC1F2000E0EEB4400022101341AAB19AAADF88C4006
S224003A2025F080FA49F2C010C1F20000BDF88C40B0F918309C42E7DB3846199E9DF88F4089
S224003A4024F040FD00210290012220464FF0FF338DE840041AF0C0FFFEF7C9B91CA932462D
S224003A6024F084FD04287EF480AD002319931A9327F054F80421044619AA1AAB1CA81D9496
S224003A8025F050FA042119AA1AAB1DA825F04AFA199824F057FD9DF858300246190941EA2C
S224003AA00313022006218DF88E208DF88F301AF045FF1A9000283EF462A9199B1A0EC3F33C
S224003AC00724C3F30741C2700370447081701A9B06221A7102225A710E2201E43246002169
S224003AE01BA824F043FD9DF87D60B0427EF43DAD9DF87C30FEF7BFBDBDF98830012B00F0AE
S224003B009A85002B7EF473A9FFF739B8BBF8000044F25801C1F200010880FEF7FCBAFA2E90
S224003B2005D0FE2E00F0C787CD2E7EF460A944F2722EC1F2000E9EF800302BB9FA2E0CBF97
S224003B40052600268EF80060002602241AAB214619AA1A9619961FA8FE268DF87C608DF8BE
S224003B607D4025F0DFF919A91AAA9DF88E0025F08FF944F27221C1F2000108781AAA19A9CD
S224003B8025F086F9002F7EF4EBAEFEF7EDBE082E00F09C811ED8062E00F03B81072E7EF4F2
S224003BA026A99DF87D30002B3EF421A91BA80DF18E01012224F0DAFC1FB1384624F082FC8B
S224003BC081469DF88E109DF88F004A4609F0F8FEFEF70DB9092E01F070810A2E7EF407A915
S224003BE01FF068F8FEF703B9032E01F0E581042E7EF4FDA84FF0000CFE230124AA48CDF887
S224003C0068C0CDF864C0CDF810C08DF87C308DF87D402FF011FB841CE4B2A4488DF87D40F7
S224003C202FF00AFB431CE418E4B2A1488DF87D402FF002FB431CE418E4B29E488DF87D400A
S224003C402FF0FAFA431CE418E4B29B488DF87D402FF0F2FA00F125021AABA418022119AAAC
S224003C601FA88DF87D4025F05DF919A91AAA30468DF87D6025F00CF98B482FF0DDFA1AABC5
S224003C80C1B219AA884825F04DF919A91AAAA72025F0FEF885482FF0CFFA1AABC1B219AAB6
S224003CA0824825F03FF919A91AAAA72025F0F0F87F482FF0C1FA1AABC1B219AA7C4825F029
S224003CC031F919A91AAAA72025F0E2F879482FF0B3FA1AABC1B219AA764825F023F919A940
S224003CE01AAAA72025F0D4F873482FF0A5FA44F61426C1B21AAB19AA6F4825F013F9C1F2E0
S224003D00000619A91AAAA72025F0C2F8B6F9CC40B6F9CA206949A72309A8009426F044FB12
S224003D2009A82FF089FA19AAC1B21AAB09A825F0F9F8B6F9C0306249A72209A826F034FB70
S224003D4009A82FF079FA19AAC1B21AAB09A825F0E9F8B6F9D0305B49A72209A826F024FB77
S224003D6009A82FF069FA19AAC1B21AAB09A825F0D9F810A803211EF0B7FF109B5249A722CA
S224003D8009A826F011FB09A82FF056FA19AAC1B21AAB09A825F0C6F8119B4B49A72209A8F2
S224003DA026F002FB09A82FF047FA19AAC1B21AAB09A825F0B7F8129B4349A72209A826F0A1
S224003DC0F3FA09A82FF038FA19AAC1B21AAB09A825F0A8F8DDF810C019A960461AAA25F0A8
S224003DE057F83846199E9DF88F4024F06BFBDDF810C002906146204601224FF0FF338DE80F
S224003E0040041AF0E9FDFDF7F2BF5A053FF587AC4AE49DF87D30FF228DF88E202BB11BA89B
S224003E200DF18E01012224F0A1FB9DF88E0000261EA91AAA01280CBF022030461E961A9659
S224003E401BF088FDFE231E988DF87C3024F07AFB1AAB441C19AA02211FA88DF87D40199679
S224003E601A9625F05FF806231AAA19A918468DF87D3025F00DF81E99199824F009FB199B94
S224003E8038469DF88F40049324F01CFB049B02908DE808042046314601224FF0FF331AF04C
S224003EA09BFDFDF7A4BF00BF544A0010144A0010344A0010B44A0010744A00101440030072
S224003EC02040030018400300284003004FF0FE0E1AAB0024022119AA8DF87CE01FA84FF0B3
S224003EE0120E8DF87DE01A94199425F01BF819A91AAA30468DF88E6024F0CAFF04224FF483
S224003F0028001CA92BF0B0F91C9B19AA013308BF1C941AAB04211CA825F004F804200422BD
S224003F20C0F2A8001CA92BF09FF91C9B5E1C1EBFA3F52803A3F580631C9301D100231C930B
S224003F40042119AA1AAB1CA824F0ECFF10200422C0F2A8001DA92BF087F91D9A541C00F0C4
S224003F60B2804FF6FE33CFF65773D3181C9A9B1A1D9304211AAB19AA1DA824F0D3FF08207F
S224003F80C0F2A80004221CA92BF06EF91C9BD8B203F47F03B3F5981F8DF88E007DD214289E
S224003FA07BD019AA04211AAB1CA824F0BBFF002019A91AAA8DF88E0024F06AFFFEF7CFBCBC
S224003FC0082022F029FB4FF6FF71C0F2A7014FF40A002BF005FA44F2302EC1F2000E4FF470
S224003FE00A01CEF8001044F26A2044F27C210023C1F20000C1F2000103800B7006201AA9D7
S2240040001A9324F0B3FF082022F0A2FBFDF7EFBEBDF88830002B00F0F18044F26A2EC1F236
S224004020000EAEF8003044F26A22C1F2000244F26C24B2F900100620C1F2000425F0FEF8B7
S224004040BDF98830B4F90020934200F0B28044F27021C1F20001B1F900209A427DF4C7AE22
S22400406044F2782244F27C2344F216260024C1F20002C1F20003C1F2000610681C70347034
S22400408024F0F0F944F2782CC1F2000CCCF80040FDF7ADBEBDF98830D9E719A91AAA24F05A
S2240040A0F7FEE2201CA925F081F9C3B28DF88E300BB100231C931CA8042119AA1AAB24F0E5
S2240040C031FFFEF74CBC00231D9352E7BDF88830002B49D044F2702CC1F2000CACF800308C
S2240040E044F27826C1F20006306824F0BBF944F2302CC1F2000C44F2702EDCF80010C1F212
S224004100000EBEF90020A1F50A010023B2EB911F04BF44F27C2CC1F2000C336008BF8CF866
S22400412000303DF464AE27B1384624F0CBF9CB4B18609DF8582044F216201209C1F2000004
S22400414044F2EC1144F2F01444F27C2601230270C1F200010022C1F20004C1F200060B70BE
S22400416022803370FDF743BE44F26A2EC1F2000EBEF8002014045EBF44F27020C1F20000ED
S2240041800280ADD544F23021C1F200010A6844F27024A2F50A02520A0132D20092B211B294
S2240041A0B1F5F04FC1F200042280C4BFAC4A138096E726F0B3FC44F217264FF4A343C1F21F
S2240041C00006C0F20103327890FBF3F344F2342C99B2C1F2000C022AACF8001003D009B2F5
S2240041E0072025F02BF844F26C204FF0FF3EC1F20000BDF98830A0F800E028E744F23020EF
S224004200C1F20000036844F26A21A3F50A039B09C1F200010B8006E70220FDF735F9FEF70C
S224004220B9B844F2E81CC1F2000CBCF80030002B3DF4DDAD44F2302EC1F2000EDEF80030EA
S22400424044F26A20A3F50A03C3F38F13C1F20000038019B2062024F0F1FFFDF7C8BD9DF863
S2240042607D300122043BADF888208DF88E30FEF7E7BC45F2B64CC1F2000C9CF800E0002472
S2240042800EF1020E1AAB022119AA1A9419941FA8FE248DF87DE08DF87C4024F043FE19A9E1
S2240042A01AAA30468DF87D6024F0F2FD45F2B64EC1F2000E9EF8003019A918461AAA8DF82F
S2240042C07D3024F0E5FD45F2B640C1F20000018800293FF4B1ABC9B219AA1AAB614824F055
S2240042E021FEFFF7A9BB0126ADF88860FEF716BD24F03CF904283DF47AADFEF736B9BBF860
S2240043000000D8F8001000F14C022080012088548B18F92058701E2098701E1D0220D8706D
S224004320CAF800608A5CBBF80010013202FA00F2D2B252180021ABF800209980D980FDF754
S2240043403CBC9DF87D20022A08D000211BA824F00DF99DF87D3098427EF407A902221BA807
S22400436022A924F003F902287EF4FFA8BDF8884026B230462EF0D8F92DF094FD3AA30CCBFE
S2240043802DF010FF0022C3F6F07200232DF02CFC2EF0C0F8DDF820C0CCF800009DF88E00D5
S2240043A0002C56D0314624F049FF00241A941994FE241AAB022119AA8DF87C401FA8032458
S2240043C08DF87D4024F0AEFD9DF88E0019A91AAA24F05EFD22A8022119AA1AAB24F0A2FD97
S2240043E0002F7EF4BDAAFEF7BFBA9DF87D40022C7EF4BBA80DF18A0122461BA824F0B6F877
S2240044002146FE244FF0000C1AAB19AA8DF87C401FA80524CDF868C0CDF864C0CDF810C09F
S2240044208DF87D4024F07EFD19A91AAA30468DF87D6024F02DFDBDF88A0045F2E041C1F2C0
S224004440000119AA01EB80001AAB042124F06AFDC7E41AA91A9424F089FDA6E778420010B5
S22400446070420010144F0010006AF840000000006FF0070019F0EAFE00283FF41DA944F2B2
S2240044808C02C1F20002136843F004031360FFF713B902244FF0000C1AAB4FF0FE0E214602
S2240044A019AA1FA8CDF868C0CDF864C08DF87CE0CDF810C08DF87D4024F034FD19A91AAA14
S2240044C030468DF87D6024F0E3FC214619AA1AABC64824F027FD84E4032022F027FA10AA5F
S2240044E04FF480710B23D62028F02EF9032022F02FF94FF0FE0E1AAB002419AA02218DF824
S2240045007CE01FA84FF00C0E8DF87DE01A94199424F008FD19A91AAA30468DF87D6024F052
S224004520B7FC10A819AA1AAB0B2124F0FBFC199B38469DF88F60049323F0C4FF049B0290F8
S2240045408DE808043046214601224FF0FF331AF043FAFDF74CBC43F6177CC0F2030C9CF800
S22400456000C04FF0030E0EFB0CFE00240EF1010E022119AA1AAB1A9419941FA8FE248DF86D
S2240045807DE0CDF814C08DF87C4024F0CBFC304619A91AAA8DF87D6024F07AFC059C4FF03C
S2240045A0010EADF888E0002C3FF446AA012343F61076C0F20306F05C19A91AAA24F068FCA3
S2240045C0BDF9883043F6A06CC0F2030C0CEB03139A680024D11C32EA220228BF0A46921029
S2240045E0002A5B6811DD40F2000EC1F2000E1968DEF800000024814204D006E053F8040F84
S224004600814202D101349442F8D1A400022119AA1AAB0DF18A00ADF88A4024F083FCBDF89D
S2240046208820059C013292B213B29C42ADF88820BDDAFFF701BA002485F82F402CF00AF84F
S224004640BDF98830AC65002B7DF4D1ABFEF797BA642019F0FBFD00283EF4FAAD062049463D
S22400466019F094FFFEF7F4BD44F20021C1F200010A6827210091107851789478D67840EAC8
S224004680012242EA044242EA0662019202930393FA200121564A03231AF076FEFDF7BEBA42
S2240046A0BBF80000534CB0F5CC7FBDF49AAAD8F80010514E00F14C028B1830804FF0040E5C
S2240046C0F82044F25C0601F802E003EB0E075870C1F200063220987083F803E037608B5C90
S2240046E0228801339B00DBB29B1823803846002110222EF06DFDFDF774BA002387F84C30C0
S224004700FDF73EBA24F016FA23F0ACFEFDF729B92BF0B6FA39493A481AF07CFCFDF713B9E0
S2240047206FF0030019F092FDFDF7F9B844F2782344F27C2644F21627C1F20003C1F200064A
S224004740C1F20007186834703C7023F08BFE44F2782CC1F2000CCCF80040FDF7D0BD1C9B59
S2240047601D9A23EA02031C93FEF7CFBC1C9A1D9B13431C93FEF7C9BCBDF88A106FF0090098
S22400478001F00F0119F002FFFDF731BB44F2762EC1F2000E9EF80030012202FA03F3BDF8FE
S2240047A08A1044F222200B40C1F200000370C9B26FF0040019F0EAFEFDF719BBBDF88A306B
S2240047C05C4014F4C05F3DF412ABC3F3C12244F218245200C1F20004511C23806FF005009B
S2240047E0ADF88A2019F0D2FEFDF701BBC86000100C400300DC41001058400010183F030026
S2240048003042001001200DF18E0121F0C9FE07281FBF44F28C02C1F20002136843F0020352
S22400482018BF136001200DF18E0121F0B9FE0728F8D105200DF18E0121F0B2FE07281FBF3B
S22400484044F28C04C1F20004236843F0020318BF236005200DF18E0121F0A2FE0728F8D15E
S224004860FEF75DBF452020A924F0B6FDE0B14FF0000CADF880C0AB6C00234FF48042C4F277
S2240048800202926CF6B222F07F42134336EA03031FBF44F28C00C1F20000036843F0040322
S2240048A018BF0360FEF71EBFBDF880301B0AADF88030AA6C1A4032421FBF44F28C0EC1F2C3
S2240048C0000EDEF8002042F0040218BFCEF80020D3E7394619F05AFE2B1F18BF0123012DCD
S2240048E00CBF002303F00103002B3EF4C2AEB5F10D0318BF0123102D0CBF002503F001052A
S224004900002D3EF4B6AE1120394619F03FFEFEF7B0BE0D200E211BF005F824F05FF9204640
S22400492021F0FCFEFEE7D0B20DF18A0124F054FD80B2059000287DD10DF18A00314619AA13
S2240049401AAB24F0EFFA1998FEF7A5BA002405201C601A941994FE2621F0E8FF4FF0DB0C29
S224004960ADF88A4002211AAB19AA1FA88DF87DC0CDF810C0BD4C8DF87C6024F0D3FA0D237F
S22400498019A91AAA18468DF87D3024F081FA204644F21C240421C1F2000419AA1AAB24F019
S2240049A0C1FA2368D8F800004C33C018D62119AA1AAB24F0B7FABDF88A3022680133D6320C
S2240049C09BB22260012BADF88A30DDF810C0C9D9052021F0BDFE44F20821199EC1F2000176
S2240049E0D1F800E002224FF0FF3300969DF88F0000214FF080760196CDF808E019F0ECFF2C
S224004A000023236044F2F81244F20824C1F20002C1F2000413602360FDF7E9B91A9422A8D9
S224004A20314619AA1AAB0124059424F07BFA1998FEF731BA22A881E78D4B4FF0FF3C4FF0D7
S224004A40640EA4F800C0A3F800E0FDF728BC1D9B10A8109323F0B6FC44F200201D9AC1F298
S224004A6000000368110ED970C2F30724C2F3074044F272211A705C709870C1F20001002384
S224004A800B70FDF7B4B9D0B21CA924F08FFC80B205900028CED11CA8042119AA1AAB24F03C
S224004AA041FA1998FEF7F7B967201CF053F902202080FDF7F4BB44F27C22C1F20002147807
S224004AC08CB944F2782344F21626C1F20003C1F200061868347023F0C5FC44F2782CC1F255
S224004AE0000CCCF8004044F2202EC1F2000EBEF90030002B53D144F220230022C1F20003D5
S224004B001A80FDF774B99DF87D3000241A941994002B3DF46CA901221BA81EA923F026FDC0
S224004B209DF87830FE228DF87C200422112B8DF87D2000F0138100F2F880062B00F0AC8033
S224004B4000F29A80022B72D063D8002B53D0012B42D0FF238DF878300023ADF88A301AAB78
S224004B60022119AA1FA824F0DDF919A91AAA9DF88E0024F08DF99DF8780019A91AAA24F0AF
S224004B8087F99DF87D30062B3FF495AA0DF18A00022119AA1AAB24F0C5F9FDF7E0BE44F2DE
S224004BA01420C1F20000B0F90010042024F046FB01201CF03DF9044600289CD12D4BB3F971
S224004BC00030002B97DA66201CF0C4F844F26E21C1F200010C808EE744F2F21EC1F2000E35
S224004BE0BEF800E044F2F2110020C1F20001ADF88AE00880B3E744F2F416C1F20006368825
S224004C0044F2F41CC1F2000CADF88A60ACF80030A5E7042B1BD012D944F2282CC1F2000C4D
S224004C20DCF8003006228DF87D201C9397E744F6B212C1F200021378ADF88A308FE744F2AB
S224004C407004C1F200042378ADF88A3087E74AF29826C1F20006326844F24023C0F20F0312
S224004C60B2FBF3F3ADF88A3079E700BF1C4200106E420010204200100D2B34D025D80B2B0F
S224004C801BD012D8072B7FF464AFFF2300208DF87830ADF88A0062E740F2EC0EC1F2000EAE
S224004CA09EF80030ADF88A3059E743F62C72C1F200021288ADF88A2051E743F62A71C1F256
S224004CC000010988ADF88A1049E70F2B21D014D944F2C02EC1F2000EDEF8003006228DF81E
S224004CE07D201C933BE74AF22824C1F200042378ADF88A300023237031E744F2302CC1F2F5
S224004D00000CDCF80030A3F50A039B09ADF88A3025E749F2E016C1F20006336806221C936E
S224004D2000238DF87D20336019E7192B5DD04ED8152B33D027D8122B19D0132B7FF409AF2E
S224004D4044F22421C1F20001098844F224230022C1F20003ADF88A101A8000E744F22C20F7
S224004D60C1F2000003780470ADF88A30F7E600201AF04CFA40F61C4398427FF6F0AE04203A
S224004D80FCF782FBEBE6172B18D00FD944F67031C1F200010988ADF88A10E0E645F231042A
S224004DA0C1F200042378ADF88A30D8E645F24C06C1F200063378ADF88A30D0E645F2800CBA
S224004DC0C1F2000C9CF80530ADF88A30C7E6672B4AD034D8652B26D015D8642B7FF4B9AEA6
S224004DE0BBF80020ADF88A20B9E644F20C2EC1F2000EBEF800E044F20C20C1F20000ADF86C
S224004E008AE00480ABE644F26604C1F20004B4F90030D8F80020581C0DD04C33D35C9B0050
S224004E20ADF88A309BE644F26603C1F200031B88ADF88A3093E60026ADF88A608FE66A2BFE
S224004E4023D06B2B18D0682B7FF483AE44F26401C1F20001B1F90030D8F80020591CDCD16A
S224004E600022ADF88A207AE644F26400C1F200000088ADF88A0072E644F2580EC1F2000EA3
S224004E80BEF800E0ADF88AE069E644F26C0CC1F2000CBCF800C0ADF88AC060E6DDF8689036
S224004EA01AA919AA19901A901AF054FD1A98494601221FF0BBFDFCF79ABF4FF0000CFE23D6
S224004EC05148CDF868C0CDF864C0CDF810C08DF87C302EF0B1F91AAB441C19AA02211FA8FE
S224004EE08DF87D4024F01EF819A91AAA30468DF87D6023F0CDFF44482EF09EF9411CC9B2EB
S224004F0019AA1AAB404824F00DF8FEF76ABF00204FF05531642225F0CBFDFEF7DFBA04204B
S224004F2002211AF0FFFCFEF7D4BA022005211AF0F9FCFDF773BA1998FEF794BA00216FF0E5
S224004F40030019F0F9FB00216A2019F0F5FB00216E2019F0F1FB00216FF0050019F016FB65
S224004F6000216B2019F0E8FB6920012119F0E4FBFEF77FBB44F2E81EC1F2000EBEF80030EF
S224004F802BB1FA200321214AC8231AF0FDF944F2E8110020C1F2000108802AF039F8FEF7D1
S224004FA0D4BA29466FF0050019F0F0FA6B20294619F0C2FBFEF713BB00231A93199323F086
S224004FC02DFD0446ADF88C40FE241AAB022119AA8DF87C401FA805248DF87D4023F0A2FFF3
S224004FE019A91AAA9DF88E0023F052FF022119AA1AAB23A823F096FF2BF05AFBADF88C00E0
S22400500023A8FFF7E8B900BFA04300101040030030B5264D04462B6809B2A3F59402B2F55F
S224005020800F35D229B189B20A0A80F8321080F833208022184621462AF0B4F9237A627A80
S22400504043EA0222530415D428684FF6FE738030C0F28903984288BF144B286084BF4FF4F8
S22400506094001860124B1A68824216D0C305DB0D3BB130BD4BF6FF7313401A0A237262727A
S224005080E2E700F5FE710331BDE830402AF0A8B90520BDE8304023F023BE0022E320114670
S2240050A01A6024F0A9F82868E0E700BFC04200105C4800104FF6FF7100B5C0F289014FF4F7
S2240050C094002AF08DF944F2C0204FF49401C1F2000044F23842C1F20002016044F65C0397
S2240050E00020C1F200031060E32019605DF804EB24F082B82DE9F047914656780F461FFAF7
S22400510080FA127804E00136F6B2092E88BF0026964246D006EB460307EB83039B885345C4
S224005120F1D199F80230013B89F80230002E33D0751EDFF87480EDB2344698F8013004EB9E
S2240051404400A34214D005EB450107EB810107EB80000C222EF016F8631EBCB1DCB26B1EC2
S224005160C5B1DDB298F8013004EB4400A342EAD199F8013099F800200133DBB2092B89F8A8
S2240051800130C0D9002389F80130BCE709246B1E002DE6D10925D0E709253446DFF8088042
S2240051A0CBE7BDE8F08700BF5C0100102DE9F04F0FFA80FB85B0BBF1000F02D1A44B83F8EA
S2240051C000B025F0ABFCA34E306008B901203060A14B40F673171A68C3F6C977824238BF89
S2240051E018609E4B05205C689968DA681D885B88B4640024F380B580F164326521F096FB23
S224005200E01C27F081FC23B2032B40F232351ADCA84240F2DA80A0F54C700338C0EB80201A
S224005220A7FB0013C01A03EB5000C0F3CF20231D0134062C26F8130009D0E01C27F064FCD6
S22400524023B2032BE4DD052B40F03A81F08203201AF030F803460020738219F0D7FF804B9B
S2240052607C4D5B68B0827F4C4FF47A72002B00F0E3802168002301F1440103C92DF0FAFC31
S224005280A862236848F68902D96AC8F68802A2FB01425209F2629C69196B5A6B1D8F5B8FAD
S2240052A00520B461B583F3833162726221F050FA6D4B00205A7D6D4B0225B3F8C0300024F2
S2240052C043EA022333861AF0E3FF0022C4F2240200232CF03DFE2DF0D5F803466FF00600C2
S2240052E0738618F0B3FF2CF0CBFD0022C3F6E07200232CF02DFE5F468046894620464FF09C
S2240053004041002217B9204641464A4618F036FD013405F118030135032C26F81300EDD1C3
S224005320BB462FB133896FEA43436FEA534333814F4B1F78002F67D04E4AC7EB07131288B4
S2240053405B00C2F3032204924FF00008039344F6E400C1F2000018F80020002108F11D0365
S22400536008F10504BA4226F81310029400F08E8044F67C11C1F2000118F80120BA4200F0BD
S2240053808E8027B300220023DFF8FC90049C00258DE80C00C8EBC80A0FE0534459F82300B3
S2240053A02CF05EFD02460B469DE803002CF01CFC0135AF428DE803000DDD013CA4B223B22B
S2240053C0591CEAD106242346E7E700202FE7002200238DE80C0003982CF052FD02460B469C
S2240053E09DE803002CF0DEFE23A30CCB2CF0B0FD2DF070F8029C04F1180326F8130008F165
S2240054000108B8F1020FA2D16FF00A0018F01EFF86F84600BBF1000F17D1194B0D481B7810
S2240054205A0603D4174B1B780E2B41D8002105B0BDE8F04FFFF7ECBD2168002301F11C01D5
S22400544003C92DF017FCA8621BE705B0BDE8F08F9C480010F04800103844001084490010C1
S2240054605C0100108440001088420010144A0010484400109E480010D147FF3F471F7DF4DF
S22400548018000010A8420010AC48001044F6F0004FF4C875C1F2000020F81350AFE744F639
S2240054A0F0054FF4FA64C1F2000525F81340A6E7044A054B802105B0BDE8F04F23F032BDC2
S2240054C080B2B4E6EC420010E848001030B50D46013D441CADB20146651901E02146013406
S2240054E0082021F005FAAC42F8D130BD2DE9F0411C461B78154603EB430387B24FEA830803
S2240055008EB225F00BFB45F808002378174A03EB430305EB83039F802378B7F57A7F03EBF3
S224005520430305EB8303DE80237838BF127A03EB430328BF527A05EB83031A72237803EBBC
S224005540430305EB83051EB1094B1B6893F82F606E7223780133DBB2092B237001D90023C8
S2240055602370A3780133A370BDE8F0815C0100107049001030B5C0B281B0032838D8DFE85B
S22400558000F0322D28021C480E21FFF79FFF1B4A1B4B15881C8825F020051580194A0134F3
S2240055A0FF250020462115701C8020F0EBFF07200DF1030120F0F4FF0728F8D125F0AEFA3F
S2240055C0114B00F561601860104B00221A6001B030BD0F480E21FFF779FFD8E70D480E2170
S2240055E0FFF774FFD3E70C480E21FFF76FFFCEE70328ECD8CBE700BF68400300E4410010A7
S22400560058420010FC410010504800102444001058400300484003003840030030B541F2B5
S224005620EC3385B0002400900394ADF81030029401941AE023F02CFC019B002118790A2207
S224005640181825F039F8E30000FA03F0039B01341B180198039322F005FF00230293019368
S2240056609DF81330A4B22C2B22D001220DF11301684622F07BFF03460020012B01A902AA54
S2240056809DF813305BD1A3F12E0EDEF1000545EB0E052C2B08BF45F00105002DCAD118469B
S2240056A001A902AA23F0F4FB9DF813302C2BDCD1019868B122F0D6FE00230293019307E0E6
S2240056C09DF813002C280BD001A902AA23F0E0FB01220DF11301684622F048FF0128EFD086
S2240056E0019B9BB101A902AA002023F0D1FB019B002118790A22181824F0DEFFADF8100018
S224005700019822F0AFFE002302930193009822F0A9FE0398002300930293019368B10421D7
S2240057200DEB01036A4603A823F0FCFB04A802216A4601AB23F0F6FB009805B030BDB3F1F6
S2240057402E0218BF01222C2B0CBF002302F00103002BADD002AA23F09BFB019B0021187994
S2240057600A22181824F0A8FFE40000FA04F0039B1B1803939CE700BF30B444F2882244F298
S2240057808403C1F20002C1F200031B68D46844F680115C6354889568C1F200014FF0FF30CE
S2240057A01C871488D08208681D6359695C870068128A013198615961A3F8422030BC704735
S2240057C02DE9F0415E4D98B02B6880B293F82F20002A00F09B80002116911591002800F030
S2240057E0A78000F5FE501B783F30C001FE2B00F0A580383003AC214629F036FD2B6818AA1A
S22400580093F82F300025D31820464E490D2203F8535C2DF019FD60B120464B490E222DF028
S22400582013FD002872D103250F264FF00B082F4603E002250E26A846042716AB02214FF04A
S224005840FC0E15AA17A88DF85CE08DF85D7023F069FB16AA284615A923F01AFB18AA9319AF
S22400586013F8543CA019202B05D1024612F8013F0130202BFAD0303BDBB2092B54D814A9C1
S224005880002224F019FF15A9C0B216AA23F000FB14980378002B47D0202B08BF034638D0EB
S2240058A0002214A924F008FF16AAC0B215A923F0EFFA14980378D3F1010238BF0022032FC4
S2240058C094BF002702F00107002F2DD1202B08BF034604D113F8012F0130202AFAD014A9B5
S2240058E0002224F0E9FE15A916AAC0B223F0D0FA159B002100934FF08073019348F0500007
S22400590001224FF0FF33029119F066F818B0BDE8F08113F8012F0130202AC1D113F8012F93
S2240059200130202AF5D0BBE7159822F09BFDEDE703AC2146054822F019FE5FE7303059E7E3
S224005940704900107840030088400300444400102DE9F04F074689B005205FFA82F90D4634
S22400596020F0E4FF714B05201B681C6BD3F834B09B69009320F0ECFEB9F1020F00F09B803E
S22400598020462CF07DFA00220023C3F610622CF0DFFA67A30CCB2CF0DBFA00220023044643
S2240059A00E462CF0EBFC0028B8BF04F1004431462046B4BF4FF02D0A4FF0200A2CF062FD09
S2240059C080462CF05DFA02460B46204631462CF009F959A30CCB2CF0BBFA2CF053FD42465D
S2240059E00346574901A824F0DFFC504639462A4623F04EFA01A82DF01FFC3A46C1B22B46FC
S224005A0001A823F08FFA58462CF03AFA00220023C3F610622CF09CFA45A30CCB2CF098FABF
S224005A20B9F1030F14BF20235F2304460E462A463946184623F02CFA0022002320463146C7
S224005A402CF09CFC0028B8BF04F1004431462046B4BF4FF02D0A4FF0200A2CF013FD804694
S224005A602CF00EFA02460B46204631462CF0BAF831A30CCB2CF06CFA2CF004FD30490346AD
S224005A80424601A824F090FC39462A46504623F0FFF901A82DF0D0FB3A46C1B22B4601A802
S224005AA023F040FAB9F1030F14BF20205F2039462A4623F0EDF92C680098002C2FD023F0F4
S224005AC039F8C0F30721C0F30742030E20706170A270E3702B6818785C789978DA7840EA5E
S224005AE0042343EA014343EA02632B6013B1B9F1030F05D0B9F1000F06D109B0BDE8F08F2A
S224005B001A799B185F229A720E4B1B885B05F4D403213A462B460C4823F004FAEDE723F028
S224005B2009F8286038602B68E0E700BF844000100080564000000000006AF840000000009A
S224005B4054410300364400105C4103002DE9F041054688B00520D4B20E4620F0E7FE274B4E
S224005B60B3F904002CF08CF925A30CCB2CF0F0F92CF088FC244B804605205F8920F0E8FD54
S224005B80B8F1030F27DD214B21494246022C08BF1946684624F008FC68462DF04DFB2A4646
S224005BA0C1B23346684623F0BDF98CB1174B1949022C08BF19463A46684624F0F5FB684648
S224005BC02DF03AFB2A46C1B23346684623F0AAF908B0BDE8F08130202946324623F058F945
S224005BE0022CE2D129463246302023F051F929463020324623F04CF90449DCE788420010B2
S224005C00976EB23F3BDF4F8D5C0100106041030068410300644C0300F0B5D6B2032E88B08D
S224005C2005460C462DD0052020F080FE022E44D04D4F4E493A88684624F0B6FB68462DF09B
S224005C40FBFA2346C1B22A46684623F06BF929462246202023F01CF97A884449684624F049
S224005C60A3FB68462DF0E8FA2A46C1B22346684623F058F9012E59D0052020F069FD08B0CB
S224005C80F0BD0E68002E4BD0002022F053FFC0F30721C0F30742030E30707170B270F37021
S224005CA0236818785D789978DA7840EA052343EA014343EA02632360E1E731462C482A4691
S224005CC0234623F02FF9284E00273388294643FA07F313F0010F0CBF3020312022460137FE
S224005CE023F0D6F8082FF0D129462246202023F0CFF8204802212A46234623F013F900272B
S224005D007388294643FA07F313F0010F0CBF302031202246013723F0BBF8082FF0D1ABE76E
S224005D20304622F007FF20602860A8E77A681249684624F039FB68462DF07EFA2346C1B2E7
S224005D402A46684623F0EEF8BA680B49684624F02BFB68462DF070FA2A46C1B2234668469A
S224005D6023F0E0F888E700BF84490010704103006C4103007441030078410300F0B5044661
S224005D8088B005200D4620F0D1FD234BB3F904002CF076F821A30CCB2CF0DAF82CF072FBB6
S224005DA0204B06465B684FF47A72002B29D11E490023096801F11C0103C92CF05BFF074677
S224005DC0052020F0C5FC3A461849684624F0ECFA68462DF031FA2B46C1B22246684623F03C
S224005DE0A1F832461249684624F0DEFA68462DF023FA2246C1B22B46684623F093F808B060
S224005E00F0BD09490023096801F1440103C92CF031FF0746D4E700BF88420010976EB23F04
S224005E203BDF4F8D5C010010844000107C410300844103002DE97043044688B06FF00600EE
S224005E400E4618F003FA2CF01BF800220023C3F6E0722CF07DF889464A4601468046002048
S224005E6017F08CFF164902B2684624F09DFA68462DF0E2F92246C1B23346684623F052F81A
S224005E80012520202146324623F002F8284641464A4617F073FF0A4902B2684624F084FA66
S224005EA068462DF0C9F90135C1B222466846334623F038F8032DE4D108B0BDE8708300BFE1
S224005EC08C410300F0B5B34D93B02E68002396F82F2080B2CCB212931193002A00F04A8191
S224005EE0002800F00B8100F5FE5033783F30C001FE2B00F00981383069466F4629F0B4F9A6
S224005F002A6813A992F82F30CB18002103F84B1CA14B92F82F601B7B32B213F0030318BF80
S224005F2001238A420CBF002303F00103C3B1FF2A16D0013EB6B20DF1FF35BE19022C15F819
S224005F40010F39D00FD8002C1FD13A2808D02D2800F0E68011A912AA22F09AFFB542EDD165
S224005F60119813B0F0BD652C20D0662C13D0642CF4D13128F4D189482DF05EF911AAC1B227
S224005F8012AB864822F0CEFFEAE7012CE6D13A2808BF0224E2E7532800F0F58040F2B6807D
S224005FA0542800F0E980702804D17C2011A912AA22F06EFF0224D1E7A0F15B034C2BC9D824
S224005FC001A252F823F000BF69610000555F00006561000059610000555F0000555F000097
S224005FE0555F0000555F0000555F0000555F0000555F0000555F0000555F0000555F0000FC
S224006000555F0000555F0000555F0000555F0000555F0000555F0000555F0000555F0000DB
S224006020555F0000555F0000555F0000555F0000555F0000555F0000555F0000555F0000BB
S224006040555F0000555F00004D610000416100003561000029610000555F0000555F0000FB
S224006060555F0000555F0000555F0000555F0000555F0000555F0000555F0000555F00007B
S224006080555F0000555F0000555F0000555F0000555F0000555F0000555F0000555F00005B
S2240060A0555F0000555F0000555F0000555F0000555F0000555F0000555F0000555F00003B
S2240060C0555F0000555F0000555F0000555F0000555F0000555F0000555F0000555F00001B
S2240060E0555F0000555F0000555F0000555F0000555F0000555F00002561000069462848BE
S2240061006F4622F033FAFBE63030F5E641287FF451AF11A812A90022FFF78CFE02241DE74E
S22400612064241BE7652419E711A812A90022FFF70DFD13E7012011A912AA19F00BFC0DE71C
S22400614011A812A90122FFF767FD07E711A812A90322FFF7FDFB01E711A812A90122FFF75F
S224006160F7FBFBE66624F9E611A812A90122FFF7EDFCF3E61046F4E611A812A90322FFF7D0
S2240061804BFD0224EAE6032011A912AA19F0E2FB0224E3E6704900105C010010C0540010F4
S2240061A04444001070B484B004AC04E90F003A4B1B6893F8354093F8341093F8310093F820
S2240061C0302041EA042193F8366093F8324042EA002293F8375042EA044241EA064193F82D
S2240061E03300039C41EA0561214042EA0062914204D0002000B204B070BC70471C7DD97C4A
S224006200DA7941EA0421187ABDF8004042EA002221409142EDD19C7D597D5A7A41EA0421FC
S224006220987ABDF8024042EA002221409142E0D11C7ED97D5E7E187B41EA0421DA7A9C7E00
S22400624041EA06415D7B42EA002241EA0464987B019942EA0542214042EA00629142C8D193
S2240062601C7FD87EDA7B197C5E7F40EA04205C7C42EA01219D7F9A7C40EA064041EA0443D9
S224006280029940EA0560084043EA0263C21A504240EB0200AEE700BF70490010F0B583B263
S2240062A092B00F461646194C002B26D04FF6B8702268DB01C0F20F0092F82F201818694614
S2240062C06D4628F0D1FF236812AA93F82F300024D318684611A9224603F8484C24F0ECF986
S2240062E0388011980130119026B12146224624F0E3F93080002012B0F0BD2368694693F8CC
S2240063002F2003486D4622F031F9DCE7704900104444001030B5114D114C2B88A4F13400AF
S22400632013F4A07F08BF20463321FFF7CFF804F154000D21FFF7CAF82B8804F1440013F0D6
S224006340020F04F1340418BF20460F21FFF7BEF8044B1A7822F001021A7030BD36440010EA
S224006360CC4003001800001000B581B007200DF1030120F015F90728F8D1044B1B78062BA9
S22400638001D001B000BDFFF7C5FFFAE7704000102DE9F04FC0B29DB0C9B2089092B20520CE
S2240063A006910B930C9220F0C1FA069CE40700F1CF81B14D089EEC8A009544FA06F414F081
S2240063C0010400F0D383069E002516F002041A95199540F0C7811BAD079528460DF1640A85
S2240063E001250DF1680B022152465B468DF86C5010258DF86D5022F095FDA04B009E19683F
S224006400B2680968F368708814913188ADF85400ADF85610169217939DF86D1052465B469A
S22400642014A822F07FFD24F079FB44F23645C1F200052B88064659071A4600F14B82002C73
S22400644040F0488201250395DC0600F18C82D80400F1FE82190540F1EF8144F24845C1F21C
S22400646000052A7813F0140F4FF02B038DF86C3014BF2224282422B1814B1B7804EB8304AF
S224006480E4B2033402215B46079852468DF86D4022F048FD44F23640C1F20000038813F0B9
S2240064A0140F1CBF0DF16E04019400F04183022152465B4644F201040198ADF86E4022F08B
S2240064C031FD032018F0F6FE1DAC24F8040D022152465B46204622F025FD44F2020502211E
S2240064E052465B460198ADF86E5022F01BFD002018F08CFE0546022152465B46ADF870507A
S2240065002046604D22F00EFD0326022152465B460198ADF86E6022F005FDB5F8C0500121C2
S22400652052465B462046ADF8705022F0FBFC46F2040552465B4602210198ADF86E5022F09E
S224006540F1FC002019F0A4FE00220023C4F224022BF0FEFC2BF096FF52465B4602210546F1
S2240065602046ADF8705022F0DDFC6FF0060017F06DFE2BF085FC00220023C3F6E0722BF082
S224006580E7FC0646B0460020019E0F46ADF872000025894605355B46022145F4C0455246DE
S2240065A03046ADF86E5022F0BDFC41464A46BDF8720017F0E3FB02210546524620465B4602
S2240065C0ADF8705022F0AEFCBDF872500135ADB2022DADF87250DDD9022152465B460B25B1
S2240065E00198ADF86E5022F09DFC009E0121757D52465B462046ADF8705022F093FC46F260
S2240066000C05022152465B460198ADF86E5022F089FC368A022152465B462046ADF870607E
S2240066200E2422F07FFC5B46022152460198ADF86E4022F077FC6FF00A0017F007FE44F21E
S2240066404845C0B251465A46C1F2000522F020FC2B780026ADF87060002B00F0E48044F622
S2240066606000C1F200000378002B00F0DC800023CDF808A09A4607E0884200108049001006
S22400668060480010144A00104AF4C044022104F58074029A5B460198ADF86E4022F042FC04
S2240066A044F6E40444F2484244F69E01C1F20002C1F20004C1F20001177814F80A300E888F
S2240066C0BB42C6F3032608BF4FF4C875ADF8706008BFADF8725000F09180774B13F80A30E4
S2240066E0BB4204BF4FF4FA66ADF8726000F086800020ADF86E00002F00F02E82002200237E
S224006700CAEBCA09CDF824A0CDF828B0DFF8C08100250492059392469B4611E04B4458F8D2
S22400672023002BF09DFB0B460246594650462BF05BFA0135ABB29F42264682468B463ED9B0
S224006740741EA4B223B25E1CE8D106242346E5E75A4C069E0025009416F002041A95199579
S2240067603FF439AE1BAE0DF1640A0DF1680B0221304652465B468DF86C50142507968DF8E6
S2240067806D5022F0CFFB4E4B009D1B684D4A1868A968127814902888EB686E881691298AF9
S2240067A0ADF85600D0061793ADF85460ADF86010424B00F18181FF22ADF862202CE6CDF84C
