S017000042696E732F4D333033352E50524F442E73726563D7
S224000000DCFF001001010000E9000000ED000000F1000000F5000000F90000000000000039
S22400002000000000000000000000000041040000FD0000000000000011040000ADB0020005
S224000040B101000045D20200B1010000A1CD0200B101000079B4020075B5020075B6020074
S22400006079B70200B1010000F9CA020035CC0200B1010000B1010000B1010000B101000007
S224000080B101000099B00200B1010000B1010000B1010000B1010000B1010000B101000032
S2240000A0B1010000D1C402003DDD0200B1010000B1010000B1010000B1010000B10100005C
S2240000C0B1010000B1010000B10100007DB80200B1010000B1010000E1D30200B101000002
S2240000E0B101000000000000FEE700BFFEE700BFFEE700BFFEE700BFFEE700BFFEE700BF71
S224000100214B224900B58B4206D2214A52F8040B43F8040B8B42F9D3264827494FF00002E3
S2240001208842B8BF40F8042BFFF6FAAF48F2FF424FF08043C0F21E025A6003221A70AA22F0
S2240001401A7255221A721D4880F30988114B124A186812499342086005D21149096843F8F5
S224000160041B9342FBD30F4B0BB100E000BF0E4B13B100E000BFFEE70C4B13B100E000BFA8
S224000180F9E700F0ADF9F6E700000010F400001015600300A4C80010DCFF00101457001099
S2240001A000000010000000000000000000000000FEE70000F4000010B0A30010A4CA001060
S2240001C000000000000000000000000000000000000000000000000000000000000000001A
S2240001E00000000000000000000000000000000000000000000000000000000000000000FA
S2240002000000000000000000000000000000000000000000000000000000000000000000D9
S2240002200000000000000000000000000000000000000000000000000000000000000000B9
S224000240000000000000000000000000000000000000000000000000000000000000000099
S224000260000000000000000000000000000000000000000000000000000000000000000079
S224000280000000000000000000000000000000000000000000000000000000000000000059
S2240002A0000000000000000000000000000000000000000000000000000000000000000039
S2240002C0000000000000000000000000000000000000000000000000000000000000000019
S2240002E000000000000000000000000000000000000000000000000000000000FFFFFFFFFD
S22400030000B58AB00AA8362340F8283D41F6F1736846C1F6FF7305A9984706980AB000BD2D
S22400032010B44FF44043C4F20F034FF40242C3F8C420D3F8A02142F02002C3F8A021D3F819
S224000340A0114FF440424906C4F20F02F7D54FF4D853C0F2B70301219842C2F80C1138D982
S22400036046F23A0414604FF460630924C2F88440C0F22773C2F88010AA21C2F88C10B3FB78
S224000380F0F05521C2F88C10002829D0A0422DD14EF2C0123A244FF48470C0F2E4024FF429
S2240003A040431A49C4F20F030A60C3F804011A461C60D2F888305B05FBD54FF44043C4F256
S2240003C00F030422C3F8A8210122C3F8002110BC7047C2F804113A2111600C4A1360ECE7A3
S2240003E045F23A0440F201101A46D8E793FBF0F24CF66B23511EC6F65F33A3FB0143DC0D59
S224000400240340F4807044F03A04C8E7B0A3001072B6EFF3088020E9F00F2C4981F30888F5
S2240004204FF000014DF804ED62B627F05BFC72B65DF804EBB0E8F00F80F3088862B67047E6
S22400044072B6EFF3088020E9F00F204981F308884DF804ED62B627F071FC72B65DF804EB52
S224000460B0E8F00F80F3088862B6704700B528F045FC72B6164880F30888A0F580601549A4
S224000480154AA2EB0101A0EB01001249134AA2EB010300EB0302014640F0010000F002F842
S2240004A0FEE700BF074C084D00B5AC42034605D254F8040BAC4241F8040BF9D31046984796
S2240004C0FEE700BF043B0300EC460300A4CA0010DCFF0010043B0300EC460300EC430300EA
S2240004E05C4A5D4B80B51A602AF0D4FE5B4A002313805B4A012513805A4A5B4C15705B4AE0
S2240005004FF4606015705A4AC0F2277013702570FFF706FF00202AF0CDFE26F075FC4FF47F
S2240005204043C4F20F03D3F8C410002241F00051C2F20802C3F8C41015632DF0C7F82CF06B
S224000540A3FE2CF059FC2378002B7BD1052029F0BDFE02204FF4165100222BF013FA012042
S2240005604FF4E12100222BF00DFA002002464FF416512BF007FA042042F6A00100222BF085
S22400058001FA2EF09DFC28F0B5FB3A4DAF1D6E1C15F8018F4046B8F1000F08D026F0CCFC6E
S2240005A006EB08131B7D0A2B47D0BD42F0D10120022126F067FD304B01221A701A785AB103
S2240005C04FF44042C4F20F024FF47061C2F8C01030BF18780028F9D14FF44045C4F20F05E9
S2240005E0002626702CF064FA2CF068FC2BF0A4FED5F8C420334622F00052C2F20803C5F879
S224000600C4201E632EF098FC2DF098F82AF0DEFE4FF46D43CEF200031A6942F004021A612F
S22400062040F60373C5F8C03030BF4FF08043AA221A721E7228F062FBFEE74046022126F06A
S22400064035FCB2E700202BF057FF28462BF054FF7CE700BFB4A30010844000108A40001027
S22400066094410010E8410010E4410010884000108D400010EB4603008C40001000B581B077
S22400068001A941F8040D0220694626F0D9FD009801B000BD00B581B001200DF1030126F07F
S2240006A0B3FD9DF8030001B000BD00BF2DE9F043734C85B02378FF2B68D00020694601AA0C
S2240006C01EF038FF2378054643B10099019A6D4B0131013283E806000020207002A9E520D4
S2240006E029F046FB03A90446E62029F041FB012801D0012C7BD1DFF8949141F6FF73B9F881
S22400070000209A4200F0A780009A01995D4B1DB91868904200F0A680B9F800501A60596073
S224000720002D36D1584F2024A0460126C0F21404554DC0F2180815E028690099AA69411ABD
S2240007400029B8BF4942914208D268690199EA69411A0029B8BF494291426FD30136B6B2C4
S22400076044450DD02022A4F1200047492FF0A6F93B7820349A1D012BD2B2F1D0042ADBD9B8
S2240007800023A9F8003005B0BDE8F08301232370F9E7ED04ED0C3C4F002D6DD04FF4A01426
S2240007A02022394920462FF089F93B78691E9A1DFF2BD2B2B7D0042A98BF8DB22034002DFE
S2240007C0EED1042AAFD83969009ABB698A1A002AB8BF52429A422C49A5D24869019ACB691F
S2240007E0821A002AB8BF52429A429CD2CBE7E72004A929F0BDFA049B13B942F210730493EA
S224000800009A0299891A0029B8BF49429942019906DA0398401A0028B8BF4042984226DB8A
S224000820DFF8689041F6FF73B9F8000098427FF46DAF0023A9F80030124B6DE7F604F60C80
S224000840FE2BA9F800609ED0C3F1FE0346EA43360E4B1E8097E70022A9F800200199009A11
S224000860084B59E7586888427FF456AF8BE7074B41F6FF721A8086E73A780632D2B2A0E776
S2240008806842001000010010404200107042001044F28403C1F200031B6800229A80DA80A8
S2240008A09A60DA601A615A61704700BFF0B5C5B2002383B0022D0193009300F0BE80022338
S2240008C08DF808301E238DF8093002216A4601AB02A829F009F82AF0C1FD5B4B5B4C1B785C
S2240008E0A060013BDBB2022B88BF594B4FF0030E89BF1B686FF0090318785E7881BF9978D5
S224000900DA7840EA062343EA0143504E88BF43EA026384F810E005F001074FF0340E6A46AB
S224000920E3600B2101AB84F811E006F10800A77428F0DAFF052026F0A1FC464B1B68DA88D1
S224000940002A4CD09988B1FBF2F23275986848F68902C8F68802A2FB00106169400960F3D0
S22400096017216161D868E169A2FB0062C2F34F12100A2076E2751869A26901F07F4160F342
S2240009801722A261187D0022E0765E69022D41EA1621E1612D4884F82020E27724D02E4B78
S2240009A090F82010D3F8C44093F8C720B3F8C03041EA042180F825302123016280F824201E
S2240009C080F82630132114306A4601AB28F08CFF3FB9052026F064FB009803B0F0BD32759C
S2240009E0B4E7FFF755FFF4E793F83F401A4A002380F82030D2F8C460DDB2B2F8C03092F838
S224000A00C71080F8253045EA06222123C477026280F824106A46132180F8263001AB1430A5
S224000A2028F062FF052026F03BFB04216A460DEB01030A4828F058FFCEE704238DF808309C
S224000A4020238DF8093040E77A420010000100100442001084400010204A00104056001042
S224000A6070B500B287B028B1AB4B1C8814F4806400F0B1802FF07EF9002402200C211EF0CC
S224000A8073FA0590002800F094800023037043708370C37006230371059E02234371032375
S224000AA0B371234624B1BDF90C30002B18BF02230025F3716620294601224FF0FF3300960E
S224000AC04FF08076019602951EF09CFA61200DF11A0129F063F9064600286DD1BDF81A304A
S224000AE0DA046BD502200D211EF03EFA059000285FD0067046708670C67006220271059BBE
S224000B000222427103229A71224624B1BDF90E20002A18BF0322DA7100934FF08073002151
S224000B200193BB2001224FF0FF3302911EF06AFA4C200DF10E0129F031F910B10023ADF863
S224000B400E30642003A929F029F910B10023ADF80C30BDF80E309B0705D5BDF80C3013F4BB
S224000B60805300F0C48002200D211EF0FDF90590F8B10023037043708370C37006220271CD
S224000B80059B0222427103229A71224624B1BDF91020002A18BF0322DA7100934FF0807350
S224000BA000210193222001224FF0FF3302911EF029FA204607B070BDADF81A5007AD0023B1
S224000BC045F8083D2946162028F0B2FE1720294628F0AEFEACE70B2003A929F0DFF808B1A4
S224000BE0ADF80C400C200DF11A0129F0D7F8BDF81A3018B10023ADF81A300023BDF90C20F3
S224000C001BB201249A42A4BF4FF0FF33ADF80C300DF10E01A8BF0024172029F0BFF810B1EC
S224000C200023ADF80E3016200DF11A0129F0B6F8BDF81A3018B10023ADF81A300023BDF9E0
S224000C400E201BB29A42A4BF4FF0FF33ADF80E3004A9B8BF0124642029F0A0F80546D8B9A7
S224000C60BDF81030D90417D5212004A929F096F808B1ADF8105020200DF11A0129F08EF866
S224000C80BDF81A3018B10023ADF81A300023BDF910201BB29A4206DB4FF0FF33ADF810308C
S224000CA0002C3FF4E7AE012210461C4928F0F6FC03A828F039FA044619490120224628F010
S224000CC0EDFC002C3FF4D9AE03A828F00BFDBDF80C1061BBBDF80E1021BBBDF810100029DB
S224000CE03FF4CBAE09B2202028F08AFFC5E607AD45F8083D29461F2028F01AFE2946202039
S224000D0028F016FE2946212028F012FE2220294628F00EFE4DE700BF2E420010C847030070
S224000D20E447030009B2162028F06AFFD5E709B20C2028F065FFCDE7F0B5B54D4FF6FF72DE
S224000D402B8883B0934238D01A051C0B120DADF80A40A4182AF082FB4AF28053AD4ACAF65E
S224000D603C531268C3180093577811789678D07841EA072141EA064144F6251241EA006187
S224000D80C2F29242A2FB016044F207560F1A00EB5700CCF22E268008A6FB0373C0EBC000AE
S224000DA0091A89B201EB1343A2FB03129B1A02EB53029208A24200924AD80C2501242846EF
S224000DC002A928F0EBFF0135002808BF00240F2DF5D11F25284602A928F0E0FF0135002864
S224000DE008BF0024232DF5D102A9162028F0D6FF02A903461720002B08BF002428F0CEFFF9
S224000E0002A903460A20002B08BF002428F0C6FF98B9BDF80830D3F1010338BF00231C4040
S224000E2011D12AF01BFB46F23F73C4F6A333984200902FD820B203B0F0BD012300261C40D8
S224000E40ADF80860EDD0002024F05EFA0024F1E72888BDF80A3000F470401BB1013B9BB2A3
S224000E60ADF80A309B186C4C03432B8021686B4B03221A800029A0D1DF2028F0E1FE019013
S224000E80002800F0CF8004F0B5FD2060644B08221A7092E74BF2C533C9F2A213A3FB00732E
S224000EA04AF6AB22DB0ACAF6AA22A2FB031244F207541509CCF22E24A4FB006405EB450501
S224000EC043200DF10A01A3EBC50528F067FFBDF80A30240CDAB2172AADB205DD03F47F43E5
S224000EE003339BB2ADF80A30B3F5006F02D90327ADF80A70BDF80830A3425ED0002024F01C
S224000F0003FABDF80A30BDF8082013F47F4017D1944276D00132944271D003200023019315
S224000F2024F0F2F90120FFF79BFD002862D021B20A2028F065FE002024F0E6F9012479E794
S224000F40944238D0180AC11CC9B2062901D9011FC9B2D01F8442E0DBD01D8442DDDC009E16
S224000F6044F20750CCF22E20A0FB067044F62516000CC2F29246A6FB0076871B06EB5706AE
S224000F80B608C6EBC606801BC0B288423BD042F29340521A631AC9F2492080FB031580FB0D
S224000FA00260D917ED188318D217C1EBA501C2EBA3039942B1D100243CE7009944F20753DF
S224000FC0CCF22E23A3FB01239DF80A004FF4A3421B0CC0F201024FF4616606FB00F002FBA0
S224000FE0131398428AD200F5167083422CBF0020012084E70A2001A928F09AFC9BE79D42D6
S2240010008BD2044616E7DBB29D4286DA002411E71842001004420010804200102442001037
S2240010201A42001046F2590303A8CEF2ED2340F80C3D224601AB0421684628F055FC03A8B4
S22400104041F2EC3320F8023D0221224601AB28F04BFC1BE740F20013C1F20003188D00307A
S22400106018BF0120704700BF03B2022B10B51DD0022028F039FA032428F058FA20460134D0
S22400108025F0F4FF072CF7D1032000211DF094FD152000211DF090FD0020022125F01AFF05
S2240010A028F044FA002025F0E1FFFEE700216FF003001DF057FE00216A201DF053FE0021CC
S2240010C06E201DF04FFE00216FF005001DF074FD00216B201DF046FE692001211DF042FE2B
S2240010E0C6E700BF2DE9F04F634F48F689013B88C8F688011AB2002ABFBF03F5F0439BB2BA
S2240011001AB23B80B2F5F04FC1BFA3F5F0439BB21AB23B80531E81FB0302D817D218C0EBC8
S224001120A232C2EB0212A3EBC22493B0002604F50A344FF6FF79DFF85481DFF83CB1A4012F
S22400114011961096C0F2A7094FF0FD0AD8F800304C4588BF4FF40A044022022501369C42CE
S224001160204669468DF848A08DF84950F6B214446FD02EF0A3FC9DF818E029460EF11B0EAA
S22400118010AA11AB12A88DF849E028F0ADFB294610AA11AB384828F0A7FB9DF8491010AAE5
S2240011A0023911AB6846C9B228F09EFB3B8801339BB21AB2B2F5F04F3B80C4BFA3F5F0435A
S2240011C0ABF800300F2EC1D100242C4B2C4A1B78106803EB43032B4A9B001370054610B179
S2240011E027F018FE054602200E211DF0BDFE119000283FD0109BDFF89880C3F30741C3F333
S22400120007271A0E8170C2700370477098F80030119F0622027103F00F0305224271BB7110
S2240012200023FB713846109727F034FE80B2030A38727B7298F80000109900F00F0041F06D
S2240012408071BE722A461DF09DFE20B213B0BDE8F08F294610AA11AB12A828F045FB11ABE4
S2240012600548294610AA28F03FFB074B3F8801241F80AAE70124E8E778420010F441001030
S22400128080420010F041001074420010384200101A420010CB1C13EA210338BF0B469B107F
S2240012A0002B30B413DD0B4A0568126895420ED1002203E050F8044FAC4202D101329A42C8
S2240012C0F8D1C2EB82729000081830BC70470020FAE700BF000000102DE9F041074683B0B5
S2240012E00D460220102116461DF03EFEFFB2044648B3062303710423437113234FF00008B3
S22400130083710223C37180F8008080F8018080F8028080F8038080F8088080F8098030461E
S22400132027F078FD0646380940EA071701224FF0FF33F8B241468DE870001DF063FE034BE1
S224001340012283F82A2003B0BDE8F081000100102DE9F04F3E4F8AB03B68B3F5806F34BF7D
S22400136099464FF48069B9F1000F67D0DFF8E480DFF8E4A04FF0000BB9F1F00F34BF4D465E
S224001380F025ADB208AB022107AA6C1D09A86FF00106CDF820B0CDF81CB08DF824608DF8F9
S2240013A0254028F0A1FA0D2007A908AA8DF8250028F050FA2748042107AA08AB28F094FAD7
S2240013C015B344F22023C1F2000318682EB2102EA8BF1026B6B234B203A922462EF06EFBED
S2240013E008ABF1B203A807AA28F07EFA3B68D8F80000AD1B1B1B2018ADB2C4EB09093B6042
S224001400C8F80000002DE1D144F22A26DAF80000C1F20006079D347827F0FCFC4FF0807386
S224001420019302900021204601224FF0FF3300951DF0E8FDB9F1000F9ED13B6823B9064BE7
S224001440186808B127F0B6FC0AB0BDE8F08F00BFFC410010204200100C42001070B505237E
S22400146084B08DF8003003208A238DF8013025F005FF02226946D6202BF054FD0224002064
S224001480012125F027FD002522466946D6208DF800408DF801502BF045FD2846012125F01D
S2240014A019FD01261F2322466946D6208DF801308DF800602BF036FD2846314625F00AFDB1
S2240014C03623D620694622468DF800508DF801302BF028FD032025F0E3FD04B070BD00BF1E
S2240014E02DE9F04F034690B0DBB203200B9325F0C5FE0CAA0B234FF48071D6202BF04EFD6F
S224001500032025F0CDFD9DF83A309DF833C09DF832E09DF836409DF831709DF830609DF89B
S22400152037509DF835809DF834909DF839A09DF838B044F60002C0F203020A93F9200B9B42
S22400154027218DE800500594029703960495CDF81880CDF81C90CDF820A0CDF824B01EF01B
S22400156047FC0121002025F0B5FC05238DF830300320BA238DF8313025F080FE02220CA9BC
S224001580D6202BF0CFFC0020012125F0A3FC01240B2302220CA9D6208DF831308DF8304077
S2240015A02BF0C0FC2146002025F094FC00230CA98DF83030D620B72302228DF831302BF071
S2240015C0B1FC032025F06CFD102006211EF0C8FE10B0BDE8F08F00BF2DE98048C04A0023DF
S2240015E013805380DFF81C8344F2342044F2102144F2F61244F2F81444F2FC1744F2202CCE
S22400160044F20C2EC1F20001C1F20002C1F2000CC1F2000EC1F20000C1F200044FF4167633
S224001620C1F20007A6B00B800370138023803B60CCF80030CEF80030A8F82C6029F00EFF8A
S2240016400BA928F09DFE0B9BB3F5FA6FC2F2DB846120A44928F0A2FB03B22BB144F2E21177
S2240016600020C1F20001088027F06CFB44F2E212C1F20002034644F204241088C1F20004B6
S2240016802360C0F343101DF063FE44F2E216C1F20006054630881DF07BFE924C0246294649
S2240016A000202AF06FF96420214628F077FB002842F09A8444F2E21CC1F2000CBCF80000EF
S2240016C044F2E214C0F343101DF042FEC1F20004054620881DF05CFE2946024602202AF082
S2240016E051F944F2042EC1F2000EDEF80030472019785D789A7841EA0521DB7841EA02427A
S22400170042EA036344F27A22B3F1FF3F0CBF04230023C1F200022146137028F03FFBB0B117
S22400172044F20426C1F200063368197858789A7841EA0021DB7841EA024242EA03630133A9
S2240017401CBF4FF0000CA4F800C000F010810820654928F023FB002800F0FA8044F2EE10AF
S2240017604FF0000EC1F20000A0F800E004205F4928F014FB28B144F218230022C1F20003D7
S2240017801A8044F2242644F2762744F21B2C0024C1F20006C1F20007C1F2000C07205449C0
S2240017A034803C808CF8004028F0F8FA58B144F23C2E44F21B20C1F2000E0223C1F2000033
S2240017C0AEF80040037006204A4928F0E7FA50B144F2722244F23C230021C1F20002C1F210
S2240017E000031180198044F27224C1F20004B4F9003044F27427B3F5F04FC4BF3D4B4FF055
S224001800000C4FF0FF36C1F20007C8BFA3F800C03E8044F2782E44F2842444F2802644F21D
S2240018201A2744F2F01C0023C1F2000EC1F20004C1F20006C1F20007C1F2000C7F2023A9E8
S224001840AEF80030237033603B708CF8003028F0A5FA98B9BDF88C0031F08CFB30F04CFFCC
S22400186025A30CCB31F0C8F80022C3F6F072002330F0E4FD31F078FA214C206000201DF0D5
S224001880F9FC4FF48043C4F202039B6C44F2900623F07F43C1F20006032033601EF016F85A
S2240018A03E200DF1860128F079FA10B10027ADF88670BDF886306FF0090003F00F0319B28F
S2240018C0ADF886301DF078F945200DF1860128F065FAC8B14FF0000CADF886C014E000BF67
S2240018E0D8410010E2410010EE410010184200103C42001072420010006AF84000000000EA
S224001900E800001000010010BDF8862044F2262ED3B2C1F2000E19B28EF800206FF00400BA
S224001920ADF886301DF048F94FF08043AA221A72552200201A721EF02BFD83B218B245F210
S224001940F051C1F2000100280B8013DDFFF78CFB44F2EE11C1F200010B88002B3FF406AFDE
S2240019602EF0B8FD324933481DF060FEFEE6FF272780ECE62BF008FF002842F0D6830320B3
S22400198001211DF019F9082000211DF015F9152001211DF011F944F2EE12C1F200021388A9
S2240019A0002B02F0BA83244D4FF4FC71286828F097FA2B681868002842F00C842B689A69DB
S2240019C04AB948F2F45149F64132C2F20601C0F26B5219635A6393F84020FF2A02F0F583ED
S2240019E0D1075EBF02F07E0242F0010283F840202CF002FB06462CF005FB07462CF00EFB78
S224001A00044600944AF200343B460C4901203246C1F2000427F042FEB4F90030F3B14AF239
S224001A200037C1F20007064C07F13C060CE000BF6C4703003842001084400010104803000A
S224001A40FEA20010B44209D034F9022F0120C74927F024FEB4F90230002BF3D101201DF03E
S224001A6009FC5C20C24928F099F944F22E2CC1F2000CBCF8002044F27E2E120AC1F2000E49
S224001A808EF8002012B1531E8EF80030B84C4120214628F083F9002841F0F18723889B0634
S224001AA041F1EF87B34C0694207044F2EA170024C1F2000721466A20A8F8284088F82E4054
S224001AC088F82F4088F82A403C801DF04BF9AA4B21461C606B201DF045F921466C201DF06D
S224001AE041F949200DF18A0128F058F903B21BB14FF0030CADF88AC05A20A04928F04EF9CC
S224001B0018B94FF0030EADF88AE0BDF88A00002100F007001CF02CFE4620984928F03EF96D
S224001B2028B144F21C210020C1F20001088044F21C22C1F2000213886FF00500C3F3C12336
S224001B405B00591CADF88A301DF036F84FF0FF302BF004FC45F2F0568310C1F20006DFF8ED
S224001B603CB2874C44F2640E44F2660044F258014FF0FF3C00273380C1F2000EC1F2000004
S224001B80C1F200017F4EDFF818A2DFF81892ABF80070AEF800C02780A0F800C0A1F800C0DC
S224001BA000222B689F1897F84C1019B3B2F5D67F20D202F14C0019184A78FA2A00F0F58153
S224001BC08A781E2A00F0FE81322A00F0A582142A18BF1A5C00F05B82BBF80030013203EB78
S224001BE082022B6892B2ABF800209F1897F84C100029DBD144F22E2C44F2660EC1F2000C52
S224001C00C1F2000E0120BEF90030BCF800205E4927F044FD44F22E20C1F2000003885B4CBA
S224001C209E0504D5B4F90030013303F0918244F25802C1F2000244F25804B2F90030012039
S224001C4032225149C1F2000427F028FDB4F90030013303F04C824E4A002344F2EE17138043
S224001C60C1F200074B4A44F2682C398804201380C1F2000C02224FF0210E8CF80020C8F819
S224001C800430C8F80030A8F830E0A8F83200A8F83400002943F00F8200239AB226AC013363
S224001CA044F26027002604EB4201C1F20007042B27F8126021F8406CEFD144F21E2E44F253
S224001CC00022FF23C1F2000EC1F200024FF0070C442022A98EF800301370ADF88CC028F082
S224001CE05DF8002801F0B0862623ADF88830BDF88830642244F2640402FB03F3C1F200045A
S224001D00248844F26C06C1F20006032006213480ADF8883025F0B6F90B202121002225F0EE
S224001D2063FA14210A461B231B4825F081F9052348200DF18A0188F8543028F02FF8002808
S224001D4001F07A865B26ADF88A60BDF88A300A2202FB03F345200DF18601ADF88A3028F08E
S224001D601DF808B30027ADF886701DE0344803002E4200101F420010DC4100101C420010C4
S224001D807C420010604000104C48030066400010124200107042001038010010E0410010D3
S224001DA068400010644000109DF886306FF0040019B2ADF8863044F228241CF0FDFE44F21F
S224001DC0302C44F22C2E44F26A2044F2082144F26C220023C1F20001C1F20002C1F2000CE4
S224001DE0C1F2000EC1F20000C1F200040B8013802380CCF80030AEF800300380FFF72EFB86
S224001E00A84A0421A84B4CF6A4075618C1F200079B1BD21BA54C93FBF1F392FBF1F108948D
S224001E200A930991A24825F069FA1B2800F002822128F7D10B201AA925F05AF81A9C002C05
S224001E4001F0718414F0007708BF3E4640F01385204631461DF0EAF984B204F00F03012BD4
S224001E6000F23784DDF868A005222AF04F431DA818A904F0010407941D9327F01FF80528DB
S224001E8040F0AF839DF86130002B40F0AA838DF8963099469DF864305A1E8DF86420002B2E
S224001EA071D002221DA821A927F008F80228044640F097839DF88430122B00F03F8600F227
S224001EC0A2810C2B00F278830B2BC0F088840020322124F0FFFF9DF8852000211DA826F009
S224001EE0EDFF204609211DF03FF81B90002899D00023037043708370C3701B9E06233371EC
S224001F000423224621A97371B01D0B238DF884308DF8854031F060FD20A9602027F03EFFE6
S224001F20032319461A4630B9BDF8803003F00702D1B2C3F302239DF86000ADF880200409C8
S224001F4044EA001002228DF896208DF89700317273721FB1384626F05DFF81461B9B9DF869
S224001F6096208DE808049DF897004FF0FF330021CDF808901DF046F89DF864305A1E8DF899
S224001F806420002B8DD1B8F828303BB144F2EA10C1F20000038843F0040303801D98002833
S224001FA000F09C8326F006FF98E31A5C12F0030F43F0C98092081A54F9224A708A781E2A4A
S224001FC07FF402AE44F2660EC1F2000EBEF90030013364D144F26400C1F20000B0F90030F8
S224001FE05F1C00F008818F882868ADF84870B1F806C00A1DCAF8002003F14C01ADF84AC07C
S224002000425C5433013241189200C018CDF810C031F0EBFCB9F80020296813B24C33CB187A
S2240020203068191DCAF8001044F2660102F1080E0830C1F200010A80A9F800E030609F80AF
S224002040DDF810C0A3F806C044F26607C1F20007B7F900302A684C33D1181E2088700220E6
S224002060C870D05C012802BF208840F00800208001200431D054CAF80010D25CBBF8003030
S224002080121803EB820292B2ABF8002089E544F26407C1F20007B7F9002001320AD0BBF83F
S2240020A000207EE5A4CA0010DCFF0010E80000107C470300BBF8002027881FFA82FEBEF1A7
S2240020C0080F47F00107BFB2316008BF5849278004BF47F002070F80A9F800E0195C3E29A5
S2240020E001BF218841F004012180195C4B1C02EB8303B3F5D67F9CBF9AB2ABF800207FF670
S22400210050AD44F2640E4FF0FF3CC1F2000E0023AEF800C0336044E544F25800C1F2000054
S224002120B0F900300133BAD144F26402C1F20002B2F900707B1C56D044F25C0C0B1DC1F260
S224002140000CCCF800301946102212A831F044FC2B6807F14C015A5C07F160000132591844
S2240021601818920031F041FC3068B9F8002000F1140C2F68C6F800C011B244F2580C4C31D1
S224002180C1F2000C7B1802F1140EACF800201E229A70A9F800E0042244F25C0EDA70181DFF
S2240021A0C1F2000E01237B541022CEF8000012A931F012FC44F25802C1F20002B2F9003064
S2240021C02A684C33D118042044F25C0C0F184FF0320EC1F2000C81F802E0C870D054CCF85E
S2240021E00070D25CF8E4BBF8000044F25801C1F200010880DEE7BBF8002044F26603C1F2F8
S22400220000031A8020E71A2B00F24B82192B80F06A82142B00F0F085C0F07C85182B00F0E9
S224002220E8849DF885201DA8002126F047FE31E67C42001044F2F021C1F20001B1F90030F8
S2240022400022B3F5967F88F82A2000F3F58244F2FC12C1F200021368002B40F0EA8298F89B
S2240022605430013BDBB288F85430002B7FF4DAAD44F23023C1F200031A68B94944F2302496
S224002280BDF88C3001320520C1F2000481F85400226023B35C1EAA224FF080431A72A4B26A
S2240022A055221A72ADF88C40CCB90726ADF88C602746652644F2602CC1F2000C0DF1580E85
S2240022C034F80C303EF804209A4201F0048016AA1353023401370136082CBFB2EAD1B8F80B
S2240022E0283013B19E4A013B138544F22424C1F20004B4F900309B4C012B00F3A082002B9C
S224002300C1F2F08044F2842CC1F2000C9CF8003043B344F21A2EC1F2000E9EF80030082BFE
S22400232001F0848644F2F010C1F200000478013CE4B20470B4B944F2F411C1F200010A8803
S224002340013292B213B2052B0A8001F32587012B06DD44F27822C1F2000213880F3B1380D6
S224002360FEF7C0FE00201DF05DFA044603201DF0ADFA0646002C00F01C86032024F07EFF42
S224002380012308210DF19502D6202AF007FE032024F086FE2B6893F94030002BC0F279841D
S2240023A044F68C10C1F20000B0F90030002BC0F24D8444F2082E4FF0000CC1F2000E11205F
S2240023C0AEF800C01CF058FA002800F0E38676201CF052FA30B144F22C20C1F20000038824
S2240023E00133038011201CF047FA002800F0178440F252339E4200F2A98744F26A23002252
S224002400C1F200031A8040F2180CC1F2000C9CF80030554F5B0613D444F2302EC1F2000E4D
S224002420DEF800300A2B0BD929F018F846F24073C4F6A3339842C2BF3B7843F040033B70A5
S22400244040F2523305209E4240F2B18324F016FF2B6805209A6801329A6024F021FEBDF85D
S224002460883073B9BDF88A30B34240F21287B8F8323033B1013B3A4A9BB25386002B01F04C
S224002480E9856D201CF0F8F9002800F07983052024F0F4FE2B6893F840209C8722F07F02CC
S2240024A042F07E0283F84020052024F0F9FD68201CF0E2F90346002840F0588344F2EE1438
S2240024C0C1F20004228822B1FA202121274A1DF08FFC44F22E26C1F200063388DF0508D59F
S2240024E02B6893F94030002BC0F2A5860027A8F82C700B2003211DF033FF74201CF0BCF9FA
S22400250068B944F26921C1F200010B783BB144F6A212C1F20002138843F400631380069CA5
S22400252044F269262378C1F200063070002B40F07B85B8F8303003F00302032A00F04B858D
S22400254003F01F021F2A32D093B1013B9BB2A8F830306BB9024B4FF434721A8608E000BFA9
S22400256000010010244200101800001064480300052024F083FE44F68C1444F22623C1F232
S2240025800003C1F2000444F27E2619782288C1F2000633784A4042FA03F3D80703D52B68FD
S2240025A0DA6A0132DA62052024F07AFD3AE4FEF7C3FBB8F83030C7E70E2B00F02582C0F0A4
S2240025C071840F2B7FF42DAE9DF885200E2A0FD01DA8002126F072FC9DF8853098423FF467
S2240025E059AC1D9826F0E6FB384626F0E3FB19E407211CF0B9FC1B9000283FF413AC0024E4
S224002600047044708470C4701B9B0E220626991D1E715A711DA826F051FC0E28E1D12046CD
S224002620012126F0ADFE1C90002802F0B1841B9BC0F30741020EC0F307249970DA7018703D
S2240026405C701B9826F026FC9DF860300246190941EA0313022008218DF896208DF897301C
S2240026601CF082FC1C9000283FF4DCAB1B9B1A0EC3F30724C3F30741C27003704470817036
S2240026801C9B02225A7110221E719A719DF896201B93DA7101238DF89630002F7FF45AAC68
S2240026A05CE4FD2B00F07581FE2B00F0F280202B7FF4B7AD01239DF8852000211DA888F856
S2240026C02F3026F0FBFBD8F858002CF01DFFFFF7E1BB1A9820F04F4026F06CFB384626F036
S2240026E069FBFFF79FBB9DF88560012E41F29483012B40F0EB834FF0000C0020022EADF824
S2240027008EC0324600F0F3839DF88430012B03D0B21ED2B28DF8852000B2031C18BF0123F6
S2240027207F28CCBF002303F001031946002B00F03785022A08D000211DA826F0BFFB9DF8C3
S224002740853098427FF44DAF24A99DF88E0027F025FB02221DA820A926F0B0FB02287FF43F
S22400276040AFBDF88E301AB27E2A3FF793AB9DF88420BDF89040192A02BFBDF8802022438E
S224002780ADF890200ED01A2A02BFBDF8802024EA0202ADF8902005D0022A04BFBDF880C087
S2240027A0ADF890C0D8B2BDF9901027F029FABDF98E30452B02F08B833E2B02F07E83462B54
S2240027C002F09D83472B7FF465ABBDF8906044F2E21CC1F2000CACF80060FFF75BBB022B18
S2240027E081D0032B00F08481012B7FF41AAD079E002E3FF416AD9DF88560002E7FF475AFF2
S2240028001FB1384626F006FB81469DF86040002024091034FEF74AF88DE801040421204685
S22400282001224FF0FF33CDF808901CF0EBFBFFF731BBFEF78DFD12E508F03EFC07E500201A
S2240028401EF044FE002880F2168444F27621C1F200010B88002B3FF455AD01339BB21AB22E
S224002860C549962A0B807FF74DAD0022228066201EF0BEFD46E524F04F4630461AA91CF05E
S22400288079FF1A9B04F04F441C4337461A94FFF7DFBA9DF88510002900F0118401221DA8A6
S2240028A00DF1960126F00AFB9DF885309DF89660013B8DF885309DF860301A0942EA03138E
S2240028C00B2E8DF8973000F00C8400F29885052E01F0508701F23B83022E01F02F8501F26B
S2240028E03581002E41F01681FE241CAB02211BAA8DF8844021A807241C961B968DF885406C
S22400290026F0F2FF1BA91CAA30468DF8966026F0A1FF44F21E2EC1F2000E9EF800001BA9DD
S2240029201CAA26F097FF02211BAA1CAB934826F0DBFF44F20021C1F2000108781CAA1BA991
S22400294026F088FF8DF8966045F67872C1F20002905D1BA91CAA26F07DFF9DF896600136B5
S224002960F6B2012E8DF89660EED91FB1384626F051FA81461B9B9DF897008DE8080400213F
S22400298001224FF0FF33CDF808901CF03BFBFFF781BA9DF88530032B7FF47CAA01220DF19C
S2240029A097011DA826F08AFA22461DA80DF18E0126F084FABDF88E309DF88520033A1E04C1
S2240029C042BF03F5F043ADF88E309BB28DF885201AB2B2F5F04FC4BFA3F5F043ADF88E3089
S2240029E09DF89730042B3FF655AA0FF2080E5EF823F000BF855200007F520000FD510000DE
S224002A00951E0000AD5100004F2024A927F0C6F918B14FF03C0CADF890C09DF885201DA8AA
S224002A20082A7FF4D6ADBDF8904014F480647FF4D0AD04221EA926F041FA042806467FF4DF
S224002A40D0AD28F00BFD1E9B1EA9C31AB3F5967F1DA8324681F06F8326F030FA04287FF43B
S224002A60C0AD1E9828F000FD40F2180EC1F2000E9EF80030022043F040030B218EF80030C0
S224002A801CF072FA1B9000283FF4CCA9047044708470C4709DF860301B9E1A0942EA0313AB
S224002AA05FFA83FE06233371022373710D23B371F47121460122704600964FF0FF334FF022
S224002AC080768DF897E0019602941CF09BFA1E9A4FF46A5302F57C3202F59062C0F209032D
S224002AE0B2FBF3F319B2092027F08AF8FFF7D2B9079C9DF88520002C40F0F785012A40F21E
S224002B00E985032A1DA80DF18E0100F0D685022226F0D4F902287FF464ADBDF88E301AB284
S224002B20FF2A00F0A9857F2A3FF4B4A9D8B21CA900231C9326F0FCFEFFF7ACB99DF885303A
S224002B400024012BADF88E4000F0A88398F82A3013B19DF885203BE53A469DF860000AF01B
S224002B604F41FEF7B9FB9DF8852031E54FF4167EA8F82CE0C1E400BF76420010224B00109B
S224002B80052024F07BFB40F20402C1F2000291892B68A1429C87BF4A80F0EF8293F840200C
S224002BA022F07F0242F0650283F840207CE424F065FB2B680520DA680132DA6024F070FA50
S224002BC0BDF88830002B3FF45CAC9C4280F04C83B8F83430002B3FF454AC013BAE4A9BB20D
S224002BE09386002B7FF44DAC0A2006211DF0B8FB47E49DF885201DA8002126F05FF9079CB3
S224002C00002C3FF447A91FB1384626F003F981469DF86040240910341FF080FAFCE544F2F3
S224002C206A27C1F200073B8801339BB2282B3B807FF4E9AB112001211BF0BEFFFA2027216E
S224002C40964A01231DF0D4F8FFF7DDBB44F22821C1F200010B8801339BB21AB2B2F5616F7A
S224002C600B8016DD052024F009FB44F28402C1F200021368052093F8402062F07F0283F84A
S224002C80402024F00DFAFA202721844A05231DF0AFF844F68C17C1F200073B8840F6457261
S224002CA0DB0B94428CBF002303F00103002B3FF480ABB4F57A7F7FF67CAB9DF8953013F0CA
S224002CC0300F7FF476AB44F2082CC1F2000CBCF80020734B002A41F05D8044F26C2EC1F2A6
S224002CE0000E0120AEF80040188044F20827C1F20007B7F900305A2B7FF469AB11200121C4
S224002D001BF05AFFFA202721644A0B231DF070F8FFF75DBB9DF885300021042BADF88E10AC
S224002D207FF614AF98F82E30DA073FF50FAF04221DA81EA926F0C2F8042801F01782BDF9A7
S224002D408E30012B7FF402AFD8F858001E9A0024904288F82F4041F05E819DF896305BB91C
S224002D603FE00C791C190C719DF89610CB1ADBB28DF89630002B34D01D9A54791179A342DE
S224002D8028BF234651181A468DF897302DF0DEFF1D999DF897304C791E9AE41A9818E4B2FC
S224002DA002461E904C71002CDBD108784C788A78CB7840EA042040EA024242EA036301208B
S224002DC01C9324F0C5F81C9B9DF896101D939DF897301E98CB1ADBB202468DF89630002B8A
S224002DE0CAD1D8F8583093423CBF2B4B9A65F023A8F82830FFF74EB89DF885200024022A05
S224002E00ADF88E407FF4A2AE1DA824A926F056F8022801F0A681BDF98E30012B7FF496AEE8
S224002E20D8F858002CF070FB1421002024F052F82EF068F844F2EA1CC1F2000CBCF80010EE
S224002E40030A43EA0023BDF890209BB241F00401ADF89230ACF800101AB95A1CADF890206F
S224002E6092B29A427FF416A80020782124F032F898F82F303BB9084B012283F82E200420BF
S224002E8002211DF06DFA4FF0000EA8F828E0FFF701B800BF0400001000010010644803005F
S224002EA0084200109DF88560002E00F07182042E1DA801F00B800021324625F0FFFF9DF874
S224002EC0853098423EF4E6AFFFF78BBB02221DA80DF18E0125F0F2FF02287FF482AB9DF880
S224002EE08560BDF88E00022E32467FF40DACA0F180039BB25F2B40F2018430460A211CF082
S224002F0033F81B9000283EF48DAF00231C90037043708370C370BDF88E201B9811B2062422
S224002F207F290471437141F39882DF29D8BF059301F3838200231C9300283EF4ABAF25F0A2
S224002F40A9FF9DF8603002461909022041EA031301468DF896208DF897301CF005F81C904F
S224002F6000283EF45FAF1B9BC3F307241A0EC3F30741C2700370447081701C9B06221A7173
S224002F8004225A7102229A719DF89620059C02321B93DA7114B1FF26ADF88E6003F108007A
S224002FA00DF18E01022230F017FD002F7FF4DEACE0E4052024F062F92B68012283F8402012
S224002FC0052024F06DF844F2282EC1F2000EAEF80040FFF7D2B944F26820C1F200000378AE
S224002FE0022B01D0FDF762FB4FF0FF302AF0B6F945F2F051C1F200010B88C0F38F0419B276
S22400300020B2461A0336CD4A062E9CBF1480B8F830307FF695AA884241F3168004331380E4
S224003020B8F83030FFF78CBA07F01CF9C60440F1208142F21003034000F00C02002B00F0F4
S224003040E586042A0CBF06220522DDF818C09CF8003093423FF46DAA44F26C7EC0F2030E45
S224003060B7490EEBC2030A70002059699A6928F0BFF9FFF75EBA00201EF028FA002840F0A8
S224003080FC810220FDF712FC44F28027C1F200070646386825F0BEFE0096074604211820F6
S2240030A001224FF0FF334FF08076019602971BF0A9FF4FF0010CA4F800C0FFF723B90A4695
S2240030C01DA88DF8961025F0F9FE9DF860309DF896601A0942EA03130B2E8DF897307FF4E2
S2240030E0F4AB4FF0FE0E1CAB00241BAA02218DF884E021A84FF0060E8DF885E01C941B94C0
S22400310026F0F2FB1CAA1BA930468DF8856026F0A1FB2146012013F0BFFB1CAA03461BA973
S2240031208DF8853026F096FB0121084613F0B4FB1CAA03461BA98DF8853026F08BFB0221BB
S224003140012013F0A9FB1CAA03461BA98DF8853026F080FB0321012013F09EFB1CAA034614
S2240031601BA98DF8853026F075FB0421012013F093FB1BA9034601F03DBAD189A1424CD29F
S22400318093F8402022F07F0242F0510283F84020FFF78AB9112001211BF00EFDFFF717B9E4
S2240031A0DF2840F37B84042A07D01DA825F086FE9DF8853098427FF414AA04221DA81FA966
S2240031C025F07CFE04287FF40CAABDF88E30FF2B0CD144F27A2EC1F2000E9EF80020032A0A
S2240031E004D99DF88420022A01F07C85D8B21EA926F0BEFD9DF88430192B00F0F8871A2B33
S22400320000F0EE87022B04BF1F9B1E939DF88E001E9926F0D3FCFEF73DBE118AA14280F04C
S224003220AA8593F8402022F07F0242F03D0283F84020FFF739B9B8F82C30013B9BB2A8F873
S2240032402C30002B3FF455A9B3F5157F7FF455A944F6A21CC1F2000CBCF8003043F0200313
S224003260ACF80030FFF749B90421A8F83410FFF708B944F21E27C1F200073B7807229C0709
S2240032803FF5E3AE00F00C02042A0CBF02220122DBE60420A8F83200FFF7F3B898F82E60B0
S2240032A016F001067FF452AC1A461DA80DF19701ADF88E308DF8974025F000FE9DF89730A2
S2240032C0012818BFADF88E60BA2B00F022820020ADF88E003AE4002231461A48ADF88C2020
S2240032E027F05EFD0020322123F0F4FD44F2EE1CC1F2000CBCF800302BB1FA200321124A87
S22400330033461CF075FD44F2EE104FF0000EC1F200000FFA87F9A0F800E02CF0A3FAB9F119
S224003320010F00F02D87092101201DF019F844F26021C1F20001635AFEF7C9BFF055001071
S2240033401F420010844803006448030076201BF093FA00283FF451A844F26A21C1F2000182
S2240033600A88531C12B29BB2B2F5617F0B8081F29D860A2B7FF447A8112000211BF01CFC82
S224003380FA202721B94A00231CF032FDFFF73BB83146092026F034FC1B961C9628F05EF8C5
S2240033A004211BAA1CAB06461FA81F9626F09CFA1B9825F06FFD03468DF896302046092389
S2240033C004218DF897301BF0CFFD1C9000283EF429AD1B9B1A0EC3F30726C3F30741C270D3
S2240033E00370467081701C9B06221A715C710D229A719DF896201B93DA71FFF7B6BA1D2E48
S22400340001F0C98000F2F5800E2E01F0A0807CD80C2E01F009810D2E7EF43CAD9DF88530D0
S224003420072B7EF637AD924904221DA825F046FD1DA89049042225F041FD3FB1384625F045
S224003440E9FC44F20C21C1F20001086044F22023C1F200031A68864B501C01F011809DF8FE
S224003460971044F22A2622F00F02C1F200061A603170FDF76DFFFEF70DBD01201EF026F8B7
S2240034800028C0F2918501201EF020F8064600287EF438AF0220FDF709FA44F28023C1F27E
S2240034A000038146186825F0B5FC04210746012218204FF0FF334FF0807E0297CDF800908E
S2240034C0CDF804E01BF09EFDB4F9003044F27627C1F20007022B3E8001F0E0800120208031
S2240034E0FEF710BF44F27626C1F20006338801339BB21AB2962A33807EF704AF0027278007
S22400350066201DF075FFFEF7FDBE142E00F07586192E7EF4BFAC49F2D821C1F20001B1F90C
S22400352018404FF0000E01344FF0FE0C02211CAB64001BAA21A88DF884C0CDF870E0CDF8E4
S2240035406CE0ADF890E08DF8854026F0CDF91BA930461CAA8DF8856026F07CF949F2D822B5
S224003560C1F20002137E927E8DF88530D10744BF63F07F038DF8853049F2D8269DF8850079
S2240035801BA91CAAC1F2000626F064F9B6F918304FF0000C002BADF892C018DD00244AF2B7
S2240035A0003EC1F2000E0EEB4400022101341CAB1BAAADF8924026F097F949F2D820C1F2E3
S2240035C00000BDF89240B0F918309C42E7DB38461B9E9DF8974025F01DFC00210290012227
S2240035E020464FF0FF338DE840041BF00BFDFEF751BC7F2E01F0CF8400F230841E2E01F04D
S2240036001785642E7EF446AC9DF88530022B7EF4E8AF44F27A22C1F200021378002B3EF424
S22400362039AC24A902221DA825F048FC052023F025FEBDF890102C6808B200220B46ABF87D
S22400364000102018114605E08418013384F84C109BB201321CB240F2AB16B442F4DD05200C
S224003660ADF88E3023F01CFDFEF714BC6448030020420010FC4100109DF88520022A08D045
S22400368000211DA825F01AFC9DF8853098427EF4A8AF02221DA80DF18E0125F00FFC022867
S2240036A07EF49FAFBDF98E2045F2AA539A427EF4F1AB25F069FBFEF7EDBB01220026ADF8BF
S2240036C08E6025F0FBFB9DF88530013B8DF88530FFF723BA00211DA825F0F0FB9DF8852039
S2240036E090423FF40EAAFEF77CBF1DA8002125F0E5FB0020FDF7B4F9FEF7CCBBC0B226F038
S2240037009FFA04461B90002800F08A860026059610E4BDF98E30012B00F07486002B7EF412
S224003720B9ABFFF713BA98F82F30002B41F0D482069E3378002B41F0B883002303201A93E3
S2240037401CF0C4F84FF48043C4F2020344F68C179A6CC1F20007397802F07F420A434CF64B
S224003760CD47DFF8A89304469A64CCF6CC474FF080464FF0AA0800200A2123F0ABFB1A9B52
S224003780A7FB03C2D20802EB8202B3EB420F03D1552286F8088032720133B3F5167F1A9370
S2240037A001F26C8399F80030002BE4D0012007F0CBFC25F091FE002106466FF006001BF022
S2240037C0FBF901216FF001001BF0CCFAA6F10A03DFF83CA3DBB20022012BAAF8002041F273
S2240037E03183C74E4620314626F0D8FA0146002800F0198100233380692001211BF0B2FA05
S22400380044F21C26C1F2000631786FF003001BF0A9FA3388AA214FF080421172552113F432
S2240038200056117201F04D82C3F3C123590001316FF005001BF0C0F96B2001211BF092FA59
S22400384025F04AFE0F28074606464FFA80F809D8012101FA08F248F2A013134013B16C20ED
S2240038601BF080FADFF8A8924A20494626F096FA002800F0CE804FF0000CA9F800C06E206E
S22400388000211BF06FFA4FF08043AA221A7255221A7200230F2F8DF8953040F2DB800020D9
S2240038A01BF0C0FFB0F5616F06D840F252339C4202D901238DF89530122000211BF052FA5E
S2240038C040F2040EC1F2000E9EF800304BB19DF895801220B8F1000F01F0D38101211BF016
S2240038E06BF9884F4FF08043AA2239881A7255221A7206202AF0ACF9072079882AF0A8F9A2
S2240039000820B9882AF0A4F944F290000023C1F20000102E036069D944F21C21C1F20001DC
S2240039200B889B0401F15F824FF4804744F21C2CC1F2000CC4F20207BCF80030BA6C6FF00E
S224003940030002EA03081AF097FF44F21C2EC1F2000EBEF80030034088EA03081FFA88F848
S224003960B8F1000F41F01C8203201BF0AFFF40F252339C4294BF00240124984294BF00235E
S22400398001239C421FBF44F29004C1F20004236843F0010318BF2360BAF800309F0741F0EC
S2240039A0CD81002001464FF4FA7227F021FD4FF48043C4F202035B6C13F0010009D196214C
S2240039C023F088FA01201CF0E3FC0446002801F02F820020014629F0B9FB0B2E01F09E81B0
S2240039E025F0A4FD002023F041FBFEE7012173B201FA03F342F2120261F31F42134231D02D
S224003A004FF48043C4F202035A6C42F001025A64C7E7B9F8003098073FF431AF6E20012136
S224003A201BF0A0F92FE7B6F90030002BBFF6E4AE69201BF097F9E3E6BDF88A3023F47E4342
S224003A40ADF88A30FEF781B99DF88830ADF88830FEF74DB9012303FA08F818F4134F7FF42C
S224003A6024AF1CE7190540F1CA8268201AF004FF002896D00D200E211CF072FCC0E70E2002
S224003A802080214E0123337000204FF0FF314FF4FA72069627F0ACFCFEF707B81B931C93A1
S224003AA08DF8963082B91FE01BAA9DF897001CA925F0D0FE9DF896309DF885200133DBB28D
S224003AC09A428DF896300FD901221DA80DF1970125F0F4F90128E7D01C9825F06BF91D9890
S224003AE025F068F9FEF7FABDBDF88E00002800F029831CA9C0B225F01BFFFEF7CBB900BFFA
S224003B001C420010F80000101F420010F4000010F2410010012E7EF4BDA99DF88530002BF6
S224003B203EF4B8A91DA80DF19601324625F0C6F91FB1384625F06EF981469DF896109DF8E6
S224003B4097004A4620F0E6FCFEF7A4B9032E01F0EE81042E7EF49EA94FF0000C0122FE23EA
S224003B60B448CDF870C0CDF86CC0CDF810C08DF885208DF884302FF089FF841CE4B2AE4893
S224003B808DF885402FF082FF431CE418E4B2AB488DF885402FF07AFF431CE418E4B2A8488F
S224003BA08DF885402FF072FF431CE418E4B2A5488DF885402FF06AFF00F125021CABA418DB
S224003BC002211BAA21A88DF8854025F08DFE1BA91CAA30468DF8856025F03CFE95482FF090
S224003BE055FF1CABC1B21BAA924825F07DFE1BA91CAAA72025F02EFE8F482FF047FF1CAB6E
S224003C00C1B21BAA8C4825F06FFE1BA91CAAA72025F020FE89482FF039FF1CABC1B21BAA66
S224003C20864825F061FE1BA91CAAA72025F012FE83482FF02BFF1CABC1B21BAA804825F0D7
S224003C4053FE1BA91CAAA72025F004FE7D482FF01DFF1CABC1B21BAA7A4825F045FE1BA9C9
S224003C601CAAA72025F0F6FD44F62023C1F20003B3F9CC40B3F9CA207349A7230BA800945C
S224003C8027F074F80BA82FF001FF44F62024C1B21BAA1CABC1F200040BA825F025FEB4F9FE
S224003CA0C0306A49A7220BA827F060F80BA82FF0EDFE1BAAC1B21CAB0BA825F015FEB4F92D
S224003CC0D0306349A7220BA827F050F80BA82FF0DDFE1BAAC1B21CAB0BA825F005FE12A827
S224003CE003211FF0FBFB129B5A49A7220BA827F03DF80BA82FF0CAFE1BAAC1B21CAB0BA832
S224003D0025F0F2FD139B5349A7220BA827F02EF80BA82FF0BBFE1BAAC1B21CAB0BA825F045
S224003D20E3FD149B4B49A7220BA827F01FF80BA82FF0ACFE1BAAC1B21CAB0BA825F0D4FD9D
S224003D40DDF810C01BA960461CAA25F083FD38461B9E9DF8974025F05DF8DDF810C00290B0
S224003D606146204601224FF0FF338DE840041BF049F9FEF78FB8528AA24293F8402022F09E
S224003D807F0234BF42F0290242F0010283F84020FEF78ABB013292B211B2B1F5E16F1A8039
S224003DA00ADB44F26C21C1F20001B1F9003004F132029A42C1F2758144F20822C1F2000205
S224003DC0B2F900303C2B7EF490AF032023F056FA012308210DF19502D62029F0DFF803207A
S224003DE023F05EF99DF8953003F03003D3F1010238BF0022302B14BF134642F00103002B0C
S224003E0040F02E81144A1380FEF7E1BA042A0CBF04220322FFF719B9324600211DA825F0BE
S224003E204DF89DF88560B0427EF4DBAB9DF88430FEF75EBC604A0010204A0010404A0010AE
S224003E40C04A0010804A001068480300744803006C4803007C48030008420010FA2E05D022
S224003E60FE2E00F05084CD2E7EF414A844F27A2EC1F2000E9EF800302BB9FA2E0CBF0526BD
S224003E8000268EF80060002602241CAB21461BAA1C961B9621A8FE268DF884608DF88540CF
S224003EA025F022FD1BA91CAA9DF8960025F0D2FC44F27A21C1F2000108781CAA1BA925F08D
S224003EC0C9FC002F7EF452ADFEF754BD1EA9324624F0F4FF04287EF484AB00231B931C93DF
S224003EE027F0BCFA042104461BAA1CAB1EA81F9425F0FAFC04211BAA1CAB1FA825F0F4FCF4
S224003F001B9824F0C7FF9DF860300246190941EA0313022006218DF896208DF897301BF064
S224003F2023F81C9000283DF47DAF1B9B1A0EC3F30724C3F30741C2700370447081701C9B72
S224003F4006221A7102225A710E22FFF751BA082E00F07A811ED8062E00F08E80072E7DF49A
S224003F6099AF9DF88530002B3DF494AF1DA80DF19601012224F0A2FF1FB1384624F04AFF2E
S224003F8081469DF896109DF897004A4609F054FFFDF780BF092E00F08C830A2E7DF47AAFD7
S224003FA01FF082FAFDF776BF44F2762EC1F2000EBEF80020013292B213B20F2BAEF800209B
S224003FC07EF7A0A9B4F90020022A00F39F80962B7EF798A90021662021801DF009FA964B63
S224003FE000221A80FEF78EB96120214625F0D6FE00283DF45FAB00272780FDF75BBB5A0559
S2240040003FF5CFAC88E448F2F060C3F66E0027F02BFAFDF71DBB9DF896201DA8214624F03C
S2240040204DFF8DF896401E9AFEF7DBBE00201DF061FA00287EF476A901201DF05BFA0028A2
S2240040403EF490A9FEF76EB9191F1180B8F83030FEF776BA022005211CF082F9FEF711BA47
S224004060112000211AF0A8FDFA202721734A0A231BF0BEFEFEF739BE9DF88530FF228DF84B
S22400408096202BB11DA80DF19601012224F016FF9DF89600002620A91CAA01280CBF0220ED
S2240040A0304620961C961BF07BFCFE2320988DF8843024F0EFFE1CAB441C1BAA022121A8B0
S2240040C08DF885401B961C9625F00EFC06231CAA1BA918468DF8853025F0BCFB20991B988C
S2240040E024F07EFE1B9B38469DF89740049324F091FE049B02908DE808042046314601229F
S2240041004FF0FF331AF07EFFFDF7C4BE67201DF06FF902202080FEF7F5B82CF0DBF948494B
S22400412048481BF083FAFDF73EBC6FF003001AF0A3FBFDF724BC24F0C1FE04283DF4AAAE0E
S224004140FEF74FBADDF870901CA91BAA1B901C901BF026FC1C984946012221F09BF8FDF77B
S22400416099BE0126ADF88E60FEF75ABE9DF885300122043BADF88E208DF89630FEF7DFBD41
S22400418064201AF079FB00283FF4CDA8062049461AF012FDFFF7C7B844F2802344F284264C
S2240041A044F21A27C1F20003C1F20006C1F20007186834703C7024F0FDFD44F2802CC1F2E7
S2240041C0000CCCF80040FEF7CDB87E2283F84020FDF70EBC25F056F924F0ECFDFDF7EEBB19
S2240041E01E9B1F9A23EA02031E93FFF70FB81E9A1F9B13431E93FFF709B844F2EE1CC1F2A5
S224004200000CBCF80030002B3DF444AE44F2382EC1F2000EDEF8003044F27220A3F50A038B
S224004220C3F38F13C1F20000038019B2062025F0E7FCFDF72FBE00BF7642001064480300EB
S2240042406C470300384200104FF0FE0E1CAB002402211BAA8DF884E021A84FF0120E8DF865
S22400426085E01C941B9425F03FFB1BA91CAA30468DF8966025F0EEFA04224FF428001EA956
S2240042802BF01CFC1E9B1BAA013308BF1E941CAB04211EA825F028FB04200422C0F2A8002D
S2240042A01EA92BF00BFC1E9B5E1C1EBFA3F52803A3F580631E9301D100231E9304211BAA81
S2240042C01CAB1EA825F010FB10200422C0F2A8001FA92BF0F3FB1F9A541C00F03D824FF68E
S2240042E0FE33CFF65773D3181E9A9B1A1F9304211CAB1BAA1FA825F0F7FA0820C0F2A800EF
S22400430004221EA92BF0DAFB1E9BD8B203F47F03B3F5981F8DF896005ED214285CD01BAA28
S22400432004211CAB1EA825F0DFFA00201BA91CAA8DF8960025F08EFAFEF717BB9DF8853065
S22400434000241C941B94002B3DF4A4AD01221DA820A924F0B3FD9DF88030FE228DF8842025
S2240043600422132B8DF8852000F0B38300F29E83072B00F03B8300F22A83032B00F007834A
S22400438000F2FA82012B00F0E68240F2D68244F6BA11C1F200010B78ADF890301CAB022111
S2240043A01BAA21A825F0A0FA1BA91CAA9DF8960025F050FA9DF880001BA91CAA25F04AFAAF
S2240043C09DF88530062B15D024A802211BAA1CAB25F08AFAFEF7C9BA1BA91CAA25F03AFA19
S2240043E0E2201EA925F0C4FCC3B28DF896300BB100231E931EA804211BAA1CAB25F074FAD0
S224004400FEF7B3BA002488F82F402CF04DFDBDF98E30C8F85840002B7DF43CADFEF796BB25
S2240044201C940DF18E0031461BAA1CAB0124059425F05AFA1B98FEF77DBDD0B21EA925F0D1
S22400444097FC80B20590C0B91EA804211BAA1CAB25F04AFA1B98FEF76DBDD0B224A925F07E
S2240044609DFC80B2059040B924A831461BAA1CAB25F03AFA1B98FEF75DBD0DF18E00F4E79D
S224004480002405201C601C941B94FE2622F0F6FE4FF0DB0CADF8904002211CAB1BAA21A8B6
S2240044A08DF885C0CDF810C0AD4C8DF8846025F01BFA0D231BA91CAA18468DF8853025F0A5
S2240044C0C9F9204644F220240421C1F200041BAA1CAB25F009FA23682A684C33D018D6213A
S2240044E01BAA1CAB25F000FABDF8903022680133D6329BB22260012BADF89030DDF810C0DC
S224004500CAD9052022F0CCFD44F20C211B9EC1F20001D1F800E002224FF0FF3300969DF8BA
S224004520970000214FF080760196CDF808E01AF069FD0023236044F2FC1244F20C24C1F2D2
S2240045400002C1F2000413602360FDF7A3BC02244FF0000C1CAB4FF0FE0E21461BAA21A8DC
S224004560CDF870C0CDF86CC08DF884E0CDF810C08DF8854025F0B8F91BA91CAA30468DF83D
S224004580856025F067F921461BAA1CAB754825F0ABF9FFF7DCBB032022F070FE12AA4FF424
S2240045A080710B23D62028F0F9FC032022F078FD4FF0FE0E1CAB00241BAA02218DF884E023
S2240045C021A84FF00D0E8DF885E01C941B9425F08BF91BA91CAA30468DF8856025F03AF91F
S2240045E01CAB0B2112A81BAA25F07EF92B681BA993F840301CAA18468DF8853025F02AF9D0
S2240046001B9B38469DF89760049324F003FC049B02908DE808043046214601224FF0FF3308
S2240046201AF0F0FCFDF736BC45F2CE5CC1F2000C9CF800E000240EF1020E1CAB02211BAA23
S2240046401C941B9421A8FE248DF885E08DF8844025F04AF91BA91CAA30468DF8856025F001
S224004660F9F845F2CE5EC1F2000E9EF800301BA918461CAA8DF8853025F0ECF845F2CE50EA
S224004680C1F20000018800293EF4A1AFC9B21BAA1CAB354825F028F9FEF799BF334B4FF06A
S2240046A0FF3C4FF0640EA4F800C0A3F800E0FDF729BE4FF0000CFE232D48CDF870C0CDF8BC
S2240046C06CC0CDF810C08DF884302FF0DFF91CAB441C1BAA022121A88DF8854025F004F9B0
S2240046E01BA91CAA30468DF8856025F0B3F820482FF0CCF9411CC9B21BAA1CAB1C4825F062
S224004700F3F8FFF724BB44F28422C1F2000214788CB944F2802344F21A26C1F20003C1F2BA
S22400472000061868347024F045FB44F2802CC1F2000CCCF8004044F2242EC1F2000EBEF951
S2240047400030002B40F0D68044F224230022C1F200031A80FDF79EBB00231F93C7E500BFF7
S22400476020420010E0610010244F001076420010A843001044F26B7CC0F2030C9CF800C0F9
S2240047804FF0030E0EFB0CFE00240EF1070E02211BAA1CAB1C941B9421A8FE248DF885E096
S2240047A0CDF814C08DF8844025F09EF830461BA91CAA8DF8856025F04DF8059C4FF0010EB4
S2240047C0ADF88EE0002C41D0012344F26476C0F20306F05C1BA91CAA25F03CF8BDF98E3002
S2240047E044F2F46CC0F2030C0CEB031399680024CA1C31EA210128BF1146891000295B6845
S22400480011DD40F2000EC1F2000E1A68DEF800000024824204D006E053F8040F824202D1B5
S22400482001348C42F8D1A40002211BAA1CAB24A8ADF8904025F058F8BDF88E20059C013277
S22400484092B213B2A342ADF88E20BEDDC8201BA91CAA24F0FFFF0A9E002E6ADDDFF884C3B8
S22400486040F2000EC1F2000EDCF80010DEF8003099425ED16246002303E052F8040F814270
S22400488003D10A9C0133A342F7D19B000221ADF890301BAA1CAB24A825F026F8C9201BA95D
S2240048A01CAA24F0D7FF099E002E44DD4CF6A40C40F2000EC1F2000CC1F2000EDCF80020A7
S2240048C0DEF800309A4236D1C34B002403E053F8041F8A4203D1099E0134B442F7D1A40089
S2240048E01BAA1CAB022124A8ADF8904024F0FCFFFEF76DBE44F21820C1F20000B0F90010BA
S224004900042025F07DF901201CF0E0FD044600287FF41AAFB14BB3F90030002BBFF614AFB0
S22400492066201CF065FD44F27621C1F200010C800AE70023A9E70024D1E744F2F813C1F2FD
S22400494000031B8844F2F8160024C1F20006ADF89030348022E544F2F61CC1F2000CBCF8B0
S22400496000C044F2F6104FF0000EC1F20000ADF890C0A0F800E011E5052B1ED00FD940F29B
S224004980EC06C1F200063378ADF8903006E544F27002C1F200021378ADF89030FEE44AF201
S2240049A0B033C1F200031A6844F24023C0F20F03B2FBF3F3ADF89030F0E444F23024C1F271
S2240049C00004236806228DF885201E93E6E40E2B41D02DD80C2B22D017D80B2B0CD0FF23DB
S2240049E000218DF88030ADF89010D7E4FF238DF88030ADF89040D1E443F62A7CC1F2000C3D
S224004A00BCF800C0ADF890C0C8E44AF24030C1F200000378ADF8903000230370BEE443F6CC
S224004A202C7EC1F2000EBEF800E0ADF890E0B5E4102B31D024D3112B18D0122BCFD100206E
S224004A401AF0F0FE40F61C4398427FF6A7AC0420FCF746FDA2E444F23822C1F20002136882
S224004A60A3F50A039B09ADF8903097E444F23426C1F200063378ADF89030002333708DE478
S224004A8049F2F821C1F200010B6806221E9300238DF885200B6081E444F2C824C1F20004C7
S224004AA0236806228DF885201E9377E41D2B6ED05FD8182B46D02BD8162B21D018D8152B8D
S224004AC08DD145F24500C1F200000378ADF8903064E444F22C2CC1F2000CBCF800C044F225
S224004AE02C2EC1F2000EADF890C0AEF8004055E445F29412C1F200025379ADF890304DE48E
S224004B0045F26001C1F200010B78ADF8903045E41A2B02BF2B6893F83F30ADF890303FF408
S224004B203DAC18D31B2B7FF45AAF1FF0D1FD0302ADF890301FF0C4FDBDF890300343ADF863
S224004B4090302BE444F67C3CC1F2000CBCF800C0ADF890C022E444F21023C1F200031B889F
S224004B6044F210260024C1F20006ADF89030348014E4672B57D045D8652B35D01CD8642BE8
S224004B807FF42DAFBBF800E0ADF890E006E4052022F074FB2B68052093F8402062F07F0213
S224004BA083F8402022F07CFAFA2027210C4A05231BF01EF9FFF7F2BB44F26601C1F2000197
S224004BC0B1F900302A68581C17D04C33D35C9B00ADF89030FFF7E2BBA4C8001024420010D6
S224004BE064480300A8CA001044F26600C1F200000088ADF89000FFF7D1BB0022ADF890207A
S224004C00FFF7CCBB692B30D01FD36A2B14D06B2B7FF4E5AE44F25804C1F200042488ADF8DD
S224004C209040FFF7BBBB44F26406C1F200063688ADF89060FFF7B2BB44F26C03C1F20003C9
S224004C401B88ADF89030FFF7A9BB44F2640CC1F2000CBCF900302A68591C04BF4FF0000E8C
S224004C60ADF890E0B1D1FFF799BB44F6B050C1F200004278037843EA0223ADF89030FFF77F
S224004C808DBB414619F098FF3B1F18BF0123012F0CBF002303F00103002B3EF422AEB7F161
S224004CA00D0318BF0123102F0CBF002703F00107002F3EF416AE1120414619F07DFFFEF761
S224004CC010BE31466FF0050019F076FF6B2031461AF048F8FEF7B4BD042002211BF040FB69
S224004CE0FEF726BD1F9B12A8129324F013F844F204201F9AC1F200000368110ED970C2F351
S224004D000724C2F3074044F27A211A705C709870C1F2000100230B70FDF7BCB82B6893F95F
S224004D204030002BFEF65CAE1120012119F044FF112003211BF014FBFEF752BE01200DF1A3
S224004D40960122F0D5F807281FBF44F29007C1F200073B6843F0020318BF3B6001200DF1D8
S224004D60960122F0C5F80728F8D105200DF1960122F0BEF807281FBF44F2900CC1F2000CB0
S224004D80DCF8003043F0020318BFCCF8003005200DF1960122F0ACF80728F8D1FEF701BEEB
S224004DA045200DF1860124F0F9FF68B30020ADF88600BB6C00234FF48042C4F20202926C8B
S224004DC05FFA88F822F07F42134338EA03031FBF44F29002C1F20002136843F0040318BFBD
S224004DE01360FEF7C1BD6FF0070019F045FD00283EF49AAD44F29002C1F20002136843F04B
S224004E0004031360FEF790BDBDF886301B0AADF88630BA6C1A4012EA080F1FBF44F29001AE
S224004E20C1F200010A6842F0040218BF0A60C2E70D200E211BF094FA24F078FB204622F031
S224004E4015F9FEE700216FF0030019F08BFF00216A2019F087FF00216E2019F083FF0021AF
S224004E606FF0050019F0A8FE00216B2019F07AFF6920012119F076FFFEF733BD44F2EE1E9C
S224004E80C1F2000EBEF800302BB1FA200321C14AC8231AF0ADFF44F2EE110020C1F2000197
S224004EA008802AF0DFFCFEF781BC00204FF05531642226F09DFAFEF740BCBDF890106FF081
S224004EC0090001F00F0119F077FEFCF7E3BF44F27E2EC1F2000E9EF80030012202FA03F332
S224004EE0BDF8901044F226200B40C1F200000370C9B26FF0040019F05FFEFCF7CBBFBDF8F5
S224004F0090305C4014F4C05F3CF4C4AFC3F3C12244F21C245200C1F20004511C23806FF0DF
S224004F200500ADF8902019F047FEFCF7B3BF00231C931B9324F01AFA0446ADF89240FE24D4
S224004F401CAB02211BAA8DF8844021A805248DF8854024F0C9FC1BA91CAA9DF8960024F076
S224004F6079FC02211BAA1CAB0DF1920024F0BCFC2BF0C8FFADF892000DF1920002211BAA1B
S224004F801CAB24F0B1FC002F7DF4F0ACFDF7F2BC1B98FEF7A2BD9DF88520022A08D0002140
S224004FA01DA823F08BFF9DF8853098427DF419AB02221DA80DF18E0123F080FF02287DF48E
S224004FC010ABBDF88E4026B230462DF0D7FF2DF093FB71A30CCB2DF00FFD0022C3F6F07251
S224004FE000232DF02BFA2DF0BFFEDDF820C0CCF800009DF89600002C4ED0314624F000FEF6
S22400500000241C941B94FE241CAB02211BAA8DF8844021A803248DF8854024F065FC9DF8AA
S22400502096001BA91CAA24F015FC0DF18E00A5E79DF88540022C7DF4D4AA24A922461DA89D
S22400504023F03CFF2146FE244FF0000C1CAB1BAA8DF8844021A80524CDF870C0CDF86CC07C
S224005060CDF810C08DF8854024F03EFC1BA91CAA30468DF8856024F0EDFBBDF8900045F21C
S224005080F851C1F200011BAA01EB80001CAB042124F02AFCFEF75BBE1CA91C9424F048FCDC
S2240050A0AEE70C20FCF71CFAFEF786BE0220FCF717FAFDF7A8B944F20421C1F200010A68EC
S2240050C034210091107851789478D67840EA012242EA044242EA0662019202930393FA200F
S2240050E001212F4A03231AF083FEFCF7D5BDBBF800002C4CB0F5CC7FBCF4ADAD29682A4EAC
S22400510000F14C028B1830804FF0040EF82044F25C0601F802E003EB0E075870C1F2000698
S2240051203220987083F803E037608B5C228801339B00DBB29B1823803846002110222EF0E9
S22400514071FCFCF788BD002387F84C30FCF752BDBBF80000296800F14C0220800120885465
S2240051608B18F92058701E2098701E1D0220D870CAF800608A5CBBF80010013202FA00F2CF
S224005180D2B252180021ABF800209980D980FCF74EBD00BF64480300006AF84000000000B8
S2240051A060480300E041001058400010082022F065F84FF6FF71C0F2A7014FF40A002AF059
S2240051C039FD44F2382444F2722644F2842C0023C1F2000C4FF40A01C1F20004C1F20006AE
S2240051E0216033808CF8003006201CA91C9324F09FFB082021F054FFFCF74CBEBDF88E307E
S224005200002B00F0DB8044F27224C1F20004238044F2722EC1F2000E0620BEF9001024F055
S224005220EFFC44F27420C1F20000BDF98E30B0F90020934200F09F8044F2782CC1F2000C47
S224005240BCF900209A427CF425AE44F2802E44F2842144F21A220024C1F2000EC1F200018B
S224005260C1F20002DEF800000C70147023F0A2FD44F28023C1F200031C60FCF70BBEBDF96F
S2240052808E30D9E7BDF88E30002B50D044F27820C1F20000038044F2802CC1F2000CDCF854
S2240052A0000023F087FD44F2382EC1F2000E44F27820DEF80010C1F20000B0F90020A1F52F
S2240052C00A010023B2EB911F08BF44F2842244F28024C1F2000408BFC1F20002236008BF54
S2240052E013703CF4D7AD27B1384623F093FD3B4B18609DF8602044F21A2644F2F01C44F278
S224005300F41044F2842101231209C1F20006C1F2000C4FF0000EC1F20000C1F2000132709C
S2240053208CF80030A0F800E00B70FCF7B3BD44F27221C1F200010A8814045EBF44F2782349
S224005340C1F200031A80A6D544F23824C1F20004226844F27826A2F50A02520A0132D200D2
S22400536092B211B2B1F5F04FC1F200063280C4BF1B4A13808FE726F071F84FF4A34344F202
S2240053801B21C1F20001C0F2010390FBF3F30A7899B244F23C23C1F20003022A198003D041
S2240053A009B2072024F02CFC44F274264FF0FF34C1F20006BDF98E3034803DE744F23826EF
S2240053C0C1F20006336844F2722CA3F50A039B09C1F2000CACF800301AE700BF8042001032
S2240053E0784200104FF6FF7100B5C0F289014FF494002AF01FFC44F2C8204FF49401C1F283
S224005400000044F24042C1F20002016044F664030020C1F200031060E32019605DF804EB12
S22400542024F0CCBB2DE9F047914656780F461FFA80FA127804E00136F6B2092E88BF002601
S224005440964246D006EB460307EB83039B885345F1D199F80230013B89F80230002E33D047
S224005460751EDFF87480EDB2344698F8013004EB4400A34214D005EB450107EB810107EB57
S22400548080000C222EF0A8FA631EBCB1DCB26B1EC5B1DDB298F8013004EB4400A342EAD1FB
S2240054A099F8013099F800200133DBB2092B89F80130C0D9002389F80130BCE709246B1E06
S2240054C0002DE6D10925D0E709253446DFF80880CBE7BDE8F08700BF5C01001030B50D46C5
S2240054E0013D441CADB20146651901E021460134082021F0A5FEAC42F8D130BD2DE9F041A1
S2240055001C461B78154603EB430387B24FEA83088EB225F0A3FF45F808002378174A03EBDF
S224005520430305EB83039F802378B7F57A7F03EB430305EB8303DE80237838BF127903EB38
S224005540430328BF527905EB83031A72237803EB430305EB83051EB1094B1B6893F82F6045
S2240055606E7223780133DBB2092B237001D900232370A3780133A370BDE8F0815C010010AE
S2240055807849001070B504460EB21AF00BFC002832D1244D2868A0F59403B3F5800F33D261
S2240055A02EB1B6B2330A84F8326084F83330802221462AF021FB627A237A43EA02235A040D
S2240055C005D54BF6FF721A40130A2272637228684FF6FE738030C0F28903984288BF114BA9
S2240055E0286084BF4FF4940018600F4B1A6882420FD0C305DB0D03B170BD00F5FE710331E4
S224005600BDE870402AF016BB0520BDE8704024F049B80022E32011461A6024F0CFFA286853
S224005620E7E700BFC8420010644800102DE9F04F0FFA80FB85B0BBF1000F02D1A44B83F8FC
S22400564000B025F00BFFA34E306008B901203060A14B40F673171A68C3F6C977824238BFA1
S22400566018609E4B05205C689968DA681D885B88B4640024F380B580F164326521F0FEFD34
S224005680E01C27F06BFE23B2032B40F232351ADCA84240F2DA80A0F54C700338C0EB8020AA
S2240056A0A7FB0013C01A03EB5000C0F3CF20231D0134062C26F8130009D0E01C27F04EFE66
S2240056C023B2032BE4DD052B40F03A81F08203201AF0FCF80346002073821AF0A3F8804B85
S2240056E07C4D9B68B0827F4C4FF47A72002B00F0E3802168002301F1440103C92DF0E4FE81
S224005700A862236848F68902D96AC8F68802A2FB01425209F2629C69196B5A6B1D8F5B8F28
S2240057200520B461B583F3833162726221F0B8FC6D4B00205A7D6D4B0225B3F8C030002403
S22400574043EA022333861AF0F7FA0022C4F2240200232DF027F82DF0BFFA03466FF006005D
S224005760738619F089F82CF0B5FF0022C3F6E07200232DF017F85F468046894620464FF076
S2240057804041002217B9204641464A4618F00CFE013405F118030135032C26F81300EDD168
S2240057A0BB462FB133896FEA43436FEA534333814F4B1F78002F67D04E4AC7EB0713128830
S2240057C05B00C2F3032204924FF00008039344F6EC00C1F2000018F80020002108F11D03D9
S2240057E008F10504BA4226F81310029400F08E8044F68411C1F2000118F80120BA4200F031
S2240058008E8027B300220023DFF8FC90049C00258DE80C00C8EBC80A0FE0534459F823002E
S2240058202CF048FF02460B469DE803002CF006FE0135AF428DE803000DDD013CA4B223B2CE
S224005840581CEAD106242346E7E700202FE7002200238DE80C0003982CF03CFF02460B462C
S2240058609DE803002DF0C8F823A30CCB2CF09AFF2DF05AFA029C04F1180326F8130008F123
S2240058800108B8F1020FA2D16FF00A0018F0F4FF86F84600BBF1000F17D1194B0D481B78B6
S2240058A0590603D4174B1B780E2B41D8002105B0BDE8F04FFFF766BE2168002301F11C01D7
S2240058C003C92DF001FEA8621BE705B0BDE8F08FA4480010F8480010404400108C49001031
S2240058E05C0100108440001090420010204A001050440010A6480010D147FF3F471F7DF437
S22400590018000010B0420010B448001044F6F8004FF4C875C1F2000020F81350AFE744F69C
S224005920F8054FF4FA64C1F2000525F81340A6E7044A054B802105B0BDE8F04F23F0D4BF91
S22400594080B2B4E6F4420010F048001030B5C0B281B0032838D8DFE800F0322D28021C4881
S2240059600E21FFF7BBFD1B4A1B4B15881C8825F020051580194A0134FF25002046211570A2
S2240059801C8021F0A7FA07200DF1030121F0B0FA0728F8D125F062FD114B00F561601860DA
S2240059A0104B00221A6001B030BD0F480E21FFF795FDD8E70D480E21FFF790FDD3E70C486B
S2240059C00E21FFF78BFDCEE70328ECD8CBE700BFBC480300EA4100106042001000420010BA
S2240059E0584800102C440010AC4803009C4803008C48030030B541F2EC3385B0002400909D
S224005A000394ADF81030029401941AE023F022FF019B002118790A22181825F02FFBE300E0
S224005A2000FA03F0039B01341B180198039323F0C1F90023029301939DF81330A4B22C2BA1
S224005A4022D001220DF11301684623F037FA03460020012B01A902AA9DF813305BD1A3F1A5
S224005A602E0EDEF1000545EB0E052C2B08BF45F00105002DCAD1184601A902AA23F0EAFEFE
S224005A809DF813302C2BDCD1019868B123F092F900230293019307E09DF813002C280BD0CB
S224005AA001A902AA23F0D6FE01220DF11301684623F004FA0128EFD0019B9BB101A902AA8A
S224005AC0002023F0C7FE019B002118790A22181825F0D4FAADF81000019823F06BF9002354
S224005AE002930193009823F065F90398002300930293019368B104210DEB01036A4603A860
S224005B0023F0F2FE04A802216A4601AB23F0ECFE009805B030BDB3F12E0218BF01222C2BF6
S224005B200CBF002302F00103002BADD002AA23F091FE019B002118790A22181825F09EFA2F
S224005B40E40000FA04F0039B1B1803939CE700BF30B444F2902244F28403C1F20002C1F2D4
S224005B6000031B68D46844F688115C6354889568C1F200014FF0FF301C871488D0820868D0
S224005B801D6359695C870068128A013198615961A3F8422030BC70472DE9F0415E4D98B018
S224005BA02B6880B293F82F20002A00F09B80002116911591002800F0A78000F5FE501B7889
S224005BC03F30C001FE2B00F0A580383003AC214629F074FF2B6818AA93F82F300025D318F9
S224005BE020464E490D2203F8535C2DF057FF60B120464B490E222DF051FF002872D103251C
S224005C000F264FF00B082F4603E002250E26A846042716AB02214FF0FC0E15AA17A88DF8FC
S224005C205CE08DF85D7023F05FFE16AA284615A923F010FE18AA931913F8543CA019202B47
S224005C4005D1024612F8013F0130202BFAD0303BDBB2092B54D814A9002225F00FFA15A97E
S224005C60C0B216AA23F0F6FD14980378002B47D0202B08BF034638D0002214A925F0FEF930
S224005C8016AAC0B215A923F0E5FD14980378D3F1010238BF0022032F94BF002702F001076D
S224005CA0002F2DD1202B08BF034604D113F8012F0130202AFAD014A9002225F0DFF915A978
S224005CC016AAC0B223F0C6FD159B002100934FF08073019348F0500001224FF0FF330291DE
S224005CE019F090F918B0BDE8F08113F8012F0130202AC1D113F8012F0130202AF5D0BBE7CA
S224005D00159823F057F8EDE703AC2146054823F0D5F85FE7303059E778490010CC4803008A
S224005D20DC4803004C4400102DE9F04F074689B005205FFA82F90D4621F0A0FA714B0520E4
S224005D401B681C6BD3F834B09B69009321F0A8F9B9F1020F00F09B8020462CF0BBFC00221B
S224005D600023C3F610622CF01DFD67A30CCB2CF019FD0022002304460E462CF029FF002838
S224005D80B8BF04F1004431462046B4BF4FF02D0A4FF0200A2CF0A0FF80462CF09BFC0246A3
S224005DA00B46204631462CF047FB59A30CCB2CF0F9FC2CF091FF42460346574901A824F094
S224005DC0D5FF504639462A4623F044FD01A82DF05DFE3A46C1B22B4601A823F085FD5846B0
S224005DE02CF078FC00220023C3F610622CF0DAFC45A30CCB2CF0D6FCB9F1030F14BF20232D
S224005E005F2304460E462A463946184623F022FD00220023204631462CF0DAFE0028B8BF29
S224005E2004F1004431462046B4BF4FF02D0A4FF0200A2CF051FF80462CF04CFC02460B46C6
S224005E40204631462CF0F8FA31A30CCB2CF0AAFC2CF042FF30490346424601A824F086FFFC
S224005E6039462A46504623F0F5FC01A82DF00EFE3A46C1B22B4601A823F036FDB9F1030FB3
S224005E8014BF20205F2039462A4623F0E3FC2C680098002C2FD023F0F5FAC0F30721C0F3A3
S224005EA00742030E20706170A270E3702B6818785C789978DA7840EA042343EA014343EA74
S224005EC002632B6013B1B9F1030F05D0B9F1000F06D109B0BDE8F08F1A799B185F229A7238
S224005EE00E4B1B885B05F4D403213A462B460C4823F0FAFCEDE723F0C5FA286038602B68AE
S224005F00E0E700BF844000100080564000000000006AF84000000000C84903003E440010C4
S224005F20D04903002DE9F041054688B00520D4B20E4621F0A3F9274BB3F904002CF0CAFBC7
S224005F4025A30CCB2CF02EFC2CF0C6FE244B804605209F8921F0A4F8B8F1030F27DD214B1D
S224005F6021494246022C08BF1946684624F0FEFE68462DF08BFD2A46C1B23346684623F0A8
S224005F80B3FC8CB1174B1949022C08BF19463A46684624F0EBFE68462DF078FD2A46C1B2AA
S224005FA03346684623F0A0FC08B0BDE8F08130202946324623F04EFC022CE2D129463246DC
S224005FC0302023F047FC29463020324623F042FC0449DCE790420010976EB23F3BDF4F8DB0
S224005FE05C010010D4490300DC49030068550300F0B5D6B2032E88B005460C462DD00520D2
S22400600021F03CF9022E44D04D4F4E493A88684624F0ACFE68462DF039FD2346C1B22A4643
S224006020684623F061FC29462246202023F012FC7A884449684624F099FE68462DF026FD2F
S2240060402A46C1B22346684623F04EFC012E59D0052021F025F808B0F0BD0E68002E4BD015
S224006060002023F00FFAC0F30721C0F30742030E30707170B270F370236818785D789978F0
S224006080DA7840EA052343EA014343EA02632360E1E731462C482A46234623F025FC284E9B
S2240060A000273388294643FA07F313F0010F0CBF302031202246013723F0CCFB082FF0D162
S2240060C029462246202023F0C5FB204802212A46234623F009FC00277388294643FA07F38D
S2240060E013F0010F0CBF302031202246013723F0B1FB082FF0D1ABE7304623F0C3F920606E
S2240061002860A8E77A681249684624F02FFE68462DF0BCFC2346C1B22A46684623F0E4FBC8
S224006120BA680B49684624F021FE68462DF0AEFC2A46C1B22346684623F0D6FB88E700BF82
S2240061408C490010E4490300E0490300E8490300EC490300F0B5044688B005200D4621F0DD
S2240061608DF8234BB3F904002CF0B4FA21A30CCB2CF018FB2CF0B0FD204B06469B684FF41D
S2240061807A72002B29D11E490023096801F11C0103C92DF099F90746052020F081FF3A46E2
S2240061A01849684624F0E2FD68462DF06FFC2B46C1B22246684623F097FB32461249684682
S2240061C024F0D4FD68462DF061FC2246C1B22B46684623F089FB08B0F0BD094900230968D1
S2240061E001F1440103C92DF06FF90746D4E700BF90420010976EB23F3BDF4F8D5C01001010
S22400620084400010F0490300F84903002DE97043044688B06FF006000E4618F02DFB2CF0D5
S22400622059FA00220023C3F6E0722CF0BBFA89464A4601468046002018F0B6F8164902B290
S224006240684624F093FD68462DF020FC2246C1B23346684623F048FB012520202146324663
S22400626023F0F8FA284641464A4618F09DF80A4902B2684624F07AFD68462DF007FC0135AE
S224006280C1B222466846334623F02EFB032DE4D108B0BDE8708300BF004A0300F0B5B34DD5
S2240062A093B02E68002396F82F2080B2CCB212931193002A00F04A81002800F00B8100F589
S2240062C0FE5033783F30C001FE2B00F00981383069466F4629F0F2FB2A6813A992F82F30E4
S2240062E0CB18002103F84B1CA14B92F82F609B7B32B213F0030318BF01238A420CBF002376
S22400630003F00103C3B1FF2A16D0013EB6B20DF1FF35BE19022C15F8010F39D00FD8002CE7
S2240063201FD13A2808D02D2800F0E68011A912AA23F090FAB542EDD1119813B0F0BD652C11
S22400634020D0662C13D0642CF4D13128F4D189482DF09CFB11AAC1B212AB864823F0C4FA51
S224006360EAE7012CE6D13A2808BF0224E2E7532800F0F58040F2B680542800F0E980702896
S22400638004D17C2011A912AA23F064FA0224D1E7A0F15B034C2BC9D801A252F823F000BFFC
S2240063A0416500002D6300003D650000316500002D6300002D6300002D6300002D6300002A
S2240063C02D6300002D6300002D6300002D6300002D6300002D6300002D6300002D63000038
S2240063E02D6300002D6300002D6300002D6300002D6300002D6300002D6300002D63000018
S2240064002D6300002D6300002D6300002D6300002D6300002D6300002D6300002D630000F7
S22400642025650000196500000D650000016500002D6300002D6300002D6300002D63000037
S2240064402D6300002D6300002D6300002D6300002D6300002D6300002D6300002D630000B7
S2240064602D6300002D6300002D6300002D6300002D6300002D6300002D6300002D63000097
S2240064802D6300002D6300002D6300002D6300002D6300002D6300002D6300002D63000077
S2240064A02D6300002D6300002D6300002D6300002D6300002D6300002D6300002D63000057
S2240064C02D6300002D6300002D6300002D630000FD640000694628486F4622F0EFFCFBE664
S2240064E03030F5E641287FF451AF11A812A90022FFF78CFE02241DE764241BE7652419E72D
S22400650011A812A90022FFF70DFD13E7012011A912AA19F045FA0DE711A812A90122FFF786
S22400652067FD07E711A812A90322FFF7FDFB01E711A812A90122FFF7F7FBFBE66624F9E6CC
S22400654011A812A90122FFF7EDFCF3E61046F4E611A812A90322FFF74BFD0224EAE60320C7
S22400656011A912AA19F01CFA0224E3E6784900105C010010D85500104C44001070B484B01F
S22400658004AC04E90F003A4B1B6893F8354093F8341093F8310093F8302041EA042193F801
S2240065A0366093F8324042EA002293F8375042EA044241EA064193F83300039C41EA056111
S2240065C0214042EA0062914204D0002000B204B070BC70471C7DD97CDA7941EA0421187A94
S2240065E0BDF8004042EA002221409142EDD19C7D597D5A7A41EA0421987ABDF8024042EA19
S224006600002221409142E0D11C7ED97D5E7E187B41EA0421DA7A9C7E41EA06415D7B42EADB
S224006620002241EA0464987B019942EA0542214042EA00629142C8D11C7FD87EDA7B197C4A
S2240066405E7F40EA04205C7C42EA01219D7F9A7C40EA064041EA0443029940EA056008405E
S22400666043EA0263C21A504240EB0200AEE700BF78490010F0B583B292B00F461646194C91
S224006680002B26D04FF6B8702268DB01C0F20F0092F82F20181869466D4629F00FFA236828
S2240066A012AA93F82F300024D318684611A9224603F8484C24F0E2FC38801198013011909C
S2240066C026B12146224624F0D9FC3080002012B0F0BD2368694693F82F2003486D4622F0C3
S2240066E0EDFBDCE7784900104C44001030B5134D134C2B88A4F1340013F4A07F08BF204606
S2240067003321FEF7EBFE04F174000D21FEF7E6FE2B88990748BF04F1340006D404F174000C
S2240067200D21FEF7DBFE04F154001E21FEF7D6FE044B1A7822F001021A7030BD3E44001008
S224006740204903001800001000B581B007200DF1030120F0CDFB0728F8D1044B1B78062BAE
S22400676001D001B000BDFFF7C1FFFAE7704000102DE9F04FC0B29DB0C9B2089092B20520EE
S22400678006910B930C9220F079FD069CE40700F1CF81B14D089EEC8A009544FA06F414F0E2
S2240067A0010400F0D383069E002516F002041A95199540F0C7811BAD079528460DF1640AA1
