:10000000C0A000203D93000097270300119300003B
:1000100011930000119300001193000000000000F4
:10002000000000000000000000000000158B000030
:100030001193000000000000B18A0000119300003D
:10004000D18B0000613C0200D18B0000D18B0000FD
:10005000D18B0000D18B0000D18B0000D18B000030
:10006000D18B0000D18B0000D18B0000D18B000020
:10007000D18B0000D18B0000D18B0000D18B000010
:10008000D18B0000D18B0000D18B0000D18B000000
:10009000D18B0000D18B0000D18B0000D18B0000F0
:1000A000D18B0000D18B0000D18B0000D18B0000E0
:1000B000D18B0000D18B0000D18B0000D18B0000D0
:1000C000D18B0000D18B0000D18B000029C0020031
:0C00D000D18B0000D18B0000D18B000010
:0400DC00FFFFFFFF24
:1000E00053B94AB9002908BF00281CBF4FF0FF319F
:1000F0004FF0FF3000F00CB8ADF1080C6DE904CE04
:1001000000F008F8DDF804E0DDE9022304B07047F0
:10011000704700BF2DE9F04786468C460846089E8A
:10012000154674461946002B40F0C2808542B2FA4B
:1001300082F245D94AB1C2F1200300FA02FC2EFA3C
:1001400003F3954043EA0C0C94404FEA154EA8B2D5
:10015000BCFBFEF8230C0EFB18CC08FB00F943EAAD
:100160000C43994528D9EB1808F1FF3704D299457B
:1001700002D9A8F102072B44A3EB0903A4B2B3FBF5
:10018000FEFC0EFB1C330CFB00F044EA0344A042CF
:1001900014D92C190CF1FF3304D2A04202D9ACF1CE
:1001A00002032C44241A43EA07401EB1D440002322
:1001B00034607360BDE8F0874746DDE76346F1E7EA
:1001C00092BB431B01214FEA154EAFB2B3FBFEFCBD
:1001D000200C0EFB1C330CFB07F840EA0343984548
:1001E00062D9EB180CF1FF3004D2984502D9ACF17A
:1001F00002002B44A3EB0803A4B2B3FBFEFC0EFBEE
:100200001C330CFB07F744EA0344A7424ED92C19D0
:100210000CF1FF3304D2A74202D9ACF102032C4403
:10022000E41B43EA0040C0E7C2F1200320FA03F1D7
:10023000954090402EFA03F303434FEA154EAFB2B8
:10024000B1FBFEFC0EFB1C10190C0CFB07F841EA7D
:100250000041884504FA02F422D969180CF1FF30F4
:1002600004D2884502D9ACF102002944A1EB08016F
:100270009BB2B1FBFEFC0EFB1C110CFB07F743EA23
:1002800001439F420ED9EB180CF1FF3104D29F427B
:1002900002D9ACF102012B44DB1B41EA004192E799
:1002A0006046E3E76146F7E76046A3E76346B7E7E2
:1002B000834206D916B9002108467BE7C6E900E06B
:1002C000F9E7B3FA83F78FB9834201D3724508D8AF
:1002D000BEEB020460EB030301209C461EB9002123
:1002E00068E73846FAE7C6E9004CF8E7C7F1200CA2
:1002F000BB4022FA0CF41C432EFA0CF120FA0CF34A
:10030000B84001434FEA14490EFA07F5B3FBF9F878
:100310001FFA84FE09FB18300B0C08FB0EFA43EAA7
:1003200000439A4502FA07F240D9E31808F1FF307A
:1003300004D29A4502D9A8F102002344A3EB0A0390
:1003400089B2B3FBF9F809FB183308FB0EFE41EA4A
:1003500003418E452CD9611808F1FF3304D28E4534
:1003600002D9A8F10203214443EA0040A0FB02980D
:10037000A1EB0E014145CE46434602D306D14D4581
:1003800004D2B9EB020E68EB04030138002EA6D0AC
:10039000B5EB0E0261EB030101FA0CFC22FA07F344
:1003A0004CEA0303F940C6E9003198E74046C5E747
:1003B0004346D9E710F8012B11F8013B012A28BF69
:1003C0009A42F7D0D01A7047034611F8012B03F870
:1003D000012B002AF9D17047034613F8012B002A9C
:1003E000FBD1181A013870472DE9F041494D88B00A
:1003F000D5F81831996811F0010100AF25D107F146
:10040000080240F603400AF017FD044600287BD19D
:10041000BC68E3681B78ABB90CF0BCFEBFF35B8F24
:10042000D5F88830BFF35B8F05F1880203F009032C
:10043000BFF35B8F52E8001F42E800300028F9D17B
:10044000BFF35B8F204628F0F3FB07F10802002181
:1004500041F203000AF0F0FC0446002854D1BB68C6
:100460002D4EDA68D2F80100D2F8051003C61846FE
:1004700028F0DEFB214607F1080241F201000AF0F4
:10048000DBFC044600283FD1B868C3685A7885F879
:1004900024205A88EA841A7985F82520B3F80720A1
:1004A0002A85B3F805306B8528F0C2FB214607F199
:1004B000080241F202000AF0BFFC044620BBD7F854
:1004C0000880D8F80C20531C41321868596834460B
:1004D00003C4083393422646F7D1104832F0DCF9C2
:1004E000404628F0A5FB95F830305C061CD40C4B38
:1004F000FB6102230B48BB6107F118024FF48251E4
:100500006FF0120432F0B3FA20462037BD46BDE842
:10051000F08100BF000000202C00002034000020EB
:1005200018A803003C5F030007F10802002142F213
:1005300003000AF081FC04460028E5D1BB68A84E00
:10054000DA68D2F80100D2F8051003C6184628F080
:100550006FFB214607F1080242F202000AF06CFC30
:1005600004460028D0D1BC68E368B3F8012091B2FA
:1005700049B1D97839B1A5F8BC20DA78114606F12D
:10058000280035F0A4F8204628F052FB95F830609A
:1005900016F0200618D1022140F66D400AF0F2FA5A
:1005A0000446002800F0C78002210C3028F0C0FC6F
:1005B0000123037046702146324640F66D400AF032
:1005C0003BFC044600289FD195F85030180713D5FE
:1005D00007F10802002142F21C000AF02DFC04463B
:1005E000002891D1B868C368D3F80120D3F805304A
:1005F000C5E9262328F01CFB95F89030990622D5F2
:10060000391DB81C0AF09AFC044600287FF47CAF20
:10061000042142F224000AF0B5FA0646002800F050
:100620008A8004210C3028F083FC7B880380BB88FF
:1006300043802246314642F224000AF0FDFB044684
:1006400000287FF461AF95F890305A0611D507F174
:100650000802002142F22A000AF0EEFB04460028BC
:100660007FF452AFB868C3685B7885F8D83028F05B
:10067000DFFA082142F201000AF084FA0446002859
:1006800059D008210C3028F053FC95F89010554BA8
:1006900011F0020F0246544808BF18468B0695F821
:1006A000913048BF40F0400013F0090F95F85630E4
:1006B00018BF40F4006003F00603CE0748BF40F0C7
:1006C0001000062B08BF40F4C070002132F0DEF9A4
:1006D0002146002242F201000AF0AEFB0446002847
:1006E0007FF412AF95F83030B5F8BC10980625D4D9
:1006F000D1B907F1080241F205000AF09DFB04465A
:1007000000287FF401AFB5F8BC30BC684BB9E36892
:10071000B3F80120A5F8BC209A883448114634F07B
:10072000D6FF204628F084FA082140F601400AF05E
:1007300029FA044690B96FF06804E5E60029F3D180
:100740002B4BFB6102232B48BB6107F118024FF4CE
:10075000825132F08CF96FF00404D5E608210C3098
:1007600028F0E6FB95F89030D907024630D42248AD
:100770004FF0005132F08AF92146002240F6014044
:100780000AF05AFB044600287FF4BEAE01463A1D2B
:100790004FF601400AF050FB90B3184BFB61022367
:1007A0001448BB6107F118024FF4845132F05FF92D
:1007B00032F0A1FB044600287FF4A6AE0EF002FA48
:1007C000044600287FF4A0AE0BF032F804469BE606
:1007D00001A1D1E90001CDE790880002008000204E
:1007E000900000200E1207002E120700C00000200B
:1007F0003CA803003C5F0300108800025FA80300D0
:100800007B68DC68B4F80130032B96BF434A444947
:1008100052F823106E468AB06A464248D3614FF4BC
:1008200000731384404BC2E9050142F8103F3F4872
:100830004FF4135132F01BF9B4F80120B4F803302F
:10084000022AB54649D1032B47D8394A52F823101A
:100850006E468AB06A463748D3614FF400731384FA
:10086000314BC2E9050142F8103F4FF413512F48B4
:1008700032F0FDF8637994F806C0D4F80900032B30
:10088000B54698BF2C4AB4F8076094BF52F82310BD
:1008900023496C468CB06A46DFF8A0E0C2E9073C09
:1008A0004FF400739385264BC2E905E1C2E9096064
:1008B0004FF4735142F8103F1C4832F0D8F8A54667
:1008C000786828F0B5F93A1D00214FF602400AF089
:1008D000B3FA044618B11B4B60E71149B8E77868D2
:1008E000C368B3F80130A5F8753028F0A1F995F880
:1008F00075305B077FF55CAF3A1D21464FF603402C
:100900000AF09AFA08B1104B48E77868C3685B7838
:1009100085F8743028F08CF94AE700BFB064030012
:1009200006A3030083A80300040000013C5F03004A
:10093000A06403009CA8030090640300B4A8030013
:1009400007000001E1A803000AA90300000000005D
:100950002DE9F843D0E90D35D0F830805C193034FA
:10096000A0450F46164619D81D4DA3FB05011AA335
:10097000D3E90023FFF7B4FB0346A4EB0800A0FB78
:10098000050123F07F4414A3D3E90023FFF7A8FB5C
:1009900020F07F403C603060BDE8F883DFF8409095
:1009A0000DA3D3E90023A8FB0901FFF799FB044637
:1009B00005F1300008A3D3E90023A0FB0901FFF7EC
:1009C0008FFB24F07F4420F07F403C603060BDE826
:1009D000F88300BFAFF300808D49FD1A07000000C7
:1009E00000CA9A3B000000002DE9F04F8DB01D4673
:1009F000179C9DF85890636C80460E4617464BB185
:100A0000B4F87E301BB1B4F87C209A422AD2D4F8D4
:100A1000802052BB4FF6FF739D421ED023780133D6
:100A2000DBB22370002B00F0AC806349634B81F88C
:100A30000A9004F11C000022C860C1E900870D8102
:100A400099600120114613F02FFD002840F08780A7
:100A5000636C13B120461BF0D5F994F8240010F014
:100A600001070CD00DB0BDE8F08F216F40F271236B
:100A7000A1FB0313914273F10003CBD3F2E70421EE
:100A80000BA823F007FC0B9B4D490097A1FB03210A
:100A90004C4A0694CDE90377CDE9017738465F1AD1
:100AA00001EB5701A21A484F9208A7FB0272090AEC
:100AB000D20840F2471707FB113302324349059130
:100AC0000133D2B201210B9314F074FF10F0FD0F2B
:100AD0000CD03F4A3F49404840F2937330F041F810
:100AE000404080F311884FF0030002DFD4F880808B
:100AF000DDF82C90B4F87C70B8F1000F4FD0002FC7
:100B00004DD0236F40F2712202FB03FA334A05FBFA
:100B10000AA3A6FB02014FF0070B09930BFB06117A
:100B200023A3D3E90023FFF7DBFA099B2B4A1E1806
:100B3000A9FB02010BFB09111DA3D3E90023FFF759
:100B4000CFFA50443044804588BFA8EB060605F133
:100B500001058CBFC4F88060C4F880A020E01C4A66
:100B60001F491D4840F644132FF0FBFF404080F31F
:100B700011884FF0030002DF636C002B7FF46AAF33
:100B80006BE7134A1749144840F622132FF0E9FF88
:100B9000404080F311884FF0030002DF45E7013544
:100BA0002F44A4F87C700DB0BDE8F08FAFF3008047
:100BB00000CA9A3B00000000E85000201C070020FB
:100BC00021F1D490145100203BA8833AC59E010026
:100BD000146E0300246F0300F86803008D49FD1AAA
:100BE0007C6A0300206F0300002900F020812DE9BA
:100BF000F04F8FB0002840F011818E4C164694F8CB
:100C0000842012F001071D4640F0DA8194F8250097
:100C1000FF2300F0030084F8273022F031FA94F823
:100C20008400430700F1EA8094F8352094F82930D5
:100C300004EB820204EB8303976BD3F82C80002F24
:100C400000F0C580394640461AF080F9002840F08F
:100C5000EB8098F8003013F00E0F40F0EF80236A1D
:100C6000002B40F0E08015F0F5FD8146002800F0F3
:100C7000108215F0FBFD0A90002800F007821CF09E
:100C8000BDF98346002800F0FE81D0F888004FF6B9
:100C9000FF720BF11C03ABF828200B93002800F027
:100CA0001B820BF17C020BF1780113F079FB9BF8AE
:100CB0008E209BF8761022F007028BF88E200022FF
:100CC00062F3C3018BF87610CBF88820ABF88C2048
:100CD00098F8002002F00F02072A08BF94F82510A8
:100CE0009BF876200CBF4909012161F3020261F3F0
:100CF00006128BF876209BF8392002F03F0262F052
:100D00007F028BF839209BF8772061F302028BF881
:100D100077209BF83C204FF0000A22F007024FF4A6
:100D2000C0218BF83C20CBF88C115846CBE912AA95
:100D3000ABF832A0CBF82EA08BF83BA0CBF850A09C
:100D4000ABF892A1ABF888A11EF0CEFA8BF850A1B7
:100D5000CBF854911CF0DEFB9BF8981160F3020174
:100D60008BF898111CF0DCFB9BF8981160F3C5011F
:100D70008BF898119BF884116AF341018BF8841168
:100D800098F8002002F00F02072A0ABF94F82510F5
:100D90000121490958461CF0DFFF0BF1D4001EF079
:100DA0005DF80A9BE36600220BF11C03C4F868900F
:100DB0002362CBE90522CBF81CB08BF8002023F08E
:100DC00075FD00283FD019F067FA03202CE098F851
:100DD000003003F00F03072B25D0174823F004FF42
:100DE000C0B2002840F0558194F8353004EB8303FD
:100DF0009F6B04233B7006237B7023E7C0F3C00086
:100E00003A4604F1850122F013FBFF2884F82700FD
:100E10003FF40AAF384622F079F905E717F056FBA0
:100E2000002800F0C9800C200FB0BDE8F08F19F049
:100E300075BA00BF145100204851002003F00F0381
:100E4000072B00F0548117F041FB002840F023816C
:100E5000206400252E4694F8242094F82530A4F828
:100E60007E50C2F34202012100250DF13300C4F887
:100E700080608DF83320C3F38206A4F87C5013F011
:100E80002BFC0246002800F0F780334639464046E6
:100E900019F012FBBA49BB4B2570A0FB0101C01829
:100EA0004FF0310341F10701A360C4E90555B2A336
:100EB000D3E900236560E560FFF712F9B4F87060CC
:100EC000206114F0BDFE00F10E07002E00F0FA8044
:100ED00094F82430D4F8108065F3000313F0010572
:100EE00084F8243040F00981D4F84490B9F1000F1F
:100EF00000F09480D9F8009008F102033B440DA95A
:100F000048460D9300F0B0F9236F824640F27122FB
:100F1000294642F6DC30E3FB020140F2E2420023C4
:100F2000FFF7DEF8A9F83C000D995246484600F05C
:100F3000E3F90546002840F09F80934A02900DABEC
:100F40009248089308F247130694CDF81080912137
:100F50001360A6FB000301FB06318D4B07938D4BFD
:100F600005934FF6FF7309920226039382A3D3E9F8
:100F700000230D96FFF7B4F8032101903B4632465B
:100F80000095284614F0B6FC0DA915F031FD002897
:100F900072D199F84E3043F0010389F84E3094F83D
:100FA0008430002043F0010384F884301BF0B6FB4A
:100FB00010B9012022F046F800200FB0BDE8F08FF4
:100FC00017F084FA0028F7D094F88430D9077FF519
:100FD0002AAF94F8352094F8293004EB820204EB10
:100FE0008303916BD86A19F0B1FF00287FF41CAF1E
:100FF000236C002B3FF417AF1A7902F0FF014AB9B6
:1010000042F2107206FB02F2A4F87C10A4F87E50A3
:10101000C4F880201B79002BCED004E75A4A5B48E5
:10102000069408F24713CDF81080CDF8089091216E
:101030001360A6FB000301FB0631554B0793554B8C
:1010400005934FF6FF73099202260DAD03934AA351
:10105000D3E900230D960895FFF742F8032101908C
:101060003B463246CDF80090484614F043FC2946F2
:1010700015F0BEFC002892D0236A002B3FF4D3AEBB
:1010800019F00AF9CFE60A9815F0F6FB484615F074
:10109000E7FB0720C8E615F0DDFB814608B315F035
:1010A000E5FB002861D00023C0F80090037194F89C
:1010B00024302064DB073FF5CCAE42F2107303FB13
:1010C00006F6C8E698F8005005F00F05A5F10105F1
:1010D000B5FA85F56D09FBE60BF18000CBF88800C9
:1010E000DFE5236A002BD4D019F0D6F8D1E798F8C1
:1010F00002305A067FF5A7AEB1E5234B09930020D5
:101100000DAA186002250892214E224A0592032159
:10111000CDE902000694CDF81080CDF804803B465E
:10112000009007962A460D9514F0E4FB0DA915F0E2
:101130005FFC0028A0D10DAA174908924AF2D832C4
:1011400000920591CDE903000321CDE90100079646
:101150003B46069401220D9514F0B0FB0DA915F045
:1011600047FC00283FF41BAF86E7236A002B8DD095
:1011700019F092F88AE700BF8D49FD1A07000000B8
:1011800000CA9A3B8C49FD1A08510020002AE784C6
:10119000D55D0100E9090000359E01000000000056
:1011A000F0B590F8243090F825708BB0C3F342036B
:1011B0000D46044601210DF1230016468DF823301B
:1011C00013F08AFAC7F3820702463B4631462846A7
:1011D00019F072F91E491F4AA0FB0131981841F11C
:1011E000070119A3D3E90023FEF77AFF2369984288
:1011F000054622D21B1A00220192174A02930221AD
:10120000164B0991A21ACA40A3FB0232D20800234E
:101210000A4409AE12490591CDE903330321D2B244
:1012200006960093184614F0C5FB314615F0E0FB16
:1012300038B9256100200BB0F0BDFBD9C21A0023DC
:10124000DAE70C200BB0F0BD8D49FD1A0700000055
:1012500000CA9A3B8C49FD1A145100203BA8833ADE
:10126000D55D0100000000002DE9F04182B0044688
:101270001F4E204F884619F0F9FF072500236360B1
:10128000E36029463346E0FB07313122A26018466D
:1012900015A3D3E90023FEF723FF94F8313020F0A3
:1012A0007F4004EB83032061596B5F231A4620467D
:1012B00019F09CFF2946E0FB07610BA3D3E900234B
:1012C0003046FEF70DFF01A920F07F4021F08AF89B
:1012D00018B9019B0233C8F80030002002B0BDE805
:1012E000F08100BFAFF300808D49FD1A07000000B8
:1012F0008C49FD1A00CA9A3B2DE9F04700268CB0B4
:101300008846C0E905662049067017465022044603
:1013100013F026F80546A08F1C4940F2E24202FB7A
:1013200000F002230B93A0FB010115A3D3E90023D6
:10133000FEF7D6FE0DF12C0ACDF820A00694194632
:1013400023691F44124B0793124B059381460023D8
:1013500010464FF47A72CDE90367FEF7C1FE0335FC
:10136000EDB2CDE9019043462A460096304603216E
:1013700014F0A4FA514615F03BFB0CB0BDE8F08721
:101380008D49FD1A07000000E451002000CA9A3B75
:10139000D55D0100A9B201002DE9F04FA1B00D46C5
:1013A0001E4640F201232A991092AB432B9A0E91CC
:1013B00004460F9200F0938194F8293004EB8303E4
:1013C00005F4007AD3F82C9099F8007007F00F0715
:1013D000072F10D0BAF1000F04D10C27384621B0E6
:1013E000BDE8F08FD6F801203178204621B0BDE865
:1013F000F04F19F0FFBD99F8023013F03F020A9246
:101400001CBF99F803200A9209F104020B92BAF169
:10141000000F02D07F2B00F282810E9904F1280088
:1014200023F09EFC99F80020037802F00F0223F0CD
:101430003F0313430246834602F8023B99F8023009
:101440009BF802109B0963F387118BF80210616C03
:1014500004F11C004FF00008002900F0B5824B7D1C
:1014600001EB830398690B681493C3780C900230E6
:10147000139003F00100129001F114000F991192E2
:10148000089323F06DFC80469BF8000098F800104C
:101490000C9B119A00F00F0021F03F01014388F8E6
:1014A0000010197898F80000C1F3801161F38610DC
:1014B00088F800001978C0B2C90961F3C71088F82C
:1014C00000009BF8021098F802004FF001038DF81D
:1014D00024300A9B890961F3871003F0010115F09C
:1014E00001030D9388F80200089B40F00681002953
:1014F00000F04B8199F8001098F800C00D98C1F3E6
:10150000801161F3861C88F800C09BF8001060F31E
:1015100086118BF8001009F10A010B91129900292C
:1015200040F048810C990431089103F002011D91AB
:101530000A99890740F108810B9998F80000063153
:101540000B9199F80010C90961F3C710414601F8E1
:10155000100B4FF003008DF824009BF800006FF390
:10156000C7108BF8000003F0020010B10898063095
:1015700008900A9810F00800179002D00B980230DB
:101580000B90881C0D9015F0080000F0DB80022005
:101590003070D6F801001690C6F80110053609988B
:1015A00040F0080C13F008008DF824C0189002D009
:1015B0000898023008900A9810F01000199002D094
:1015C0000B9803300B904FF018008DF854000BF17E
:1015D0000900119003F010001A90E80640F1A18074
:1015E000881CC6F801004CF01000099003203070F0
:1015F000053603F01000002800F0A08000201B90AA
:101600000898033008900998C00644BF05310D9131
:101610000A99490610D50B9901310B9194F82510C0
:1016200001F01C01102900F0F1814FF058018DF8F4
:1016300054100BF10A0111915B0606D5089B01338A
:101640000893099B43F0400309939DF82430D9B2D5
:1016500013F040030A911C9302D00D9B01330D93AC
:10166000119B9B1ADBB2022B03D80BF103031193DE
:101670000123089A1399501AC0B2022803D80C9A71
:101680000332089201200C9A92F801C08445C0F000
:1016900078810D9908F102028A1AD2B2022A03D87F
:1016A00008F103020D920122BAF1000F00F08680CA
:1016B000089DD6F80110C6F80150ACEB0000357853
:1016C000C0B230708A460536002D40F0688100298E
:1016D00000F00282AA461095AC46284683E0B74A3D
:1016E000B749B84840F2ED532FF03BFA404080F341
:1016F00011884FF0030002DF5EE616F801EB98F860
:1017000000C06EF3861C88F800C09BF800C06FF321
:10171000861C8BF800C000293FF400AFFBE61227BF
:101720005CE61098C0063FF564AF03F0100028B1E6
:101730004CF01000099008981B9061E703F010002E
:101740001B9060E716902AE70D9808F10A0100281F
:101750007FF403AF03F00200002800F026810C990B
:1017600098F800C00978C90961F3C71C41464FF0D9
:10177000030001F810CB8DF824009BF800C00D98F1
:1017800060F3C71C8BF800C0F0E61299002900F046
:10179000F8800C9998F800C009780D98C1F3801171
:1017A00061F3861C88F800C09BF8001060F3861176
:1017B0008BF800100C990A310891B6E66D0500F11E
:1017C000E2801099890500F18D81ACEB0005089944
:1017D000CDF840A0D446EDB205EB0C0EBEF11F0FC4
:1017E00028463FF7FBAD104460445F2800F3328188
:1017F0009BF802008BF80130013B63F305008BF886
:10180000020098F802300D9E501E60F3050388F820
:1018100002300AEB05031A4488F8012030462A46B4
:1018200034F0A4F9109B23B152461946701934F0D4
:101830008FF998F802309F0600F0A180159B5E0694
:1018400040F1E9800B9A119912F8013C01F8013C32
:10185000531E0B934B1E1193199B13B10B9B033B10
:101860000B93119E94F8253016F8032C6FF30502A4
:1018700006F8032C5D0923F069F832288CBF00209C
:10188000012095FAA5F3002DB3FA83F308BF4FF0BA
:10189000FF335B0106F8013C16F8033C60F3861346
:1018A0006FF3C71306F8033C002306F8023C1A9BAB
:1018B00013B1089B033B08930A9BDD0602D50D9BE1
:1018C000033B0D931B9B23B10D981946032234F063
:1018D0004DF9179B13B10B9B023B0B93189B13B154
:1018E000089B023B0893169B002B00F00281169A7E
:1018F000537812781B0203F470631A431198D1B223
:1019000000F8051C94F87A30C3F303031B0103EBC2
:10191000122300F8043C0D9800F8021C94F87A3069
:10192000C3F303031B0103EB122300F8013C0A9BE2
:101930009C077FD4821E0A9BD8070BD5129B002BD5
:1019400000F0E880089B063B196842F8061C9B885B
:1019500022F8023C9BF8023099061CBF9DF85430D7
:101960008BF8033098F802309A061CBF9DF824309B
:1019700088F80330149B93F84E30DB0776D40027A9
:101980002CE51F272AE596F800A0D6F80110109143
:10199000ACEB00000899C5B20536D4461CE74FF001
:1019A000000CCDF840C0E24616E79BF800C00D9849
:1019B00060F3C71C8BF800C0DBE500BF1C700300A0
:1019C00078700300F8680300089219F0FBFF089A8A
:1019D0001490002800F0B080DDF850E0CDF8488089
:1019E0009EF831300EEB83030121586B0C90844636
:1019F0001CF8023BCDF84CC003F03F03417003706C
:101A000080F803800EF11C01434635E5099941F049
:101A10004001099110E61C9B002B3FF41DAF089A72
:101A20000D9912F8013C01F8013C531E08934B1E1E
:101A30000D9311E71D9B002B68D0089B063B089374
:101A40000D991A6841F8082C9B8821F8043CA1F1F3
:101A5000080270E7A2F15F0353442B44D945337069
:101A600065D00C9B98455DD04527B7E4149C204673
:101A700019F0FCFB3C4A3D4B0721E0FB02311846C4
:101A800037A3D3E90023FEF72BFB256920F07F4421
:101A9000AC4242D22E1B0025149F3549022350220E
:101AA00038461F9312F05CFC002332490195C21C9A
:101AB0001FAD0591CDE9033303210296D2B2009305
:101AC0001846069513F076FF294614F091FF00287A
:101AD0007FF483AC3C6152E70899CDF840A00546FD
:101AE000D44679E65046CDF840A051465546D446F6
:101AF00079E694F87A30204903F00F0331F8132087
:101B0000501C21F81300C2F30B02F7E60B9B063BB7
:101B10000B9395E70B9B063B16E77FF630AF651BF3
:101B20000026B9E70F9A636C12785A759CE70E9BF2
:101B30001B7884F8293094E7D9457FF44FAC0F4ADD
:101B40000F4910484FF4C4632FF00BF8404080F366
:101B500011884FF0030002DF40E400BFAFF30080C4
:101B60008D49FD1A0700000000CA9A3B8C49FD1AF6
:101B7000E4510020D55D0100C05100201C7003001D
:101B8000C8700300F868030070B590F803C01CF03B
:101B9000010F14BF00F10A04041D1B481CF0020FC2
:101BA00015461E464FF00702A1FB000318BF06347E
:101BB00002FB01311CF0080F11A3D3E9002318BF69
:101BC0000234FEF78DFAAD1B10492844A1FB003109
:101BD0000D09490C04D00E4BA3FB0030012145092F
:101BE000A2782078657022F01F02C5F3042361F308
:101BF000C71013432070A370204670BDAFF3008060
:101C000000CA9A3B000000008D49FD1A8988888827
:101C1000B5814E1B0000000070B5234C9DF810E00C
:101C200094F846C01CF0020F36D1460816F00405A1
:101C300032D149B363F3830C400194F82030A1867C
:101C40004FEACE0E0EF0180E00F0200040EA0E0013
:101C500023F03803184394F82C3084F820001348FC
:101C600084F846C066F3020384F82C309121A2FB6D
:101C7000000301FB02310AA3D3E90023FEF730FA87
:101C8000C4E90E00284670BD94F82C3065F30203B9
:101C900084F82C30284670BD0C25284670BD00BF46
:101CA0008D49FD1A07000000601F0020002AE7840C
:101CB0002DE9F04F90F8463090F820204C4DDFF899
:101CC00034B16FF30003044600F12E01C3F380002A
:101CD00060F386128DB084F8463084F8202014F02A
:101CE00005F894F82020A38E4348E46102F07902BD
:101CF000002784F820209121A3FB0002C4E9057786
:101D0000277001FB032138A3D3E90023FEF7E8F98C
:101D1000E26B3A4B6760651BA3FB053502F10E03CE
:101D20009842C5F3071598BF3A46B8464FF0020AE5
:101D3000E76005EB45078CBF19460146A26307FA29
:101D40000AF73122A26021614BF80710064613F012
:101D500077FF0DF12C095F440997CDF82090069488
:101D6000CDF80C80A38ECDF82CA000F10E072248F0
:101D70009121A3FB000201FB032123690493204B63
:101D80000793204B059318A3D3E90023FEF7A8F986
:101D9000104619464FF47A720023FEF7A1F9053573
:101DA000EDB2CDE9016003213B462A46CDF8008023
:101DB000404613F09FFD494614F01AFE60B994F8AE
:101DC000463043EA0A0384F8463018F077FF38B10A
:101DD00000200DB0BDE8F08F0C200DB0BDE8F08FF5
:101DE000504621F02FF9F3E78D49FD1A0700000056
:101DF000601F00205C520020002AE784398EE338FF
:101E0000D55D010021C001002DE9F04F0B79062BB3
:101E10008FB00C46064612D0092B00F09B80A84AD2
:101E2000A849A94840F245132EF09BFE404080F39C
:101E300011884FF0030002DF0FB0BDE8F08FD1F83A
:101E400008A0DAF808305BB19D4AA0499E4890236B
:101E50002EF087FE404080F311884FF0030002DF30
:101E6000DAF8009048461AF02DFCA37E2660002781
:101E700067F38613A37694F82130E760002B5FD0D8
:101E8000053001225FFA80F804F1220E3D46394602
:101E90000B9294F8222090064ED094F9230094F8E7
:101EA00023C00028C0F236811CF0010F14BF04F1DA
:101EB0002A0004F124001CF0020F18BF06301CF0A9
:101EC000040F18BF01301CF0080F18BF02301CF0BF
:101ED000100B1CBF834603301CF0200F18BF1230BC
:101EE0001CF0400F18BF0130C2F30502A0EB0E003A
:101EF0000132D2B2C0B2824238BF02469A423ABFE1
:101F00009B1ADBB20023BBF1000F00F084809BF82A
:101F100002009BF801C0020202F4F85252EA0C02DD
:101F200079D0002949D0002D00F0FF81AA8E1344FA
:101F30009BB2AB86A38377E0013BDBB2002D41D19E
:101F4000A3832146304614F09DFC0FB0BDE8F04F4E
:101F500014F0A2BC8F685E4B3D689D426CD1D5F8F1
:101F600028A0BAF1000F00F09E8059493822084697
:101F700012F0F6F900F106085FFA88F8DAF80000C6
:101F80001AF0BAFB7A7902F00702012A814651D091
:101F9000022A30D10723A17E237100200B4660F373
:101FA0008613A37694F821302660E06053B10B923B
:101FB000C1F3C00104F1220E6BE73F2840F2BF805D
:101FC000002DBDD0AA8E13449BB2AB86A383B9F17A
:101FD000000F4CD099F846302A6BDB0700F19E8049
:101FE000D460AB6A2C63002B4FD028460FB0BDE8FD
:101FF000F04F1AF04FBC324A3249334840F20313D3
:102000002EF0AFFD404080F311884FF0030002DF57
:102010000FB0BDE8F08F002D64D0AA8E13449BB2A0
:10202000AB86A3830029D2D02B6B002B5ED0DC6063
:102030002C6301E70623AEE7D7F80880B8F1000F5C
:1020400070D0D8F80050AB6A9F425ED01C4A21493C
:102050001D48D0232EF085FD404080F311884FF0BD
:10206000030002DFBA4647464FF0FF0886E7144AEE
:102070001949154840F2E9232EF073FD404080F3E2
:1020800011884FF0030002DFA4E70D4A13490E4800
:1020900040F211332EF065FD404080F311884FF07F
:1020A000030002DFA1E7064A0D490748BC232EF0D2
:1020B00058FD404080F311884FF0030002DF54E7E1
:1020C000B471030078690300F8680300107203001C
:1020D000945200202C720300AC710300F8710300CD
:1020E00020720300A38300293FF42BAFB24AB34907
:1020F000B34840F2E5132EF034FD404080F31188E0
:102100004FF0030002DF2B6B91E7BA4647464FF0D2
:10211000FF0833E7002D3FF414AF58E72B6BA342C1
:1021200085D189E6A44AA749A548CD232EF019FDFB
:10213000404080F311884FF0030002DF81E7002D5B
:1021400000F0F580AA8E13449BB240F27162934274
:10215000AB863FF63CAF2B6B002B00F00281DC60BE
:10216000AB8E2C63A3839BF800203B79797962F3D3
:1021700005033B719BF8022001235209934063F34E
:102180000201797194F91A30002BC0F2EC80B9F198
:10219000000F00F0F38099F8463013F00103BDD131
:1021A000CAF808309BF900307879002BACBF1E23A9
:1021B0004FF49673BB609BF802A09BF801204FEA96
:1021C0000A2A0AF4F85A4AEA020A9BF8002003FB9A
:1021D0000AFAACBF3E234FF4A67312F0400F14BFAF
:1021E00032264FF4FA76784A06FB0AF6A2FB062658
:1021F000B60C06F1100203EB4203BB60012100F0B4
:10220000070022F0A9F94FF00009626994F8211043
:10221000C5F804903123AB60C5F80C90A2F1300CE6
:102220007A790B9F07F003030B440933D900C7F3F6
:10223000400321FA03F3ACEB030702F00303093375
:10224000C2F34002DB00D340574403F5EA73034472
:10225000DFF878A13F1A5E480721E3FB0A0154A387
:10226000D3E90023FDF73CFFBF1B20F07F4050A3C4
:10227000D3E900232861A7FB0A01FDF731FF4A4695
:1022800020F07F460221012012F0DAF8B8F1FF0FAA
:1022900019D0CDE9009923693F3B42464846334473
:1022A000012113F09FFB10F0FD0F0CD0424A494969
:1022B000434840F2BF232EF054FC404080F3118885
:1022C0004FF0030002DF44493822284612F048F854
:1022D00042492369CDE907154149CDE90515024673
:1022E0002969009600200632CDE90301CDE90100FD
:1022F0003F3BD2B2012113F0E1FA10F0FD0F0CD0F8
:102300002D4A38492E4840F2CF232EF02AFC404077
:1023100080F311884FF0030002DF012202211046F2
:102320000FB0BDE8F04F12F08BB8A383DEE62E4865
:10233000CDE90C3111F0E6FFDDE90C31054658B36B
:10234000838690F820300170C0E9051161F3C7134E
:10235000C1620163C061C0F828A080F8203000F19C
:102360001C07EC62FCE6A37E43F04003A376CAF8A8
:1023700008703B796FF386133B715DE50E4A1B498C
:102380000F4840F256232EF0ECFB404080F31188BA
:102390004FF0030002DFFEE694F91A30002BBFF67F
:1023A000D0ADA37E43F04003A376CAE5AFF300802F
:1023B0008D49FD1A07000000B4710300407203004C
:1023C000F86803002472030083DE1B4300CA9A3BB3
:1023D0008C49FD1A547203009452002075C9010003
:1023E00081C701008472030090520020AC71030089
:1023F0002DE9F04F05468BB08B46012002219A460D
:10240000144626F0FFF8002202218146012012F036
:1024100017F839494FF4D072284611F0A1FFC61DB4
:10242000F6B2364B009532460121002013F01EFB18
:1024300010F0FD0F0CD0324A3249334840F62F03DA
:102440002EF08FFB404080F311884FF0030002DF35
:102450002E4BA4FB0348204625A3D3E90023414685
:10246000FDF73EFE089506952B690493284B20F056
:102470007F47A7FB0331E01A264B07934FF0070273
:10248000254B059302FB07114FF6FE7368EB010124
:1024900003934FF47A720023FDF722FECDF800B0CB
:1024A000CDE90170534632460121002013F006FAAF
:1024B00010F0FD0F0CD0124A1249134840F64403A5
:1024C0002EF04FFB404080F311884FF0030002DFF5
:1024D000B9F1000F02D10BB0BDE8F08F012202214B
:1024E00010460BB0BDE8F04F11F0AABFAFF300806B
:1024F0008D49FD1A07000000A81F0020A5CF01008C
:10250000F472030054720300F868030000CA9A3B97
:102510008D49FD1A4DCF01005D2202000000000030
:102520002DE9F043046A228D4FF6FF739A428DB075
:1025300000F08880054620461DF058F995F82C30AB
:10254000012B00F00F81022B00F00281002B00F024
:10255000E18094F85071002F40F0FD80E68DB4F8D2
:102560003080002E71D12A8D08F101060023CDE9BB
:102570000A33B6B2002A70D094F93930002BC0F279
:1025800048810023A4F88E3195F82A30D90740F10C
:10259000EF800023A4F892310DF127023146204646
:1025A0001CF0DEFE743000F04681B4F88C312BB1A3
:1025B000B34240F20D819B1BA4F88C31B4F88831F2
:1025C0002BB1B34240F2FB809B1BA4F88831258ECF
:1025D00017B9A84500F0EA800135ADB294F8D130C2
:1025E00013F001065AD1DDE90A130A46002B40F028
:1025F000ED80002900F0DC801E461846228DE4693B
:102600000694CDE903570732A74D0290CDE9001695
:10261000D2B201210020059513F0CCF910F0FD0F86
:1026200010D014F00FFA84420CD0A04AA049A1485F
:1026300040F215532EF095FA404080F311884FF088
:10264000030002DF0DB0BDE8F0832A8D464400236D
:10265000CDE90A33B6B2002A8ED195F82A30DA07CE
:1026600097D4B4F88E31002B00F08280B34240F250
:10267000FA809B1BA4F88E31B4F89231002B8BD0DA
:102680009E4280F0DE809B1B9BB20022062BA4F8AA
:102690009231228600F2AC8001277DE794F939203F
:1026A0006FF30003002A84F8D13077DB94F87600CA
:1026B000C0F3C00100F0070021F04CFFB4F86E2019
:1026C000B4F86C30134403F26E2303447A4A7B4817
:1026D0000721E3FB0021104671A3D3E90023FDF796
:1026E000FFFCDDE90A1320F07F422069226190425D
:1026F00035BF161A801A002000260A46002B7FF4E8
:102700007DAF56EA010C7FF479AF002850D019460E
:102710001E4673E794F88E3003F01803182B7FF4ED
:1027200018AFA18DB4F88A218B1D9A42C4BF931FA4
:102730005B1AB4F88611CCBF9BB21346994200F0E5
:102740008C80A4F88631A4F88831A4F88C2100E7A5
:102750003D2784F85071394620460DB0BDE8F0435E
:102760001AF0BABF0023A4F88C31A4F88831F0E63F
:10277000B4F89231002B83D1628DB4F8903140F2DD
:10278000E24101FB02F242F2107101FB0323013B23
:10279000B3FBF2F39BB2A4F892316FE794F87700A1
:1027A000012100F0070021F0D7FE87E73D4615E73D
:1027B000002D4BD000261146304633461EE700233D
:1027C000A4F8883120461CF06BFE00E7304615E780
:1027D00014F09EF8014600283BD00023A4F88C3169
:1027E000238DC3801B230371006814F05BF8E5E6BA
:1027F00094F939309342BFF6CFAEB8F1000F7FF4B1
:102800004BAFD4F87C315A08DB0743D4C4F87C21A1
:10281000C2E628460AAA0BA904F1D409FEF798F8E3
:1028200048461CF05DFB18B348461CF059FB18B332
:1028300000232386A5E69DF8271020461AF04CFFBA
:1028400000E7082120461AF047FFFBE6002FB1D130
:10285000F8E60123A4F88C31B0E6B4F88C11002915
:102860007FF477AE6FE73E2120461AF035FFE9E6A8
:10287000FF201AF0F1FED7E70246D4E91E0111F05D
:10288000A7FD0028D4D194F83C30580744BFA38D4D
:10289000238676E642F00042C4F87C21FCE600BFC5
:1028A0008D49FD1A070000000DCF0100F4720300EE
:1028B000C8730300F86803008C49FD1A00CA9A3BEC
:1028C0002DE9F04F87B0CDE90423BDF8442003780B
:1028D0000292BDF84820BDF84080BDF84C50468EAD
:1028E000B0F82E90B0F814B1019104460392002B79
:1028F00000F08E80013EB6B2A368D4F80C71721B52
:1029000092B2002B009209DAE168626823F000437A
:1029100091422CBF7F18BF18A360FF1A009A638DE5
:1029200013FB02F39BB2B3FBF8F218FB02F080B288
:1029300083421FFA82FA5AD2C01A40F2E2425E493A
:1029400002FB00F0A0FB010159A3D3E90023FDF72E
:10295000C7FB20F07F400744D94494F839304D44F8
:10296000AD1B554440F2E246DB09E58506FB08F560
:1029700052D1524A5249534840F6BA032EF0F1F868
:10298000404080F311884FF0030002DF0026A94683
:10299000029BA385039BA4F8903129462046A4F806
:1029A0002A801CF019FD484BA18D2B44881DB3FBD8
:1029B000F5F39AB29042A4F88A2102D2521A063A4A
:1029C00092B2019BA4F8862113B10023A4F892319E
:1029D0003B464A4631462046FFF70AFD94F88431CB
:1029E00043F0010384F8843107B0BDE8F08F08FBA1
:1029F0001231314840F2E24389B203FB01F1A1FBFD
:102A000000012BA3D3E90023FDF76AFB3F1AA3E7DC
:102A10004E445E44B6B26FE7226C0099A36CDFF8B7
:102A200098B002FB1133A36421F090FF814694F823
:102A30007801C0F3420021F08BFF049B814406FB28
:102A400003F305FB09F9236509F574291F4B09F206
:102A50003F29A3FB09394FEA994303FB0AF023649A
:102A6000A5EB0309A36C6A080344963A934228BF76
:102A70001346C4E911230023C4F88031A0FB0B01E5
:102A80000BA3D3E90023FDF72BFB114B059A3F1A4B
:102A9000A3FB0230800A06FB00F005A3D3E9002364
:102AA000A0FB0B01FDF71CFB20F07F4670E700BF89
:102AB0008D49FD1A0700000000CA9A3BF47203001A
:102AC00078690300F86803007FC3C90183DE1B43F4
:102AD0005917B7D1000000002DE9F04F0B6891F8AD
:102AE0001190D3F8008090F82030176895B0044614
:102AF000C3F38013D0F822008DF83F30B9F1FF0FF7
:102B0000E38C12900E461546ADF84C300DF1480A94
:102B100040F0DE819AE803001090ADF8441023469F
:102B2000628E53F8321B0A919B78AB722A81D4F8DB
:102B30002E306B60D4F83E30AB6105F1180094F88C
:102B400042300371052111F0C7FD6B7F00F03F009B
:102B500060F305036B7794F84330C3F30402AA775C
:102B6000228FEA81012803F01F0392B240F298817C
:102B70001B3303F01F030B2B00F29281002A00F09D
:102B80008F81336800225A60638F2B82E989D8F8DD
:102B9000442040F2E24303FB01FBE18E0D91002A49
:102BA00000F0A28198F8251040F6C41240F6A66302
:102BB0007F2988BF1A460C92002138461CF020FC61
:102BC00094F8433097F878215B0963F3430287F860
:102BD000782121F0BBFE0B9097F87801C0F34200FA
:102BE00021F0B6FE0B9BCE4A03440BFB03F303F527
:102BF000742303F23F23A2FB03239B0C6B624FEA77
:102C00005B03963BAB6294F8353040F2E24202FB44
:102C100003F3AB63A38FA7F89031594638461CF0F5
:102C2000DBFBC04BC04AC7F894215B44B3FBFBF30A
:102C30009AB2A7F88A21298A881D824204DDC1F54B
:102C40007F41FA310A4492B2A7F886216B68C7F82F
:102C50007C31D8F84430002B00F0A78101230B937E
:102C6000E20700F175814FF48073238498F8270000
:102C700020F004FD04F12F03002800F03781A26A40
:102C8000C4F82F20A28D9A80B9F1FF0F00F0328195
:102C9000BAF804301298A4F82D30C4F829009DF831
:102CA0003F3084F822301098BDF84430C4F8230037
:102CB000A4F82730EB89E3862B8A2387B7F8903175
:102CC000638797F87831C3F3420384F83C30384681
:102CD0001AF0A0F9A881E08021460A98746813F0E0
:102CE000D1FDAB89E3801C2323710B9BD4F80090AA
:102CF000002B40F005810B9B84F8203015F0E6FB9B
:102D0000002840F03A812146484613F0CBFD95F863
:102D10005B00B5F85040B5F85290012100F0070073
:102D200021F01AFCA14409F26E29814404467F4A2D
:102D30007F480721E9FB002131234FF000091046AD
:102D4000BB60C7F8049074A3D3E90023C7F80C90C4
:102D5000FDF7C6F920F07F4038610D99F3686D6A80
:102D600040F2E24202FB01330C99303B19440C1B48
:102D70004A460221012011F063FBD8F84430ABEB46
:102D80000505B3B1D3F800A0504618F0D5FDC21C1C
:102D9000684BCDF800A0D2B24846012112F066FE81
:102DA000012800F029819AF84E306FF300038AF869
:102DB0004E30404617F066FF82465D4856A3D3E981
:102DC0000023A4FB0001FDF78BF9CDF80480B36864
:102DD0005849009120F07F490AF102023F3BD2B2EC
:102DE0004B440121002012F083FE012800F0E38013
:102DF00098F82430DB0700F1B88038461AF00AF959
:102E00004B4BA5FB03A8044643A3D3E9002350463C
:102E10004146FDF765F9484BB668484A079220F0ED
:102E20007F45A5FB0331BAEB0300454B059340F208
:102E3000D113069708933B694FF0000BCDE903B31C
:102E40004FF0070303FB051168EB01014FF47A72A1
:102E50000023FDF745F907343F3EE4B2CDE90150C8
:102E6000CDF80090334622460121584612F026FD47
:102E700010F0FD0F0CD0334A334934484FF4E97356
:102E80002DF06FFE404080F311884FF0030002DF09
:102E900001220221104611F0D3FA15B0BDE8F08FDF
:102EA0000022C8F8142095F820300A9862F3000335
:102EB00085F82030E56801262146267113F0E2FCF2
:102EC00028682E71294613F0EDFC15B0BDE8F08F8F
:102ED00010AA0DF13F0148461FF0A6FD9DF83F30B6
:102EE00002338DF83F301AE60C9365E6C4F82F00E4
:102EF0009880C9E60022C4F82920A4F82D20CEE647
:102F00006B7F43F040036B77281D1FF06BFBE8835A
:102F1000F1E600BFAFF300808D49FD1A0700000005
:102F200083DE1B437FC3C901404B4C008C49FD1A13
:102F300000CA9A3B212202008D49FD1AF1210200AC
:102F40005D2202006478030054720300F8680300F5
:102F5000334A34493448F8232DF003FE404080F3CF
:102F600011884FF0030002DF7DE600230122009369
:102F70001846114612F07AFD3FE72146484613F005
:102F800081FCD8F840404046D4F8009017F07AFE13
:102F900010F0FF0A22D100231222A4F806A0237207
:102FA0002271AA8962816372ADE694F82030C3F37E
:102FB00040130B9354E613F045FD80453FF418AFE2
:102FC000174A1A49184840F279232DF0CAFD4040AB
:102FD00080F311884FF0030002DF09E7104A14491B
:102FE00011484FF4A6732DF0BCFD404080F31188CA
:102FF0004FF0030002DFCEE713F024FD82453FF4DB
:10300000D2AE074A0949084840F279232DF0A9FDBC
:10301000404080F311884FF0030002DFC3E600BF99
:1030200064780300206D0300F8680300C078030093
:10303000546E030000000000032838B50D4612D07E
:10304000072802D00024204638BD002019F0EAFFEE
:1030500004460028F6D090F93930002BF2DB0369E2
:103060002B60204638BD002018F0BAFE0446002828
:10307000E8D05F22114618F0BBFE0B4A0B4B07212C
:10308000E0FB0231184606A3D3E90023FDF728F838
:1030900020F07F402860204638BD00BFAFF300809D
:1030A0008D49FD1A0700000000CA9A3B8C49FD1AA1
:1030B0002DE9F04F8FB00DF137010446DFF8F0A095
:1030C000DFF8F0800DF1360013F06AFC9DF8363021
:1030D0009DF837B00B9312F0B3FDDAF80060A6FB51
:1030E000085631A3D3E900230027814631462846FC
:1030F000FCF7F6FFCDE90777069420F07F44DAF875
:1031000004002D4B0593A0FB080127A3D3E900235E
:10311000FCF7E6FF294B20F07F40A4FB0331072298
:1031200002FB0411CDE90370E81A66EB01014FF4CC
:103130007A720023FCF7D4FF0097CDE901404B469B
:103140000B985A46032112F0B9FB10F0FD0404D08D
:103150006FF08B000FB0BDE8F08F1948194A0023BB
:103160002AF06EF820B9DAF80C000FB0BDE8F08F45
:103170009DF837209DF8360000942346032112F075
:1031800075FC10F0FD0F0CD00F49104A1048E423D5
:103190002DF0E7FC0F482DF0E4FC0C48E4212DF065
:1031A000D9FC6FF07300D5E78D49FD1A07000000C8
:1031B0008C59002000CA9A3B193B02008D49FD1A28
:1031C00074590020447B0B00AC7C03003C7C030062
:1031D000F8680300F47C030038B50F4D044612F084
:1031E0002FFDA96812F02EFD696803460B48B3FB5A
:1031F000F4F4A1FB00011C4405A3D3E90023FCF770
:103200006FFF20F07F40844294BF0020012038BD32
:103210008D49FD1A070000008C59002000CA9A3B16
:10322000F0B5C468636883B00546002B69D124F00B
:1032300095FC002024F0E8FCA17A607A01F00101FD
:10324000C0F3820024F0D2FC627A252102F01C0235
:10325000082024F00FFD464B019301A824F0F2FC56
:10326000444940F25B6024F095FD237AC3F34202A7
:1032700062F306132372204621F0D0FD20F0ACFB50
:1032800058BB637A9B071FD127682E68384621F008
:10329000FDF806446A6806F10E01012024F0D8FE0C
:1032A00024F0EEFF204617F0FBFC811C3246C9B229
:1032B000384621F0F9F8054670BB204621F052F857
:1032C00088B9002003B0F0BD01201FF07BFE4178DB
:1032D000821C007824F05CFED6E7607A10F00300D0
:1032E00018BF0120F1E7244A2449254840F22C4325
:1032F0002DF037FC404080F311884FF0030002DFCF
:10330000DFE793F820309A0791D01E48214624F039
:10331000E3FB24F0FBFCD4E7174A1B49184840F2B2
:1033200014432DF01EFC194B0721A5FB030301FBE1
:1033300005310DA3D3E90023FCF7D2FE1449024660
:1033400014482DF00EFC404080F311884FF003002C
:1033500002DF1148214624F0BFFB24F0D7FC6FF0B8
:103360008B00AFE7AFF3008000CA9A3B000000007B
:10337000D6BE898E55555500A87F03007C6A030090
:10338000F868030059460200786903008D49FD1A68
:103390005C800300288003005D49020000000000FB
:1033A0002DE9F047C46882B0002306460DF1030101
:1033B00004F1140067688DF8033021F0F3FC8046B7
:1033C000002800F0D5803B7B07EB83031D692B7839
:1033D00003F00F03072B0BD08B4A8C498C489C239E
:1033E0002DF0BFFB404080F311884FF0030002DF57
:1033F000AB789B0600F09A80EB78D8074CBF05F1BC
:103400000A022A1D990748BF0632180748BF023230
:10341000D90640F1A680937851781B0203F4F85343
:103420000B4300F09E80238992F800A00133238192
:1034300024F094FB002024F0E7FB97F80990B97A78
:103440004FEA591901F00101484624F0CFFB4FEA39
:1034500089025F21082024F00DFC6E4B019301A826
:1034600024F0F0FB0AF03F0A6B4940F25B6024F065
:1034700091FC504621F02AF8404624F02BFCAB7812
:103480003F2B2BD90DF1030107F1180021F08AFC25
:10349000054600287FD02146604824F01DFB962079
:1034A00024F0CAFD484624F097FC9DF803302BB168
:1034B000D8F804306B60B8F808302B8120F08CFA13
:1034C000002862D17B7A9B070ED001201FF07AFD85
:1034D0004178821C007824F05BFD05E050482146CD
:1034E00024F0FAFA24F020FD27683568384620F0E9
:1034F000CDFF054405F10E017268012024F0A8FDFE
:1035000024F0BEFE204618F021FAC11C2A46C9B29A
:10351000384620F0C9FF0546002849D1204620F052
:1035200021FF80B9002002B0BDE8F087364A3D494E
:103530003748A8232DF015FB404080F311884FF049
:10354000030002DF58E7304A3749314840F2571349
:103550002DF007FB404080F311884FF0030002DF9D
:10356000E0E73248214624F0B7FA24F0CFFBD9E750
:10357000254A2F49264887232DF0F3FA404080F34F
:1035800011884FF0030002DF1DE7787A10F0030086
:1035900018BF01209AE71C4A26491D48EE232DF04A
:1035A000E0FA404080F311884FF0030002DF72E739
:1035B000154A214916484FF4A3732DF0D2FA1F4B38
:1035C0000721A5FB030301FB05310DA3D3E900236C
:1035D000FCF786FD1A4902461A482DF0C2FA40400F
:1035E00080F311884FF0030002DF1748214624F0D2
:1035F00073FA24F08BFB6FF08B0094E7AFF300803D
:1036000000CA9A3B0000000068800300C0800300ED
:10361000F8680300D6BE898E555555009D540200AA
:1036200051540200E88003007C6A030059460200FE
:10363000B88003001C800300786903008D49FD1ADF
:1036400008810300288003001146020000000000EA
:103650002DE9F041C46823796FF300038CB0237126
:103660000F46054624F07AFA002024F0CDFA207C9B
:10367000012100F0070024F0B9FA227C92002521F4
:1036800002F01C02082024F0F5FA237C23F0180332
:103690000120237413F088FA0646002800F0B08059
:1036A00006F1200024F010FB714B0B930BA824F0C3
:1036B000C9FA704940F25B6024F06CFB2079C0F3DA
:1036C0004100253020F002FF6B48214624F004FA27
:1036D00023799B0666D5962024F0AEFC00231A467B
:1036E0001946184624F0C0FB20F076F900285FD177
:1036F000237913F0180F4CD1D4F800802E6840467F
:1037000020F0C4FE06446A6806F10E01002024F091
:103710009FFC24F0B5FD24F017FC204618F0DEFFD6
:10372000411DC9B24046324620F0BEFE0546002883
:1037300074D147B1204620F015FE002852D1002058
:103740000CB0BDE8F081E369002BF3D04B4D079539
:103750004B4D059540F2F3150093CDE90377CDE984
:1037600001770694334604223946089512F0A6F8EC
:1037700010F0FD0FDED0434A434944484FF4FA733A
:103780002DF0EFF9404080F311884FF0030002DF85
:10379000D0E701201FF016FC4178821C007824F04D
:1037A000F7FBA9E724F0C0FB20F016F900289FD012
:1037B0002079C0F3C0001FF005FC06460DF12B0078
:1037C0001FF084FF71788046B21C307824F0E0FB53
:1037D000227C9DF82B009200414602F01C0224F04E
:1037E0000DFE89E7274A2A49284840F20B232DF08D
:1037F000B8F9404080F311884FF0030002DF9EE7E4
:10380000204A244921484FF4C5732DF0AAF94040BD
:1038100080F311884FF0030002DF41E7194A1E4987
:103820001A4840F2E5132DF09CF91C4B0721A5FB2B
:10383000030301FB05310CA3D3E90023FCF750FC83
:103840001749024617482DF08CF9404080F3118843
:103850004FF0030002DF1448214624F03DF924F024
:1038600055FA6FF08B006BE700CA9A3B000000002E
:10387000D6BE898E55555500416102001D5D02007E
:103880004D5D020014810300606E0300F8680300C0
:103890007C6A0300F47F0300786903008D49FD1AF8
:1038A0006C81030028800300155A0200000000000C
:1038B0002DE9F041C46882B00DF1020105462046B1
:1038C00019F000F923796FF3861323717C4B0026DE
:1038D0001E80074624F042F9304624F095F96079BD
:1038E000012100F0070024F081F962799200FF21A4
:1038F00002F01C02082024F0BDF9012013F054F955
:103900000646002800F0A18006F1200024F0DCF932
:103910006C4B019301A824F095F96B4940F25B6070
:1039200024F038FA207900F03F0020F0CFFD214646
:10393000664824F0D1F8962024F07EFB627902F0EC
:10394000070201231046002124F08EFA20F044F8EB
:1039500000284ED13B7913F0180F3FD127682E680D
:10396000384620F093FD06446A6806F10E010020F7
:1039700024F06EFB05466079D4F8088000F007005B
:10398000012124F0B5F90544607900F00700022810
:1039900045442CD004280CBF4FF4BC7328230121CC
:1039A0001D4424F0A7F9284424F030FC24F068FCDE
:1039B00024F0CAFA204619F07BF8811D3246C9B2BC
:1039C000384620F071FD054600284CD1204620F0F5
:1039D000C9FC60BB002002B0BDE8F08101201FF0EF
:1039E000F1FA4178821C007824F0D2FAB6E7182365
:1039F000D5E73879C0F3C0001FF0E4FA06460DF1B0
:103A000003001FF063FE7178B21C0746307824F083
:103A1000BFFA62799DF80300C2F30202920042F0FD
:103A2000020202F01E02394624F0E8FC96E7284A1A
:103A3000284929484FF416732DF093F8404080F33D
:103A400011884FF0030002DFC4E7214A23492248CE
:103A50004FF4F1732DF085F8404080F311884FF05A
:103A6000030002DF50E71A4A1D491B4840F2392380
:103A70002DF077F81B4B0721A5FB030301FB053154
:103A80000DA3D3E90023FCF72BFB17490246174887
:103A90002DF067F8404080F311884FF0030002DFFB
:103AA0001348214624F018F824F030F96FF08B0009
:103AB00091E700BFAFF3008000CA9A3B000000000E
:103AC00006620020D6BE898E555555005D700200F5
:103AD000808103007C6A0300F8680300F47F030020
:103AE000786903008D49FD1AE081030028800300F6
:103AF000CD640200000000002DE9F041C468A289F5
:103B00004FF6FF739A4282B000F0C780054623F05B
:103B100029FB2B89628AE08A1A4492B21044637F9F
:103B2000A28280B2411CE1825E064FF000016182F8
:103B300004F1180100F18C8003F03F000B46A17FD7
:103B4000009004F11F001EF005FD0646D4E90B238A
:103B50001344D4E90D0200210244E1626163A16AC9
:103B6000A26394F872208B4228BF0B4612F0040225
:103B7000236377D023F0F2FF002024F045F8201DC6
:103B800024F060F82389A17A40F25B6043EA0141A6
:103B900024F000F9304620F099FC2146584823F0E3
:103BA0009BFF962024F048FA94F85A2094F85B0082
:103BB000C2F3C003002102F0070200F0070024F066
:103BC00053F9204623F02EFB27682E68384620F054
:103BD0005DFC06446A6806F10E01002024F038FA04
:103BE000804624F021FB002024F038FB236B94F85E
:103BF0005B0003F13002A36B00F00700012103EB2F
:103C0000420524F075F84544054494F85B0000F043
:103C10000700022824D004280CBF4FF4BC732823CB
:103C200001211D4424F066F8284424F0EFFAA1890C
:103C300007313246C9B2384620F036FC054698BBFB
:103C4000204620F08FFBD0B9002002B0BDE8F08103
:103C50000A4603F03F03E18B1EF0C8FC064675E7F9
:103C60001823DDE7D4E9170110F0B2FB002881D159
:103C700094F8723043F0040384F872307AE7214AF2
:103C80002149224840F255132CF06BFF404080F34D
:103C900011884FF0030002DFD6E71D48214623F0CC
:103CA0001BFF24F033F8CFE7164A1A49174840F2B1
:103CB0004B132CF056FF184B0721A5FB030301FB08
:103CC00005310DA3D3E90023FCF70AFA1349024694
:103CD00013482CF046FF404080F311884FF003005A
:103CE00002DF1048214623F0F7FE24F00FF86FF0B2
:103CF0008B00AAE7AFF3008000CA9A3B00000000E7
:103D000081740200588203007C6A0300F868030093
:103D100059460200786903008D49FD1AAC82030000
:103D200028800300114602007FB50A4B0593022349
:103D3000049304AA084800234FF484512CF074FC27
:103D4000064840F26762002307B05DF804EB29F0F3
:103D500085BF00BF4C850300EC5F0300B814002052
:103D600008B5302031F076FE48B100238385011D6F
:103D7000BDE8084004484CF250322CF06CBCBDE861
:103D80000840FFF7D1BF00BFBC5C030070B50378EB
:103D90008AB004460E4607AD032B20D8DFE803F0B7
:103DA00002191B1D11492846FCF70EFB0595637887
:103DB0000493A3780393E3780293237901936379BF
:103DC0000093A3790A4A1E2130462CF02DF90AB03F
:103DD00070BD0849E7E70849E5E70849E3E7084A0D
:103DE0000A2128462CF020F9E0E700BF7585030082
:103DF000978503007C850300838503008D85030080
:103E0000CDC10300F0B589B000AF0D4614462FF0C8
:103E1000FBFA3946FFF7BAFF6E46ACB98AB06A467C
:103E2000124BD561C2E905374FF400731384104B70
:103E300042F8103F4FF4135123460E482CF0F4FB88
:103E40002437B546BD46F0BD8AB06A460A4BC2E982
:103E500005374FF400739384084BC2E907544FF4BD
:103E6000325142F8103F0023E7E700BFBA85030054
:103E700004000001EC5F0300D88503000500000189
:103E800090B589B000AF0C462FF0BEFA3946FFF767
:103E90007DFF8AB06A46094BD461C2E905374FF409
:103EA00000731384064B42F8103F064800234FF47A
:103EB00013512CF0B9FB2437BD4690BDFC8503009F
:103EC00004000001EC5F030090B589B000AF0C4620
:103ED0002FF09AFA3946FFF759FF8AB06A46094B24
:103EE000D461C2E905374FF400731384064B42F8DE
:103EF000103F064800234FF413512CF095FB243754
:103F0000BD4690BD1F86030004000001EC5F030066
:103F100080B588B000AF2FF077FA3946FFF736FF4B
:103F200088B06A46084B0948C2E905374FF4007368
:103F30009383074B42F8103F4FF4E65100232CF0D7
:103F400073FB2037BD4680BD41860300EC5F030054
:103F50000300000190B589B000AF0C462FF054FA71
:103F60003946FFF713FF8AB06A46094BD461C2E9AC
:103F700005374FF400731384064B42F8103F064890
:103F800000234FF413512CF04FFB2437BD4690BD56
:103F90005786030004000001EC5F0300F0B589B010
:103FA00000AF0C462FF030FA3946FFF7EFFE6E46B1
:103FB0008AB06A46194DD4614FF400731384184BCC
:103FC0001848C2E905574FF4135142F8103F002337
:103FD0002CF02AFB2246B54639462846124C2CF0D6
:103FE0002CFC12482CF029FC206818B10AF06CF85F
:103FF000002323600E4C206818B10AF065F80023F6
:1040000023600C4A002313700B4A13700B4A137081
:104010000B4A24371370BD46F0BD00BF6C86030009
:1040200004000001EC5F030070230020958603006C
:104030007423002062620020616200205C62002024
:104040005E6200202DE9F0438FB0054600AF0C46BC
:1040500099B16D4688B06A46234B2448C2E90531C0
:10406000032342F8103F4FF4C25100232CF0DCFA36
:10407000AD463C37BD46BDE8F08307F118062FF08A
:10408000C3F93146FFF782FEE94688B06A46DFF899
:10409000608016484FF400739383164BC2E905867F
:1040A0004FF4E65142F8103F23462CF0BDFA31465A
:1040B000CD4640462CF0C1FB284609F0D5FF0E4BFB
:1040C00018600E482CF0B9FB0D4B7B6102233B615D
:1040D00007F11002234605484FF486512CF0A4FA4C
:1040E000084B01221A70C4E7A8860300EC5F0300A6
:1040F000C38603000300000174230020DE86030052
:10410000ED86030062620020F0B58FB000AF0C4670
:10411000054609F0A9FF174B1860284607F1180556
:104120002FF072F92946FFF731FE6E468AB06A46D3
:10413000114BD461C2E90535104C4FF40073138460
:104140000F4B42F8103F4FF41351002320462CF040
:104150006BFAB5460B4B7B6102233B6107F1100202
:1041600000234FF4865120462CF05EFA3C37BD46C2
:10417000F0BD00BF7023002057860300EC5F0300F2
:1041800004000001FD8603002DE9F04F1F46B1B089
:10419000A94BBE8810920122CDE911101A7039681E
:1041A000A64C2323324627A831F059FCA44A1368B1
:1041B0000133136000220023CDE91423129BD3F8AE
:1041C00001001490B3F80530ADF854301E220021E0
:1041D0001FA831F0E5FC1FAA9A49384606F04CF8B2
:1041E0001FA8FCF7F9F8DDE914ABD4E902235B451D
:1041F00008BF5245054600F0D980702200212046B4
:1042000031F0CEFC4FF00009A4F86E60C4E902ABB7
:10421000DFF8348225B122221FA9404631F032FC5A
:104220008948FCF7D9F883B2054609F110003246F7
:1042300027A92044139331F08BFC119BA4F86C3018
:10424000824B1B6848F84E3C00236360804B1B7810
:10425000E3B1DFF80082D8E902239B4508BF92450D
:1042600014D145B998F84E302BB17748222208F185
:104270004E0131F007FC7149B8F96E30B1F96E901A
:104280004B4540F39D80744B01221A70734B1B7891
:104290007BB335BB724B9946D3E90212934508BFF5
:1042A0008A4540F0A9804FF070084E2115FB081197
:1042B00022224944644831F0E5FB6348FCF78CF85E
:1042C00083B2139308FB05985C4BB8F96E20B3F9E1
:1042D0006E309A4202DD604B01221A70002800F015
:1042E00091806048554D00210BB2C25C002A40F01D
:1042F0008F80DFF86C914FF000084B464D46D3E9B4
:104300000212934508BF8A4540F0BC80524B1B788F
:10431000702202FB08F923B9484905EB090031F086
:1043200017FCB4F96E100791702101FB085109F1D7
:104330000800B1F96C100691295C05912A1809F161
:104340004E035178049191780391D17802911179BB
:104350000191527900924448109A2B4441462CF026
:104360006CFA139B002B4DD0404B1B78002B49D08F
:10437000129817A9FFF70AFD9DF87C30002B00F07A
:10438000F780119B00933A48109B019617AA1FA92A
:104390002CF053FA374D002423B2B34204F1010448
:1043A000C0F2EE8034482CF048FA2BE0B4F96E905D
:1043B00006EB0903A4F86E30274B00221A7025E79C
:1043C0007022244831F0C4FB1C49CDF81890B1F993
:1043D0006C3005930B7A04934B7A03938B7A029398
:1043E000CB7A01930B7B00934B7B244801F14E0267
:1043F00010992CF022FA49E70135052D03F17003DD
:104400007FF44AAF0C4B00221A7031B0BDE8F08F38
:104410003F2A0ED02B4493F84E30934209D0134BD1
:104420001B789B07EED50F4A074915482CF005FA73
:10443000E8E7013158E700BF44620020E80F0020A0
:104440007C2300202D060300361000207823002056
:1044500041620020780F0020406200205A62002054
:1044600088120020466200207E87030045620020FB
:104470001E8803003D8803005CC503002C870300F1
:104480006787030008F10108B8F1050F03F1700315
:104490007FF435AFDFF8F4A0BAF800104FF07008E1
:1044A00008FB01F3EA18B2F96CC0119A62457FF774
:1044B00058AF374CB4F96EE0CDF83CE0B4F96CE09D
:1044C000CDF838E094F808E0CDF834E094F809E04D
:1044D000CDF830E094F80AE0CDF82CE094F80BE049
:1044E000CDF828E094F80CE0CDF824E094F80DE045
:1044F000CDF820E004F14E0ECDE906CE03F1080020
:104500002A18285C05905078049090780390D07811
:1045100002901079019052791E4800924E332B443C
:10452000109A2CF08AF9BAF800002146424608FB9E
:10453000005031F00DFB184C0023AAF80030012286
:10454000194608FB0140B9F9DC50B0F96C0085420E
:10455000B8BF91B202F10102B8BF0123052A09F1E7
:104560007009EED1002B3FF4FCAE084B1980F8E641
:10457000DDE910230948009617A92CF05EF909E738
:104580003A682846D15C2CF058F905E7D261002042
:10459000E80F0020B787030088120020238803005B
:1045A00090B587B00B7800AF052B59D8DFE803F042
:1045B000039C307D905B8B68002B51D048680028AD
:1045C0004ED0524A13680BB3181F00231360504A91
:1045D000136031F038FA4F480022002328F082FDA2
:1045E00000283DD0828D011D4B482CF03CF800285E
:1045F00036D04A4B7B6102233B610023484807F1D8
:1046000010024FF484512CF00FF829E00438E0E751
:104610004C68CB68228D4348134402789BB22385B3
:10462000F2B94A68134413F8013C0A2B01D00D2B50
:1046300016D101230370384883685B699847238D3E
:104640006C4688B06A4638493548C2E905130323E9
:1046500042F8103F4FF4C65100232BF0E5FFA5466A
:104660001C37BD4690BD2F4B002430201C7031F00C
:10467000F1F9034638B18485011D4CF250322648C9
:104680002BF0E9FFECE7294A7A6102223A612448DB
:1046900007F110024FF484512BF0C6FF40F267621D
:1046A0000023234829F0DAFADAE7302031F0D2F992
:1046B000034640B10022828517488268191D14699B
:1046C0002822A047CCE7194A7A6102223A6195E78D
:1046D0004B68191F1B8D1BB1164830F0DFFFBFE779
:1046E000084631F0B0F9BBE7084A13680BB94B68CC
:1046F000136007488B6801680B44116803600A8DDA
:104700000548D21A19442BF0AEFFA9E76423002014
:10471000602300208C0C0020BC5C03004388030055
:10472000EC5F03000C620020618803004C850300ED
:10473000B8140020700C00202DE9F04F87B000AFB6
:104740002748DFF8A0B0DFF8A0804FF0FF324FF02D
:10475000FF3328F075FD4FF0FF324FF0FF3358461E
:1047600028F0C0FC00F1040A828D05465146002065
:1047700003F02EFF58B11D4B7B6102233B6107F113
:10478000100200234FF4845140462BF04DFFE946C0
:1047900088B06C46164B6361164BA36126464FF4F6
:1047A0000073A383144B46F8103F14495346324616
:1047B00040462BF039FFCD46AB8DA546104AC4E9E3
:1047C0000523032323614046002332464FF4C6519C
:1047D0002BF02AFF2846CD4631F035F9BBE700BF64
:1047E000280C0020700C0020EC5F0300748803008C
:1047F00083A703009C88030003000001C01C800203
:10480000B08803002DE9F04F8FB0002500AF0446BB
:104810008846164629461A2207F11C00BD6131F070
:10482000BFF9204607F118042EF0EEFD2146FFF7F0
:10483000ADFAE94688B06A465F4B6048C2E9053484
:104840004FF4007393835E4B42F8103F4FF4E651F0
:104850002B462BF0E9FECD46B54210D0302031F08A
:10486000F9F8044678B9574B7B6102233B6107F1A5
:10487000100203464FF4845150482BF0D5FE3C37CC
:10488000BD46BDE8F08F721B272A94BF92B2272243
:1048900000F10409828508EB0501484631F058F91A
:1048A000A38D1D44ADB2AE420AD108EB060212F848
:1048B000012C0D2A04D1E2180A2101331171A385BC
:1048C000A28D414849462BF0CEFE18B13F48214603
:1048D00030F0E4FEDFF8F8B0A18D3E48DFF8F8A034
:1048E0002BF0ABFF9BF80010A28D00238AF800305C
:1048F000C9B90B2A0CD139490922484631F0EEF8E2
:1049000030B9012236498BF800205046FBF75CFD98
:104910003148FBF761FD00289ED082B22E4900206D
:1049200003F056FE98E72F4B0121082A197021D178
:104930002379572BECD1E0792BF09DFE00B10138A3
:10494000294A637AB2F800C0284A0121A2F800C0BF
:10495000303B01FA00F202EA0C0203FA00FC624565
:1049600022D1002BD4BF0023012321491A481A4623
:104970002BF086FBA38D062B0FD12379522BC7D1A9
:10498000E0791C4B1C492BF076FE1A880138024155
:1049900002F0010210482BF073FBA38D032B02BF22
:1049A000164B01221A70B3E7154A1070154A13709E
:1049B000154B1970ACE700BFBD880300EC5F030026
:1049C00003000001D4880300BC5C03008C0C0020B1
:1049D00061620020FF88030063620020930A0020C8
:1049E0000C89030062620020D4610020D86100209D
:1049F00011890300D66100201B8903005C6200203E
:104A0000606200205F6200205E6200202DE9F341B9
:104A10000378012B40F01582D0E90162002A32D0E0
:104A20007D4C7E4B7E481B6821462BF006FF237889
:104A3000322B02D16378312B1FD07A497A482BF080
:104A4000FCFE322422460021734831F0A9F80022EE
:104A5000714B76480094114627F076FA744B9842D1
:104A600011D07449744A754840F212632CF079F8F9
:104A700040F2126170482CF06DF82279A1787048EC
:104A80002BF0DBFEDDE7002E00F0DB81654A62489B
:104A9000002114468E4288BF435C01F1010186BFAC
:104AA0000133DBB200230A2902F8013BF2D15A4B51
:104AB00018783038C2B2092A4DD85A78574D303A52
:104AC00001FB0022002A2A6045DD1F2A24DC511E3A
:104AD0001E2900F2A281DFE811F0CB004C01A001F9
:104AE00052015B01CB00A001A001A001A001A00127
:104AF0005300A0019500A001A001670084008F0071
:104B0000A0015D018A01A001A001A001A001A001F6
:104B1000A001A0013F0189005E2A5ED100222A6027
:104B2000484A1278BAB99A78AAB14748013309229B
:104B300013F8011F013A002908BF302192B200F892
:104B4000011F002AF4D1414941484A732BF075FEF8
:104B50002B68002B41DC00230093324933481F228D
:104B600027F0F2F9324B984200F06B813149324A1A
:104B7000324840F2B6632BF0F4FF40F2B66179E7B9
:104B80009A7872B900232FE09C5C4454013212B22F
:104B90009642A2F10201F7D8002343542D492E4832
:104BA000D4E72C480222F3E72C4B1B78002BE9D1E9
:104BB0002B4A22F80E3F184B012198782BF05BFD11
:104BC0000446D8782BF057FD013100EB041007297B
:104BD00002F8010D03F10203EFD1224B01221A70FA
:104BE000B9E71E4A002313702B60B4E798781E4B78
:104BF0002BF041FD1870C5E71C4B18689B8820609E
:104C0000A380BFE71348FBF7E7FB124902460548BC
:104C100030F09EFFB6E700BF0D6200208023002029
:104C200022890300600A00204789030068230020CE
:104C30000000AD0B8F89030081890300A689030062
:104C4000668903003F620020920A00208F0A00203C
:104C5000C389030046620020D58903004162002019
:104C6000780F00205B6200205D620020800F002032
:104C7000022E15D998782BF0FEFC0146D8782BF03F
:104C8000FAFC00EB01107049088018792BF0F3FC56
:104C9000014658796D4B2BF0EEFC00EB01101880AB
:104CA0006B4B6C4F93F80080012A27D03023B8F16A
:104CB000000FA370E37023716371A37118BF4123C8
:104CC0002370654B1B78002B0CBF3023312363709E
:104CD000624B1B7833B1624B62491A7862480132E9
:104CE0002BF0CEF9614B1B780BB1312323713B784C
:104CF000002B3FF447AF3123637143E75C48FBF778
:104D00006BFB10F4004F08BF0246064618BF002296
:104D10005749584830F01CFFB8F1000F01D041232B
:104D200023700023A355544B1A68544B9A51544A8C
:104D3000043312689A51A3193A785A72514A127878
:104D40009A72514A1278DA720C36504BA2191868CE
:104D50009B88A051938015E700229A554C494D48F5
:104D6000322230F08FFE3C4B1B78002B3FF40AAF11
:104D700033E7494970223F482BF082F902E73E4B66
:104D80001A68464BB2FBF3F103FB11224449F2E7E8
:104D90003B4BF5E7D9789A781B79303901EB8101E3
:104DA000303B03EB41033F4931F913103E4B702078
:104DB00000FB0130303AB0F96C0010F5617F14BF90
:104DC000C1EBC101394B12B218BF03EB0113C2EBA7
:104DD000021203EB4203274A03F11C0153F8040BB0
:104DE00042F8040B8B42F9D11B881380CAE6264A8D
:104DF0001278002A3FF4F1AE9B78303BC3EB0312EC
:104E00002B4B03EB42031B4A03F11C0153F8040B29
:104E100042F8040B8B42F9D1E6E7032A7FF4DDAEBA
:104E20009A78303A02EB8201DA781B79303A02EB59
:104E3000410202EB8202303B03EB42031D4A137036
:104E4000A0E602B0BDE8F081D6610020D461002068
:104E500062620020436200205C6200205E620020EB
:104E600060620020E9890300620A00205F6200207E
:104E70009D0A0020600A002078230020610A00209B
:104E80007C2300205A62002041620020800F002015
:104E90000D620020636200203E860300A0860100B0
:104EA000EE890300C861002058100020980E0020F1
:104EB000080F0020456200202DE9F04FA7B004AF95
:104EC000AD4B3B6100253D75DFF8B082404630F0C8
:104ED00083FBE0B1302030F0BDFD0446B8B18585DC
:104EE000A749A84828F09EFDD8F808301B6883B968
:104EF000204630F0A8FDA44BFB670223BB67A34804
:104F0000002307F178024FF482512BF08DFB2BF038
:104F1000BCFB9F492A464046984781460028E7D176
:104F2000302030F097FD0546002800F09380031DE7
:104F300098491846FBF748FA26220146AA854046BA
:104F40002BF091FB0646B0B1204630F07CFD2846A0
:104F500030F079FD6C4688B004AA8F4B8B48C2E9CB
:104F60000536032342F8103F4FF4C2514B462BF055
:104F70005BFBA546CBE73222211D40462BF06BFBA5
:104F80000546002856D1854B854A1880854B864CAE
:104F90001880864B188005231370854B1870854B3D
:104FA000014618704FF40C72204630F0F9FD4FF6B0
:104FB0007C43A4F86C30A4F8DC30A4F84C31A4F89D
:104FC000BC31A4F82C327C4B7C481D8070222946D1
:104FD00030F0E6FD70222946794830F0E1FD79494C
:104FE0007948FBF7F1F9794A2B4602F8013F013382
:104FF0003E2BFAD1714A724E75484FF67C43A2F8A7
:105000006C30A6F86C3009F0AFFD38B3714C204617
:105010002BF013FC0223BB675C48FC67002307F1FD
:1050200078024FF486512BF0FFFA28468C37BD46A4
:10503000BDE8F08FE84688B004AA674BC2E90530A6
:10504000032342F8103F514833464FF4C2512BF02E
:10505000EBFAC546204630F0F6FC58E75F4809F009
:105060009DFD804608B15E4CD1E707F1100A9AE831
:1050700003005C4B83E803005B4841462BF0DDFBFB
:10508000DFF868E1BEE80F0007F1680CACE80F003C
:105090009EE80700564B8CE80700564A07F1680166
:1050A000504626F005FF544B984281460BD0534999
:1050B000534A54484FF4E3632BF053FD4FF4E3613C
:1050C0004F482BF047FD97F87D30019397F87C30DF
:1050D00000930246434601464B482BF0AEFB4FF08F
:1050E000320B42460621232003F074FC474BCDF8D7
:1050F00000B042464146504626F026FF0823CDE93F
:1051000000B3824601461F2341484A462BF095FBD7
:10511000CA4509D039493A4A3A4840F22A732BF035
:1051200020FD40F22A71CBE7404606F0ADFB8046F9
:1051300000287FF4ECAE37482BF07FFB364828F090
:105140003BF82CF019F9354803F036FA814600286F
:1051500068D06C4688B004AA314BC2E905300323FD
:1051600042F8103F094843464FF4C2512BF05CFA15
:10517000A546012559E700BF00300240BC5C030092
:10518000613D0000B8140020F3890300EC5F0300C8
:10519000A1450000138A03003A8A0300D46100206D
:1051A0005D620020D661002088120020D8610020B6
:1051B0005C6200205E620020D2610020980E002018
:1051C000780F0020638A0300E60E0020A70E00205F
:1051D00034020020958A03006E8A03002402002016
:1051E000C28A030068230020F48A0300A060030041
:1051F000FD8A03000D4A00000000AD0B8F890300FB
:1052000081890300A68903000A8B03000D62002038
:10521000278B0300488B0300280C00201802002075
:105220005F8B030007F032FC034620B3E84688B0EA
:1052300004AAB3490323C2E9051042F8103FB1485C
:105240004B464FF4C6512BF0EFF9C546AE4803F07C
:10525000B3F9E0B16C4688B004AAAC4BC2E90530A2
:10526000032342F8103FA74800234FF4C2512BF00C
:10527000DBF9A546D9E6A64A7A6602223A66A14833
:1052800007F160024FF486512BF0CEF9DEE740F2D1
:1052900001133B8306233B7307F10C03FB61DFF82B
:1052A00074C240F609533B849B4B7B62BCE80F0001
:1052B00007F128050FC5DCF800302B600125974B5E
:1052C0000095022207F1180107F1280007F064FD9C
:1052D000814620B1014692482BF0AFFA49E7DFF84A
:1052E0004482C7F86480022307F160024FF48651BC
:1052F0003B66034683482BF097F940462BF09DFA16
:105300004946142207F13C0030F04AFC864B87499D
:10531000874887F83C503D647B642BF08EFA854DBE
:105320002A78002A2CD0844BDFF810C21878844BDE
:105330009CF800C01B880132D2B201218140944503
:105340002A7003EA010304D37E4A12788240934212
:1053500016D17D4A7D4812880A4214BF01220022DC
:10536000003B18BF01237A492AF08AFE7748FBF7F1
:1053700033F8764982B2002003F02AF900232B701B
:10538000744A13784BB10133DBB21E2B137004D96E
:10539000714B1521186809F07BF8704B1B786BB1C5
:1053A0006F4D704829682BF048FA2B681E2B00F3CC
:1053B0008980092B55DC694B00221A7000226A484B
:1053C000002327F08FFE828D1AB1011D002003F00B
:1053D000FFF8DFF8989100214FF4004029F088FD94
:1053E000D9F800303C220133C9F80030B3FBF2F1A8
:1053F00002FB113313B95E482BF01FFA5D4B1B788B
:10540000002B8CD05C4B1B78002B88D05B4D4FF071
:105410000008D5E9003253EA02011AD0D9F8001089
:105420001E3342F100028B4272F1000211D2544845
:1054300005F14E0241462BF000FA70220021284669
:1054400030F0AEFB4FF67C43A5F86C304D4BA3F823
:10545000008008F10108B8F1050F05F17005D8D1F9
:105460005DE70A3B142BA6D801A252F823F000BF37
:10547000C95500003756000097560000C35600007B
:10548000B7530000B7530000B7530000D3560000D5
:10549000B7530000B7530000F3560000B7530000A5
:1054A000B7530000B7530000B7530000B7530000D4
:1054B000B7530000B7530000B7530000B7530000C4
:1054C000895500005A3B092B3FF675AF092B3FF673
:1054D00072AF01A252F823F00B590000B75300003D
:1054E000B7530000B7530000B7530000BD58000089
:1054F000F9580000B7530000B753000043580000AC
:105500008B8B0300EC5F0300180200205F8B03000D
:10551000B08B0300BC6003008F0A00209861030079
:10552000C38B0300E98B0300600030009D0A00205C
:10553000FD8B03005E620020606200205D6200203F
:10554000D46100205F620020D861002063620020E7
:105550001189030062620020742300205B62002036
:10556000802300200F8C0300700C00207823002083
:10557000DF8C03004362002042620020881200207A
:10558000ED8C0300D2610020B24D2B78002B3FF44C
:1055900012AFDFF8C4824046FAF71EFF422388F8B4
:1055A00000303A2388F801300D2308F8003008EB6A
:1055B00000030A225A70821C92B24146002003F076
:1055C00007F800232B70F6E6A44D95F80080B8F19B
:1055D000000F7FF4F0AE41464FF40C72A04830F05B
:1055E000DFFA4FF67C43A4F86C30A4F8DC30A4F862
:1055F0004C31A4F8BC31A4F82C329A4B9A49A3F848
:1056000000809A4B83F80080994B07F13C00C3F867
:1056100000804FF00108C7F8408007F025FF0146E1
:1056200018B194482BF009F9C5E693482BF005F919
:1056300085F80080BFE6894D95F80090B9F1000F1C
:105640007FF4B9AE4FF40C724946854830F0A8FAA1
:105650004FF67C43A4F86C30A4F8DC30A4F84C314D
:10566000A4F8BC31A4F82C327E4B7F49A3F80090FB
:105670007E4BC7F840904FF0010883F800807C4BC8
:1056800007F13C00C3F8009007F0EEFE0146002849
:10569000C7D17A48CAE7714D2B780BB108F008F8EA
:1056A000774B01221A702B78002B3FF484AE6E49A1
:1056B00007F13C0007F0D8FE014600283FF47BAE1E
:1056C000AFE7664D2B780BB107F0F2FF6C4B002271
:1056D000E8E7307AF37A327B717B0290707A01903E
:1056E000B07A009067482BF0A8F8674B01221A7037
:1056F00061E66648DFF898812BF09FF8642598F8FA
:105700000030002B37D1634B1B78002BFDD15E4B53
:105710001B7823B160496148702230F019FA504972
:105720005F48DFF880914FF40C7230F011FA5C4B57
:105730005D487B60C8461D460021CA464FF47A7B0F
:10574000B5F96C2039602BF078F8396828F802BB7D
:1057500001310529544805F17005F1D10023AAF85B
:1057600000304F4BB3F96C3013F5617F0AD14F48CD
:105770002BF063F81FE6A420002129F0B9FB013DBE
:10578000BDD1C0E701257B68B3F9DC2012F5617F4C
:105790001CD14748DFF81CB129462BF04EF84FF0DA
:1057A00000084FF0700A39F8022B052A3FF603AEC5
:1057B0003B4B0AFB02334146B3F96C30584608F1C3
:1057C00001082BF03AF84545EDD1F4E549464FF094
:1057D0000008702031F8023B052B09D9314B23F822
:1057E00018507B6801357033052D7B60CBD1D0E735
:1057F000DFF8ACC000FB03C3B3F96C30934208F18F
:1058000001031ADCDFF89CA04FEA430B07F15002BA
:1058100002EB4303ABF10201A5EB08025200514435
:1058200018463A6030F094F93A682AF81850014660
:105830000AEB0B0030F08CF9D3E79D429846C9DAA9
:10584000CFE70A4A00231370044A137007F030FFB1
:1058500019488DE75C6200206362002043620020EB
:1058600088120020D261002089410000426200209D
:105870007C2300201B8C03003E8C03004E8C030015
:105880005A6200205E8C0300416200208D8C030070
:105890004062002044620020780F0020080F0020A2
:1058A00058100020C86100209D8C0300AF8C0300BD
:1058B000B88C0300C58C0300D48C0300DFF858C0FB
:1058C000BCE80F0007F150050FC5DCF800302B6075
:1058D000012507F11801114B0095022207F1500034
:1058E00007F05AFA014608B10D489BE60D482AF028
:1058F000A4FF0D4B1D705EE507F0C8F8054610B11A
:1059000001460A488EE60A48F1E74FF0804301223B
:10591000C3F800254FE500BFBC6003009861030099
:10592000C38B0300E98B03003F6200208B8B0300D5
:10593000B08B030010B5094C0A44914200D110BD50
:1059400011F8013B584003090001E35CC0B2434039
:1059500018091B01205CDBB25840EEE7268D0300DE
:105960002DE9F04F95B000AF8A467A62BB610446DC
:1059700058B9A849A84AA9484FF465732BF0F1F823
:105980004FF46571A4482BF0E5F8BB6F90F802B0B6
:10599000C3F3C0033B6141B9457800780BEB80004D
:1059A0002044554517D8A0EB040AE3787B61BBF18E
:1059B000000F02D0BB6FD80716D47B6953BB7B6A3C
:1059C0001BB1BA6951462046984755462846543778
:1059D000BD46BDE8F08F461C3046FAF7FDFC0130AD
:1059E00030440AF1010ADCE723783B629B00FB604C
:1059F0003B6A6268FA6104EB83097B6A002B40F022
:105A0000FF805546C84609EB0B0A0026C24551D116
:105A1000D94413E0BB6F9907D1D523783B629946EF
:105A20009B00FB606368FB617B6A04EB8909002BC8
:105A30007AD15546BBF1000F4FD15E46BB6F13F0D4
:105A4000050F7B6909EB430ABB6F03F002030CBF30
:105A50004FF0020B4FF0010B7B62D145B6D019F825
:105A6000021B19F8013C54F823806D4B984502D372
:105A70006C4B984538D33B69002B42D0F8692AF02B
:105A80003CFE00283DD0E8468AB06A46664B53612A
:105A9000FB69C2E906314FF400731384634B42F88B
:105AA000103F634800234FF4125101F061FF023DA3
:105AB000C546D2E718F8013B54F82300FAF78CFCEE
:105AC000FB6F01303BB1D7F880309E423EBFFB6F89
:105AD00023F816000136054498E7BB6F13F004065F
