:1000000080840020A9650000A57A02007D650000BB
:100010007D6500007D6500007D650000000000003A
:1000200000000000000000000000000089610000E6
:100030007D65000000000000256100007D65000076
:100040004562000025C701004562000045620000CE
:100050004562000045620000456200004562000004
:1000600045620000456200004562000045620000F4
:1000700045620000456200004562000045620000E4
:1000800045620000456200004562000045620000D4
:1000900045620000456200004562000045620000C4
:1000A00045620000456200004562000045620000B4
:1000B00045620000456200004562000045620000A4
:1000C000456200004562000045620000913B02006D
:0C00D0004562000045620000456200002F
:0400DC00FFFFFFFF24
:1000E00053B94AB9002908BF00281CBF4FF0FF319F
:1000F0004FF0FF3000F00CB8ADF1080C6DE904CE04
:1001000000F008F8DDF804E0DDE9022304B07047F0
:10011000704700BF2DE9F04786468C460846089E8A
:10012000154674461946002B40F0C2808542B2FA4B
:1001300082F245D94AB1C2F1200300FA02FC2EFA3C
:1001400003F3954043EA0C0C94404FEA154EA8B2D5
:10015000BCFBFEF8230C0EFB18CC08FB00F943EAAD
:100160000C43994528D9EB1808F1FF3704D299457B
:1001700002D9A8F102072B44A3EB0903A4B2B3FBF5
:10018000FEFC0EFB1C330CFB00F044EA0344A042CF
:1001900014D92C190CF1FF3304D2A04202D9ACF1CE
:1001A00002032C44241A43EA07401EB1D440002322
:1001B00034607360BDE8F0874746DDE76346F1E7EA
:1001C00092BB431B01214FEA154EAFB2B3FBFEFCBD
:1001D000200C0EFB1C330CFB07F840EA0343984548
:1001E00062D9EB180CF1FF3004D2984502D9ACF17A
:1001F00002002B44A3EB0803A4B2B3FBFEFC0EFBEE
:100200001C330CFB07F744EA0344A7424ED92C19D0
:100210000CF1FF3304D2A74202D9ACF102032C4403
:10022000E41B43EA0040C0E7C2F1200320FA03F1D7
:10023000954090402EFA03F303434FEA154EAFB2B8
:10024000B1FBFEFC0EFB1C10190C0CFB07F841EA7D
:100250000041884504FA02F422D969180CF1FF30F4
:1002600004D2884502D9ACF102002944A1EB08016F
:100270009BB2B1FBFEFC0EFB1C110CFB07F743EA23
:1002800001439F420ED9EB180CF1FF3104D29F427B
:1002900002D9ACF102012B44DB1B41EA004192E799
:1002A0006046E3E76146F7E76046A3E76346B7E7E2
:1002B000834206D916B9002108467BE7C6E900E06B
:1002C000F9E7B3FA83F78FB9834201D3724508D8AF
:1002D000BEEB020460EB030301209C461EB9002123
:1002E00068E73846FAE7C6E9004CF8E7C7F1200CA2
:1002F000BB4022FA0CF41C432EFA0CF120FA0CF34A
:10030000B84001434FEA14490EFA07F5B3FBF9F878
:100310001FFA84FE09FB18300B0C08FB0EFA43EAA7
:1003200000439A4502FA07F240D9E31808F1FF307A
:1003300004D29A4502D9A8F102002344A3EB0A0390
:1003400089B2B3FBF9F809FB183308FB0EFE41EA4A
:1003500003418E452CD9611808F1FF3304D28E4534
:1003600002D9A8F10203214443EA0040A0FB02980D
:10037000A1EB0E014145CE46434602D306D14D4581
:1003800004D2B9EB020E68EB04030138002EA6D0AC
:10039000B5EB0E0261EB030101FA0CFC22FA07F344
:1003A0004CEA0303F940C6E9003198E74046C5E747
:1003B0004346D9E710F8012B11F8013B012A28BF69
:1003C0009A42F7D0D01A7047034611F8012B03F870
:1003D000012B002AF9D17047034613F8012B002A9C
:1003E000FBD1181A01387047F7B53E4DD5F81431D6
:1003F000996811F0010124D101AA40F6034007F0E9
:1004000005F8044600286AD1019CE3681B78ABB963
:1004100008F018FCBFF35B8FD5F88830BFF35B8F13
:1004200005F1880203F00903BFF35B8F52E8001F58
:1004300042E800300028F9D1BFF35B8F204621F05D
:100440007DF801AA002141F2030006F0DFFF044617
:10045000002844D1019B244EDA68D2F80100D2F87A
:10046000051003C6184621F069F8214601AA41F299
:10047000010006F0CBFF044688BB0198C3685A7898
:1004800085F824205A88EA841A7985F82520B3F85B
:1004900007202A85B3F805306B8521F04FF82146F7
:1004A00001AA41F2020006F0B1FF0446B8B9019F6B
:1004B000FA68531C413218685968344603C408333B
:1004C00093422646F7D1094827F06EFB384621F0C3
:1004D00035F895F8303058060AD46FF012042046EB
:1004E00003B0F0BD000000202C00002034000020EC
:1004F00001AA002142F2030006F088FF044600280A
:10050000EDD1019BB24EDA68D2F80100D2F80510A5
:1005100003C6184621F012F8214601AA42F2020051
:1005200006F074FF04460028D9D1019CE368B3F8B3
:10053000012091B249B1D97839B1A5F8BC20DA7857
:10054000114606F128002BF0D4FE204620F0F6FFDD
:1005500095F8306016F0200618D1022140F66D4063
:1005600006F0F8FE0446002800F0C68002210C3098
:100570002AF065FF0123037046702146324640F69B
:100580006D4006F043FF04460028A8D195F850308E
:10059000190712D501AA002142F21C0006F036FF0D
:1005A000044600289BD10198C368D3F80120D3F8F2
:1005B0000530C5E9262320F0C1FF95F890309A0652
:1005C00024D50DF10201684627F006FE04460028F6
:1005D00085D1042142F2240006F0BCFE0646002824
:1005E00000F08A8004210C302AF029FFBDF8003089
:1005F0000380BDF8023043802246314642F2240097
:1006000006F004FF044600287FF469AF95F89030A7
:100610005B0610D501AA002142F22A0006F0F6FE80
:10062000044600287FF45BAF0198C3685B7885F8C7
:10063000D83020F083FF082142F2010006F08AFE44
:100640000446002858D008210C302AF0F8FE95F80E
:100650009010604B11F0020F02465F4808BF184629
:1006600095F891308F0648BF40F0400013F0090F15
:1006700095F8563018BF40F4006003F00603CE072B
:1006800048BF40F01000062B08BF40F4C0700021A6
:1006900027F012FC2146002242F2010006F0B6FECD
:1006A000044600287FF41BAF95F83030B5F8BC1035
:1006B000980624D4C9B901AA41F2050006F0A6FEA5
:1006C000044600287FF40BAFB5F8BC30019C4BB951
:1006D000E368B3F80120A5F8BC209A883F4811468A
:1006E0002BF007FE204620F029FF082140F60140AC
:1006F00006F030FE044638B96FF06804EFE60029D2
:10070000F3D16FF00404EAE608210C302AF097FEDA
:1007100095F89030D907024652D431484FF0005135
:1007200027F0CAFB2146002240F6014006F06EFE8B
:10073000044600287FF4D3AE014601AA4FF60140DB
:1007400006F064FE044620BB019820F0F7FE214627
:1007500001AA4FF6024006F059FE0446C8B90198B6
:10076000C368B3F80130A5F8753020F0E7FE95F8BE
:1007700075305B070DD501AA21464FF6034006F000
:1007800045FE30B90198C3685B7885F8743020F075
:10079000D5FE27F0D3FF044600287FF4A0AE09F071
:1007A00057FB044600287FF49AAEEB79002B3FF408
:1007B00096AE08210B4827F0EFFA07F0E5F88EE631
:1007C00001A1D1E90001ABE7908800020080002080
:1007D000900000200E1207002E120700C00000201B
:1007E00010880002880000202DE9F843D0E90D357B
:1007F000D0F830805C193034A0450F46164619D821
:100800001D4DA3FB05011AA3D3E90023FFF768FCE4
:100810000346A4EB0800A0FB050123F07F4414A3CA
:10082000D3E90023FFF75CFC20F07F403C603060A0
:10083000BDE8F883DFF840900DA3D3E90023A8FBBF
:100840000901FFF74DFC044605F1300008A3D3E988
:100850000023A0FB0901FFF743FC24F07F4420F0B4
:100860007F403C603060BDE8F88300BFAFF300809C
:100870008D49FD1A0700000000CA9A3B00000000E5
:100880002DE9F04F8DB01D46179C9DF85890636C74
:1008900080460E4617464BB1B4F87E301BB1B4F813
:1008A0007C209A422AD2D4F8802052BB4FF6FF73A4
:1008B0009D421ED023780133DBB22370002B00F061
:1008C000AC806349634B81F80A9004F11C0000225C
:1008D000C860C1E900870D819960012011460CF0C4
:1008E00057FD002840F08780636C13B1204614F058
:1008F000ADF894F8240010F001070CD00DB0BDE85D
:10090000F08F216F40F27123A1FB0313914273F129
:100910000003CBD3F2E704210BA81CF0F1F90B9BE9
:100920004D490097A1FB03214C4A0694CDE903777A
:10093000CDE9017738465F1A01EB5701A21A484FFB
:100940009208A7FB0272090AD20840F2471707FB78
:1009500011330232434905910133D2B201210B9385
:100960000DF09CFF10F0FD0F0CD03F4A3F4940486E
:1009700040F2937325F06CFB404080F311884FF0F8
:10098000030002DFD4F88080DDF82C90B4F87C708E
:10099000B8F1000F4FD0002F4DD0236F40F27122DD
:1009A00002FB03FA334A05FB0AA3A6FB02014FF040
:1009B000070B09930BFB061123A3D3E90023FFF7D1
:1009C0008FFB099B2B4A1E18A9FB02010BFB091187
:1009D0001DA3D3E90023FFF783FB50443044804537
:1009E00088BFA8EB060605F101058CBFC4F880603E
:1009F000C4F880A020E01C4A1F491D4840F644135B
:100A000025F026FB404080F311884FF0030002DF01
:100A1000636C002B7FF46AAF6BE7134A17491448E5
:100A200040F6221325F014FB404080F311884FF06C
:100A3000030002DF45E701352F44A4F87C700DB0B8
:100A4000BDE8F08FAFF3008000CA9A3B00000000C1
:100A5000CC4200201007002021F1D490F842002061
:100A60003BA8833A552B010048DC020058DD020008
:100A70009CD802008D49FD1A20DA020054DD0200E4
:100A8000002900F020812DE9F04F8FB0002840F0C0
:100A900011818E4C164694F8842012F001071D46F1
:100AA00040F0DA8194F82500FF2300F0030084F879
:100AB00027301BF0EFF894F88400430700F1EA8038
:100AC00094F8352094F8293004EB820204EB830378
:100AD000976BD3F82C80002F00F0C5803946404634
:100AE00013F07CF8002840F0EB8098F8003013F009
:100AF0000E0F40F0EF80236A002B40F0E0800EF0F4
:100B00001DFE8146002800F010820EF023FE0A90A0
:100B1000002800F0078215F095F88346002800F0C1
:100B2000FE81D0F888004FF6FF720BF11C03ABF882
:100B300028200B93002800F01B820BF17C020BF1A4
:100B400078010CF0A1FB9BF88E209BF8761022F028
:100B500007028BF88E20002262F3C3018BF8761017
:100B6000CBF88820ABF88C2098F8002002F00F0218
:100B7000072A08BF94F825109BF876200CBF490976
:100B8000012161F3020261F306128BF876209BF8D3
:100B9000392002F03F0262F07F028BF839209BF887
:100BA000772061F302028BF877209BF83C204FF00E
:100BB000000A22F007024FF4C0218BF83C20CBF84A
:100BC0008C115846CBE912AAABF832A0CBF82EA074
:100BD0008BF83BA0CBF850A0ABF892A1ABF888A162
:100BE00017F0A6F98BF850A1CBF8549115F0B6FA8E
:100BF0009BF8981160F302018BF8981115F0B4FA84
:100C00009BF8981160F3C5018BF898119BF884113B
:100C10006AF341018BF8841198F8002002F00F026A
:100C2000072A0ABF94F8251001214909584615F0F2
:100C3000B7FE0BF1D40016F035FF0A9BE3660022E5
:100C40000BF11C03C4F868902362CBE90522CBF8B2
:100C50001CB08BF800201CF05DFB00283FD012F088
:100C600063F903202CE098F8003003F00F03072B02
:100C700025D017481CF0ECFCC0B2002840F055818C
:100C800094F8353004EB83039F6B04233B700623F9
:100C90007B7023E7C0F3C0003A4604F185011BF0E6
:100CA000BFF9FF2884F827003FF40AAF38461BF04D
:100CB00037F805E710F0FAFA002800F0C9800C2098
:100CC0000FB0BDE8F08F12F071B900BFF8420020FC
:100CD0002C43002003F00F03072B00F0548110F089
:100CE000E5FA002840F02381206400252E4694F880
:100CF000242094F82530A4F87E50C2F3420201214A
:100D000000250DF13300C4F880608DF83320C3F363
:100D10008206A4F87C500CF053FC0246002800F038
:100D2000F78033463946404612F00EFABA49BB4BBB
:100D30002570A0FB0101C0184FF0310341F10701FC
:100D4000A360C4E90555B2A3D3E900236560E5605B
:100D5000FFF7C6F9B4F8706020610DF0E5FE00F110
:100D60000E07002E00F0FA8094F82430D4F810809A
:100D700065F3000313F0010584F8243040F0098185
:100D8000D4F84490B9F1000F00F09480D9F80090A5
:100D900008F102033B440DA948460D9300F0B0F959
:100DA000236F824640F27122294642F6DC30E3FB93
:100DB000020140F2E2420023FFF792F9A9F83C0059
:100DC0000D995246484600F0E3F90546002840F0E8
:100DD0009F80934A02900DAB9248089308F2471304
:100DE0000694CDF8108091211360A6FB000301FB4F
:100DF00006318D4B07938D4B05934FF6FF73099288
:100E00000226039382A3D3E900230D96FFF768F926
:100E1000032101903B463246009528460DF0DEFC4A
:100E20000DA90EF057FD002872D199F84E3043F00D
:100E3000010389F84E3094F88430002043F0010318
:100E400084F8843014F08EFA10B901201AF004FFEF
:100E500000200FB0BDE8F08F10F028FA0028F7D07E
:100E600094F88430D9077FF52AAF94F8352094F8A8
:100E7000293004EB820204EB8303916BD86A12F0F1
:100E8000ADFE00287FF41CAF236C002B3FF417AF9E
:100E90001A7902F0FF014AB942F2107206FB02F21F
:100EA000A4F87C10A4F87E50C4F880201B79002B95
:100EB000CED004E75A4A5B48069408F24713CDF8AF
:100EC0001080CDF8089091211360A6FB000301FB70
:100ED0000631554B0793554B05934FF6FF73099217
:100EE00002260DAD03934AA3D3E900230D9608957E
:100EF000FFF7F6F8032101903B463246CDF800900B
:100F000048460DF06BFC29460EF0E4FC002892D018
:100F1000236A002B3FF4D3AE12F006F8CFE60A980E
:100F20000EF01EFC48460EF00FFC0720C8E60EF03F
:100F300005FC814608B30EF00DFC002861D00023AB
:100F4000C0F80090037194F824302064DB073FF56B
:100F5000CCAE42F2107303FB06F6C8E698F80050D8
:100F600005F00F05A5F10105B5FA85F56D09FBE65C
:100F70000BF18000CBF88800DFE5236A002BD4D08A
:100F800011F0D2FFD1E798F802305A067FF5A7AEEC
:100F9000B1E5234B099300200DAA186002250892A1
:100FA000214E224A05920321CDE902000694CDF894
:100FB0001080CDF804803B46009007962A460D9598
:100FC0000DF00CFC0DA90EF085FC0028A0D10DAA97
:100FD000174908924AF2D83200920591CDE90300F0
:100FE0000321CDE9010007963B46069401220D95A9
:100FF0000DF0D8FB0DA90EF06DFC00283FF41BAFDF
:1010000086E7236A002B8DD011F08EFF8AE700BFA0
:101010008D49FD1A0700000000CA9A3B8C49FD1A51
:10102000EC420020002AE784BDEC000081080000AB
:10103000C52A010000000000F0B590F8243090F8B7
:1010400025708BB0C3F342030D46044601210DF118
:10105000230016468DF823300CF0B2FAC7F382074E
:1010600002463B463146284612F06EF81E491F4A9A
:10107000A0FB0131981841F1070119A3D3E900231E
:10108000FFF72EF823699842054622D21B1A002248
:101090000192174A02930221164B0991A21ACA40E3
:1010A000A3FB0232D20800230A4409AE124905917B
:1010B000CDE903330321D2B20696009318460DF012
:1010C000EDFB31460EF006FC38B9256100200BB06F
:1010D000F0BDFBD9C21A0023DAE70C200BB0F0BD3B
:1010E0008D49FD1A0700000000CA9A3B8C49FD1A81
:1010F000F84200203BA8833ABDEC0000000000004D
:101100002DE9F04182B004461F4E204F884612F070
:10111000D1FE072500236360E36029463346E0FBE8
:1011200007313122A260184615A3D3E90023FEF748
:10113000D7FF94F8313020F07F4004EB8303206127
:10114000596B5F231A46204612F074FE2946E0FBD5
:1011500007610BA3D3E900233046FEF7C1FF01A9C5
:1011600020F07F4019F062FF18B9019B0233C8F8E4
:101170000030002002B0BDE8F08100BFAFF3008076
:101180008D49FD1A070000008C49FD1A00CA9A3BE0
:101190002DE9F04700268CB08846C0E90566204955
:1011A00006701746502204460CF04EF80546A08FF4
:1011B0001C4940F2E24202FB00F002230B93A0FB29
:1011C000010115A3D3E90023FEF78AFF0DF12C0AD4
:1011D000CDF820A00694194623691F44124B0793AB
:1011E000124B05938146002310464FF47A72CDE9E5
:1011F0000367FEF775FF0335EDB2CDE90190434675
:101200002A460096304603210DF0CCFA51460EF0E6
:1012100061FB0CB0BDE8F0878D49FD1A07000000A6
:10122000C843002000CA9A3BBDEC0000F13E01001B
:101230002DE9F04FA1B00D461E4640F201232A9938
:101240001092AB432B9A0E9104460F9200F09381BB
:1012500094F8293004EB830305F4007AD3F82C903A
:1012600099F8007007F00F07072F10D0BAF1000FA0
:1012700004D10C27384621B0BDE8F08FD6F8012004
:101280003178204621B0BDE8F04F12F0FBBC99F850
:10129000023013F03F020A921CBF99F803200A9211
:1012A00009F104020B92BAF1000F02D07F2B00F279
:1012B00082810E9904F128001CF086FA99F800202A
:1012C000037802F00F0223F03F03134302468346E4
:1012D00002F8023B99F802309BF802109B0963F375
:1012E00087118BF80210616C04F11C004FF00008AC
:1012F000002900F0B5824B7D01EB830398690B68F0
:101300001493C3780C900230139003F001001290F4
:1013100001F114000F99119208931CF055FA8046C0
:101320009BF8000098F800100C9B119A00F00F0039
:1013300021F03F01014388F80010197898F8000067
:10134000C1F3801161F3861088F800001978C0B2EB
:10135000C90961F3C71088F800009BF8021098F8DB
:1013600002004FF001038DF824300A9B890961F3D4
:10137000871003F0010115F001030D9388F80200B6
:10138000089B40F00681002900F04B8199F800107D
:1013900098F800C00D98C1F3801161F3861C88F89D
:1013A00000C09BF8001060F386118BF8001009F163
:1013B0000A010B911299002940F048810C990431DF
:1013C000089103F002011D910A99890740F10881F3
:1013D0000B9998F8000006310B9199F80010C90993
:1013E00061F3C710414601F8100B4FF003008DF870
:1013F00024009BF800006FF3C7108BF8000003F087
:10140000020010B10898063008900A9810F0080001
:10141000179002D00B9802300B90881C0D9015F09D
:10142000080000F0DB8002203070D6F80100169032
:10143000C6F801100536099840F0080C13F00800B2
:101440008DF824C0189002D00898023008900A98AD
:1014500010F01000199002D00B9803300B904FF051
:1014600018008DF854000BF10900119003F01000E2
:101470001A90E80640F1A180881CC6F801004CF0E3
:101480001000099003203070053603F0100000288A
:1014900000F0A08000201B90089803300890099865
:1014A000C00644BF05310D910A99490610D50B9924
:1014B00001310B9194F8251001F01C01102900F066
:1014C000F1814FF058018DF854100BF10A01119180
:1014D0005B0606D5089B01330893099B43F0400344
:1014E00009939DF82430D9B213F040030A911C935C
:1014F00002D00D9B01330D93119B9B1ADBB2022B83
:1015000003D80BF1030311930123089A1399501A7E
:10151000C0B2022803D80C9A0332089201200C9A18
:1015200092F801C08445C0F078810D9908F102025B
:101530008A1AD2B2022A03D808F103020D920122BC
:10154000BAF1000F00F08680089DD6F80110C6F8A9
:101550000150ACEB00003578C0B230708A460536D9
:10156000002D40F06881002900F00282AA46109503
:10157000AC46284683E0B74AB749B84840F2ED5335
:1015800024F066FD404080F311884FF0030002DF35
:101590005EE616F801EB98F800C06EF3861C88F83A
:1015A00000C09BF800C06FF3861C8BF800C00029B8
:1015B0003FF400AFFBE612275CE61098C0063FF54B
:1015C00064AF03F0100028B14CF0100009900898A7
:1015D0001B9061E703F010001B9060E716902AE76C
:1015E0000D9808F10A0100287FF403AF03F0020010
:1015F000002800F026810C9998F800C00978C909E4
:1016000061F3C71C41464FF0030001F810CB8DF881
:1016100024009BF800C00D9860F3C71C8BF800C035
:10162000F0E61299002900F0F8800C9998F800C0B3
:1016300009780D98C1F3801161F3861C88F800C009
:101640009BF8001060F386118BF800100C990A319A
:101650000891B6E66D0500F1E2801099890500F168
:101660008D81ACEB00050899CDF840A0D446EDB2D1
:1016700005EB0C0EBEF11F0F28463FF7FBAD1044E3
:1016800060445F2800F332819BF802008BF8013040
:10169000013B63F305008BF8020098F802300D9EC1
:1016A000501E60F3050388F802300AEB05031A4464
:1016B00088F8012030462A462BF0D7FA109B23B138
:1016C0005246194670192BF0C2FA98F802309F065C
:1016D00000F0A180159B5E0640F1E9800B9A1199FC
:1016E00012F8013C01F8013C531E0B934B1E119361
:1016F000199B13B10B9B033B0B93119E94F8253060
:1017000016F8032C6FF3050206F8032C5D091BF095
:1017100051FE32288CBF0020012095FAA5F3002D40
:10172000B3FA83F308BF4FF0FF335B0106F8013CC7
:1017300016F8033C60F386136FF3C71306F8033CF7
:10174000002306F8023C1A9B13B1089B033B089345
:101750000A9BDD0602D50D9B033B0D931B9B23B11A
:101760000D98194603222BF080FA179B13B10B9B9F
:10177000023B0B93189B13B1089B023B0893169BEB
:10178000002B00F00281169A537812781B0203F4A2
:1017900070631A431198D1B200F8051C94F87A309E
:1017A000C3F303031B0103EB122300F8043C0D9861
:1017B00000F8021C94F87A30C3F303031B0103EB17
:1017C000122300F8013C0A9B9C077FD4821E0A9BCF
:1017D000D8070BD5129B002B00F0E880089B063B36
:1017E000196842F8061C9B8822F8023C9BF80230DC
:1017F00099061CBF9DF854308BF8033098F80230DE
:101800009A061CBF9DF8243088F80330149B93F887
:101810004E30DB0776D400272CE51F272AE596F803
:1018200000A0D6F801101091ACEB00000899C5B2E9
:101830000536D4461CE74FF0000CCDF840C0E24618
:1018400016E79BF800C00D9860F3C71C8BF800C02A
:10185000DBE500BF1CDE020078DE02009CD802003F
:10186000089212F0D3FE089A1490002800F0B0807D
:10187000DDF850E0CDF848809EF831300EEB830360
:101880000121586B0C9084461CF8023BCDF84CC0EB
:1018900003F03F034170037080F803800EF11C01D8
:1018A000434635E5099941F04001099110E61C9B3A
:1018B000002B3FF41DAF089A0D9912F8013C01F876
:1018C000013C531E08934B1E0D9311E71D9B002BEB
:1018D00068D0089B063B08930D991A6841F8082CBC
:1018E0009B8821F8043CA1F1080270E7A2F15F0394
:1018F00053442B44D945337065D00C9B98455DD03B
:101900004527B7E4149C204612F0D4FA3C4A3D4BDC
:101910000721E0FB0231184637A3D3E90023FEF785
:10192000DFFB256920F07F44AC4242D22E1B00250C
:10193000149F35490223502238461F930BF084FC34
:10194000002332490195C21C1FAD0591CDE9033337
:1019500003210296D2B20093184606950CF09EFF22
:1019600029460DF0B7FF00287FF483AC3C6152E7B5
:101970000899CDF840A00546D44679E65046CDF802
:1019800040A051465546D44679E694F87A3020492D
:1019900003F00F0331F81320501C21F81300C2F399
:1019A0000B02F7E60B9B063B0B9395E70B9B063B65
:1019B00016E77FF630AF651B0026B9E70F9A636C18
:1019C00012785A759CE70E9B1B7884F8293094E7AF
:1019D000D9457FF44FAC0F4A0F4910484FF4C46308
:1019E00024F036FB404080F311884FF0030002DF03
:1019F00040E400BFAFF300808D49FD1A07000000EE
:101A000000CA9A3B8C49FD1AC8430020BDEC000077
:101A1000A44300201CDE0200C8DE02009CD80200A5
:101A200070B590F803C01CF0010F14BF00F10A0458
:101A3000041D1B481CF0020F15461E464FF00702FE
:101A4000A1FB000318BF063402FB01311CF0080F94
:101A500011A3D3E9002318BF0234FEF741FBAD1BED
:101A600010492844A1FB00310D09490C04D00E4B4C
:101A7000A3FB003001214509A2782078657022F08F
:101A80001F02C5F3042361F3C71013432070A37032
:101A9000204670BDAFF3008000CA9A3B00000000F2
:101AA0008D49FD1A89888888B5814E1B0000000089
:101AB00070B5234C9DF810E094F846C01CF0020F5E
:101AC00036D1460816F0040532D149B363F3830CCE
:101AD000400194F82030A1864FEACE0E0EF0180E89
:101AE00000F0200040EA0E0023F03803184394F879
:101AF0002C3084F82000134884F846C066F30203B3
:101B000084F82C309121A2FB000301FB02310AA3CF
:101B1000D3E90023FEF7E4FAC4E90E00284670BDBD
:101B200094F82C3065F3020384F82C30284670BDFD
:101B30000C25284670BD00BF8D49FD1A0700000026
:101B400080190020002AE7842DE9F04F90F84630F4
:101B500090F820204C4DDFF834B16FF300030446B9
:101B600000F12E01C3F3800060F386128DB084F87B
:101B7000463084F820200DF02DF894F82020A38E14
:101B80004348E46102F07902002784F82020912183
:101B9000A3FB0002C4E90577277001FB032138A3EA
:101BA000D3E90023FEF79CFAE26B3A4B6760651BB2
:101BB000A3FB053502F10E039842C5F3071598BF44
:101BC0003A46B8464FF0020AE76005EB45078CBF7E
:101BD00019460146A26307FA0AF73122A260216181
:101BE0004BF8071006460CF09FFF0DF12C095F44DF
:101BF0000997CDF820900694CDF80C80A38ECDF8EF
:101C00002CA000F10E0722489121A3FB000201FB4A
:101C1000032123690493204B0793204B059318A3BA
:101C2000D3E90023FEF75CFA104619464FF47A72A6
:101C30000023FEF755FA0535EDB2CDE90160032129
:101C40003B462A46CDF8008040460CF0C7FD494689
:101C50000DF040FE60B994F8463043EA0A0384F878
:101C6000463011F073FE38B100200DB0BDE8F08FA2
:101C70000C200DB0BDE8F08F504619F0EDFFF3E7F2
:101C80008D49FD1A07000000801900204044002003
:101C9000002AE784398EE338BDEC0000694C01006E
:101CA0002DE9F04F0B79062B8FB00C46064612D06B
:101CB000092B00F09B80A84AA849A94840F2451387
:101CC00024F0C6F9404080F311884FF0030002DF92
:101CD0000FB0BDE8F08FD1F808A0DAF808305BB19A
:101CE0009D4AA0499E48902324F0B2F9404080F3D9
:101CF00011884FF0030002DFDAF80090484613F035
:101D000005FBA37E2660002767F38613A37694F86D
:101D10002130E760002B5FD0053001225FFA80F8A8
:101D200004F1220E3D4639460B9294F8222090068B
:101D30004ED094F9230094F823C00028C0F23681D5
:101D40001CF0010F14BF04F12A0004F124001CF060
:101D5000020F18BF06301CF0040F18BF01301CF032
:101D6000080F18BF02301CF0100B1CBF8346033055
:101D70001CF0200F18BF12301CF0400F18BF0130AC
:101D8000C2F30502A0EB0E000132D2B2C0B2824211
:101D900038BF02469A423ABF9B1ADBB20023BBF11E
:101DA000000F00F084809BF802009BF801C0020243
:101DB00002F4F85252EA0C0279D0002949D0002DE1
:101DC00000F0FF81AA8E13449BB2AB86A38377E019
:101DD000013BDBB2002D41D1A383214630460DF0FB
:101DE000C5FC0FB0BDE8F04F0DF0CABC8F685E4B6C
:101DF0003D689D426CD1D5F828A0BAF1000F00F0E3
:101E00009E805949382208460BF01EFA00F1060858
:101E10005FFA88F8DAF8000013F092FA7A7902F0A3
:101E20000702012A814651D0022A30D10723A17E20
:101E3000237100200B4660F38613A37694F82130BB
:101E40002660E06053B10B92C1F3C00104F1220E91
:101E50006BE73F2840F2BF80002DBDD0AA8E13440F
:101E60009BB2AB86A383B9F1000F4CD099F84630F2
:101E70002A6BDB0700F19E80D460AB6A2C63002BD9
:101E80004FD028460FB0BDE8F04F13F027BB324AC1
:101E90003249334840F2031324F0DAF8404080F32B
:101EA00011884FF0030002DF0FB0BDE8F08F002D66
:101EB00064D0AA8E13449BB2AB86A3830029D2D0F0
:101EC0002B6B002B5ED0DC602C6301E70623AEE7B2
:101ED000D7F80880B8F1000F70D0D8F80050AB6A7E
:101EE0009F425ED01C4A21491D48D02324F0B0F8FF
:101EF000404080F311884FF0030002DFBA464746A6
:101F00004FF0FF0886E7144A1949154840F2E923C3
:101F100024F09EF8404080F311884FF0030002DF68
:101F2000A4E70D4A13490E4840F2113324F090F80B
:101F3000404080F311884FF0030002DFA1E7064A1A
:101F40000D490748BC2324F083F8404080F31188F2
:101F50004FF0030002DF54E7B4DF02001CD9020097
:101F60009CD8020010E00200784400202CE002001F
:101F7000ACDF0200F8DF020020E00200A3830029AA
:101F80003FF42BAFB24AB349B34840F2E51324F013
:101F90005FF8404080F311884FF0030002DF2B6BA5
:101FA00091E7BA4647464FF0FF0833E7002D3FF46C
:101FB00014AF58E72B6BA34285D189E6A44AA74901
:101FC000A548CD2324F044F8404080F311884FF019
:101FD000030002DF81E7002D00F0F580AA8E134494
:101FE0009BB240F271629342AB863FF63CAF2B6BE3
:101FF000002B00F00281DC60AB8E2C63A3839BF886
:1020000000203B79797962F305033B719BF802204C
:1020100001235209934063F30201797194F91A3054
:10202000002BC0F2EC80B9F1000F00F0F38099F8BA
:10203000463013F00103BDD1CAF808309BF90030D7
:102040007879002BACBF1E234FF49673BB609BF8CE
:1020500002A09BF801204FEA0A2A0AF4F85A4AEA39
:10206000020A9BF8002003FB0AFAACBF3E234FF4A0
:10207000A67312F0400F14BF32264FF4FA76784A56
:1020800006FB0AF6A2FB0626B60C06F1100203EBCD
:102090004203BB60012100F007001AF091FF4FF0EE
:1020A0000009626994F82110C5F804903123AB60EF
:1020B000C5F80C90A2F1300C7A790B9F07F003035E
:1020C0000B440933D900C7F3400321FA03F3ACEB07
:1020D000030702F003030933C2F34002DB00D340DD
:1020E000574403F5EA730344DFF878A13F1A5E48CA
:1020F0000721E3FB0A0154A3D3E90023FDF7F0FF16
:10210000BF1B20F07F4050A3D3E900232861A7FB29
:102110000A01FDF7E5FF4A4620F07F460221012033
:102120000BF002F9B8F1FF0F19D0CDE9009923693E
:102130003F3B42464846334401210CF0C7FB10F0B8
:10214000FD0F0CD0424A4949434840F2BF2323F0D7
:102150007FFF404080F311884FF0030002DF4449C5
:10216000382228460BF070F842492369CDE907155B
:102170004149CDE90515024629690096002006323D
:10218000CDE90301CDE901003F3BD2B201210CF0C2
:1021900009FB10F0FD0F0CD02D4A38492E4840F2B3
:1021A000CF2323F055FF404080F311884FF0030008
:1021B00002DF0122022110460FB0BDE8F04F0BF004
:1021C000B3B8A383DEE62E48CDE90C310BF00EF850
:1021D000DDE90C31054658B3838690F82030017054
:1021E000C0E9051161F3C713C1620163C061C0F8A2
:1021F00028A080F8203000F11C07EC62FCE6A37EEA
:1022000043F04003A376CAF808703B796FF3861356
:102210003B715DE50E4A1B490F4840F2562323F0FF
:1022200017FF404080F311884FF0030002DFFEE605
:1022300094F91A30002BBFF6D0ADA37E43F04003D3
:10224000A376CAE5AFF300808D49FD1A07000000B0
:10225000B4DF020040E002009CD8020024E002004B
:1022600083DE1B4300CA9A3B8C49FD1A54E00200EE
:1022700078440020BD550100C953010084E00200EC
:1022800074440020ACDF02002DE9F04F05468BB00E
:102290008B46012002219A4614461EF0E7FE0022DA
:1022A0000221814601200BF03FF839494FF4D072EA
:1022B00028460AF0C9FFC61DF6B2364B00953246D5
:1022C000012100200CF046FB10F0FD0F0CD0324A2B
:1022D0003249334840F62F0323F0BAFE404080F3E2
:1022E00011884FF0030002DF2E4BA4FB0348204669
:1022F00025A3D3E900234146FDF7F2FE0895069594
:102300002B690493284B20F07F47A7FB0331E01A89
:10231000264B07934FF00702254B059302FB07114D
:102320004FF6FE7368EB010103934FF47A720023BA
:10233000FDF7D6FECDF800B0CDE901705346324628
:10234000012100200CF02EFA10F0FD0F0CD0124AE3
:102350001249134840F6440323F07AFE404080F3CC
:1023600011884FF0030002DFB9F1000F02D10BB06A
:10237000BDE8F08F0122022110460BB0BDE8F04FFE
:102380000AF0D2BFAFF300808D49FD1A07000000AC
:10239000C8190020ED5B0100F4E0020054E00200E7
:1023A0009CD8020000CA9A3B8D49FD1A955B01003A
:1023B000A5AE0100000000002DE9F043046A228D63
:1023C0004FF6FF739A428DB000F088800546204694
:1023D00016F030F895F82C30012B00F00F81022B0D
:1023E00000F00281002B00F0E18094F85071002F82
:1023F00040F0FD80E68DB4F83080002E71D12A8D3A
:1024000008F101060023CDE90A33B6B2002A70D0E4
:1024100094F93930002BC0F248810023A4F88E31A2
:1024200095F82A30D90740F1EF800023A4F89231C3
:102430000DF127023146204615F0B6FD743000F04C
:102440004681B4F88C312BB1B34240F20D819B1B15
:10245000A4F88C31B4F888312BB1B34240F2FB8040
:102460009B1BA4F88831258E17B9A84500F0EA8097
:102470000135ADB294F8D13013F001065AD1DDE93F
:102480000A130A46002B40F0ED80002900F0DC80A2
:102490001E461846228DE4690694CDE9035707329B
:1024A000A74D0290CDE90016D2B20121002005957A
:1024B0000CF0F4F910F0FD0F10D00DF035FA844255
:1024C0000CD0A04AA049A14840F2155323F0C0FD0A
:1024D000404080F311884FF0030002DF0DB0BDE8EB
:1024E000F0832A8D46440023CDE90A33B6B2002A90
:1024F0008ED195F82A30DA0797D4B4F88E31002BB4
:1025000000F08280B34240F2FA809B1BA4F88E3127
:10251000B4F89231002B8BD09E4280F0DE809B1B62
:102520009BB20022062BA4F89231228600F2AC80E6
:1025300001277DE794F939206FF30003002A84F81E
:10254000D13077DB94F87600C0F3C00100F00700CB
:102550001AF034FDB4F86E20B4F86C30134403F272
:102560006E2303447A4A7B480721E3FB002110468F
:1025700071A3D3E90023FDF7B3FDDDE90A1320F0D1
:102580007F4220692261904235BF161A801A0020CE
:1025900000260A46002B7FF47DAF56EA010C7FF43B
:1025A00079AF002850D019461E4673E794F88E3054
:1025B00003F01803182B7FF418AFA18DB4F88A210B
:1025C0008B1D9A42C4BF931F5B1AB4F88611CCBF0F
:1025D0009BB21346994200F08C80A4F88631A4F88F
:1025E0008831A4F88C2100E73D2784F850713946E2
:1025F00020460DB0BDE8F04313F092BE0023A4F8CE
:102600008C31A4F88831F0E6B4F89231002B83D1F4
:10261000628DB4F8903140F2E24101FB02F242F2E5
:10262000107101FB0323013BB3FBF2F39BB2A4F84F
:1026300092316FE794F87700012100F007001AF05B
:10264000BFFC87E73D4615E7002D4BD0002611461D
:10265000304633461EE70023A4F88831204615F0A3
:1026600043FD00E7304615E70DF0C6F801460028A7
:102670003BD00023A4F88C31238DC3801B2303712E
:1026800000680DF083F8E5E694F939309342BFF61F
:10269000CFAEB8F1000F7FF44BAFD4F87C315A08BD
:1026A000DB0743D4C4F87C21C2E628460AAA0BA95A
:1026B00004F1D409FEF798F8484615F035FA18B336
:1026C000484615F031FA18B300232386A5E69DF895
:1026D0002710204613F024FE00E70821204613F0BF
:1026E0001FFEFBE6002FB1D1F8E60123A4F88C31E0
:1026F000B0E6B4F88C1100297FF477AE6FE73E2185
:10270000204613F00DFEE9E6FF2013F0C9FDD7E7E0
:102710000246D4E91E010AF0CFFD0028D4D194F876
:102720003C30580744BFA38D238676E642F0004232
:10273000C4F87C21FCE600BF8D49FD1A07000000AB
:10274000555B0100F4E00200C8E102009CD80200E1
:102750008C49FD1A00CA9A3B2DE9F04F87B0CDE9AC
:102760000423BDF8442003780292BDF84820BDF848
:102770004080BDF84C50468EB0F82E90B0F814B1A1
:10278000019104460392002B00F08E80013EB6B208
:10279000A368D4F80C71721B92B2002B009209DA74
:1027A000E168626823F0004391422CBF7F18BF1894
:1027B000A360FF1A009A638D13FB02F39BB2B3FB75
:1027C000F8F218FB02F080B283421FFA82FA5AD262
:1027D000C01A40F2E2425E4902FB00F0A0FB010198
:1027E00059A3D3E90023FDF77BFC20F07F40074489
:1027F000D94494F839304D44AD1B554440F2E2467B
:10280000DB09E58506FB08F552D1524A5249534887
:1028100040F6BA0323F01CFC404080F311884FF0CF
:10282000030002DF0026A946029BA385039BA4F8B0
:10283000903129462046A4F82A8015F0F1FB484B38
:10284000A18D2B44881DB3FBF5F39AB29042A4F8F6
:102850008A2102D2521A063A92B2019BA4F886212A
:1028600013B10023A4F892313B464A463146204634
:10287000FFF70AFD94F8843143F0010384F88431B2
:1028800007B0BDE8F08F08FB1231314840F2E24357
:1028900089B203FB01F1A1FB00012BA3D3E90023C3
:1028A000FDF71EFC3F1AA3E74E445E44B6B26FE745
:1028B000226C0099A36CDFF898B002FB1133A3647B
:1028C0001AF078FD814694F87801C0F342001AF0BE
:1028D00073FD049B814406FB03F305FB09F92365A3
:1028E00009F574291F4B09F23F29A3FB09394FEA67
:1028F000994303FB0AF02364A5EB0309A36C6A0860
:102900000344963A934228BF1346C4E91123002397
:10291000C4F88031A0FB0B010BA3D3E90023FDF722
:10292000DFFB114B059A3F1AA3FB0230800A06FB1E
:1029300000F005A3D3E90023A0FB0B01FDF7D0FBBA
:1029400020F07F4670E700BF8D49FD1A07000000A8
:1029500000CA9A3BF4E002001CD902009CD8020095
:102960007FC3C90183DE1B435917B7D100000000A4
:102970002DE9F04F0B6891F81190D3F8008090F892
:102980002030176895B00446C3F38013D0F82200B6
:102990008DF83F30B9F1FF0FE38C12900E461546CB
:1029A000ADF84C300DF1480A40F0DE819AE80300A2
:1029B0001090ADF844102346628E53F8321B0A91F2
:1029C0009B78AB722A81D4F82E306B60D4F83E30FD
:1029D000AB6105F1180094F84230037105210AF04B
:1029E000EFFD6B7F00F03F0060F305036B7794F819
:1029F0004330C3F30402AA77228FEA81012803F04F
:102A00001F0392B240F298811B3303F01F030B2B7C
:102A100000F29281002A00F08F81336800225A6010
:102A2000638F2B82E989D8F8442040F2E24303FB0C
:102A300001FBE18E0D91002A00F0A28198F825108B
:102A400040F6C41240F6A6637F2988BF1A460C924E
:102A50000021384615F0F8FA94F8433097F87821B9
:102A60005B0963F3430287F878211AF0A3FC0B900B
:102A700097F87801C0F342001AF09EFC0B9BCE4AF7
:102A800003440BFB03F303F5742303F23F23A2FB80
:102A900003239B0C6B624FEA5B03963BAB6294F89B
:102AA000353040F2E24202FB03F3AB63A38FA7F899
:102AB00090315946384615F0B3FAC04BC04AC7F8B2
:102AC00094215B44B3FBFBF39AB2A7F88A21298ACD
:102AD000881D824204DDC1F57F41FA310A4492B279
:102AE000A7F886216B68C7F87C31D8F84430002BF2
:102AF00000F0A78101230B93E20700F175814FF4E9
:102B00008073238498F8270019F0A0FB04F12F03A9
:102B1000002800F03781A26AC4F82F20A28D9A8085
:102B2000B9F1FF0F00F03281BAF804301298A4F81E
:102B30002D30C4F829009DF83F3084F822301098D9
:102B4000BDF84430C4F82300A4F82730EB89E386AD
:102B50002B8A2387B7F89031638797F87831C3F3CE
:102B6000420384F83C30384613F078F8A881E080BE
:102B700021460A9874680CF0F9FDAB89E3801C23A8
:102B800023710B9BD4F80090002B40F005810B9B28
:102B900084F820300EF08AFB002840F03A8121466C
:102BA00048460CF0F3FD95F85B00B5F85040B5F8D9
:102BB0005290012100F007001AF002FAA14409F234
:102BC0006E29814404467F4A7F480721E9FB0021A2
:102BD00031234FF000091046BB60C7F8049074A37E
:102BE000D3E90023C7F80C90FDF77AFA20F07F4074
:102BF00038610D99F3686D6A40F2E24202FB0133DD
:102C00000C99303B19440C1B4A46022101200AF062
:102C10008BFBD8F84430ABEB0505B3B1D3F800A07B
:102C2000504611F0ADFCC21C684BCDF800A0D2B2EA
:102C3000484601210BF08EFE012800F029819AF808
:102C40004E306FF300038AF84E30404610F062FEBB
:102C500082465D4856A3D3E90023A4FB0001FDF79B
:102C60003FFACDF80480B3685849009120F07F49BD
:102C70000AF102023F3BD2B24B44012100200BF08B
:102C8000ABFE012800F0E38098F82430DB0700F168
:102C9000B880384612F0E2FF4B4BA5FB03A8044670
:102CA00043A3D3E9002350464146FDF719FA484BA8
:102CB000B668484A079220F07F45A5FB0331BAEB7E
:102CC0000300454B059340F2D113069708933B69E7
:102CD0004FF0000BCDE903B34FF0070303FB0511E1
:102CE00068EB01014FF47A720023FDF7F9F907341C
:102CF0003F3EE4B2CDE90150CDF800903346224684
:102D0000012158460BF04EFD10F0FD0F0CD0334A58
:102D1000334934484FF4E97323F09AF9404080F383
:102D200011884FF0030002DF0122022110460AF051
:102D3000FBFA15B0BDE8F08F0022C8F8142095F812
:102D400020300A9862F3000385F82030E5680126F8
:102D5000214626710CF00AFD28682E7129460CF0D8
:102D600015FD15B0BDE8F08F10AA0DF13F014846E2
:102D700018F064FC9DF83F3002338DF83F301AE6BE
:102D80000C9365E6C4F82F009880C9E60022C4F8C9
:102D90002920A4F82D20CEE66B7F43F040036B770B
:102DA000281D18F043FAE883F1E600BFAFF3008076
:102DB0008D49FD1A0700000083DE1B437FC3C90154
:102DC000404B4C008C49FD1A00CA9A3B69AE010089
:102DD0008D49FD1A39AE0100A5AE010064E602007E
:102DE00054E002009CD80200334A34493448F823A6
:102DF00023F02EF9404080F311884FF0030002DFEA
:102E00007DE6002301220093184611460BF0A2FD37
:102E10003FE7214648460CF0A9FCD8F84040404620
:102E2000D4F8009010F076FD10F0FF0A22D10023B4
:102E30001222A4F806A023722271AA896281637209
:102E4000ADE694F82030C3F340130B9354E60CF036
:102E50006BFD80453FF418AF174A1A49184840F2F5
:102E6000792323F0F5F8404080F311884FF00300F8
:102E700002DF09E7104A144911484FF4A67323F002
:102E8000E7F8404080F311884FF0030002DFCEE7FF
:102E90000CF04AFD82453FF4D2AE074A0949084882
:102EA00040F2792323F0D4F8404080F311884FF0AA
:102EB000030002DFC3E600BF64E60200A8DB0200F5
:102EC0009CD80200C0E6020088DC0200000000007E
:102ED000032838B50D4612D0072802D0002420461A
:102EE00038BD002012F0C2FE04460028F6D090F94A
:102EF0003930002BF2DB03692B60204638BD0020FF
:102F000011F092FD04460028E8D05F22114611F02E
:102F100093FD0B4A0B4B0721E0FB0231184606A339
:102F2000D3E90023FDF7DCF820F07F40286020463D
:102F300038BD00BFAFF300808D49FD1A07000000C7
:102F400000CA9A3B8C49FD1A2DE9F04F8FB00DF164
:102F500037010446DFF8D0A0DFF8D0800DF136004D
:102F60000CF092FC9DF836309DF837B00B930BF0C7
:102F7000DBFDDAF80060A6FB085629A3D3E900239D
:102F80000027814631462846FDF7AAF8CDE90777A4
:102F9000069420F07F44DAF80400254B0593A0FB4B
:102FA00008011FA3D3E90023FDF79AF8214B20F075
:102FB0007F40A4FB0331072202FB0411CDE903701B
:102FC000E81A66EB01014FF47A720023FDF788F8E6
:102FD0000097CDE901404B460B985A4603210BF070
:102FE000E1FB10F0FD0404D06FF08B000FB0BDE8E2
:102FF000F08F1148114A002321F048F920B9DAF87E
:103000000C000FB0BDE8F08F9DF837209DF836001A
:103010000094234603210BF09DFC6FF07300E5E75D
:103020008D49FD1A07000000704B002000CA9A3B32
:10303000ADC601008D49FD1A584B0020447B0B00A2
:1030400038B50F4D04460BF06FFDA9680BF06EFD0F
:10305000696803460B48B3FBF4F4A1FB00011C4470
:1030600005A3D3E90023FDF73BF820F07F4084421D
:1030700094BF0020012038BD8D49FD1A07000000D3
:10308000704B002000CA9A3BF0B5C468636883B0F7
:103090000546002B69D11DF095FA00201DF0E8FAD5
:1030A000A17A607A01F00101C0F382001DF0D2FA2A
:1030B000627A252102F01C0208201DF00FFB464B0E
:1030C000019301A81DF0F2FA444940F25B601DF043
:1030D00095FB237AC3F3420262F306132372204660
:1030E0001AF0D0FB19F060FA58BB637A9B071FD126
:1030F00027682E68384619F0FFFE06446A6806F114
:103100000E0101201DF0D8FC1DF0EEFD204610F050
:103110000FFC811C3246C9B2384619F0FBFE054649
:1031200070BB204619F054FE88B9002003B0F0BDF2
:10313000012018F051FD4178821C00781DF05CFCE4
:10314000D6E7607A10F0030018BF0120F1E7244AA7
:103150002449254840F22C4322F07AFF404080F376
:1031600011884FF0030002DFDFE793F820309A0761
:1031700091D01E4821461DF0E3F91DF0FBFAD4E77B
:10318000174A1B49184840F2144322F061FF194BBB
:103190000721A5FB030301FB05310DA3D3E90023A0
:1031A000FCF79EFF14490246144822F051FF4040AC
:1031B00080F311884FF0030002DF114821461DF013
:1031C000BFF91DF0D7FA6FF08B00AFE7AFF30080C7
:1031D00000CA9A3B00000000D6BE898E55555500A6
:1031E00004EB020020DA02009CD80200C1D00100EA
:1031F0001CD902008D49FD1AB8EB020084EB0200D5
:10320000C5D30100000000002DE9F047C46882B07A
:10321000002306460DF1030104F1140067688DF8E0
:1032200003301AF0F3FA8046002800F0D5803B7B8B
:1032300007EB83031D692B7803F00F03072B0BD0DB
:103240008B4A8C498C489C2322F002FF404080F33B
:1032500011884FF0030002DFAB789B0600F09A80E4
:10326000EB78D8074CBF05F10A022A1D990748BF21
:103270000632180748BF0232D90640F1A68093787B
:1032800051781B0203F4F8530B4300F09E8023890E
:1032900092F800A0013323811DF094F900201DF065
:1032A000E7F997F80990B97A4FEA591901F0010145
:1032B00048461DF0CFF94FEA89025F2108201DF032
:1032C0000DFA6E4B019301A81DF0F0F90AF03F0AC8
:1032D0006B4940F25B601DF091FA504619F02CFEEC
:1032E00040461DF02BFAAB783F2B2BD90DF1030193
:1032F00007F118001AF08AFA054600287FD0214607
:1033000060481DF01DF996201DF0CAFB48461DF0CF
:1033100097FA9DF803302BB1D8F804306B60B8F8F9
:1033200008302B8119F040F9002862D17B7A9B0785
:103330000ED0012018F050FC4178821C00781DF05E
:103340005BFB05E0504821461DF0FAF81DF020FB1C
:1033500027683568384619F0CFFD054405F10E01A0
:10336000726801201DF0A8FB1DF0BEFC204611F084
:1033700011F9C11C2A46C9B2384619F0CBFD0546E1
:10338000002849D1204619F023FD80B9002002B061
:10339000BDE8F087364A3D493748A82322F058FE59
:1033A000404080F311884FF0030002DF58E7304AB5
:1033B0003749314840F2571322F04AFE404080F32B
:1033C00011884FF0030002DFE0E7324821461DF08C
:1033D000B7F81DF0CFF9D9E7254A2F4926488723AA
:1033E00022F036FE404080F311884FF0030002DFE8
:1033F0001DE7787A10F0030018BF01209AE71C4AF5
:1034000026491D48EE2322F023FE404080F3118818
:103410004FF0030002DF72E7154A214916484FF4C6
:10342000A37322F015FE1F4B0721A5FB030301FB2D
:1034300005310DA3D3E90023FCF752FE1A490246D9
:103440001A4822F005FE404080F311884FF0030037
:1034500002DF174821461DF073F81DF08BF96FF05D
:103460008B0094E7AFF3008000CA9A3B0000000095
:10347000C4EB02001CEC02009CD80200D6BE898E70
:103480005555550005DF0100B9DE010044EC02008E
:1034900020DA0200C1D0010014EC020078EB020037
:1034A0001CD902008D49FD1A64EC020084EB020075
:1034B00079D00100000000002DE9F041C4682379B3
:1034C0006FF300038CB023710F4605461DF07AF8A8
:1034D00000201DF0CDF8207C012100F007001DF038
:1034E000B9F8227C9200252102F01C0208201DF070
:1034F000F5F8237C23F01803012023740CF0C6FA9E
:103500000646002800F0B08006F120001DF010F9FA
:10351000714B0B930BA81DF0C9F8704940F25B602A
:103520001DF06CF92079C0F34100253019F004FD3D
:103530006B4821461DF004F823799B0666D596203A
:103540001DF0AEFA00231A46194618461DF0C0F9C0
:1035500019F02AF800285FD1237913F0180F4CD105
:10356000D4F800802E68404619F0C6FC06446A680C
:1035700006F10E0100201DF09FFA1DF0B5FB1DF0B5
:1035800017FA204611F0CEFE411DC9B24046324620
:1035900019F0C0FC0546002874D147B1204619F047
:1035A00017FC002852D100200CB0BDE8F081E3697F
:1035B000002BF3D04B4D07954B4D059540F2F3157D
:1035C0000093CDE90377CDE90177069433460422D1
:1035D000394608950BF0E6F810F0FD0FDED0434AAF
:1035E000434944484FF4FA7322F032FD404080F3DF
:1035F00011884FF0030002DFD0E7012018F0ECFA49
:103600004178821C00781DF0F7F9A9E71DF0C0F998
:1036100018F0CAFF00289FD02079C0F3C00018F02E
:10362000DBFA06460DF12B0018F038FE7178804663
:10363000B21C30781DF0E0F9227C9DF82B0092003E
:10364000414602F01C021DF00DFC89E7274A2A4979
:10365000284840F20B2322F0FBFC404080F3118805
:103660004FF0030002DF9EE7204A244921484FF42F
:10367000C57322F0EDFC404080F311884FF0030049
:1036800002DF41E7194A1E491A4840F2E51322F0C9
:10369000DFFC1C4B0721A5FB030301FB05310CA339
:1036A000D3E90023FCF71CFD17490246174822F016
:1036B000CFFC404080F311884FF0030002DF144834
:1036C00021461CF03DFF1DF055F86FF08B006BE7B5
:1036D00000CA9A3B00000000D6BE898E55555500A1
:1036E000A9EB010085E70100B5E7010070EC0200DD
:1036F00094DC02009CD8020020DA020050EB0200A9
:103700001CD902008D49FD1AC8EC020084EB0200AE
:103710007DE40100000000002DE9F041C46882B0A2
:103720000DF102010546204611F0F0FF23796FF3F9
:10373000861323717C4B00261E8007461CF042FF37
:1037400030461CF095FF6079012100F007001CF065
:1037500081FF62799200FF2102F01C0208201CF018
:10376000BDFF01200CF092F90646002800F0A18070
:1037700006F120001CF0DCFF6C4B019301A81CF04B
:1037800095FF6B4940F25B601DF038F8207900F03E
:103790003F0019F0D1FB214666481CF0D1FE96206F
:1037A0001DF07EF9627902F0070201231046002124
:1037B0001DF08EF818F0F8FE00284ED13B7913F07A
:1037C000180F3FD127682E68384619F095FB06443C
:1037D0006A6806F10E0100201DF06EF90546607959
:1037E000D4F8088000F0070001211CF0B5FF054463
:1037F000607900F00700022845442CD004280CBF53
:103800004FF4BC73282301211D441CF0A7FF28445A
:103810001DF030FA1DF068FA1DF0CAF8204611F0CC
:103820006BFF811D3246C9B2384619F073FB05465D
:1038300000284CD1204619F0CBFA60BB002002B022
:10384000BDE8F081012018F0C7F94178821C0078AA
:103850001DF0D2F8B6E71823D5E73879C0F3C000D9
:1038600018F0BAF906460DF1030018F017FD71784B
:10387000B21C074630781DF0BFF862799DF803004E
:10388000C2F30202920042F0020202F01E02394626
:103890001DF0E8FA96E7284A284929484FF416739C
:1038A00022F0D6FB404080F311884FF0030002DF86
:1038B000C4E7214A234922484FF4F17322F0C8FBA0
:1038C000404080F311884FF0030002DF50E71A4AAE
:1038D0001D491B4840F2392322F0BAFB1B4B07213C
:1038E000A5FB030301FB05310DA3D3E90023FCF77E
:1038F000F7FB17490246174822F0AAFB404080F325
:1039000011884FF0030002DF134821461CF018FE17
:103910001CF030FF6FF08B0091E700BFAFF3008029
:1039200000CA9A3B00000000CA520020D6BE898E11
:1039300055555500C5FA0100DCEC020020DA020002
:103940009CD8020050EB02001CD902008D49FD1AE0
:103950003CED020084EB020035EF010000000000A6
:103960002DE9F041C468A2894FF6FF739A4282B0F4
:1039700000F0C78005461CF029F92B89628AE08A8D
:103980001A4492B21044637FA28280B2411CE18249
:103990005E064FF00001618204F1180100F18C8095
:1039A00003F03F000B46A17F009004F11F0017F0C9
:1039B000F5FB0646D4E90B231344D4E90D0200219C
:1039C0000244E1626163A16AA26394F872208B42AF
:1039D00028BF0B4612F00402236377D01CF0F2FDDF
:1039E00000201CF045FE201D1CF060FE2389A17AFA
:1039F00040F25B6043EA01411CF000FF304619F0E1
:103A00009BFA214658481CF09BFD96201DF048F873
:103A100094F85A2094F85B00C2F3C003002102F02E
:103A2000070200F007001CF053FF20461CF02EF99F
:103A300027682E68384619F05FFA06446A6806F16E
:103A40000E0100201DF038F880461DF021F90020FD
:103A50001DF038F9236B94F85B0003F13002A36B7F
:103A600000F00700012103EB42051CF075FE454400
:103A7000054494F85B0000F00700022824D00428D5
:103A80000CBF4FF4BC73282301211D441CF066FEBB
:103A900028441DF0EFF8A18907313246C9B23846F3
:103AA00019F038FA054698BB204619F091F9D0B9BB
:103AB000002002B0BDE8F0810A4603F03F03E18B2D
:103AC00017F0B8FB064675E71823DDE7D4E91701C0
:103AD00009F0F2FB002881D194F8723043F004031E
:103AE00084F872307AE7214A2149224840F255137E
:103AF00022F0AEFA404080F311884FF0030002DF5D
:103B0000D6E71D4821461CF01BFD1CF033FECFE715
:103B1000164A1A49174840F24B1322F099FA184BEB
:103B20000721A5FB030301FB05310DA3D3E9002306
:103B3000FCF7D6FA13490246134822F089FA4040AE
:103B400080F311884FF0030002DF104821461CF07B
:103B5000F7FC1CF00FFE6FF08B00AAE7AFF30080BC
:103B600000CA9A3B00000000E9FE0100B4ED02002B
:103B700020DA02009CD80200C1D001001CD902004A
:103B80008D49FD1A08EE020084EB020079D0010095
:103B900010B5302028F0DDFF48B100238385011DDA
:103BA000BDE8104006484CF2503221F09EBEBDE800
:103BB0001040044840F26762002320F07BBD00BF44
:103BC000A4CD0200A013002070B503788AB004468B
:103BD0000E4607AD032B20D8DFE803F002191B1DAA
:103BE00011492846FCF7F0FB059563780493A37808
:103BF0000393E37802932379019363790093A37984
:103C00000A4A1E21304621F05BFB0AB070BD08490C
:103C1000E7E70849E5E70849E3E7084A0A212846B3
:103C200021F04EFBE0E700BF70F0020099F00200C7
:103C300077F002007EF0020088F0020092F00200AD
:103C400010B588B00C4625F021FA6946FFF7BCFF95
:103C500022461048104C694621F015FF0F4821F00C
:103C600012FF206818B125F039F9002323600C4CAD
:103C7000206818B125F032F900232360094A002397
:103C80001370094A1370094A1370094A137008B077
:103C900010BD00BFBCF00200901D0020E5F0020046
:103CA000941D002024530020235300201E53002085
:103CB0002053002010B5044688B099B925F0E6F9E4
:103CC0006946FFF781FF6946074821F0DCFE204680
:103CD00025F0E8F8054B1860054821F0D4FE054BA7
:103CE00001221A7008B010BDF8F00200941D0020E7
:103CF00013F102002453002010B588B0044625F0CB
:103D0000D1F8054B1860204625F0C0F96946FFF749
:103D10005BFF08B010BD00BF901D00202DE9F04FE3
:103D20001F46B1B0A94BBE8810920122CDE91110F7
:103D30001A703968A64C2323324627A828F00EFFB4
:103D4000A44A13680133136000220023CDE9142331
:103D5000129BD3F801001490B3F80530ADF854303D
:103D60001E2200211FA828F09AFF1FAA9A49384650
:103D700023F0C1FF1FA8FCF72FFBDDE914ABD4E94A
:103D800002235B4508BF5245054600F0D9807022EA
:103D90000021204628F083FF4FF00009A4F86E6050
:103DA000C4E902ABDFF8348225B122221FA94046C4
:103DB00028F0E7FE8948FCF70FFB83B2054609F1BE
:103DC0001000324627A92044139328F040FF119B8E
:103DD000A4F86C30824B1B6848F84E3C00236360AB
:103DE000804B1B78E3B1DFF80082D8E902239B45C2
:103DF00008BF924514D145B998F84E302BB1774899
:103E0000222208F14E0128F0BCFE7149B8F96E304B
:103E1000B1F96E904B4540F39D80744B01221A70AE
:103E2000734B1B787BB335BB724B9946D3E90212B7
:103E3000934508BF8A4540F0A9804FF070084E2195
:103E400015FB081122224944644828F09AFE634871
:103E5000FCF7C2FA83B2139308FB05985C4BB8F9E0
:103E60006E20B3F96E309A4202DD604B01221A7067
:103E7000002800F091806048554D00210BB2C25CD3
:103E8000002A40F08F80DFF86C914FF000084B461D
:103E90004D46D3E90212934508BF8A4540F0BC80E5
:103EA000524B1B78702202FB08F923B9484905EBF5
:103EB000090028F0CCFEB4F96E100791702101FBC7
:103EC000085109F10800B1F96C100691295C0591BF
:103ED0002A1809F14E035178049191780391D17811
:103EE000029111790191527900924448109A2B4421
:103EF000414621F0C8FD139B002B4DD0404B1B7851
:103F0000002B49D0129817A9FFF75EFE9DF87C3070
:103F1000002B00F0F780119B00933A48109B01960C
:103F200017AA1FA921F0AFFD374D002423B2B342D9
:103F300004F10104C0F2EE80344821F0A4FD2BE02E
:103F4000B4F96E9006EB0903A4F86E30274B0022FB
:103F50001A7025E77022244828F079FE1C49CDF814
:103F60001890B1F96C3005930B7A04934B7A039354
:103F70008B7A0293CB7A01930B7B00934B7B244883
:103F800001F14E02109921F07EFD49E70135052D22
:103F900003F170037FF44AAF0C4B00221A7031B06A
:103FA000BDE8F08F3F2A0ED02B4493F84E30934259
:103FB00009D0134B1B789B07EED50F4A07491548CC
:103FC00021F061FDE8E7013158E700BF065300200A
:103FD000D00E00209C1D0020C15802001E0F0020A2
:103FE000981D002003530020600E00200253002083
:103FF0001C530020701100200853002074F10200AF
:104000000753002014F2020033F2020049F20200CA
:1040100022F102005DF1020008F10108B8F1050F7C
:1040200003F170037FF435AFDFF8F4A0BAF80010A5
:104030004FF0700808FB01F3EA18B2F96CC0119A4E
:1040400062457FF758AF374CB4F96EE0CDF83CE0ED
:10405000B4F96CE0CDF838E094F808E0CDF834E03D
:1040600094F809E0CDF830E094F80AE0CDF82CE0BF
:1040700094F80BE0CDF828E094F80CE0CDF824E0BB
:1040800094F80DE0CDF820E004F14E0ECDE906CE17
:1040900003F108002A18285C059050780490907865
:1040A0000390D07802901079019052791E480092C6
:1040B0004E332B44109A21F0E6FCBAF8000021465A
:1040C000424608FB005028F0C2FD184C0023AAF815
:1040D00000300122194608FB0140B9F9DC50B0F963
:1040E0006C008542B8BF91B202F10102B8BF012352
:1040F000052A09F17009EED1002B3FF4FCAE084B04
:104100001980F8E6DDE910230948009617A921F087
:10411000BAFC09E73A682846D15C21F0B4FC05E70F
:1041200096520020D00E0020ADF102007011002048
:1041300019F2020010B50B78052B00F28380DFE83E
:1041400003F003722355643D8B68002B7AD04868D6
:10415000002877D03C4A1368A3B1181F00231360CE
:104160003A4A136028F0EEFC39480022002320F080
:1041700033F8002866D0828D011DBDE81040354817
:1041800021F0BBBB0438EDE74A68CB68108D0344CF
:1041900031489BB213850278002A53D14A681344F0
:1041A00013F8013C0A2B01D00D2B4BD101230370D6
:1041B00028488368BDE810405B691847264B0024F7
:1041C00030201C7028F0C5FC40B18485011DBDE87D
:1041D000104020484CF2503221F087BBBDE810401F
:1041E0001E4840F26762002320F064BA302028F0B5
:1041F000B0FC014630B30023838516488368BDE8D0
:1042000010401B692822043118474B68191F1B8D69
:1042100023B1BDE81040124828F052B8BDE8104064
:10422000084628F08FBC084A13680BB94B68136026
:1042300006488B6801680B44116803600A8D1944B5
:10424000D21A9AE710BD00BF841D0020801D0020F7
:10425000B00B0020A4CD0200CE520020A0130020FD
:10426000980B002038B50C480C4D4FF0FF324FF042
:10427000FF3320F00BF84FF0FF334FF0FF322846AA
:104280001FF0AAFF828D0446011D002001F05CFD95
:10429000204628F057FCEEE7680B0020980B002022
:1042A0002DE9F04F002589B004460F4616462946F1
:1042B0001A2201A8009528F0F2FC204624F0E6FE20
:1042C0006946FFF781FCDFF84CB1AE4202D109B07C
:1042D000BDE8F08F302028F03CFC04460028F6D0E2
:1042E000721B272A94BF92B2272200F1040882850C
:1042F0007919404628F0ABFCA38D1D44ADB2B54200
:1043000009D17A1912F8012C0D2A04D1E2180A21D8
:1043100001331171A385A28D3F48414621F0EDFA8A
:1043200018B13E48214627F0CBFFDFF8F4A0A18D5D
:10433000DFF8F090584621F0A6FB9AF80010A28D05
:10434000002389F80030C9B90B2A0CD1364909225B
:10435000404628F042FC30B9012234498AF8002056
:104360004846FCF731F82F48FCF736F80028ACD067
:1043700082B22C49002001F0E7FCA6E72C4B01217A
:10438000082A1970237920D1572BECD1E07921F03C
:10439000EEFA00B10138274A637AB2F800C0264A23
:1043A0000121A2F800C0303B01FA00F202EA0C023F
:1043B00003FA00FC624525D1002BD4BF0023012362
:1043C0001E4918481A4620F0A7FFA28D2379062A15
:1043D0000ED1522BC7D1E079194B1A4921F0C7FAF7
:1043E0001A880138024102F001020E4820F094FFC1
:1043F000A38D032BB7D12379422B02BF124B01228D
:104400001A70B0E7114A1070114A1370114B1970ED
:10441000A9E700BF39F20200A4CD0200B00B0020D2
:104420002353002025530020770A002046F2020083
:1044300024530020985200209C5200204BF202008E
:104440009A52002055F202001E53002022530020F1
:1044500021530020205300202DE9F3410378012B44
:1044600040F09780D0E90162EAB1944C944B9548B2
:104470001B68214621F007FB2378322B02D1637899
:10448000312B58D09049914821F0FDFA3224224630
:1044900000218A4828F003FC0022884B8C480094B5
:1044A00011461FF039FB002E73D0874A8348002144
:1044B00014468E4288BF435C01F1010186BF01337F
:1044C000DBB200230A2902F8013BF2D17B4B1878BA
:1044D0003038C2B2092A55D85A78794D303A01FBA2
:1044E0000022002A2A604DDD1F2A2ADC511E1E29C7
:1044F00000F2AB81DFE811F09B005501A9015B01DF
:1045000064019B00A901A901A901A901A901500009
:10451000A9019200A901A901640081008C00A901F0
:1045200066019301A901A901A901A901A901A90194
:10453000A901480186002279A178664821F0A3FAF2
:10454000A4E75E2A55D100222A60634A1278CAB9CC
:104550009A78BAB161480133022213F8011F002989
:1045600008BF3021013200F8011F91B20B2912B2AD
:10457000F3D15B495B4800234B7321F084FA2B682D
:10458000002B36DC00235049514800931F221FF0B6
:10459000C3FA02B0BDE8F0819A7872B900232FE027
:1045A0009C5C4454013212B29642A2F10201F7D847
:1045B000002343544C494D48DFE74B480222F3E7C0
:1045C0004B4B1B78002BE9D14A4A22F80E3F3B4B5C
:1045D0000121987821F0CBF90446D87821F0C7F969
:1045E000013100EB0410072902F8010D03F1020369
:1045F000EFD1414B01221A70C4E73D4A00231370EA
:104600002B60BFE798783D4B21F0B1F91870C5E7F2
:104610003B4B18689B882060A380BFE73248FBF7BC
:10462000DBFE31490246284828F011FBB6E7022E8E
:1046300015D9987821F09BF90146D87821F097F99F
:1046400000EB01102F490880187921F090F90146FC
:1046500058792D4B21F08BF900EB011018802B4B72
:104660002B4F93F80080012A60D03023B8F1000F5F
:10467000A370E37023716371A37118BF412323708A
:10468000244B1B78002B0CBF302331236370224B4B
:104690001B7833B1214B22491A782248013220F08D
:1046A0003BFE214B1B780BB1312323713B78002B50
:1046B0003FF474AF3123637170E700BFCF52002025
:1046C000A01D00205CF20200440A002081F20200DA
:1046D000881D0020A0F2020001530020760A00206D
:1046E000730A0020BBF2020008530020CDF2020042
:1046F00003530020600E00201D5300201F53002094
:10470000680E00209A520020985200202453002066
:10471000055300201E530020205300202253002068
:10472000E1F20200460A0020215300205148FBF725
:1047300053FE10F4004F08BF0246064618BF002281
:104740004C494D4828F083FAB8F1000F01D04123BD
:1047500023700023A355494B1A68494B9A51494A83
:10476000043312689A51A3193A785A72464A127859
:104770009A72464A1278DA720C36454BA2191868BA
:104780009B88A051938009E700229A5541494248ED
:10479000322228F0F6F9414B1B78002B3FF4FEAE95
:1047A00027E73F497022344820F0B6FDF6E6334B48
:1047B0001A683C4BB2FBF3F103FB11223A49F2E7D2
:1047C000304BF5E7D9789A781B79303901EB8101C4
:1047D000303B03EB4103354931F91310344B702062
:1047E00000FB0130303AB0F96C0010F5617F14BF66
:1047F000C1EBC1012F4B12B218BF03EB0113C2EB87
:10480000021203EB42031C4A03F11C0153F8040B90
:1048100042F8040B8B42F9D11B881380BEE61B4A79
:104820001278002A3FF4E5AE9B78303BC3EB0312CD
:10483000214B03EB4203104A03F11C0153F8040B14
:1048400042F8040B8B42F9D1E6E7032A7FF4D1AE9C
:104850009A78303A02EB8201DA781B79303A02EB2F
:10486000410202EB8202303B03EB4203134A137016
:1048700094E600BF810A0020440A0020981D002011
:10488000450A00209C1D00201C53002003530020DB
:10489000680E0020CF520020255300201E53002018
:1048A000E6F20200A0860100E9F202008C5200202C
:1048B000400F0020800D0020F00D00200753002045
:1048C0002DE9F04F9FB0494B079300258DF82050FC
:1048D000474E304627F07DFB60B3302028F039F991
:1048E000044638B385854349434827F0C9FDB3687A
:1048F0001B680BB920461BE040492A4630469847C2
:104900000028F7D1302028F024F905460028F1D0FE
:10491000031D3B491846FBF757FD26220146AA8591
:10492000304620F0EAFF38B1204628F00BF928463F
:1049300028F008F921F025F83222211D304620F018
:10494000D4FF05460028D5D12E4B2F4A18802F4B77
:104950002F4C18802F4B1880052313702E4B187086
:104960002E4B014618704FF40C72204628F097F930
:104970004FF67C43A4F86C30A4F8DC30A4F84C313A
:10498000A4F8BC31A4F82C32254B26481D80702297
:10499000294628F084F970222946234828F07FF917
:1049A00022492348FBF710FD224A2B4602F8013F1B
:1049B00001333E2BFAD11B4A1B4E1F484FF67C4356
:1049C000A2F86C30A6F86C3005F014FA30B11B4830
:1049D00021F059F828461FB0BDE8F08F184805F0BF
:1049E00023FA074680B31748F2E700BF00300240C1
:1049F000A4CD0200913B0000A0130020354100002F
:104A0000EEF20200985200201F5300209A5200201C
:104A1000701100209C5200201E53002020530020C3
:104A200096520020800D0020600E002015F3020039
:104A3000CE0D00208F0D00202C02002020F302005C
:104A40001C0200204DF302000DF11C0898E8030041
:104A5000BD4B83E80300BD48394621F014F8DFF868
:104A6000F0E2BEE80F000DF15C0CACE80F009EE830
:104A70000700B84B8CE80700B74A17A940461FF05B
:104A800011F89DF8713001939DF87030B34A00938E
:104A900001463B46B24820F0F6FF4FF032093A4655
:104AA0000621232001F0ECFAAE4BCDF800903A46F7
:104AB000394640461FF030F81F230146CDE90093E8
:104AC000A948A64A20F0DFFF384602F075FF00280B
:104AD0007FF430AFA54820F0D6FFA5481FF0B0FB0B
:104AE00021F09AFDA34801F023F9002840F0D0827C
:104AF00003F094FD9F4801F01BF9014600287FF464
:104B000069AF40F20113ADF8243006238DF8183058
:104B100006AB0A9340F60953ADF82C301422964B9D
:104B20000C930DA828F0BBF801238DF834300E93B8
:104B30009249934B93480F9320F0A5FF924D2A780A
:104B4000002A2AD0914B924F1878924B3F781B88BD
:104B50000132D2B20121814097422A7003EA010357
:104B600004D38D4A12788240934216D18B4A8C48E6
:104B700012880A4214BF01220022003B18BF012301
:104B8000884920F0C9FB8648FBF726FC844982B29D
:104B9000002001F0D9F800232B70834A13784BB121
:104BA0000133DBB21E2B137004D9804B152118681A
:104BB00024F0DBF97E4B1B786BB17E4D7E48296873
:104BC00020F061FF2B681E2B00F38480092B51DC41
:104BD000774B00221A700022784800231FF0FCFA5D
:104BE000828D1AB1011D002001F0AEF8DFF8D081EE
:104BF00000214FF4004020F025F8D8F800303C2286
:104C00000133C8F80030B3FBF2F102FB113313B9E2
:104C10006C4820F038FF6C4B1B78002B8ED06B4B10
:104C20001B78002B8AD06A4D0027D5E9003253EA61
:104C3000020119D0D8F800101E3342F100028B4255
:104C400072F1000210D2634805F14E02394620F09D
:104C50001AFF70220021284628F021F84FF67C43E5
:104C6000A5F86C305C4B1F800137052F05F17005EE
:104C7000DBD163E70A3B142BAAD801A252F823F038
:104C8000E14D00003D4E0000974E0000C14E000077
:104C9000D14B0000D14B0000D14B0000D14E0000A1
:104CA000D14B0000D14B0000F14E0000D14B000071
:104CB000D14B0000D14B0000D14B0000D14B000084
:104CC000D14B0000D14B0000D14B0000D14B000074
:104CD000114D00005A3B092B3FF67AAF092B3FF6E6
:104CE00077AF01A252F823F085500000D14B0000AD
:104CF000D14B0000D14B0000D14B000043500000CD
:104D000073500000D14B0000D14B00003150000027
:104D1000324D2B78002B3FF45BAF214F3846FBF729
:104D20005BFB42233B703A237B700D233B543B18C3
:104D30000A225A70821C92B23946002001F004F80F
:104D400000232B7044E700BF881D00207FF3020082
:104D500040D1020088F30200594400000000AD0B6E
:104D600095F30200CF520020B2F30200D3F3020009
:104D7000680B002010020020730A0020810A002026
:104D800060003000EAF3020020530020225300208C
:104D90001F53002098520020215300209C520020D5
:104DA000255300204BF2020024530020941D0020C4
:104DB0001D530020A01D0020FCF30200980B0020D2
:104DC000981D00203EF502000553002004530020EA
:104DD000701100204CF50200965200201E53002056
:104DE000AC4D2F78002F7FF4F3AE39464FF40C72A0
:104DF000A94827F054FF4FF67C43A4F86C30A4F880
:104E0000DC30A4F84C31A4F8BC31A4F82C32A34B0C
:104E1000A3491F80A34B1F70A34B0DA81F60012740
:104E20000E9704F02BF8014618B1A04820F02BFE95
:104E3000CEE69F4820F027FE2F70C9E6954D95F8E5
:104E40000080B8F1000F7FF4C3AE4FF40C724146FE
:104E5000914827F024FF4FF67C43A4F86C30A4F867
:104E6000DC30A4F84C31A4F8BC31A4F82C328B4BC4
:104E70008B49A3F800808B4BCDF8388001271F7039
:104E8000894B0DA8C3F8008003F0F8FF0146002805
:104E9000CBD18848CEE77F4D2B780BB104F012F9C7
:104EA000854B01221A702B78002B3FF491AE7C4980
:104EB0000DA803F0E3FF014600283FF489AEB4E7F4
:104EC000744D2B780BB104F0FDF87B4B0022E9E721
:104ED000337A0293737A0193B37A0093F37A327B35
:104EE000717B764820F0CFFD754B01221A706FE67A
:104EF0007448754F20F0C7FD64253B78002B37D1EF
:104F0000724B1B78002BFDD16D4B1B7823B1704980
:104F10007048702227F09BFE5F49DFF8BC816F4824
:104F2000DFF8B8914FF40C7227F091FE6C484746B9
:104F30004D460021C2464FF47A7BB5F96C200591AD
:104F400020F0A1FD059927F802BB0131052964482D
:104F500005F17005F1D10023AAF800305F4BB3F9D9
:104F60006C3013F5617F0AD15E4820F08CFD2FE68E
:104F7000A42000211FF066FE013DBED1C0E701253F
:104F8000B9F9DC2012F5617F1BD15748DFF85CA12D
:104F9000294620F078FD4FF00009702738F8022BE1
:104FA000052A3FF615AE4D4B07FB02334946B3F9D0
:104FB0006C30504609F1010920F065FDA945EDD19D
:104FC00006E641460027702031F8023B052B08D940
:104FD000414B23F817500135052D09F17009CFD148
:104FE000D3E7DFF8F8C000FB03C3B3F96C3093429A
:104FF00007F1010318DCDFF8E0A04FEA430B12AA27
:1050000002EB4303ABF10201EA1B52005144184684
:10501000059227F01CFE059A2AF8175001460AEB64
:105020000B0027F014FED6E79D421F46CCDAD2E7EC
:105030001C4A00231370174A137004F043F82C48DD
:1050400093E72C4F0FCF12AD0FC53B682B600125A6
:1050500009A9294B0095022212A803F017FC01466A
:1050600008B12648E2E6264820F00DFD254B1D70CC
:10507000AEE503F0D3FA054610B101462248D5E665
:105080002248F1E74FF080430122C3F800259FE555
:1050900001259FE405530020701100209652002046
:1050A0001D3D0000045300209C1D002008F4020058
:1050B0002BF402003BF402001C5300204BF40200CE
:1050C000035300207AF4020002530020065300200C
:1050D000600E0020F00D00208C520020400F0020B8
:1050E0008AF402009CF40200A5F40200B2F402006B
:1050F000C1F402005CD1020008D20200CCF402002C
:10510000F2F402000153002006F502002BF5020024
:1051100010B5094C0A44914200D110BD11F8013B71
:10512000584003090001E35CC0B2434018091B0169
:10513000205CDBB25840EEE785F50200014B1B68AE
:10514000184700BF44020020014B1860704700BFA1
:105150004402002030B585B004460D4610220021DF
:10516000684627F09CFD02238DF802302A46044B46
:1051700001932146684620F05BF905B030BD00BFC1
:105180003D51000080B505460E46174698461FF073
:1051900073FD034627F094FDDFF81890044649F8A4
:1051A0000030424630463946A84754F8090001F01D
:1051B0007BFA00BF080000002DE9F047058B04468C
:1051C0002807904611D4022905F0070540F0CD804C
:1051D000204620F030FE78B10138218B042811D808
:1051E000DFE800F0C3106D85950001290CBF45F084
:1051F000100545F02005258388F31188BFF36F8FD4
:10520000BDE8F08701F0070AAA4500F0A680002754
:10521000B9463E46A368002B00F0BD8041F008016E
:10522000218388F31188BFF36F8FA168002900F0F4
:10523000BB800D68002900F0B780D1F804803346A8
:1052400052462046C047002D76D02B6829461D4681
:10525000F0E701F007035A1F012A1BD8002221F0B2
:105260000701062B276889B2C4E9002209D13B4611
:1052700003E0628B013262831B68002BF9D141F09D
:1052800002012183204620F0D6FD00287BD041F08A
:10529000200177E0042B0AD121F0070189B2218394
:1052A000204620F0C8FD10B141F020012183218B60
:1052B00001F0070AAA4550D00027B946AAE723699A
:1052C00021F0070141F00601062DD3F8009021835B
:1052D0002DD1B9F1000F40D041F00801218388F3AE
:1052E0001188BFF36F8F3A492046C84729E021F063
:1052F0000701236941F0040189B2042DD3F8049019
:105300002183E6D000273E464FF0040A82E721F0D1
:105310000701236941F0050189B2052DD3F80890F2
:105320002183D6D000273E464FF0050A72E70027BA
:105330003E464FF0060A6DE72B4687E7B9F1000FAE
:10534000D1D14FF02003EFF3118883F31288BFF31C
:105350006F8F238B23F008032383258BEA062ED53A
:1053600025F01003238305F007056669218B002EC5
:10537000BFF66FAF00232768C4E9003321F00701AF
:1053800041F001012183218B01F0070AAA454FF06A
:1053900000097FF43FAF002F9BD041F0080121832B
:1053A00088F31188BFF36F8F002FC7D03D6839464F
:1053B00033465246204620F06AFD2F46F4E7AB06FE
:1053C0007FF51AAF25F02003238305F00705FFE6DC
:1053D000BB5E02001DF018BD2DE9F7430F460646DF
:1053E0000821C06ADFF8509020F0CDFE3C68241AF6
:1053F00080463C6004EA0905AC4203D8002003B0B3
:10540000BDE8F08308236A462146304620F02EFE90
:105410000028F4D16946304620F0BFFE40B1BDF807
:105420000230BDF804203C6005EA090513441D4420
:10543000A4EB0804E0E700BF0000FFFF2DE9F04700
:10544000044688B000F11407384626F094FEA06A9E
:105450008368DB689847E06228B96FF01505284635
:1054600008B0BDE8F087A06A8368DB6898470368E6
:10547000013B1F2BF1D8A06A216805AA26F04DF93F
:105480000028EAD1A589002DE7D0069BB5FBF3F2F1
:1054900003FB1255002DE0D1E389012BDDD9E36A2E
:1054A000009593F804904FF0FF334FF0FF323846E9
:1054B0001EF0DCFDE06A082120F065FEA8460646E5
:1054C000E3891FFA85FA534508D8E389434523D178
:1054D00038461EF045FE6FF02C05C0E7A1892B046D
:1054E000891B13FA81F14A4608232046009120F0D7
:1054F0000BFE78B16946204620F0C6FD08F1010890
:10550000009908234A4620461FFA88F820F0FCFD3F
:105510000028DAD00135D3E753450BD10099082391
:105520004A46891B204620F0EFFD18B969462046FF
:1055300020F0AAFD69462046FFF74EFF054618B148
:1055400038461EF00DFE8AE7009B63604FEA134861
:105550004FEA0848C4F80880D4E9011399420FD3F0
:10556000082301AA204620F081FD05460028E7D146
:1055700001AB13F8012B914533D10135082DF8D13A
:1055800063681B0C1B0469462046009320F07CFDD9
:10559000A38900994A46204620F0B6FD051ECFDBC0
:1055A000636876D006EB03084FF6FF79A389CDF840
:1055B00000801FFA88F29B1B9A422ED30023616859
:1055C000002B43D0090C090400912046694620F0C5
:1055D0005BFD0099204620F0BCFD0546002D74D0EF
:1055E000AEE701A9204620F0D8FD626810B9921BF1
:1055F0006260B1E7BDF80850BDF80610E06AC4F873
:105600000880294420F0BFFD40449042A060EED1C4
:10561000002DECD06FF01C0568E0082303AA41467A
:10562000204620F023FD0546002889D103A9204605
:1056300020F0B3FD30B1BDF80C304B4502D1BDF8C0
:1056400010300BB1B044B1E70123B8E7204620F099
:1056500080FD054600287FF473AF6368264AA18960
:1056600013400B44A3EB460363601340A360204642
:1056700020F077FEB1E75B1A4A46204620F044FD51
:10568000051EFFF65DAF08D0E26AA36812681344F6
:10569000A360D4E901318B42EDD86168A38901EBA5
:1056A00046029A429AD1DFF85080A26801EA0803C4
:1056B0009A4293D0204620F04CFD054600287FF406
:1056C0003FAF636803EA0803A360A389A288A3EB42
:1056D00046039A4206D038461EF042FD0123237449
:1056E0000025BCE6204620F025FE054638461EF083
:1056F00037FD002DF2D0B2E60000FFFF2DE9F04F9C
:105700001D46037C89B0044689469046002B00F074
:10571000BF80C26A0821104620F035FD2946824626
:10572000104620F030FDA389A3EB8A039D42074673
:1057300000F2B1801DB1B8F1000F00F0AC806368D9
:10574000039304AA03A92046DDF80CB020F05DFD08
:105750000646002865D1BDF810304B4505D062687B
:10576000039B9A42EDD1E5B95BE004A9204620F005
:1057700014FD0028F3D0BDF81200BDF8143075B147
:105780009D420ED14FEA1B41090401442B4642467B
:10579000204620F086FC002803DC064641E0002B72
:1057A0003FD0002F41D104F1140301934FF0FF3299
:1057B0004FF0FF3304F114001EF058FCDFF8DCB0AA
:1057C000E3899E4261D0D4E90123F9188A422FD39C
:1057D000ADF81A3006A8FF238DF81E30ADF81890EA
:1057E000ADF81C5020F087FCA1682B4642462046AD
:1057F00020F055FD29468246E06A20F0C4FCA268EC
:105800000244A260BAF1000F07D106A9204620F099
:1058100080FD002814BF8246AA4601981EF0A0FC15
:105820005646304609B0BDE8F08F5744BFB2BAE7DC
:10583000E06A082120F0A7FC4FF6FF73ADF818309E
:1058400000218DF81E30A389ADF81C10111802EA52
:105850000B021A44101A606006A8ADF81A1020F066
:105860004AFC06A9204620F054FD211D204620F0C8
:105870000BFC636803EA0B03A360204620F071FD74
:1058800082460028C9D101369AE76FF01B0AC4E7A7
:105890006FF00C06C5E76FF01506C2E70000FFFFCA
:1058A00070B5114B1C680D46DCB1104B1968002314
:1058B0008B4202DB6FF0010070BD224612F8106BC4
:1058C000864202D001331446F2E7E06810B96FF067
:1058D0001200F1E726F07DFB0028F8D02C600020B4
:1058E000EAE76FF00C00E7E74802002010D2020060
:1058F00070B588B005460C46C0B269461646FFF73B
:10590000CFFF00281BDB0098C8B14368029383686F
:1059100022680195CDE903360023CDE906230593DE
:10592000C56820F056FE6DB12846084901AA25F049
:10593000F8FE079808B9059B236008B070BD6FF0AA
:105940001500FAE76FF01200F7E700BFD565020017
:105950002DE9F0410F4B1C6805460E461746ACB1C9
:105960004FF0FF324FF0FF330B481EF07FFB6368B0
:105970003246D3F8088029463B462046C0470446B5
:1059800005481EF0EDFB2046BDE8F0816FF00104F4
:10599000F9E700BFA41D0020540B00200023036082
:1059A000044B5A6812B9C3E9000070471060586090
:1059B000704700BFA81D0020014B1860704700BF52
:1059C000A41D002030B585B000230546CDE9023383
:1059D00001904FF0FF330C484FF0FF321EF046FBB2
:1059E0000A4B1C684CB9284600F08EF8044606485D
:1059F0001EF0B6FB204605B030BD636820461B682C
:105A000001A998472468EDE7540B0020A81D002049
:105A10001FB5CDE9010103924FF0FF330A484FF063
:105A2000FF321EF023FB094B1C682CB906481EF000
:105A300097FB204604B010BD636820461B6801A98F
:105A400098472468F1E700BF540B0020A81D0020F0
:105A5000024B0022C3E90022704700BFA81D0020AE
:105A6000024B0022C3E90022FFF7F2BFB01D002065
:105A70002DE9F74307460C4609B100230B601F4D83
:105A8000DFF87C9000264D450FD31E4B1D6885B373
:105A900055F8148C01AA41463846143D20F0C3FD48
:105AA00010B3D6B914BB2E461EE0D5F8008001AA6B
:105AB0004146384620F0B7FD50B116B954B92E46CC
:105AC00006E031680022404620F0ADFD0028F5D107
:105AD0001435D8E7019B2360F1E731680022404686
